{
	"accounts.sol": {
		"UserManagement": {
			"abi": [
				{
					"inputs": [],
					"stateMutability": "nonpayable",
					"type": "constructor"
				},
				{
					"inputs": [
						{
							"internalType": "address",
							"name": "owner",
							"type": "address"
						}
					],
					"name": "OwnableInvalidOwner",
					"type": "error"
				},
				{
					"inputs": [
						{
							"internalType": "address",
							"name": "account",
							"type": "address"
						}
					],
					"name": "OwnableUnauthorizedAccount",
					"type": "error"
				},
				{
					"anonymous": false,
					"inputs": [
						{
							"indexed": false,
							"internalType": "address",
							"name": "avatarContract",
							"type": "address"
						}
					],
					"name": "AvatarContractUpdated",
					"type": "event"
				},
				{
					"anonymous": false,
					"inputs": [
						{
							"indexed": true,
							"internalType": "address",
							"name": "user",
							"type": "address"
						},
						{
							"indexed": false,
							"internalType": "uint256",
							"name": "avatarTokenId",
							"type": "uint256"
						}
					],
					"name": "AvatarUpdated",
					"type": "event"
				},
				{
					"anonymous": false,
					"inputs": [
						{
							"indexed": true,
							"internalType": "address",
							"name": "previousOwner",
							"type": "address"
						},
						{
							"indexed": true,
							"internalType": "address",
							"name": "newOwner",
							"type": "address"
						}
					],
					"name": "OwnershipTransferred",
					"type": "event"
				},
				{
					"anonymous": false,
					"inputs": [
						{
							"indexed": true,
							"internalType": "address",
							"name": "user",
							"type": "address"
						}
					],
					"name": "UserBanned",
					"type": "event"
				},
				{
					"anonymous": false,
					"inputs": [
						{
							"indexed": true,
							"internalType": "address",
							"name": "user",
							"type": "address"
						},
						{
							"indexed": true,
							"internalType": "address",
							"name": "followed",
							"type": "address"
						}
					],
					"name": "UserFollowed",
					"type": "event"
				},
				{
					"anonymous": false,
					"inputs": [
						{
							"indexed": true,
							"internalType": "address",
							"name": "user",
							"type": "address"
						},
						{
							"indexed": false,
							"internalType": "string",
							"name": "username",
							"type": "string"
						}
					],
					"name": "UserRegistered",
					"type": "event"
				},
				{
					"anonymous": false,
					"inputs": [
						{
							"indexed": true,
							"internalType": "address",
							"name": "user",
							"type": "address"
						},
						{
							"indexed": true,
							"internalType": "address",
							"name": "unfollowed",
							"type": "address"
						}
					],
					"name": "UserUnfollowed",
					"type": "event"
				},
				{
					"anonymous": false,
					"inputs": [
						{
							"indexed": true,
							"internalType": "address",
							"name": "user",
							"type": "address"
						},
						{
							"indexed": false,
							"internalType": "string",
							"name": "newUsername",
							"type": "string"
						}
					],
					"name": "UsernameChanged",
					"type": "event"
				},
				{
					"inputs": [
						{
							"internalType": "address",
							"name": "user",
							"type": "address"
						}
					],
					"name": "banUser",
					"outputs": [],
					"stateMutability": "nonpayable",
					"type": "function"
				},
				{
					"inputs": [
						{
							"internalType": "string",
							"name": "newUsername",
							"type": "string"
						}
					],
					"name": "changeMyUsername",
					"outputs": [],
					"stateMutability": "nonpayable",
					"type": "function"
				},
				{
					"inputs": [
						{
							"internalType": "address",
							"name": "userToFollow",
							"type": "address"
						}
					],
					"name": "followUser",
					"outputs": [],
					"stateMutability": "nonpayable",
					"type": "function"
				},
				{
					"inputs": [
						{
							"internalType": "address",
							"name": "user",
							"type": "address"
						}
					],
					"name": "getFollows",
					"outputs": [
						{
							"internalType": "address[]",
							"name": "",
							"type": "address[]"
						}
					],
					"stateMutability": "view",
					"type": "function"
				},
				{
					"inputs": [],
					"name": "getTotalUsers",
					"outputs": [
						{
							"internalType": "uint256",
							"name": "",
							"type": "uint256"
						}
					],
					"stateMutability": "view",
					"type": "function"
				},
				{
					"inputs": [
						{
							"internalType": "address",
							"name": "user",
							"type": "address"
						}
					],
					"name": "getUserInfo",
					"outputs": [
						{
							"components": [
								{
									"internalType": "string",
									"name": "username",
									"type": "string"
								},
								{
									"internalType": "uint256",
									"name": "avatarTokenId",
									"type": "uint256"
								},
								{
									"internalType": "bool",
									"name": "isBanned",
									"type": "bool"
								}
							],
							"internalType": "struct UserManagement.UserInfo",
							"name": "",
							"type": "tuple"
						}
					],
					"stateMutability": "view",
					"type": "function"
				},
				{
					"inputs": [],
					"name": "owner",
					"outputs": [
						{
							"internalType": "address",
							"name": "",
							"type": "address"
						}
					],
					"stateMutability": "view",
					"type": "function"
				},
				{
					"inputs": [
						{
							"internalType": "string",
							"name": "username",
							"type": "string"
						}
					],
					"name": "registerUser",
					"outputs": [],
					"stateMutability": "nonpayable",
					"type": "function"
				},
				{
					"inputs": [],
					"name": "renounceOwnership",
					"outputs": [],
					"stateMutability": "nonpayable",
					"type": "function"
				},
				{
					"inputs": [
						{
							"internalType": "address",
							"name": "avatarContractAddress",
							"type": "address"
						}
					],
					"name": "setAvatarContract",
					"outputs": [],
					"stateMutability": "nonpayable",
					"type": "function"
				},
				{
					"inputs": [
						{
							"internalType": "address",
							"name": "newOwner",
							"type": "address"
						}
					],
					"name": "transferOwnership",
					"outputs": [],
					"stateMutability": "nonpayable",
					"type": "function"
				},
				{
					"inputs": [
						{
							"internalType": "address",
							"name": "userToUnfollow",
							"type": "address"
						}
					],
					"name": "unfollowUser",
					"outputs": [],
					"stateMutability": "nonpayable",
					"type": "function"
				},
				{
					"inputs": [
						{
							"internalType": "uint256",
							"name": "avatarTokenId",
							"type": "uint256"
						}
					],
					"name": "updateAvatar",
					"outputs": [],
					"stateMutability": "nonpayable",
					"type": "function"
				}
			],
			"devdoc": {
				"errors": {
					"OwnableInvalidOwner(address)": [
						{
							"details": "The owner is not a valid owner account. (eg. `address(0)`)"
						}
					],
					"OwnableUnauthorizedAccount(address)": [
						{
							"details": "The caller account is not authorized to perform an operation."
						}
					]
				},
				"kind": "dev",
				"methods": {
					"owner()": {
						"details": "Returns the address of the current owner."
					},
					"renounceOwnership()": {
						"details": "Leaves the contract without owner. It will not be possible to call `onlyOwner` functions. Can only be called by the current owner. NOTE: Renouncing ownership will leave the contract without an owner, thereby disabling any functionality that is only available to the owner."
					},
					"transferOwnership(address)": {
						"details": "Transfers ownership of the contract to a new account (`newOwner`). Can only be called by the current owner."
					}
				},
				"version": 1
			},
			"evm": {
				"assembly": "    /* \"accounts.sol\":178:5787  contract UserManagement is Ownable {... */\n  mstore(0x40, 0x80)\n    /* \"accounts.sol\":1108:1189  constructor() Ownable(msg.sender) {... */\n  callvalue\n  dup1\n  iszero\n  tag_1\n  jumpi\n  0x00\n  dup1\n  revert\ntag_1:\n  pop\n    /* \"accounts.sol\":1130:1140  msg.sender */\n  caller\n    /* \"@openzeppelin/contracts/access/Ownable.sol\":1297:1298  0 */\n  0x00\n    /* \"@openzeppelin/contracts/access/Ownable.sol\":1273:1299  initialOwner == address(0) */\n  0xffffffffffffffffffffffffffffffffffffffff\n  and\n    /* \"@openzeppelin/contracts/access/Ownable.sol\":1273:1285  initialOwner */\n  dup2\n    /* \"@openzeppelin/contracts/access/Ownable.sol\":1273:1299  initialOwner == address(0) */\n  0xffffffffffffffffffffffffffffffffffffffff\n  and\n  sub\n    /* \"@openzeppelin/contracts/access/Ownable.sol\":1269:1364  if (initialOwner == address(0)) {... */\n  tag_5\n  jumpi\n    /* \"@openzeppelin/contracts/access/Ownable.sol\":1350:1351  0 */\n  0x00\n    /* \"@openzeppelin/contracts/access/Ownable.sol\":1322:1353  OwnableInvalidOwner(address(0)) */\n  mload(0x40)\n  0x1e4fbdf700000000000000000000000000000000000000000000000000000000\n  dup2\n  mstore\n  0x04\n  add\n  tag_6\n  swap2\n  swap1\n  tag_7\n  jump\t// in\ntag_6:\n  mload(0x40)\n  dup1\n  swap2\n  sub\n  swap1\n  revert\n    /* \"@openzeppelin/contracts/access/Ownable.sol\":1269:1364  if (initialOwner == address(0)) {... */\ntag_5:\n    /* \"@openzeppelin/contracts/access/Ownable.sol\":1373:1405  _transferOwnership(initialOwner) */\n  tag_8\n    /* \"@openzeppelin/contracts/access/Ownable.sol\":1392:1404  initialOwner */\n  dup2\n    /* \"@openzeppelin/contracts/access/Ownable.sol\":1373:1391  _transferOwnership */\n  shl(0x20, tag_9)\n    /* \"@openzeppelin/contracts/access/Ownable.sol\":1373:1405  _transferOwnership(initialOwner) */\n  0x20\n  shr\n  jump\t// in\ntag_8:\n    /* \"@openzeppelin/contracts/access/Ownable.sol\":1225:1412  constructor(address initialOwner) {... */\n  pop\n    /* \"accounts.sol\":1179:1180  0 */\n  0x00\n    /* \"accounts.sol\":1153:1168  _avatarContract */\n  0x05\n  0x00\n    /* \"accounts.sol\":1153:1181  _avatarContract = address(0) */\n  0x0100\n  exp\n  dup2\n  sload\n  dup2\n  0xffffffffffffffffffffffffffffffffffffffff\n  mul\n  not\n  and\n  swap1\n  dup4\n  0xffffffffffffffffffffffffffffffffffffffff\n  and\n  mul\n  or\n  swap1\n  sstore\n  pop\n    /* \"accounts.sol\":178:5787  contract UserManagement is Ownable {... */\n  jump(tag_11)\n    /* \"@openzeppelin/contracts/access/Ownable.sol\":2912:3099  function _transferOwnership(address newOwner) internal virtual {... */\ntag_9:\n    /* \"@openzeppelin/contracts/access/Ownable.sol\":2985:3001  address oldOwner */\n  0x00\n    /* \"@openzeppelin/contracts/access/Ownable.sol\":3004:3010  _owner */\n  dup1\n  0x00\n  swap1\n  sload\n  swap1\n  0x0100\n  exp\n  swap1\n  div\n  0xffffffffffffffffffffffffffffffffffffffff\n  and\n    /* \"@openzeppelin/contracts/access/Ownable.sol\":2985:3010  address oldOwner = _owner */\n  swap1\n  pop\n    /* \"@openzeppelin/contracts/access/Ownable.sol\":3029:3037  newOwner */\n  dup2\n    /* \"@openzeppelin/contracts/access/Ownable.sol\":3020:3026  _owner */\n  0x00\n  dup1\n    /* \"@openzeppelin/contracts/access/Ownable.sol\":3020:3037  _owner = newOwner */\n  0x0100\n  exp\n  dup2\n  sload\n  dup2\n  0xffffffffffffffffffffffffffffffffffffffff\n  mul\n  not\n  and\n  swap1\n  dup4\n  0xffffffffffffffffffffffffffffffffffffffff\n  and\n  mul\n  or\n  swap1\n  sstore\n  pop\n    /* \"@openzeppelin/contracts/access/Ownable.sol\":3083:3091  newOwner */\n  dup2\n    /* \"@openzeppelin/contracts/access/Ownable.sol\":3052:3092  OwnershipTransferred(oldOwner, newOwner) */\n  0xffffffffffffffffffffffffffffffffffffffff\n  and\n    /* \"@openzeppelin/contracts/access/Ownable.sol\":3073:3081  oldOwner */\n  dup2\n    /* \"@openzeppelin/contracts/access/Ownable.sol\":3052:3092  OwnershipTransferred(oldOwner, newOwner) */\n  0xffffffffffffffffffffffffffffffffffffffff\n  and\n  0x8be0079c531659141344cd1fd0a4f28419497f9722a3daafe3b4186f6b6457e0\n  mload(0x40)\n  mload(0x40)\n  dup1\n  swap2\n  sub\n  swap1\n  log3\n    /* \"@openzeppelin/contracts/access/Ownable.sol\":2975:3099  {... */\n  pop\n    /* \"@openzeppelin/contracts/access/Ownable.sol\":2912:3099  function _transferOwnership(address newOwner) internal virtual {... */\n  pop\n  jump\t// out\n    /* \"#utility.yul\":7:133   */\ntag_13:\n    /* \"#utility.yul\":44:51   */\n  0x00\n    /* \"#utility.yul\":84:126   */\n  0xffffffffffffffffffffffffffffffffffffffff\n    /* \"#utility.yul\":77:82   */\n  dup3\n    /* \"#utility.yul\":73:127   */\n  and\n    /* \"#utility.yul\":62:127   */\n  swap1\n  pop\n    /* \"#utility.yul\":7:133   */\n  swap2\n  swap1\n  pop\n  jump\t// out\n    /* \"#utility.yul\":139:235   */\ntag_14:\n    /* \"#utility.yul\":176:183   */\n  0x00\n    /* \"#utility.yul\":205:229   */\n  tag_19\n    /* \"#utility.yul\":223:228   */\n  dup3\n    /* \"#utility.yul\":205:229   */\n  tag_13\n  jump\t// in\ntag_19:\n    /* \"#utility.yul\":194:229   */\n  swap1\n  pop\n    /* \"#utility.yul\":139:235   */\n  swap2\n  swap1\n  pop\n  jump\t// out\n    /* \"#utility.yul\":241:359   */\ntag_15:\n    /* \"#utility.yul\":328:352   */\n  tag_21\n    /* \"#utility.yul\":346:351   */\n  dup2\n    /* \"#utility.yul\":328:352   */\n  tag_14\n  jump\t// in\ntag_21:\n    /* \"#utility.yul\":323:326   */\n  dup3\n    /* \"#utility.yul\":316:353   */\n  mstore\n    /* \"#utility.yul\":241:359   */\n  pop\n  pop\n  jump\t// out\n    /* \"#utility.yul\":365:587   */\ntag_7:\n    /* \"#utility.yul\":458:462   */\n  0x00\n    /* \"#utility.yul\":496:498   */\n  0x20\n    /* \"#utility.yul\":485:494   */\n  dup3\n    /* \"#utility.yul\":481:499   */\n  add\n    /* \"#utility.yul\":473:499   */\n  swap1\n  pop\n    /* \"#utility.yul\":509:580   */\n  tag_23\n    /* \"#utility.yul\":577:578   */\n  0x00\n    /* \"#utility.yul\":566:575   */\n  dup4\n    /* \"#utility.yul\":562:579   */\n  add\n    /* \"#utility.yul\":553:559   */\n  dup5\n    /* \"#utility.yul\":509:580   */\n  tag_15\n  jump\t// in\ntag_23:\n    /* \"#utility.yul\":365:587   */\n  swap3\n  swap2\n  pop\n  pop\n  jump\t// out\n    /* \"accounts.sol\":178:5787  contract UserManagement is Ownable {... */\ntag_11:\n  dataSize(sub_0)\n  dup1\n  dataOffset(sub_0)\n  0x00\n  codecopy\n  0x00\n  return\nstop\n\nsub_0: assembly {\n        /* \"accounts.sol\":178:5787  contract UserManagement is Ownable {... */\n      mstore(0x40, 0x80)\n      callvalue\n      dup1\n      iszero\n      tag_1\n      jumpi\n      0x00\n      dup1\n      revert\n    tag_1:\n      pop\n      jumpi(tag_2, lt(calldatasize, 0x04))\n      shr(0xe0, calldataload(0x00))\n      dup1\n      0x8da5cb5b\n      gt\n      tag_16\n      jumpi\n      dup1\n      0xbdac6495\n      gt\n      tag_17\n      jumpi\n      dup1\n      0xbdac6495\n      eq\n      tag_12\n      jumpi\n      dup1\n      0xeb0eeb10\n      eq\n      tag_13\n      jumpi\n      dup1\n      0xf107cfcb\n      eq\n      tag_14\n      jumpi\n      dup1\n      0xf2fde38b\n      eq\n      tag_15\n      jumpi\n      jump(tag_2)\n    tag_17:\n      dup1\n      0x8da5cb5b\n      eq\n      tag_9\n      jumpi\n      dup1\n      0x9be572f6\n      eq\n      tag_10\n      jumpi\n      dup1\n      0xa70806f7\n      eq\n      tag_11\n      jumpi\n      jump(tag_2)\n    tag_16:\n      dup1\n      0x10d86b1f\n      eq\n      tag_3\n      jumpi\n      dup1\n      0x499dfa6d\n      eq\n      tag_4\n      jumpi\n      dup1\n      0x6386c1c7\n      eq\n      tag_5\n      jumpi\n      dup1\n      0x704f1b94\n      eq\n      tag_6\n      jumpi\n      dup1\n      0x715018a6\n      eq\n      tag_7\n      jumpi\n      dup1\n      0x8c19ebc8\n      eq\n      tag_8\n      jumpi\n    tag_2:\n      0x00\n      dup1\n      revert\n        /* \"accounts.sol\":3250:3468  function banUser(address user) external onlyOwner {... */\n    tag_3:\n      tag_18\n      0x04\n      dup1\n      calldatasize\n      sub\n      dup2\n      add\n      swap1\n      tag_19\n      swap2\n      swap1\n      tag_20\n      jump\t// in\n    tag_19:\n      tag_21\n      jump\t// in\n    tag_18:\n      stop\n        /* \"accounts.sol\":1964:2525  function updateAvatar(uint256 avatarTokenId) external {... */\n    tag_4:\n      tag_22\n      0x04\n      dup1\n      calldatasize\n      sub\n      dup2\n      add\n      swap1\n      tag_23\n      swap2\n      swap1\n      tag_24\n      jump\t// in\n    tag_23:\n      tag_25\n      jump\t// in\n    tag_22:\n      stop\n        /* \"accounts.sol\":3789:3969  function getUserInfo(address user) external view returns (UserInfo memory) {... */\n    tag_5:\n      tag_26\n      0x04\n      dup1\n      calldatasize\n      sub\n      dup2\n      add\n      swap1\n      tag_27\n      swap2\n      swap1\n      tag_20\n      jump\t// in\n    tag_27:\n      tag_28\n      jump\t// in\n    tag_26:\n      mload(0x40)\n      tag_29\n      swap2\n      swap1\n      tag_30\n      jump\t// in\n    tag_29:\n      mload(0x40)\n      dup1\n      swap2\n      sub\n      swap1\n      return\n        /* \"accounts.sol\":1197:1956  function registerUser(string calldata username) external {... */\n    tag_6:\n      tag_31\n      0x04\n      dup1\n      calldatasize\n      sub\n      dup2\n      add\n      swap1\n      tag_32\n      swap2\n      swap1\n      tag_33\n      jump\t// in\n    tag_32:\n      tag_34\n      jump\t// in\n    tag_31:\n      stop\n        /* \"@openzeppelin/contracts/access/Ownable.sol\":2293:2394  function renounceOwnership() public virtual onlyOwner {... */\n    tag_7:\n      tag_35\n      tag_36\n      jump\t// in\n    tag_35:\n      stop\n        /* \"accounts.sol\":3476:3781  function setAvatarContract(address avatarContractAddress) external onlyOwner {... */\n    tag_8:\n      tag_37\n      0x04\n      dup1\n      calldatasize\n      sub\n      dup2\n      add\n      swap1\n      tag_38\n      swap2\n      swap1\n      tag_20\n      jump\t// in\n    tag_38:\n      tag_39\n      jump\t// in\n    tag_37:\n      stop\n        /* \"@openzeppelin/contracts/access/Ownable.sol\":1638:1723  function owner() public view virtual returns (address) {... */\n    tag_9:\n      tag_40\n      tag_41\n      jump\t// in\n    tag_40:\n      mload(0x40)\n      tag_42\n      swap2\n      swap1\n      tag_43\n      jump\t// in\n    tag_42:\n      mload(0x40)\n      dup1\n      swap2\n      sub\n      swap1\n      return\n        /* \"accounts.sol\":3977:4081  function getTotalUsers() external view returns (uint256) {... */\n    tag_10:\n      tag_44\n      tag_45\n      jump\t// in\n    tag_44:\n      mload(0x40)\n      tag_46\n      swap2\n      swap1\n      tag_47\n      jump\t// in\n    tag_46:\n      mload(0x40)\n      dup1\n      swap2\n      sub\n      swap1\n      return\n        /* \"accounts.sol\":4118:4529  function followUser(address userToFollow) external {... */\n    tag_11:\n      tag_48\n      0x04\n      dup1\n      calldatasize\n      sub\n      dup2\n      add\n      swap1\n      tag_49\n      swap2\n      swap1\n      tag_20\n      jump\t// in\n    tag_49:\n      tag_50\n      jump\t// in\n    tag_48:\n      stop\n        /* \"accounts.sol\":2533:3242  function changeMyUsername(string calldata newUsername) external {... */\n    tag_12:\n      tag_51\n      0x04\n      dup1\n      calldatasize\n      sub\n      dup2\n      add\n      swap1\n      tag_52\n      swap2\n      swap1\n      tag_33\n      jump\t// in\n    tag_52:\n      tag_53\n      jump\t// in\n    tag_51:\n      stop\n        /* \"accounts.sol\":4930:5049  function getFollows(address user) external view returns (address[] memory) {... */\n    tag_13:\n      tag_54\n      0x04\n      dup1\n      calldatasize\n      sub\n      dup2\n      add\n      swap1\n      tag_55\n      swap2\n      swap1\n      tag_20\n      jump\t// in\n    tag_55:\n      tag_56\n      jump\t// in\n    tag_54:\n      mload(0x40)\n      tag_57\n      swap2\n      swap1\n      tag_58\n      jump\t// in\n    tag_57:\n      mload(0x40)\n      dup1\n      swap2\n      sub\n      swap1\n      return\n        /* \"accounts.sol\":4537:4922  function unfollowUser(address userToUnfollow) external {... */\n    tag_14:\n      tag_59\n      0x04\n      dup1\n      calldatasize\n      sub\n      dup2\n      add\n      swap1\n      tag_60\n      swap2\n      swap1\n      tag_20\n      jump\t// in\n    tag_60:\n      tag_61\n      jump\t// in\n    tag_59:\n      stop\n        /* \"@openzeppelin/contracts/access/Ownable.sol\":2543:2758  function transferOwnership(address newOwner) public virtual onlyOwner {... */\n    tag_15:\n      tag_62\n      0x04\n      dup1\n      calldatasize\n      sub\n      dup2\n      add\n      swap1\n      tag_63\n      swap2\n      swap1\n      tag_20\n      jump\t// in\n    tag_63:\n      tag_64\n      jump\t// in\n    tag_62:\n      stop\n        /* \"accounts.sol\":3250:3468  function banUser(address user) external onlyOwner {... */\n    tag_21:\n        /* \"@openzeppelin/contracts/access/Ownable.sol\":1531:1544  _checkOwner() */\n      tag_66\n        /* \"@openzeppelin/contracts/access/Ownable.sol\":1531:1542  _checkOwner */\n      tag_67\n        /* \"@openzeppelin/contracts/access/Ownable.sol\":1531:1544  _checkOwner() */\n      jump\t// in\n    tag_66:\n        /* \"accounts.sol\":3360:3361  0 */\n      0x00\n        /* \"accounts.sol\":3325:3334  _userInfo */\n      0x01\n        /* \"accounts.sol\":3325:3340  _userInfo[user] */\n      0x00\n        /* \"accounts.sol\":3335:3339  user */\n      dup4\n        /* \"accounts.sol\":3325:3340  _userInfo[user] */\n      0xffffffffffffffffffffffffffffffffffffffff\n      and\n      0xffffffffffffffffffffffffffffffffffffffff\n      and\n      dup2\n      mstore\n      0x20\n      add\n      swap1\n      dup2\n      mstore\n      0x20\n      add\n      0x00\n      keccak256\n        /* \"accounts.sol\":3325:3349  _userInfo[user].username */\n      0x00\n      add\n        /* \"accounts.sol\":3319:3357  bytes(_userInfo[user].username).length */\n      dup1\n      sload\n      tag_69\n      swap1\n      tag_70\n      jump\t// in\n    tag_69:\n      swap1\n      pop\n        /* \"accounts.sol\":3319:3361  bytes(_userInfo[user].username).length > 0 */\n      gt\n        /* \"accounts.sol\":3311:3386  require(bytes(_userInfo[user].username).length > 0, \"User not registered.\") */\n      tag_71\n      jumpi\n      mload(0x40)\n      0x08c379a000000000000000000000000000000000000000000000000000000000\n      dup2\n      mstore\n      0x04\n      add\n      tag_72\n      swap1\n      tag_73\n      jump\t// in\n    tag_72:\n      mload(0x40)\n      dup1\n      swap2\n      sub\n      swap1\n      revert\n    tag_71:\n        /* \"accounts.sol\":3424:3428  true */\n      0x01\n        /* \"accounts.sol\":3397:3406  _userInfo */\n      dup1\n        /* \"accounts.sol\":3397:3412  _userInfo[user] */\n      0x00\n        /* \"accounts.sol\":3407:3411  user */\n      dup4\n        /* \"accounts.sol\":3397:3412  _userInfo[user] */\n      0xffffffffffffffffffffffffffffffffffffffff\n      and\n      0xffffffffffffffffffffffffffffffffffffffff\n      and\n      dup2\n      mstore\n      0x20\n      add\n      swap1\n      dup2\n      mstore\n      0x20\n      add\n      0x00\n      keccak256\n        /* \"accounts.sol\":3397:3421  _userInfo[user].isBanned */\n      0x02\n      add\n      0x00\n        /* \"accounts.sol\":3397:3428  _userInfo[user].isBanned = true */\n      0x0100\n      exp\n      dup2\n      sload\n      dup2\n      0xff\n      mul\n      not\n      and\n      swap1\n      dup4\n      iszero\n      iszero\n      mul\n      or\n      swap1\n      sstore\n      pop\n        /* \"accounts.sol\":3455:3459  user */\n      dup1\n        /* \"accounts.sol\":3444:3460  UserBanned(user) */\n      0xffffffffffffffffffffffffffffffffffffffff\n      and\n      0x8f411ad66fd8225d9c3c7c72fd2429139958913fa5c5114dce1c984e069a4f69\n      mload(0x40)\n      mload(0x40)\n      dup1\n      swap2\n      sub\n      swap1\n      log2\n        /* \"accounts.sol\":3250:3468  function banUser(address user) external onlyOwner {... */\n      pop\n      jump\t// out\n        /* \"accounts.sol\":1964:2525  function updateAvatar(uint256 avatarTokenId) external {... */\n    tag_25:\n        /* \"accounts.sol\":2064:2065  0 */\n      0x00\n        /* \"accounts.sol\":2037:2066  _avatarContract != address(0) */\n      0xffffffffffffffffffffffffffffffffffffffff\n      and\n        /* \"accounts.sol\":2037:2052  _avatarContract */\n      0x05\n      0x00\n      swap1\n      sload\n      swap1\n      0x0100\n      exp\n      swap1\n      div\n      0xffffffffffffffffffffffffffffffffffffffff\n      and\n        /* \"accounts.sol\":2037:2066  _avatarContract != address(0) */\n      0xffffffffffffffffffffffffffffffffffffffff\n      and\n      sub\n        /* \"accounts.sol\":2029:2095  require(_avatarContract != address(0), \"Avatar contract not set.\") */\n      tag_75\n      jumpi\n      mload(0x40)\n      0x08c379a000000000000000000000000000000000000000000000000000000000\n      dup2\n      mstore\n      0x04\n      add\n      tag_76\n      swap1\n      tag_77\n      jump\t// in\n    tag_76:\n      mload(0x40)\n      dup1\n      swap2\n      sub\n      swap1\n      revert\n    tag_75:\n        /* \"accounts.sol\":2161:2162  0 */\n      0x00\n        /* \"accounts.sol\":2120:2129  _userInfo */\n      0x01\n        /* \"accounts.sol\":2120:2141  _userInfo[msg.sender] */\n      0x00\n        /* \"accounts.sol\":2130:2140  msg.sender */\n      caller\n        /* \"accounts.sol\":2120:2141  _userInfo[msg.sender] */\n      0xffffffffffffffffffffffffffffffffffffffff\n      and\n      0xffffffffffffffffffffffffffffffffffffffff\n      and\n      dup2\n      mstore\n      0x20\n      add\n      swap1\n      dup2\n      mstore\n      0x20\n      add\n      0x00\n      keccak256\n        /* \"accounts.sol\":2120:2150  _userInfo[msg.sender].username */\n      0x00\n      add\n        /* \"accounts.sol\":2114:2158  bytes(_userInfo[msg.sender].username).length */\n      dup1\n      sload\n      tag_78\n      swap1\n      tag_70\n      jump\t// in\n    tag_78:\n      swap1\n      pop\n        /* \"accounts.sol\":2114:2162  bytes(_userInfo[msg.sender].username).length > 0 */\n      gt\n        /* \"accounts.sol\":2106:2187  require(bytes(_userInfo[msg.sender].username).length > 0, \"User not registered.\") */\n      tag_79\n      jumpi\n      mload(0x40)\n      0x08c379a000000000000000000000000000000000000000000000000000000000\n      dup2\n      mstore\n      0x04\n      add\n      tag_80\n      swap1\n      tag_73\n      jump\t// in\n    tag_80:\n      mload(0x40)\n      dup1\n      swap2\n      sub\n      swap1\n      revert\n    tag_79:\n        /* \"accounts.sol\":2207:2216  _userInfo */\n      0x01\n        /* \"accounts.sol\":2207:2228  _userInfo[msg.sender] */\n      0x00\n        /* \"accounts.sol\":2217:2227  msg.sender */\n      caller\n        /* \"accounts.sol\":2207:2228  _userInfo[msg.sender] */\n      0xffffffffffffffffffffffffffffffffffffffff\n      and\n      0xffffffffffffffffffffffffffffffffffffffff\n      and\n      dup2\n      mstore\n      0x20\n      add\n      swap1\n      dup2\n      mstore\n      0x20\n      add\n      0x00\n      keccak256\n        /* \"accounts.sol\":2207:2237  _userInfo[msg.sender].isBanned */\n      0x02\n      add\n      0x00\n      swap1\n      sload\n      swap1\n      0x0100\n      exp\n      swap1\n      div\n      0xff\n      and\n        /* \"accounts.sol\":2206:2237  !_userInfo[msg.sender].isBanned */\n      iszero\n        /* \"accounts.sol\":2198:2276  require(!_userInfo[msg.sender].isBanned, \"Banned users cannot update avatar.\") */\n      tag_81\n      jumpi\n      mload(0x40)\n      0x08c379a000000000000000000000000000000000000000000000000000000000\n      dup2\n      mstore\n      0x04\n      add\n      tag_82\n      swap1\n      tag_83\n      jump\t// in\n    tag_82:\n      mload(0x40)\n      dup1\n      swap2\n      sub\n      swap1\n      revert\n    tag_81:\n        /* \"accounts.sol\":2346:2356  msg.sender */\n      caller\n        /* \"accounts.sol\":2295:2356  IERC721(_avatarContract).ownerOf(avatarTokenId) == msg.sender */\n      0xffffffffffffffffffffffffffffffffffffffff\n      and\n        /* \"accounts.sol\":2303:2318  _avatarContract */\n      0x05\n      0x00\n      swap1\n      sload\n      swap1\n      0x0100\n      exp\n      swap1\n      div\n      0xffffffffffffffffffffffffffffffffffffffff\n      and\n        /* \"accounts.sol\":2295:2327  IERC721(_avatarContract).ownerOf */\n      0xffffffffffffffffffffffffffffffffffffffff\n      and\n      0x6352211e\n        /* \"accounts.sol\":2328:2341  avatarTokenId */\n      dup4\n        /* \"accounts.sol\":2295:2342  IERC721(_avatarContract).ownerOf(avatarTokenId) */\n      mload(0x40)\n      dup3\n      0xffffffff\n      and\n      0xe0\n      shl\n      dup2\n      mstore\n      0x04\n      add\n      tag_84\n      swap2\n      swap1\n      tag_47\n      jump\t// in\n    tag_84:\n      0x20\n      mload(0x40)\n      dup1\n      dup4\n      sub\n      dup2\n      dup7\n      gas\n      staticcall\n      iszero\n      dup1\n      iszero\n      tag_86\n      jumpi\n      returndatasize\n      0x00\n      dup1\n      returndatacopy\n      revert(0x00, returndatasize)\n    tag_86:\n      pop\n      pop\n      pop\n      pop\n      mload(0x40)\n      returndatasize\n      not(0x1f)\n      0x1f\n      dup3\n      add\n      and\n      dup3\n      add\n      dup1\n      0x40\n      mstore\n      pop\n      dup2\n      add\n      swap1\n      tag_87\n      swap2\n      swap1\n      tag_88\n      jump\t// in\n    tag_87:\n        /* \"accounts.sol\":2295:2356  IERC721(_avatarContract).ownerOf(avatarTokenId) == msg.sender */\n      0xffffffffffffffffffffffffffffffffffffffff\n      and\n      eq\n        /* \"accounts.sol\":2287:2395  require(IERC721(_avatarContract).ownerOf(avatarTokenId) == msg.sender, \"Not the owner of this ERC721 token\") */\n      tag_89\n      jumpi\n      mload(0x40)\n      0x08c379a000000000000000000000000000000000000000000000000000000000\n      dup2\n      mstore\n      0x04\n      add\n      tag_90\n      swap1\n      tag_91\n      jump\t// in\n    tag_90:\n      mload(0x40)\n      dup1\n      swap2\n      sub\n      swap1\n      revert\n    tag_89:\n        /* \"accounts.sol\":2446:2459  avatarTokenId */\n      dup1\n        /* \"accounts.sol\":2408:2417  _userInfo */\n      0x01\n        /* \"accounts.sol\":2408:2429  _userInfo[msg.sender] */\n      0x00\n        /* \"accounts.sol\":2418:2428  msg.sender */\n      caller\n        /* \"accounts.sol\":2408:2429  _userInfo[msg.sender] */\n      0xffffffffffffffffffffffffffffffffffffffff\n      and\n      0xffffffffffffffffffffffffffffffffffffffff\n      and\n      dup2\n      mstore\n      0x20\n      add\n      swap1\n      dup2\n      mstore\n      0x20\n      add\n      0x00\n      keccak256\n        /* \"accounts.sol\":2408:2443  _userInfo[msg.sender].avatarTokenId */\n      0x01\n      add\n        /* \"accounts.sol\":2408:2459  _userInfo[msg.sender].avatarTokenId = avatarTokenId */\n      dup2\n      swap1\n      sstore\n      pop\n        /* \"accounts.sol\":2491:2501  msg.sender */\n      caller\n        /* \"accounts.sol\":2477:2517  AvatarUpdated(msg.sender, avatarTokenId) */\n      0xffffffffffffffffffffffffffffffffffffffff\n      and\n      0x1e5f2d12dd068942f2613e78bb14b0b0aa33962dadfc607a6994f613fcb0bb37\n        /* \"accounts.sol\":2503:2516  avatarTokenId */\n      dup3\n        /* \"accounts.sol\":2477:2517  AvatarUpdated(msg.sender, avatarTokenId) */\n      mload(0x40)\n      tag_92\n      swap2\n      swap1\n      tag_47\n      jump\t// in\n    tag_92:\n      mload(0x40)\n      dup1\n      swap2\n      sub\n      swap1\n      log2\n        /* \"accounts.sol\":1964:2525  function updateAvatar(uint256 avatarTokenId) external {... */\n      pop\n      jump\t// out\n        /* \"accounts.sol\":3789:3969  function getUserInfo(address user) external view returns (UserInfo memory) {... */\n    tag_28:\n        /* \"accounts.sol\":3847:3862  UserInfo memory */\n      tag_93\n      tag_94\n      jump\t// in\n    tag_93:\n        /* \"accounts.sol\":3884:3893  _userInfo */\n      0x01\n        /* \"accounts.sol\":3884:3899  _userInfo[user] */\n      0x00\n        /* \"accounts.sol\":3894:3898  user */\n      dup4\n        /* \"accounts.sol\":3884:3899  _userInfo[user] */\n      0xffffffffffffffffffffffffffffffffffffffff\n      and\n      0xffffffffffffffffffffffffffffffffffffffff\n      and\n      dup2\n      mstore\n      0x20\n      add\n      swap1\n      dup2\n      mstore\n      0x20\n      add\n      0x00\n      keccak256\n        /* \"accounts.sol\":3884:3908  _userInfo[user].isBanned */\n      0x02\n      add\n      0x00\n      swap1\n      sload\n      swap1\n      0x0100\n      exp\n      swap1\n      div\n      0xff\n      and\n        /* \"accounts.sol\":3883:3908  !_userInfo[user].isBanned */\n      iszero\n        /* \"accounts.sol\":3875:3928  require(!_userInfo[user].isBanned, \"User is banned.\") */\n      tag_96\n      jumpi\n      mload(0x40)\n      0x08c379a000000000000000000000000000000000000000000000000000000000\n      dup2\n      mstore\n      0x04\n      add\n      tag_97\n      swap1\n      tag_98\n      jump\t// in\n    tag_97:\n      mload(0x40)\n      dup1\n      swap2\n      sub\n      swap1\n      revert\n    tag_96:\n        /* \"accounts.sol\":3946:3955  _userInfo */\n      0x01\n        /* \"accounts.sol\":3946:3961  _userInfo[user] */\n      0x00\n        /* \"accounts.sol\":3956:3960  user */\n      dup4\n        /* \"accounts.sol\":3946:3961  _userInfo[user] */\n      0xffffffffffffffffffffffffffffffffffffffff\n      and\n      0xffffffffffffffffffffffffffffffffffffffff\n      and\n      dup2\n      mstore\n      0x20\n      add\n      swap1\n      dup2\n      mstore\n      0x20\n      add\n      0x00\n      keccak256\n        /* \"accounts.sol\":3939:3961  return _userInfo[user] */\n      mload(0x40)\n      dup1\n      0x60\n      add\n      0x40\n      mstore\n      swap1\n      dup2\n      0x00\n      dup3\n      add\n      dup1\n      sload\n      tag_99\n      swap1\n      tag_70\n      jump\t// in\n    tag_99:\n      dup1\n      0x1f\n      add\n      0x20\n      dup1\n      swap2\n      div\n      mul\n      0x20\n      add\n      mload(0x40)\n      swap1\n      dup2\n      add\n      0x40\n      mstore\n      dup1\n      swap3\n      swap2\n      swap1\n      dup2\n      dup2\n      mstore\n      0x20\n      add\n      dup3\n      dup1\n      sload\n      tag_100\n      swap1\n      tag_70\n      jump\t// in\n    tag_100:\n      dup1\n      iszero\n      tag_101\n      jumpi\n      dup1\n      0x1f\n      lt\n      tag_102\n      jumpi\n      0x0100\n      dup1\n      dup4\n      sload\n      div\n      mul\n      dup4\n      mstore\n      swap2\n      0x20\n      add\n      swap2\n      jump(tag_101)\n    tag_102:\n      dup3\n      add\n      swap2\n      swap1\n      0x00\n      mstore\n      keccak256(0x00, 0x20)\n      swap1\n    tag_103:\n      dup2\n      sload\n      dup2\n      mstore\n      swap1\n      0x01\n      add\n      swap1\n      0x20\n      add\n      dup1\n      dup4\n      gt\n      tag_103\n      jumpi\n      dup3\n      swap1\n      sub\n      0x1f\n      and\n      dup3\n      add\n      swap2\n    tag_101:\n      pop\n      pop\n      pop\n      pop\n      pop\n      dup2\n      mstore\n      0x20\n      add\n      0x01\n      dup3\n      add\n      sload\n      dup2\n      mstore\n      0x20\n      add\n      0x02\n      dup3\n      add\n      0x00\n      swap1\n      sload\n      swap1\n      0x0100\n      exp\n      swap1\n      div\n      0xff\n      and\n      iszero\n      iszero\n      iszero\n      iszero\n      dup2\n      mstore\n      pop\n      pop\n      swap1\n      pop\n        /* \"accounts.sol\":3789:3969  function getUserInfo(address user) external view returns (UserInfo memory) {... */\n      swap2\n      swap1\n      pop\n      jump\t// out\n        /* \"accounts.sol\":1197:1956  function registerUser(string calldata username) external {... */\n    tag_34:\n        /* \"accounts.sol\":1321:1322  0 */\n      0x00\n        /* \"accounts.sol\":1279:1288  _userInfo */\n      0x01\n        /* \"accounts.sol\":1279:1300  _userInfo[msg.sender] */\n      0x00\n        /* \"accounts.sol\":1289:1299  msg.sender */\n      caller\n        /* \"accounts.sol\":1279:1300  _userInfo[msg.sender] */\n      0xffffffffffffffffffffffffffffffffffffffff\n      and\n      0xffffffffffffffffffffffffffffffffffffffff\n      and\n      dup2\n      mstore\n      0x20\n      add\n      swap1\n      dup2\n      mstore\n      0x20\n      add\n      0x00\n      keccak256\n        /* \"accounts.sol\":1279:1309  _userInfo[msg.sender].username */\n      0x00\n      add\n        /* \"accounts.sol\":1273:1317  bytes(_userInfo[msg.sender].username).length */\n      dup1\n      sload\n      tag_105\n      swap1\n      tag_70\n      jump\t// in\n    tag_105:\n      swap1\n      pop\n        /* \"accounts.sol\":1273:1322  bytes(_userInfo[msg.sender].username).length == 0 */\n      eq\n        /* \"accounts.sol\":1265:1351  require(bytes(_userInfo[msg.sender].username).length == 0, \"User already registered.\") */\n      tag_106\n      jumpi\n      mload(0x40)\n      0x08c379a000000000000000000000000000000000000000000000000000000000\n      dup2\n      mstore\n      0x04\n      add\n      tag_107\n      swap1\n      tag_108\n      jump\t// in\n    tag_107:\n      mload(0x40)\n      dup1\n      swap2\n      sub\n      swap1\n      revert\n    tag_106:\n        /* \"accounts.sol\":1396:1397  4 */\n      0x04\n        /* \"accounts.sol\":1376:1384  username */\n      dup3\n      dup3\n        /* \"accounts.sol\":1370:1392  bytes(username).length */\n      swap1\n      pop\n        /* \"accounts.sol\":1370:1397  bytes(username).length >= 4 */\n      lt\n      iszero\n        /* \"accounts.sol\":1370:1429  bytes(username).length >= 4 && bytes(username).length <= 15 */\n      dup1\n      iszero\n      tag_109\n      jumpi\n      pop\n        /* \"accounts.sol\":1427:1429  15 */\n      0x0f\n        /* \"accounts.sol\":1407:1415  username */\n      dup3\n      dup3\n        /* \"accounts.sol\":1401:1423  bytes(username).length */\n      swap1\n      pop\n        /* \"accounts.sol\":1401:1429  bytes(username).length <= 15 */\n      gt\n      iszero\n        /* \"accounts.sol\":1370:1429  bytes(username).length >= 4 && bytes(username).length <= 15 */\n    tag_109:\n        /* \"accounts.sol\":1362:1475  require(bytes(username).length >= 4 && bytes(username).length <= 15, \"Username must be 4 to 15 characters long.\") */\n      tag_110\n      jumpi\n      mload(0x40)\n      0x08c379a000000000000000000000000000000000000000000000000000000000\n      dup2\n      mstore\n      0x04\n      add\n      tag_111\n      swap1\n      tag_112\n      jump\t// in\n    tag_111:\n      mload(0x40)\n      dup1\n      swap2\n      sub\n      swap1\n      revert\n    tag_110:\n        /* \"accounts.sol\":1534:1535  0 */\n      0x00\n        /* \"accounts.sol\":1494:1536  _usernameToAddress[username] == address(0) */\n      0xffffffffffffffffffffffffffffffffffffffff\n      and\n        /* \"accounts.sol\":1494:1512  _usernameToAddress */\n      0x02\n        /* \"accounts.sol\":1513:1521  username */\n      dup4\n      dup4\n        /* \"accounts.sol\":1494:1522  _usernameToAddress[username] */\n      mload(0x40)\n      tag_113\n      swap3\n      swap2\n      swap1\n      tag_114\n      jump\t// in\n    tag_113:\n      swap1\n      dup2\n      mstore\n      0x20\n      add\n      mload(0x40)\n      dup1\n      swap2\n      sub\n      swap1\n      keccak256\n      0x00\n      swap1\n      sload\n      swap1\n      0x0100\n      exp\n      swap1\n      div\n      0xffffffffffffffffffffffffffffffffffffffff\n      and\n        /* \"accounts.sol\":1494:1536  _usernameToAddress[username] == address(0) */\n      0xffffffffffffffffffffffffffffffffffffffff\n      and\n      eq\n        /* \"accounts.sol\":1486:1564  require(_usernameToAddress[username] == address(0), \"Username already taken.\") */\n      tag_115\n      jumpi\n      mload(0x40)\n      0x08c379a000000000000000000000000000000000000000000000000000000000\n      dup2\n      mstore\n      0x04\n      add\n      tag_116\n      swap1\n      tag_117\n      jump\t// in\n    tag_116:\n      mload(0x40)\n      dup1\n      swap2\n      sub\n      swap1\n      revert\n    tag_115:\n        /* \"accounts.sol\":1584:1593  _userInfo */\n      0x01\n        /* \"accounts.sol\":1584:1605  _userInfo[msg.sender] */\n      0x00\n        /* \"accounts.sol\":1594:1604  msg.sender */\n      caller\n        /* \"accounts.sol\":1584:1605  _userInfo[msg.sender] */\n      0xffffffffffffffffffffffffffffffffffffffff\n      and\n      0xffffffffffffffffffffffffffffffffffffffff\n      and\n      dup2\n      mstore\n      0x20\n      add\n      swap1\n      dup2\n      mstore\n      0x20\n      add\n      0x00\n      keccak256\n        /* \"accounts.sol\":1584:1614  _userInfo[msg.sender].isBanned */\n      0x02\n      add\n      0x00\n      swap1\n      sload\n      swap1\n      0x0100\n      exp\n      swap1\n      div\n      0xff\n      and\n        /* \"accounts.sol\":1583:1614  !_userInfo[msg.sender].isBanned */\n      iszero\n        /* \"accounts.sol\":1575:1648  require(!_userInfo[msg.sender].isBanned, \"Banned users cannot register.\") */\n      tag_118\n      jumpi\n      mload(0x40)\n      0x08c379a000000000000000000000000000000000000000000000000000000000\n      dup2\n      mstore\n      0x04\n      add\n      tag_119\n      swap1\n      tag_120\n      jump\t// in\n    tag_119:\n      mload(0x40)\n      dup1\n      swap2\n      sub\n      swap1\n      revert\n    tag_118:\n        /* \"accounts.sol\":1685:1800  UserInfo({... */\n      mload(0x40)\n      dup1\n      0x60\n      add\n      0x40\n      mstore\n      dup1\n        /* \"accounts.sol\":1719:1727  username */\n      dup4\n      dup4\n        /* \"accounts.sol\":1685:1800  UserInfo({... */\n      dup1\n      dup1\n      0x1f\n      add\n      0x20\n      dup1\n      swap2\n      div\n      mul\n      0x20\n      add\n      mload(0x40)\n      swap1\n      dup2\n      add\n      0x40\n      mstore\n      dup1\n      swap4\n      swap3\n      swap2\n      swap1\n      dup2\n      dup2\n      mstore\n      0x20\n      add\n      dup4\n      dup4\n      dup1\n      dup3\n      dup5\n      calldatacopy\n      0x00\n      dup2\n      dup5\n      add\n      mstore\n      not(0x1f)\n      0x1f\n      dup3\n      add\n      and\n      swap1\n      pop\n      dup1\n      dup4\n      add\n      swap3\n      pop\n      pop\n      pop\n      pop\n      pop\n      pop\n      pop\n      dup2\n      mstore\n      0x20\n      add\n        /* \"accounts.sol\":1757:1758  0 */\n      0x00\n        /* \"accounts.sol\":1685:1800  UserInfo({... */\n      dup2\n      mstore\n      0x20\n      add\n        /* \"accounts.sol\":1783:1788  false */\n      0x00\n        /* \"accounts.sol\":1685:1800  UserInfo({... */\n      iszero\n      iszero\n      dup2\n      mstore\n      pop\n        /* \"accounts.sol\":1661:1670  _userInfo */\n      0x01\n        /* \"accounts.sol\":1661:1682  _userInfo[msg.sender] */\n      0x00\n        /* \"accounts.sol\":1671:1681  msg.sender */\n      caller\n        /* \"accounts.sol\":1661:1682  _userInfo[msg.sender] */\n      0xffffffffffffffffffffffffffffffffffffffff\n      and\n      0xffffffffffffffffffffffffffffffffffffffff\n      and\n      dup2\n      mstore\n      0x20\n      add\n      swap1\n      dup2\n      mstore\n      0x20\n      add\n      0x00\n      keccak256\n        /* \"accounts.sol\":1661:1800  _userInfo[msg.sender] = UserInfo({... */\n      0x00\n      dup3\n      add\n      mload\n      dup2\n      0x00\n      add\n      swap1\n      dup2\n      tag_121\n      swap2\n      swap1\n      tag_122\n      jump\t// in\n    tag_121:\n      pop\n      0x20\n      dup3\n      add\n      mload\n      dup2\n      0x01\n      add\n      sstore\n      0x40\n      dup3\n      add\n      mload\n      dup2\n      0x02\n      add\n      exp(0x0100, 0x00)\n      dup2\n      sload\n      dup2\n      0xff\n      mul\n      not\n      and\n      swap1\n      dup4\n      iszero\n      iszero\n      mul\n      or\n      swap1\n      sstore\n      pop\n      swap1\n      pop\n      pop\n        /* \"accounts.sol\":1842:1852  msg.sender */\n      caller\n        /* \"accounts.sol\":1811:1829  _usernameToAddress */\n      0x02\n        /* \"accounts.sol\":1830:1838  username */\n      dup4\n      dup4\n        /* \"accounts.sol\":1811:1839  _usernameToAddress[username] */\n      mload(0x40)\n      tag_123\n      swap3\n      swap2\n      swap1\n      tag_114\n      jump\t// in\n    tag_123:\n      swap1\n      dup2\n      mstore\n      0x20\n      add\n      mload(0x40)\n      dup1\n      swap2\n      sub\n      swap1\n      keccak256\n      0x00\n        /* \"accounts.sol\":1811:1852  _usernameToAddress[username] = msg.sender */\n      0x0100\n      exp\n      dup2\n      sload\n      dup2\n      0xffffffffffffffffffffffffffffffffffffffff\n      mul\n      not\n      and\n      swap1\n      dup4\n      0xffffffffffffffffffffffffffffffffffffffff\n      and\n      mul\n      or\n      swap1\n      sstore\n      pop\n        /* \"accounts.sol\":1863:1877  _userAddresses */\n      0x04\n        /* \"accounts.sol\":1883:1893  msg.sender */\n      caller\n        /* \"accounts.sol\":1863:1894  _userAddresses.push(msg.sender) */\n      swap1\n      dup1\n      0x01\n      dup2\n      sload\n      add\n      dup1\n      dup3\n      sstore\n      dup1\n      swap2\n      pop\n      pop\n      0x01\n      swap1\n      sub\n      swap1\n      0x00\n      mstore\n      keccak256(0x00, 0x20)\n      add\n      0x00\n      swap1\n      swap2\n      swap1\n      swap2\n      swap1\n      swap2\n      0x0100\n      exp\n      dup2\n      sload\n      dup2\n      0xffffffffffffffffffffffffffffffffffffffff\n      mul\n      not\n      and\n      swap1\n      dup4\n      0xffffffffffffffffffffffffffffffffffffffff\n      and\n      mul\n      or\n      swap1\n      sstore\n      pop\n        /* \"accounts.sol\":1927:1937  msg.sender */\n      caller\n        /* \"accounts.sol\":1912:1948  UserRegistered(msg.sender, username) */\n      0xffffffffffffffffffffffffffffffffffffffff\n      and\n      0x48cac28ad4dc618e15f4c2dd5e97751182f166de97b25618318b2112aa951a2f\n        /* \"accounts.sol\":1939:1947  username */\n      dup4\n      dup4\n        /* \"accounts.sol\":1912:1948  UserRegistered(msg.sender, username) */\n      mload(0x40)\n      tag_125\n      swap3\n      swap2\n      swap1\n      tag_126\n      jump\t// in\n    tag_125:\n      mload(0x40)\n      dup1\n      swap2\n      sub\n      swap1\n      log2\n        /* \"accounts.sol\":1197:1956  function registerUser(string calldata username) external {... */\n      pop\n      pop\n      jump\t// out\n        /* \"@openzeppelin/contracts/access/Ownable.sol\":2293:2394  function renounceOwnership() public virtual onlyOwner {... */\n    tag_36:\n        /* \"@openzeppelin/contracts/access/Ownable.sol\":1531:1544  _checkOwner() */\n      tag_128\n        /* \"@openzeppelin/contracts/access/Ownable.sol\":1531:1542  _checkOwner */\n      tag_67\n        /* \"@openzeppelin/contracts/access/Ownable.sol\":1531:1544  _checkOwner() */\n      jump\t// in\n    tag_128:\n        /* \"@openzeppelin/contracts/access/Ownable.sol\":2357:2387  _transferOwnership(address(0)) */\n      tag_130\n        /* \"@openzeppelin/contracts/access/Ownable.sol\":2384:2385  0 */\n      0x00\n        /* \"@openzeppelin/contracts/access/Ownable.sol\":2357:2375  _transferOwnership */\n      tag_131\n        /* \"@openzeppelin/contracts/access/Ownable.sol\":2357:2387  _transferOwnership(address(0)) */\n      jump\t// in\n    tag_130:\n        /* \"@openzeppelin/contracts/access/Ownable.sol\":2293:2394  function renounceOwnership() public virtual onlyOwner {... */\n      jump\t// out\n        /* \"accounts.sol\":3476:3781  function setAvatarContract(address avatarContractAddress) external onlyOwner {... */\n    tag_39:\n        /* \"@openzeppelin/contracts/access/Ownable.sol\":1531:1544  _checkOwner() */\n      tag_133\n        /* \"@openzeppelin/contracts/access/Ownable.sol\":1531:1542  _checkOwner */\n      tag_67\n        /* \"@openzeppelin/contracts/access/Ownable.sol\":1531:1544  _checkOwner() */\n      jump\t// in\n    tag_133:\n        /* \"accounts.sol\":3605:3606  0 */\n      0x00\n        /* \"accounts.sol\":3572:3607  avatarContractAddress != address(0) */\n      0xffffffffffffffffffffffffffffffffffffffff\n      and\n        /* \"accounts.sol\":3572:3593  avatarContractAddress */\n      dup2\n        /* \"accounts.sol\":3572:3607  avatarContractAddress != address(0) */\n      0xffffffffffffffffffffffffffffffffffffffff\n      and\n      sub\n        /* \"accounts.sol\":3564:3663  require(avatarContractAddress != address(0), \"Avatar contract address cannot be the zero address.\") */\n      tag_135\n      jumpi\n      mload(0x40)\n      0x08c379a000000000000000000000000000000000000000000000000000000000\n      dup2\n      mstore\n      0x04\n      add\n      tag_136\n      swap1\n      tag_137\n      jump\t// in\n    tag_136:\n      mload(0x40)\n      dup1\n      swap2\n      sub\n      swap1\n      revert\n    tag_135:\n        /* \"accounts.sol\":3692:3713  avatarContractAddress */\n      dup1\n        /* \"accounts.sol\":3674:3689  _avatarContract */\n      0x05\n      0x00\n        /* \"accounts.sol\":3674:3713  _avatarContract = avatarContractAddress */\n      0x0100\n      exp\n      dup2\n      sload\n      dup2\n      0xffffffffffffffffffffffffffffffffffffffff\n      mul\n      not\n      and\n      swap1\n      dup4\n      0xffffffffffffffffffffffffffffffffffffffff\n      and\n      mul\n      or\n      swap1\n      sstore\n      pop\n        /* \"accounts.sol\":3729:3773  AvatarContractUpdated(avatarContractAddress) */\n      0xf35afdac17eaec488e5ac0282b73bba562cf0c4a2349e00f79528507ba792da9\n        /* \"accounts.sol\":3751:3772  avatarContractAddress */\n      dup2\n        /* \"accounts.sol\":3729:3773  AvatarContractUpdated(avatarContractAddress) */\n      mload(0x40)\n      tag_138\n      swap2\n      swap1\n      tag_43\n      jump\t// in\n    tag_138:\n      mload(0x40)\n      dup1\n      swap2\n      sub\n      swap1\n      log1\n        /* \"accounts.sol\":3476:3781  function setAvatarContract(address avatarContractAddress) external onlyOwner {... */\n      pop\n      jump\t// out\n        /* \"@openzeppelin/contracts/access/Ownable.sol\":1638:1723  function owner() public view virtual returns (address) {... */\n    tag_41:\n        /* \"@openzeppelin/contracts/access/Ownable.sol\":1684:1691  address */\n      0x00\n        /* \"@openzeppelin/contracts/access/Ownable.sol\":1710:1716  _owner */\n      dup1\n      0x00\n      swap1\n      sload\n      swap1\n      0x0100\n      exp\n      swap1\n      div\n      0xffffffffffffffffffffffffffffffffffffffff\n      and\n        /* \"@openzeppelin/contracts/access/Ownable.sol\":1703:1716  return _owner */\n      swap1\n      pop\n        /* \"@openzeppelin/contracts/access/Ownable.sol\":1638:1723  function owner() public view virtual returns (address) {... */\n      swap1\n      jump\t// out\n        /* \"accounts.sol\":3977:4081  function getTotalUsers() external view returns (uint256) {... */\n    tag_45:\n        /* \"accounts.sol\":4025:4032  uint256 */\n      0x00\n        /* \"accounts.sol\":4052:4066  _userAddresses */\n      0x04\n        /* \"accounts.sol\":4052:4073  _userAddresses.length */\n      dup1\n      sload\n      swap1\n      pop\n        /* \"accounts.sol\":4045:4073  return _userAddresses.length */\n      swap1\n      pop\n        /* \"accounts.sol\":3977:4081  function getTotalUsers() external view returns (uint256) {... */\n      swap1\n      jump\t// out\n        /* \"accounts.sol\":4118:4529  function followUser(address userToFollow) external {... */\n    tag_50:\n        /* \"accounts.sol\":4204:4214  msg.sender */\n      caller\n        /* \"accounts.sol\":4188:4214  userToFollow != msg.sender */\n      0xffffffffffffffffffffffffffffffffffffffff\n      and\n        /* \"accounts.sol\":4188:4200  userToFollow */\n      dup2\n        /* \"accounts.sol\":4188:4214  userToFollow != msg.sender */\n      0xffffffffffffffffffffffffffffffffffffffff\n      and\n      sub\n        /* \"accounts.sol\":4180:4242  require(userToFollow != msg.sender, \"Cannot follow yourself.\") */\n      tag_142\n      jumpi\n      mload(0x40)\n      0x08c379a000000000000000000000000000000000000000000000000000000000\n      dup2\n      mstore\n      0x04\n      add\n      tag_143\n      swap1\n      tag_144\n      jump\t// in\n    tag_143:\n      mload(0x40)\n      dup1\n      swap2\n      sub\n      swap1\n      revert\n    tag_142:\n        /* \"accounts.sol\":4262:4271  _userInfo */\n      0x01\n        /* \"accounts.sol\":4262:4283  _userInfo[msg.sender] */\n      0x00\n        /* \"accounts.sol\":4272:4282  msg.sender */\n      caller\n        /* \"accounts.sol\":4262:4283  _userInfo[msg.sender] */\n      0xffffffffffffffffffffffffffffffffffffffff\n      and\n      0xffffffffffffffffffffffffffffffffffffffff\n      and\n      dup2\n      mstore\n      0x20\n      add\n      swap1\n      dup2\n      mstore\n      0x20\n      add\n      0x00\n      keccak256\n        /* \"accounts.sol\":4262:4292  _userInfo[msg.sender].isBanned */\n      0x02\n      add\n      0x00\n      swap1\n      sload\n      swap1\n      0x0100\n      exp\n      swap1\n      div\n      0xff\n      and\n        /* \"accounts.sol\":4261:4292  !_userInfo[msg.sender].isBanned */\n      iszero\n        /* \"accounts.sol\":4253:4324  require(!_userInfo[msg.sender].isBanned, \"Banned users cannot follow.\") */\n      tag_145\n      jumpi\n      mload(0x40)\n      0x08c379a000000000000000000000000000000000000000000000000000000000\n      dup2\n      mstore\n      0x04\n      add\n      tag_146\n      swap1\n      tag_147\n      jump\t// in\n    tag_146:\n      mload(0x40)\n      dup1\n      swap2\n      sub\n      swap1\n      revert\n    tag_145:\n        /* \"accounts.sol\":4344:4353  _userInfo */\n      0x01\n        /* \"accounts.sol\":4344:4367  _userInfo[userToFollow] */\n      0x00\n        /* \"accounts.sol\":4354:4366  userToFollow */\n      dup3\n        /* \"accounts.sol\":4344:4367  _userInfo[userToFollow] */\n      0xffffffffffffffffffffffffffffffffffffffff\n      and\n      0xffffffffffffffffffffffffffffffffffffffff\n      and\n      dup2\n      mstore\n      0x20\n      add\n      swap1\n      dup2\n      mstore\n      0x20\n      add\n      0x00\n      keccak256\n        /* \"accounts.sol\":4344:4376  _userInfo[userToFollow].isBanned */\n      0x02\n      add\n      0x00\n      swap1\n      sload\n      swap1\n      0x0100\n      exp\n      swap1\n      div\n      0xff\n      and\n        /* \"accounts.sol\":4343:4376  !_userInfo[userToFollow].isBanned */\n      iszero\n        /* \"accounts.sol\":4335:4409  require(!_userInfo[userToFollow].isBanned, \"Cannot follow a banned user.\") */\n      tag_148\n      jumpi\n      mload(0x40)\n      0x08c379a000000000000000000000000000000000000000000000000000000000\n      dup2\n      mstore\n      0x04\n      add\n      tag_149\n      swap1\n      tag_150\n      jump\t// in\n    tag_149:\n      mload(0x40)\n      dup1\n      swap2\n      sub\n      swap1\n      revert\n    tag_148:\n        /* \"accounts.sol\":4422:4434  _userFollows */\n      0x03\n        /* \"accounts.sol\":4422:4446  _userFollows[msg.sender] */\n      0x00\n        /* \"accounts.sol\":4435:4445  msg.sender */\n      caller\n        /* \"accounts.sol\":4422:4446  _userFollows[msg.sender] */\n      0xffffffffffffffffffffffffffffffffffffffff\n      and\n      0xffffffffffffffffffffffffffffffffffffffff\n      and\n      dup2\n      mstore\n      0x20\n      add\n      swap1\n      dup2\n      mstore\n      0x20\n      add\n      0x00\n      keccak256\n        /* \"accounts.sol\":4452:4464  userToFollow */\n      dup2\n        /* \"accounts.sol\":4422:4465  _userFollows[msg.sender].push(userToFollow) */\n      swap1\n      dup1\n      0x01\n      dup2\n      sload\n      add\n      dup1\n      dup3\n      sstore\n      dup1\n      swap2\n      pop\n      pop\n      0x01\n      swap1\n      sub\n      swap1\n      0x00\n      mstore\n      keccak256(0x00, 0x20)\n      add\n      0x00\n      swap1\n      swap2\n      swap1\n      swap2\n      swap1\n      swap2\n      0x0100\n      exp\n      dup2\n      sload\n      dup2\n      0xffffffffffffffffffffffffffffffffffffffff\n      mul\n      not\n      and\n      swap1\n      dup4\n      0xffffffffffffffffffffffffffffffffffffffff\n      and\n      mul\n      or\n      swap1\n      sstore\n      pop\n        /* \"accounts.sol\":4508:4520  userToFollow */\n      dup1\n        /* \"accounts.sol\":4483:4521  UserFollowed(msg.sender, userToFollow) */\n      0xffffffffffffffffffffffffffffffffffffffff\n      and\n        /* \"accounts.sol\":4496:4506  msg.sender */\n      caller\n        /* \"accounts.sol\":4483:4521  UserFollowed(msg.sender, userToFollow) */\n      0xffffffffffffffffffffffffffffffffffffffff\n      and\n      0x30b3435b456f45779984ddfa456115ee4c20d9e446979b1b9e90dbb7e12b90b7\n      mload(0x40)\n      mload(0x40)\n      dup1\n      swap2\n      sub\n      swap1\n      log3\n        /* \"accounts.sol\":4118:4529  function followUser(address userToFollow) external {... */\n      pop\n      jump\t// out\n        /* \"accounts.sol\":2533:3242  function changeMyUsername(string calldata newUsername) external {... */\n    tag_53:\n        /* \"accounts.sol\":2608:2629  UserInfo storage user */\n      0x00\n        /* \"accounts.sol\":2632:2641  _userInfo */\n      0x01\n        /* \"accounts.sol\":2632:2653  _userInfo[msg.sender] */\n      0x00\n        /* \"accounts.sol\":2642:2652  msg.sender */\n      caller\n        /* \"accounts.sol\":2632:2653  _userInfo[msg.sender] */\n      0xffffffffffffffffffffffffffffffffffffffff\n      and\n      0xffffffffffffffffffffffffffffffffffffffff\n      and\n      dup2\n      mstore\n      0x20\n      add\n      swap1\n      dup2\n      mstore\n      0x20\n      add\n      0x00\n      keccak256\n        /* \"accounts.sol\":2608:2653  UserInfo storage user = _userInfo[msg.sender] */\n      swap1\n      pop\n        /* \"accounts.sol\":2702:2703  0 */\n      0x00\n        /* \"accounts.sol\":2678:2682  user */\n      dup2\n        /* \"accounts.sol\":2678:2691  user.username */\n      0x00\n      add\n        /* \"accounts.sol\":2672:2699  bytes(user.username).length */\n      dup1\n      sload\n      tag_153\n      swap1\n      tag_70\n      jump\t// in\n    tag_153:\n      swap1\n      pop\n        /* \"accounts.sol\":2672:2703  bytes(user.username).length > 0 */\n      gt\n        /* \"accounts.sol\":2664:2728  require(bytes(user.username).length > 0, \"User not registered.\") */\n      tag_154\n      jumpi\n      mload(0x40)\n      0x08c379a000000000000000000000000000000000000000000000000000000000\n      dup2\n      mstore\n      0x04\n      add\n      tag_155\n      swap1\n      tag_73\n      jump\t// in\n    tag_155:\n      mload(0x40)\n      dup1\n      swap2\n      sub\n      swap1\n      revert\n    tag_154:\n        /* \"accounts.sol\":2776:2777  4 */\n      0x04\n        /* \"accounts.sol\":2753:2764  newUsername */\n      dup4\n      dup4\n        /* \"accounts.sol\":2747:2772  bytes(newUsername).length */\n      swap1\n      pop\n        /* \"accounts.sol\":2747:2777  bytes(newUsername).length >= 4 */\n      lt\n      iszero\n        /* \"accounts.sol\":2747:2812  bytes(newUsername).length >= 4 && bytes(newUsername).length <= 15 */\n      dup1\n      iszero\n      tag_156\n      jumpi\n      pop\n        /* \"accounts.sol\":2810:2812  15 */\n      0x0f\n        /* \"accounts.sol\":2787:2798  newUsername */\n      dup4\n      dup4\n        /* \"accounts.sol\":2781:2806  bytes(newUsername).length */\n      swap1\n      pop\n        /* \"accounts.sol\":2781:2812  bytes(newUsername).length <= 15 */\n      gt\n      iszero\n        /* \"accounts.sol\":2747:2812  bytes(newUsername).length >= 4 && bytes(newUsername).length <= 15 */\n    tag_156:\n        /* \"accounts.sol\":2739:2858  require(bytes(newUsername).length >= 4 && bytes(newUsername).length <= 15, \"Username must be 4 to 15 characters long.\") */\n      tag_157\n      jumpi\n      mload(0x40)\n      0x08c379a000000000000000000000000000000000000000000000000000000000\n      dup2\n      mstore\n      0x04\n      add\n      tag_158\n      swap1\n      tag_112\n      jump\t// in\n    tag_158:\n      mload(0x40)\n      dup1\n      swap2\n      sub\n      swap1\n      revert\n    tag_157:\n        /* \"accounts.sol\":2920:2921  0 */\n      0x00\n        /* \"accounts.sol\":2877:2922  _usernameToAddress[newUsername] == address(0) */\n      0xffffffffffffffffffffffffffffffffffffffff\n      and\n        /* \"accounts.sol\":2877:2895  _usernameToAddress */\n      0x02\n        /* \"accounts.sol\":2896:2907  newUsername */\n      dup5\n      dup5\n        /* \"accounts.sol\":2877:2908  _usernameToAddress[newUsername] */\n      mload(0x40)\n      tag_159\n      swap3\n      swap2\n      swap1\n      tag_114\n      jump\t// in\n    tag_159:\n      swap1\n      dup2\n      mstore\n      0x20\n      add\n      mload(0x40)\n      dup1\n      swap2\n      sub\n      swap1\n      keccak256\n      0x00\n      swap1\n      sload\n      swap1\n      0x0100\n      exp\n      swap1\n      div\n      0xffffffffffffffffffffffffffffffffffffffff\n      and\n        /* \"accounts.sol\":2877:2922  _usernameToAddress[newUsername] == address(0) */\n      0xffffffffffffffffffffffffffffffffffffffff\n      and\n      eq\n        /* \"accounts.sol\":2869:2950  require(_usernameToAddress[newUsername] == address(0), \"Username already taken.\") */\n      tag_160\n      jumpi\n      mload(0x40)\n      0x08c379a000000000000000000000000000000000000000000000000000000000\n      dup2\n      mstore\n      0x04\n      add\n      tag_161\n      swap1\n      tag_117\n      jump\t// in\n    tag_161:\n      mload(0x40)\n      dup1\n      swap2\n      sub\n      swap1\n      revert\n    tag_160:\n        /* \"accounts.sol\":2970:2974  user */\n      dup1\n        /* \"accounts.sol\":2970:2983  user.isBanned */\n      0x02\n      add\n      0x00\n      swap1\n      sload\n      swap1\n      0x0100\n      exp\n      swap1\n      div\n      0xff\n      and\n        /* \"accounts.sol\":2969:2983  !user.isBanned */\n      iszero\n        /* \"accounts.sol\":2961:3030  require(!user.isBanned, \"Banned users cannot change their username.\") */\n      tag_162\n      jumpi\n      mload(0x40)\n      0x08c379a000000000000000000000000000000000000000000000000000000000\n      dup2\n      mstore\n      0x04\n      add\n      tag_163\n      swap1\n      tag_164\n      jump\t// in\n    tag_163:\n      mload(0x40)\n      dup1\n      swap2\n      sub\n      swap1\n      revert\n    tag_162:\n        /* \"accounts.sol\":3050:3068  _usernameToAddress */\n      0x02\n        /* \"accounts.sol\":3069:3073  user */\n      dup2\n        /* \"accounts.sol\":3069:3082  user.username */\n      0x00\n      add\n        /* \"accounts.sol\":3050:3083  _usernameToAddress[user.username] */\n      mload(0x40)\n      tag_165\n      swap2\n      swap1\n      tag_166\n      jump\t// in\n    tag_165:\n      swap1\n      dup2\n      mstore\n      0x20\n      add\n      mload(0x40)\n      dup1\n      swap2\n      sub\n      swap1\n      keccak256\n      0x00\n        /* \"accounts.sol\":3043:3083  delete _usernameToAddress[user.username] */\n      0x0100\n      exp\n      dup2\n      sload\n      swap1\n      0xffffffffffffffffffffffffffffffffffffffff\n      mul\n      not\n      and\n      swap1\n      sstore\n        /* \"accounts.sol\":3110:3121  newUsername */\n      dup3\n      dup3\n        /* \"accounts.sol\":3094:3098  user */\n      dup3\n        /* \"accounts.sol\":3094:3107  user.username */\n      0x00\n      add\n        /* \"accounts.sol\":3094:3121  user.username = newUsername */\n      swap2\n      dup3\n      tag_167\n      swap3\n      swap2\n      swap1\n      tag_168\n      jump\t// in\n    tag_167:\n      pop\n        /* \"accounts.sol\":3166:3176  msg.sender */\n      caller\n        /* \"accounts.sol\":3132:3150  _usernameToAddress */\n      0x02\n        /* \"accounts.sol\":3151:3162  newUsername */\n      dup5\n      dup5\n        /* \"accounts.sol\":3132:3163  _usernameToAddress[newUsername] */\n      mload(0x40)\n      tag_169\n      swap3\n      swap2\n      swap1\n      tag_114\n      jump\t// in\n    tag_169:\n      swap1\n      dup2\n      mstore\n      0x20\n      add\n      mload(0x40)\n      dup1\n      swap2\n      sub\n      swap1\n      keccak256\n      0x00\n        /* \"accounts.sol\":3132:3176  _usernameToAddress[newUsername] = msg.sender */\n      0x0100\n      exp\n      dup2\n      sload\n      dup2\n      0xffffffffffffffffffffffffffffffffffffffff\n      mul\n      not\n      and\n      swap1\n      dup4\n      0xffffffffffffffffffffffffffffffffffffffff\n      and\n      mul\n      or\n      swap1\n      sstore\n      pop\n        /* \"accounts.sol\":3210:3220  msg.sender */\n      caller\n        /* \"accounts.sol\":3194:3234  UsernameChanged(msg.sender, newUsername) */\n      0xffffffffffffffffffffffffffffffffffffffff\n      and\n      0x52da81525a30dd3d35a802705ef9adc922d33de50a5b8efc24b69e440451e065\n        /* \"accounts.sol\":3222:3233  newUsername */\n      dup5\n      dup5\n        /* \"accounts.sol\":3194:3234  UsernameChanged(msg.sender, newUsername) */\n      mload(0x40)\n      tag_170\n      swap3\n      swap2\n      swap1\n      tag_126\n      jump\t// in\n    tag_170:\n      mload(0x40)\n      dup1\n      swap2\n      sub\n      swap1\n      log2\n        /* \"accounts.sol\":2597:3242  {... */\n      pop\n        /* \"accounts.sol\":2533:3242  function changeMyUsername(string calldata newUsername) external {... */\n      pop\n      pop\n      jump\t// out\n        /* \"accounts.sol\":4930:5049  function getFollows(address user) external view returns (address[] memory) {... */\n    tag_56:\n        /* \"accounts.sol\":4987:5003  address[] memory */\n      0x60\n        /* \"accounts.sol\":5023:5035  _userFollows */\n      0x03\n        /* \"accounts.sol\":5023:5041  _userFollows[user] */\n      0x00\n        /* \"accounts.sol\":5036:5040  user */\n      dup4\n        /* \"accounts.sol\":5023:5041  _userFollows[user] */\n      0xffffffffffffffffffffffffffffffffffffffff\n      and\n      0xffffffffffffffffffffffffffffffffffffffff\n      and\n      dup2\n      mstore\n      0x20\n      add\n      swap1\n      dup2\n      mstore\n      0x20\n      add\n      0x00\n      keccak256\n        /* \"accounts.sol\":5016:5041  return _userFollows[user] */\n      dup1\n      sload\n      dup1\n      0x20\n      mul\n      0x20\n      add\n      mload(0x40)\n      swap1\n      dup2\n      add\n      0x40\n      mstore\n      dup1\n      swap3\n      swap2\n      swap1\n      dup2\n      dup2\n      mstore\n      0x20\n      add\n      dup3\n      dup1\n      sload\n      dup1\n      iszero\n      tag_172\n      jumpi\n      0x20\n      mul\n      dup3\n      add\n      swap2\n      swap1\n      0x00\n      mstore\n      keccak256(0x00, 0x20)\n      swap1\n    tag_173:\n      dup2\n      0x00\n      swap1\n      sload\n      swap1\n      0x0100\n      exp\n      swap1\n      div\n      0xffffffffffffffffffffffffffffffffffffffff\n      and\n      0xffffffffffffffffffffffffffffffffffffffff\n      and\n      dup2\n      mstore\n      0x20\n      add\n      swap1\n      0x01\n      add\n      swap1\n      dup1\n      dup4\n      gt\n      tag_173\n      jumpi\n    tag_172:\n      pop\n      pop\n      pop\n      pop\n      pop\n      swap1\n      pop\n        /* \"accounts.sol\":4930:5049  function getFollows(address user) external view returns (address[] memory) {... */\n      swap2\n      swap1\n      pop\n      jump\t// out\n        /* \"accounts.sol\":4537:4922  function unfollowUser(address userToUnfollow) external {... */\n    tag_61:\n        /* \"accounts.sol\":4629:4639  msg.sender */\n      caller\n        /* \"accounts.sol\":4611:4639  userToUnfollow != msg.sender */\n      0xffffffffffffffffffffffffffffffffffffffff\n      and\n        /* \"accounts.sol\":4611:4625  userToUnfollow */\n      dup2\n        /* \"accounts.sol\":4611:4639  userToUnfollow != msg.sender */\n      0xffffffffffffffffffffffffffffffffffffffff\n      and\n      sub\n        /* \"accounts.sol\":4603:4669  require(userToUnfollow != msg.sender, \"Cannot unfollow yourself.\") */\n      tag_175\n      jumpi\n      mload(0x40)\n      0x08c379a000000000000000000000000000000000000000000000000000000000\n      dup2\n      mstore\n      0x04\n      add\n      tag_176\n      swap1\n      tag_177\n      jump\t// in\n    tag_176:\n      mload(0x40)\n      dup1\n      swap2\n      sub\n      swap1\n      revert\n    tag_175:\n        /* \"accounts.sol\":4680:4692  int256 index */\n      0x00\n        /* \"accounts.sol\":4695:4739  _findFollowIndex(msg.sender, userToUnfollow) */\n      tag_178\n        /* \"accounts.sol\":4712:4722  msg.sender */\n      caller\n        /* \"accounts.sol\":4724:4738  userToUnfollow */\n      dup4\n        /* \"accounts.sol\":4695:4711  _findFollowIndex */\n      tag_179\n        /* \"accounts.sol\":4695:4739  _findFollowIndex(msg.sender, userToUnfollow) */\n      jump\t// in\n    tag_178:\n        /* \"accounts.sol\":4680:4739  int256 index = _findFollowIndex(msg.sender, userToUnfollow) */\n      swap1\n      pop\n        /* \"accounts.sol\":4769:4770  0 */\n      0x00\n        /* \"accounts.sol\":4760:4765  index */\n      dup2\n        /* \"accounts.sol\":4760:4770  index >= 0 */\n      slt\n      iszero\n        /* \"accounts.sol\":4752:4793  require(index >= 0, \"User not followed.\") */\n      tag_180\n      jumpi\n      mload(0x40)\n      0x08c379a000000000000000000000000000000000000000000000000000000000\n      dup2\n      mstore\n      0x04\n      add\n      tag_181\n      swap1\n      tag_182\n      jump\t// in\n    tag_181:\n      mload(0x40)\n      dup1\n      swap2\n      sub\n      swap1\n      revert\n    tag_180:\n        /* \"accounts.sol\":4806:4854  _removeFollowAtIndex(msg.sender, uint256(index)) */\n      tag_183\n        /* \"accounts.sol\":4827:4837  msg.sender */\n      caller\n        /* \"accounts.sol\":4847:4852  index */\n      dup3\n        /* \"accounts.sol\":4806:4826  _removeFollowAtIndex */\n      tag_184\n        /* \"accounts.sol\":4806:4854  _removeFollowAtIndex(msg.sender, uint256(index)) */\n      jump\t// in\n    tag_183:\n        /* \"accounts.sol\":4899:4913  userToUnfollow */\n      dup2\n        /* \"accounts.sol\":4872:4914  UserUnfollowed(msg.sender, userToUnfollow) */\n      0xffffffffffffffffffffffffffffffffffffffff\n      and\n        /* \"accounts.sol\":4887:4897  msg.sender */\n      caller\n        /* \"accounts.sol\":4872:4914  UserUnfollowed(msg.sender, userToUnfollow) */\n      0xffffffffffffffffffffffffffffffffffffffff\n      and\n      0xe7339343c6edff57f2d15278c419523844cea30ae5ee2146aa22cb9e3107dab7\n      mload(0x40)\n      mload(0x40)\n      dup1\n      swap2\n      sub\n      swap1\n      log3\n        /* \"accounts.sol\":4592:4922  {... */\n      pop\n        /* \"accounts.sol\":4537:4922  function unfollowUser(address userToUnfollow) external {... */\n      pop\n      jump\t// out\n        /* \"@openzeppelin/contracts/access/Ownable.sol\":2543:2758  function transferOwnership(address newOwner) public virtual onlyOwner {... */\n    tag_64:\n        /* \"@openzeppelin/contracts/access/Ownable.sol\":1531:1544  _checkOwner() */\n      tag_186\n        /* \"@openzeppelin/contracts/access/Ownable.sol\":1531:1542  _checkOwner */\n      tag_67\n        /* \"@openzeppelin/contracts/access/Ownable.sol\":1531:1544  _checkOwner() */\n      jump\t// in\n    tag_186:\n        /* \"@openzeppelin/contracts/access/Ownable.sol\":2647:2648  0 */\n      0x00\n        /* \"@openzeppelin/contracts/access/Ownable.sol\":2627:2649  newOwner == address(0) */\n      0xffffffffffffffffffffffffffffffffffffffff\n      and\n        /* \"@openzeppelin/contracts/access/Ownable.sol\":2627:2635  newOwner */\n      dup2\n        /* \"@openzeppelin/contracts/access/Ownable.sol\":2627:2649  newOwner == address(0) */\n      0xffffffffffffffffffffffffffffffffffffffff\n      and\n      sub\n        /* \"@openzeppelin/contracts/access/Ownable.sol\":2623:2714  if (newOwner == address(0)) {... */\n      tag_188\n      jumpi\n        /* \"@openzeppelin/contracts/access/Ownable.sol\":2700:2701  0 */\n      0x00\n        /* \"@openzeppelin/contracts/access/Ownable.sol\":2672:2703  OwnableInvalidOwner(address(0)) */\n      mload(0x40)\n      0x1e4fbdf700000000000000000000000000000000000000000000000000000000\n      dup2\n      mstore\n      0x04\n      add\n      tag_189\n      swap2\n      swap1\n      tag_43\n      jump\t// in\n    tag_189:\n      mload(0x40)\n      dup1\n      swap2\n      sub\n      swap1\n      revert\n        /* \"@openzeppelin/contracts/access/Ownable.sol\":2623:2714  if (newOwner == address(0)) {... */\n    tag_188:\n        /* \"@openzeppelin/contracts/access/Ownable.sol\":2723:2751  _transferOwnership(newOwner) */\n      tag_190\n        /* \"@openzeppelin/contracts/access/Ownable.sol\":2742:2750  newOwner */\n      dup2\n        /* \"@openzeppelin/contracts/access/Ownable.sol\":2723:2741  _transferOwnership */\n      tag_131\n        /* \"@openzeppelin/contracts/access/Ownable.sol\":2723:2751  _transferOwnership(newOwner) */\n      jump\t// in\n    tag_190:\n        /* \"@openzeppelin/contracts/access/Ownable.sol\":2543:2758  function transferOwnership(address newOwner) public virtual onlyOwner {... */\n      pop\n      jump\t// out\n        /* \"@openzeppelin/contracts/access/Ownable.sol\":1796:1958  function _checkOwner() internal view virtual {... */\n    tag_67:\n        /* \"@openzeppelin/contracts/access/Ownable.sol\":1866:1878  _msgSender() */\n      tag_192\n        /* \"@openzeppelin/contracts/access/Ownable.sol\":1866:1876  _msgSender */\n      tag_193\n        /* \"@openzeppelin/contracts/access/Ownable.sol\":1866:1878  _msgSender() */\n      jump\t// in\n    tag_192:\n        /* \"@openzeppelin/contracts/access/Ownable.sol\":1855:1878  owner() != _msgSender() */\n      0xffffffffffffffffffffffffffffffffffffffff\n      and\n        /* \"@openzeppelin/contracts/access/Ownable.sol\":1855:1862  owner() */\n      tag_194\n        /* \"@openzeppelin/contracts/access/Ownable.sol\":1855:1860  owner */\n      tag_41\n        /* \"@openzeppelin/contracts/access/Ownable.sol\":1855:1862  owner() */\n      jump\t// in\n    tag_194:\n        /* \"@openzeppelin/contracts/access/Ownable.sol\":1855:1878  owner() != _msgSender() */\n      0xffffffffffffffffffffffffffffffffffffffff\n      and\n      eq\n        /* \"@openzeppelin/contracts/access/Ownable.sol\":1851:1952  if (owner() != _msgSender()) {... */\n      tag_195\n      jumpi\n        /* \"@openzeppelin/contracts/access/Ownable.sol\":1928:1940  _msgSender() */\n      tag_196\n        /* \"@openzeppelin/contracts/access/Ownable.sol\":1928:1938  _msgSender */\n      tag_193\n        /* \"@openzeppelin/contracts/access/Ownable.sol\":1928:1940  _msgSender() */\n      jump\t// in\n    tag_196:\n        /* \"@openzeppelin/contracts/access/Ownable.sol\":1901:1941  OwnableUnauthorizedAccount(_msgSender()) */\n      mload(0x40)\n      0x118cdaa700000000000000000000000000000000000000000000000000000000\n      dup2\n      mstore\n      0x04\n      add\n      tag_197\n      swap2\n      swap1\n      tag_43\n      jump\t// in\n    tag_197:\n      mload(0x40)\n      dup1\n      swap2\n      sub\n      swap1\n      revert\n        /* \"@openzeppelin/contracts/access/Ownable.sol\":1851:1952  if (owner() != _msgSender()) {... */\n    tag_195:\n        /* \"@openzeppelin/contracts/access/Ownable.sol\":1796:1958  function _checkOwner() internal view virtual {... */\n      jump\t// out\n        /* \"@openzeppelin/contracts/access/Ownable.sol\":2912:3099  function _transferOwnership(address newOwner) internal virtual {... */\n    tag_131:\n        /* \"@openzeppelin/contracts/access/Ownable.sol\":2985:3001  address oldOwner */\n      0x00\n        /* \"@openzeppelin/contracts/access/Ownable.sol\":3004:3010  _owner */\n      dup1\n      0x00\n      swap1\n      sload\n      swap1\n      0x0100\n      exp\n      swap1\n      div\n      0xffffffffffffffffffffffffffffffffffffffff\n      and\n        /* \"@openzeppelin/contracts/access/Ownable.sol\":2985:3010  address oldOwner = _owner */\n      swap1\n      pop\n        /* \"@openzeppelin/contracts/access/Ownable.sol\":3029:3037  newOwner */\n      dup2\n        /* \"@openzeppelin/contracts/access/Ownable.sol\":3020:3026  _owner */\n      0x00\n      dup1\n        /* \"@openzeppelin/contracts/access/Ownable.sol\":3020:3037  _owner = newOwner */\n      0x0100\n      exp\n      dup2\n      sload\n      dup2\n      0xffffffffffffffffffffffffffffffffffffffff\n      mul\n      not\n      and\n      swap1\n      dup4\n      0xffffffffffffffffffffffffffffffffffffffff\n      and\n      mul\n      or\n      swap1\n      sstore\n      pop\n        /* \"@openzeppelin/contracts/access/Ownable.sol\":3083:3091  newOwner */\n      dup2\n        /* \"@openzeppelin/contracts/access/Ownable.sol\":3052:3092  OwnershipTransferred(oldOwner, newOwner) */\n      0xffffffffffffffffffffffffffffffffffffffff\n      and\n        /* \"@openzeppelin/contracts/access/Ownable.sol\":3073:3081  oldOwner */\n      dup2\n        /* \"@openzeppelin/contracts/access/Ownable.sol\":3052:3092  OwnershipTransferred(oldOwner, newOwner) */\n      0xffffffffffffffffffffffffffffffffffffffff\n      and\n      0x8be0079c531659141344cd1fd0a4f28419497f9722a3daafe3b4186f6b6457e0\n      mload(0x40)\n      mload(0x40)\n      dup1\n      swap2\n      sub\n      swap1\n      log3\n        /* \"@openzeppelin/contracts/access/Ownable.sol\":2975:3099  {... */\n      pop\n        /* \"@openzeppelin/contracts/access/Ownable.sol\":2912:3099  function _transferOwnership(address newOwner) internal virtual {... */\n      pop\n      jump\t// out\n        /* \"accounts.sol\":5090:5413  function _findFollowIndex(address follower, address followee) private view returns (int256) {... */\n    tag_179:\n        /* \"accounts.sol\":5174:5180  int256 */\n      0x00\n        /* \"accounts.sol\":5198:5207  uint256 i */\n      dup1\n        /* \"accounts.sol\":5210:5211  0 */\n      0x00\n        /* \"accounts.sol\":5198:5211  uint256 i = 0 */\n      swap1\n      pop\n        /* \"accounts.sol\":5193:5373  for (uint256 i = 0; i < _userFollows[follower].length; i++) {... */\n    tag_200:\n        /* \"accounts.sol\":5217:5229  _userFollows */\n      0x03\n        /* \"accounts.sol\":5217:5239  _userFollows[follower] */\n      0x00\n        /* \"accounts.sol\":5230:5238  follower */\n      dup6\n        /* \"accounts.sol\":5217:5239  _userFollows[follower] */\n      0xffffffffffffffffffffffffffffffffffffffff\n      and\n      0xffffffffffffffffffffffffffffffffffffffff\n      and\n      dup2\n      mstore\n      0x20\n      add\n      swap1\n      dup2\n      mstore\n      0x20\n      add\n      0x00\n      keccak256\n        /* \"accounts.sol\":5217:5246  _userFollows[follower].length */\n      dup1\n      sload\n      swap1\n      pop\n        /* \"accounts.sol\":5213:5214  i */\n      dup2\n        /* \"accounts.sol\":5213:5246  i < _userFollows[follower].length */\n      lt\n        /* \"accounts.sol\":5193:5373  for (uint256 i = 0; i < _userFollows[follower].length; i++) {... */\n      iszero\n      tag_201\n      jumpi\n        /* \"accounts.sol\":5301:5309  followee */\n      dup3\n        /* \"accounts.sol\":5272:5309  _userFollows[follower][i] == followee */\n      0xffffffffffffffffffffffffffffffffffffffff\n      and\n        /* \"accounts.sol\":5272:5284  _userFollows */\n      0x03\n        /* \"accounts.sol\":5272:5294  _userFollows[follower] */\n      0x00\n        /* \"accounts.sol\":5285:5293  follower */\n      dup7\n        /* \"accounts.sol\":5272:5294  _userFollows[follower] */\n      0xffffffffffffffffffffffffffffffffffffffff\n      and\n      0xffffffffffffffffffffffffffffffffffffffff\n      and\n      dup2\n      mstore\n      0x20\n      add\n      swap1\n      dup2\n      mstore\n      0x20\n      add\n      0x00\n      keccak256\n        /* \"accounts.sol\":5295:5296  i */\n      dup3\n        /* \"accounts.sol\":5272:5297  _userFollows[follower][i] */\n      dup2\n      sload\n      dup2\n      lt\n      tag_203\n      jumpi\n      tag_204\n      tag_205\n      jump\t// in\n    tag_204:\n    tag_203:\n      swap1\n      0x00\n      mstore\n      keccak256(0x00, 0x20)\n      add\n      0x00\n      swap1\n      sload\n      swap1\n      0x0100\n      exp\n      swap1\n      div\n      0xffffffffffffffffffffffffffffffffffffffff\n      and\n        /* \"accounts.sol\":5272:5309  _userFollows[follower][i] == followee */\n      0xffffffffffffffffffffffffffffffffffffffff\n      and\n      sub\n        /* \"accounts.sol\":5268:5362  if (_userFollows[follower][i] == followee) {... */\n      tag_207\n      jumpi\n        /* \"accounts.sol\":5344:5345  i */\n      dup1\n        /* \"accounts.sol\":5330:5346  return int256(i) */\n      swap2\n      pop\n      pop\n      jump(tag_199)\n        /* \"accounts.sol\":5268:5362  if (_userFollows[follower][i] == followee) {... */\n    tag_207:\n        /* \"accounts.sol\":5248:5251  i++ */\n      dup1\n      dup1\n      0x01\n      add\n      swap2\n      pop\n      pop\n        /* \"accounts.sol\":5193:5373  for (uint256 i = 0; i < _userFollows[follower].length; i++) {... */\n      jump(tag_200)\n    tag_201:\n      pop\n        /* \"accounts.sol\":5390:5392  -1 */\n      0xffffffffffffffffffffffffffffffffffffffffffffffffffffffffffffffff\n        /* \"accounts.sol\":5383:5392  return -1 */\n      swap1\n      pop\n        /* \"accounts.sol\":5090:5413  function _findFollowIndex(address follower, address followee) private view returns (int256) {... */\n    tag_199:\n      swap3\n      swap2\n      pop\n      pop\n      jump\t// out\n        /* \"accounts.sol\":5421:5784  function _removeFollowAtIndex(address follower, uint256 index) private {... */\n    tag_184:\n        /* \"accounts.sol\":5519:5531  _userFollows */\n      0x03\n        /* \"accounts.sol\":5519:5541  _userFollows[follower] */\n      0x00\n        /* \"accounts.sol\":5532:5540  follower */\n      dup4\n        /* \"accounts.sol\":5519:5541  _userFollows[follower] */\n      0xffffffffffffffffffffffffffffffffffffffff\n      and\n      0xffffffffffffffffffffffffffffffffffffffff\n      and\n      dup2\n      mstore\n      0x20\n      add\n      swap1\n      dup2\n      mstore\n      0x20\n      add\n      0x00\n      keccak256\n        /* \"accounts.sol\":5519:5548  _userFollows[follower].length */\n      dup1\n      sload\n      swap1\n      pop\n        /* \"accounts.sol\":5511:5516  index */\n      dup2\n        /* \"accounts.sol\":5511:5548  index < _userFollows[follower].length */\n      lt\n        /* \"accounts.sol\":5503:5573  require(index < _userFollows[follower].length, \"Index out of bounds.\") */\n      tag_209\n      jumpi\n      mload(0x40)\n      0x08c379a000000000000000000000000000000000000000000000000000000000\n      dup2\n      mstore\n      0x04\n      add\n      tag_210\n      swap1\n      tag_211\n      jump\t// in\n    tag_210:\n      mload(0x40)\n      dup1\n      swap2\n      sub\n      swap1\n      revert\n    tag_209:\n        /* \"accounts.sol\":5591:5600  uint256 i */\n      0x00\n        /* \"accounts.sol\":5603:5608  index */\n      dup2\n        /* \"accounts.sol\":5591:5608  uint256 i = index */\n      swap1\n      pop\n        /* \"accounts.sol\":5586:5738  for (uint256 i = index; i < _userFollows[follower].length - 1; i++) {... */\n    tag_212:\n        /* \"accounts.sol\":5646:5647  1 */\n      0x01\n        /* \"accounts.sol\":5614:5626  _userFollows */\n      0x03\n        /* \"accounts.sol\":5614:5636  _userFollows[follower] */\n      0x00\n        /* \"accounts.sol\":5627:5635  follower */\n      dup6\n        /* \"accounts.sol\":5614:5636  _userFollows[follower] */\n      0xffffffffffffffffffffffffffffffffffffffff\n      and\n      0xffffffffffffffffffffffffffffffffffffffff\n      and\n      dup2\n      mstore\n      0x20\n      add\n      swap1\n      dup2\n      mstore\n      0x20\n      add\n      0x00\n      keccak256\n        /* \"accounts.sol\":5614:5643  _userFollows[follower].length */\n      dup1\n      sload\n      swap1\n      pop\n        /* \"accounts.sol\":5614:5647  _userFollows[follower].length - 1 */\n      tag_215\n      swap2\n      swap1\n      tag_216\n      jump\t// in\n    tag_215:\n        /* \"accounts.sol\":5610:5611  i */\n      dup2\n        /* \"accounts.sol\":5610:5647  i < _userFollows[follower].length - 1 */\n      lt\n        /* \"accounts.sol\":5586:5738  for (uint256 i = index; i < _userFollows[follower].length - 1; i++) {... */\n      iszero\n      tag_213\n      jumpi\n        /* \"accounts.sol\":5697:5709  _userFollows */\n      0x03\n        /* \"accounts.sol\":5697:5719  _userFollows[follower] */\n      0x00\n        /* \"accounts.sol\":5710:5718  follower */\n      dup5\n        /* \"accounts.sol\":5697:5719  _userFollows[follower] */\n      0xffffffffffffffffffffffffffffffffffffffff\n      and\n      0xffffffffffffffffffffffffffffffffffffffff\n      and\n      dup2\n      mstore\n      0x20\n      add\n      swap1\n      dup2\n      mstore\n      0x20\n      add\n      0x00\n      keccak256\n        /* \"accounts.sol\":5724:5725  1 */\n      0x01\n        /* \"accounts.sol\":5720:5721  i */\n      dup3\n        /* \"accounts.sol\":5720:5725  i + 1 */\n      tag_217\n      swap2\n      swap1\n      tag_218\n      jump\t// in\n    tag_217:\n        /* \"accounts.sol\":5697:5726  _userFollows[follower][i + 1] */\n      dup2\n      sload\n      dup2\n      lt\n      tag_219\n      jumpi\n      tag_220\n      tag_205\n      jump\t// in\n    tag_220:\n    tag_219:\n      swap1\n      0x00\n      mstore\n      keccak256(0x00, 0x20)\n      add\n      0x00\n      swap1\n      sload\n      swap1\n      0x0100\n      exp\n      swap1\n      div\n      0xffffffffffffffffffffffffffffffffffffffff\n      and\n        /* \"accounts.sol\":5669:5681  _userFollows */\n      0x03\n        /* \"accounts.sol\":5669:5691  _userFollows[follower] */\n      0x00\n        /* \"accounts.sol\":5682:5690  follower */\n      dup6\n        /* \"accounts.sol\":5669:5691  _userFollows[follower] */\n      0xffffffffffffffffffffffffffffffffffffffff\n      and\n      0xffffffffffffffffffffffffffffffffffffffff\n      and\n      dup2\n      mstore\n      0x20\n      add\n      swap1\n      dup2\n      mstore\n      0x20\n      add\n      0x00\n      keccak256\n        /* \"accounts.sol\":5692:5693  i */\n      dup3\n        /* \"accounts.sol\":5669:5694  _userFollows[follower][i] */\n      dup2\n      sload\n      dup2\n      lt\n      tag_222\n      jumpi\n      tag_223\n      tag_205\n      jump\t// in\n    tag_223:\n    tag_222:\n      swap1\n      0x00\n      mstore\n      keccak256(0x00, 0x20)\n      add\n      0x00\n        /* \"accounts.sol\":5669:5726  _userFollows[follower][i] = _userFollows[follower][i + 1] */\n      0x0100\n      exp\n      dup2\n      sload\n      dup2\n      0xffffffffffffffffffffffffffffffffffffffff\n      mul\n      not\n      and\n      swap1\n      dup4\n      0xffffffffffffffffffffffffffffffffffffffff\n      and\n      mul\n      or\n      swap1\n      sstore\n      pop\n        /* \"accounts.sol\":5649:5652  i++ */\n      dup1\n      dup1\n      0x01\n      add\n      swap2\n      pop\n      pop\n        /* \"accounts.sol\":5586:5738  for (uint256 i = index; i < _userFollows[follower].length - 1; i++) {... */\n      jump(tag_212)\n    tag_213:\n      pop\n        /* \"accounts.sol\":5748:5760  _userFollows */\n      0x03\n        /* \"accounts.sol\":5748:5770  _userFollows[follower] */\n      0x00\n        /* \"accounts.sol\":5761:5769  follower */\n      dup4\n        /* \"accounts.sol\":5748:5770  _userFollows[follower] */\n      0xffffffffffffffffffffffffffffffffffffffff\n      and\n      0xffffffffffffffffffffffffffffffffffffffff\n      and\n      dup2\n      mstore\n      0x20\n      add\n      swap1\n      dup2\n      mstore\n      0x20\n      add\n      0x00\n      keccak256\n        /* \"accounts.sol\":5748:5776  _userFollows[follower].pop() */\n      dup1\n      sload\n      dup1\n      tag_225\n      jumpi\n      tag_226\n      tag_227\n      jump\t// in\n    tag_226:\n    tag_225:\n      0x01\n      swap1\n      sub\n      dup2\n      dup2\n      swap1\n      0x00\n      mstore\n      keccak256(0x00, 0x20)\n      add\n      exp(0x0100, 0x00)\n      dup2\n      sload\n      swap1\n      0xffffffffffffffffffffffffffffffffffffffff\n      mul\n      not\n      and\n      swap1\n      sstore\n      swap1\n      sstore\n        /* \"accounts.sol\":5421:5784  function _removeFollowAtIndex(address follower, uint256 index) private {... */\n      pop\n      pop\n      jump\t// out\n        /* \"@openzeppelin/contracts/utils/Context.sol\":656:752  function _msgSender() internal view virtual returns (address) {... */\n    tag_193:\n        /* \"@openzeppelin/contracts/utils/Context.sol\":709:716  address */\n      0x00\n        /* \"@openzeppelin/contracts/utils/Context.sol\":735:745  msg.sender */\n      caller\n        /* \"@openzeppelin/contracts/utils/Context.sol\":728:745  return msg.sender */\n      swap1\n      pop\n        /* \"@openzeppelin/contracts/utils/Context.sol\":656:752  function _msgSender() internal view virtual returns (address) {... */\n      swap1\n      jump\t// out\n    tag_94:\n      mload(0x40)\n      dup1\n      0x60\n      add\n      0x40\n      mstore\n      dup1\n      0x60\n      dup2\n      mstore\n      0x20\n      add\n      0x00\n      dup2\n      mstore\n      0x20\n      add\n      iszero(iszero(0x00))\n      dup2\n      mstore\n      pop\n      swap1\n      jump\t// out\n        /* \"#utility.yul\":88:205   */\n    tag_231:\n        /* \"#utility.yul\":197:198   */\n      0x00\n        /* \"#utility.yul\":194:195   */\n      dup1\n        /* \"#utility.yul\":187:199   */\n      revert\n        /* \"#utility.yul\":211:328   */\n    tag_232:\n        /* \"#utility.yul\":320:321   */\n      0x00\n        /* \"#utility.yul\":317:318   */\n      dup1\n        /* \"#utility.yul\":310:322   */\n      revert\n        /* \"#utility.yul\":334:460   */\n    tag_233:\n        /* \"#utility.yul\":371:378   */\n      0x00\n        /* \"#utility.yul\":411:453   */\n      0xffffffffffffffffffffffffffffffffffffffff\n        /* \"#utility.yul\":404:409   */\n      dup3\n        /* \"#utility.yul\":400:454   */\n      and\n        /* \"#utility.yul\":389:454   */\n      swap1\n      pop\n        /* \"#utility.yul\":334:460   */\n      swap2\n      swap1\n      pop\n      jump\t// out\n        /* \"#utility.yul\":466:562   */\n    tag_234:\n        /* \"#utility.yul\":503:510   */\n      0x00\n        /* \"#utility.yul\":532:556   */\n      tag_328\n        /* \"#utility.yul\":550:555   */\n      dup3\n        /* \"#utility.yul\":532:556   */\n      tag_233\n      jump\t// in\n    tag_328:\n        /* \"#utility.yul\":521:556   */\n      swap1\n      pop\n        /* \"#utility.yul\":466:562   */\n      swap2\n      swap1\n      pop\n      jump\t// out\n        /* \"#utility.yul\":568:690   */\n    tag_235:\n        /* \"#utility.yul\":641:665   */\n      tag_330\n        /* \"#utility.yul\":659:664   */\n      dup2\n        /* \"#utility.yul\":641:665   */\n      tag_234\n      jump\t// in\n    tag_330:\n        /* \"#utility.yul\":634:639   */\n      dup2\n        /* \"#utility.yul\":631:666   */\n      eq\n        /* \"#utility.yul\":621:684   */\n      tag_331\n      jumpi\n        /* \"#utility.yul\":680:681   */\n      0x00\n        /* \"#utility.yul\":677:678   */\n      dup1\n        /* \"#utility.yul\":670:682   */\n      revert\n        /* \"#utility.yul\":621:684   */\n    tag_331:\n        /* \"#utility.yul\":568:690   */\n      pop\n      jump\t// out\n        /* \"#utility.yul\":696:835   */\n    tag_236:\n        /* \"#utility.yul\":742:747   */\n      0x00\n        /* \"#utility.yul\":780:786   */\n      dup2\n        /* \"#utility.yul\":767:787   */\n      calldataload\n        /* \"#utility.yul\":758:787   */\n      swap1\n      pop\n        /* \"#utility.yul\":796:829   */\n      tag_333\n        /* \"#utility.yul\":823:828   */\n      dup2\n        /* \"#utility.yul\":796:829   */\n      tag_235\n      jump\t// in\n    tag_333:\n        /* \"#utility.yul\":696:835   */\n      swap3\n      swap2\n      pop\n      pop\n      jump\t// out\n        /* \"#utility.yul\":841:1170   */\n    tag_20:\n        /* \"#utility.yul\":900:906   */\n      0x00\n        /* \"#utility.yul\":949:951   */\n      0x20\n        /* \"#utility.yul\":937:946   */\n      dup3\n        /* \"#utility.yul\":928:935   */\n      dup5\n        /* \"#utility.yul\":924:947   */\n      sub\n        /* \"#utility.yul\":920:952   */\n      slt\n        /* \"#utility.yul\":917:1036   */\n      iszero\n      tag_335\n      jumpi\n        /* \"#utility.yul\":955:1034   */\n      tag_336\n      tag_231\n      jump\t// in\n    tag_336:\n        /* \"#utility.yul\":917:1036   */\n    tag_335:\n        /* \"#utility.yul\":1075:1076   */\n      0x00\n        /* \"#utility.yul\":1100:1153   */\n      tag_337\n        /* \"#utility.yul\":1145:1152   */\n      dup5\n        /* \"#utility.yul\":1136:1142   */\n      dup3\n        /* \"#utility.yul\":1125:1134   */\n      dup6\n        /* \"#utility.yul\":1121:1143   */\n      add\n        /* \"#utility.yul\":1100:1153   */\n      tag_236\n      jump\t// in\n    tag_337:\n        /* \"#utility.yul\":1090:1153   */\n      swap2\n      pop\n        /* \"#utility.yul\":1046:1163   */\n      pop\n        /* \"#utility.yul\":841:1170   */\n      swap3\n      swap2\n      pop\n      pop\n      jump\t// out\n        /* \"#utility.yul\":1176:1253   */\n    tag_237:\n        /* \"#utility.yul\":1213:1220   */\n      0x00\n        /* \"#utility.yul\":1242:1247   */\n      dup2\n        /* \"#utility.yul\":1231:1247   */\n      swap1\n      pop\n        /* \"#utility.yul\":1176:1253   */\n      swap2\n      swap1\n      pop\n      jump\t// out\n        /* \"#utility.yul\":1259:1381   */\n    tag_238:\n        /* \"#utility.yul\":1332:1356   */\n      tag_340\n        /* \"#utility.yul\":1350:1355   */\n      dup2\n        /* \"#utility.yul\":1332:1356   */\n      tag_237\n      jump\t// in\n    tag_340:\n        /* \"#utility.yul\":1325:1330   */\n      dup2\n        /* \"#utility.yul\":1322:1357   */\n      eq\n        /* \"#utility.yul\":1312:1375   */\n      tag_341\n      jumpi\n        /* \"#utility.yul\":1371:1372   */\n      0x00\n        /* \"#utility.yul\":1368:1369   */\n      dup1\n        /* \"#utility.yul\":1361:1373   */\n      revert\n        /* \"#utility.yul\":1312:1375   */\n    tag_341:\n        /* \"#utility.yul\":1259:1381   */\n      pop\n      jump\t// out\n        /* \"#utility.yul\":1387:1526   */\n    tag_239:\n        /* \"#utility.yul\":1433:1438   */\n      0x00\n        /* \"#utility.yul\":1471:1477   */\n      dup2\n        /* \"#utility.yul\":1458:1478   */\n      calldataload\n        /* \"#utility.yul\":1449:1478   */\n      swap1\n      pop\n        /* \"#utility.yul\":1487:1520   */\n      tag_343\n        /* \"#utility.yul\":1514:1519   */\n      dup2\n        /* \"#utility.yul\":1487:1520   */\n      tag_238\n      jump\t// in\n    tag_343:\n        /* \"#utility.yul\":1387:1526   */\n      swap3\n      swap2\n      pop\n      pop\n      jump\t// out\n        /* \"#utility.yul\":1532:1861   */\n    tag_24:\n        /* \"#utility.yul\":1591:1597   */\n      0x00\n        /* \"#utility.yul\":1640:1642   */\n      0x20\n        /* \"#utility.yul\":1628:1637   */\n      dup3\n        /* \"#utility.yul\":1619:1626   */\n      dup5\n        /* \"#utility.yul\":1615:1638   */\n      sub\n        /* \"#utility.yul\":1611:1643   */\n      slt\n        /* \"#utility.yul\":1608:1727   */\n      iszero\n      tag_345\n      jumpi\n        /* \"#utility.yul\":1646:1725   */\n      tag_346\n      tag_231\n      jump\t// in\n    tag_346:\n        /* \"#utility.yul\":1608:1727   */\n    tag_345:\n        /* \"#utility.yul\":1766:1767   */\n      0x00\n        /* \"#utility.yul\":1791:1844   */\n      tag_347\n        /* \"#utility.yul\":1836:1843   */\n      dup5\n        /* \"#utility.yul\":1827:1833   */\n      dup3\n        /* \"#utility.yul\":1816:1825   */\n      dup6\n        /* \"#utility.yul\":1812:1834   */\n      add\n        /* \"#utility.yul\":1791:1844   */\n      tag_239\n      jump\t// in\n    tag_347:\n        /* \"#utility.yul\":1781:1844   */\n      swap2\n      pop\n        /* \"#utility.yul\":1737:1854   */\n      pop\n        /* \"#utility.yul\":1532:1861   */\n      swap3\n      swap2\n      pop\n      pop\n      jump\t// out\n        /* \"#utility.yul\":1867:1966   */\n    tag_240:\n        /* \"#utility.yul\":1919:1925   */\n      0x00\n        /* \"#utility.yul\":1953:1958   */\n      dup2\n        /* \"#utility.yul\":1947:1959   */\n      mload\n        /* \"#utility.yul\":1937:1959   */\n      swap1\n      pop\n        /* \"#utility.yul\":1867:1966   */\n      swap2\n      swap1\n      pop\n      jump\t// out\n        /* \"#utility.yul\":1972:2131   */\n    tag_241:\n        /* \"#utility.yul\":2046:2057   */\n      0x00\n        /* \"#utility.yul\":2080:2086   */\n      dup3\n        /* \"#utility.yul\":2075:2078   */\n      dup3\n        /* \"#utility.yul\":2068:2087   */\n      mstore\n        /* \"#utility.yul\":2120:2124   */\n      0x20\n        /* \"#utility.yul\":2115:2118   */\n      dup3\n        /* \"#utility.yul\":2111:2125   */\n      add\n        /* \"#utility.yul\":2096:2125   */\n      swap1\n      pop\n        /* \"#utility.yul\":1972:2131   */\n      swap3\n      swap2\n      pop\n      pop\n      jump\t// out\n        /* \"#utility.yul\":2137:2383   */\n    tag_242:\n        /* \"#utility.yul\":2218:2219   */\n      0x00\n        /* \"#utility.yul\":2228:2341   */\n    tag_351:\n        /* \"#utility.yul\":2242:2248   */\n      dup4\n        /* \"#utility.yul\":2239:2240   */\n      dup2\n        /* \"#utility.yul\":2236:2249   */\n      lt\n        /* \"#utility.yul\":2228:2341   */\n      iszero\n      tag_353\n      jumpi\n        /* \"#utility.yul\":2327:2328   */\n      dup1\n        /* \"#utility.yul\":2322:2325   */\n      dup3\n        /* \"#utility.yul\":2318:2329   */\n      add\n        /* \"#utility.yul\":2312:2330   */\n      mload\n        /* \"#utility.yul\":2308:2309   */\n      dup2\n        /* \"#utility.yul\":2303:2306   */\n      dup5\n        /* \"#utility.yul\":2299:2310   */\n      add\n        /* \"#utility.yul\":2292:2331   */\n      mstore\n        /* \"#utility.yul\":2264:2266   */\n      0x20\n        /* \"#utility.yul\":2261:2262   */\n      dup2\n        /* \"#utility.yul\":2257:2267   */\n      add\n        /* \"#utility.yul\":2252:2267   */\n      swap1\n      pop\n        /* \"#utility.yul\":2228:2341   */\n      jump(tag_351)\n    tag_353:\n        /* \"#utility.yul\":2375:2376   */\n      0x00\n        /* \"#utility.yul\":2366:2372   */\n      dup5\n        /* \"#utility.yul\":2361:2364   */\n      dup5\n        /* \"#utility.yul\":2357:2373   */\n      add\n        /* \"#utility.yul\":2350:2377   */\n      mstore\n        /* \"#utility.yul\":2199:2383   */\n      pop\n        /* \"#utility.yul\":2137:2383   */\n      pop\n      pop\n      pop\n      jump\t// out\n        /* \"#utility.yul\":2389:2491   */\n    tag_243:\n        /* \"#utility.yul\":2430:2436   */\n      0x00\n        /* \"#utility.yul\":2481:2483   */\n      0x1f\n        /* \"#utility.yul\":2477:2484   */\n      not\n        /* \"#utility.yul\":2472:2474   */\n      0x1f\n        /* \"#utility.yul\":2465:2470   */\n      dup4\n        /* \"#utility.yul\":2461:2475   */\n      add\n        /* \"#utility.yul\":2457:2485   */\n      and\n        /* \"#utility.yul\":2447:2485   */\n      swap1\n      pop\n        /* \"#utility.yul\":2389:2491   */\n      swap2\n      swap1\n      pop\n      jump\t// out\n        /* \"#utility.yul\":2497:2854   */\n    tag_244:\n        /* \"#utility.yul\":2575:2578   */\n      0x00\n        /* \"#utility.yul\":2603:2642   */\n      tag_356\n        /* \"#utility.yul\":2636:2641   */\n      dup3\n        /* \"#utility.yul\":2603:2642   */\n      tag_240\n      jump\t// in\n    tag_356:\n        /* \"#utility.yul\":2658:2719   */\n      tag_357\n        /* \"#utility.yul\":2712:2718   */\n      dup2\n        /* \"#utility.yul\":2707:2710   */\n      dup6\n        /* \"#utility.yul\":2658:2719   */\n      tag_241\n      jump\t// in\n    tag_357:\n        /* \"#utility.yul\":2651:2719   */\n      swap4\n      pop\n        /* \"#utility.yul\":2728:2793   */\n      tag_358\n        /* \"#utility.yul\":2786:2792   */\n      dup2\n        /* \"#utility.yul\":2781:2784   */\n      dup6\n        /* \"#utility.yul\":2774:2778   */\n      0x20\n        /* \"#utility.yul\":2767:2772   */\n      dup7\n        /* \"#utility.yul\":2763:2779   */\n      add\n        /* \"#utility.yul\":2728:2793   */\n      tag_242\n      jump\t// in\n    tag_358:\n        /* \"#utility.yul\":2818:2847   */\n      tag_359\n        /* \"#utility.yul\":2840:2846   */\n      dup2\n        /* \"#utility.yul\":2818:2847   */\n      tag_243\n      jump\t// in\n    tag_359:\n        /* \"#utility.yul\":2813:2816   */\n      dup5\n        /* \"#utility.yul\":2809:2848   */\n      add\n        /* \"#utility.yul\":2802:2848   */\n      swap2\n      pop\n        /* \"#utility.yul\":2579:2854   */\n      pop\n        /* \"#utility.yul\":2497:2854   */\n      swap3\n      swap2\n      pop\n      pop\n      jump\t// out\n        /* \"#utility.yul\":2860:2968   */\n    tag_245:\n        /* \"#utility.yul\":2937:2961   */\n      tag_361\n        /* \"#utility.yul\":2955:2960   */\n      dup2\n        /* \"#utility.yul\":2937:2961   */\n      tag_237\n      jump\t// in\n    tag_361:\n        /* \"#utility.yul\":2932:2935   */\n      dup3\n        /* \"#utility.yul\":2925:2962   */\n      mstore\n        /* \"#utility.yul\":2860:2968   */\n      pop\n      pop\n      jump\t// out\n        /* \"#utility.yul\":2974:3064   */\n    tag_246:\n        /* \"#utility.yul\":3008:3015   */\n      0x00\n        /* \"#utility.yul\":3051:3056   */\n      dup2\n        /* \"#utility.yul\":3044:3057   */\n      iszero\n        /* \"#utility.yul\":3037:3058   */\n      iszero\n        /* \"#utility.yul\":3026:3058   */\n      swap1\n      pop\n        /* \"#utility.yul\":2974:3064   */\n      swap2\n      swap1\n      pop\n      jump\t// out\n        /* \"#utility.yul\":3070:3169   */\n    tag_247:\n        /* \"#utility.yul\":3141:3162   */\n      tag_364\n        /* \"#utility.yul\":3156:3161   */\n      dup2\n        /* \"#utility.yul\":3141:3162   */\n      tag_246\n      jump\t// in\n    tag_364:\n        /* \"#utility.yul\":3136:3139   */\n      dup3\n        /* \"#utility.yul\":3129:3163   */\n      mstore\n        /* \"#utility.yul\":3070:3169   */\n      pop\n      pop\n      jump\t// out\n        /* \"#utility.yul\":3247:4038   */\n    tag_248:\n        /* \"#utility.yul\":3366:3369   */\n      0x00\n        /* \"#utility.yul\":3402:3406   */\n      0x60\n        /* \"#utility.yul\":3397:3400   */\n      dup4\n        /* \"#utility.yul\":3393:3407   */\n      add\n        /* \"#utility.yul\":3493:3497   */\n      0x00\n        /* \"#utility.yul\":3486:3491   */\n      dup4\n        /* \"#utility.yul\":3482:3498   */\n      add\n        /* \"#utility.yul\":3476:3499   */\n      mload\n        /* \"#utility.yul\":3546:3549   */\n      dup5\n        /* \"#utility.yul\":3540:3544   */\n      dup3\n        /* \"#utility.yul\":3536:3550   */\n      sub\n        /* \"#utility.yul\":3529:3533   */\n      0x00\n        /* \"#utility.yul\":3524:3527   */\n      dup7\n        /* \"#utility.yul\":3520:3534   */\n      add\n        /* \"#utility.yul\":3513:3551   */\n      mstore\n        /* \"#utility.yul\":3572:3645   */\n      tag_366\n        /* \"#utility.yul\":3640:3644   */\n      dup3\n        /* \"#utility.yul\":3626:3638   */\n      dup3\n        /* \"#utility.yul\":3572:3645   */\n      tag_244\n      jump\t// in\n    tag_366:\n        /* \"#utility.yul\":3564:3645   */\n      swap2\n      pop\n        /* \"#utility.yul\":3417:3656   */\n      pop\n        /* \"#utility.yul\":3747:3751   */\n      0x20\n        /* \"#utility.yul\":3740:3745   */\n      dup4\n        /* \"#utility.yul\":3736:3752   */\n      add\n        /* \"#utility.yul\":3730:3753   */\n      mload\n        /* \"#utility.yul\":3766:3829   */\n      tag_367\n        /* \"#utility.yul\":3823:3827   */\n      0x20\n        /* \"#utility.yul\":3818:3821   */\n      dup7\n        /* \"#utility.yul\":3814:3828   */\n      add\n        /* \"#utility.yul\":3800:3812   */\n      dup3\n        /* \"#utility.yul\":3766:3829   */\n      tag_245\n      jump\t// in\n    tag_367:\n        /* \"#utility.yul\":3666:3839   */\n      pop\n        /* \"#utility.yul\":3925:3929   */\n      0x40\n        /* \"#utility.yul\":3918:3923   */\n      dup4\n        /* \"#utility.yul\":3914:3930   */\n      add\n        /* \"#utility.yul\":3908:3931   */\n      mload\n        /* \"#utility.yul\":3944:4001   */\n      tag_368\n        /* \"#utility.yul\":3995:3999   */\n      0x40\n        /* \"#utility.yul\":3990:3993   */\n      dup7\n        /* \"#utility.yul\":3986:4000   */\n      add\n        /* \"#utility.yul\":3972:3984   */\n      dup3\n        /* \"#utility.yul\":3944:4001   */\n      tag_247\n      jump\t// in\n    tag_368:\n        /* \"#utility.yul\":3849:4011   */\n      pop\n        /* \"#utility.yul\":4028:4032   */\n      dup1\n        /* \"#utility.yul\":4021:4032   */\n      swap2\n      pop\n        /* \"#utility.yul\":3371:4038   */\n      pop\n        /* \"#utility.yul\":3247:4038   */\n      swap3\n      swap2\n      pop\n      pop\n      jump\t// out\n        /* \"#utility.yul\":4044:4417   */\n    tag_30:\n        /* \"#utility.yul\":4187:4191   */\n      0x00\n        /* \"#utility.yul\":4225:4227   */\n      0x20\n        /* \"#utility.yul\":4214:4223   */\n      dup3\n        /* \"#utility.yul\":4210:4228   */\n      add\n        /* \"#utility.yul\":4202:4228   */\n      swap1\n      pop\n        /* \"#utility.yul\":4274:4283   */\n      dup2\n        /* \"#utility.yul\":4268:4272   */\n      dup2\n        /* \"#utility.yul\":4264:4284   */\n      sub\n        /* \"#utility.yul\":4260:4261   */\n      0x00\n        /* \"#utility.yul\":4249:4258   */\n      dup4\n        /* \"#utility.yul\":4245:4262   */\n      add\n        /* \"#utility.yul\":4238:4285   */\n      mstore\n        /* \"#utility.yul\":4302:4410   */\n      tag_370\n        /* \"#utility.yul\":4405:4409   */\n      dup2\n        /* \"#utility.yul\":4396:4402   */\n      dup5\n        /* \"#utility.yul\":4302:4410   */\n      tag_248\n      jump\t// in\n    tag_370:\n        /* \"#utility.yul\":4294:4410   */\n      swap1\n      pop\n        /* \"#utility.yul\":4044:4417   */\n      swap3\n      swap2\n      pop\n      pop\n      jump\t// out\n        /* \"#utility.yul\":4423:4540   */\n    tag_249:\n        /* \"#utility.yul\":4532:4533   */\n      0x00\n        /* \"#utility.yul\":4529:4530   */\n      dup1\n        /* \"#utility.yul\":4522:4534   */\n      revert\n        /* \"#utility.yul\":4546:4663   */\n    tag_250:\n        /* \"#utility.yul\":4655:4656   */\n      0x00\n        /* \"#utility.yul\":4652:4653   */\n      dup1\n        /* \"#utility.yul\":4645:4657   */\n      revert\n        /* \"#utility.yul\":4669:4786   */\n    tag_251:\n        /* \"#utility.yul\":4778:4779   */\n      0x00\n        /* \"#utility.yul\":4775:4776   */\n      dup1\n        /* \"#utility.yul\":4768:4780   */\n      revert\n        /* \"#utility.yul\":4806:5359   */\n    tag_252:\n        /* \"#utility.yul\":4864:4872   */\n      0x00\n        /* \"#utility.yul\":4874:4880   */\n      dup1\n        /* \"#utility.yul\":4924:4927   */\n      dup4\n        /* \"#utility.yul\":4917:4921   */\n      0x1f\n        /* \"#utility.yul\":4909:4915   */\n      dup5\n        /* \"#utility.yul\":4905:4922   */\n      add\n        /* \"#utility.yul\":4901:4928   */\n      slt\n        /* \"#utility.yul\":4891:5013   */\n      tag_375\n      jumpi\n        /* \"#utility.yul\":4932:5011   */\n      tag_376\n      tag_249\n      jump\t// in\n    tag_376:\n        /* \"#utility.yul\":4891:5013   */\n    tag_375:\n        /* \"#utility.yul\":5045:5051   */\n      dup3\n        /* \"#utility.yul\":5032:5052   */\n      calldataload\n        /* \"#utility.yul\":5022:5052   */\n      swap1\n      pop\n        /* \"#utility.yul\":5075:5093   */\n      0xffffffffffffffff\n        /* \"#utility.yul\":5067:5073   */\n      dup2\n        /* \"#utility.yul\":5064:5094   */\n      gt\n        /* \"#utility.yul\":5061:5178   */\n      iszero\n      tag_377\n      jumpi\n        /* \"#utility.yul\":5097:5176   */\n      tag_378\n      tag_250\n      jump\t// in\n    tag_378:\n        /* \"#utility.yul\":5061:5178   */\n    tag_377:\n        /* \"#utility.yul\":5211:5215   */\n      0x20\n        /* \"#utility.yul\":5203:5209   */\n      dup4\n        /* \"#utility.yul\":5199:5216   */\n      add\n        /* \"#utility.yul\":5187:5216   */\n      swap2\n      pop\n        /* \"#utility.yul\":5265:5268   */\n      dup4\n        /* \"#utility.yul\":5257:5261   */\n      0x01\n        /* \"#utility.yul\":5249:5255   */\n      dup3\n        /* \"#utility.yul\":5245:5262   */\n      mul\n        /* \"#utility.yul\":5235:5243   */\n      dup4\n        /* \"#utility.yul\":5231:5263   */\n      add\n        /* \"#utility.yul\":5228:5269   */\n      gt\n        /* \"#utility.yul\":5225:5353   */\n      iszero\n      tag_379\n      jumpi\n        /* \"#utility.yul\":5272:5351   */\n      tag_380\n      tag_251\n      jump\t// in\n    tag_380:\n        /* \"#utility.yul\":5225:5353   */\n    tag_379:\n        /* \"#utility.yul\":4806:5359   */\n      swap3\n      pop\n      swap3\n      swap1\n      pop\n      jump\t// out\n        /* \"#utility.yul\":5365:5894   */\n    tag_33:\n        /* \"#utility.yul\":5436:5442   */\n      0x00\n        /* \"#utility.yul\":5444:5450   */\n      dup1\n        /* \"#utility.yul\":5493:5495   */\n      0x20\n        /* \"#utility.yul\":5481:5490   */\n      dup4\n        /* \"#utility.yul\":5472:5479   */\n      dup6\n        /* \"#utility.yul\":5468:5491   */\n      sub\n        /* \"#utility.yul\":5464:5496   */\n      slt\n        /* \"#utility.yul\":5461:5580   */\n      iszero\n      tag_382\n      jumpi\n        /* \"#utility.yul\":5499:5578   */\n      tag_383\n      tag_231\n      jump\t// in\n    tag_383:\n        /* \"#utility.yul\":5461:5580   */\n    tag_382:\n        /* \"#utility.yul\":5647:5648   */\n      0x00\n        /* \"#utility.yul\":5636:5645   */\n      dup4\n        /* \"#utility.yul\":5632:5649   */\n      add\n        /* \"#utility.yul\":5619:5650   */\n      calldataload\n        /* \"#utility.yul\":5677:5695   */\n      0xffffffffffffffff\n        /* \"#utility.yul\":5669:5675   */\n      dup2\n        /* \"#utility.yul\":5666:5696   */\n      gt\n        /* \"#utility.yul\":5663:5780   */\n      iszero\n      tag_384\n      jumpi\n        /* \"#utility.yul\":5699:5778   */\n      tag_385\n      tag_232\n      jump\t// in\n    tag_385:\n        /* \"#utility.yul\":5663:5780   */\n    tag_384:\n        /* \"#utility.yul\":5812:5877   */\n      tag_386\n        /* \"#utility.yul\":5869:5876   */\n      dup6\n        /* \"#utility.yul\":5860:5866   */\n      dup3\n        /* \"#utility.yul\":5849:5858   */\n      dup7\n        /* \"#utility.yul\":5845:5867   */\n      add\n        /* \"#utility.yul\":5812:5877   */\n      tag_252\n      jump\t// in\n    tag_386:\n        /* \"#utility.yul\":5794:5877   */\n      swap3\n      pop\n      swap3\n      pop\n        /* \"#utility.yul\":5590:5887   */\n      pop\n        /* \"#utility.yul\":5365:5894   */\n      swap3\n      pop\n      swap3\n      swap1\n      pop\n      jump\t// out\n        /* \"#utility.yul\":5900:6018   */\n    tag_253:\n        /* \"#utility.yul\":5987:6011   */\n      tag_388\n        /* \"#utility.yul\":6005:6010   */\n      dup2\n        /* \"#utility.yul\":5987:6011   */\n      tag_234\n      jump\t// in\n    tag_388:\n        /* \"#utility.yul\":5982:5985   */\n      dup3\n        /* \"#utility.yul\":5975:6012   */\n      mstore\n        /* \"#utility.yul\":5900:6018   */\n      pop\n      pop\n      jump\t// out\n        /* \"#utility.yul\":6024:6246   */\n    tag_43:\n        /* \"#utility.yul\":6117:6121   */\n      0x00\n        /* \"#utility.yul\":6155:6157   */\n      0x20\n        /* \"#utility.yul\":6144:6153   */\n      dup3\n        /* \"#utility.yul\":6140:6158   */\n      add\n        /* \"#utility.yul\":6132:6158   */\n      swap1\n      pop\n        /* \"#utility.yul\":6168:6239   */\n      tag_390\n        /* \"#utility.yul\":6236:6237   */\n      0x00\n        /* \"#utility.yul\":6225:6234   */\n      dup4\n        /* \"#utility.yul\":6221:6238   */\n      add\n        /* \"#utility.yul\":6212:6218   */\n      dup5\n        /* \"#utility.yul\":6168:6239   */\n      tag_253\n      jump\t// in\n    tag_390:\n        /* \"#utility.yul\":6024:6246   */\n      swap3\n      swap2\n      pop\n      pop\n      jump\t// out\n        /* \"#utility.yul\":6252:6370   */\n    tag_254:\n        /* \"#utility.yul\":6339:6363   */\n      tag_392\n        /* \"#utility.yul\":6357:6362   */\n      dup2\n        /* \"#utility.yul\":6339:6363   */\n      tag_237\n      jump\t// in\n    tag_392:\n        /* \"#utility.yul\":6334:6337   */\n      dup3\n        /* \"#utility.yul\":6327:6364   */\n      mstore\n        /* \"#utility.yul\":6252:6370   */\n      pop\n      pop\n      jump\t// out\n        /* \"#utility.yul\":6376:6598   */\n    tag_47:\n        /* \"#utility.yul\":6469:6473   */\n      0x00\n        /* \"#utility.yul\":6507:6509   */\n      0x20\n        /* \"#utility.yul\":6496:6505   */\n      dup3\n        /* \"#utility.yul\":6492:6510   */\n      add\n        /* \"#utility.yul\":6484:6510   */\n      swap1\n      pop\n        /* \"#utility.yul\":6520:6591   */\n      tag_394\n        /* \"#utility.yul\":6588:6589   */\n      0x00\n        /* \"#utility.yul\":6577:6586   */\n      dup4\n        /* \"#utility.yul\":6573:6590   */\n      add\n        /* \"#utility.yul\":6564:6570   */\n      dup5\n        /* \"#utility.yul\":6520:6591   */\n      tag_254\n      jump\t// in\n    tag_394:\n        /* \"#utility.yul\":6376:6598   */\n      swap3\n      swap2\n      pop\n      pop\n      jump\t// out\n        /* \"#utility.yul\":6604:6718   */\n    tag_255:\n        /* \"#utility.yul\":6671:6677   */\n      0x00\n        /* \"#utility.yul\":6705:6710   */\n      dup2\n        /* \"#utility.yul\":6699:6711   */\n      mload\n        /* \"#utility.yul\":6689:6711   */\n      swap1\n      pop\n        /* \"#utility.yul\":6604:6718   */\n      swap2\n      swap1\n      pop\n      jump\t// out\n        /* \"#utility.yul\":6724:6908   */\n    tag_256:\n        /* \"#utility.yul\":6823:6834   */\n      0x00\n        /* \"#utility.yul\":6857:6863   */\n      dup3\n        /* \"#utility.yul\":6852:6855   */\n      dup3\n        /* \"#utility.yul\":6845:6864   */\n      mstore\n        /* \"#utility.yul\":6897:6901   */\n      0x20\n        /* \"#utility.yul\":6892:6895   */\n      dup3\n        /* \"#utility.yul\":6888:6902   */\n      add\n        /* \"#utility.yul\":6873:6902   */\n      swap1\n      pop\n        /* \"#utility.yul\":6724:6908   */\n      swap3\n      swap2\n      pop\n      pop\n      jump\t// out\n        /* \"#utility.yul\":6914:7046   */\n    tag_257:\n        /* \"#utility.yul\":6981:6985   */\n      0x00\n        /* \"#utility.yul\":7004:7007   */\n      dup2\n        /* \"#utility.yul\":6996:7007   */\n      swap1\n      pop\n        /* \"#utility.yul\":7034:7038   */\n      0x20\n        /* \"#utility.yul\":7029:7032   */\n      dup3\n        /* \"#utility.yul\":7025:7039   */\n      add\n        /* \"#utility.yul\":7017:7039   */\n      swap1\n      pop\n        /* \"#utility.yul\":6914:7046   */\n      swap2\n      swap1\n      pop\n      jump\t// out\n        /* \"#utility.yul\":7052:7160   */\n    tag_258:\n        /* \"#utility.yul\":7129:7153   */\n      tag_399\n        /* \"#utility.yul\":7147:7152   */\n      dup2\n        /* \"#utility.yul\":7129:7153   */\n      tag_234\n      jump\t// in\n    tag_399:\n        /* \"#utility.yul\":7124:7127   */\n      dup3\n        /* \"#utility.yul\":7117:7154   */\n      mstore\n        /* \"#utility.yul\":7052:7160   */\n      pop\n      pop\n      jump\t// out\n        /* \"#utility.yul\":7166:7345   */\n    tag_259:\n        /* \"#utility.yul\":7235:7245   */\n      0x00\n        /* \"#utility.yul\":7256:7302   */\n      tag_401\n        /* \"#utility.yul\":7298:7301   */\n      dup4\n        /* \"#utility.yul\":7290:7296   */\n      dup4\n        /* \"#utility.yul\":7256:7302   */\n      tag_258\n      jump\t// in\n    tag_401:\n        /* \"#utility.yul\":7334:7338   */\n      0x20\n        /* \"#utility.yul\":7329:7332   */\n      dup4\n        /* \"#utility.yul\":7325:7339   */\n      add\n        /* \"#utility.yul\":7311:7339   */\n      swap1\n      pop\n        /* \"#utility.yul\":7166:7345   */\n      swap3\n      swap2\n      pop\n      pop\n      jump\t// out\n        /* \"#utility.yul\":7351:7464   */\n    tag_260:\n        /* \"#utility.yul\":7421:7425   */\n      0x00\n        /* \"#utility.yul\":7453:7457   */\n      0x20\n        /* \"#utility.yul\":7448:7451   */\n      dup3\n        /* \"#utility.yul\":7444:7458   */\n      add\n        /* \"#utility.yul\":7436:7458   */\n      swap1\n      pop\n        /* \"#utility.yul\":7351:7464   */\n      swap2\n      swap1\n      pop\n      jump\t// out\n        /* \"#utility.yul\":7500:8232   */\n    tag_261:\n        /* \"#utility.yul\":7619:7622   */\n      0x00\n        /* \"#utility.yul\":7648:7702   */\n      tag_404\n        /* \"#utility.yul\":7696:7701   */\n      dup3\n        /* \"#utility.yul\":7648:7702   */\n      tag_255\n      jump\t// in\n    tag_404:\n        /* \"#utility.yul\":7718:7804   */\n      tag_405\n        /* \"#utility.yul\":7797:7803   */\n      dup2\n        /* \"#utility.yul\":7792:7795   */\n      dup6\n        /* \"#utility.yul\":7718:7804   */\n      tag_256\n      jump\t// in\n    tag_405:\n        /* \"#utility.yul\":7711:7804   */\n      swap4\n      pop\n        /* \"#utility.yul\":7828:7884   */\n      tag_406\n        /* \"#utility.yul\":7878:7883   */\n      dup4\n        /* \"#utility.yul\":7828:7884   */\n      tag_257\n      jump\t// in\n    tag_406:\n        /* \"#utility.yul\":7907:7914   */\n      dup1\n        /* \"#utility.yul\":7938:7939   */\n      0x00\n        /* \"#utility.yul\":7923:8207   */\n    tag_407:\n        /* \"#utility.yul\":7948:7954   */\n      dup4\n        /* \"#utility.yul\":7945:7946   */\n      dup2\n        /* \"#utility.yul\":7942:7955   */\n      lt\n        /* \"#utility.yul\":7923:8207   */\n      iszero\n      tag_409\n      jumpi\n        /* \"#utility.yul\":8024:8030   */\n      dup2\n        /* \"#utility.yul\":8018:8031   */\n      mload\n        /* \"#utility.yul\":8051:8114   */\n      tag_410\n        /* \"#utility.yul\":8110:8113   */\n      dup9\n        /* \"#utility.yul\":8095:8108   */\n      dup3\n        /* \"#utility.yul\":8051:8114   */\n      tag_259\n      jump\t// in\n    tag_410:\n        /* \"#utility.yul\":8044:8114   */\n      swap8\n      pop\n        /* \"#utility.yul\":8137:8197   */\n      tag_411\n        /* \"#utility.yul\":8190:8196   */\n      dup4\n        /* \"#utility.yul\":8137:8197   */\n      tag_260\n      jump\t// in\n    tag_411:\n        /* \"#utility.yul\":8127:8197   */\n      swap3\n      pop\n        /* \"#utility.yul\":7983:8207   */\n      pop\n        /* \"#utility.yul\":7970:7971   */\n      0x01\n        /* \"#utility.yul\":7967:7968   */\n      dup2\n        /* \"#utility.yul\":7963:7972   */\n      add\n        /* \"#utility.yul\":7958:7972   */\n      swap1\n      pop\n        /* \"#utility.yul\":7923:8207   */\n      jump(tag_407)\n    tag_409:\n        /* \"#utility.yul\":7927:7941   */\n      pop\n        /* \"#utility.yul\":8223:8226   */\n      dup6\n        /* \"#utility.yul\":8216:8226   */\n      swap4\n      pop\n        /* \"#utility.yul\":7624:8232   */\n      pop\n      pop\n      pop\n        /* \"#utility.yul\":7500:8232   */\n      swap3\n      swap2\n      pop\n      pop\n      jump\t// out\n        /* \"#utility.yul\":8238:8611   */\n    tag_58:\n        /* \"#utility.yul\":8381:8385   */\n      0x00\n        /* \"#utility.yul\":8419:8421   */\n      0x20\n        /* \"#utility.yul\":8408:8417   */\n      dup3\n        /* \"#utility.yul\":8404:8422   */\n      add\n        /* \"#utility.yul\":8396:8422   */\n      swap1\n      pop\n        /* \"#utility.yul\":8468:8477   */\n      dup2\n        /* \"#utility.yul\":8462:8466   */\n      dup2\n        /* \"#utility.yul\":8458:8478   */\n      sub\n        /* \"#utility.yul\":8454:8455   */\n      0x00\n        /* \"#utility.yul\":8443:8452   */\n      dup4\n        /* \"#utility.yul\":8439:8456   */\n      add\n        /* \"#utility.yul\":8432:8479   */\n      mstore\n        /* \"#utility.yul\":8496:8604   */\n      tag_413\n        /* \"#utility.yul\":8599:8603   */\n      dup2\n        /* \"#utility.yul\":8590:8596   */\n      dup5\n        /* \"#utility.yul\":8496:8604   */\n      tag_261\n      jump\t// in\n    tag_413:\n        /* \"#utility.yul\":8488:8604   */\n      swap1\n      pop\n        /* \"#utility.yul\":8238:8611   */\n      swap3\n      swap2\n      pop\n      pop\n      jump\t// out\n        /* \"#utility.yul\":8617:8797   */\n    tag_262:\n        /* \"#utility.yul\":8665:8742   */\n      0x4e487b7100000000000000000000000000000000000000000000000000000000\n        /* \"#utility.yul\":8662:8663   */\n      0x00\n        /* \"#utility.yul\":8655:8743   */\n      mstore\n        /* \"#utility.yul\":8762:8766   */\n      0x22\n        /* \"#utility.yul\":8759:8760   */\n      0x04\n        /* \"#utility.yul\":8752:8767   */\n      mstore\n        /* \"#utility.yul\":8786:8790   */\n      0x24\n        /* \"#utility.yul\":8783:8784   */\n      0x00\n        /* \"#utility.yul\":8776:8791   */\n      revert\n        /* \"#utility.yul\":8803:9123   */\n    tag_70:\n        /* \"#utility.yul\":8847:8853   */\n      0x00\n        /* \"#utility.yul\":8884:8885   */\n      0x02\n        /* \"#utility.yul\":8878:8882   */\n      dup3\n        /* \"#utility.yul\":8874:8886   */\n      div\n        /* \"#utility.yul\":8864:8886   */\n      swap1\n      pop\n        /* \"#utility.yul\":8931:8932   */\n      0x01\n        /* \"#utility.yul\":8925:8929   */\n      dup3\n        /* \"#utility.yul\":8921:8933   */\n      and\n        /* \"#utility.yul\":8952:8970   */\n      dup1\n        /* \"#utility.yul\":8942:9023   */\n      tag_416\n      jumpi\n        /* \"#utility.yul\":9008:9012   */\n      0x7f\n        /* \"#utility.yul\":9000:9006   */\n      dup3\n        /* \"#utility.yul\":8996:9013   */\n      and\n        /* \"#utility.yul\":8986:9013   */\n      swap2\n      pop\n        /* \"#utility.yul\":8942:9023   */\n    tag_416:\n        /* \"#utility.yul\":9070:9072   */\n      0x20\n        /* \"#utility.yul\":9062:9068   */\n      dup3\n        /* \"#utility.yul\":9059:9073   */\n      lt\n        /* \"#utility.yul\":9039:9057   */\n      dup2\n        /* \"#utility.yul\":9036:9074   */\n      sub\n        /* \"#utility.yul\":9033:9117   */\n      tag_417\n      jumpi\n        /* \"#utility.yul\":9089:9107   */\n      tag_418\n      tag_262\n      jump\t// in\n    tag_418:\n        /* \"#utility.yul\":9033:9117   */\n    tag_417:\n        /* \"#utility.yul\":8854:9123   */\n      pop\n        /* \"#utility.yul\":8803:9123   */\n      swap2\n      swap1\n      pop\n      jump\t// out\n        /* \"#utility.yul\":9129:9298   */\n    tag_263:\n        /* \"#utility.yul\":9213:9224   */\n      0x00\n        /* \"#utility.yul\":9247:9253   */\n      dup3\n        /* \"#utility.yul\":9242:9245   */\n      dup3\n        /* \"#utility.yul\":9235:9254   */\n      mstore\n        /* \"#utility.yul\":9287:9291   */\n      0x20\n        /* \"#utility.yul\":9282:9285   */\n      dup3\n        /* \"#utility.yul\":9278:9292   */\n      add\n        /* \"#utility.yul\":9263:9292   */\n      swap1\n      pop\n        /* \"#utility.yul\":9129:9298   */\n      swap3\n      swap2\n      pop\n      pop\n      jump\t// out\n        /* \"#utility.yul\":9304:9474   */\n    tag_264:\n        /* \"#utility.yul\":9444:9466   */\n      0x55736572206e6f7420726567697374657265642e000000000000000000000000\n        /* \"#utility.yul\":9440:9441   */\n      0x00\n        /* \"#utility.yul\":9432:9438   */\n      dup3\n        /* \"#utility.yul\":9428:9442   */\n      add\n        /* \"#utility.yul\":9421:9467   */\n      mstore\n        /* \"#utility.yul\":9304:9474   */\n      pop\n      jump\t// out\n        /* \"#utility.yul\":9480:9846   */\n    tag_265:\n        /* \"#utility.yul\":9622:9625   */\n      0x00\n        /* \"#utility.yul\":9643:9710   */\n      tag_422\n        /* \"#utility.yul\":9707:9709   */\n      0x14\n        /* \"#utility.yul\":9702:9705   */\n      dup4\n        /* \"#utility.yul\":9643:9710   */\n      tag_263\n      jump\t// in\n    tag_422:\n        /* \"#utility.yul\":9636:9710   */\n      swap2\n      pop\n        /* \"#utility.yul\":9719:9812   */\n      tag_423\n        /* \"#utility.yul\":9808:9811   */\n      dup3\n        /* \"#utility.yul\":9719:9812   */\n      tag_264\n      jump\t// in\n    tag_423:\n        /* \"#utility.yul\":9837:9839   */\n      0x20\n        /* \"#utility.yul\":9832:9835   */\n      dup3\n        /* \"#utility.yul\":9828:9840   */\n      add\n        /* \"#utility.yul\":9821:9840   */\n      swap1\n      pop\n        /* \"#utility.yul\":9480:9846   */\n      swap2\n      swap1\n      pop\n      jump\t// out\n        /* \"#utility.yul\":9852:10271   */\n    tag_73:\n        /* \"#utility.yul\":10018:10022   */\n      0x00\n        /* \"#utility.yul\":10056:10058   */\n      0x20\n        /* \"#utility.yul\":10045:10054   */\n      dup3\n        /* \"#utility.yul\":10041:10059   */\n      add\n        /* \"#utility.yul\":10033:10059   */\n      swap1\n      pop\n        /* \"#utility.yul\":10105:10114   */\n      dup2\n        /* \"#utility.yul\":10099:10103   */\n      dup2\n        /* \"#utility.yul\":10095:10115   */\n      sub\n        /* \"#utility.yul\":10091:10092   */\n      0x00\n        /* \"#utility.yul\":10080:10089   */\n      dup4\n        /* \"#utility.yul\":10076:10093   */\n      add\n        /* \"#utility.yul\":10069:10116   */\n      mstore\n        /* \"#utility.yul\":10133:10264   */\n      tag_425\n        /* \"#utility.yul\":10259:10263   */\n      dup2\n        /* \"#utility.yul\":10133:10264   */\n      tag_265\n      jump\t// in\n    tag_425:\n        /* \"#utility.yul\":10125:10264   */\n      swap1\n      pop\n        /* \"#utility.yul\":9852:10271   */\n      swap2\n      swap1\n      pop\n      jump\t// out\n        /* \"#utility.yul\":10277:10451   */\n    tag_266:\n        /* \"#utility.yul\":10417:10443   */\n      0x41766174617220636f6e7472616374206e6f74207365742e0000000000000000\n        /* \"#utility.yul\":10413:10414   */\n      0x00\n        /* \"#utility.yul\":10405:10411   */\n      dup3\n        /* \"#utility.yul\":10401:10415   */\n      add\n        /* \"#utility.yul\":10394:10444   */\n      mstore\n        /* \"#utility.yul\":10277:10451   */\n      pop\n      jump\t// out\n        /* \"#utility.yul\":10457:10823   */\n    tag_267:\n        /* \"#utility.yul\":10599:10602   */\n      0x00\n        /* \"#utility.yul\":10620:10687   */\n      tag_428\n        /* \"#utility.yul\":10684:10686   */\n      0x18\n        /* \"#utility.yul\":10679:10682   */\n      dup4\n        /* \"#utility.yul\":10620:10687   */\n      tag_263\n      jump\t// in\n    tag_428:\n        /* \"#utility.yul\":10613:10687   */\n      swap2\n      pop\n        /* \"#utility.yul\":10696:10789   */\n      tag_429\n        /* \"#utility.yul\":10785:10788   */\n      dup3\n        /* \"#utility.yul\":10696:10789   */\n      tag_266\n      jump\t// in\n    tag_429:\n        /* \"#utility.yul\":10814:10816   */\n      0x20\n        /* \"#utility.yul\":10809:10812   */\n      dup3\n        /* \"#utility.yul\":10805:10817   */\n      add\n        /* \"#utility.yul\":10798:10817   */\n      swap1\n      pop\n        /* \"#utility.yul\":10457:10823   */\n      swap2\n      swap1\n      pop\n      jump\t// out\n        /* \"#utility.yul\":10829:11248   */\n    tag_77:\n        /* \"#utility.yul\":10995:10999   */\n      0x00\n        /* \"#utility.yul\":11033:11035   */\n      0x20\n        /* \"#utility.yul\":11022:11031   */\n      dup3\n        /* \"#utility.yul\":11018:11036   */\n      add\n        /* \"#utility.yul\":11010:11036   */\n      swap1\n      pop\n        /* \"#utility.yul\":11082:11091   */\n      dup2\n        /* \"#utility.yul\":11076:11080   */\n      dup2\n        /* \"#utility.yul\":11072:11092   */\n      sub\n        /* \"#utility.yul\":11068:11069   */\n      0x00\n        /* \"#utility.yul\":11057:11066   */\n      dup4\n        /* \"#utility.yul\":11053:11070   */\n      add\n        /* \"#utility.yul\":11046:11093   */\n      mstore\n        /* \"#utility.yul\":11110:11241   */\n      tag_431\n        /* \"#utility.yul\":11236:11240   */\n      dup2\n        /* \"#utility.yul\":11110:11241   */\n      tag_267\n      jump\t// in\n    tag_431:\n        /* \"#utility.yul\":11102:11241   */\n      swap1\n      pop\n        /* \"#utility.yul\":10829:11248   */\n      swap2\n      swap1\n      pop\n      jump\t// out\n        /* \"#utility.yul\":11254:11475   */\n    tag_268:\n        /* \"#utility.yul\":11394:11428   */\n      0x42616e6e65642075736572732063616e6e6f7420757064617465206176617461\n        /* \"#utility.yul\":11390:11391   */\n      0x00\n        /* \"#utility.yul\":11382:11388   */\n      dup3\n        /* \"#utility.yul\":11378:11392   */\n      add\n        /* \"#utility.yul\":11371:11429   */\n      mstore\n        /* \"#utility.yul\":11463:11467   */\n      0x722e000000000000000000000000000000000000000000000000000000000000\n        /* \"#utility.yul\":11458:11460   */\n      0x20\n        /* \"#utility.yul\":11450:11456   */\n      dup3\n        /* \"#utility.yul\":11446:11461   */\n      add\n        /* \"#utility.yul\":11439:11468   */\n      mstore\n        /* \"#utility.yul\":11254:11475   */\n      pop\n      jump\t// out\n        /* \"#utility.yul\":11481:11847   */\n    tag_269:\n        /* \"#utility.yul\":11623:11626   */\n      0x00\n        /* \"#utility.yul\":11644:11711   */\n      tag_434\n        /* \"#utility.yul\":11708:11710   */\n      0x22\n        /* \"#utility.yul\":11703:11706   */\n      dup4\n        /* \"#utility.yul\":11644:11711   */\n      tag_263\n      jump\t// in\n    tag_434:\n        /* \"#utility.yul\":11637:11711   */\n      swap2\n      pop\n        /* \"#utility.yul\":11720:11813   */\n      tag_435\n        /* \"#utility.yul\":11809:11812   */\n      dup3\n        /* \"#utility.yul\":11720:11813   */\n      tag_268\n      jump\t// in\n    tag_435:\n        /* \"#utility.yul\":11838:11840   */\n      0x40\n        /* \"#utility.yul\":11833:11836   */\n      dup3\n        /* \"#utility.yul\":11829:11841   */\n      add\n        /* \"#utility.yul\":11822:11841   */\n      swap1\n      pop\n        /* \"#utility.yul\":11481:11847   */\n      swap2\n      swap1\n      pop\n      jump\t// out\n        /* \"#utility.yul\":11853:12272   */\n    tag_83:\n        /* \"#utility.yul\":12019:12023   */\n      0x00\n        /* \"#utility.yul\":12057:12059   */\n      0x20\n        /* \"#utility.yul\":12046:12055   */\n      dup3\n        /* \"#utility.yul\":12042:12060   */\n      add\n        /* \"#utility.yul\":12034:12060   */\n      swap1\n      pop\n        /* \"#utility.yul\":12106:12115   */\n      dup2\n        /* \"#utility.yul\":12100:12104   */\n      dup2\n        /* \"#utility.yul\":12096:12116   */\n      sub\n        /* \"#utility.yul\":12092:12093   */\n      0x00\n        /* \"#utility.yul\":12081:12090   */\n      dup4\n        /* \"#utility.yul\":12077:12094   */\n      add\n        /* \"#utility.yul\":12070:12117   */\n      mstore\n        /* \"#utility.yul\":12134:12265   */\n      tag_437\n        /* \"#utility.yul\":12260:12264   */\n      dup2\n        /* \"#utility.yul\":12134:12265   */\n      tag_269\n      jump\t// in\n    tag_437:\n        /* \"#utility.yul\":12126:12265   */\n      swap1\n      pop\n        /* \"#utility.yul\":11853:12272   */\n      swap2\n      swap1\n      pop\n      jump\t// out\n        /* \"#utility.yul\":12278:12421   */\n    tag_270:\n        /* \"#utility.yul\":12335:12340   */\n      0x00\n        /* \"#utility.yul\":12366:12372   */\n      dup2\n        /* \"#utility.yul\":12360:12373   */\n      mload\n        /* \"#utility.yul\":12351:12373   */\n      swap1\n      pop\n        /* \"#utility.yul\":12382:12415   */\n      tag_439\n        /* \"#utility.yul\":12409:12414   */\n      dup2\n        /* \"#utility.yul\":12382:12415   */\n      tag_235\n      jump\t// in\n    tag_439:\n        /* \"#utility.yul\":12278:12421   */\n      swap3\n      swap2\n      pop\n      pop\n      jump\t// out\n        /* \"#utility.yul\":12427:12778   */\n    tag_88:\n        /* \"#utility.yul\":12497:12503   */\n      0x00\n        /* \"#utility.yul\":12546:12548   */\n      0x20\n        /* \"#utility.yul\":12534:12543   */\n      dup3\n        /* \"#utility.yul\":12525:12532   */\n      dup5\n        /* \"#utility.yul\":12521:12544   */\n      sub\n        /* \"#utility.yul\":12517:12549   */\n      slt\n        /* \"#utility.yul\":12514:12633   */\n      iszero\n      tag_441\n      jumpi\n        /* \"#utility.yul\":12552:12631   */\n      tag_442\n      tag_231\n      jump\t// in\n    tag_442:\n        /* \"#utility.yul\":12514:12633   */\n    tag_441:\n        /* \"#utility.yul\":12672:12673   */\n      0x00\n        /* \"#utility.yul\":12697:12761   */\n      tag_443\n        /* \"#utility.yul\":12753:12760   */\n      dup5\n        /* \"#utility.yul\":12744:12750   */\n      dup3\n        /* \"#utility.yul\":12733:12742   */\n      dup6\n        /* \"#utility.yul\":12729:12751   */\n      add\n        /* \"#utility.yul\":12697:12761   */\n      tag_270\n      jump\t// in\n    tag_443:\n        /* \"#utility.yul\":12687:12761   */\n      swap2\n      pop\n        /* \"#utility.yul\":12643:12771   */\n      pop\n        /* \"#utility.yul\":12427:12778   */\n      swap3\n      swap2\n      pop\n      pop\n      jump\t// out\n        /* \"#utility.yul\":12784:13005   */\n    tag_271:\n        /* \"#utility.yul\":12924:12958   */\n      0x4e6f7420746865206f776e6572206f6620746869732045524337323120746f6b\n        /* \"#utility.yul\":12920:12921   */\n      0x00\n        /* \"#utility.yul\":12912:12918   */\n      dup3\n        /* \"#utility.yul\":12908:12922   */\n      add\n        /* \"#utility.yul\":12901:12959   */\n      mstore\n        /* \"#utility.yul\":12993:12997   */\n      0x656e000000000000000000000000000000000000000000000000000000000000\n        /* \"#utility.yul\":12988:12990   */\n      0x20\n        /* \"#utility.yul\":12980:12986   */\n      dup3\n        /* \"#utility.yul\":12976:12991   */\n      add\n        /* \"#utility.yul\":12969:12998   */\n      mstore\n        /* \"#utility.yul\":12784:13005   */\n      pop\n      jump\t// out\n        /* \"#utility.yul\":13011:13377   */\n    tag_272:\n        /* \"#utility.yul\":13153:13156   */\n      0x00\n        /* \"#utility.yul\":13174:13241   */\n      tag_446\n        /* \"#utility.yul\":13238:13240   */\n      0x22\n        /* \"#utility.yul\":13233:13236   */\n      dup4\n        /* \"#utility.yul\":13174:13241   */\n      tag_263\n      jump\t// in\n    tag_446:\n        /* \"#utility.yul\":13167:13241   */\n      swap2\n      pop\n        /* \"#utility.yul\":13250:13343   */\n      tag_447\n        /* \"#utility.yul\":13339:13342   */\n      dup3\n        /* \"#utility.yul\":13250:13343   */\n      tag_271\n      jump\t// in\n    tag_447:\n        /* \"#utility.yul\":13368:13370   */\n      0x40\n        /* \"#utility.yul\":13363:13366   */\n      dup3\n        /* \"#utility.yul\":13359:13371   */\n      add\n        /* \"#utility.yul\":13352:13371   */\n      swap1\n      pop\n        /* \"#utility.yul\":13011:13377   */\n      swap2\n      swap1\n      pop\n      jump\t// out\n        /* \"#utility.yul\":13383:13802   */\n    tag_91:\n        /* \"#utility.yul\":13549:13553   */\n      0x00\n        /* \"#utility.yul\":13587:13589   */\n      0x20\n        /* \"#utility.yul\":13576:13585   */\n      dup3\n        /* \"#utility.yul\":13572:13590   */\n      add\n        /* \"#utility.yul\":13564:13590   */\n      swap1\n      pop\n        /* \"#utility.yul\":13636:13645   */\n      dup2\n        /* \"#utility.yul\":13630:13634   */\n      dup2\n        /* \"#utility.yul\":13626:13646   */\n      sub\n        /* \"#utility.yul\":13622:13623   */\n      0x00\n        /* \"#utility.yul\":13611:13620   */\n      dup4\n        /* \"#utility.yul\":13607:13624   */\n      add\n        /* \"#utility.yul\":13600:13647   */\n      mstore\n        /* \"#utility.yul\":13664:13795   */\n      tag_449\n        /* \"#utility.yul\":13790:13794   */\n      dup2\n        /* \"#utility.yul\":13664:13795   */\n      tag_272\n      jump\t// in\n    tag_449:\n        /* \"#utility.yul\":13656:13795   */\n      swap1\n      pop\n        /* \"#utility.yul\":13383:13802   */\n      swap2\n      swap1\n      pop\n      jump\t// out\n        /* \"#utility.yul\":13808:13973   */\n    tag_273:\n        /* \"#utility.yul\":13948:13965   */\n      0x557365722069732062616e6e65642e0000000000000000000000000000000000\n        /* \"#utility.yul\":13944:13945   */\n      0x00\n        /* \"#utility.yul\":13936:13942   */\n      dup3\n        /* \"#utility.yul\":13932:13946   */\n      add\n        /* \"#utility.yul\":13925:13966   */\n      mstore\n        /* \"#utility.yul\":13808:13973   */\n      pop\n      jump\t// out\n        /* \"#utility.yul\":13979:14345   */\n    tag_274:\n        /* \"#utility.yul\":14121:14124   */\n      0x00\n        /* \"#utility.yul\":14142:14209   */\n      tag_452\n        /* \"#utility.yul\":14206:14208   */\n      0x0f\n        /* \"#utility.yul\":14201:14204   */\n      dup4\n        /* \"#utility.yul\":14142:14209   */\n      tag_263\n      jump\t// in\n    tag_452:\n        /* \"#utility.yul\":14135:14209   */\n      swap2\n      pop\n        /* \"#utility.yul\":14218:14311   */\n      tag_453\n        /* \"#utility.yul\":14307:14310   */\n      dup3\n        /* \"#utility.yul\":14218:14311   */\n      tag_273\n      jump\t// in\n    tag_453:\n        /* \"#utility.yul\":14336:14338   */\n      0x20\n        /* \"#utility.yul\":14331:14334   */\n      dup3\n        /* \"#utility.yul\":14327:14339   */\n      add\n        /* \"#utility.yul\":14320:14339   */\n      swap1\n      pop\n        /* \"#utility.yul\":13979:14345   */\n      swap2\n      swap1\n      pop\n      jump\t// out\n        /* \"#utility.yul\":14351:14770   */\n    tag_98:\n        /* \"#utility.yul\":14517:14521   */\n      0x00\n        /* \"#utility.yul\":14555:14557   */\n      0x20\n        /* \"#utility.yul\":14544:14553   */\n      dup3\n        /* \"#utility.yul\":14540:14558   */\n      add\n        /* \"#utility.yul\":14532:14558   */\n      swap1\n      pop\n        /* \"#utility.yul\":14604:14613   */\n      dup2\n        /* \"#utility.yul\":14598:14602   */\n      dup2\n        /* \"#utility.yul\":14594:14614   */\n      sub\n        /* \"#utility.yul\":14590:14591   */\n      0x00\n        /* \"#utility.yul\":14579:14588   */\n      dup4\n        /* \"#utility.yul\":14575:14592   */\n      add\n        /* \"#utility.yul\":14568:14615   */\n      mstore\n        /* \"#utility.yul\":14632:14763   */\n      tag_455\n        /* \"#utility.yul\":14758:14762   */\n      dup2\n        /* \"#utility.yul\":14632:14763   */\n      tag_274\n      jump\t// in\n    tag_455:\n        /* \"#utility.yul\":14624:14763   */\n      swap1\n      pop\n        /* \"#utility.yul\":14351:14770   */\n      swap2\n      swap1\n      pop\n      jump\t// out\n        /* \"#utility.yul\":14776:14950   */\n    tag_275:\n        /* \"#utility.yul\":14916:14942   */\n      0x5573657220616c726561647920726567697374657265642e0000000000000000\n        /* \"#utility.yul\":14912:14913   */\n      0x00\n        /* \"#utility.yul\":14904:14910   */\n      dup3\n        /* \"#utility.yul\":14900:14914   */\n      add\n        /* \"#utility.yul\":14893:14943   */\n      mstore\n        /* \"#utility.yul\":14776:14950   */\n      pop\n      jump\t// out\n        /* \"#utility.yul\":14956:15322   */\n    tag_276:\n        /* \"#utility.yul\":15098:15101   */\n      0x00\n        /* \"#utility.yul\":15119:15186   */\n      tag_458\n        /* \"#utility.yul\":15183:15185   */\n      0x18\n        /* \"#utility.yul\":15178:15181   */\n      dup4\n        /* \"#utility.yul\":15119:15186   */\n      tag_263\n      jump\t// in\n    tag_458:\n        /* \"#utility.yul\":15112:15186   */\n      swap2\n      pop\n        /* \"#utility.yul\":15195:15288   */\n      tag_459\n        /* \"#utility.yul\":15284:15287   */\n      dup3\n        /* \"#utility.yul\":15195:15288   */\n      tag_275\n      jump\t// in\n    tag_459:\n        /* \"#utility.yul\":15313:15315   */\n      0x20\n        /* \"#utility.yul\":15308:15311   */\n      dup3\n        /* \"#utility.yul\":15304:15316   */\n      add\n        /* \"#utility.yul\":15297:15316   */\n      swap1\n      pop\n        /* \"#utility.yul\":14956:15322   */\n      swap2\n      swap1\n      pop\n      jump\t// out\n        /* \"#utility.yul\":15328:15747   */\n    tag_108:\n        /* \"#utility.yul\":15494:15498   */\n      0x00\n        /* \"#utility.yul\":15532:15534   */\n      0x20\n        /* \"#utility.yul\":15521:15530   */\n      dup3\n        /* \"#utility.yul\":15517:15535   */\n      add\n        /* \"#utility.yul\":15509:15535   */\n      swap1\n      pop\n        /* \"#utility.yul\":15581:15590   */\n      dup2\n        /* \"#utility.yul\":15575:15579   */\n      dup2\n        /* \"#utility.yul\":15571:15591   */\n      sub\n        /* \"#utility.yul\":15567:15568   */\n      0x00\n        /* \"#utility.yul\":15556:15565   */\n      dup4\n        /* \"#utility.yul\":15552:15569   */\n      add\n        /* \"#utility.yul\":15545:15592   */\n      mstore\n        /* \"#utility.yul\":15609:15740   */\n      tag_461\n        /* \"#utility.yul\":15735:15739   */\n      dup2\n        /* \"#utility.yul\":15609:15740   */\n      tag_276\n      jump\t// in\n    tag_461:\n        /* \"#utility.yul\":15601:15740   */\n      swap1\n      pop\n        /* \"#utility.yul\":15328:15747   */\n      swap2\n      swap1\n      pop\n      jump\t// out\n        /* \"#utility.yul\":15753:15981   */\n    tag_277:\n        /* \"#utility.yul\":15893:15927   */\n      0x557365726e616d65206d757374206265203420746f2031352063686172616374\n        /* \"#utility.yul\":15889:15890   */\n      0x00\n        /* \"#utility.yul\":15881:15887   */\n      dup3\n        /* \"#utility.yul\":15877:15891   */\n      add\n        /* \"#utility.yul\":15870:15928   */\n      mstore\n        /* \"#utility.yul\":15962:15973   */\n      0x657273206c6f6e672e0000000000000000000000000000000000000000000000\n        /* \"#utility.yul\":15957:15959   */\n      0x20\n        /* \"#utility.yul\":15949:15955   */\n      dup3\n        /* \"#utility.yul\":15945:15960   */\n      add\n        /* \"#utility.yul\":15938:15974   */\n      mstore\n        /* \"#utility.yul\":15753:15981   */\n      pop\n      jump\t// out\n        /* \"#utility.yul\":15987:16353   */\n    tag_278:\n        /* \"#utility.yul\":16129:16132   */\n      0x00\n        /* \"#utility.yul\":16150:16217   */\n      tag_464\n        /* \"#utility.yul\":16214:16216   */\n      0x29\n        /* \"#utility.yul\":16209:16212   */\n      dup4\n        /* \"#utility.yul\":16150:16217   */\n      tag_263\n      jump\t// in\n    tag_464:\n        /* \"#utility.yul\":16143:16217   */\n      swap2\n      pop\n        /* \"#utility.yul\":16226:16319   */\n      tag_465\n        /* \"#utility.yul\":16315:16318   */\n      dup3\n        /* \"#utility.yul\":16226:16319   */\n      tag_277\n      jump\t// in\n    tag_465:\n        /* \"#utility.yul\":16344:16346   */\n      0x40\n        /* \"#utility.yul\":16339:16342   */\n      dup3\n        /* \"#utility.yul\":16335:16347   */\n      add\n        /* \"#utility.yul\":16328:16347   */\n      swap1\n      pop\n        /* \"#utility.yul\":15987:16353   */\n      swap2\n      swap1\n      pop\n      jump\t// out\n        /* \"#utility.yul\":16359:16778   */\n    tag_112:\n        /* \"#utility.yul\":16525:16529   */\n      0x00\n        /* \"#utility.yul\":16563:16565   */\n      0x20\n        /* \"#utility.yul\":16552:16561   */\n      dup3\n        /* \"#utility.yul\":16548:16566   */\n      add\n        /* \"#utility.yul\":16540:16566   */\n      swap1\n      pop\n        /* \"#utility.yul\":16612:16621   */\n      dup2\n        /* \"#utility.yul\":16606:16610   */\n      dup2\n        /* \"#utility.yul\":16602:16622   */\n      sub\n        /* \"#utility.yul\":16598:16599   */\n      0x00\n        /* \"#utility.yul\":16587:16596   */\n      dup4\n        /* \"#utility.yul\":16583:16600   */\n      add\n        /* \"#utility.yul\":16576:16623   */\n      mstore\n        /* \"#utility.yul\":16640:16771   */\n      tag_467\n        /* \"#utility.yul\":16766:16770   */\n      dup2\n        /* \"#utility.yul\":16640:16771   */\n      tag_278\n      jump\t// in\n    tag_467:\n        /* \"#utility.yul\":16632:16771   */\n      swap1\n      pop\n        /* \"#utility.yul\":16359:16778   */\n      swap2\n      swap1\n      pop\n      jump\t// out\n        /* \"#utility.yul\":16784:16932   */\n    tag_279:\n        /* \"#utility.yul\":16886:16897   */\n      0x00\n        /* \"#utility.yul\":16923:16926   */\n      dup2\n        /* \"#utility.yul\":16908:16926   */\n      swap1\n      pop\n        /* \"#utility.yul\":16784:16932   */\n      swap3\n      swap2\n      pop\n      pop\n      jump\t// out\n        /* \"#utility.yul\":16938:17084   */\n    tag_280:\n        /* \"#utility.yul\":17035:17041   */\n      dup3\n        /* \"#utility.yul\":17030:17033   */\n      dup2\n        /* \"#utility.yul\":17025:17028   */\n      dup4\n        /* \"#utility.yul\":17012:17042   */\n      calldatacopy\n        /* \"#utility.yul\":17076:17077   */\n      0x00\n        /* \"#utility.yul\":17067:17073   */\n      dup4\n        /* \"#utility.yul\":17062:17065   */\n      dup4\n        /* \"#utility.yul\":17058:17074   */\n      add\n        /* \"#utility.yul\":17051:17078   */\n      mstore\n        /* \"#utility.yul\":16938:17084   */\n      pop\n      pop\n      pop\n      jump\t// out\n        /* \"#utility.yul\":17114:17444   */\n    tag_281:\n        /* \"#utility.yul\":17230:17233   */\n      0x00\n        /* \"#utility.yul\":17251:17340   */\n      tag_471\n        /* \"#utility.yul\":17333:17339   */\n      dup4\n        /* \"#utility.yul\":17328:17331   */\n      dup6\n        /* \"#utility.yul\":17251:17340   */\n      tag_279\n      jump\t// in\n    tag_471:\n        /* \"#utility.yul\":17244:17340   */\n      swap4\n      pop\n        /* \"#utility.yul\":17350:17406   */\n      tag_472\n        /* \"#utility.yul\":17399:17405   */\n      dup4\n        /* \"#utility.yul\":17394:17397   */\n      dup6\n        /* \"#utility.yul\":17387:17392   */\n      dup5\n        /* \"#utility.yul\":17350:17406   */\n      tag_280\n      jump\t// in\n    tag_472:\n        /* \"#utility.yul\":17431:17437   */\n      dup3\n        /* \"#utility.yul\":17426:17429   */\n      dup5\n        /* \"#utility.yul\":17422:17438   */\n      add\n        /* \"#utility.yul\":17415:17438   */\n      swap1\n      pop\n        /* \"#utility.yul\":17114:17444   */\n      swap4\n      swap3\n      pop\n      pop\n      pop\n      jump\t// out\n        /* \"#utility.yul\":17450:17745   */\n    tag_114:\n        /* \"#utility.yul\":17592:17595   */\n      0x00\n        /* \"#utility.yul\":17614:17719   */\n      tag_474\n        /* \"#utility.yul\":17715:17718   */\n      dup3\n        /* \"#utility.yul\":17706:17712   */\n      dup5\n        /* \"#utility.yul\":17698:17704   */\n      dup7\n        /* \"#utility.yul\":17614:17719   */\n      tag_281\n      jump\t// in\n    tag_474:\n        /* \"#utility.yul\":17607:17719   */\n      swap2\n      pop\n        /* \"#utility.yul\":17736:17739   */\n      dup2\n        /* \"#utility.yul\":17729:17739   */\n      swap1\n      pop\n        /* \"#utility.yul\":17450:17745   */\n      swap4\n      swap3\n      pop\n      pop\n      pop\n      jump\t// out\n        /* \"#utility.yul\":17751:17924   */\n    tag_282:\n        /* \"#utility.yul\":17891:17916   */\n      0x557365726e616d6520616c72656164792074616b656e2e000000000000000000\n        /* \"#utility.yul\":17887:17888   */\n      0x00\n        /* \"#utility.yul\":17879:17885   */\n      dup3\n        /* \"#utility.yul\":17875:17889   */\n      add\n        /* \"#utility.yul\":17868:17917   */\n      mstore\n        /* \"#utility.yul\":17751:17924   */\n      pop\n      jump\t// out\n        /* \"#utility.yul\":17930:18296   */\n    tag_283:\n        /* \"#utility.yul\":18072:18075   */\n      0x00\n        /* \"#utility.yul\":18093:18160   */\n      tag_477\n        /* \"#utility.yul\":18157:18159   */\n      0x17\n        /* \"#utility.yul\":18152:18155   */\n      dup4\n        /* \"#utility.yul\":18093:18160   */\n      tag_263\n      jump\t// in\n    tag_477:\n        /* \"#utility.yul\":18086:18160   */\n      swap2\n      pop\n        /* \"#utility.yul\":18169:18262   */\n      tag_478\n        /* \"#utility.yul\":18258:18261   */\n      dup3\n        /* \"#utility.yul\":18169:18262   */\n      tag_282\n      jump\t// in\n    tag_478:\n        /* \"#utility.yul\":18287:18289   */\n      0x20\n        /* \"#utility.yul\":18282:18285   */\n      dup3\n        /* \"#utility.yul\":18278:18290   */\n      add\n        /* \"#utility.yul\":18271:18290   */\n      swap1\n      pop\n        /* \"#utility.yul\":17930:18296   */\n      swap2\n      swap1\n      pop\n      jump\t// out\n        /* \"#utility.yul\":18302:18721   */\n    tag_117:\n        /* \"#utility.yul\":18468:18472   */\n      0x00\n        /* \"#utility.yul\":18506:18508   */\n      0x20\n        /* \"#utility.yul\":18495:18504   */\n      dup3\n        /* \"#utility.yul\":18491:18509   */\n      add\n        /* \"#utility.yul\":18483:18509   */\n      swap1\n      pop\n        /* \"#utility.yul\":18555:18564   */\n      dup2\n        /* \"#utility.yul\":18549:18553   */\n      dup2\n        /* \"#utility.yul\":18545:18565   */\n      sub\n        /* \"#utility.yul\":18541:18542   */\n      0x00\n        /* \"#utility.yul\":18530:18539   */\n      dup4\n        /* \"#utility.yul\":18526:18543   */\n      add\n        /* \"#utility.yul\":18519:18566   */\n      mstore\n        /* \"#utility.yul\":18583:18714   */\n      tag_480\n        /* \"#utility.yul\":18709:18713   */\n      dup2\n        /* \"#utility.yul\":18583:18714   */\n      tag_283\n      jump\t// in\n    tag_480:\n        /* \"#utility.yul\":18575:18714   */\n      swap1\n      pop\n        /* \"#utility.yul\":18302:18721   */\n      swap2\n      swap1\n      pop\n      jump\t// out\n        /* \"#utility.yul\":18727:18906   */\n    tag_284:\n        /* \"#utility.yul\":18867:18898   */\n      0x42616e6e65642075736572732063616e6e6f742072656769737465722e000000\n        /* \"#utility.yul\":18863:18864   */\n      0x00\n        /* \"#utility.yul\":18855:18861   */\n      dup3\n        /* \"#utility.yul\":18851:18865   */\n      add\n        /* \"#utility.yul\":18844:18899   */\n      mstore\n        /* \"#utility.yul\":18727:18906   */\n      pop\n      jump\t// out\n        /* \"#utility.yul\":18912:19278   */\n    tag_285:\n        /* \"#utility.yul\":19054:19057   */\n      0x00\n        /* \"#utility.yul\":19075:19142   */\n      tag_483\n        /* \"#utility.yul\":19139:19141   */\n      0x1d\n        /* \"#utility.yul\":19134:19137   */\n      dup4\n        /* \"#utility.yul\":19075:19142   */\n      tag_263\n      jump\t// in\n    tag_483:\n        /* \"#utility.yul\":19068:19142   */\n      swap2\n      pop\n        /* \"#utility.yul\":19151:19244   */\n      tag_484\n        /* \"#utility.yul\":19240:19243   */\n      dup3\n        /* \"#utility.yul\":19151:19244   */\n      tag_284\n      jump\t// in\n    tag_484:\n        /* \"#utility.yul\":19269:19271   */\n      0x20\n        /* \"#utility.yul\":19264:19267   */\n      dup3\n        /* \"#utility.yul\":19260:19272   */\n      add\n        /* \"#utility.yul\":19253:19272   */\n      swap1\n      pop\n        /* \"#utility.yul\":18912:19278   */\n      swap2\n      swap1\n      pop\n      jump\t// out\n        /* \"#utility.yul\":19284:19703   */\n    tag_120:\n        /* \"#utility.yul\":19450:19454   */\n      0x00\n        /* \"#utility.yul\":19488:19490   */\n      0x20\n        /* \"#utility.yul\":19477:19486   */\n      dup3\n        /* \"#utility.yul\":19473:19491   */\n      add\n        /* \"#utility.yul\":19465:19491   */\n      swap1\n      pop\n        /* \"#utility.yul\":19537:19546   */\n      dup2\n        /* \"#utility.yul\":19531:19535   */\n      dup2\n        /* \"#utility.yul\":19527:19547   */\n      sub\n        /* \"#utility.yul\":19523:19524   */\n      0x00\n        /* \"#utility.yul\":19512:19521   */\n      dup4\n        /* \"#utility.yul\":19508:19525   */\n      add\n        /* \"#utility.yul\":19501:19548   */\n      mstore\n        /* \"#utility.yul\":19565:19696   */\n      tag_486\n        /* \"#utility.yul\":19691:19695   */\n      dup2\n        /* \"#utility.yul\":19565:19696   */\n      tag_285\n      jump\t// in\n    tag_486:\n        /* \"#utility.yul\":19557:19696   */\n      swap1\n      pop\n        /* \"#utility.yul\":19284:19703   */\n      swap2\n      swap1\n      pop\n      jump\t// out\n        /* \"#utility.yul\":19709:19889   */\n    tag_286:\n        /* \"#utility.yul\":19757:19834   */\n      0x4e487b7100000000000000000000000000000000000000000000000000000000\n        /* \"#utility.yul\":19754:19755   */\n      0x00\n        /* \"#utility.yul\":19747:19835   */\n      mstore\n        /* \"#utility.yul\":19854:19858   */\n      0x41\n        /* \"#utility.yul\":19851:19852   */\n      0x04\n        /* \"#utility.yul\":19844:19859   */\n      mstore\n        /* \"#utility.yul\":19878:19882   */\n      0x24\n        /* \"#utility.yul\":19875:19876   */\n      0x00\n        /* \"#utility.yul\":19868:19883   */\n      revert\n        /* \"#utility.yul\":19895:20036   */\n    tag_287:\n        /* \"#utility.yul\":19944:19948   */\n      0x00\n        /* \"#utility.yul\":19967:19970   */\n      dup2\n        /* \"#utility.yul\":19959:19970   */\n      swap1\n      pop\n        /* \"#utility.yul\":19990:19993   */\n      dup2\n        /* \"#utility.yul\":19987:19988   */\n      0x00\n        /* \"#utility.yul\":19980:19994   */\n      mstore\n        /* \"#utility.yul\":20024:20028   */\n      0x20\n        /* \"#utility.yul\":20021:20022   */\n      0x00\n        /* \"#utility.yul\":20011:20029   */\n      keccak256\n        /* \"#utility.yul\":20003:20029   */\n      swap1\n      pop\n        /* \"#utility.yul\":19895:20036   */\n      swap2\n      swap1\n      pop\n      jump\t// out\n        /* \"#utility.yul\":20042:20135   */\n    tag_288:\n        /* \"#utility.yul\":20079:20085   */\n      0x00\n        /* \"#utility.yul\":20126:20128   */\n      0x20\n        /* \"#utility.yul\":20121:20123   */\n      0x1f\n        /* \"#utility.yul\":20114:20119   */\n      dup4\n        /* \"#utility.yul\":20110:20124   */\n      add\n        /* \"#utility.yul\":20106:20129   */\n      div\n        /* \"#utility.yul\":20096:20129   */\n      swap1\n      pop\n        /* \"#utility.yul\":20042:20135   */\n      swap2\n      swap1\n      pop\n      jump\t// out\n        /* \"#utility.yul\":20141:20248   */\n    tag_289:\n        /* \"#utility.yul\":20185:20193   */\n      0x00\n        /* \"#utility.yul\":20235:20240   */\n      dup3\n        /* \"#utility.yul\":20229:20233   */\n      dup3\n        /* \"#utility.yul\":20225:20241   */\n      shl\n        /* \"#utility.yul\":20204:20241   */\n      swap1\n      pop\n        /* \"#utility.yul\":20141:20248   */\n      swap3\n      swap2\n      pop\n      pop\n      jump\t// out\n        /* \"#utility.yul\":20254:20647   */\n    tag_290:\n        /* \"#utility.yul\":20323:20329   */\n      0x00\n        /* \"#utility.yul\":20373:20374   */\n      0x08\n        /* \"#utility.yul\":20361:20371   */\n      dup4\n        /* \"#utility.yul\":20357:20375   */\n      mul\n        /* \"#utility.yul\":20396:20493   */\n      tag_492\n        /* \"#utility.yul\":20426:20492   */\n      0xffffffffffffffffffffffffffffffffffffffffffffffffffffffffffffffff\n        /* \"#utility.yul\":20415:20424   */\n      dup3\n        /* \"#utility.yul\":20396:20493   */\n      tag_289\n      jump\t// in\n    tag_492:\n        /* \"#utility.yul\":20514:20553   */\n      tag_493\n        /* \"#utility.yul\":20544:20552   */\n      dup7\n        /* \"#utility.yul\":20533:20542   */\n      dup4\n        /* \"#utility.yul\":20514:20553   */\n      tag_289\n      jump\t// in\n    tag_493:\n        /* \"#utility.yul\":20502:20553   */\n      swap6\n      pop\n        /* \"#utility.yul\":20586:20590   */\n      dup1\n        /* \"#utility.yul\":20582:20591   */\n      not\n        /* \"#utility.yul\":20575:20580   */\n      dup5\n        /* \"#utility.yul\":20571:20592   */\n      and\n        /* \"#utility.yul\":20562:20592   */\n      swap4\n      pop\n        /* \"#utility.yul\":20635:20639   */\n      dup1\n        /* \"#utility.yul\":20625:20633   */\n      dup7\n        /* \"#utility.yul\":20621:20640   */\n      and\n        /* \"#utility.yul\":20614:20619   */\n      dup5\n        /* \"#utility.yul\":20611:20641   */\n      or\n        /* \"#utility.yul\":20601:20641   */\n      swap3\n      pop\n        /* \"#utility.yul\":20330:20647   */\n      pop\n      pop\n        /* \"#utility.yul\":20254:20647   */\n      swap4\n      swap3\n      pop\n      pop\n      pop\n      jump\t// out\n        /* \"#utility.yul\":20653:20713   */\n    tag_291:\n        /* \"#utility.yul\":20681:20684   */\n      0x00\n        /* \"#utility.yul\":20702:20707   */\n      dup2\n        /* \"#utility.yul\":20695:20707   */\n      swap1\n      pop\n        /* \"#utility.yul\":20653:20713   */\n      swap2\n      swap1\n      pop\n      jump\t// out\n        /* \"#utility.yul\":20719:20861   */\n    tag_292:\n        /* \"#utility.yul\":20769:20778   */\n      0x00\n        /* \"#utility.yul\":20802:20855   */\n      tag_496\n        /* \"#utility.yul\":20820:20854   */\n      tag_497\n        /* \"#utility.yul\":20829:20853   */\n      tag_498\n        /* \"#utility.yul\":20847:20852   */\n      dup5\n        /* \"#utility.yul\":20829:20853   */\n      tag_237\n      jump\t// in\n    tag_498:\n        /* \"#utility.yul\":20820:20854   */\n      tag_291\n      jump\t// in\n    tag_497:\n        /* \"#utility.yul\":20802:20855   */\n      tag_237\n      jump\t// in\n    tag_496:\n        /* \"#utility.yul\":20789:20855   */\n      swap1\n      pop\n        /* \"#utility.yul\":20719:20861   */\n      swap2\n      swap1\n      pop\n      jump\t// out\n        /* \"#utility.yul\":20867:20942   */\n    tag_293:\n        /* \"#utility.yul\":20910:20913   */\n      0x00\n        /* \"#utility.yul\":20931:20936   */\n      dup2\n        /* \"#utility.yul\":20924:20936   */\n      swap1\n      pop\n        /* \"#utility.yul\":20867:20942   */\n      swap2\n      swap1\n      pop\n      jump\t// out\n        /* \"#utility.yul\":20948:21217   */\n    tag_294:\n        /* \"#utility.yul\":21058:21097   */\n      tag_501\n        /* \"#utility.yul\":21089:21096   */\n      dup4\n        /* \"#utility.yul\":21058:21097   */\n      tag_292\n      jump\t// in\n    tag_501:\n        /* \"#utility.yul\":21119:21210   */\n      tag_502\n        /* \"#utility.yul\":21168:21209   */\n      tag_503\n        /* \"#utility.yul\":21192:21208   */\n      dup3\n        /* \"#utility.yul\":21168:21209   */\n      tag_293\n      jump\t// in\n    tag_503:\n        /* \"#utility.yul\":21160:21166   */\n      dup5\n        /* \"#utility.yul\":21153:21157   */\n      dup5\n        /* \"#utility.yul\":21147:21158   */\n      sload\n        /* \"#utility.yul\":21119:21210   */\n      tag_290\n      jump\t// in\n    tag_502:\n        /* \"#utility.yul\":21113:21117   */\n      dup3\n        /* \"#utility.yul\":21106:21211   */\n      sstore\n        /* \"#utility.yul\":21024:21217   */\n      pop\n        /* \"#utility.yul\":20948:21217   */\n      pop\n      pop\n      pop\n      jump\t// out\n        /* \"#utility.yul\":21223:21296   */\n    tag_295:\n        /* \"#utility.yul\":21268:21271   */\n      0x00\n        /* \"#utility.yul\":21223:21296   */\n      swap1\n      jump\t// out\n        /* \"#utility.yul\":21302:21491   */\n    tag_296:\n        /* \"#utility.yul\":21379:21411   */\n      tag_506\n      tag_295\n      jump\t// in\n    tag_506:\n        /* \"#utility.yul\":21420:21485   */\n      tag_507\n        /* \"#utility.yul\":21478:21484   */\n      dup2\n        /* \"#utility.yul\":21470:21476   */\n      dup5\n        /* \"#utility.yul\":21464:21468   */\n      dup5\n        /* \"#utility.yul\":21420:21485   */\n      tag_294\n      jump\t// in\n    tag_507:\n        /* \"#utility.yul\":21355:21491   */\n      pop\n        /* \"#utility.yul\":21302:21491   */\n      pop\n      pop\n      jump\t// out\n        /* \"#utility.yul\":21497:21683   */\n    tag_297:\n        /* \"#utility.yul\":21557:21677   */\n    tag_509:\n        /* \"#utility.yul\":21574:21577   */\n      dup2\n        /* \"#utility.yul\":21567:21572   */\n      dup2\n        /* \"#utility.yul\":21564:21578   */\n      lt\n        /* \"#utility.yul\":21557:21677   */\n      iszero\n      tag_511\n      jumpi\n        /* \"#utility.yul\":21628:21667   */\n      tag_512\n        /* \"#utility.yul\":21665:21666   */\n      0x00\n        /* \"#utility.yul\":21658:21663   */\n      dup3\n        /* \"#utility.yul\":21628:21667   */\n      tag_296\n      jump\t// in\n    tag_512:\n        /* \"#utility.yul\":21601:21602   */\n      0x01\n        /* \"#utility.yul\":21594:21599   */\n      dup2\n        /* \"#utility.yul\":21590:21603   */\n      add\n        /* \"#utility.yul\":21581:21603   */\n      swap1\n      pop\n        /* \"#utility.yul\":21557:21677   */\n      jump(tag_509)\n    tag_511:\n        /* \"#utility.yul\":21497:21683   */\n      pop\n      pop\n      jump\t// out\n        /* \"#utility.yul\":21689:22232   */\n    tag_298:\n        /* \"#utility.yul\":21790:21792   */\n      0x1f\n        /* \"#utility.yul\":21785:21788   */\n      dup3\n        /* \"#utility.yul\":21782:21793   */\n      gt\n        /* \"#utility.yul\":21779:22225   */\n      iszero\n      tag_514\n      jumpi\n        /* \"#utility.yul\":21824:21862   */\n      tag_515\n        /* \"#utility.yul\":21856:21861   */\n      dup2\n        /* \"#utility.yul\":21824:21862   */\n      tag_287\n      jump\t// in\n    tag_515:\n        /* \"#utility.yul\":21908:21937   */\n      tag_516\n        /* \"#utility.yul\":21926:21936   */\n      dup5\n        /* \"#utility.yul\":21908:21937   */\n      tag_288\n      jump\t// in\n    tag_516:\n        /* \"#utility.yul\":21898:21906   */\n      dup2\n        /* \"#utility.yul\":21894:21938   */\n      add\n        /* \"#utility.yul\":22091:22093   */\n      0x20\n        /* \"#utility.yul\":22079:22089   */\n      dup6\n        /* \"#utility.yul\":22076:22094   */\n      lt\n        /* \"#utility.yul\":22073:22122   */\n      iszero\n      tag_517\n      jumpi\n        /* \"#utility.yul\":22112:22120   */\n      dup2\n        /* \"#utility.yul\":22097:22120   */\n      swap1\n      pop\n        /* \"#utility.yul\":22073:22122   */\n    tag_517:\n        /* \"#utility.yul\":22135:22215   */\n      tag_518\n        /* \"#utility.yul\":22191:22213   */\n      tag_519\n        /* \"#utility.yul\":22209:22212   */\n      dup6\n        /* \"#utility.yul\":22191:22213   */\n      tag_288\n      jump\t// in\n    tag_519:\n        /* \"#utility.yul\":22181:22189   */\n      dup4\n        /* \"#utility.yul\":22177:22214   */\n      add\n        /* \"#utility.yul\":22164:22175   */\n      dup3\n        /* \"#utility.yul\":22135:22215   */\n      tag_297\n      jump\t// in\n    tag_518:\n        /* \"#utility.yul\":21794:22225   */\n      pop\n      pop\n        /* \"#utility.yul\":21779:22225   */\n    tag_514:\n        /* \"#utility.yul\":21689:22232   */\n      pop\n      pop\n      pop\n      jump\t// out\n        /* \"#utility.yul\":22238:22355   */\n    tag_299:\n        /* \"#utility.yul\":22292:22300   */\n      0x00\n        /* \"#utility.yul\":22342:22347   */\n      dup3\n        /* \"#utility.yul\":22336:22340   */\n      dup3\n        /* \"#utility.yul\":22332:22348   */\n      shr\n        /* \"#utility.yul\":22311:22348   */\n      swap1\n      pop\n        /* \"#utility.yul\":22238:22355   */\n      swap3\n      swap2\n      pop\n      pop\n      jump\t// out\n        /* \"#utility.yul\":22361:22530   */\n    tag_300:\n        /* \"#utility.yul\":22405:22411   */\n      0x00\n        /* \"#utility.yul\":22438:22489   */\n      tag_522\n        /* \"#utility.yul\":22486:22487   */\n      0x00\n        /* \"#utility.yul\":22482:22488   */\n      not\n        /* \"#utility.yul\":22474:22479   */\n      dup5\n        /* \"#utility.yul\":22471:22472   */\n      0x08\n        /* \"#utility.yul\":22467:22480   */\n      mul\n        /* \"#utility.yul\":22438:22489   */\n      tag_299\n      jump\t// in\n    tag_522:\n        /* \"#utility.yul\":22434:22490   */\n      not\n        /* \"#utility.yul\":22519:22523   */\n      dup1\n        /* \"#utility.yul\":22513:22517   */\n      dup4\n        /* \"#utility.yul\":22509:22524   */\n      and\n        /* \"#utility.yul\":22499:22524   */\n      swap2\n      pop\n        /* \"#utility.yul\":22412:22530   */\n      pop\n        /* \"#utility.yul\":22361:22530   */\n      swap3\n      swap2\n      pop\n      pop\n      jump\t// out\n        /* \"#utility.yul\":22535:22830   */\n    tag_301:\n        /* \"#utility.yul\":22611:22615   */\n      0x00\n        /* \"#utility.yul\":22757:22786   */\n      tag_524\n        /* \"#utility.yul\":22782:22785   */\n      dup4\n        /* \"#utility.yul\":22776:22780   */\n      dup4\n        /* \"#utility.yul\":22757:22786   */\n      tag_300\n      jump\t// in\n    tag_524:\n        /* \"#utility.yul\":22749:22786   */\n      swap2\n      pop\n        /* \"#utility.yul\":22819:22822   */\n      dup3\n        /* \"#utility.yul\":22816:22817   */\n      0x02\n        /* \"#utility.yul\":22812:22823   */\n      mul\n        /* \"#utility.yul\":22806:22810   */\n      dup3\n        /* \"#utility.yul\":22803:22824   */\n      or\n        /* \"#utility.yul\":22795:22824   */\n      swap1\n      pop\n        /* \"#utility.yul\":22535:22830   */\n      swap3\n      swap2\n      pop\n      pop\n      jump\t// out\n        /* \"#utility.yul\":22835:24230   */\n    tag_122:\n        /* \"#utility.yul\":22952:22989   */\n      tag_526\n        /* \"#utility.yul\":22985:22988   */\n      dup3\n        /* \"#utility.yul\":22952:22989   */\n      tag_240\n      jump\t// in\n    tag_526:\n        /* \"#utility.yul\":23054:23072   */\n      0xffffffffffffffff\n        /* \"#utility.yul\":23046:23052   */\n      dup2\n        /* \"#utility.yul\":23043:23073   */\n      gt\n        /* \"#utility.yul\":23040:23096   */\n      iszero\n      tag_527\n      jumpi\n        /* \"#utility.yul\":23076:23094   */\n      tag_528\n      tag_286\n      jump\t// in\n    tag_528:\n        /* \"#utility.yul\":23040:23096   */\n    tag_527:\n        /* \"#utility.yul\":23120:23158   */\n      tag_529\n        /* \"#utility.yul\":23152:23156   */\n      dup3\n        /* \"#utility.yul\":23146:23157   */\n      sload\n        /* \"#utility.yul\":23120:23158   */\n      tag_70\n      jump\t// in\n    tag_529:\n        /* \"#utility.yul\":23205:23272   */\n      tag_530\n        /* \"#utility.yul\":23265:23271   */\n      dup3\n        /* \"#utility.yul\":23257:23263   */\n      dup3\n        /* \"#utility.yul\":23251:23255   */\n      dup6\n        /* \"#utility.yul\":23205:23272   */\n      tag_298\n      jump\t// in\n    tag_530:\n        /* \"#utility.yul\":23299:23300   */\n      0x00\n        /* \"#utility.yul\":23323:23327   */\n      0x20\n        /* \"#utility.yul\":23310:23327   */\n      swap1\n      pop\n        /* \"#utility.yul\":23355:23357   */\n      0x1f\n        /* \"#utility.yul\":23347:23353   */\n      dup4\n        /* \"#utility.yul\":23344:23358   */\n      gt\n        /* \"#utility.yul\":23372:23373   */\n      0x01\n        /* \"#utility.yul\":23367:23985   */\n      dup2\n      eq\n      tag_532\n      jumpi\n        /* \"#utility.yul\":24029:24030   */\n      0x00\n        /* \"#utility.yul\":24046:24052   */\n      dup5\n        /* \"#utility.yul\":24043:24120   */\n      iszero\n      tag_533\n      jumpi\n        /* \"#utility.yul\":24095:24104   */\n      dup3\n        /* \"#utility.yul\":24090:24093   */\n      dup8\n        /* \"#utility.yul\":24086:24105   */\n      add\n        /* \"#utility.yul\":24080:24106   */\n      mload\n        /* \"#utility.yul\":24071:24106   */\n      swap1\n      pop\n        /* \"#utility.yul\":24043:24120   */\n    tag_533:\n        /* \"#utility.yul\":24146:24213   */\n      tag_534\n        /* \"#utility.yul\":24206:24212   */\n      dup6\n        /* \"#utility.yul\":24199:24204   */\n      dup3\n        /* \"#utility.yul\":24146:24213   */\n      tag_301\n      jump\t// in\n    tag_534:\n        /* \"#utility.yul\":24140:24144   */\n      dup7\n        /* \"#utility.yul\":24133:24214   */\n      sstore\n        /* \"#utility.yul\":24002:24224   */\n      pop\n        /* \"#utility.yul\":23337:24224   */\n      jump(tag_531)\n        /* \"#utility.yul\":23367:23985   */\n    tag_532:\n        /* \"#utility.yul\":23419:23423   */\n      0x1f\n        /* \"#utility.yul\":23415:23424   */\n      not\n        /* \"#utility.yul\":23407:23413   */\n      dup5\n        /* \"#utility.yul\":23403:23425   */\n      and\n        /* \"#utility.yul\":23453:23490   */\n      tag_535\n        /* \"#utility.yul\":23485:23489   */\n      dup7\n        /* \"#utility.yul\":23453:23490   */\n      tag_287\n      jump\t// in\n    tag_535:\n        /* \"#utility.yul\":23512:23513   */\n      0x00\n        /* \"#utility.yul\":23526:23734   */\n    tag_536:\n        /* \"#utility.yul\":23540:23547   */\n      dup3\n        /* \"#utility.yul\":23537:23538   */\n      dup2\n        /* \"#utility.yul\":23534:23548   */\n      lt\n        /* \"#utility.yul\":23526:23734   */\n      iszero\n      tag_538\n      jumpi\n        /* \"#utility.yul\":23619:23628   */\n      dup5\n        /* \"#utility.yul\":23614:23617   */\n      dup10\n        /* \"#utility.yul\":23610:23629   */\n      add\n        /* \"#utility.yul\":23604:23630   */\n      mload\n        /* \"#utility.yul\":23596:23602   */\n      dup3\n        /* \"#utility.yul\":23589:23631   */\n      sstore\n        /* \"#utility.yul\":23670:23671   */\n      0x01\n        /* \"#utility.yul\":23662:23668   */\n      dup3\n        /* \"#utility.yul\":23658:23672   */\n      add\n        /* \"#utility.yul\":23648:23672   */\n      swap2\n      pop\n        /* \"#utility.yul\":23717:23719   */\n      0x20\n        /* \"#utility.yul\":23706:23715   */\n      dup6\n        /* \"#utility.yul\":23702:23720   */\n      add\n        /* \"#utility.yul\":23689:23720   */\n      swap5\n      pop\n        /* \"#utility.yul\":23563:23567   */\n      0x20\n        /* \"#utility.yul\":23560:23561   */\n      dup2\n        /* \"#utility.yul\":23556:23568   */\n      add\n        /* \"#utility.yul\":23551:23568   */\n      swap1\n      pop\n        /* \"#utility.yul\":23526:23734   */\n      jump(tag_536)\n    tag_538:\n        /* \"#utility.yul\":23762:23768   */\n      dup7\n        /* \"#utility.yul\":23753:23760   */\n      dup4\n        /* \"#utility.yul\":23750:23769   */\n      lt\n        /* \"#utility.yul\":23747:23926   */\n      iszero\n      tag_539\n      jumpi\n        /* \"#utility.yul\":23820:23829   */\n      dup5\n        /* \"#utility.yul\":23815:23818   */\n      dup10\n        /* \"#utility.yul\":23811:23830   */\n      add\n        /* \"#utility.yul\":23805:23831   */\n      mload\n        /* \"#utility.yul\":23863:23911   */\n      tag_540\n        /* \"#utility.yul\":23905:23909   */\n      0x1f\n        /* \"#utility.yul\":23897:23903   */\n      dup10\n        /* \"#utility.yul\":23893:23910   */\n      and\n        /* \"#utility.yul\":23882:23891   */\n      dup3\n        /* \"#utility.yul\":23863:23911   */\n      tag_300\n      jump\t// in\n    tag_540:\n        /* \"#utility.yul\":23855:23861   */\n      dup4\n        /* \"#utility.yul\":23848:23912   */\n      sstore\n        /* \"#utility.yul\":23770:23926   */\n      pop\n        /* \"#utility.yul\":23747:23926   */\n    tag_539:\n        /* \"#utility.yul\":23972:23973   */\n      0x01\n        /* \"#utility.yul\":23968:23969   */\n      0x02\n        /* \"#utility.yul\":23960:23966   */\n      dup9\n        /* \"#utility.yul\":23956:23970   */\n      mul\n        /* \"#utility.yul\":23952:23974   */\n      add\n        /* \"#utility.yul\":23946:23950   */\n      dup9\n        /* \"#utility.yul\":23939:23975   */\n      sstore\n        /* \"#utility.yul\":23374:23985   */\n      pop\n      pop\n      pop\n        /* \"#utility.yul\":23337:24224   */\n    tag_531:\n      pop\n        /* \"#utility.yul\":22927:24230   */\n      pop\n      pop\n      pop\n        /* \"#utility.yul\":22835:24230   */\n      pop\n      pop\n      jump\t// out\n        /* \"#utility.yul\":24260:24577   */\n    tag_302:\n        /* \"#utility.yul\":24358:24361   */\n      0x00\n        /* \"#utility.yul\":24379:24450   */\n      tag_542\n        /* \"#utility.yul\":24443:24449   */\n      dup4\n        /* \"#utility.yul\":24438:24441   */\n      dup6\n        /* \"#utility.yul\":24379:24450   */\n      tag_263\n      jump\t// in\n    tag_542:\n        /* \"#utility.yul\":24372:24450   */\n      swap4\n      pop\n        /* \"#utility.yul\":24460:24516   */\n      tag_543\n        /* \"#utility.yul\":24509:24515   */\n      dup4\n        /* \"#utility.yul\":24504:24507   */\n      dup6\n        /* \"#utility.yul\":24497:24502   */\n      dup5\n        /* \"#utility.yul\":24460:24516   */\n      tag_280\n      jump\t// in\n    tag_543:\n        /* \"#utility.yul\":24541:24570   */\n      tag_544\n        /* \"#utility.yul\":24563:24569   */\n      dup4\n        /* \"#utility.yul\":24541:24570   */\n      tag_243\n      jump\t// in\n    tag_544:\n        /* \"#utility.yul\":24536:24539   */\n      dup5\n        /* \"#utility.yul\":24532:24571   */\n      add\n        /* \"#utility.yul\":24525:24571   */\n      swap1\n      pop\n        /* \"#utility.yul\":24260:24577   */\n      swap4\n      swap3\n      pop\n      pop\n      pop\n      jump\t// out\n        /* \"#utility.yul\":24583:24916   */\n    tag_126:\n        /* \"#utility.yul\":24706:24710   */\n      0x00\n        /* \"#utility.yul\":24744:24746   */\n      0x20\n        /* \"#utility.yul\":24733:24742   */\n      dup3\n        /* \"#utility.yul\":24729:24747   */\n      add\n        /* \"#utility.yul\":24721:24747   */\n      swap1\n      pop\n        /* \"#utility.yul\":24793:24802   */\n      dup2\n        /* \"#utility.yul\":24787:24791   */\n      dup2\n        /* \"#utility.yul\":24783:24803   */\n      sub\n        /* \"#utility.yul\":24779:24780   */\n      0x00\n        /* \"#utility.yul\":24768:24777   */\n      dup4\n        /* \"#utility.yul\":24764:24781   */\n      add\n        /* \"#utility.yul\":24757:24804   */\n      mstore\n        /* \"#utility.yul\":24821:24909   */\n      tag_546\n        /* \"#utility.yul\":24904:24908   */\n      dup2\n        /* \"#utility.yul\":24895:24901   */\n      dup5\n        /* \"#utility.yul\":24887:24893   */\n      dup7\n        /* \"#utility.yul\":24821:24909   */\n      tag_302\n      jump\t// in\n    tag_546:\n        /* \"#utility.yul\":24813:24909   */\n      swap1\n      pop\n        /* \"#utility.yul\":24583:24916   */\n      swap4\n      swap3\n      pop\n      pop\n      pop\n      jump\t// out\n        /* \"#utility.yul\":24922:25160   */\n    tag_303:\n        /* \"#utility.yul\":25062:25096   */\n      0x41766174617220636f6e747261637420616464726573732063616e6e6f742062\n        /* \"#utility.yul\":25058:25059   */\n      0x00\n        /* \"#utility.yul\":25050:25056   */\n      dup3\n        /* \"#utility.yul\":25046:25060   */\n      add\n        /* \"#utility.yul\":25039:25097   */\n      mstore\n        /* \"#utility.yul\":25131:25152   */\n      0x6520746865207a65726f20616464726573732e00000000000000000000000000\n        /* \"#utility.yul\":25126:25128   */\n      0x20\n        /* \"#utility.yul\":25118:25124   */\n      dup3\n        /* \"#utility.yul\":25114:25129   */\n      add\n        /* \"#utility.yul\":25107:25153   */\n      mstore\n        /* \"#utility.yul\":24922:25160   */\n      pop\n      jump\t// out\n        /* \"#utility.yul\":25166:25532   */\n    tag_304:\n        /* \"#utility.yul\":25308:25311   */\n      0x00\n        /* \"#utility.yul\":25329:25396   */\n      tag_549\n        /* \"#utility.yul\":25393:25395   */\n      0x33\n        /* \"#utility.yul\":25388:25391   */\n      dup4\n        /* \"#utility.yul\":25329:25396   */\n      tag_263\n      jump\t// in\n    tag_549:\n        /* \"#utility.yul\":25322:25396   */\n      swap2\n      pop\n        /* \"#utility.yul\":25405:25498   */\n      tag_550\n        /* \"#utility.yul\":25494:25497   */\n      dup3\n        /* \"#utility.yul\":25405:25498   */\n      tag_303\n      jump\t// in\n    tag_550:\n        /* \"#utility.yul\":25523:25525   */\n      0x40\n        /* \"#utility.yul\":25518:25521   */\n      dup3\n        /* \"#utility.yul\":25514:25526   */\n      add\n        /* \"#utility.yul\":25507:25526   */\n      swap1\n      pop\n        /* \"#utility.yul\":25166:25532   */\n      swap2\n      swap1\n      pop\n      jump\t// out\n        /* \"#utility.yul\":25538:25957   */\n    tag_137:\n        /* \"#utility.yul\":25704:25708   */\n      0x00\n        /* \"#utility.yul\":25742:25744   */\n      0x20\n        /* \"#utility.yul\":25731:25740   */\n      dup3\n        /* \"#utility.yul\":25727:25745   */\n      add\n        /* \"#utility.yul\":25719:25745   */\n      swap1\n      pop\n        /* \"#utility.yul\":25791:25800   */\n      dup2\n        /* \"#utility.yul\":25785:25789   */\n      dup2\n        /* \"#utility.yul\":25781:25801   */\n      sub\n        /* \"#utility.yul\":25777:25778   */\n      0x00\n        /* \"#utility.yul\":25766:25775   */\n      dup4\n        /* \"#utility.yul\":25762:25779   */\n      add\n        /* \"#utility.yul\":25755:25802   */\n      mstore\n        /* \"#utility.yul\":25819:25950   */\n      tag_552\n        /* \"#utility.yul\":25945:25949   */\n      dup2\n        /* \"#utility.yul\":25819:25950   */\n      tag_304\n      jump\t// in\n    tag_552:\n        /* \"#utility.yul\":25811:25950   */\n      swap1\n      pop\n        /* \"#utility.yul\":25538:25957   */\n      swap2\n      swap1\n      pop\n      jump\t// out\n        /* \"#utility.yul\":25963:26136   */\n    tag_305:\n        /* \"#utility.yul\":26103:26128   */\n      0x43616e6e6f7420666f6c6c6f7720796f757273656c662e000000000000000000\n        /* \"#utility.yul\":26099:26100   */\n      0x00\n        /* \"#utility.yul\":26091:26097   */\n      dup3\n        /* \"#utility.yul\":26087:26101   */\n      add\n        /* \"#utility.yul\":26080:26129   */\n      mstore\n        /* \"#utility.yul\":25963:26136   */\n      pop\n      jump\t// out\n        /* \"#utility.yul\":26142:26508   */\n    tag_306:\n        /* \"#utility.yul\":26284:26287   */\n      0x00\n        /* \"#utility.yul\":26305:26372   */\n      tag_555\n        /* \"#utility.yul\":26369:26371   */\n      0x17\n        /* \"#utility.yul\":26364:26367   */\n      dup4\n        /* \"#utility.yul\":26305:26372   */\n      tag_263\n      jump\t// in\n    tag_555:\n        /* \"#utility.yul\":26298:26372   */\n      swap2\n      pop\n        /* \"#utility.yul\":26381:26474   */\n      tag_556\n        /* \"#utility.yul\":26470:26473   */\n      dup3\n        /* \"#utility.yul\":26381:26474   */\n      tag_305\n      jump\t// in\n    tag_556:\n        /* \"#utility.yul\":26499:26501   */\n      0x20\n        /* \"#utility.yul\":26494:26497   */\n      dup3\n        /* \"#utility.yul\":26490:26502   */\n      add\n        /* \"#utility.yul\":26483:26502   */\n      swap1\n      pop\n        /* \"#utility.yul\":26142:26508   */\n      swap2\n      swap1\n      pop\n      jump\t// out\n        /* \"#utility.yul\":26514:26933   */\n    tag_144:\n        /* \"#utility.yul\":26680:26684   */\n      0x00\n        /* \"#utility.yul\":26718:26720   */\n      0x20\n        /* \"#utility.yul\":26707:26716   */\n      dup3\n        /* \"#utility.yul\":26703:26721   */\n      add\n        /* \"#utility.yul\":26695:26721   */\n      swap1\n      pop\n        /* \"#utility.yul\":26767:26776   */\n      dup2\n        /* \"#utility.yul\":26761:26765   */\n      dup2\n        /* \"#utility.yul\":26757:26777   */\n      sub\n        /* \"#utility.yul\":26753:26754   */\n      0x00\n        /* \"#utility.yul\":26742:26751   */\n      dup4\n        /* \"#utility.yul\":26738:26755   */\n      add\n        /* \"#utility.yul\":26731:26778   */\n      mstore\n        /* \"#utility.yul\":26795:26926   */\n      tag_558\n        /* \"#utility.yul\":26921:26925   */\n      dup2\n        /* \"#utility.yul\":26795:26926   */\n      tag_306\n      jump\t// in\n    tag_558:\n        /* \"#utility.yul\":26787:26926   */\n      swap1\n      pop\n        /* \"#utility.yul\":26514:26933   */\n      swap2\n      swap1\n      pop\n      jump\t// out\n        /* \"#utility.yul\":26939:27116   */\n    tag_307:\n        /* \"#utility.yul\":27079:27108   */\n      0x42616e6e65642075736572732063616e6e6f7420666f6c6c6f772e0000000000\n        /* \"#utility.yul\":27075:27076   */\n      0x00\n        /* \"#utility.yul\":27067:27073   */\n      dup3\n        /* \"#utility.yul\":27063:27077   */\n      add\n        /* \"#utility.yul\":27056:27109   */\n      mstore\n        /* \"#utility.yul\":26939:27116   */\n      pop\n      jump\t// out\n        /* \"#utility.yul\":27122:27488   */\n    tag_308:\n        /* \"#utility.yul\":27264:27267   */\n      0x00\n        /* \"#utility.yul\":27285:27352   */\n      tag_561\n        /* \"#utility.yul\":27349:27351   */\n      0x1b\n        /* \"#utility.yul\":27344:27347   */\n      dup4\n        /* \"#utility.yul\":27285:27352   */\n      tag_263\n      jump\t// in\n    tag_561:\n        /* \"#utility.yul\":27278:27352   */\n      swap2\n      pop\n        /* \"#utility.yul\":27361:27454   */\n      tag_562\n        /* \"#utility.yul\":27450:27453   */\n      dup3\n        /* \"#utility.yul\":27361:27454   */\n      tag_307\n      jump\t// in\n    tag_562:\n        /* \"#utility.yul\":27479:27481   */\n      0x20\n        /* \"#utility.yul\":27474:27477   */\n      dup3\n        /* \"#utility.yul\":27470:27482   */\n      add\n        /* \"#utility.yul\":27463:27482   */\n      swap1\n      pop\n        /* \"#utility.yul\":27122:27488   */\n      swap2\n      swap1\n      pop\n      jump\t// out\n        /* \"#utility.yul\":27494:27913   */\n    tag_147:\n        /* \"#utility.yul\":27660:27664   */\n      0x00\n        /* \"#utility.yul\":27698:27700   */\n      0x20\n        /* \"#utility.yul\":27687:27696   */\n      dup3\n        /* \"#utility.yul\":27683:27701   */\n      add\n        /* \"#utility.yul\":27675:27701   */\n      swap1\n      pop\n        /* \"#utility.yul\":27747:27756   */\n      dup2\n        /* \"#utility.yul\":27741:27745   */\n      dup2\n        /* \"#utility.yul\":27737:27757   */\n      sub\n        /* \"#utility.yul\":27733:27734   */\n      0x00\n        /* \"#utility.yul\":27722:27731   */\n      dup4\n        /* \"#utility.yul\":27718:27735   */\n      add\n        /* \"#utility.yul\":27711:27758   */\n      mstore\n        /* \"#utility.yul\":27775:27906   */\n      tag_564\n        /* \"#utility.yul\":27901:27905   */\n      dup2\n        /* \"#utility.yul\":27775:27906   */\n      tag_308\n      jump\t// in\n    tag_564:\n        /* \"#utility.yul\":27767:27906   */\n      swap1\n      pop\n        /* \"#utility.yul\":27494:27913   */\n      swap2\n      swap1\n      pop\n      jump\t// out\n        /* \"#utility.yul\":27919:28097   */\n    tag_309:\n        /* \"#utility.yul\":28059:28089   */\n      0x43616e6e6f7420666f6c6c6f7720612062616e6e656420757365722e00000000\n        /* \"#utility.yul\":28055:28056   */\n      0x00\n        /* \"#utility.yul\":28047:28053   */\n      dup3\n        /* \"#utility.yul\":28043:28057   */\n      add\n        /* \"#utility.yul\":28036:28090   */\n      mstore\n        /* \"#utility.yul\":27919:28097   */\n      pop\n      jump\t// out\n        /* \"#utility.yul\":28103:28469   */\n    tag_310:\n        /* \"#utility.yul\":28245:28248   */\n      0x00\n        /* \"#utility.yul\":28266:28333   */\n      tag_567\n        /* \"#utility.yul\":28330:28332   */\n      0x1c\n        /* \"#utility.yul\":28325:28328   */\n      dup4\n        /* \"#utility.yul\":28266:28333   */\n      tag_263\n      jump\t// in\n    tag_567:\n        /* \"#utility.yul\":28259:28333   */\n      swap2\n      pop\n        /* \"#utility.yul\":28342:28435   */\n      tag_568\n        /* \"#utility.yul\":28431:28434   */\n      dup3\n        /* \"#utility.yul\":28342:28435   */\n      tag_309\n      jump\t// in\n    tag_568:\n        /* \"#utility.yul\":28460:28462   */\n      0x20\n        /* \"#utility.yul\":28455:28458   */\n      dup3\n        /* \"#utility.yul\":28451:28463   */\n      add\n        /* \"#utility.yul\":28444:28463   */\n      swap1\n      pop\n        /* \"#utility.yul\":28103:28469   */\n      swap2\n      swap1\n      pop\n      jump\t// out\n        /* \"#utility.yul\":28475:28894   */\n    tag_150:\n        /* \"#utility.yul\":28641:28645   */\n      0x00\n        /* \"#utility.yul\":28679:28681   */\n      0x20\n        /* \"#utility.yul\":28668:28677   */\n      dup3\n        /* \"#utility.yul\":28664:28682   */\n      add\n        /* \"#utility.yul\":28656:28682   */\n      swap1\n      pop\n        /* \"#utility.yul\":28728:28737   */\n      dup2\n        /* \"#utility.yul\":28722:28726   */\n      dup2\n        /* \"#utility.yul\":28718:28738   */\n      sub\n        /* \"#utility.yul\":28714:28715   */\n      0x00\n        /* \"#utility.yul\":28703:28712   */\n      dup4\n        /* \"#utility.yul\":28699:28716   */\n      add\n        /* \"#utility.yul\":28692:28739   */\n      mstore\n        /* \"#utility.yul\":28756:28887   */\n      tag_570\n        /* \"#utility.yul\":28882:28886   */\n      dup2\n        /* \"#utility.yul\":28756:28887   */\n      tag_310\n      jump\t// in\n    tag_570:\n        /* \"#utility.yul\":28748:28887   */\n      swap1\n      pop\n        /* \"#utility.yul\":28475:28894   */\n      swap2\n      swap1\n      pop\n      jump\t// out\n        /* \"#utility.yul\":28900:29129   */\n    tag_311:\n        /* \"#utility.yul\":29040:29074   */\n      0x42616e6e65642075736572732063616e6e6f74206368616e6765207468656972\n        /* \"#utility.yul\":29036:29037   */\n      0x00\n        /* \"#utility.yul\":29028:29034   */\n      dup3\n        /* \"#utility.yul\":29024:29038   */\n      add\n        /* \"#utility.yul\":29017:29075   */\n      mstore\n        /* \"#utility.yul\":29109:29121   */\n      0x20757365726e616d652e00000000000000000000000000000000000000000000\n        /* \"#utility.yul\":29104:29106   */\n      0x20\n        /* \"#utility.yul\":29096:29102   */\n      dup3\n        /* \"#utility.yul\":29092:29107   */\n      add\n        /* \"#utility.yul\":29085:29122   */\n      mstore\n        /* \"#utility.yul\":28900:29129   */\n      pop\n      jump\t// out\n        /* \"#utility.yul\":29135:29501   */\n    tag_312:\n        /* \"#utility.yul\":29277:29280   */\n      0x00\n        /* \"#utility.yul\":29298:29365   */\n      tag_573\n        /* \"#utility.yul\":29362:29364   */\n      0x2a\n        /* \"#utility.yul\":29357:29360   */\n      dup4\n        /* \"#utility.yul\":29298:29365   */\n      tag_263\n      jump\t// in\n    tag_573:\n        /* \"#utility.yul\":29291:29365   */\n      swap2\n      pop\n        /* \"#utility.yul\":29374:29467   */\n      tag_574\n        /* \"#utility.yul\":29463:29466   */\n      dup3\n        /* \"#utility.yul\":29374:29467   */\n      tag_311\n      jump\t// in\n    tag_574:\n        /* \"#utility.yul\":29492:29494   */\n      0x40\n        /* \"#utility.yul\":29487:29490   */\n      dup3\n        /* \"#utility.yul\":29483:29495   */\n      add\n        /* \"#utility.yul\":29476:29495   */\n      swap1\n      pop\n        /* \"#utility.yul\":29135:29501   */\n      swap2\n      swap1\n      pop\n      jump\t// out\n        /* \"#utility.yul\":29507:29926   */\n    tag_164:\n        /* \"#utility.yul\":29673:29677   */\n      0x00\n        /* \"#utility.yul\":29711:29713   */\n      0x20\n        /* \"#utility.yul\":29700:29709   */\n      dup3\n        /* \"#utility.yul\":29696:29714   */\n      add\n        /* \"#utility.yul\":29688:29714   */\n      swap1\n      pop\n        /* \"#utility.yul\":29760:29769   */\n      dup2\n        /* \"#utility.yul\":29754:29758   */\n      dup2\n        /* \"#utility.yul\":29750:29770   */\n      sub\n        /* \"#utility.yul\":29746:29747   */\n      0x00\n        /* \"#utility.yul\":29735:29744   */\n      dup4\n        /* \"#utility.yul\":29731:29748   */\n      add\n        /* \"#utility.yul\":29724:29771   */\n      mstore\n        /* \"#utility.yul\":29788:29919   */\n      tag_576\n        /* \"#utility.yul\":29914:29918   */\n      dup2\n        /* \"#utility.yul\":29788:29919   */\n      tag_312\n      jump\t// in\n    tag_576:\n        /* \"#utility.yul\":29780:29919   */\n      swap1\n      pop\n        /* \"#utility.yul\":29507:29926   */\n      swap2\n      swap1\n      pop\n      jump\t// out\n        /* \"#utility.yul\":29956:30830   */\n    tag_313:\n        /* \"#utility.yul\":30059:30062   */\n      0x00\n        /* \"#utility.yul\":30096:30101   */\n      dup2\n        /* \"#utility.yul\":30090:30102   */\n      sload\n        /* \"#utility.yul\":30125:30161   */\n      tag_578\n        /* \"#utility.yul\":30151:30160   */\n      dup2\n        /* \"#utility.yul\":30125:30161   */\n      tag_70\n      jump\t// in\n    tag_578:\n        /* \"#utility.yul\":30177:30266   */\n      tag_579\n        /* \"#utility.yul\":30259:30265   */\n      dup2\n        /* \"#utility.yul\":30254:30257   */\n      dup7\n        /* \"#utility.yul\":30177:30266   */\n      tag_279\n      jump\t// in\n    tag_579:\n        /* \"#utility.yul\":30170:30266   */\n      swap5\n      pop\n        /* \"#utility.yul\":30297:30298   */\n      0x01\n        /* \"#utility.yul\":30286:30295   */\n      dup3\n        /* \"#utility.yul\":30282:30299   */\n      and\n        /* \"#utility.yul\":30313:30314   */\n      0x00\n        /* \"#utility.yul\":30308:30474   */\n      dup2\n      eq\n      tag_581\n      jumpi\n        /* \"#utility.yul\":30488:30489   */\n      0x01\n        /* \"#utility.yul\":30483:30824   */\n      dup2\n      eq\n      tag_582\n      jumpi\n        /* \"#utility.yul\":30275:30824   */\n      jump(tag_580)\n        /* \"#utility.yul\":30308:30474   */\n    tag_581:\n        /* \"#utility.yul\":30392:30396   */\n      0xff\n        /* \"#utility.yul\":30388:30397   */\n      not\n        /* \"#utility.yul\":30377:30386   */\n      dup4\n        /* \"#utility.yul\":30373:30398   */\n      and\n        /* \"#utility.yul\":30368:30371   */\n      dup7\n        /* \"#utility.yul\":30361:30399   */\n      mstore\n        /* \"#utility.yul\":30454:30460   */\n      dup2\n        /* \"#utility.yul\":30447:30461   */\n      iszero\n        /* \"#utility.yul\":30440:30462   */\n      iszero\n        /* \"#utility.yul\":30432:30438   */\n      dup3\n        /* \"#utility.yul\":30428:30463   */\n      mul\n        /* \"#utility.yul\":30423:30426   */\n      dup7\n        /* \"#utility.yul\":30419:30464   */\n      add\n        /* \"#utility.yul\":30412:30464   */\n      swap4\n      pop\n        /* \"#utility.yul\":30308:30474   */\n      jump(tag_580)\n        /* \"#utility.yul\":30483:30824   */\n    tag_582:\n        /* \"#utility.yul\":30550:30588   */\n      tag_583\n        /* \"#utility.yul\":30582:30587   */\n      dup6\n        /* \"#utility.yul\":30550:30588   */\n      tag_287\n      jump\t// in\n    tag_583:\n        /* \"#utility.yul\":30610:30611   */\n      0x00\n        /* \"#utility.yul\":30624:30778   */\n    tag_584:\n        /* \"#utility.yul\":30638:30644   */\n      dup4\n        /* \"#utility.yul\":30635:30636   */\n      dup2\n        /* \"#utility.yul\":30632:30645   */\n      lt\n        /* \"#utility.yul\":30624:30778   */\n      iszero\n      tag_586\n      jumpi\n        /* \"#utility.yul\":30712:30719   */\n      dup2\n        /* \"#utility.yul\":30706:30720   */\n      sload\n        /* \"#utility.yul\":30702:30703   */\n      dup2\n        /* \"#utility.yul\":30697:30700   */\n      dup10\n        /* \"#utility.yul\":30693:30704   */\n      add\n        /* \"#utility.yul\":30686:30721   */\n      mstore\n        /* \"#utility.yul\":30762:30763   */\n      0x01\n        /* \"#utility.yul\":30753:30760   */\n      dup3\n        /* \"#utility.yul\":30749:30764   */\n      add\n        /* \"#utility.yul\":30738:30764   */\n      swap2\n      pop\n        /* \"#utility.yul\":30660:30664   */\n      0x20\n        /* \"#utility.yul\":30657:30658   */\n      dup2\n        /* \"#utility.yul\":30653:30665   */\n      add\n        /* \"#utility.yul\":30648:30665   */\n      swap1\n      pop\n        /* \"#utility.yul\":30624:30778   */\n      jump(tag_584)\n    tag_586:\n        /* \"#utility.yul\":30807:30813   */\n      dup4\n        /* \"#utility.yul\":30802:30805   */\n      dup9\n        /* \"#utility.yul\":30798:30814   */\n      add\n        /* \"#utility.yul\":30791:30814   */\n      swap6\n      pop\n        /* \"#utility.yul\":30490:30824   */\n      pop\n      pop\n        /* \"#utility.yul\":30275:30824   */\n    tag_580:\n      pop\n        /* \"#utility.yul\":30063:30830   */\n      pop\n      pop\n        /* \"#utility.yul\":29956:30830   */\n      swap3\n      swap2\n      pop\n      pop\n      jump\t// out\n        /* \"#utility.yul\":30836:31105   */\n    tag_166:\n        /* \"#utility.yul\":30965:30968   */\n      0x00\n        /* \"#utility.yul\":30987:31079   */\n      tag_588\n        /* \"#utility.yul\":31075:31078   */\n      dup3\n        /* \"#utility.yul\":31066:31072   */\n      dup5\n        /* \"#utility.yul\":30987:31079   */\n      tag_313\n      jump\t// in\n    tag_588:\n        /* \"#utility.yul\":30980:31079   */\n      swap2\n      pop\n        /* \"#utility.yul\":31096:31099   */\n      dup2\n        /* \"#utility.yul\":31089:31099   */\n      swap1\n      pop\n        /* \"#utility.yul\":30836:31105   */\n      swap3\n      swap2\n      pop\n      pop\n      jump\t// out\n        /* \"#utility.yul\":31111:31208   */\n    tag_314:\n        /* \"#utility.yul\":31170:31176   */\n      0x00\n        /* \"#utility.yul\":31198:31201   */\n      dup3\n        /* \"#utility.yul\":31188:31201   */\n      swap1\n      pop\n        /* \"#utility.yul\":31111:31208   */\n      swap3\n      swap2\n      pop\n      pop\n      jump\t// out\n        /* \"#utility.yul\":31214:32617   */\n    tag_168:\n        /* \"#utility.yul\":31338:31382   */\n      tag_591\n        /* \"#utility.yul\":31378:31381   */\n      dup4\n        /* \"#utility.yul\":31373:31376   */\n      dup4\n        /* \"#utility.yul\":31338:31382   */\n      tag_314\n      jump\t// in\n    tag_591:\n        /* \"#utility.yul\":31447:31465   */\n      0xffffffffffffffff\n        /* \"#utility.yul\":31439:31445   */\n      dup2\n        /* \"#utility.yul\":31436:31466   */\n      gt\n        /* \"#utility.yul\":31433:31489   */\n      iszero\n      tag_592\n      jumpi\n        /* \"#utility.yul\":31469:31487   */\n      tag_593\n      tag_286\n      jump\t// in\n    tag_593:\n        /* \"#utility.yul\":31433:31489   */\n    tag_592:\n        /* \"#utility.yul\":31513:31551   */\n      tag_594\n        /* \"#utility.yul\":31545:31549   */\n      dup3\n        /* \"#utility.yul\":31539:31550   */\n      sload\n        /* \"#utility.yul\":31513:31551   */\n      tag_70\n      jump\t// in\n    tag_594:\n        /* \"#utility.yul\":31598:31665   */\n      tag_595\n        /* \"#utility.yul\":31658:31664   */\n      dup3\n        /* \"#utility.yul\":31650:31656   */\n      dup3\n        /* \"#utility.yul\":31644:31648   */\n      dup6\n        /* \"#utility.yul\":31598:31665   */\n      tag_298\n      jump\t// in\n    tag_595:\n        /* \"#utility.yul\":31692:31693   */\n      0x00\n        /* \"#utility.yul\":31721:31723   */\n      0x1f\n        /* \"#utility.yul\":31713:31719   */\n      dup4\n        /* \"#utility.yul\":31710:31724   */\n      gt\n        /* \"#utility.yul\":31738:31739   */\n      0x01\n        /* \"#utility.yul\":31733:32365   */\n      dup2\n      eq\n      tag_597\n      jumpi\n        /* \"#utility.yul\":32409:32410   */\n      0x00\n        /* \"#utility.yul\":32426:32432   */\n      dup5\n        /* \"#utility.yul\":32423:32507   */\n      iszero\n      tag_598\n      jumpi\n        /* \"#utility.yul\":32482:32491   */\n      dup3\n        /* \"#utility.yul\":32477:32480   */\n      dup8\n        /* \"#utility.yul\":32473:32492   */\n      add\n        /* \"#utility.yul\":32460:32493   */\n      calldataload\n        /* \"#utility.yul\":32451:32493   */\n      swap1\n      pop\n        /* \"#utility.yul\":32423:32507   */\n    tag_598:\n        /* \"#utility.yul\":32533:32600   */\n      tag_599\n        /* \"#utility.yul\":32593:32599   */\n      dup6\n        /* \"#utility.yul\":32586:32591   */\n      dup3\n        /* \"#utility.yul\":32533:32600   */\n      tag_301\n      jump\t// in\n    tag_599:\n        /* \"#utility.yul\":32527:32531   */\n      dup7\n        /* \"#utility.yul\":32520:32601   */\n      sstore\n        /* \"#utility.yul\":32382:32611   */\n      pop\n        /* \"#utility.yul\":31703:32611   */\n      jump(tag_596)\n        /* \"#utility.yul\":31733:32365   */\n    tag_597:\n        /* \"#utility.yul\":31785:31789   */\n      0x1f\n        /* \"#utility.yul\":31781:31790   */\n      not\n        /* \"#utility.yul\":31773:31779   */\n      dup5\n        /* \"#utility.yul\":31769:31791   */\n      and\n        /* \"#utility.yul\":31819:31856   */\n      tag_600\n        /* \"#utility.yul\":31851:31855   */\n      dup7\n        /* \"#utility.yul\":31819:31856   */\n      tag_287\n      jump\t// in\n    tag_600:\n        /* \"#utility.yul\":31878:31879   */\n      0x00\n        /* \"#utility.yul\":31892:32107   */\n    tag_601:\n        /* \"#utility.yul\":31906:31913   */\n      dup3\n        /* \"#utility.yul\":31903:31904   */\n      dup2\n        /* \"#utility.yul\":31900:31914   */\n      lt\n        /* \"#utility.yul\":31892:32107   */\n      iszero\n      tag_603\n      jumpi\n        /* \"#utility.yul\":31992:32001   */\n      dup5\n        /* \"#utility.yul\":31987:31990   */\n      dup10\n        /* \"#utility.yul\":31983:32002   */\n      add\n        /* \"#utility.yul\":31970:32003   */\n      calldataload\n        /* \"#utility.yul\":31962:31968   */\n      dup3\n        /* \"#utility.yul\":31955:32004   */\n      sstore\n        /* \"#utility.yul\":32043:32044   */\n      0x01\n        /* \"#utility.yul\":32035:32041   */\n      dup3\n        /* \"#utility.yul\":32031:32045   */\n      add\n        /* \"#utility.yul\":32021:32045   */\n      swap2\n      pop\n        /* \"#utility.yul\":32090:32092   */\n      0x20\n        /* \"#utility.yul\":32079:32088   */\n      dup6\n        /* \"#utility.yul\":32075:32093   */\n      add\n        /* \"#utility.yul\":32062:32093   */\n      swap5\n      pop\n        /* \"#utility.yul\":31929:31933   */\n      0x20\n        /* \"#utility.yul\":31926:31927   */\n      dup2\n        /* \"#utility.yul\":31922:31934   */\n      add\n        /* \"#utility.yul\":31917:31934   */\n      swap1\n      pop\n        /* \"#utility.yul\":31892:32107   */\n      jump(tag_601)\n    tag_603:\n        /* \"#utility.yul\":32135:32141   */\n      dup7\n        /* \"#utility.yul\":32126:32133   */\n      dup4\n        /* \"#utility.yul\":32123:32142   */\n      lt\n        /* \"#utility.yul\":32120:32306   */\n      iszero\n      tag_604\n      jumpi\n        /* \"#utility.yul\":32200:32209   */\n      dup5\n        /* \"#utility.yul\":32195:32198   */\n      dup10\n        /* \"#utility.yul\":32191:32210   */\n      add\n        /* \"#utility.yul\":32178:32211   */\n      calldataload\n        /* \"#utility.yul\":32243:32291   */\n      tag_605\n        /* \"#utility.yul\":32285:32289   */\n      0x1f\n        /* \"#utility.yul\":32277:32283   */\n      dup10\n        /* \"#utility.yul\":32273:32290   */\n      and\n        /* \"#utility.yul\":32262:32271   */\n      dup3\n        /* \"#utility.yul\":32243:32291   */\n      tag_300\n      jump\t// in\n    tag_605:\n        /* \"#utility.yul\":32235:32241   */\n      dup4\n        /* \"#utility.yul\":32228:32292   */\n      sstore\n        /* \"#utility.yul\":32143:32306   */\n      pop\n        /* \"#utility.yul\":32120:32306   */\n    tag_604:\n        /* \"#utility.yul\":32352:32353   */\n      0x01\n        /* \"#utility.yul\":32348:32349   */\n      0x02\n        /* \"#utility.yul\":32340:32346   */\n      dup9\n        /* \"#utility.yul\":32336:32350   */\n      mul\n        /* \"#utility.yul\":32332:32354   */\n      add\n        /* \"#utility.yul\":32326:32330   */\n      dup9\n        /* \"#utility.yul\":32319:32355   */\n      sstore\n        /* \"#utility.yul\":31740:32365   */\n      pop\n      pop\n      pop\n        /* \"#utility.yul\":31703:32611   */\n    tag_596:\n      pop\n        /* \"#utility.yul\":31313:32617   */\n      pop\n      pop\n      pop\n        /* \"#utility.yul\":31214:32617   */\n      pop\n      pop\n      pop\n      jump\t// out\n        /* \"#utility.yul\":32623:32798   */\n    tag_315:\n        /* \"#utility.yul\":32763:32790   */\n      0x43616e6e6f7420756e666f6c6c6f7720796f757273656c662e00000000000000\n        /* \"#utility.yul\":32759:32760   */\n      0x00\n        /* \"#utility.yul\":32751:32757   */\n      dup3\n        /* \"#utility.yul\":32747:32761   */\n      add\n        /* \"#utility.yul\":32740:32791   */\n      mstore\n        /* \"#utility.yul\":32623:32798   */\n      pop\n      jump\t// out\n        /* \"#utility.yul\":32804:33170   */\n    tag_316:\n        /* \"#utility.yul\":32946:32949   */\n      0x00\n        /* \"#utility.yul\":32967:33034   */\n      tag_608\n        /* \"#utility.yul\":33031:33033   */\n      0x19\n        /* \"#utility.yul\":33026:33029   */\n      dup4\n        /* \"#utility.yul\":32967:33034   */\n      tag_263\n      jump\t// in\n    tag_608:\n        /* \"#utility.yul\":32960:33034   */\n      swap2\n      pop\n        /* \"#utility.yul\":33043:33136   */\n      tag_609\n        /* \"#utility.yul\":33132:33135   */\n      dup3\n        /* \"#utility.yul\":33043:33136   */\n      tag_315\n      jump\t// in\n    tag_609:\n        /* \"#utility.yul\":33161:33163   */\n      0x20\n        /* \"#utility.yul\":33156:33159   */\n      dup3\n        /* \"#utility.yul\":33152:33164   */\n      add\n        /* \"#utility.yul\":33145:33164   */\n      swap1\n      pop\n        /* \"#utility.yul\":32804:33170   */\n      swap2\n      swap1\n      pop\n      jump\t// out\n        /* \"#utility.yul\":33176:33595   */\n    tag_177:\n        /* \"#utility.yul\":33342:33346   */\n      0x00\n        /* \"#utility.yul\":33380:33382   */\n      0x20\n        /* \"#utility.yul\":33369:33378   */\n      dup3\n        /* \"#utility.yul\":33365:33383   */\n      add\n        /* \"#utility.yul\":33357:33383   */\n      swap1\n      pop\n        /* \"#utility.yul\":33429:33438   */\n      dup2\n        /* \"#utility.yul\":33423:33427   */\n      dup2\n        /* \"#utility.yul\":33419:33439   */\n      sub\n        /* \"#utility.yul\":33415:33416   */\n      0x00\n        /* \"#utility.yul\":33404:33413   */\n      dup4\n        /* \"#utility.yul\":33400:33417   */\n      add\n        /* \"#utility.yul\":33393:33440   */\n      mstore\n        /* \"#utility.yul\":33457:33588   */\n      tag_611\n        /* \"#utility.yul\":33583:33587   */\n      dup2\n        /* \"#utility.yul\":33457:33588   */\n      tag_316\n      jump\t// in\n    tag_611:\n        /* \"#utility.yul\":33449:33588   */\n      swap1\n      pop\n        /* \"#utility.yul\":33176:33595   */\n      swap2\n      swap1\n      pop\n      jump\t// out\n        /* \"#utility.yul\":33601:33769   */\n    tag_317:\n        /* \"#utility.yul\":33741:33761   */\n      0x55736572206e6f7420666f6c6c6f7765642e0000000000000000000000000000\n        /* \"#utility.yul\":33737:33738   */\n      0x00\n        /* \"#utility.yul\":33729:33735   */\n      dup3\n        /* \"#utility.yul\":33725:33739   */\n      add\n        /* \"#utility.yul\":33718:33762   */\n      mstore\n        /* \"#utility.yul\":33601:33769   */\n      pop\n      jump\t// out\n        /* \"#utility.yul\":33775:34141   */\n    tag_318:\n        /* \"#utility.yul\":33917:33920   */\n      0x00\n        /* \"#utility.yul\":33938:34005   */\n      tag_614\n        /* \"#utility.yul\":34002:34004   */\n      0x12\n        /* \"#utility.yul\":33997:34000   */\n      dup4\n        /* \"#utility.yul\":33938:34005   */\n      tag_263\n      jump\t// in\n    tag_614:\n        /* \"#utility.yul\":33931:34005   */\n      swap2\n      pop\n        /* \"#utility.yul\":34014:34107   */\n      tag_615\n        /* \"#utility.yul\":34103:34106   */\n      dup3\n        /* \"#utility.yul\":34014:34107   */\n      tag_317\n      jump\t// in\n    tag_615:\n        /* \"#utility.yul\":34132:34134   */\n      0x20\n        /* \"#utility.yul\":34127:34130   */\n      dup3\n        /* \"#utility.yul\":34123:34135   */\n      add\n        /* \"#utility.yul\":34116:34135   */\n      swap1\n      pop\n        /* \"#utility.yul\":33775:34141   */\n      swap2\n      swap1\n      pop\n      jump\t// out\n        /* \"#utility.yul\":34147:34566   */\n    tag_182:\n        /* \"#utility.yul\":34313:34317   */\n      0x00\n        /* \"#utility.yul\":34351:34353   */\n      0x20\n        /* \"#utility.yul\":34340:34349   */\n      dup3\n        /* \"#utility.yul\":34336:34354   */\n      add\n        /* \"#utility.yul\":34328:34354   */\n      swap1\n      pop\n        /* \"#utility.yul\":34400:34409   */\n      dup2\n        /* \"#utility.yul\":34394:34398   */\n      dup2\n        /* \"#utility.yul\":34390:34410   */\n      sub\n        /* \"#utility.yul\":34386:34387   */\n      0x00\n        /* \"#utility.yul\":34375:34384   */\n      dup4\n        /* \"#utility.yul\":34371:34388   */\n      add\n        /* \"#utility.yul\":34364:34411   */\n      mstore\n        /* \"#utility.yul\":34428:34559   */\n      tag_617\n        /* \"#utility.yul\":34554:34558   */\n      dup2\n        /* \"#utility.yul\":34428:34559   */\n      tag_318\n      jump\t// in\n    tag_617:\n        /* \"#utility.yul\":34420:34559   */\n      swap1\n      pop\n        /* \"#utility.yul\":34147:34566   */\n      swap2\n      swap1\n      pop\n      jump\t// out\n        /* \"#utility.yul\":34572:34752   */\n    tag_205:\n        /* \"#utility.yul\":34620:34697   */\n      0x4e487b7100000000000000000000000000000000000000000000000000000000\n        /* \"#utility.yul\":34617:34618   */\n      0x00\n        /* \"#utility.yul\":34610:34698   */\n      mstore\n        /* \"#utility.yul\":34717:34721   */\n      0x32\n        /* \"#utility.yul\":34714:34715   */\n      0x04\n        /* \"#utility.yul\":34707:34722   */\n      mstore\n        /* \"#utility.yul\":34741:34745   */\n      0x24\n        /* \"#utility.yul\":34738:34739   */\n      0x00\n        /* \"#utility.yul\":34731:34746   */\n      revert\n        /* \"#utility.yul\":34758:34928   */\n    tag_319:\n        /* \"#utility.yul\":34898:34920   */\n      0x496e646578206f7574206f6620626f756e64732e000000000000000000000000\n        /* \"#utility.yul\":34894:34895   */\n      0x00\n        /* \"#utility.yul\":34886:34892   */\n      dup3\n        /* \"#utility.yul\":34882:34896   */\n      add\n        /* \"#utility.yul\":34875:34921   */\n      mstore\n        /* \"#utility.yul\":34758:34928   */\n      pop\n      jump\t// out\n        /* \"#utility.yul\":34934:35300   */\n    tag_320:\n        /* \"#utility.yul\":35076:35079   */\n      0x00\n        /* \"#utility.yul\":35097:35164   */\n      tag_621\n        /* \"#utility.yul\":35161:35163   */\n      0x14\n        /* \"#utility.yul\":35156:35159   */\n      dup4\n        /* \"#utility.yul\":35097:35164   */\n      tag_263\n      jump\t// in\n    tag_621:\n        /* \"#utility.yul\":35090:35164   */\n      swap2\n      pop\n        /* \"#utility.yul\":35173:35266   */\n      tag_622\n        /* \"#utility.yul\":35262:35265   */\n      dup3\n        /* \"#utility.yul\":35173:35266   */\n      tag_319\n      jump\t// in\n    tag_622:\n        /* \"#utility.yul\":35291:35293   */\n      0x20\n        /* \"#utility.yul\":35286:35289   */\n      dup3\n        /* \"#utility.yul\":35282:35294   */\n      add\n        /* \"#utility.yul\":35275:35294   */\n      swap1\n      pop\n        /* \"#utility.yul\":34934:35300   */\n      swap2\n      swap1\n      pop\n      jump\t// out\n        /* \"#utility.yul\":35306:35725   */\n    tag_211:\n        /* \"#utility.yul\":35472:35476   */\n      0x00\n        /* \"#utility.yul\":35510:35512   */\n      0x20\n        /* \"#utility.yul\":35499:35508   */\n      dup3\n        /* \"#utility.yul\":35495:35513   */\n      add\n        /* \"#utility.yul\":35487:35513   */\n      swap1\n      pop\n        /* \"#utility.yul\":35559:35568   */\n      dup2\n        /* \"#utility.yul\":35553:35557   */\n      dup2\n        /* \"#utility.yul\":35549:35569   */\n      sub\n        /* \"#utility.yul\":35545:35546   */\n      0x00\n        /* \"#utility.yul\":35534:35543   */\n      dup4\n        /* \"#utility.yul\":35530:35547   */\n      add\n        /* \"#utility.yul\":35523:35570   */\n      mstore\n        /* \"#utility.yul\":35587:35718   */\n      tag_624\n        /* \"#utility.yul\":35713:35717   */\n      dup2\n        /* \"#utility.yul\":35587:35718   */\n      tag_320\n      jump\t// in\n    tag_624:\n        /* \"#utility.yul\":35579:35718   */\n      swap1\n      pop\n        /* \"#utility.yul\":35306:35725   */\n      swap2\n      swap1\n      pop\n      jump\t// out\n        /* \"#utility.yul\":35731:35911   */\n    tag_321:\n        /* \"#utility.yul\":35779:35856   */\n      0x4e487b7100000000000000000000000000000000000000000000000000000000\n        /* \"#utility.yul\":35776:35777   */\n      0x00\n        /* \"#utility.yul\":35769:35857   */\n      mstore\n        /* \"#utility.yul\":35876:35880   */\n      0x11\n        /* \"#utility.yul\":35873:35874   */\n      0x04\n        /* \"#utility.yul\":35866:35881   */\n      mstore\n        /* \"#utility.yul\":35900:35904   */\n      0x24\n        /* \"#utility.yul\":35897:35898   */\n      0x00\n        /* \"#utility.yul\":35890:35905   */\n      revert\n        /* \"#utility.yul\":35917:36111   */\n    tag_216:\n        /* \"#utility.yul\":35957:35961   */\n      0x00\n        /* \"#utility.yul\":35977:35997   */\n      tag_627\n        /* \"#utility.yul\":35995:35996   */\n      dup3\n        /* \"#utility.yul\":35977:35997   */\n      tag_237\n      jump\t// in\n    tag_627:\n        /* \"#utility.yul\":35972:35997   */\n      swap2\n      pop\n        /* \"#utility.yul\":36011:36031   */\n      tag_628\n        /* \"#utility.yul\":36029:36030   */\n      dup4\n        /* \"#utility.yul\":36011:36031   */\n      tag_237\n      jump\t// in\n    tag_628:\n        /* \"#utility.yul\":36006:36031   */\n      swap3\n      pop\n        /* \"#utility.yul\":36055:36056   */\n      dup3\n        /* \"#utility.yul\":36052:36053   */\n      dup3\n        /* \"#utility.yul\":36048:36057   */\n      sub\n        /* \"#utility.yul\":36040:36057   */\n      swap1\n      pop\n        /* \"#utility.yul\":36079:36080   */\n      dup2\n        /* \"#utility.yul\":36073:36077   */\n      dup2\n        /* \"#utility.yul\":36070:36081   */\n      gt\n        /* \"#utility.yul\":36067:36104   */\n      iszero\n      tag_629\n      jumpi\n        /* \"#utility.yul\":36084:36102   */\n      tag_630\n      tag_321\n      jump\t// in\n    tag_630:\n        /* \"#utility.yul\":36067:36104   */\n    tag_629:\n        /* \"#utility.yul\":35917:36111   */\n      swap3\n      swap2\n      pop\n      pop\n      jump\t// out\n        /* \"#utility.yul\":36117:36308   */\n    tag_218:\n        /* \"#utility.yul\":36157:36160   */\n      0x00\n        /* \"#utility.yul\":36176:36196   */\n      tag_632\n        /* \"#utility.yul\":36194:36195   */\n      dup3\n        /* \"#utility.yul\":36176:36196   */\n      tag_237\n      jump\t// in\n    tag_632:\n        /* \"#utility.yul\":36171:36196   */\n      swap2\n      pop\n        /* \"#utility.yul\":36210:36230   */\n      tag_633\n        /* \"#utility.yul\":36228:36229   */\n      dup4\n        /* \"#utility.yul\":36210:36230   */\n      tag_237\n      jump\t// in\n    tag_633:\n        /* \"#utility.yul\":36205:36230   */\n      swap3\n      pop\n        /* \"#utility.yul\":36253:36254   */\n      dup3\n        /* \"#utility.yul\":36250:36251   */\n      dup3\n        /* \"#utility.yul\":36246:36255   */\n      add\n        /* \"#utility.yul\":36239:36255   */\n      swap1\n      pop\n        /* \"#utility.yul\":36274:36277   */\n      dup1\n        /* \"#utility.yul\":36271:36272   */\n      dup3\n        /* \"#utility.yul\":36268:36278   */\n      gt\n        /* \"#utility.yul\":36265:36301   */\n      iszero\n      tag_634\n      jumpi\n        /* \"#utility.yul\":36281:36299   */\n      tag_635\n      tag_321\n      jump\t// in\n    tag_635:\n        /* \"#utility.yul\":36265:36301   */\n    tag_634:\n        /* \"#utility.yul\":36117:36308   */\n      swap3\n      swap2\n      pop\n      pop\n      jump\t// out\n        /* \"#utility.yul\":36314:36494   */\n    tag_227:\n        /* \"#utility.yul\":36362:36439   */\n      0x4e487b7100000000000000000000000000000000000000000000000000000000\n        /* \"#utility.yul\":36359:36360   */\n      0x00\n        /* \"#utility.yul\":36352:36440   */\n      mstore\n        /* \"#utility.yul\":36459:36463   */\n      0x31\n        /* \"#utility.yul\":36456:36457   */\n      0x04\n        /* \"#utility.yul\":36449:36464   */\n      mstore\n        /* \"#utility.yul\":36483:36487   */\n      0x24\n        /* \"#utility.yul\":36480:36481   */\n      0x00\n        /* \"#utility.yul\":36473:36488   */\n      revert\n\n    auxdata: 0xa26469706673582212204f979991e555694853940eb74d42fdad8a92196709a80a5edf7d2d260fcc8b5364736f6c63430008170033\n}\n",
				"bytecode": {
					"linkReferences": {},
					"object": "60806040523480156200001157600080fd5b5033600073ffffffffffffffffffffffffffffffffffffffff168173ffffffffffffffffffffffffffffffffffffffff1603620000885760006040517f1e4fbdf70000000000000000000000000000000000000000000000000000000081526004016200007f9190620001eb565b60405180910390fd5b6200009981620000e260201b60201c565b506000600560006101000a81548173ffffffffffffffffffffffffffffffffffffffff021916908373ffffffffffffffffffffffffffffffffffffffff16021790555062000208565b60008060009054906101000a900473ffffffffffffffffffffffffffffffffffffffff169050816000806101000a81548173ffffffffffffffffffffffffffffffffffffffff021916908373ffffffffffffffffffffffffffffffffffffffff1602179055508173ffffffffffffffffffffffffffffffffffffffff168173ffffffffffffffffffffffffffffffffffffffff167f8be0079c531659141344cd1fd0a4f28419497f9722a3daafe3b4186f6b6457e060405160405180910390a35050565b600073ffffffffffffffffffffffffffffffffffffffff82169050919050565b6000620001d382620001a6565b9050919050565b620001e581620001c6565b82525050565b6000602082019050620002026000830184620001da565b92915050565b612dcf80620002186000396000f3fe608060405234801561001057600080fd5b50600436106100cf5760003560e01c80638da5cb5b1161008c578063bdac649511610066578063bdac6495146101d6578063eb0eeb10146101f2578063f107cfcb14610222578063f2fde38b1461023e576100cf565b80638da5cb5b1461017e5780639be572f61461019c578063a70806f7146101ba576100cf565b806310d86b1f146100d4578063499dfa6d146100f05780636386c1c71461010c578063704f1b941461013c578063715018a6146101585780638c19ebc814610162575b600080fd5b6100ee60048036038101906100e99190611b9a565b61025a565b005b61010a60048036038101906101059190611bfd565b610393565b005b61012660048036038101906101219190611b9a565b6106e6565b6040516101339190611d34565b60405180910390f35b61015660048036038101906101519190611dbb565b610886565b005b610160610ca8565b005b61017c60048036038101906101779190611b9a565b610cbc565b005b610186610dae565b6040516101939190611e17565b60405180910390f35b6101a4610dd7565b6040516101b19190611e41565b60405180910390f35b6101d460048036038101906101cf9190611b9a565b610de4565b005b6101f060048036038101906101eb9190611dbb565b61106f565b005b61020c60048036038101906102079190611b9a565b611369565b6040516102199190611f1a565b60405180910390f35b61023c60048036038101906102379190611b9a565b611436565b005b61025860048036038101906102539190611b9a565b61155e565b005b6102626115e4565b6000600160008373ffffffffffffffffffffffffffffffffffffffff1673ffffffffffffffffffffffffffffffffffffffff16815260200190815260200160002060000180546102b190611f6b565b9050116102f3576040517f08c379a00000000000000000000000000000000000000000000000000000000081526004016102ea90611ff9565b60405180910390fd5b60018060008373ffffffffffffffffffffffffffffffffffffffff1673ffffffffffffffffffffffffffffffffffffffff16815260200190815260200160002060020160006101000a81548160ff0219169083151502179055508073ffffffffffffffffffffffffffffffffffffffff167f8f411ad66fd8225d9c3c7c72fd2429139958913fa5c5114dce1c984e069a4f6960405160405180910390a250565b600073ffffffffffffffffffffffffffffffffffffffff16600560009054906101000a900473ffffffffffffffffffffffffffffffffffffffff1673ffffffffffffffffffffffffffffffffffffffff1603610424576040517f08c379a000000000000000000000000000000000000000000000000000000000815260040161041b90612065565b60405180910390fd5b6000600160003373ffffffffffffffffffffffffffffffffffffffff1673ffffffffffffffffffffffffffffffffffffffff168152602001908152602001600020600001805461047390611f6b565b9050116104b5576040517f08c379a00000000000000000000000000000000000000000000000000000000081526004016104ac90611ff9565b60405180910390fd5b600160003373ffffffffffffffffffffffffffffffffffffffff1673ffffffffffffffffffffffffffffffffffffffff16815260200190815260200160002060020160009054906101000a900460ff1615610545576040517f08c379a000000000000000000000000000000000000000000000000000000000815260040161053c906120f7565b60405180910390fd5b3373ffffffffffffffffffffffffffffffffffffffff16600560009054906101000a900473ffffffffffffffffffffffffffffffffffffffff1673ffffffffffffffffffffffffffffffffffffffff16636352211e836040518263ffffffff1660e01b81526004016105b79190611e41565b602060405180830381865afa1580156105d4573d6000803e3d6000fd5b505050506040513d601f19601f820116820180604052508101906105f8919061212c565b73ffffffffffffffffffffffffffffffffffffffff161461064e576040517f08c379a0000000000000000000000000000000000000000000000000000000008152600401610645906121cb565b60405180910390fd5b80600160003373ffffffffffffffffffffffffffffffffffffffff1673ffffffffffffffffffffffffffffffffffffffff168152602001908152602001600020600101819055503373ffffffffffffffffffffffffffffffffffffffff167f1e5f2d12dd068942f2613e78bb14b0b0aa33962dadfc607a6994f613fcb0bb37826040516106db9190611e41565b60405180910390a250565b6106ee611b0f565b600160008373ffffffffffffffffffffffffffffffffffffffff1673ffffffffffffffffffffffffffffffffffffffff16815260200190815260200160002060020160009054906101000a900460ff161561077e576040517f08c379a000000000000000000000000000000000000000000000000000000000815260040161077590612237565b60405180910390fd5b600160008373ffffffffffffffffffffffffffffffffffffffff1673ffffffffffffffffffffffffffffffffffffffff1681526020019081526020016000206040518060600160405290816000820180546107d890611f6b565b80601f016020809104026020016040519081016040528092919081815260200182805461080490611f6b565b80156108515780601f1061082657610100808354040283529160200191610851565b820191906000526020600020905b81548152906001019060200180831161083457829003601f168201915b50505050508152602001600182015481526020016002820160009054906101000a900460ff1615151515815250509050919050565b6000600160003373ffffffffffffffffffffffffffffffffffffffff1673ffffffffffffffffffffffffffffffffffffffff16815260200190815260200160002060000180546108d590611f6b565b905014610917576040517f08c379a000000000000000000000000000000000000000000000000000000000815260040161090e906122a3565b60405180910390fd5b6004828290501015801561092f5750600f8282905011155b61096e576040517f08c379a000000000000000000000000000000000000000000000000000000000815260040161096590612335565b60405180910390fd5b600073ffffffffffffffffffffffffffffffffffffffff1660028383604051610998929190612394565b908152602001604051809103902060009054906101000a900473ffffffffffffffffffffffffffffffffffffffff1673ffffffffffffffffffffffffffffffffffffffff1614610a1d576040517f08c379a0000000000000000000000000000000000000000000000000000000008152600401610a14906123f9565b60405180910390fd5b600160003373ffffffffffffffffffffffffffffffffffffffff1673ffffffffffffffffffffffffffffffffffffffff16815260200190815260200160002060020160009054906101000a900460ff1615610aad576040517f08c379a0000000000000000000000000000000000000000000000000000000008152600401610aa490612465565b60405180910390fd5b604051806060016040528083838080601f016020809104026020016040519081016040528093929190818152602001838380828437600081840152601f19601f8201169050808301925050505050505081526020016000815260200160001515815250600160003373ffffffffffffffffffffffffffffffffffffffff1673ffffffffffffffffffffffffffffffffffffffff1681526020019081526020016000206000820151816000019081610b649190612660565b506020820151816001015560408201518160020160006101000a81548160ff0219169083151502179055509050503360028383604051610ba5929190612394565b908152602001604051809103902060006101000a81548173ffffffffffffffffffffffffffffffffffffffff021916908373ffffffffffffffffffffffffffffffffffffffff1602179055506004339080600181540180825580915050600190039060005260206000200160009091909190916101000a81548173ffffffffffffffffffffffffffffffffffffffff021916908373ffffffffffffffffffffffffffffffffffffffff1602179055503373ffffffffffffffffffffffffffffffffffffffff167f48cac28ad4dc618e15f4c2dd5e97751182f166de97b25618318b2112aa951a2f8383604051610c9c92919061275f565b60405180910390a25050565b610cb06115e4565b610cba600061166b565b565b610cc46115e4565b600073ffffffffffffffffffffffffffffffffffffffff168173ffffffffffffffffffffffffffffffffffffffff1603610d33576040517f08c379a0000000000000000000000000000000000000000000000000000000008152600401610d2a906127f5565b60405180910390fd5b80600560006101000a81548173ffffffffffffffffffffffffffffffffffffffff021916908373ffffffffffffffffffffffffffffffffffffffff1602179055507ff35afdac17eaec488e5ac0282b73bba562cf0c4a2349e00f79528507ba792da981604051610da39190611e17565b60405180910390a150565b60008060009054906101000a900473ffffffffffffffffffffffffffffffffffffffff16905090565b6000600480549050905090565b3373ffffffffffffffffffffffffffffffffffffffff168173ffffffffffffffffffffffffffffffffffffffff1603610e52576040517f08c379a0000000000000000000000000000000000000000000000000000000008152600401610e4990612861565b60405180910390fd5b600160003373ffffffffffffffffffffffffffffffffffffffff1673ffffffffffffffffffffffffffffffffffffffff16815260200190815260200160002060020160009054906101000a900460ff1615610ee2576040517f08c379a0000000000000000000000000000000000000000000000000000000008152600401610ed9906128cd565b60405180910390fd5b600160008273ffffffffffffffffffffffffffffffffffffffff1673ffffffffffffffffffffffffffffffffffffffff16815260200190815260200160002060020160009054906101000a900460ff1615610f72576040517f08c379a0000000000000000000000000000000000000000000000000000000008152600401610f6990612939565b60405180910390fd5b600360003373ffffffffffffffffffffffffffffffffffffffff1673ffffffffffffffffffffffffffffffffffffffff168152602001908152602001600020819080600181540180825580915050600190039060005260206000200160009091909190916101000a81548173ffffffffffffffffffffffffffffffffffffffff021916908373ffffffffffffffffffffffffffffffffffffffff1602179055508073ffffffffffffffffffffffffffffffffffffffff163373ffffffffffffffffffffffffffffffffffffffff167f30b3435b456f45779984ddfa456115ee4c20d9e446979b1b9e90dbb7e12b90b760405160405180910390a350565b6000600160003373ffffffffffffffffffffffffffffffffffffffff1673ffffffffffffffffffffffffffffffffffffffff168152602001908152602001600020905060008160000180546110c390611f6b565b905011611105576040517f08c379a00000000000000000000000000000000000000000000000000000000081526004016110fc90611ff9565b60405180910390fd5b6004838390501015801561111d5750600f8383905011155b61115c576040517f08c379a000000000000000000000000000000000000000000000000000000000815260040161115390612335565b60405180910390fd5b600073ffffffffffffffffffffffffffffffffffffffff1660028484604051611186929190612394565b908152602001604051809103902060009054906101000a900473ffffffffffffffffffffffffffffffffffffffff1673ffffffffffffffffffffffffffffffffffffffff161461120b576040517f08c379a0000000000000000000000000000000000000000000000000000000008152600401611202906123f9565b60405180910390fd5b8060020160009054906101000a900460ff161561125d576040517f08c379a0000000000000000000000000000000000000000000000000000000008152600401611254906129cb565b60405180910390fd5b6002816000016040516112709190612a6e565b908152602001604051809103902060006101000a81549073ffffffffffffffffffffffffffffffffffffffff021916905582828260000191826112b4929190612a90565b5033600284846040516112c8929190612394565b908152602001604051809103902060006101000a81548173ffffffffffffffffffffffffffffffffffffffff021916908373ffffffffffffffffffffffffffffffffffffffff1602179055503373ffffffffffffffffffffffffffffffffffffffff167f52da81525a30dd3d35a802705ef9adc922d33de50a5b8efc24b69e440451e065848460405161135c92919061275f565b60405180910390a2505050565b6060600360008373ffffffffffffffffffffffffffffffffffffffff1673ffffffffffffffffffffffffffffffffffffffff16815260200190815260200160002080548060200260200160405190810160405280929190818152602001828054801561142a57602002820191906000526020600020905b8160009054906101000a900473ffffffffffffffffffffffffffffffffffffffff1673ffffffffffffffffffffffffffffffffffffffff16815260200190600101908083116113e0575b50505050509050919050565b3373ffffffffffffffffffffffffffffffffffffffff168173ffffffffffffffffffffffffffffffffffffffff16036114a4576040517f08c379a000000000000000000000000000000000000000000000000000000000815260040161149b90612bac565b60405180910390fd5b60006114b0338361172f565b905060008112156114f6576040517f08c379a00000000000000000000000000000000000000000000000000000000081526004016114ed90612c18565b60405180910390fd5b6115003382611870565b8173ffffffffffffffffffffffffffffffffffffffff163373ffffffffffffffffffffffffffffffffffffffff167fe7339343c6edff57f2d15278c419523844cea30ae5ee2146aa22cb9e3107dab760405160405180910390a35050565b6115666115e4565b600073ffffffffffffffffffffffffffffffffffffffff168173ffffffffffffffffffffffffffffffffffffffff16036115d85760006040517f1e4fbdf70000000000000000000000000000000000000000000000000000000081526004016115cf9190611e17565b60405180910390fd5b6115e18161166b565b50565b6115ec611b07565b73ffffffffffffffffffffffffffffffffffffffff1661160a610dae565b73ffffffffffffffffffffffffffffffffffffffff16146116695761162d611b07565b6040517f118cdaa70000000000000000000000000000000000000000000000000000000081526004016116609190611e17565b60405180910390fd5b565b60008060009054906101000a900473ffffffffffffffffffffffffffffffffffffffff169050816000806101000a81548173ffffffffffffffffffffffffffffffffffffffff021916908373ffffffffffffffffffffffffffffffffffffffff1602179055508173ffffffffffffffffffffffffffffffffffffffff168173ffffffffffffffffffffffffffffffffffffffff167f8be0079c531659141344cd1fd0a4f28419497f9722a3daafe3b4186f6b6457e060405160405180910390a35050565b600080600090505b600360008573ffffffffffffffffffffffffffffffffffffffff1673ffffffffffffffffffffffffffffffffffffffff16815260200190815260200160002080549050811015611845578273ffffffffffffffffffffffffffffffffffffffff16600360008673ffffffffffffffffffffffffffffffffffffffff1673ffffffffffffffffffffffffffffffffffffffff16815260200190815260200160002082815481106117e9576117e8612c38565b5b9060005260206000200160009054906101000a900473ffffffffffffffffffffffffffffffffffffffff1673ffffffffffffffffffffffffffffffffffffffff1603611838578091505061186a565b8080600101915050611737565b507fffffffffffffffffffffffffffffffffffffffffffffffffffffffffffffffff90505b92915050565b600360008373ffffffffffffffffffffffffffffffffffffffff1673ffffffffffffffffffffffffffffffffffffffff1681526020019081526020016000208054905081106118f4576040517f08c379a00000000000000000000000000000000000000000000000000000000081526004016118eb90612cb3565b60405180910390fd5b60008190505b6001600360008573ffffffffffffffffffffffffffffffffffffffff1673ffffffffffffffffffffffffffffffffffffffff168152602001908152602001600020805490506119499190612d02565b811015611a7e57600360008473ffffffffffffffffffffffffffffffffffffffff1673ffffffffffffffffffffffffffffffffffffffff16815260200190815260200160002060018261199c9190612d36565b815481106119ad576119ac612c38565b5b9060005260206000200160009054906101000a900473ffffffffffffffffffffffffffffffffffffffff16600360008573ffffffffffffffffffffffffffffffffffffffff1673ffffffffffffffffffffffffffffffffffffffff1681526020019081526020016000208281548110611a2957611a28612c38565b5b9060005260206000200160006101000a81548173ffffffffffffffffffffffffffffffffffffffff021916908373ffffffffffffffffffffffffffffffffffffffff16021790555080806001019150506118fa565b50600360008373ffffffffffffffffffffffffffffffffffffffff1673ffffffffffffffffffffffffffffffffffffffff168152602001908152602001600020805480611ace57611acd612d6a565b5b6001900381819060005260206000200160006101000a81549073ffffffffffffffffffffffffffffffffffffffff021916905590555050565b600033905090565b604051806060016040528060608152602001600081526020016000151581525090565b600080fd5b600080fd5b600073ffffffffffffffffffffffffffffffffffffffff82169050919050565b6000611b6782611b3c565b9050919050565b611b7781611b5c565b8114611b8257600080fd5b50565b600081359050611b9481611b6e565b92915050565b600060208284031215611bb057611baf611b32565b5b6000611bbe84828501611b85565b91505092915050565b6000819050919050565b611bda81611bc7565b8114611be557600080fd5b50565b600081359050611bf781611bd1565b92915050565b600060208284031215611c1357611c12611b32565b5b6000611c2184828501611be8565b91505092915050565b600081519050919050565b600082825260208201905092915050565b60005b83811015611c64578082015181840152602081019050611c49565b60008484015250505050565b6000601f19601f8301169050919050565b6000611c8c82611c2a565b611c968185611c35565b9350611ca6818560208601611c46565b611caf81611c70565b840191505092915050565b611cc381611bc7565b82525050565b60008115159050919050565b611cde81611cc9565b82525050565b60006060830160008301518482036000860152611d018282611c81565b9150506020830151611d166020860182611cba565b506040830151611d296040860182611cd5565b508091505092915050565b60006020820190508181036000830152611d4e8184611ce4565b905092915050565b600080fd5b600080fd5b600080fd5b60008083601f840112611d7b57611d7a611d56565b5b8235905067ffffffffffffffff811115611d9857611d97611d5b565b5b602083019150836001820283011115611db457611db3611d60565b5b9250929050565b60008060208385031215611dd257611dd1611b32565b5b600083013567ffffffffffffffff811115611df057611def611b37565b5b611dfc85828601611d65565b92509250509250929050565b611e1181611b5c565b82525050565b6000602082019050611e2c6000830184611e08565b92915050565b611e3b81611bc7565b82525050565b6000602082019050611e566000830184611e32565b92915050565b600081519050919050565b600082825260208201905092915050565b6000819050602082019050919050565b611e9181611b5c565b82525050565b6000611ea38383611e88565b60208301905092915050565b6000602082019050919050565b6000611ec782611e5c565b611ed18185611e67565b9350611edc83611e78565b8060005b83811015611f0d578151611ef48882611e97565b9750611eff83611eaf565b925050600181019050611ee0565b5085935050505092915050565b60006020820190508181036000830152611f348184611ebc565b905092915050565b7f4e487b7100000000000000000000000000000000000000000000000000000000600052602260045260246000fd5b60006002820490506001821680611f8357607f821691505b602082108103611f9657611f95611f3c565b5b50919050565b600082825260208201905092915050565b7f55736572206e6f7420726567697374657265642e000000000000000000000000600082015250565b6000611fe3601483611f9c565b9150611fee82611fad565b602082019050919050565b6000602082019050818103600083015261201281611fd6565b9050919050565b7f41766174617220636f6e7472616374206e6f74207365742e0000000000000000600082015250565b600061204f601883611f9c565b915061205a82612019565b602082019050919050565b6000602082019050818103600083015261207e81612042565b9050919050565b7f42616e6e65642075736572732063616e6e6f742075706461746520617661746160008201527f722e000000000000000000000000000000000000000000000000000000000000602082015250565b60006120e1602283611f9c565b91506120ec82612085565b604082019050919050565b60006020820190508181036000830152612110816120d4565b9050919050565b60008151905061212681611b6e565b92915050565b60006020828403121561214257612141611b32565b5b600061215084828501612117565b91505092915050565b7f4e6f7420746865206f776e6572206f6620746869732045524337323120746f6b60008201527f656e000000000000000000000000000000000000000000000000000000000000602082015250565b60006121b5602283611f9c565b91506121c082612159565b604082019050919050565b600060208201905081810360008301526121e4816121a8565b9050919050565b7f557365722069732062616e6e65642e0000000000000000000000000000000000600082015250565b6000612221600f83611f9c565b915061222c826121eb565b602082019050919050565b6000602082019050818103600083015261225081612214565b9050919050565b7f5573657220616c726561647920726567697374657265642e0000000000000000600082015250565b600061228d601883611f9c565b915061229882612257565b602082019050919050565b600060208201905081810360008301526122bc81612280565b9050919050565b7f557365726e616d65206d757374206265203420746f203135206368617261637460008201527f657273206c6f6e672e0000000000000000000000000000000000000000000000602082015250565b600061231f602983611f9c565b915061232a826122c3565b604082019050919050565b6000602082019050818103600083015261234e81612312565b9050919050565b600081905092915050565b82818337600083830152505050565b600061237b8385612355565b9350612388838584612360565b82840190509392505050565b60006123a182848661236f565b91508190509392505050565b7f557365726e616d6520616c72656164792074616b656e2e000000000000000000600082015250565b60006123e3601783611f9c565b91506123ee826123ad565b602082019050919050565b60006020820190508181036000830152612412816123d6565b9050919050565b7f42616e6e65642075736572732063616e6e6f742072656769737465722e000000600082015250565b600061244f601d83611f9c565b915061245a82612419565b602082019050919050565b6000602082019050818103600083015261247e81612442565b9050919050565b7f4e487b7100000000000000000000000000000000000000000000000000000000600052604160045260246000fd5b60008190508160005260206000209050919050565b60006020601f8301049050919050565b600082821b905092915050565b6000600883026125167fffffffffffffffffffffffffffffffffffffffffffffffffffffffffffffffff826124d9565b61252086836124d9565b95508019841693508086168417925050509392505050565b6000819050919050565b600061255d61255861255384611bc7565b612538565b611bc7565b9050919050565b6000819050919050565b61257783612542565b61258b61258382612564565b8484546124e6565b825550505050565b600090565b6125a0612593565b6125ab81848461256e565b505050565b5b818110156125cf576125c4600082612598565b6001810190506125b1565b5050565b601f821115612614576125e5816124b4565b6125ee846124c9565b810160208510156125fd578190505b612611612609856124c9565b8301826125b0565b50505b505050565b600082821c905092915050565b600061263760001984600802612619565b1980831691505092915050565b60006126508383612626565b9150826002028217905092915050565b61266982611c2a565b67ffffffffffffffff81111561268257612681612485565b5b61268c8254611f6b565b6126978282856125d3565b600060209050601f8311600181146126ca57600084156126b8578287015190505b6126c28582612644565b86555061272a565b601f1984166126d8866124b4565b60005b82811015612700578489015182556001820191506020850194506020810190506126db565b8683101561271d5784890151612719601f891682612626565b8355505b6001600288020188555050505b505050505050565b600061273e8385611f9c565b935061274b838584612360565b61275483611c70565b840190509392505050565b6000602082019050818103600083015261277a818486612732565b90509392505050565b7f41766174617220636f6e747261637420616464726573732063616e6e6f74206260008201527f6520746865207a65726f20616464726573732e00000000000000000000000000602082015250565b60006127df603383611f9c565b91506127ea82612783565b604082019050919050565b6000602082019050818103600083015261280e816127d2565b9050919050565b7f43616e6e6f7420666f6c6c6f7720796f757273656c662e000000000000000000600082015250565b600061284b601783611f9c565b915061285682612815565b602082019050919050565b6000602082019050818103600083015261287a8161283e565b9050919050565b7f42616e6e65642075736572732063616e6e6f7420666f6c6c6f772e0000000000600082015250565b60006128b7601b83611f9c565b91506128c282612881565b602082019050919050565b600060208201905081810360008301526128e6816128aa565b9050919050565b7f43616e6e6f7420666f6c6c6f7720612062616e6e656420757365722e00000000600082015250565b6000612923601c83611f9c565b915061292e826128ed565b602082019050919050565b6000602082019050818103600083015261295281612916565b9050919050565b7f42616e6e65642075736572732063616e6e6f74206368616e676520746865697260008201527f20757365726e616d652e00000000000000000000000000000000000000000000602082015250565b60006129b5602a83611f9c565b91506129c082612959565b604082019050919050565b600060208201905081810360008301526129e4816129a8565b9050919050565b600081546129f881611f6b565b612a028186612355565b94506001821660008114612a1d5760018114612a3257612a65565b60ff1983168652811515820286019350612a65565b612a3b856124b4565b60005b83811015612a5d57815481890152600182019150602081019050612a3e565b838801955050505b50505092915050565b6000612a7a82846129eb565b915081905092915050565b600082905092915050565b612a9a8383612a85565b67ffffffffffffffff811115612ab357612ab2612485565b5b612abd8254611f6b565b612ac88282856125d3565b6000601f831160018114612af75760008415612ae5578287013590505b612aef8582612644565b865550612b57565b601f198416612b05866124b4565b60005b82811015612b2d57848901358255600182019150602085019450602081019050612b08565b86831015612b4a5784890135612b46601f891682612626565b8355505b6001600288020188555050505b50505050505050565b7f43616e6e6f7420756e666f6c6c6f7720796f757273656c662e00000000000000600082015250565b6000612b96601983611f9c565b9150612ba182612b60565b602082019050919050565b60006020820190508181036000830152612bc581612b89565b9050919050565b7f55736572206e6f7420666f6c6c6f7765642e0000000000000000000000000000600082015250565b6000612c02601283611f9c565b9150612c0d82612bcc565b602082019050919050565b60006020820190508181036000830152612c3181612bf5565b9050919050565b7f4e487b7100000000000000000000000000000000000000000000000000000000600052603260045260246000fd5b7f496e646578206f7574206f6620626f756e64732e000000000000000000000000600082015250565b6000612c9d601483611f9c565b9150612ca882612c67565b602082019050919050565b60006020820190508181036000830152612ccc81612c90565b9050919050565b7f4e487b7100000000000000000000000000000000000000000000000000000000600052601160045260246000fd5b6000612d0d82611bc7565b9150612d1883611bc7565b9250828203905081811115612d3057612d2f612cd3565b5b92915050565b6000612d4182611bc7565b9150612d4c83611bc7565b9250828201905080821115612d6457612d63612cd3565b5b92915050565b7f4e487b7100000000000000000000000000000000000000000000000000000000600052603160045260246000fdfea26469706673582212204f979991e555694853940eb74d42fdad8a92196709a80a5edf7d2d260fcc8b5364736f6c63430008170033",
					"opcodes": "PUSH1 0x80 PUSH1 0x40 MSTORE CALLVALUE DUP1 ISZERO PUSH3 0x11 JUMPI PUSH1 0x0 DUP1 REVERT JUMPDEST POP CALLER PUSH1 0x0 PUSH20 0xFFFFFFFFFFFFFFFFFFFFFFFFFFFFFFFFFFFFFFFF AND DUP2 PUSH20 0xFFFFFFFFFFFFFFFFFFFFFFFFFFFFFFFFFFFFFFFF AND SUB PUSH3 0x88 JUMPI PUSH1 0x0 PUSH1 0x40 MLOAD PUSH32 0x1E4FBDF700000000000000000000000000000000000000000000000000000000 DUP2 MSTORE PUSH1 0x4 ADD PUSH3 0x7F SWAP2 SWAP1 PUSH3 0x1EB JUMP JUMPDEST PUSH1 0x40 MLOAD DUP1 SWAP2 SUB SWAP1 REVERT JUMPDEST PUSH3 0x99 DUP2 PUSH3 0xE2 PUSH1 0x20 SHL PUSH1 0x20 SHR JUMP JUMPDEST POP PUSH1 0x0 PUSH1 0x5 PUSH1 0x0 PUSH2 0x100 EXP DUP2 SLOAD DUP2 PUSH20 0xFFFFFFFFFFFFFFFFFFFFFFFFFFFFFFFFFFFFFFFF MUL NOT AND SWAP1 DUP4 PUSH20 0xFFFFFFFFFFFFFFFFFFFFFFFFFFFFFFFFFFFFFFFF AND MUL OR SWAP1 SSTORE POP PUSH3 0x208 JUMP JUMPDEST PUSH1 0x0 DUP1 PUSH1 0x0 SWAP1 SLOAD SWAP1 PUSH2 0x100 EXP SWAP1 DIV PUSH20 0xFFFFFFFFFFFFFFFFFFFFFFFFFFFFFFFFFFFFFFFF AND SWAP1 POP DUP2 PUSH1 0x0 DUP1 PUSH2 0x100 EXP DUP2 SLOAD DUP2 PUSH20 0xFFFFFFFFFFFFFFFFFFFFFFFFFFFFFFFFFFFFFFFF MUL NOT AND SWAP1 DUP4 PUSH20 0xFFFFFFFFFFFFFFFFFFFFFFFFFFFFFFFFFFFFFFFF AND MUL OR SWAP1 SSTORE POP DUP2 PUSH20 0xFFFFFFFFFFFFFFFFFFFFFFFFFFFFFFFFFFFFFFFF AND DUP2 PUSH20 0xFFFFFFFFFFFFFFFFFFFFFFFFFFFFFFFFFFFFFFFF AND PUSH32 0x8BE0079C531659141344CD1FD0A4F28419497F9722A3DAAFE3B4186F6B6457E0 PUSH1 0x40 MLOAD PUSH1 0x40 MLOAD DUP1 SWAP2 SUB SWAP1 LOG3 POP POP JUMP JUMPDEST PUSH1 0x0 PUSH20 0xFFFFFFFFFFFFFFFFFFFFFFFFFFFFFFFFFFFFFFFF DUP3 AND SWAP1 POP SWAP2 SWAP1 POP JUMP JUMPDEST PUSH1 0x0 PUSH3 0x1D3 DUP3 PUSH3 0x1A6 JUMP JUMPDEST SWAP1 POP SWAP2 SWAP1 POP JUMP JUMPDEST PUSH3 0x1E5 DUP2 PUSH3 0x1C6 JUMP JUMPDEST DUP3 MSTORE POP POP JUMP JUMPDEST PUSH1 0x0 PUSH1 0x20 DUP3 ADD SWAP1 POP PUSH3 0x202 PUSH1 0x0 DUP4 ADD DUP5 PUSH3 0x1DA JUMP JUMPDEST SWAP3 SWAP2 POP POP JUMP JUMPDEST PUSH2 0x2DCF DUP1 PUSH3 0x218 PUSH1 0x0 CODECOPY PUSH1 0x0 RETURN INVALID PUSH1 0x80 PUSH1 0x40 MSTORE CALLVALUE DUP1 ISZERO PUSH2 0x10 JUMPI PUSH1 0x0 DUP1 REVERT JUMPDEST POP PUSH1 0x4 CALLDATASIZE LT PUSH2 0xCF JUMPI PUSH1 0x0 CALLDATALOAD PUSH1 0xE0 SHR DUP1 PUSH4 0x8DA5CB5B GT PUSH2 0x8C JUMPI DUP1 PUSH4 0xBDAC6495 GT PUSH2 0x66 JUMPI DUP1 PUSH4 0xBDAC6495 EQ PUSH2 0x1D6 JUMPI DUP1 PUSH4 0xEB0EEB10 EQ PUSH2 0x1F2 JUMPI DUP1 PUSH4 0xF107CFCB EQ PUSH2 0x222 JUMPI DUP1 PUSH4 0xF2FDE38B EQ PUSH2 0x23E JUMPI PUSH2 0xCF JUMP JUMPDEST DUP1 PUSH4 0x8DA5CB5B EQ PUSH2 0x17E JUMPI DUP1 PUSH4 0x9BE572F6 EQ PUSH2 0x19C JUMPI DUP1 PUSH4 0xA70806F7 EQ PUSH2 0x1BA JUMPI PUSH2 0xCF JUMP JUMPDEST DUP1 PUSH4 0x10D86B1F EQ PUSH2 0xD4 JUMPI DUP1 PUSH4 0x499DFA6D EQ PUSH2 0xF0 JUMPI DUP1 PUSH4 0x6386C1C7 EQ PUSH2 0x10C JUMPI DUP1 PUSH4 0x704F1B94 EQ PUSH2 0x13C JUMPI DUP1 PUSH4 0x715018A6 EQ PUSH2 0x158 JUMPI DUP1 PUSH4 0x8C19EBC8 EQ PUSH2 0x162 JUMPI JUMPDEST PUSH1 0x0 DUP1 REVERT JUMPDEST PUSH2 0xEE PUSH1 0x4 DUP1 CALLDATASIZE SUB DUP2 ADD SWAP1 PUSH2 0xE9 SWAP2 SWAP1 PUSH2 0x1B9A JUMP JUMPDEST PUSH2 0x25A JUMP JUMPDEST STOP JUMPDEST PUSH2 0x10A PUSH1 0x4 DUP1 CALLDATASIZE SUB DUP2 ADD SWAP1 PUSH2 0x105 SWAP2 SWAP1 PUSH2 0x1BFD JUMP JUMPDEST PUSH2 0x393 JUMP JUMPDEST STOP JUMPDEST PUSH2 0x126 PUSH1 0x4 DUP1 CALLDATASIZE SUB DUP2 ADD SWAP1 PUSH2 0x121 SWAP2 SWAP1 PUSH2 0x1B9A JUMP JUMPDEST PUSH2 0x6E6 JUMP JUMPDEST PUSH1 0x40 MLOAD PUSH2 0x133 SWAP2 SWAP1 PUSH2 0x1D34 JUMP JUMPDEST PUSH1 0x40 MLOAD DUP1 SWAP2 SUB SWAP1 RETURN JUMPDEST PUSH2 0x156 PUSH1 0x4 DUP1 CALLDATASIZE SUB DUP2 ADD SWAP1 PUSH2 0x151 SWAP2 SWAP1 PUSH2 0x1DBB JUMP JUMPDEST PUSH2 0x886 JUMP JUMPDEST STOP JUMPDEST PUSH2 0x160 PUSH2 0xCA8 JUMP JUMPDEST STOP JUMPDEST PUSH2 0x17C PUSH1 0x4 DUP1 CALLDATASIZE SUB DUP2 ADD SWAP1 PUSH2 0x177 SWAP2 SWAP1 PUSH2 0x1B9A JUMP JUMPDEST PUSH2 0xCBC JUMP JUMPDEST STOP JUMPDEST PUSH2 0x186 PUSH2 0xDAE JUMP JUMPDEST PUSH1 0x40 MLOAD PUSH2 0x193 SWAP2 SWAP1 PUSH2 0x1E17 JUMP JUMPDEST PUSH1 0x40 MLOAD DUP1 SWAP2 SUB SWAP1 RETURN JUMPDEST PUSH2 0x1A4 PUSH2 0xDD7 JUMP JUMPDEST PUSH1 0x40 MLOAD PUSH2 0x1B1 SWAP2 SWAP1 PUSH2 0x1E41 JUMP JUMPDEST PUSH1 0x40 MLOAD DUP1 SWAP2 SUB SWAP1 RETURN JUMPDEST PUSH2 0x1D4 PUSH1 0x4 DUP1 CALLDATASIZE SUB DUP2 ADD SWAP1 PUSH2 0x1CF SWAP2 SWAP1 PUSH2 0x1B9A JUMP JUMPDEST PUSH2 0xDE4 JUMP JUMPDEST STOP JUMPDEST PUSH2 0x1F0 PUSH1 0x4 DUP1 CALLDATASIZE SUB DUP2 ADD SWAP1 PUSH2 0x1EB SWAP2 SWAP1 PUSH2 0x1DBB JUMP JUMPDEST PUSH2 0x106F JUMP JUMPDEST STOP JUMPDEST PUSH2 0x20C PUSH1 0x4 DUP1 CALLDATASIZE SUB DUP2 ADD SWAP1 PUSH2 0x207 SWAP2 SWAP1 PUSH2 0x1B9A JUMP JUMPDEST PUSH2 0x1369 JUMP JUMPDEST PUSH1 0x40 MLOAD PUSH2 0x219 SWAP2 SWAP1 PUSH2 0x1F1A JUMP JUMPDEST PUSH1 0x40 MLOAD DUP1 SWAP2 SUB SWAP1 RETURN JUMPDEST PUSH2 0x23C PUSH1 0x4 DUP1 CALLDATASIZE SUB DUP2 ADD SWAP1 PUSH2 0x237 SWAP2 SWAP1 PUSH2 0x1B9A JUMP JUMPDEST PUSH2 0x1436 JUMP JUMPDEST STOP JUMPDEST PUSH2 0x258 PUSH1 0x4 DUP1 CALLDATASIZE SUB DUP2 ADD SWAP1 PUSH2 0x253 SWAP2 SWAP1 PUSH2 0x1B9A JUMP JUMPDEST PUSH2 0x155E JUMP JUMPDEST STOP JUMPDEST PUSH2 0x262 PUSH2 0x15E4 JUMP JUMPDEST PUSH1 0x0 PUSH1 0x1 PUSH1 0x0 DUP4 PUSH20 0xFFFFFFFFFFFFFFFFFFFFFFFFFFFFFFFFFFFFFFFF AND PUSH20 0xFFFFFFFFFFFFFFFFFFFFFFFFFFFFFFFFFFFFFFFF AND DUP2 MSTORE PUSH1 0x20 ADD SWAP1 DUP2 MSTORE PUSH1 0x20 ADD PUSH1 0x0 KECCAK256 PUSH1 0x0 ADD DUP1 SLOAD PUSH2 0x2B1 SWAP1 PUSH2 0x1F6B JUMP JUMPDEST SWAP1 POP GT PUSH2 0x2F3 JUMPI PUSH1 0x40 MLOAD PUSH32 0x8C379A000000000000000000000000000000000000000000000000000000000 DUP2 MSTORE PUSH1 0x4 ADD PUSH2 0x2EA SWAP1 PUSH2 0x1FF9 JUMP JUMPDEST PUSH1 0x40 MLOAD DUP1 SWAP2 SUB SWAP1 REVERT JUMPDEST PUSH1 0x1 DUP1 PUSH1 0x0 DUP4 PUSH20 0xFFFFFFFFFFFFFFFFFFFFFFFFFFFFFFFFFFFFFFFF AND PUSH20 0xFFFFFFFFFFFFFFFFFFFFFFFFFFFFFFFFFFFFFFFF AND DUP2 MSTORE PUSH1 0x20 ADD SWAP1 DUP2 MSTORE PUSH1 0x20 ADD PUSH1 0x0 KECCAK256 PUSH1 0x2 ADD PUSH1 0x0 PUSH2 0x100 EXP DUP2 SLOAD DUP2 PUSH1 0xFF MUL NOT AND SWAP1 DUP4 ISZERO ISZERO MUL OR SWAP1 SSTORE POP DUP1 PUSH20 0xFFFFFFFFFFFFFFFFFFFFFFFFFFFFFFFFFFFFFFFF AND PUSH32 0x8F411AD66FD8225D9C3C7C72FD2429139958913FA5C5114DCE1C984E069A4F69 PUSH1 0x40 MLOAD PUSH1 0x40 MLOAD DUP1 SWAP2 SUB SWAP1 LOG2 POP JUMP JUMPDEST PUSH1 0x0 PUSH20 0xFFFFFFFFFFFFFFFFFFFFFFFFFFFFFFFFFFFFFFFF AND PUSH1 0x5 PUSH1 0x0 SWAP1 SLOAD SWAP1 PUSH2 0x100 EXP SWAP1 DIV PUSH20 0xFFFFFFFFFFFFFFFFFFFFFFFFFFFFFFFFFFFFFFFF AND PUSH20 0xFFFFFFFFFFFFFFFFFFFFFFFFFFFFFFFFFFFFFFFF AND SUB PUSH2 0x424 JUMPI PUSH1 0x40 MLOAD PUSH32 0x8C379A000000000000000000000000000000000000000000000000000000000 DUP2 MSTORE PUSH1 0x4 ADD PUSH2 0x41B SWAP1 PUSH2 0x2065 JUMP JUMPDEST PUSH1 0x40 MLOAD DUP1 SWAP2 SUB SWAP1 REVERT JUMPDEST PUSH1 0x0 PUSH1 0x1 PUSH1 0x0 CALLER PUSH20 0xFFFFFFFFFFFFFFFFFFFFFFFFFFFFFFFFFFFFFFFF AND PUSH20 0xFFFFFFFFFFFFFFFFFFFFFFFFFFFFFFFFFFFFFFFF AND DUP2 MSTORE PUSH1 0x20 ADD SWAP1 DUP2 MSTORE PUSH1 0x20 ADD PUSH1 0x0 KECCAK256 PUSH1 0x0 ADD DUP1 SLOAD PUSH2 0x473 SWAP1 PUSH2 0x1F6B JUMP JUMPDEST SWAP1 POP GT PUSH2 0x4B5 JUMPI PUSH1 0x40 MLOAD PUSH32 0x8C379A000000000000000000000000000000000000000000000000000000000 DUP2 MSTORE PUSH1 0x4 ADD PUSH2 0x4AC SWAP1 PUSH2 0x1FF9 JUMP JUMPDEST PUSH1 0x40 MLOAD DUP1 SWAP2 SUB SWAP1 REVERT JUMPDEST PUSH1 0x1 PUSH1 0x0 CALLER PUSH20 0xFFFFFFFFFFFFFFFFFFFFFFFFFFFFFFFFFFFFFFFF AND PUSH20 0xFFFFFFFFFFFFFFFFFFFFFFFFFFFFFFFFFFFFFFFF AND DUP2 MSTORE PUSH1 0x20 ADD SWAP1 DUP2 MSTORE PUSH1 0x20 ADD PUSH1 0x0 KECCAK256 PUSH1 0x2 ADD PUSH1 0x0 SWAP1 SLOAD SWAP1 PUSH2 0x100 EXP SWAP1 DIV PUSH1 0xFF AND ISZERO PUSH2 0x545 JUMPI PUSH1 0x40 MLOAD PUSH32 0x8C379A000000000000000000000000000000000000000000000000000000000 DUP2 MSTORE PUSH1 0x4 ADD PUSH2 0x53C SWAP1 PUSH2 0x20F7 JUMP JUMPDEST PUSH1 0x40 MLOAD DUP1 SWAP2 SUB SWAP1 REVERT JUMPDEST CALLER PUSH20 0xFFFFFFFFFFFFFFFFFFFFFFFFFFFFFFFFFFFFFFFF AND PUSH1 0x5 PUSH1 0x0 SWAP1 SLOAD SWAP1 PUSH2 0x100 EXP SWAP1 DIV PUSH20 0xFFFFFFFFFFFFFFFFFFFFFFFFFFFFFFFFFFFFFFFF AND PUSH20 0xFFFFFFFFFFFFFFFFFFFFFFFFFFFFFFFFFFFFFFFF AND PUSH4 0x6352211E DUP4 PUSH1 0x40 MLOAD DUP3 PUSH4 0xFFFFFFFF AND PUSH1 0xE0 SHL DUP2 MSTORE PUSH1 0x4 ADD PUSH2 0x5B7 SWAP2 SWAP1 PUSH2 0x1E41 JUMP JUMPDEST PUSH1 0x20 PUSH1 0x40 MLOAD DUP1 DUP4 SUB DUP2 DUP7 GAS STATICCALL ISZERO DUP1 ISZERO PUSH2 0x5D4 JUMPI RETURNDATASIZE PUSH1 0x0 DUP1 RETURNDATACOPY RETURNDATASIZE PUSH1 0x0 REVERT JUMPDEST POP POP POP POP PUSH1 0x40 MLOAD RETURNDATASIZE PUSH1 0x1F NOT PUSH1 0x1F DUP3 ADD AND DUP3 ADD DUP1 PUSH1 0x40 MSTORE POP DUP2 ADD SWAP1 PUSH2 0x5F8 SWAP2 SWAP1 PUSH2 0x212C JUMP JUMPDEST PUSH20 0xFFFFFFFFFFFFFFFFFFFFFFFFFFFFFFFFFFFFFFFF AND EQ PUSH2 0x64E JUMPI PUSH1 0x40 MLOAD PUSH32 0x8C379A000000000000000000000000000000000000000000000000000000000 DUP2 MSTORE PUSH1 0x4 ADD PUSH2 0x645 SWAP1 PUSH2 0x21CB JUMP JUMPDEST PUSH1 0x40 MLOAD DUP1 SWAP2 SUB SWAP1 REVERT JUMPDEST DUP1 PUSH1 0x1 PUSH1 0x0 CALLER PUSH20 0xFFFFFFFFFFFFFFFFFFFFFFFFFFFFFFFFFFFFFFFF AND PUSH20 0xFFFFFFFFFFFFFFFFFFFFFFFFFFFFFFFFFFFFFFFF AND DUP2 MSTORE PUSH1 0x20 ADD SWAP1 DUP2 MSTORE PUSH1 0x20 ADD PUSH1 0x0 KECCAK256 PUSH1 0x1 ADD DUP2 SWAP1 SSTORE POP CALLER PUSH20 0xFFFFFFFFFFFFFFFFFFFFFFFFFFFFFFFFFFFFFFFF AND PUSH32 0x1E5F2D12DD068942F2613E78BB14B0B0AA33962DADFC607A6994F613FCB0BB37 DUP3 PUSH1 0x40 MLOAD PUSH2 0x6DB SWAP2 SWAP1 PUSH2 0x1E41 JUMP JUMPDEST PUSH1 0x40 MLOAD DUP1 SWAP2 SUB SWAP1 LOG2 POP JUMP JUMPDEST PUSH2 0x6EE PUSH2 0x1B0F JUMP JUMPDEST PUSH1 0x1 PUSH1 0x0 DUP4 PUSH20 0xFFFFFFFFFFFFFFFFFFFFFFFFFFFFFFFFFFFFFFFF AND PUSH20 0xFFFFFFFFFFFFFFFFFFFFFFFFFFFFFFFFFFFFFFFF AND DUP2 MSTORE PUSH1 0x20 ADD SWAP1 DUP2 MSTORE PUSH1 0x20 ADD PUSH1 0x0 KECCAK256 PUSH1 0x2 ADD PUSH1 0x0 SWAP1 SLOAD SWAP1 PUSH2 0x100 EXP SWAP1 DIV PUSH1 0xFF AND ISZERO PUSH2 0x77E JUMPI PUSH1 0x40 MLOAD PUSH32 0x8C379A000000000000000000000000000000000000000000000000000000000 DUP2 MSTORE PUSH1 0x4 ADD PUSH2 0x775 SWAP1 PUSH2 0x2237 JUMP JUMPDEST PUSH1 0x40 MLOAD DUP1 SWAP2 SUB SWAP1 REVERT JUMPDEST PUSH1 0x1 PUSH1 0x0 DUP4 PUSH20 0xFFFFFFFFFFFFFFFFFFFFFFFFFFFFFFFFFFFFFFFF AND PUSH20 0xFFFFFFFFFFFFFFFFFFFFFFFFFFFFFFFFFFFFFFFF AND DUP2 MSTORE PUSH1 0x20 ADD SWAP1 DUP2 MSTORE PUSH1 0x20 ADD PUSH1 0x0 KECCAK256 PUSH1 0x40 MLOAD DUP1 PUSH1 0x60 ADD PUSH1 0x40 MSTORE SWAP1 DUP2 PUSH1 0x0 DUP3 ADD DUP1 SLOAD PUSH2 0x7D8 SWAP1 PUSH2 0x1F6B JUMP JUMPDEST DUP1 PUSH1 0x1F ADD PUSH1 0x20 DUP1 SWAP2 DIV MUL PUSH1 0x20 ADD PUSH1 0x40 MLOAD SWAP1 DUP2 ADD PUSH1 0x40 MSTORE DUP1 SWAP3 SWAP2 SWAP1 DUP2 DUP2 MSTORE PUSH1 0x20 ADD DUP3 DUP1 SLOAD PUSH2 0x804 SWAP1 PUSH2 0x1F6B JUMP JUMPDEST DUP1 ISZERO PUSH2 0x851 JUMPI DUP1 PUSH1 0x1F LT PUSH2 0x826 JUMPI PUSH2 0x100 DUP1 DUP4 SLOAD DIV MUL DUP4 MSTORE SWAP2 PUSH1 0x20 ADD SWAP2 PUSH2 0x851 JUMP JUMPDEST DUP3 ADD SWAP2 SWAP1 PUSH1 0x0 MSTORE PUSH1 0x20 PUSH1 0x0 KECCAK256 SWAP1 JUMPDEST DUP2 SLOAD DUP2 MSTORE SWAP1 PUSH1 0x1 ADD SWAP1 PUSH1 0x20 ADD DUP1 DUP4 GT PUSH2 0x834 JUMPI DUP3 SWAP1 SUB PUSH1 0x1F AND DUP3 ADD SWAP2 JUMPDEST POP POP POP POP POP DUP2 MSTORE PUSH1 0x20 ADD PUSH1 0x1 DUP3 ADD SLOAD DUP2 MSTORE PUSH1 0x20 ADD PUSH1 0x2 DUP3 ADD PUSH1 0x0 SWAP1 SLOAD SWAP1 PUSH2 0x100 EXP SWAP1 DIV PUSH1 0xFF AND ISZERO ISZERO ISZERO ISZERO DUP2 MSTORE POP POP SWAP1 POP SWAP2 SWAP1 POP JUMP JUMPDEST PUSH1 0x0 PUSH1 0x1 PUSH1 0x0 CALLER PUSH20 0xFFFFFFFFFFFFFFFFFFFFFFFFFFFFFFFFFFFFFFFF AND PUSH20 0xFFFFFFFFFFFFFFFFFFFFFFFFFFFFFFFFFFFFFFFF AND DUP2 MSTORE PUSH1 0x20 ADD SWAP1 DUP2 MSTORE PUSH1 0x20 ADD PUSH1 0x0 KECCAK256 PUSH1 0x0 ADD DUP1 SLOAD PUSH2 0x8D5 SWAP1 PUSH2 0x1F6B JUMP JUMPDEST SWAP1 POP EQ PUSH2 0x917 JUMPI PUSH1 0x40 MLOAD PUSH32 0x8C379A000000000000000000000000000000000000000000000000000000000 DUP2 MSTORE PUSH1 0x4 ADD PUSH2 0x90E SWAP1 PUSH2 0x22A3 JUMP JUMPDEST PUSH1 0x40 MLOAD DUP1 SWAP2 SUB SWAP1 REVERT JUMPDEST PUSH1 0x4 DUP3 DUP3 SWAP1 POP LT ISZERO DUP1 ISZERO PUSH2 0x92F JUMPI POP PUSH1 0xF DUP3 DUP3 SWAP1 POP GT ISZERO JUMPDEST PUSH2 0x96E JUMPI PUSH1 0x40 MLOAD PUSH32 0x8C379A000000000000000000000000000000000000000000000000000000000 DUP2 MSTORE PUSH1 0x4 ADD PUSH2 0x965 SWAP1 PUSH2 0x2335 JUMP JUMPDEST PUSH1 0x40 MLOAD DUP1 SWAP2 SUB SWAP1 REVERT JUMPDEST PUSH1 0x0 PUSH20 0xFFFFFFFFFFFFFFFFFFFFFFFFFFFFFFFFFFFFFFFF AND PUSH1 0x2 DUP4 DUP4 PUSH1 0x40 MLOAD PUSH2 0x998 SWAP3 SWAP2 SWAP1 PUSH2 0x2394 JUMP JUMPDEST SWAP1 DUP2 MSTORE PUSH1 0x20 ADD PUSH1 0x40 MLOAD DUP1 SWAP2 SUB SWAP1 KECCAK256 PUSH1 0x0 SWAP1 SLOAD SWAP1 PUSH2 0x100 EXP SWAP1 DIV PUSH20 0xFFFFFFFFFFFFFFFFFFFFFFFFFFFFFFFFFFFFFFFF AND PUSH20 0xFFFFFFFFFFFFFFFFFFFFFFFFFFFFFFFFFFFFFFFF AND EQ PUSH2 0xA1D JUMPI PUSH1 0x40 MLOAD PUSH32 0x8C379A000000000000000000000000000000000000000000000000000000000 DUP2 MSTORE PUSH1 0x4 ADD PUSH2 0xA14 SWAP1 PUSH2 0x23F9 JUMP JUMPDEST PUSH1 0x40 MLOAD DUP1 SWAP2 SUB SWAP1 REVERT JUMPDEST PUSH1 0x1 PUSH1 0x0 CALLER PUSH20 0xFFFFFFFFFFFFFFFFFFFFFFFFFFFFFFFFFFFFFFFF AND PUSH20 0xFFFFFFFFFFFFFFFFFFFFFFFFFFFFFFFFFFFFFFFF AND DUP2 MSTORE PUSH1 0x20 ADD SWAP1 DUP2 MSTORE PUSH1 0x20 ADD PUSH1 0x0 KECCAK256 PUSH1 0x2 ADD PUSH1 0x0 SWAP1 SLOAD SWAP1 PUSH2 0x100 EXP SWAP1 DIV PUSH1 0xFF AND ISZERO PUSH2 0xAAD JUMPI PUSH1 0x40 MLOAD PUSH32 0x8C379A000000000000000000000000000000000000000000000000000000000 DUP2 MSTORE PUSH1 0x4 ADD PUSH2 0xAA4 SWAP1 PUSH2 0x2465 JUMP JUMPDEST PUSH1 0x40 MLOAD DUP1 SWAP2 SUB SWAP1 REVERT JUMPDEST PUSH1 0x40 MLOAD DUP1 PUSH1 0x60 ADD PUSH1 0x40 MSTORE DUP1 DUP4 DUP4 DUP1 DUP1 PUSH1 0x1F ADD PUSH1 0x20 DUP1 SWAP2 DIV MUL PUSH1 0x20 ADD PUSH1 0x40 MLOAD SWAP1 DUP2 ADD PUSH1 0x40 MSTORE DUP1 SWAP4 SWAP3 SWAP2 SWAP1 DUP2 DUP2 MSTORE PUSH1 0x20 ADD DUP4 DUP4 DUP1 DUP3 DUP5 CALLDATACOPY PUSH1 0x0 DUP2 DUP5 ADD MSTORE PUSH1 0x1F NOT PUSH1 0x1F DUP3 ADD AND SWAP1 POP DUP1 DUP4 ADD SWAP3 POP POP POP POP POP POP POP DUP2 MSTORE PUSH1 0x20 ADD PUSH1 0x0 DUP2 MSTORE PUSH1 0x20 ADD PUSH1 0x0 ISZERO ISZERO DUP2 MSTORE POP PUSH1 0x1 PUSH1 0x0 CALLER PUSH20 0xFFFFFFFFFFFFFFFFFFFFFFFFFFFFFFFFFFFFFFFF AND PUSH20 0xFFFFFFFFFFFFFFFFFFFFFFFFFFFFFFFFFFFFFFFF AND DUP2 MSTORE PUSH1 0x20 ADD SWAP1 DUP2 MSTORE PUSH1 0x20 ADD PUSH1 0x0 KECCAK256 PUSH1 0x0 DUP3 ADD MLOAD DUP2 PUSH1 0x0 ADD SWAP1 DUP2 PUSH2 0xB64 SWAP2 SWAP1 PUSH2 0x2660 JUMP JUMPDEST POP PUSH1 0x20 DUP3 ADD MLOAD DUP2 PUSH1 0x1 ADD SSTORE PUSH1 0x40 DUP3 ADD MLOAD DUP2 PUSH1 0x2 ADD PUSH1 0x0 PUSH2 0x100 EXP DUP2 SLOAD DUP2 PUSH1 0xFF MUL NOT AND SWAP1 DUP4 ISZERO ISZERO MUL OR SWAP1 SSTORE POP SWAP1 POP POP CALLER PUSH1 0x2 DUP4 DUP4 PUSH1 0x40 MLOAD PUSH2 0xBA5 SWAP3 SWAP2 SWAP1 PUSH2 0x2394 JUMP JUMPDEST SWAP1 DUP2 MSTORE PUSH1 0x20 ADD PUSH1 0x40 MLOAD DUP1 SWAP2 SUB SWAP1 KECCAK256 PUSH1 0x0 PUSH2 0x100 EXP DUP2 SLOAD DUP2 PUSH20 0xFFFFFFFFFFFFFFFFFFFFFFFFFFFFFFFFFFFFFFFF MUL NOT AND SWAP1 DUP4 PUSH20 0xFFFFFFFFFFFFFFFFFFFFFFFFFFFFFFFFFFFFFFFF AND MUL OR SWAP1 SSTORE POP PUSH1 0x4 CALLER SWAP1 DUP1 PUSH1 0x1 DUP2 SLOAD ADD DUP1 DUP3 SSTORE DUP1 SWAP2 POP POP PUSH1 0x1 SWAP1 SUB SWAP1 PUSH1 0x0 MSTORE PUSH1 0x20 PUSH1 0x0 KECCAK256 ADD PUSH1 0x0 SWAP1 SWAP2 SWAP1 SWAP2 SWAP1 SWAP2 PUSH2 0x100 EXP DUP2 SLOAD DUP2 PUSH20 0xFFFFFFFFFFFFFFFFFFFFFFFFFFFFFFFFFFFFFFFF MUL NOT AND SWAP1 DUP4 PUSH20 0xFFFFFFFFFFFFFFFFFFFFFFFFFFFFFFFFFFFFFFFF AND MUL OR SWAP1 SSTORE POP CALLER PUSH20 0xFFFFFFFFFFFFFFFFFFFFFFFFFFFFFFFFFFFFFFFF AND PUSH32 0x48CAC28AD4DC618E15F4C2DD5E97751182F166DE97B25618318B2112AA951A2F DUP4 DUP4 PUSH1 0x40 MLOAD PUSH2 0xC9C SWAP3 SWAP2 SWAP1 PUSH2 0x275F JUMP JUMPDEST PUSH1 0x40 MLOAD DUP1 SWAP2 SUB SWAP1 LOG2 POP POP JUMP JUMPDEST PUSH2 0xCB0 PUSH2 0x15E4 JUMP JUMPDEST PUSH2 0xCBA PUSH1 0x0 PUSH2 0x166B JUMP JUMPDEST JUMP JUMPDEST PUSH2 0xCC4 PUSH2 0x15E4 JUMP JUMPDEST PUSH1 0x0 PUSH20 0xFFFFFFFFFFFFFFFFFFFFFFFFFFFFFFFFFFFFFFFF AND DUP2 PUSH20 0xFFFFFFFFFFFFFFFFFFFFFFFFFFFFFFFFFFFFFFFF AND SUB PUSH2 0xD33 JUMPI PUSH1 0x40 MLOAD PUSH32 0x8C379A000000000000000000000000000000000000000000000000000000000 DUP2 MSTORE PUSH1 0x4 ADD PUSH2 0xD2A SWAP1 PUSH2 0x27F5 JUMP JUMPDEST PUSH1 0x40 MLOAD DUP1 SWAP2 SUB SWAP1 REVERT JUMPDEST DUP1 PUSH1 0x5 PUSH1 0x0 PUSH2 0x100 EXP DUP2 SLOAD DUP2 PUSH20 0xFFFFFFFFFFFFFFFFFFFFFFFFFFFFFFFFFFFFFFFF MUL NOT AND SWAP1 DUP4 PUSH20 0xFFFFFFFFFFFFFFFFFFFFFFFFFFFFFFFFFFFFFFFF AND MUL OR SWAP1 SSTORE POP PUSH32 0xF35AFDAC17EAEC488E5AC0282B73BBA562CF0C4A2349E00F79528507BA792DA9 DUP2 PUSH1 0x40 MLOAD PUSH2 0xDA3 SWAP2 SWAP1 PUSH2 0x1E17 JUMP JUMPDEST PUSH1 0x40 MLOAD DUP1 SWAP2 SUB SWAP1 LOG1 POP JUMP JUMPDEST PUSH1 0x0 DUP1 PUSH1 0x0 SWAP1 SLOAD SWAP1 PUSH2 0x100 EXP SWAP1 DIV PUSH20 0xFFFFFFFFFFFFFFFFFFFFFFFFFFFFFFFFFFFFFFFF AND SWAP1 POP SWAP1 JUMP JUMPDEST PUSH1 0x0 PUSH1 0x4 DUP1 SLOAD SWAP1 POP SWAP1 POP SWAP1 JUMP JUMPDEST CALLER PUSH20 0xFFFFFFFFFFFFFFFFFFFFFFFFFFFFFFFFFFFFFFFF AND DUP2 PUSH20 0xFFFFFFFFFFFFFFFFFFFFFFFFFFFFFFFFFFFFFFFF AND SUB PUSH2 0xE52 JUMPI PUSH1 0x40 MLOAD PUSH32 0x8C379A000000000000000000000000000000000000000000000000000000000 DUP2 MSTORE PUSH1 0x4 ADD PUSH2 0xE49 SWAP1 PUSH2 0x2861 JUMP JUMPDEST PUSH1 0x40 MLOAD DUP1 SWAP2 SUB SWAP1 REVERT JUMPDEST PUSH1 0x1 PUSH1 0x0 CALLER PUSH20 0xFFFFFFFFFFFFFFFFFFFFFFFFFFFFFFFFFFFFFFFF AND PUSH20 0xFFFFFFFFFFFFFFFFFFFFFFFFFFFFFFFFFFFFFFFF AND DUP2 MSTORE PUSH1 0x20 ADD SWAP1 DUP2 MSTORE PUSH1 0x20 ADD PUSH1 0x0 KECCAK256 PUSH1 0x2 ADD PUSH1 0x0 SWAP1 SLOAD SWAP1 PUSH2 0x100 EXP SWAP1 DIV PUSH1 0xFF AND ISZERO PUSH2 0xEE2 JUMPI PUSH1 0x40 MLOAD PUSH32 0x8C379A000000000000000000000000000000000000000000000000000000000 DUP2 MSTORE PUSH1 0x4 ADD PUSH2 0xED9 SWAP1 PUSH2 0x28CD JUMP JUMPDEST PUSH1 0x40 MLOAD DUP1 SWAP2 SUB SWAP1 REVERT JUMPDEST PUSH1 0x1 PUSH1 0x0 DUP3 PUSH20 0xFFFFFFFFFFFFFFFFFFFFFFFFFFFFFFFFFFFFFFFF AND PUSH20 0xFFFFFFFFFFFFFFFFFFFFFFFFFFFFFFFFFFFFFFFF AND DUP2 MSTORE PUSH1 0x20 ADD SWAP1 DUP2 MSTORE PUSH1 0x20 ADD PUSH1 0x0 KECCAK256 PUSH1 0x2 ADD PUSH1 0x0 SWAP1 SLOAD SWAP1 PUSH2 0x100 EXP SWAP1 DIV PUSH1 0xFF AND ISZERO PUSH2 0xF72 JUMPI PUSH1 0x40 MLOAD PUSH32 0x8C379A000000000000000000000000000000000000000000000000000000000 DUP2 MSTORE PUSH1 0x4 ADD PUSH2 0xF69 SWAP1 PUSH2 0x2939 JUMP JUMPDEST PUSH1 0x40 MLOAD DUP1 SWAP2 SUB SWAP1 REVERT JUMPDEST PUSH1 0x3 PUSH1 0x0 CALLER PUSH20 0xFFFFFFFFFFFFFFFFFFFFFFFFFFFFFFFFFFFFFFFF AND PUSH20 0xFFFFFFFFFFFFFFFFFFFFFFFFFFFFFFFFFFFFFFFF AND DUP2 MSTORE PUSH1 0x20 ADD SWAP1 DUP2 MSTORE PUSH1 0x20 ADD PUSH1 0x0 KECCAK256 DUP2 SWAP1 DUP1 PUSH1 0x1 DUP2 SLOAD ADD DUP1 DUP3 SSTORE DUP1 SWAP2 POP POP PUSH1 0x1 SWAP1 SUB SWAP1 PUSH1 0x0 MSTORE PUSH1 0x20 PUSH1 0x0 KECCAK256 ADD PUSH1 0x0 SWAP1 SWAP2 SWAP1 SWAP2 SWAP1 SWAP2 PUSH2 0x100 EXP DUP2 SLOAD DUP2 PUSH20 0xFFFFFFFFFFFFFFFFFFFFFFFFFFFFFFFFFFFFFFFF MUL NOT AND SWAP1 DUP4 PUSH20 0xFFFFFFFFFFFFFFFFFFFFFFFFFFFFFFFFFFFFFFFF AND MUL OR SWAP1 SSTORE POP DUP1 PUSH20 0xFFFFFFFFFFFFFFFFFFFFFFFFFFFFFFFFFFFFFFFF AND CALLER PUSH20 0xFFFFFFFFFFFFFFFFFFFFFFFFFFFFFFFFFFFFFFFF AND PUSH32 0x30B3435B456F45779984DDFA456115EE4C20D9E446979B1B9E90DBB7E12B90B7 PUSH1 0x40 MLOAD PUSH1 0x40 MLOAD DUP1 SWAP2 SUB SWAP1 LOG3 POP JUMP JUMPDEST PUSH1 0x0 PUSH1 0x1 PUSH1 0x0 CALLER PUSH20 0xFFFFFFFFFFFFFFFFFFFFFFFFFFFFFFFFFFFFFFFF AND PUSH20 0xFFFFFFFFFFFFFFFFFFFFFFFFFFFFFFFFFFFFFFFF AND DUP2 MSTORE PUSH1 0x20 ADD SWAP1 DUP2 MSTORE PUSH1 0x20 ADD PUSH1 0x0 KECCAK256 SWAP1 POP PUSH1 0x0 DUP2 PUSH1 0x0 ADD DUP1 SLOAD PUSH2 0x10C3 SWAP1 PUSH2 0x1F6B JUMP JUMPDEST SWAP1 POP GT PUSH2 0x1105 JUMPI PUSH1 0x40 MLOAD PUSH32 0x8C379A000000000000000000000000000000000000000000000000000000000 DUP2 MSTORE PUSH1 0x4 ADD PUSH2 0x10FC SWAP1 PUSH2 0x1FF9 JUMP JUMPDEST PUSH1 0x40 MLOAD DUP1 SWAP2 SUB SWAP1 REVERT JUMPDEST PUSH1 0x4 DUP4 DUP4 SWAP1 POP LT ISZERO DUP1 ISZERO PUSH2 0x111D JUMPI POP PUSH1 0xF DUP4 DUP4 SWAP1 POP GT ISZERO JUMPDEST PUSH2 0x115C JUMPI PUSH1 0x40 MLOAD PUSH32 0x8C379A000000000000000000000000000000000000000000000000000000000 DUP2 MSTORE PUSH1 0x4 ADD PUSH2 0x1153 SWAP1 PUSH2 0x2335 JUMP JUMPDEST PUSH1 0x40 MLOAD DUP1 SWAP2 SUB SWAP1 REVERT JUMPDEST PUSH1 0x0 PUSH20 0xFFFFFFFFFFFFFFFFFFFFFFFFFFFFFFFFFFFFFFFF AND PUSH1 0x2 DUP5 DUP5 PUSH1 0x40 MLOAD PUSH2 0x1186 SWAP3 SWAP2 SWAP1 PUSH2 0x2394 JUMP JUMPDEST SWAP1 DUP2 MSTORE PUSH1 0x20 ADD PUSH1 0x40 MLOAD DUP1 SWAP2 SUB SWAP1 KECCAK256 PUSH1 0x0 SWAP1 SLOAD SWAP1 PUSH2 0x100 EXP SWAP1 DIV PUSH20 0xFFFFFFFFFFFFFFFFFFFFFFFFFFFFFFFFFFFFFFFF AND PUSH20 0xFFFFFFFFFFFFFFFFFFFFFFFFFFFFFFFFFFFFFFFF AND EQ PUSH2 0x120B JUMPI PUSH1 0x40 MLOAD PUSH32 0x8C379A000000000000000000000000000000000000000000000000000000000 DUP2 MSTORE PUSH1 0x4 ADD PUSH2 0x1202 SWAP1 PUSH2 0x23F9 JUMP JUMPDEST PUSH1 0x40 MLOAD DUP1 SWAP2 SUB SWAP1 REVERT JUMPDEST DUP1 PUSH1 0x2 ADD PUSH1 0x0 SWAP1 SLOAD SWAP1 PUSH2 0x100 EXP SWAP1 DIV PUSH1 0xFF AND ISZERO PUSH2 0x125D JUMPI PUSH1 0x40 MLOAD PUSH32 0x8C379A000000000000000000000000000000000000000000000000000000000 DUP2 MSTORE PUSH1 0x4 ADD PUSH2 0x1254 SWAP1 PUSH2 0x29CB JUMP JUMPDEST PUSH1 0x40 MLOAD DUP1 SWAP2 SUB SWAP1 REVERT JUMPDEST PUSH1 0x2 DUP2 PUSH1 0x0 ADD PUSH1 0x40 MLOAD PUSH2 0x1270 SWAP2 SWAP1 PUSH2 0x2A6E JUMP JUMPDEST SWAP1 DUP2 MSTORE PUSH1 0x20 ADD PUSH1 0x40 MLOAD DUP1 SWAP2 SUB SWAP1 KECCAK256 PUSH1 0x0 PUSH2 0x100 EXP DUP2 SLOAD SWAP1 PUSH20 0xFFFFFFFFFFFFFFFFFFFFFFFFFFFFFFFFFFFFFFFF MUL NOT AND SWAP1 SSTORE DUP3 DUP3 DUP3 PUSH1 0x0 ADD SWAP2 DUP3 PUSH2 0x12B4 SWAP3 SWAP2 SWAP1 PUSH2 0x2A90 JUMP JUMPDEST POP CALLER PUSH1 0x2 DUP5 DUP5 PUSH1 0x40 MLOAD PUSH2 0x12C8 SWAP3 SWAP2 SWAP1 PUSH2 0x2394 JUMP JUMPDEST SWAP1 DUP2 MSTORE PUSH1 0x20 ADD PUSH1 0x40 MLOAD DUP1 SWAP2 SUB SWAP1 KECCAK256 PUSH1 0x0 PUSH2 0x100 EXP DUP2 SLOAD DUP2 PUSH20 0xFFFFFFFFFFFFFFFFFFFFFFFFFFFFFFFFFFFFFFFF MUL NOT AND SWAP1 DUP4 PUSH20 0xFFFFFFFFFFFFFFFFFFFFFFFFFFFFFFFFFFFFFFFF AND MUL OR SWAP1 SSTORE POP CALLER PUSH20 0xFFFFFFFFFFFFFFFFFFFFFFFFFFFFFFFFFFFFFFFF AND PUSH32 0x52DA81525A30DD3D35A802705EF9ADC922D33DE50A5B8EFC24B69E440451E065 DUP5 DUP5 PUSH1 0x40 MLOAD PUSH2 0x135C SWAP3 SWAP2 SWAP1 PUSH2 0x275F JUMP JUMPDEST PUSH1 0x40 MLOAD DUP1 SWAP2 SUB SWAP1 LOG2 POP POP POP JUMP JUMPDEST PUSH1 0x60 PUSH1 0x3 PUSH1 0x0 DUP4 PUSH20 0xFFFFFFFFFFFFFFFFFFFFFFFFFFFFFFFFFFFFFFFF AND PUSH20 0xFFFFFFFFFFFFFFFFFFFFFFFFFFFFFFFFFFFFFFFF AND DUP2 MSTORE PUSH1 0x20 ADD SWAP1 DUP2 MSTORE PUSH1 0x20 ADD PUSH1 0x0 KECCAK256 DUP1 SLOAD DUP1 PUSH1 0x20 MUL PUSH1 0x20 ADD PUSH1 0x40 MLOAD SWAP1 DUP2 ADD PUSH1 0x40 MSTORE DUP1 SWAP3 SWAP2 SWAP1 DUP2 DUP2 MSTORE PUSH1 0x20 ADD DUP3 DUP1 SLOAD DUP1 ISZERO PUSH2 0x142A JUMPI PUSH1 0x20 MUL DUP3 ADD SWAP2 SWAP1 PUSH1 0x0 MSTORE PUSH1 0x20 PUSH1 0x0 KECCAK256 SWAP1 JUMPDEST DUP2 PUSH1 0x0 SWAP1 SLOAD SWAP1 PUSH2 0x100 EXP SWAP1 DIV PUSH20 0xFFFFFFFFFFFFFFFFFFFFFFFFFFFFFFFFFFFFFFFF AND PUSH20 0xFFFFFFFFFFFFFFFFFFFFFFFFFFFFFFFFFFFFFFFF AND DUP2 MSTORE PUSH1 0x20 ADD SWAP1 PUSH1 0x1 ADD SWAP1 DUP1 DUP4 GT PUSH2 0x13E0 JUMPI JUMPDEST POP POP POP POP POP SWAP1 POP SWAP2 SWAP1 POP JUMP JUMPDEST CALLER PUSH20 0xFFFFFFFFFFFFFFFFFFFFFFFFFFFFFFFFFFFFFFFF AND DUP2 PUSH20 0xFFFFFFFFFFFFFFFFFFFFFFFFFFFFFFFFFFFFFFFF AND SUB PUSH2 0x14A4 JUMPI PUSH1 0x40 MLOAD PUSH32 0x8C379A000000000000000000000000000000000000000000000000000000000 DUP2 MSTORE PUSH1 0x4 ADD PUSH2 0x149B SWAP1 PUSH2 0x2BAC JUMP JUMPDEST PUSH1 0x40 MLOAD DUP1 SWAP2 SUB SWAP1 REVERT JUMPDEST PUSH1 0x0 PUSH2 0x14B0 CALLER DUP4 PUSH2 0x172F JUMP JUMPDEST SWAP1 POP PUSH1 0x0 DUP2 SLT ISZERO PUSH2 0x14F6 JUMPI PUSH1 0x40 MLOAD PUSH32 0x8C379A000000000000000000000000000000000000000000000000000000000 DUP2 MSTORE PUSH1 0x4 ADD PUSH2 0x14ED SWAP1 PUSH2 0x2C18 JUMP JUMPDEST PUSH1 0x40 MLOAD DUP1 SWAP2 SUB SWAP1 REVERT JUMPDEST PUSH2 0x1500 CALLER DUP3 PUSH2 0x1870 JUMP JUMPDEST DUP2 PUSH20 0xFFFFFFFFFFFFFFFFFFFFFFFFFFFFFFFFFFFFFFFF AND CALLER PUSH20 0xFFFFFFFFFFFFFFFFFFFFFFFFFFFFFFFFFFFFFFFF AND PUSH32 0xE7339343C6EDFF57F2D15278C419523844CEA30AE5EE2146AA22CB9E3107DAB7 PUSH1 0x40 MLOAD PUSH1 0x40 MLOAD DUP1 SWAP2 SUB SWAP1 LOG3 POP POP JUMP JUMPDEST PUSH2 0x1566 PUSH2 0x15E4 JUMP JUMPDEST PUSH1 0x0 PUSH20 0xFFFFFFFFFFFFFFFFFFFFFFFFFFFFFFFFFFFFFFFF AND DUP2 PUSH20 0xFFFFFFFFFFFFFFFFFFFFFFFFFFFFFFFFFFFFFFFF AND SUB PUSH2 0x15D8 JUMPI PUSH1 0x0 PUSH1 0x40 MLOAD PUSH32 0x1E4FBDF700000000000000000000000000000000000000000000000000000000 DUP2 MSTORE PUSH1 0x4 ADD PUSH2 0x15CF SWAP2 SWAP1 PUSH2 0x1E17 JUMP JUMPDEST PUSH1 0x40 MLOAD DUP1 SWAP2 SUB SWAP1 REVERT JUMPDEST PUSH2 0x15E1 DUP2 PUSH2 0x166B JUMP JUMPDEST POP JUMP JUMPDEST PUSH2 0x15EC PUSH2 0x1B07 JUMP JUMPDEST PUSH20 0xFFFFFFFFFFFFFFFFFFFFFFFFFFFFFFFFFFFFFFFF AND PUSH2 0x160A PUSH2 0xDAE JUMP JUMPDEST PUSH20 0xFFFFFFFFFFFFFFFFFFFFFFFFFFFFFFFFFFFFFFFF AND EQ PUSH2 0x1669 JUMPI PUSH2 0x162D PUSH2 0x1B07 JUMP JUMPDEST PUSH1 0x40 MLOAD PUSH32 0x118CDAA700000000000000000000000000000000000000000000000000000000 DUP2 MSTORE PUSH1 0x4 ADD PUSH2 0x1660 SWAP2 SWAP1 PUSH2 0x1E17 JUMP JUMPDEST PUSH1 0x40 MLOAD DUP1 SWAP2 SUB SWAP1 REVERT JUMPDEST JUMP JUMPDEST PUSH1 0x0 DUP1 PUSH1 0x0 SWAP1 SLOAD SWAP1 PUSH2 0x100 EXP SWAP1 DIV PUSH20 0xFFFFFFFFFFFFFFFFFFFFFFFFFFFFFFFFFFFFFFFF AND SWAP1 POP DUP2 PUSH1 0x0 DUP1 PUSH2 0x100 EXP DUP2 SLOAD DUP2 PUSH20 0xFFFFFFFFFFFFFFFFFFFFFFFFFFFFFFFFFFFFFFFF MUL NOT AND SWAP1 DUP4 PUSH20 0xFFFFFFFFFFFFFFFFFFFFFFFFFFFFFFFFFFFFFFFF AND MUL OR SWAP1 SSTORE POP DUP2 PUSH20 0xFFFFFFFFFFFFFFFFFFFFFFFFFFFFFFFFFFFFFFFF AND DUP2 PUSH20 0xFFFFFFFFFFFFFFFFFFFFFFFFFFFFFFFFFFFFFFFF AND PUSH32 0x8BE0079C531659141344CD1FD0A4F28419497F9722A3DAAFE3B4186F6B6457E0 PUSH1 0x40 MLOAD PUSH1 0x40 MLOAD DUP1 SWAP2 SUB SWAP1 LOG3 POP POP JUMP JUMPDEST PUSH1 0x0 DUP1 PUSH1 0x0 SWAP1 POP JUMPDEST PUSH1 0x3 PUSH1 0x0 DUP6 PUSH20 0xFFFFFFFFFFFFFFFFFFFFFFFFFFFFFFFFFFFFFFFF AND PUSH20 0xFFFFFFFFFFFFFFFFFFFFFFFFFFFFFFFFFFFFFFFF AND DUP2 MSTORE PUSH1 0x20 ADD SWAP1 DUP2 MSTORE PUSH1 0x20 ADD PUSH1 0x0 KECCAK256 DUP1 SLOAD SWAP1 POP DUP2 LT ISZERO PUSH2 0x1845 JUMPI DUP3 PUSH20 0xFFFFFFFFFFFFFFFFFFFFFFFFFFFFFFFFFFFFFFFF AND PUSH1 0x3 PUSH1 0x0 DUP7 PUSH20 0xFFFFFFFFFFFFFFFFFFFFFFFFFFFFFFFFFFFFFFFF AND PUSH20 0xFFFFFFFFFFFFFFFFFFFFFFFFFFFFFFFFFFFFFFFF AND DUP2 MSTORE PUSH1 0x20 ADD SWAP1 DUP2 MSTORE PUSH1 0x20 ADD PUSH1 0x0 KECCAK256 DUP3 DUP2 SLOAD DUP2 LT PUSH2 0x17E9 JUMPI PUSH2 0x17E8 PUSH2 0x2C38 JUMP JUMPDEST JUMPDEST SWAP1 PUSH1 0x0 MSTORE PUSH1 0x20 PUSH1 0x0 KECCAK256 ADD PUSH1 0x0 SWAP1 SLOAD SWAP1 PUSH2 0x100 EXP SWAP1 DIV PUSH20 0xFFFFFFFFFFFFFFFFFFFFFFFFFFFFFFFFFFFFFFFF AND PUSH20 0xFFFFFFFFFFFFFFFFFFFFFFFFFFFFFFFFFFFFFFFF AND SUB PUSH2 0x1838 JUMPI DUP1 SWAP2 POP POP PUSH2 0x186A JUMP JUMPDEST DUP1 DUP1 PUSH1 0x1 ADD SWAP2 POP POP PUSH2 0x1737 JUMP JUMPDEST POP PUSH32 0xFFFFFFFFFFFFFFFFFFFFFFFFFFFFFFFFFFFFFFFFFFFFFFFFFFFFFFFFFFFFFFFF SWAP1 POP JUMPDEST SWAP3 SWAP2 POP POP JUMP JUMPDEST PUSH1 0x3 PUSH1 0x0 DUP4 PUSH20 0xFFFFFFFFFFFFFFFFFFFFFFFFFFFFFFFFFFFFFFFF AND PUSH20 0xFFFFFFFFFFFFFFFFFFFFFFFFFFFFFFFFFFFFFFFF AND DUP2 MSTORE PUSH1 0x20 ADD SWAP1 DUP2 MSTORE PUSH1 0x20 ADD PUSH1 0x0 KECCAK256 DUP1 SLOAD SWAP1 POP DUP2 LT PUSH2 0x18F4 JUMPI PUSH1 0x40 MLOAD PUSH32 0x8C379A000000000000000000000000000000000000000000000000000000000 DUP2 MSTORE PUSH1 0x4 ADD PUSH2 0x18EB SWAP1 PUSH2 0x2CB3 JUMP JUMPDEST PUSH1 0x40 MLOAD DUP1 SWAP2 SUB SWAP1 REVERT JUMPDEST PUSH1 0x0 DUP2 SWAP1 POP JUMPDEST PUSH1 0x1 PUSH1 0x3 PUSH1 0x0 DUP6 PUSH20 0xFFFFFFFFFFFFFFFFFFFFFFFFFFFFFFFFFFFFFFFF AND PUSH20 0xFFFFFFFFFFFFFFFFFFFFFFFFFFFFFFFFFFFFFFFF AND DUP2 MSTORE PUSH1 0x20 ADD SWAP1 DUP2 MSTORE PUSH1 0x20 ADD PUSH1 0x0 KECCAK256 DUP1 SLOAD SWAP1 POP PUSH2 0x1949 SWAP2 SWAP1 PUSH2 0x2D02 JUMP JUMPDEST DUP2 LT ISZERO PUSH2 0x1A7E JUMPI PUSH1 0x3 PUSH1 0x0 DUP5 PUSH20 0xFFFFFFFFFFFFFFFFFFFFFFFFFFFFFFFFFFFFFFFF AND PUSH20 0xFFFFFFFFFFFFFFFFFFFFFFFFFFFFFFFFFFFFFFFF AND DUP2 MSTORE PUSH1 0x20 ADD SWAP1 DUP2 MSTORE PUSH1 0x20 ADD PUSH1 0x0 KECCAK256 PUSH1 0x1 DUP3 PUSH2 0x199C SWAP2 SWAP1 PUSH2 0x2D36 JUMP JUMPDEST DUP2 SLOAD DUP2 LT PUSH2 0x19AD JUMPI PUSH2 0x19AC PUSH2 0x2C38 JUMP JUMPDEST JUMPDEST SWAP1 PUSH1 0x0 MSTORE PUSH1 0x20 PUSH1 0x0 KECCAK256 ADD PUSH1 0x0 SWAP1 SLOAD SWAP1 PUSH2 0x100 EXP SWAP1 DIV PUSH20 0xFFFFFFFFFFFFFFFFFFFFFFFFFFFFFFFFFFFFFFFF AND PUSH1 0x3 PUSH1 0x0 DUP6 PUSH20 0xFFFFFFFFFFFFFFFFFFFFFFFFFFFFFFFFFFFFFFFF AND PUSH20 0xFFFFFFFFFFFFFFFFFFFFFFFFFFFFFFFFFFFFFFFF AND DUP2 MSTORE PUSH1 0x20 ADD SWAP1 DUP2 MSTORE PUSH1 0x20 ADD PUSH1 0x0 KECCAK256 DUP3 DUP2 SLOAD DUP2 LT PUSH2 0x1A29 JUMPI PUSH2 0x1A28 PUSH2 0x2C38 JUMP JUMPDEST JUMPDEST SWAP1 PUSH1 0x0 MSTORE PUSH1 0x20 PUSH1 0x0 KECCAK256 ADD PUSH1 0x0 PUSH2 0x100 EXP DUP2 SLOAD DUP2 PUSH20 0xFFFFFFFFFFFFFFFFFFFFFFFFFFFFFFFFFFFFFFFF MUL NOT AND SWAP1 DUP4 PUSH20 0xFFFFFFFFFFFFFFFFFFFFFFFFFFFFFFFFFFFFFFFF AND MUL OR SWAP1 SSTORE POP DUP1 DUP1 PUSH1 0x1 ADD SWAP2 POP POP PUSH2 0x18FA JUMP JUMPDEST POP PUSH1 0x3 PUSH1 0x0 DUP4 PUSH20 0xFFFFFFFFFFFFFFFFFFFFFFFFFFFFFFFFFFFFFFFF AND PUSH20 0xFFFFFFFFFFFFFFFFFFFFFFFFFFFFFFFFFFFFFFFF AND DUP2 MSTORE PUSH1 0x20 ADD SWAP1 DUP2 MSTORE PUSH1 0x20 ADD PUSH1 0x0 KECCAK256 DUP1 SLOAD DUP1 PUSH2 0x1ACE JUMPI PUSH2 0x1ACD PUSH2 0x2D6A JUMP JUMPDEST JUMPDEST PUSH1 0x1 SWAP1 SUB DUP2 DUP2 SWAP1 PUSH1 0x0 MSTORE PUSH1 0x20 PUSH1 0x0 KECCAK256 ADD PUSH1 0x0 PUSH2 0x100 EXP DUP2 SLOAD SWAP1 PUSH20 0xFFFFFFFFFFFFFFFFFFFFFFFFFFFFFFFFFFFFFFFF MUL NOT AND SWAP1 SSTORE SWAP1 SSTORE POP POP JUMP JUMPDEST PUSH1 0x0 CALLER SWAP1 POP SWAP1 JUMP JUMPDEST PUSH1 0x40 MLOAD DUP1 PUSH1 0x60 ADD PUSH1 0x40 MSTORE DUP1 PUSH1 0x60 DUP2 MSTORE PUSH1 0x20 ADD PUSH1 0x0 DUP2 MSTORE PUSH1 0x20 ADD PUSH1 0x0 ISZERO ISZERO DUP2 MSTORE POP SWAP1 JUMP JUMPDEST PUSH1 0x0 DUP1 REVERT JUMPDEST PUSH1 0x0 DUP1 REVERT JUMPDEST PUSH1 0x0 PUSH20 0xFFFFFFFFFFFFFFFFFFFFFFFFFFFFFFFFFFFFFFFF DUP3 AND SWAP1 POP SWAP2 SWAP1 POP JUMP JUMPDEST PUSH1 0x0 PUSH2 0x1B67 DUP3 PUSH2 0x1B3C JUMP JUMPDEST SWAP1 POP SWAP2 SWAP1 POP JUMP JUMPDEST PUSH2 0x1B77 DUP2 PUSH2 0x1B5C JUMP JUMPDEST DUP2 EQ PUSH2 0x1B82 JUMPI PUSH1 0x0 DUP1 REVERT JUMPDEST POP JUMP JUMPDEST PUSH1 0x0 DUP2 CALLDATALOAD SWAP1 POP PUSH2 0x1B94 DUP2 PUSH2 0x1B6E JUMP JUMPDEST SWAP3 SWAP2 POP POP JUMP JUMPDEST PUSH1 0x0 PUSH1 0x20 DUP3 DUP5 SUB SLT ISZERO PUSH2 0x1BB0 JUMPI PUSH2 0x1BAF PUSH2 0x1B32 JUMP JUMPDEST JUMPDEST PUSH1 0x0 PUSH2 0x1BBE DUP5 DUP3 DUP6 ADD PUSH2 0x1B85 JUMP JUMPDEST SWAP2 POP POP SWAP3 SWAP2 POP POP JUMP JUMPDEST PUSH1 0x0 DUP2 SWAP1 POP SWAP2 SWAP1 POP JUMP JUMPDEST PUSH2 0x1BDA DUP2 PUSH2 0x1BC7 JUMP JUMPDEST DUP2 EQ PUSH2 0x1BE5 JUMPI PUSH1 0x0 DUP1 REVERT JUMPDEST POP JUMP JUMPDEST PUSH1 0x0 DUP2 CALLDATALOAD SWAP1 POP PUSH2 0x1BF7 DUP2 PUSH2 0x1BD1 JUMP JUMPDEST SWAP3 SWAP2 POP POP JUMP JUMPDEST PUSH1 0x0 PUSH1 0x20 DUP3 DUP5 SUB SLT ISZERO PUSH2 0x1C13 JUMPI PUSH2 0x1C12 PUSH2 0x1B32 JUMP JUMPDEST JUMPDEST PUSH1 0x0 PUSH2 0x1C21 DUP5 DUP3 DUP6 ADD PUSH2 0x1BE8 JUMP JUMPDEST SWAP2 POP POP SWAP3 SWAP2 POP POP JUMP JUMPDEST PUSH1 0x0 DUP2 MLOAD SWAP1 POP SWAP2 SWAP1 POP JUMP JUMPDEST PUSH1 0x0 DUP3 DUP3 MSTORE PUSH1 0x20 DUP3 ADD SWAP1 POP SWAP3 SWAP2 POP POP JUMP JUMPDEST PUSH1 0x0 JUMPDEST DUP4 DUP2 LT ISZERO PUSH2 0x1C64 JUMPI DUP1 DUP3 ADD MLOAD DUP2 DUP5 ADD MSTORE PUSH1 0x20 DUP2 ADD SWAP1 POP PUSH2 0x1C49 JUMP JUMPDEST PUSH1 0x0 DUP5 DUP5 ADD MSTORE POP POP POP POP JUMP JUMPDEST PUSH1 0x0 PUSH1 0x1F NOT PUSH1 0x1F DUP4 ADD AND SWAP1 POP SWAP2 SWAP1 POP JUMP JUMPDEST PUSH1 0x0 PUSH2 0x1C8C DUP3 PUSH2 0x1C2A JUMP JUMPDEST PUSH2 0x1C96 DUP2 DUP6 PUSH2 0x1C35 JUMP JUMPDEST SWAP4 POP PUSH2 0x1CA6 DUP2 DUP6 PUSH1 0x20 DUP7 ADD PUSH2 0x1C46 JUMP JUMPDEST PUSH2 0x1CAF DUP2 PUSH2 0x1C70 JUMP JUMPDEST DUP5 ADD SWAP2 POP POP SWAP3 SWAP2 POP POP JUMP JUMPDEST PUSH2 0x1CC3 DUP2 PUSH2 0x1BC7 JUMP JUMPDEST DUP3 MSTORE POP POP JUMP JUMPDEST PUSH1 0x0 DUP2 ISZERO ISZERO SWAP1 POP SWAP2 SWAP1 POP JUMP JUMPDEST PUSH2 0x1CDE DUP2 PUSH2 0x1CC9 JUMP JUMPDEST DUP3 MSTORE POP POP JUMP JUMPDEST PUSH1 0x0 PUSH1 0x60 DUP4 ADD PUSH1 0x0 DUP4 ADD MLOAD DUP5 DUP3 SUB PUSH1 0x0 DUP7 ADD MSTORE PUSH2 0x1D01 DUP3 DUP3 PUSH2 0x1C81 JUMP JUMPDEST SWAP2 POP POP PUSH1 0x20 DUP4 ADD MLOAD PUSH2 0x1D16 PUSH1 0x20 DUP7 ADD DUP3 PUSH2 0x1CBA JUMP JUMPDEST POP PUSH1 0x40 DUP4 ADD MLOAD PUSH2 0x1D29 PUSH1 0x40 DUP7 ADD DUP3 PUSH2 0x1CD5 JUMP JUMPDEST POP DUP1 SWAP2 POP POP SWAP3 SWAP2 POP POP JUMP JUMPDEST PUSH1 0x0 PUSH1 0x20 DUP3 ADD SWAP1 POP DUP2 DUP2 SUB PUSH1 0x0 DUP4 ADD MSTORE PUSH2 0x1D4E DUP2 DUP5 PUSH2 0x1CE4 JUMP JUMPDEST SWAP1 POP SWAP3 SWAP2 POP POP JUMP JUMPDEST PUSH1 0x0 DUP1 REVERT JUMPDEST PUSH1 0x0 DUP1 REVERT JUMPDEST PUSH1 0x0 DUP1 REVERT JUMPDEST PUSH1 0x0 DUP1 DUP4 PUSH1 0x1F DUP5 ADD SLT PUSH2 0x1D7B JUMPI PUSH2 0x1D7A PUSH2 0x1D56 JUMP JUMPDEST JUMPDEST DUP3 CALLDATALOAD SWAP1 POP PUSH8 0xFFFFFFFFFFFFFFFF DUP2 GT ISZERO PUSH2 0x1D98 JUMPI PUSH2 0x1D97 PUSH2 0x1D5B JUMP JUMPDEST JUMPDEST PUSH1 0x20 DUP4 ADD SWAP2 POP DUP4 PUSH1 0x1 DUP3 MUL DUP4 ADD GT ISZERO PUSH2 0x1DB4 JUMPI PUSH2 0x1DB3 PUSH2 0x1D60 JUMP JUMPDEST JUMPDEST SWAP3 POP SWAP3 SWAP1 POP JUMP JUMPDEST PUSH1 0x0 DUP1 PUSH1 0x20 DUP4 DUP6 SUB SLT ISZERO PUSH2 0x1DD2 JUMPI PUSH2 0x1DD1 PUSH2 0x1B32 JUMP JUMPDEST JUMPDEST PUSH1 0x0 DUP4 ADD CALLDATALOAD PUSH8 0xFFFFFFFFFFFFFFFF DUP2 GT ISZERO PUSH2 0x1DF0 JUMPI PUSH2 0x1DEF PUSH2 0x1B37 JUMP JUMPDEST JUMPDEST PUSH2 0x1DFC DUP6 DUP3 DUP7 ADD PUSH2 0x1D65 JUMP JUMPDEST SWAP3 POP SWAP3 POP POP SWAP3 POP SWAP3 SWAP1 POP JUMP JUMPDEST PUSH2 0x1E11 DUP2 PUSH2 0x1B5C JUMP JUMPDEST DUP3 MSTORE POP POP JUMP JUMPDEST PUSH1 0x0 PUSH1 0x20 DUP3 ADD SWAP1 POP PUSH2 0x1E2C PUSH1 0x0 DUP4 ADD DUP5 PUSH2 0x1E08 JUMP JUMPDEST SWAP3 SWAP2 POP POP JUMP JUMPDEST PUSH2 0x1E3B DUP2 PUSH2 0x1BC7 JUMP JUMPDEST DUP3 MSTORE POP POP JUMP JUMPDEST PUSH1 0x0 PUSH1 0x20 DUP3 ADD SWAP1 POP PUSH2 0x1E56 PUSH1 0x0 DUP4 ADD DUP5 PUSH2 0x1E32 JUMP JUMPDEST SWAP3 SWAP2 POP POP JUMP JUMPDEST PUSH1 0x0 DUP2 MLOAD SWAP1 POP SWAP2 SWAP1 POP JUMP JUMPDEST PUSH1 0x0 DUP3 DUP3 MSTORE PUSH1 0x20 DUP3 ADD SWAP1 POP SWAP3 SWAP2 POP POP JUMP JUMPDEST PUSH1 0x0 DUP2 SWAP1 POP PUSH1 0x20 DUP3 ADD SWAP1 POP SWAP2 SWAP1 POP JUMP JUMPDEST PUSH2 0x1E91 DUP2 PUSH2 0x1B5C JUMP JUMPDEST DUP3 MSTORE POP POP JUMP JUMPDEST PUSH1 0x0 PUSH2 0x1EA3 DUP4 DUP4 PUSH2 0x1E88 JUMP JUMPDEST PUSH1 0x20 DUP4 ADD SWAP1 POP SWAP3 SWAP2 POP POP JUMP JUMPDEST PUSH1 0x0 PUSH1 0x20 DUP3 ADD SWAP1 POP SWAP2 SWAP1 POP JUMP JUMPDEST PUSH1 0x0 PUSH2 0x1EC7 DUP3 PUSH2 0x1E5C JUMP JUMPDEST PUSH2 0x1ED1 DUP2 DUP6 PUSH2 0x1E67 JUMP JUMPDEST SWAP4 POP PUSH2 0x1EDC DUP4 PUSH2 0x1E78 JUMP JUMPDEST DUP1 PUSH1 0x0 JUMPDEST DUP4 DUP2 LT ISZERO PUSH2 0x1F0D JUMPI DUP2 MLOAD PUSH2 0x1EF4 DUP9 DUP3 PUSH2 0x1E97 JUMP JUMPDEST SWAP8 POP PUSH2 0x1EFF DUP4 PUSH2 0x1EAF JUMP JUMPDEST SWAP3 POP POP PUSH1 0x1 DUP2 ADD SWAP1 POP PUSH2 0x1EE0 JUMP JUMPDEST POP DUP6 SWAP4 POP POP POP POP SWAP3 SWAP2 POP POP JUMP JUMPDEST PUSH1 0x0 PUSH1 0x20 DUP3 ADD SWAP1 POP DUP2 DUP2 SUB PUSH1 0x0 DUP4 ADD MSTORE PUSH2 0x1F34 DUP2 DUP5 PUSH2 0x1EBC JUMP JUMPDEST SWAP1 POP SWAP3 SWAP2 POP POP JUMP JUMPDEST PUSH32 0x4E487B7100000000000000000000000000000000000000000000000000000000 PUSH1 0x0 MSTORE PUSH1 0x22 PUSH1 0x4 MSTORE PUSH1 0x24 PUSH1 0x0 REVERT JUMPDEST PUSH1 0x0 PUSH1 0x2 DUP3 DIV SWAP1 POP PUSH1 0x1 DUP3 AND DUP1 PUSH2 0x1F83 JUMPI PUSH1 0x7F DUP3 AND SWAP2 POP JUMPDEST PUSH1 0x20 DUP3 LT DUP2 SUB PUSH2 0x1F96 JUMPI PUSH2 0x1F95 PUSH2 0x1F3C JUMP JUMPDEST JUMPDEST POP SWAP2 SWAP1 POP JUMP JUMPDEST PUSH1 0x0 DUP3 DUP3 MSTORE PUSH1 0x20 DUP3 ADD SWAP1 POP SWAP3 SWAP2 POP POP JUMP JUMPDEST PUSH32 0x55736572206E6F7420726567697374657265642E000000000000000000000000 PUSH1 0x0 DUP3 ADD MSTORE POP JUMP JUMPDEST PUSH1 0x0 PUSH2 0x1FE3 PUSH1 0x14 DUP4 PUSH2 0x1F9C JUMP JUMPDEST SWAP2 POP PUSH2 0x1FEE DUP3 PUSH2 0x1FAD JUMP JUMPDEST PUSH1 0x20 DUP3 ADD SWAP1 POP SWAP2 SWAP1 POP JUMP JUMPDEST PUSH1 0x0 PUSH1 0x20 DUP3 ADD SWAP1 POP DUP2 DUP2 SUB PUSH1 0x0 DUP4 ADD MSTORE PUSH2 0x2012 DUP2 PUSH2 0x1FD6 JUMP JUMPDEST SWAP1 POP SWAP2 SWAP1 POP JUMP JUMPDEST PUSH32 0x41766174617220636F6E7472616374206E6F74207365742E0000000000000000 PUSH1 0x0 DUP3 ADD MSTORE POP JUMP JUMPDEST PUSH1 0x0 PUSH2 0x204F PUSH1 0x18 DUP4 PUSH2 0x1F9C JUMP JUMPDEST SWAP2 POP PUSH2 0x205A DUP3 PUSH2 0x2019 JUMP JUMPDEST PUSH1 0x20 DUP3 ADD SWAP1 POP SWAP2 SWAP1 POP JUMP JUMPDEST PUSH1 0x0 PUSH1 0x20 DUP3 ADD SWAP1 POP DUP2 DUP2 SUB PUSH1 0x0 DUP4 ADD MSTORE PUSH2 0x207E DUP2 PUSH2 0x2042 JUMP JUMPDEST SWAP1 POP SWAP2 SWAP1 POP JUMP JUMPDEST PUSH32 0x42616E6E65642075736572732063616E6E6F7420757064617465206176617461 PUSH1 0x0 DUP3 ADD MSTORE PUSH32 0x722E000000000000000000000000000000000000000000000000000000000000 PUSH1 0x20 DUP3 ADD MSTORE POP JUMP JUMPDEST PUSH1 0x0 PUSH2 0x20E1 PUSH1 0x22 DUP4 PUSH2 0x1F9C JUMP JUMPDEST SWAP2 POP PUSH2 0x20EC DUP3 PUSH2 0x2085 JUMP JUMPDEST PUSH1 0x40 DUP3 ADD SWAP1 POP SWAP2 SWAP1 POP JUMP JUMPDEST PUSH1 0x0 PUSH1 0x20 DUP3 ADD SWAP1 POP DUP2 DUP2 SUB PUSH1 0x0 DUP4 ADD MSTORE PUSH2 0x2110 DUP2 PUSH2 0x20D4 JUMP JUMPDEST SWAP1 POP SWAP2 SWAP1 POP JUMP JUMPDEST PUSH1 0x0 DUP2 MLOAD SWAP1 POP PUSH2 0x2126 DUP2 PUSH2 0x1B6E JUMP JUMPDEST SWAP3 SWAP2 POP POP JUMP JUMPDEST PUSH1 0x0 PUSH1 0x20 DUP3 DUP5 SUB SLT ISZERO PUSH2 0x2142 JUMPI PUSH2 0x2141 PUSH2 0x1B32 JUMP JUMPDEST JUMPDEST PUSH1 0x0 PUSH2 0x2150 DUP5 DUP3 DUP6 ADD PUSH2 0x2117 JUMP JUMPDEST SWAP2 POP POP SWAP3 SWAP2 POP POP JUMP JUMPDEST PUSH32 0x4E6F7420746865206F776E6572206F6620746869732045524337323120746F6B PUSH1 0x0 DUP3 ADD MSTORE PUSH32 0x656E000000000000000000000000000000000000000000000000000000000000 PUSH1 0x20 DUP3 ADD MSTORE POP JUMP JUMPDEST PUSH1 0x0 PUSH2 0x21B5 PUSH1 0x22 DUP4 PUSH2 0x1F9C JUMP JUMPDEST SWAP2 POP PUSH2 0x21C0 DUP3 PUSH2 0x2159 JUMP JUMPDEST PUSH1 0x40 DUP3 ADD SWAP1 POP SWAP2 SWAP1 POP JUMP JUMPDEST PUSH1 0x0 PUSH1 0x20 DUP3 ADD SWAP1 POP DUP2 DUP2 SUB PUSH1 0x0 DUP4 ADD MSTORE PUSH2 0x21E4 DUP2 PUSH2 0x21A8 JUMP JUMPDEST SWAP1 POP SWAP2 SWAP1 POP JUMP JUMPDEST PUSH32 0x557365722069732062616E6E65642E0000000000000000000000000000000000 PUSH1 0x0 DUP3 ADD MSTORE POP JUMP JUMPDEST PUSH1 0x0 PUSH2 0x2221 PUSH1 0xF DUP4 PUSH2 0x1F9C JUMP JUMPDEST SWAP2 POP PUSH2 0x222C DUP3 PUSH2 0x21EB JUMP JUMPDEST PUSH1 0x20 DUP3 ADD SWAP1 POP SWAP2 SWAP1 POP JUMP JUMPDEST PUSH1 0x0 PUSH1 0x20 DUP3 ADD SWAP1 POP DUP2 DUP2 SUB PUSH1 0x0 DUP4 ADD MSTORE PUSH2 0x2250 DUP2 PUSH2 0x2214 JUMP JUMPDEST SWAP1 POP SWAP2 SWAP1 POP JUMP JUMPDEST PUSH32 0x5573657220616C726561647920726567697374657265642E0000000000000000 PUSH1 0x0 DUP3 ADD MSTORE POP JUMP JUMPDEST PUSH1 0x0 PUSH2 0x228D PUSH1 0x18 DUP4 PUSH2 0x1F9C JUMP JUMPDEST SWAP2 POP PUSH2 0x2298 DUP3 PUSH2 0x2257 JUMP JUMPDEST PUSH1 0x20 DUP3 ADD SWAP1 POP SWAP2 SWAP1 POP JUMP JUMPDEST PUSH1 0x0 PUSH1 0x20 DUP3 ADD SWAP1 POP DUP2 DUP2 SUB PUSH1 0x0 DUP4 ADD MSTORE PUSH2 0x22BC DUP2 PUSH2 0x2280 JUMP JUMPDEST SWAP1 POP SWAP2 SWAP1 POP JUMP JUMPDEST PUSH32 0x557365726E616D65206D757374206265203420746F2031352063686172616374 PUSH1 0x0 DUP3 ADD MSTORE PUSH32 0x657273206C6F6E672E0000000000000000000000000000000000000000000000 PUSH1 0x20 DUP3 ADD MSTORE POP JUMP JUMPDEST PUSH1 0x0 PUSH2 0x231F PUSH1 0x29 DUP4 PUSH2 0x1F9C JUMP JUMPDEST SWAP2 POP PUSH2 0x232A DUP3 PUSH2 0x22C3 JUMP JUMPDEST PUSH1 0x40 DUP3 ADD SWAP1 POP SWAP2 SWAP1 POP JUMP JUMPDEST PUSH1 0x0 PUSH1 0x20 DUP3 ADD SWAP1 POP DUP2 DUP2 SUB PUSH1 0x0 DUP4 ADD MSTORE PUSH2 0x234E DUP2 PUSH2 0x2312 JUMP JUMPDEST SWAP1 POP SWAP2 SWAP1 POP JUMP JUMPDEST PUSH1 0x0 DUP2 SWAP1 POP SWAP3 SWAP2 POP POP JUMP JUMPDEST DUP3 DUP2 DUP4 CALLDATACOPY PUSH1 0x0 DUP4 DUP4 ADD MSTORE POP POP POP JUMP JUMPDEST PUSH1 0x0 PUSH2 0x237B DUP4 DUP6 PUSH2 0x2355 JUMP JUMPDEST SWAP4 POP PUSH2 0x2388 DUP4 DUP6 DUP5 PUSH2 0x2360 JUMP JUMPDEST DUP3 DUP5 ADD SWAP1 POP SWAP4 SWAP3 POP POP POP JUMP JUMPDEST PUSH1 0x0 PUSH2 0x23A1 DUP3 DUP5 DUP7 PUSH2 0x236F JUMP JUMPDEST SWAP2 POP DUP2 SWAP1 POP SWAP4 SWAP3 POP POP POP JUMP JUMPDEST PUSH32 0x557365726E616D6520616C72656164792074616B656E2E000000000000000000 PUSH1 0x0 DUP3 ADD MSTORE POP JUMP JUMPDEST PUSH1 0x0 PUSH2 0x23E3 PUSH1 0x17 DUP4 PUSH2 0x1F9C JUMP JUMPDEST SWAP2 POP PUSH2 0x23EE DUP3 PUSH2 0x23AD JUMP JUMPDEST PUSH1 0x20 DUP3 ADD SWAP1 POP SWAP2 SWAP1 POP JUMP JUMPDEST PUSH1 0x0 PUSH1 0x20 DUP3 ADD SWAP1 POP DUP2 DUP2 SUB PUSH1 0x0 DUP4 ADD MSTORE PUSH2 0x2412 DUP2 PUSH2 0x23D6 JUMP JUMPDEST SWAP1 POP SWAP2 SWAP1 POP JUMP JUMPDEST PUSH32 0x42616E6E65642075736572732063616E6E6F742072656769737465722E000000 PUSH1 0x0 DUP3 ADD MSTORE POP JUMP JUMPDEST PUSH1 0x0 PUSH2 0x244F PUSH1 0x1D DUP4 PUSH2 0x1F9C JUMP JUMPDEST SWAP2 POP PUSH2 0x245A DUP3 PUSH2 0x2419 JUMP JUMPDEST PUSH1 0x20 DUP3 ADD SWAP1 POP SWAP2 SWAP1 POP JUMP JUMPDEST PUSH1 0x0 PUSH1 0x20 DUP3 ADD SWAP1 POP DUP2 DUP2 SUB PUSH1 0x0 DUP4 ADD MSTORE PUSH2 0x247E DUP2 PUSH2 0x2442 JUMP JUMPDEST SWAP1 POP SWAP2 SWAP1 POP JUMP JUMPDEST PUSH32 0x4E487B7100000000000000000000000000000000000000000000000000000000 PUSH1 0x0 MSTORE PUSH1 0x41 PUSH1 0x4 MSTORE PUSH1 0x24 PUSH1 0x0 REVERT JUMPDEST PUSH1 0x0 DUP2 SWAP1 POP DUP2 PUSH1 0x0 MSTORE PUSH1 0x20 PUSH1 0x0 KECCAK256 SWAP1 POP SWAP2 SWAP1 POP JUMP JUMPDEST PUSH1 0x0 PUSH1 0x20 PUSH1 0x1F DUP4 ADD DIV SWAP1 POP SWAP2 SWAP1 POP JUMP JUMPDEST PUSH1 0x0 DUP3 DUP3 SHL SWAP1 POP SWAP3 SWAP2 POP POP JUMP JUMPDEST PUSH1 0x0 PUSH1 0x8 DUP4 MUL PUSH2 0x2516 PUSH32 0xFFFFFFFFFFFFFFFFFFFFFFFFFFFFFFFFFFFFFFFFFFFFFFFFFFFFFFFFFFFFFFFF DUP3 PUSH2 0x24D9 JUMP JUMPDEST PUSH2 0x2520 DUP7 DUP4 PUSH2 0x24D9 JUMP JUMPDEST SWAP6 POP DUP1 NOT DUP5 AND SWAP4 POP DUP1 DUP7 AND DUP5 OR SWAP3 POP POP POP SWAP4 SWAP3 POP POP POP JUMP JUMPDEST PUSH1 0x0 DUP2 SWAP1 POP SWAP2 SWAP1 POP JUMP JUMPDEST PUSH1 0x0 PUSH2 0x255D PUSH2 0x2558 PUSH2 0x2553 DUP5 PUSH2 0x1BC7 JUMP JUMPDEST PUSH2 0x2538 JUMP JUMPDEST PUSH2 0x1BC7 JUMP JUMPDEST SWAP1 POP SWAP2 SWAP1 POP JUMP JUMPDEST PUSH1 0x0 DUP2 SWAP1 POP SWAP2 SWAP1 POP JUMP JUMPDEST PUSH2 0x2577 DUP4 PUSH2 0x2542 JUMP JUMPDEST PUSH2 0x258B PUSH2 0x2583 DUP3 PUSH2 0x2564 JUMP JUMPDEST DUP5 DUP5 SLOAD PUSH2 0x24E6 JUMP JUMPDEST DUP3 SSTORE POP POP POP POP JUMP JUMPDEST PUSH1 0x0 SWAP1 JUMP JUMPDEST PUSH2 0x25A0 PUSH2 0x2593 JUMP JUMPDEST PUSH2 0x25AB DUP2 DUP5 DUP5 PUSH2 0x256E JUMP JUMPDEST POP POP POP JUMP JUMPDEST JUMPDEST DUP2 DUP2 LT ISZERO PUSH2 0x25CF JUMPI PUSH2 0x25C4 PUSH1 0x0 DUP3 PUSH2 0x2598 JUMP JUMPDEST PUSH1 0x1 DUP2 ADD SWAP1 POP PUSH2 0x25B1 JUMP JUMPDEST POP POP JUMP JUMPDEST PUSH1 0x1F DUP3 GT ISZERO PUSH2 0x2614 JUMPI PUSH2 0x25E5 DUP2 PUSH2 0x24B4 JUMP JUMPDEST PUSH2 0x25EE DUP5 PUSH2 0x24C9 JUMP JUMPDEST DUP2 ADD PUSH1 0x20 DUP6 LT ISZERO PUSH2 0x25FD JUMPI DUP2 SWAP1 POP JUMPDEST PUSH2 0x2611 PUSH2 0x2609 DUP6 PUSH2 0x24C9 JUMP JUMPDEST DUP4 ADD DUP3 PUSH2 0x25B0 JUMP JUMPDEST POP POP JUMPDEST POP POP POP JUMP JUMPDEST PUSH1 0x0 DUP3 DUP3 SHR SWAP1 POP SWAP3 SWAP2 POP POP JUMP JUMPDEST PUSH1 0x0 PUSH2 0x2637 PUSH1 0x0 NOT DUP5 PUSH1 0x8 MUL PUSH2 0x2619 JUMP JUMPDEST NOT DUP1 DUP4 AND SWAP2 POP POP SWAP3 SWAP2 POP POP JUMP JUMPDEST PUSH1 0x0 PUSH2 0x2650 DUP4 DUP4 PUSH2 0x2626 JUMP JUMPDEST SWAP2 POP DUP3 PUSH1 0x2 MUL DUP3 OR SWAP1 POP SWAP3 SWAP2 POP POP JUMP JUMPDEST PUSH2 0x2669 DUP3 PUSH2 0x1C2A JUMP JUMPDEST PUSH8 0xFFFFFFFFFFFFFFFF DUP2 GT ISZERO PUSH2 0x2682 JUMPI PUSH2 0x2681 PUSH2 0x2485 JUMP JUMPDEST JUMPDEST PUSH2 0x268C DUP3 SLOAD PUSH2 0x1F6B JUMP JUMPDEST PUSH2 0x2697 DUP3 DUP3 DUP6 PUSH2 0x25D3 JUMP JUMPDEST PUSH1 0x0 PUSH1 0x20 SWAP1 POP PUSH1 0x1F DUP4 GT PUSH1 0x1 DUP2 EQ PUSH2 0x26CA JUMPI PUSH1 0x0 DUP5 ISZERO PUSH2 0x26B8 JUMPI DUP3 DUP8 ADD MLOAD SWAP1 POP JUMPDEST PUSH2 0x26C2 DUP6 DUP3 PUSH2 0x2644 JUMP JUMPDEST DUP7 SSTORE POP PUSH2 0x272A JUMP JUMPDEST PUSH1 0x1F NOT DUP5 AND PUSH2 0x26D8 DUP7 PUSH2 0x24B4 JUMP JUMPDEST PUSH1 0x0 JUMPDEST DUP3 DUP2 LT ISZERO PUSH2 0x2700 JUMPI DUP5 DUP10 ADD MLOAD DUP3 SSTORE PUSH1 0x1 DUP3 ADD SWAP2 POP PUSH1 0x20 DUP6 ADD SWAP5 POP PUSH1 0x20 DUP2 ADD SWAP1 POP PUSH2 0x26DB JUMP JUMPDEST DUP7 DUP4 LT ISZERO PUSH2 0x271D JUMPI DUP5 DUP10 ADD MLOAD PUSH2 0x2719 PUSH1 0x1F DUP10 AND DUP3 PUSH2 0x2626 JUMP JUMPDEST DUP4 SSTORE POP JUMPDEST PUSH1 0x1 PUSH1 0x2 DUP9 MUL ADD DUP9 SSTORE POP POP POP JUMPDEST POP POP POP POP POP POP JUMP JUMPDEST PUSH1 0x0 PUSH2 0x273E DUP4 DUP6 PUSH2 0x1F9C JUMP JUMPDEST SWAP4 POP PUSH2 0x274B DUP4 DUP6 DUP5 PUSH2 0x2360 JUMP JUMPDEST PUSH2 0x2754 DUP4 PUSH2 0x1C70 JUMP JUMPDEST DUP5 ADD SWAP1 POP SWAP4 SWAP3 POP POP POP JUMP JUMPDEST PUSH1 0x0 PUSH1 0x20 DUP3 ADD SWAP1 POP DUP2 DUP2 SUB PUSH1 0x0 DUP4 ADD MSTORE PUSH2 0x277A DUP2 DUP5 DUP7 PUSH2 0x2732 JUMP JUMPDEST SWAP1 POP SWAP4 SWAP3 POP POP POP JUMP JUMPDEST PUSH32 0x41766174617220636F6E747261637420616464726573732063616E6E6F742062 PUSH1 0x0 DUP3 ADD MSTORE PUSH32 0x6520746865207A65726F20616464726573732E00000000000000000000000000 PUSH1 0x20 DUP3 ADD MSTORE POP JUMP JUMPDEST PUSH1 0x0 PUSH2 0x27DF PUSH1 0x33 DUP4 PUSH2 0x1F9C JUMP JUMPDEST SWAP2 POP PUSH2 0x27EA DUP3 PUSH2 0x2783 JUMP JUMPDEST PUSH1 0x40 DUP3 ADD SWAP1 POP SWAP2 SWAP1 POP JUMP JUMPDEST PUSH1 0x0 PUSH1 0x20 DUP3 ADD SWAP1 POP DUP2 DUP2 SUB PUSH1 0x0 DUP4 ADD MSTORE PUSH2 0x280E DUP2 PUSH2 0x27D2 JUMP JUMPDEST SWAP1 POP SWAP2 SWAP1 POP JUMP JUMPDEST PUSH32 0x43616E6E6F7420666F6C6C6F7720796F757273656C662E000000000000000000 PUSH1 0x0 DUP3 ADD MSTORE POP JUMP JUMPDEST PUSH1 0x0 PUSH2 0x284B PUSH1 0x17 DUP4 PUSH2 0x1F9C JUMP JUMPDEST SWAP2 POP PUSH2 0x2856 DUP3 PUSH2 0x2815 JUMP JUMPDEST PUSH1 0x20 DUP3 ADD SWAP1 POP SWAP2 SWAP1 POP JUMP JUMPDEST PUSH1 0x0 PUSH1 0x20 DUP3 ADD SWAP1 POP DUP2 DUP2 SUB PUSH1 0x0 DUP4 ADD MSTORE PUSH2 0x287A DUP2 PUSH2 0x283E JUMP JUMPDEST SWAP1 POP SWAP2 SWAP1 POP JUMP JUMPDEST PUSH32 0x42616E6E65642075736572732063616E6E6F7420666F6C6C6F772E0000000000 PUSH1 0x0 DUP3 ADD MSTORE POP JUMP JUMPDEST PUSH1 0x0 PUSH2 0x28B7 PUSH1 0x1B DUP4 PUSH2 0x1F9C JUMP JUMPDEST SWAP2 POP PUSH2 0x28C2 DUP3 PUSH2 0x2881 JUMP JUMPDEST PUSH1 0x20 DUP3 ADD SWAP1 POP SWAP2 SWAP1 POP JUMP JUMPDEST PUSH1 0x0 PUSH1 0x20 DUP3 ADD SWAP1 POP DUP2 DUP2 SUB PUSH1 0x0 DUP4 ADD MSTORE PUSH2 0x28E6 DUP2 PUSH2 0x28AA JUMP JUMPDEST SWAP1 POP SWAP2 SWAP1 POP JUMP JUMPDEST PUSH32 0x43616E6E6F7420666F6C6C6F7720612062616E6E656420757365722E00000000 PUSH1 0x0 DUP3 ADD MSTORE POP JUMP JUMPDEST PUSH1 0x0 PUSH2 0x2923 PUSH1 0x1C DUP4 PUSH2 0x1F9C JUMP JUMPDEST SWAP2 POP PUSH2 0x292E DUP3 PUSH2 0x28ED JUMP JUMPDEST PUSH1 0x20 DUP3 ADD SWAP1 POP SWAP2 SWAP1 POP JUMP JUMPDEST PUSH1 0x0 PUSH1 0x20 DUP3 ADD SWAP1 POP DUP2 DUP2 SUB PUSH1 0x0 DUP4 ADD MSTORE PUSH2 0x2952 DUP2 PUSH2 0x2916 JUMP JUMPDEST SWAP1 POP SWAP2 SWAP1 POP JUMP JUMPDEST PUSH32 0x42616E6E65642075736572732063616E6E6F74206368616E6765207468656972 PUSH1 0x0 DUP3 ADD MSTORE PUSH32 0x20757365726E616D652E00000000000000000000000000000000000000000000 PUSH1 0x20 DUP3 ADD MSTORE POP JUMP JUMPDEST PUSH1 0x0 PUSH2 0x29B5 PUSH1 0x2A DUP4 PUSH2 0x1F9C JUMP JUMPDEST SWAP2 POP PUSH2 0x29C0 DUP3 PUSH2 0x2959 JUMP JUMPDEST PUSH1 0x40 DUP3 ADD SWAP1 POP SWAP2 SWAP1 POP JUMP JUMPDEST PUSH1 0x0 PUSH1 0x20 DUP3 ADD SWAP1 POP DUP2 DUP2 SUB PUSH1 0x0 DUP4 ADD MSTORE PUSH2 0x29E4 DUP2 PUSH2 0x29A8 JUMP JUMPDEST SWAP1 POP SWAP2 SWAP1 POP JUMP JUMPDEST PUSH1 0x0 DUP2 SLOAD PUSH2 0x29F8 DUP2 PUSH2 0x1F6B JUMP JUMPDEST PUSH2 0x2A02 DUP2 DUP7 PUSH2 0x2355 JUMP JUMPDEST SWAP5 POP PUSH1 0x1 DUP3 AND PUSH1 0x0 DUP2 EQ PUSH2 0x2A1D JUMPI PUSH1 0x1 DUP2 EQ PUSH2 0x2A32 JUMPI PUSH2 0x2A65 JUMP JUMPDEST PUSH1 0xFF NOT DUP4 AND DUP7 MSTORE DUP2 ISZERO ISZERO DUP3 MUL DUP7 ADD SWAP4 POP PUSH2 0x2A65 JUMP JUMPDEST PUSH2 0x2A3B DUP6 PUSH2 0x24B4 JUMP JUMPDEST PUSH1 0x0 JUMPDEST DUP4 DUP2 LT ISZERO PUSH2 0x2A5D JUMPI DUP2 SLOAD DUP2 DUP10 ADD MSTORE PUSH1 0x1 DUP3 ADD SWAP2 POP PUSH1 0x20 DUP2 ADD SWAP1 POP PUSH2 0x2A3E JUMP JUMPDEST DUP4 DUP9 ADD SWAP6 POP POP POP JUMPDEST POP POP POP SWAP3 SWAP2 POP POP JUMP JUMPDEST PUSH1 0x0 PUSH2 0x2A7A DUP3 DUP5 PUSH2 0x29EB JUMP JUMPDEST SWAP2 POP DUP2 SWAP1 POP SWAP3 SWAP2 POP POP JUMP JUMPDEST PUSH1 0x0 DUP3 SWAP1 POP SWAP3 SWAP2 POP POP JUMP JUMPDEST PUSH2 0x2A9A DUP4 DUP4 PUSH2 0x2A85 JUMP JUMPDEST PUSH8 0xFFFFFFFFFFFFFFFF DUP2 GT ISZERO PUSH2 0x2AB3 JUMPI PUSH2 0x2AB2 PUSH2 0x2485 JUMP JUMPDEST JUMPDEST PUSH2 0x2ABD DUP3 SLOAD PUSH2 0x1F6B JUMP JUMPDEST PUSH2 0x2AC8 DUP3 DUP3 DUP6 PUSH2 0x25D3 JUMP JUMPDEST PUSH1 0x0 PUSH1 0x1F DUP4 GT PUSH1 0x1 DUP2 EQ PUSH2 0x2AF7 JUMPI PUSH1 0x0 DUP5 ISZERO PUSH2 0x2AE5 JUMPI DUP3 DUP8 ADD CALLDATALOAD SWAP1 POP JUMPDEST PUSH2 0x2AEF DUP6 DUP3 PUSH2 0x2644 JUMP JUMPDEST DUP7 SSTORE POP PUSH2 0x2B57 JUMP JUMPDEST PUSH1 0x1F NOT DUP5 AND PUSH2 0x2B05 DUP7 PUSH2 0x24B4 JUMP JUMPDEST PUSH1 0x0 JUMPDEST DUP3 DUP2 LT ISZERO PUSH2 0x2B2D JUMPI DUP5 DUP10 ADD CALLDATALOAD DUP3 SSTORE PUSH1 0x1 DUP3 ADD SWAP2 POP PUSH1 0x20 DUP6 ADD SWAP5 POP PUSH1 0x20 DUP2 ADD SWAP1 POP PUSH2 0x2B08 JUMP JUMPDEST DUP7 DUP4 LT ISZERO PUSH2 0x2B4A JUMPI DUP5 DUP10 ADD CALLDATALOAD PUSH2 0x2B46 PUSH1 0x1F DUP10 AND DUP3 PUSH2 0x2626 JUMP JUMPDEST DUP4 SSTORE POP JUMPDEST PUSH1 0x1 PUSH1 0x2 DUP9 MUL ADD DUP9 SSTORE POP POP POP JUMPDEST POP POP POP POP POP POP POP JUMP JUMPDEST PUSH32 0x43616E6E6F7420756E666F6C6C6F7720796F757273656C662E00000000000000 PUSH1 0x0 DUP3 ADD MSTORE POP JUMP JUMPDEST PUSH1 0x0 PUSH2 0x2B96 PUSH1 0x19 DUP4 PUSH2 0x1F9C JUMP JUMPDEST SWAP2 POP PUSH2 0x2BA1 DUP3 PUSH2 0x2B60 JUMP JUMPDEST PUSH1 0x20 DUP3 ADD SWAP1 POP SWAP2 SWAP1 POP JUMP JUMPDEST PUSH1 0x0 PUSH1 0x20 DUP3 ADD SWAP1 POP DUP2 DUP2 SUB PUSH1 0x0 DUP4 ADD MSTORE PUSH2 0x2BC5 DUP2 PUSH2 0x2B89 JUMP JUMPDEST SWAP1 POP SWAP2 SWAP1 POP JUMP JUMPDEST PUSH32 0x55736572206E6F7420666F6C6C6F7765642E0000000000000000000000000000 PUSH1 0x0 DUP3 ADD MSTORE POP JUMP JUMPDEST PUSH1 0x0 PUSH2 0x2C02 PUSH1 0x12 DUP4 PUSH2 0x1F9C JUMP JUMPDEST SWAP2 POP PUSH2 0x2C0D DUP3 PUSH2 0x2BCC JUMP JUMPDEST PUSH1 0x20 DUP3 ADD SWAP1 POP SWAP2 SWAP1 POP JUMP JUMPDEST PUSH1 0x0 PUSH1 0x20 DUP3 ADD SWAP1 POP DUP2 DUP2 SUB PUSH1 0x0 DUP4 ADD MSTORE PUSH2 0x2C31 DUP2 PUSH2 0x2BF5 JUMP JUMPDEST SWAP1 POP SWAP2 SWAP1 POP JUMP JUMPDEST PUSH32 0x4E487B7100000000000000000000000000000000000000000000000000000000 PUSH1 0x0 MSTORE PUSH1 0x32 PUSH1 0x4 MSTORE PUSH1 0x24 PUSH1 0x0 REVERT JUMPDEST PUSH32 0x496E646578206F7574206F6620626F756E64732E000000000000000000000000 PUSH1 0x0 DUP3 ADD MSTORE POP JUMP JUMPDEST PUSH1 0x0 PUSH2 0x2C9D PUSH1 0x14 DUP4 PUSH2 0x1F9C JUMP JUMPDEST SWAP2 POP PUSH2 0x2CA8 DUP3 PUSH2 0x2C67 JUMP JUMPDEST PUSH1 0x20 DUP3 ADD SWAP1 POP SWAP2 SWAP1 POP JUMP JUMPDEST PUSH1 0x0 PUSH1 0x20 DUP3 ADD SWAP1 POP DUP2 DUP2 SUB PUSH1 0x0 DUP4 ADD MSTORE PUSH2 0x2CCC DUP2 PUSH2 0x2C90 JUMP JUMPDEST SWAP1 POP SWAP2 SWAP1 POP JUMP JUMPDEST PUSH32 0x4E487B7100000000000000000000000000000000000000000000000000000000 PUSH1 0x0 MSTORE PUSH1 0x11 PUSH1 0x4 MSTORE PUSH1 0x24 PUSH1 0x0 REVERT JUMPDEST PUSH1 0x0 PUSH2 0x2D0D DUP3 PUSH2 0x1BC7 JUMP JUMPDEST SWAP2 POP PUSH2 0x2D18 DUP4 PUSH2 0x1BC7 JUMP JUMPDEST SWAP3 POP DUP3 DUP3 SUB SWAP1 POP DUP2 DUP2 GT ISZERO PUSH2 0x2D30 JUMPI PUSH2 0x2D2F PUSH2 0x2CD3 JUMP JUMPDEST JUMPDEST SWAP3 SWAP2 POP POP JUMP JUMPDEST PUSH1 0x0 PUSH2 0x2D41 DUP3 PUSH2 0x1BC7 JUMP JUMPDEST SWAP2 POP PUSH2 0x2D4C DUP4 PUSH2 0x1BC7 JUMP JUMPDEST SWAP3 POP DUP3 DUP3 ADD SWAP1 POP DUP1 DUP3 GT ISZERO PUSH2 0x2D64 JUMPI PUSH2 0x2D63 PUSH2 0x2CD3 JUMP JUMPDEST JUMPDEST SWAP3 SWAP2 POP POP JUMP JUMPDEST PUSH32 0x4E487B7100000000000000000000000000000000000000000000000000000000 PUSH1 0x0 MSTORE PUSH1 0x31 PUSH1 0x4 MSTORE PUSH1 0x24 PUSH1 0x0 REVERT INVALID LOG2 PUSH5 0x6970667358 0x22 SLT KECCAK256 0x4F SWAP8 SWAP10 SWAP2 0xE5 SSTORE PUSH10 0x4853940EB74D42FDAD8A SWAP3 NOT PUSH8 0x9A80A5EDF7D2D26 0xF 0xCC DUP12 MSTORE8 PUSH5 0x736F6C6343 STOP ADDMOD OR STOP CALLER "
				},
				"gasEstimates": {
					"creation": {
						"codeDepositCost": "2345400",
						"executionCost": "infinite",
						"totalCost": "infinite"
					},
					"external": {
						"banUser(address)": "infinite",
						"changeMyUsername(string)": "infinite",
						"followUser(address)": "55271",
						"getFollows(address)": "infinite",
						"getTotalUsers()": "2490",
						"getUserInfo(address)": "infinite",
						"owner()": "2545",
						"registerUser(string)": "infinite",
						"renounceOwnership()": "infinite",
						"setAvatarContract(address)": "infinite",
						"transferOwnership(address)": "infinite",
						"unfollowUser(address)": "infinite",
						"updateAvatar(uint256)": "infinite"
					},
					"internal": {
						"_findFollowIndex(address,address)": "infinite",
						"_removeFollowAtIndex(address,uint256)": "infinite"
					}
				},
				"methodIdentifiers": {
					"banUser(address)": "10d86b1f",
					"changeMyUsername(string)": "bdac6495",
					"followUser(address)": "a70806f7",
					"getFollows(address)": "eb0eeb10",
					"getTotalUsers()": "9be572f6",
					"getUserInfo(address)": "6386c1c7",
					"owner()": "8da5cb5b",
					"registerUser(string)": "704f1b94",
					"renounceOwnership()": "715018a6",
					"setAvatarContract(address)": "8c19ebc8",
					"transferOwnership(address)": "f2fde38b",
					"unfollowUser(address)": "f107cfcb",
					"updateAvatar(uint256)": "499dfa6d"
				}
			},
			"storageLayout": {
				"storage": [
					{
						"astId": 8,
						"contract": "accounts.sol:UserManagement",
						"label": "_owner",
						"offset": 0,
						"slot": "0",
						"type": "t_address"
					},
					{
						"astId": 324,
						"contract": "accounts.sol:UserManagement",
						"label": "_userInfo",
						"offset": 0,
						"slot": "1",
						"type": "t_mapping(t_address,t_struct(UserInfo)319_storage)"
					},
					{
						"astId": 328,
						"contract": "accounts.sol:UserManagement",
						"label": "_usernameToAddress",
						"offset": 0,
						"slot": "2",
						"type": "t_mapping(t_string_memory_ptr,t_address)"
					},
					{
						"astId": 333,
						"contract": "accounts.sol:UserManagement",
						"label": "_userFollows",
						"offset": 0,
						"slot": "3",
						"type": "t_mapping(t_address,t_array(t_address)dyn_storage)"
					},
					{
						"astId": 336,
						"contract": "accounts.sol:UserManagement",
						"label": "_userAddresses",
						"offset": 0,
						"slot": "4",
						"type": "t_array(t_address)dyn_storage"
					},
					{
						"astId": 338,
						"contract": "accounts.sol:UserManagement",
						"label": "_avatarContract",
						"offset": 0,
						"slot": "5",
						"type": "t_address"
					}
				],
				"types": {
					"t_address": {
						"encoding": "inplace",
						"label": "address",
						"numberOfBytes": "20"
					},
					"t_array(t_address)dyn_storage": {
						"base": "t_address",
						"encoding": "dynamic_array",
						"label": "address[]",
						"numberOfBytes": "32"
					},
					"t_bool": {
						"encoding": "inplace",
						"label": "bool",
						"numberOfBytes": "1"
					},
					"t_mapping(t_address,t_array(t_address)dyn_storage)": {
						"encoding": "mapping",
						"key": "t_address",
						"label": "mapping(address => address[])",
						"numberOfBytes": "32",
						"value": "t_array(t_address)dyn_storage"
					},
					"t_mapping(t_address,t_struct(UserInfo)319_storage)": {
						"encoding": "mapping",
						"key": "t_address",
						"label": "mapping(address => struct UserManagement.UserInfo)",
						"numberOfBytes": "32",
						"value": "t_struct(UserInfo)319_storage"
					},
					"t_mapping(t_string_memory_ptr,t_address)": {
						"encoding": "mapping",
						"key": "t_string_memory_ptr",
						"label": "mapping(string => address)",
						"numberOfBytes": "32",
						"value": "t_address"
					},
					"t_string_memory_ptr": {
						"encoding": "bytes",
						"label": "string",
						"numberOfBytes": "32"
					},
					"t_string_storage": {
						"encoding": "bytes",
						"label": "string",
						"numberOfBytes": "32"
					},
					"t_struct(UserInfo)319_storage": {
						"encoding": "inplace",
						"label": "struct UserManagement.UserInfo",
						"members": [
							{
								"astId": 314,
								"contract": "accounts.sol:UserManagement",
								"label": "username",
								"offset": 0,
								"slot": "0",
								"type": "t_string_storage"
							},
							{
								"astId": 316,
								"contract": "accounts.sol:UserManagement",
								"label": "avatarTokenId",
								"offset": 0,
								"slot": "1",
								"type": "t_uint256"
							},
							{
								"astId": 318,
								"contract": "accounts.sol:UserManagement",
								"label": "isBanned",
								"offset": 0,
								"slot": "2",
								"type": "t_bool"
							}
						],
						"numberOfBytes": "96"
					},
					"t_uint256": {
						"encoding": "inplace",
						"label": "uint256",
						"numberOfBytes": "32"
					}
				}
			},
			"userdoc": {
				"kind": "user",
				"methods": {},
				"version": 1
			}
		}
	}
}