{
	"distTwitter.sol": {
		"UserManagement": {
			"abi": [
				{
					"inputs": [],
					"stateMutability": "nonpayable",
					"type": "constructor"
				},
				{
					"inputs": [
						{
							"internalType": "address",
							"name": "owner",
							"type": "address"
						}
					],
					"name": "OwnableInvalidOwner",
					"type": "error"
				},
				{
					"inputs": [
						{
							"internalType": "address",
							"name": "account",
							"type": "address"
						}
					],
					"name": "OwnableUnauthorizedAccount",
					"type": "error"
				},
				{
					"anonymous": false,
					"inputs": [
						{
							"indexed": true,
							"internalType": "address",
							"name": "user",
							"type": "address"
						},
						{
							"indexed": false,
							"internalType": "address",
							"name": "avatarContract",
							"type": "address"
						},
						{
							"indexed": false,
							"internalType": "uint256",
							"name": "avatarTokenId",
							"type": "uint256"
						},
						{
							"indexed": false,
							"internalType": "bool",
							"name": "isERC1155",
							"type": "bool"
						},
						{
							"indexed": false,
							"internalType": "uint256",
							"name": "avatarAmount",
							"type": "uint256"
						}
					],
					"name": "AvatarUpdated",
					"type": "event"
				},
				{
					"anonymous": false,
					"inputs": [
						{
							"indexed": true,
							"internalType": "address",
							"name": "previousOwner",
							"type": "address"
						},
						{
							"indexed": true,
							"internalType": "address",
							"name": "newOwner",
							"type": "address"
						}
					],
					"name": "OwnershipTransferred",
					"type": "event"
				},
				{
					"anonymous": false,
					"inputs": [
						{
							"indexed": true,
							"internalType": "address",
							"name": "user",
							"type": "address"
						},
						{
							"indexed": false,
							"internalType": "string",
							"name": "username",
							"type": "string"
						},
						{
							"indexed": false,
							"internalType": "address",
							"name": "avatarContract",
							"type": "address"
						},
						{
							"indexed": false,
							"internalType": "uint256",
							"name": "avatarTokenId",
							"type": "uint256"
						},
						{
							"indexed": false,
							"internalType": "bool",
							"name": "isERC1155",
							"type": "bool"
						},
						{
							"indexed": false,
							"internalType": "uint256",
							"name": "avatarAmount",
							"type": "uint256"
						}
					],
					"name": "UserRegistered",
					"type": "event"
				},
				{
					"inputs": [],
					"name": "getTotalUsers",
					"outputs": [
						{
							"internalType": "uint256",
							"name": "",
							"type": "uint256"
						}
					],
					"stateMutability": "view",
					"type": "function"
				},
				{
					"inputs": [
						{
							"internalType": "uint256",
							"name": "index",
							"type": "uint256"
						}
					],
					"name": "getUserByIndex",
					"outputs": [
						{
							"internalType": "address",
							"name": "",
							"type": "address"
						}
					],
					"stateMutability": "view",
					"type": "function"
				},
				{
					"inputs": [
						{
							"internalType": "address",
							"name": "user",
							"type": "address"
						}
					],
					"name": "getUserInfo",
					"outputs": [
						{
							"components": [
								{
									"internalType": "string",
									"name": "username",
									"type": "string"
								},
								{
									"internalType": "address",
									"name": "avatarContract",
									"type": "address"
								},
								{
									"internalType": "uint256",
									"name": "avatarTokenId",
									"type": "uint256"
								},
								{
									"internalType": "bool",
									"name": "isERC1155",
									"type": "bool"
								},
								{
									"internalType": "uint256",
									"name": "avatarAmount",
									"type": "uint256"
								}
							],
							"internalType": "struct UserManagement.UserInfo",
							"name": "",
							"type": "tuple"
						}
					],
					"stateMutability": "view",
					"type": "function"
				},
				{
					"inputs": [],
					"name": "owner",
					"outputs": [
						{
							"internalType": "address",
							"name": "",
							"type": "address"
						}
					],
					"stateMutability": "view",
					"type": "function"
				},
				{
					"inputs": [
						{
							"internalType": "string",
							"name": "username",
							"type": "string"
						},
						{
							"internalType": "address",
							"name": "avatarContract",
							"type": "address"
						},
						{
							"internalType": "uint256",
							"name": "avatarTokenId",
							"type": "uint256"
						},
						{
							"internalType": "bool",
							"name": "isERC1155",
							"type": "bool"
						},
						{
							"internalType": "uint256",
							"name": "avatarAmount",
							"type": "uint256"
						}
					],
					"name": "registerUser",
					"outputs": [],
					"stateMutability": "nonpayable",
					"type": "function"
				},
				{
					"inputs": [],
					"name": "renounceOwnership",
					"outputs": [],
					"stateMutability": "nonpayable",
					"type": "function"
				},
				{
					"inputs": [
						{
							"internalType": "address",
							"name": "newOwner",
							"type": "address"
						}
					],
					"name": "transferOwnership",
					"outputs": [],
					"stateMutability": "nonpayable",
					"type": "function"
				},
				{
					"inputs": [
						{
							"internalType": "address",
							"name": "avatarContract",
							"type": "address"
						},
						{
							"internalType": "uint256",
							"name": "avatarTokenId",
							"type": "uint256"
						},
						{
							"internalType": "bool",
							"name": "isERC1155",
							"type": "bool"
						},
						{
							"internalType": "uint256",
							"name": "avatarAmount",
							"type": "uint256"
						}
					],
					"name": "updateAvatar",
					"outputs": [],
					"stateMutability": "nonpayable",
					"type": "function"
				}
			],
			"devdoc": {
				"errors": {
					"OwnableInvalidOwner(address)": [
						{
							"details": "The owner is not a valid owner account. (eg. `address(0)`)"
						}
					],
					"OwnableUnauthorizedAccount(address)": [
						{
							"details": "The caller account is not authorized to perform an operation."
						}
					]
				},
				"kind": "dev",
				"methods": {
					"owner()": {
						"details": "Returns the address of the current owner."
					},
					"renounceOwnership()": {
						"details": "Leaves the contract without owner. It will not be possible to call `onlyOwner` functions. Can only be called by the current owner. NOTE: Renouncing ownership will leave the contract without an owner, thereby disabling any functionality that is only available to the owner."
					},
					"transferOwnership(address)": {
						"details": "Transfers ownership of the contract to a new account (`newOwner`). Can only be called by the current owner."
					}
				},
				"version": 1
			},
			"evm": {
				"assembly": "    /* \"distTwitter.sol\":307:3496  contract UserManagement is Ownable {... */\n  mstore(0x40, 0x80)\n    /* \"distTwitter.sol\":988:1024  constructor() Ownable(msg.sender) {} */\n  callvalue\n  dup1\n  iszero\n  tag_1\n  jumpi\n  0x00\n  dup1\n  revert\ntag_1:\n  pop\n    /* \"distTwitter.sol\":1010:1020  msg.sender */\n  caller\n    /* \"@openzeppelin/contracts/access/Ownable.sol\":1297:1298  0 */\n  0x00\n    /* \"@openzeppelin/contracts/access/Ownable.sol\":1273:1299  initialOwner == address(0) */\n  0xffffffffffffffffffffffffffffffffffffffff\n  and\n    /* \"@openzeppelin/contracts/access/Ownable.sol\":1273:1285  initialOwner */\n  dup2\n    /* \"@openzeppelin/contracts/access/Ownable.sol\":1273:1299  initialOwner == address(0) */\n  0xffffffffffffffffffffffffffffffffffffffff\n  and\n  sub\n    /* \"@openzeppelin/contracts/access/Ownable.sol\":1269:1364  if (initialOwner == address(0)) {... */\n  tag_5\n  jumpi\n    /* \"@openzeppelin/contracts/access/Ownable.sol\":1350:1351  0 */\n  0x00\n    /* \"@openzeppelin/contracts/access/Ownable.sol\":1322:1353  OwnableInvalidOwner(address(0)) */\n  mload(0x40)\n  0x1e4fbdf700000000000000000000000000000000000000000000000000000000\n  dup2\n  mstore\n  0x04\n  add\n  tag_6\n  swap2\n  swap1\n  tag_7\n  jump\t// in\ntag_6:\n  mload(0x40)\n  dup1\n  swap2\n  sub\n  swap1\n  revert\n    /* \"@openzeppelin/contracts/access/Ownable.sol\":1269:1364  if (initialOwner == address(0)) {... */\ntag_5:\n    /* \"@openzeppelin/contracts/access/Ownable.sol\":1373:1405  _transferOwnership(initialOwner) */\n  tag_8\n    /* \"@openzeppelin/contracts/access/Ownable.sol\":1392:1404  initialOwner */\n  dup2\n    /* \"@openzeppelin/contracts/access/Ownable.sol\":1373:1391  _transferOwnership */\n  shl(0x20, tag_9)\n    /* \"@openzeppelin/contracts/access/Ownable.sol\":1373:1405  _transferOwnership(initialOwner) */\n  0x20\n  shr\n  jump\t// in\ntag_8:\n    /* \"@openzeppelin/contracts/access/Ownable.sol\":1225:1412  constructor(address initialOwner) {... */\n  pop\n    /* \"distTwitter.sol\":307:3496  contract UserManagement is Ownable {... */\n  jump(tag_11)\n    /* \"@openzeppelin/contracts/access/Ownable.sol\":2912:3099  function _transferOwnership(address newOwner) internal virtual {... */\ntag_9:\n    /* \"@openzeppelin/contracts/access/Ownable.sol\":2985:3001  address oldOwner */\n  0x00\n    /* \"@openzeppelin/contracts/access/Ownable.sol\":3004:3010  _owner */\n  dup1\n  0x00\n  swap1\n  sload\n  swap1\n  0x0100\n  exp\n  swap1\n  div\n  0xffffffffffffffffffffffffffffffffffffffff\n  and\n    /* \"@openzeppelin/contracts/access/Ownable.sol\":2985:3010  address oldOwner = _owner */\n  swap1\n  pop\n    /* \"@openzeppelin/contracts/access/Ownable.sol\":3029:3037  newOwner */\n  dup2\n    /* \"@openzeppelin/contracts/access/Ownable.sol\":3020:3026  _owner */\n  0x00\n  dup1\n    /* \"@openzeppelin/contracts/access/Ownable.sol\":3020:3037  _owner = newOwner */\n  0x0100\n  exp\n  dup2\n  sload\n  dup2\n  0xffffffffffffffffffffffffffffffffffffffff\n  mul\n  not\n  and\n  swap1\n  dup4\n  0xffffffffffffffffffffffffffffffffffffffff\n  and\n  mul\n  or\n  swap1\n  sstore\n  pop\n    /* \"@openzeppelin/contracts/access/Ownable.sol\":3083:3091  newOwner */\n  dup2\n    /* \"@openzeppelin/contracts/access/Ownable.sol\":3052:3092  OwnershipTransferred(oldOwner, newOwner) */\n  0xffffffffffffffffffffffffffffffffffffffff\n  and\n    /* \"@openzeppelin/contracts/access/Ownable.sol\":3073:3081  oldOwner */\n  dup2\n    /* \"@openzeppelin/contracts/access/Ownable.sol\":3052:3092  OwnershipTransferred(oldOwner, newOwner) */\n  0xffffffffffffffffffffffffffffffffffffffff\n  and\n  0x8be0079c531659141344cd1fd0a4f28419497f9722a3daafe3b4186f6b6457e0\n  mload(0x40)\n  mload(0x40)\n  dup1\n  swap2\n  sub\n  swap1\n  log3\n    /* \"@openzeppelin/contracts/access/Ownable.sol\":2975:3099  {... */\n  pop\n    /* \"@openzeppelin/contracts/access/Ownable.sol\":2912:3099  function _transferOwnership(address newOwner) internal virtual {... */\n  pop\n  jump\t// out\n    /* \"#utility.yul\":7:133   */\ntag_13:\n    /* \"#utility.yul\":44:51   */\n  0x00\n    /* \"#utility.yul\":84:126   */\n  0xffffffffffffffffffffffffffffffffffffffff\n    /* \"#utility.yul\":77:82   */\n  dup3\n    /* \"#utility.yul\":73:127   */\n  and\n    /* \"#utility.yul\":62:127   */\n  swap1\n  pop\n    /* \"#utility.yul\":7:133   */\n  swap2\n  swap1\n  pop\n  jump\t// out\n    /* \"#utility.yul\":139:235   */\ntag_14:\n    /* \"#utility.yul\":176:183   */\n  0x00\n    /* \"#utility.yul\":205:229   */\n  tag_19\n    /* \"#utility.yul\":223:228   */\n  dup3\n    /* \"#utility.yul\":205:229   */\n  tag_13\n  jump\t// in\ntag_19:\n    /* \"#utility.yul\":194:229   */\n  swap1\n  pop\n    /* \"#utility.yul\":139:235   */\n  swap2\n  swap1\n  pop\n  jump\t// out\n    /* \"#utility.yul\":241:359   */\ntag_15:\n    /* \"#utility.yul\":328:352   */\n  tag_21\n    /* \"#utility.yul\":346:351   */\n  dup2\n    /* \"#utility.yul\":328:352   */\n  tag_14\n  jump\t// in\ntag_21:\n    /* \"#utility.yul\":323:326   */\n  dup3\n    /* \"#utility.yul\":316:353   */\n  mstore\n    /* \"#utility.yul\":241:359   */\n  pop\n  pop\n  jump\t// out\n    /* \"#utility.yul\":365:587   */\ntag_7:\n    /* \"#utility.yul\":458:462   */\n  0x00\n    /* \"#utility.yul\":496:498   */\n  0x20\n    /* \"#utility.yul\":485:494   */\n  dup3\n    /* \"#utility.yul\":481:499   */\n  add\n    /* \"#utility.yul\":473:499   */\n  swap1\n  pop\n    /* \"#utility.yul\":509:580   */\n  tag_23\n    /* \"#utility.yul\":577:578   */\n  0x00\n    /* \"#utility.yul\":566:575   */\n  dup4\n    /* \"#utility.yul\":562:579   */\n  add\n    /* \"#utility.yul\":553:559   */\n  dup5\n    /* \"#utility.yul\":509:580   */\n  tag_15\n  jump\t// in\ntag_23:\n    /* \"#utility.yul\":365:587   */\n  swap3\n  swap2\n  pop\n  pop\n  jump\t// out\n    /* \"distTwitter.sol\":307:3496  contract UserManagement is Ownable {... */\ntag_11:\n  dataSize(sub_0)\n  dup1\n  dataOffset(sub_0)\n  0x00\n  codecopy\n  0x00\n  return\nstop\n\nsub_0: assembly {\n        /* \"distTwitter.sol\":307:3496  contract UserManagement is Ownable {... */\n      mstore(0x40, 0x80)\n      callvalue\n      dup1\n      iszero\n      tag_1\n      jumpi\n      0x00\n      dup1\n      revert\n    tag_1:\n      pop\n      jumpi(tag_2, lt(calldatasize, 0x04))\n      shr(0xe0, calldataload(0x00))\n      dup1\n      0x8da5cb5b\n      gt\n      tag_11\n      jumpi\n      dup1\n      0x8da5cb5b\n      eq\n      tag_7\n      jumpi\n      dup1\n      0x9be572f6\n      eq\n      tag_8\n      jumpi\n      dup1\n      0xf2fde38b\n      eq\n      tag_9\n      jumpi\n      dup1\n      0xff5d32fe\n      eq\n      tag_10\n      jumpi\n      jump(tag_2)\n    tag_11:\n      dup1\n      0x41d2c863\n      eq\n      tag_3\n      jumpi\n      dup1\n      0x6386c1c7\n      eq\n      tag_4\n      jumpi\n      dup1\n      0x6f715ad8\n      eq\n      tag_5\n      jumpi\n      dup1\n      0x715018a6\n      eq\n      tag_6\n      jumpi\n    tag_2:\n      0x00\n      dup1\n      revert\n        /* \"distTwitter.sol\":2172:3059  function updateAvatar(address avatarContract, uint256 avatarTokenId, bool isERC1155, uint256 avatarAmount) external {... */\n    tag_3:\n      tag_12\n      0x04\n      dup1\n      calldatasize\n      sub\n      dup2\n      add\n      swap1\n      tag_13\n      swap2\n      swap1\n      tag_14\n      jump\t// in\n    tag_13:\n      tag_15\n      jump\t// in\n    tag_12:\n      stop\n        /* \"distTwitter.sol\":3067:3183  function getUserInfo(address user) external view returns (UserInfo memory) {... */\n    tag_4:\n      tag_16\n      0x04\n      dup1\n      calldatasize\n      sub\n      dup2\n      add\n      swap1\n      tag_17\n      swap2\n      swap1\n      tag_18\n      jump\t// in\n    tag_17:\n      tag_19\n      jump\t// in\n    tag_16:\n      mload(0x40)\n      tag_20\n      swap2\n      swap1\n      tag_21\n      jump\t// in\n    tag_20:\n      mload(0x40)\n      dup1\n      swap2\n      sub\n      swap1\n      return\n        /* \"distTwitter.sol\":1032:2164  function registerUser(string calldata username, address avatarContract, uint256 avatarTokenId, bool isERC1155, uint256 avatarAmount) external {... */\n    tag_5:\n      tag_22\n      0x04\n      dup1\n      calldatasize\n      sub\n      dup2\n      add\n      swap1\n      tag_23\n      swap2\n      swap1\n      tag_24\n      jump\t// in\n    tag_23:\n      tag_25\n      jump\t// in\n    tag_22:\n      stop\n        /* \"@openzeppelin/contracts/access/Ownable.sol\":2293:2394  function renounceOwnership() public virtual onlyOwner {... */\n    tag_6:\n      tag_26\n      tag_27\n      jump\t// in\n    tag_26:\n      stop\n        /* \"@openzeppelin/contracts/access/Ownable.sol\":1638:1723  function owner() public view virtual returns (address) {... */\n    tag_7:\n      tag_28\n      tag_29\n      jump\t// in\n    tag_28:\n      mload(0x40)\n      tag_30\n      swap2\n      swap1\n      tag_31\n      jump\t// in\n    tag_30:\n      mload(0x40)\n      dup1\n      swap2\n      sub\n      swap1\n      return\n        /* \"distTwitter.sol\":3191:3295  function getTotalUsers() external view returns (uint256) {... */\n    tag_8:\n      tag_32\n      tag_33\n      jump\t// in\n    tag_32:\n      mload(0x40)\n      tag_34\n      swap2\n      swap1\n      tag_35\n      jump\t// in\n    tag_34:\n      mload(0x40)\n      dup1\n      swap2\n      sub\n      swap1\n      return\n        /* \"@openzeppelin/contracts/access/Ownable.sol\":2543:2758  function transferOwnership(address newOwner) public virtual onlyOwner {... */\n    tag_9:\n      tag_36\n      0x04\n      dup1\n      calldatasize\n      sub\n      dup2\n      add\n      swap1\n      tag_37\n      swap2\n      swap1\n      tag_18\n      jump\t// in\n    tag_37:\n      tag_38\n      jump\t// in\n    tag_36:\n      stop\n        /* \"distTwitter.sol\":3303:3493  function getUserByIndex(uint256 index) external view returns (address) {... */\n    tag_10:\n      tag_39\n      0x04\n      dup1\n      calldatasize\n      sub\n      dup2\n      add\n      swap1\n      tag_40\n      swap2\n      swap1\n      tag_41\n      jump\t// in\n    tag_40:\n      tag_42\n      jump\t// in\n    tag_39:\n      mload(0x40)\n      tag_43\n      swap2\n      swap1\n      tag_31\n      jump\t// in\n    tag_43:\n      mload(0x40)\n      dup1\n      swap2\n      sub\n      swap1\n      return\n        /* \"distTwitter.sol\":2172:3059  function updateAvatar(address avatarContract, uint256 avatarTokenId, bool isERC1155, uint256 avatarAmount) external {... */\n    tag_15:\n        /* \"distTwitter.sol\":2354:2355  0 */\n      0x00\n        /* \"distTwitter.sol\":2313:2322  _userInfo */\n      0x01\n        /* \"distTwitter.sol\":2313:2334  _userInfo[msg.sender] */\n      0x00\n        /* \"distTwitter.sol\":2323:2333  msg.sender */\n      caller\n        /* \"distTwitter.sol\":2313:2334  _userInfo[msg.sender] */\n      0xffffffffffffffffffffffffffffffffffffffff\n      and\n      0xffffffffffffffffffffffffffffffffffffffff\n      and\n      dup2\n      mstore\n      0x20\n      add\n      swap1\n      dup2\n      mstore\n      0x20\n      add\n      0x00\n      keccak256\n        /* \"distTwitter.sol\":2313:2343  _userInfo[msg.sender].username */\n      0x00\n      add\n        /* \"distTwitter.sol\":2307:2351  bytes(_userInfo[msg.sender].username).length */\n      dup1\n      sload\n      tag_45\n      swap1\n      tag_46\n      jump\t// in\n    tag_45:\n      swap1\n      pop\n        /* \"distTwitter.sol\":2307:2355  bytes(_userInfo[msg.sender].username).length > 0 */\n      gt\n        /* \"distTwitter.sol\":2299:2380  require(bytes(_userInfo[msg.sender].username).length > 0, \"User not registered.\") */\n      tag_47\n      jumpi\n      mload(0x40)\n      0x08c379a000000000000000000000000000000000000000000000000000000000\n      dup2\n      mstore\n      0x04\n      add\n      tag_48\n      swap1\n      tag_49\n      jump\t// in\n    tag_48:\n      mload(0x40)\n      dup1\n      swap2\n      sub\n      swap1\n      revert\n    tag_47:\n        /* \"distTwitter.sol\":2405:2414  isERC1155 */\n      dup2\n        /* \"distTwitter.sol\":2401:2711  if (isERC1155) {... */\n      iszero\n      tag_50\n      jumpi\n        /* \"distTwitter.sol\":2504:2516  avatarAmount */\n      dup1\n        /* \"distTwitter.sol\":2448:2462  avatarContract */\n      dup5\n        /* \"distTwitter.sol\":2439:2473  IERC1155(avatarContract).balanceOf */\n      0xffffffffffffffffffffffffffffffffffffffff\n      and\n      0xfdd58e\n        /* \"distTwitter.sol\":2474:2484  msg.sender */\n      caller\n        /* \"distTwitter.sol\":2486:2499  avatarTokenId */\n      dup7\n        /* \"distTwitter.sol\":2439:2500  IERC1155(avatarContract).balanceOf(msg.sender, avatarTokenId) */\n      mload(0x40)\n      dup4\n      0xffffffff\n      and\n      0xe0\n      shl\n      dup2\n      mstore\n      0x04\n      add\n      tag_51\n      swap3\n      swap2\n      swap1\n      tag_52\n      jump\t// in\n    tag_51:\n      0x20\n      mload(0x40)\n      dup1\n      dup4\n      sub\n      dup2\n      dup7\n      gas\n      staticcall\n      iszero\n      dup1\n      iszero\n      tag_54\n      jumpi\n      returndatasize\n      0x00\n      dup1\n      returndatacopy\n      revert(0x00, returndatasize)\n    tag_54:\n      pop\n      pop\n      pop\n      pop\n      mload(0x40)\n      returndatasize\n      not(0x1f)\n      0x1f\n      dup3\n      add\n      and\n      dup3\n      add\n      dup1\n      0x40\n      mstore\n      pop\n      dup2\n      add\n      swap1\n      tag_55\n      swap2\n      swap1\n      tag_56\n      jump\t// in\n    tag_55:\n        /* \"distTwitter.sol\":2439:2516  IERC1155(avatarContract).balanceOf(msg.sender, avatarTokenId) >= avatarAmount */\n      lt\n      iszero\n        /* \"distTwitter.sol\":2431:2559  require(IERC1155(avatarContract).balanceOf(msg.sender, avatarTokenId) >= avatarAmount, \"Insufficient balance for ERC1155 token\") */\n      tag_57\n      jumpi\n      mload(0x40)\n      0x08c379a000000000000000000000000000000000000000000000000000000000\n      dup2\n      mstore\n      0x04\n      add\n      tag_58\n      swap1\n      tag_59\n      jump\t// in\n    tag_58:\n      mload(0x40)\n      dup1\n      swap2\n      sub\n      swap1\n      revert\n    tag_57:\n        /* \"distTwitter.sol\":2401:2711  if (isERC1155) {... */\n      jump(tag_60)\n    tag_50:\n        /* \"distTwitter.sol\":2650:2660  msg.sender */\n      caller\n        /* \"distTwitter.sol\":2600:2660  IERC721(avatarContract).ownerOf(avatarTokenId) == msg.sender */\n      0xffffffffffffffffffffffffffffffffffffffff\n      and\n        /* \"distTwitter.sol\":2608:2622  avatarContract */\n      dup5\n        /* \"distTwitter.sol\":2600:2631  IERC721(avatarContract).ownerOf */\n      0xffffffffffffffffffffffffffffffffffffffff\n      and\n      0x6352211e\n        /* \"distTwitter.sol\":2632:2645  avatarTokenId */\n      dup6\n        /* \"distTwitter.sol\":2600:2646  IERC721(avatarContract).ownerOf(avatarTokenId) */\n      mload(0x40)\n      dup3\n      0xffffffff\n      and\n      0xe0\n      shl\n      dup2\n      mstore\n      0x04\n      add\n      tag_61\n      swap2\n      swap1\n      tag_35\n      jump\t// in\n    tag_61:\n      0x20\n      mload(0x40)\n      dup1\n      dup4\n      sub\n      dup2\n      dup7\n      gas\n      staticcall\n      iszero\n      dup1\n      iszero\n      tag_63\n      jumpi\n      returndatasize\n      0x00\n      dup1\n      returndatacopy\n      revert(0x00, returndatasize)\n    tag_63:\n      pop\n      pop\n      pop\n      pop\n      mload(0x40)\n      returndatasize\n      not(0x1f)\n      0x1f\n      dup3\n      add\n      and\n      dup3\n      add\n      dup1\n      0x40\n      mstore\n      pop\n      dup2\n      add\n      swap1\n      tag_64\n      swap2\n      swap1\n      tag_65\n      jump\t// in\n    tag_64:\n        /* \"distTwitter.sol\":2600:2660  IERC721(avatarContract).ownerOf(avatarTokenId) == msg.sender */\n      0xffffffffffffffffffffffffffffffffffffffff\n      and\n      eq\n        /* \"distTwitter.sol\":2592:2699  require(IERC721(avatarContract).ownerOf(avatarTokenId) == msg.sender, \"Not the owner of this ERC721 token\") */\n      tag_66\n      jumpi\n      mload(0x40)\n      0x08c379a000000000000000000000000000000000000000000000000000000000\n      dup2\n      mstore\n      0x04\n      add\n      tag_67\n      swap1\n      tag_68\n      jump\t// in\n    tag_67:\n      mload(0x40)\n      dup1\n      swap2\n      sub\n      swap1\n      revert\n    tag_66:\n        /* \"distTwitter.sol\":2401:2711  if (isERC1155) {... */\n    tag_60:\n        /* \"distTwitter.sol\":2762:2776  avatarContract */\n      dup4\n        /* \"distTwitter.sol\":2723:2732  _userInfo */\n      0x01\n        /* \"distTwitter.sol\":2723:2744  _userInfo[msg.sender] */\n      0x00\n        /* \"distTwitter.sol\":2733:2743  msg.sender */\n      caller\n        /* \"distTwitter.sol\":2723:2744  _userInfo[msg.sender] */\n      0xffffffffffffffffffffffffffffffffffffffff\n      and\n      0xffffffffffffffffffffffffffffffffffffffff\n      and\n      dup2\n      mstore\n      0x20\n      add\n      swap1\n      dup2\n      mstore\n      0x20\n      add\n      0x00\n      keccak256\n        /* \"distTwitter.sol\":2723:2759  _userInfo[msg.sender].avatarContract */\n      0x01\n      add\n      0x00\n        /* \"distTwitter.sol\":2723:2776  _userInfo[msg.sender].avatarContract = avatarContract */\n      0x0100\n      exp\n      dup2\n      sload\n      dup2\n      0xffffffffffffffffffffffffffffffffffffffff\n      mul\n      not\n      and\n      swap1\n      dup4\n      0xffffffffffffffffffffffffffffffffffffffff\n      and\n      mul\n      or\n      swap1\n      sstore\n      pop\n        /* \"distTwitter.sol\":2825:2838  avatarTokenId */\n      dup3\n        /* \"distTwitter.sol\":2787:2796  _userInfo */\n      0x01\n        /* \"distTwitter.sol\":2787:2808  _userInfo[msg.sender] */\n      0x00\n        /* \"distTwitter.sol\":2797:2807  msg.sender */\n      caller\n        /* \"distTwitter.sol\":2787:2808  _userInfo[msg.sender] */\n      0xffffffffffffffffffffffffffffffffffffffff\n      and\n      0xffffffffffffffffffffffffffffffffffffffff\n      and\n      dup2\n      mstore\n      0x20\n      add\n      swap1\n      dup2\n      mstore\n      0x20\n      add\n      0x00\n      keccak256\n        /* \"distTwitter.sol\":2787:2822  _userInfo[msg.sender].avatarTokenId */\n      0x02\n      add\n        /* \"distTwitter.sol\":2787:2838  _userInfo[msg.sender].avatarTokenId = avatarTokenId */\n      dup2\n      swap1\n      sstore\n      pop\n        /* \"distTwitter.sol\":2883:2892  isERC1155 */\n      dup2\n        /* \"distTwitter.sol\":2849:2858  _userInfo */\n      0x01\n        /* \"distTwitter.sol\":2849:2870  _userInfo[msg.sender] */\n      0x00\n        /* \"distTwitter.sol\":2859:2869  msg.sender */\n      caller\n        /* \"distTwitter.sol\":2849:2870  _userInfo[msg.sender] */\n      0xffffffffffffffffffffffffffffffffffffffff\n      and\n      0xffffffffffffffffffffffffffffffffffffffff\n      and\n      dup2\n      mstore\n      0x20\n      add\n      swap1\n      dup2\n      mstore\n      0x20\n      add\n      0x00\n      keccak256\n        /* \"distTwitter.sol\":2849:2880  _userInfo[msg.sender].isERC1155 */\n      0x03\n      add\n      0x00\n        /* \"distTwitter.sol\":2849:2892  _userInfo[msg.sender].isERC1155 = isERC1155 */\n      0x0100\n      exp\n      dup2\n      sload\n      dup2\n      0xff\n      mul\n      not\n      and\n      swap1\n      dup4\n      iszero\n      iszero\n      mul\n      or\n      swap1\n      sstore\n      pop\n        /* \"distTwitter.sol\":2940:2952  avatarAmount */\n      dup1\n        /* \"distTwitter.sol\":2903:2912  _userInfo */\n      0x01\n        /* \"distTwitter.sol\":2903:2924  _userInfo[msg.sender] */\n      0x00\n        /* \"distTwitter.sol\":2913:2923  msg.sender */\n      caller\n        /* \"distTwitter.sol\":2903:2924  _userInfo[msg.sender] */\n      0xffffffffffffffffffffffffffffffffffffffff\n      and\n      0xffffffffffffffffffffffffffffffffffffffff\n      and\n      dup2\n      mstore\n      0x20\n      add\n      swap1\n      dup2\n      mstore\n      0x20\n      add\n      0x00\n      keccak256\n        /* \"distTwitter.sol\":2903:2937  _userInfo[msg.sender].avatarAmount */\n      0x04\n      add\n        /* \"distTwitter.sol\":2903:2952  _userInfo[msg.sender].avatarAmount = avatarAmount */\n      dup2\n      swap1\n      sstore\n      pop\n        /* \"distTwitter.sol\":2984:2994  msg.sender */\n      caller\n        /* \"distTwitter.sol\":2970:3051  AvatarUpdated(msg.sender, avatarContract, avatarTokenId, isERC1155, avatarAmount) */\n      0xffffffffffffffffffffffffffffffffffffffff\n      and\n      0xc8e957e56727c39ec71c2591491672da075fc47164d0941669c875a15e6ccdd3\n        /* \"distTwitter.sol\":2996:3010  avatarContract */\n      dup6\n        /* \"distTwitter.sol\":3012:3025  avatarTokenId */\n      dup6\n        /* \"distTwitter.sol\":3027:3036  isERC1155 */\n      dup6\n        /* \"distTwitter.sol\":3038:3050  avatarAmount */\n      dup6\n        /* \"distTwitter.sol\":2970:3051  AvatarUpdated(msg.sender, avatarContract, avatarTokenId, isERC1155, avatarAmount) */\n      mload(0x40)\n      tag_69\n      swap5\n      swap4\n      swap3\n      swap2\n      swap1\n      tag_70\n      jump\t// in\n    tag_69:\n      mload(0x40)\n      dup1\n      swap2\n      sub\n      swap1\n      log2\n        /* \"distTwitter.sol\":2172:3059  function updateAvatar(address avatarContract, uint256 avatarTokenId, bool isERC1155, uint256 avatarAmount) external {... */\n      pop\n      pop\n      pop\n      pop\n      jump\t// out\n        /* \"distTwitter.sol\":3067:3183  function getUserInfo(address user) external view returns (UserInfo memory) {... */\n    tag_19:\n        /* \"distTwitter.sol\":3125:3140  UserInfo memory */\n      tag_71\n      tag_72\n      jump\t// in\n    tag_71:\n        /* \"distTwitter.sol\":3160:3169  _userInfo */\n      0x01\n        /* \"distTwitter.sol\":3160:3175  _userInfo[user] */\n      0x00\n        /* \"distTwitter.sol\":3170:3174  user */\n      dup4\n        /* \"distTwitter.sol\":3160:3175  _userInfo[user] */\n      0xffffffffffffffffffffffffffffffffffffffff\n      and\n      0xffffffffffffffffffffffffffffffffffffffff\n      and\n      dup2\n      mstore\n      0x20\n      add\n      swap1\n      dup2\n      mstore\n      0x20\n      add\n      0x00\n      keccak256\n        /* \"distTwitter.sol\":3153:3175  return _userInfo[user] */\n      mload(0x40)\n      dup1\n      0xa0\n      add\n      0x40\n      mstore\n      swap1\n      dup2\n      0x00\n      dup3\n      add\n      dup1\n      sload\n      tag_74\n      swap1\n      tag_46\n      jump\t// in\n    tag_74:\n      dup1\n      0x1f\n      add\n      0x20\n      dup1\n      swap2\n      div\n      mul\n      0x20\n      add\n      mload(0x40)\n      swap1\n      dup2\n      add\n      0x40\n      mstore\n      dup1\n      swap3\n      swap2\n      swap1\n      dup2\n      dup2\n      mstore\n      0x20\n      add\n      dup3\n      dup1\n      sload\n      tag_75\n      swap1\n      tag_46\n      jump\t// in\n    tag_75:\n      dup1\n      iszero\n      tag_76\n      jumpi\n      dup1\n      0x1f\n      lt\n      tag_77\n      jumpi\n      0x0100\n      dup1\n      dup4\n      sload\n      div\n      mul\n      dup4\n      mstore\n      swap2\n      0x20\n      add\n      swap2\n      jump(tag_76)\n    tag_77:\n      dup3\n      add\n      swap2\n      swap1\n      0x00\n      mstore\n      keccak256(0x00, 0x20)\n      swap1\n    tag_78:\n      dup2\n      sload\n      dup2\n      mstore\n      swap1\n      0x01\n      add\n      swap1\n      0x20\n      add\n      dup1\n      dup4\n      gt\n      tag_78\n      jumpi\n      dup3\n      swap1\n      sub\n      0x1f\n      and\n      dup3\n      add\n      swap2\n    tag_76:\n      pop\n      pop\n      pop\n      pop\n      pop\n      dup2\n      mstore\n      0x20\n      add\n      0x01\n      dup3\n      add\n      0x00\n      swap1\n      sload\n      swap1\n      0x0100\n      exp\n      swap1\n      div\n      0xffffffffffffffffffffffffffffffffffffffff\n      and\n      0xffffffffffffffffffffffffffffffffffffffff\n      and\n      0xffffffffffffffffffffffffffffffffffffffff\n      and\n      dup2\n      mstore\n      0x20\n      add\n      0x02\n      dup3\n      add\n      sload\n      dup2\n      mstore\n      0x20\n      add\n      0x03\n      dup3\n      add\n      0x00\n      swap1\n      sload\n      swap1\n      0x0100\n      exp\n      swap1\n      div\n      0xff\n      and\n      iszero\n      iszero\n      iszero\n      iszero\n      dup2\n      mstore\n      0x20\n      add\n      0x04\n      dup3\n      add\n      sload\n      dup2\n      mstore\n      pop\n      pop\n      swap1\n      pop\n        /* \"distTwitter.sol\":3067:3183  function getUserInfo(address user) external view returns (UserInfo memory) {... */\n      swap2\n      swap1\n      pop\n      jump\t// out\n        /* \"distTwitter.sol\":1032:2164  function registerUser(string calldata username, address avatarContract, uint256 avatarTokenId, bool isERC1155, uint256 avatarAmount) external {... */\n    tag_25:\n        /* \"distTwitter.sol\":1241:1242  0 */\n      0x00\n        /* \"distTwitter.sol\":1199:1208  _userInfo */\n      0x01\n        /* \"distTwitter.sol\":1199:1220  _userInfo[msg.sender] */\n      0x00\n        /* \"distTwitter.sol\":1209:1219  msg.sender */\n      caller\n        /* \"distTwitter.sol\":1199:1220  _userInfo[msg.sender] */\n      0xffffffffffffffffffffffffffffffffffffffff\n      and\n      0xffffffffffffffffffffffffffffffffffffffff\n      and\n      dup2\n      mstore\n      0x20\n      add\n      swap1\n      dup2\n      mstore\n      0x20\n      add\n      0x00\n      keccak256\n        /* \"distTwitter.sol\":1199:1229  _userInfo[msg.sender].username */\n      0x00\n      add\n        /* \"distTwitter.sol\":1193:1237  bytes(_userInfo[msg.sender].username).length */\n      dup1\n      sload\n      tag_80\n      swap1\n      tag_46\n      jump\t// in\n    tag_80:\n      swap1\n      pop\n        /* \"distTwitter.sol\":1193:1242  bytes(_userInfo[msg.sender].username).length == 0 */\n      eq\n        /* \"distTwitter.sol\":1185:1271  require(bytes(_userInfo[msg.sender].username).length == 0, \"User already registered.\") */\n      tag_81\n      jumpi\n      mload(0x40)\n      0x08c379a000000000000000000000000000000000000000000000000000000000\n      dup2\n      mstore\n      0x04\n      add\n      tag_82\n      swap1\n      tag_83\n      jump\t// in\n    tag_82:\n      mload(0x40)\n      dup1\n      swap2\n      sub\n      swap1\n      revert\n    tag_81:\n        /* \"distTwitter.sol\":1316:1317  4 */\n      0x04\n        /* \"distTwitter.sol\":1296:1304  username */\n      dup7\n      dup7\n        /* \"distTwitter.sol\":1290:1312  bytes(username).length */\n      swap1\n      pop\n        /* \"distTwitter.sol\":1290:1317  bytes(username).length >= 4 */\n      lt\n      iszero\n        /* \"distTwitter.sol\":1290:1349  bytes(username).length >= 4 && bytes(username).length <= 15 */\n      dup1\n      iszero\n      tag_84\n      jumpi\n      pop\n        /* \"distTwitter.sol\":1347:1349  15 */\n      0x0f\n        /* \"distTwitter.sol\":1327:1335  username */\n      dup7\n      dup7\n        /* \"distTwitter.sol\":1321:1343  bytes(username).length */\n      swap1\n      pop\n        /* \"distTwitter.sol\":1321:1349  bytes(username).length <= 15 */\n      gt\n      iszero\n        /* \"distTwitter.sol\":1290:1349  bytes(username).length >= 4 && bytes(username).length <= 15 */\n    tag_84:\n        /* \"distTwitter.sol\":1282:1395  require(bytes(username).length >= 4 && bytes(username).length <= 15, \"Username must be 4 to 15 characters long.\") */\n      tag_85\n      jumpi\n      mload(0x40)\n      0x08c379a000000000000000000000000000000000000000000000000000000000\n      dup2\n      mstore\n      0x04\n      add\n      tag_86\n      swap1\n      tag_87\n      jump\t// in\n    tag_86:\n      mload(0x40)\n      dup1\n      swap2\n      sub\n      swap1\n      revert\n    tag_85:\n        /* \"distTwitter.sol\":1412:1421  isERC1155 */\n      dup2\n        /* \"distTwitter.sol\":1408:1718  if (isERC1155) {... */\n      iszero\n      tag_88\n      jumpi\n        /* \"distTwitter.sol\":1511:1523  avatarAmount */\n      dup1\n        /* \"distTwitter.sol\":1455:1469  avatarContract */\n      dup5\n        /* \"distTwitter.sol\":1446:1480  IERC1155(avatarContract).balanceOf */\n      0xffffffffffffffffffffffffffffffffffffffff\n      and\n      0xfdd58e\n        /* \"distTwitter.sol\":1481:1491  msg.sender */\n      caller\n        /* \"distTwitter.sol\":1493:1506  avatarTokenId */\n      dup7\n        /* \"distTwitter.sol\":1446:1507  IERC1155(avatarContract).balanceOf(msg.sender, avatarTokenId) */\n      mload(0x40)\n      dup4\n      0xffffffff\n      and\n      0xe0\n      shl\n      dup2\n      mstore\n      0x04\n      add\n      tag_89\n      swap3\n      swap2\n      swap1\n      tag_52\n      jump\t// in\n    tag_89:\n      0x20\n      mload(0x40)\n      dup1\n      dup4\n      sub\n      dup2\n      dup7\n      gas\n      staticcall\n      iszero\n      dup1\n      iszero\n      tag_91\n      jumpi\n      returndatasize\n      0x00\n      dup1\n      returndatacopy\n      revert(0x00, returndatasize)\n    tag_91:\n      pop\n      pop\n      pop\n      pop\n      mload(0x40)\n      returndatasize\n      not(0x1f)\n      0x1f\n      dup3\n      add\n      and\n      dup3\n      add\n      dup1\n      0x40\n      mstore\n      pop\n      dup2\n      add\n      swap1\n      tag_92\n      swap2\n      swap1\n      tag_56\n      jump\t// in\n    tag_92:\n        /* \"distTwitter.sol\":1446:1523  IERC1155(avatarContract).balanceOf(msg.sender, avatarTokenId) >= avatarAmount */\n      lt\n      iszero\n        /* \"distTwitter.sol\":1438:1566  require(IERC1155(avatarContract).balanceOf(msg.sender, avatarTokenId) >= avatarAmount, \"Insufficient balance for ERC1155 token\") */\n      tag_93\n      jumpi\n      mload(0x40)\n      0x08c379a000000000000000000000000000000000000000000000000000000000\n      dup2\n      mstore\n      0x04\n      add\n      tag_94\n      swap1\n      tag_59\n      jump\t// in\n    tag_94:\n      mload(0x40)\n      dup1\n      swap2\n      sub\n      swap1\n      revert\n    tag_93:\n        /* \"distTwitter.sol\":1408:1718  if (isERC1155) {... */\n      jump(tag_95)\n    tag_88:\n        /* \"distTwitter.sol\":1657:1667  msg.sender */\n      caller\n        /* \"distTwitter.sol\":1607:1667  IERC721(avatarContract).ownerOf(avatarTokenId) == msg.sender */\n      0xffffffffffffffffffffffffffffffffffffffff\n      and\n        /* \"distTwitter.sol\":1615:1629  avatarContract */\n      dup5\n        /* \"distTwitter.sol\":1607:1638  IERC721(avatarContract).ownerOf */\n      0xffffffffffffffffffffffffffffffffffffffff\n      and\n      0x6352211e\n        /* \"distTwitter.sol\":1639:1652  avatarTokenId */\n      dup6\n        /* \"distTwitter.sol\":1607:1653  IERC721(avatarContract).ownerOf(avatarTokenId) */\n      mload(0x40)\n      dup3\n      0xffffffff\n      and\n      0xe0\n      shl\n      dup2\n      mstore\n      0x04\n      add\n      tag_96\n      swap2\n      swap1\n      tag_35\n      jump\t// in\n    tag_96:\n      0x20\n      mload(0x40)\n      dup1\n      dup4\n      sub\n      dup2\n      dup7\n      gas\n      staticcall\n      iszero\n      dup1\n      iszero\n      tag_98\n      jumpi\n      returndatasize\n      0x00\n      dup1\n      returndatacopy\n      revert(0x00, returndatasize)\n    tag_98:\n      pop\n      pop\n      pop\n      pop\n      mload(0x40)\n      returndatasize\n      not(0x1f)\n      0x1f\n      dup3\n      add\n      and\n      dup3\n      add\n      dup1\n      0x40\n      mstore\n      pop\n      dup2\n      add\n      swap1\n      tag_99\n      swap2\n      swap1\n      tag_65\n      jump\t// in\n    tag_99:\n        /* \"distTwitter.sol\":1607:1667  IERC721(avatarContract).ownerOf(avatarTokenId) == msg.sender */\n      0xffffffffffffffffffffffffffffffffffffffff\n      and\n      eq\n        /* \"distTwitter.sol\":1599:1706  require(IERC721(avatarContract).ownerOf(avatarTokenId) == msg.sender, \"Not the owner of this ERC721 token\") */\n      tag_100\n      jumpi\n      mload(0x40)\n      0x08c379a000000000000000000000000000000000000000000000000000000000\n      dup2\n      mstore\n      0x04\n      add\n      tag_101\n      swap1\n      tag_68\n      jump\t// in\n    tag_101:\n      mload(0x40)\n      dup1\n      swap2\n      sub\n      swap1\n      revert\n    tag_100:\n        /* \"distTwitter.sol\":1408:1718  if (isERC1155) {... */\n    tag_95:\n        /* \"distTwitter.sol\":1754:1972  UserInfo({... */\n      mload(0x40)\n      dup1\n      0xa0\n      add\n      0x40\n      mstore\n      dup1\n        /* \"distTwitter.sol\":1788:1796  username */\n      dup8\n      dup8\n        /* \"distTwitter.sol\":1754:1972  UserInfo({... */\n      dup1\n      dup1\n      0x1f\n      add\n      0x20\n      dup1\n      swap2\n      div\n      mul\n      0x20\n      add\n      mload(0x40)\n      swap1\n      dup2\n      add\n      0x40\n      mstore\n      dup1\n      swap4\n      swap3\n      swap2\n      swap1\n      dup2\n      dup2\n      mstore\n      0x20\n      add\n      dup4\n      dup4\n      dup1\n      dup3\n      dup5\n      calldatacopy\n      0x00\n      dup2\n      dup5\n      add\n      mstore\n      not(0x1f)\n      0x1f\n      dup3\n      add\n      and\n      swap1\n      pop\n      dup1\n      dup4\n      add\n      swap3\n      pop\n      pop\n      pop\n      pop\n      pop\n      pop\n      pop\n      dup2\n      mstore\n      0x20\n      add\n        /* \"distTwitter.sol\":1827:1841  avatarContract */\n      dup6\n        /* \"distTwitter.sol\":1754:1972  UserInfo({... */\n      0xffffffffffffffffffffffffffffffffffffffff\n      and\n      dup2\n      mstore\n      0x20\n      add\n        /* \"distTwitter.sol\":1871:1884  avatarTokenId */\n      dup5\n        /* \"distTwitter.sol\":1754:1972  UserInfo({... */\n      dup2\n      mstore\n      0x20\n      add\n        /* \"distTwitter.sol\":1910:1919  isERC1155 */\n      dup4\n        /* \"distTwitter.sol\":1754:1972  UserInfo({... */\n      iszero\n      iszero\n      dup2\n      mstore\n      0x20\n      add\n        /* \"distTwitter.sol\":1948:1960  avatarAmount */\n      dup3\n        /* \"distTwitter.sol\":1754:1972  UserInfo({... */\n      dup2\n      mstore\n      pop\n        /* \"distTwitter.sol\":1730:1739  _userInfo */\n      0x01\n        /* \"distTwitter.sol\":1730:1751  _userInfo[msg.sender] */\n      0x00\n        /* \"distTwitter.sol\":1740:1750  msg.sender */\n      caller\n        /* \"distTwitter.sol\":1730:1751  _userInfo[msg.sender] */\n      0xffffffffffffffffffffffffffffffffffffffff\n      and\n      0xffffffffffffffffffffffffffffffffffffffff\n      and\n      dup2\n      mstore\n      0x20\n      add\n      swap1\n      dup2\n      mstore\n      0x20\n      add\n      0x00\n      keccak256\n        /* \"distTwitter.sol\":1730:1972  _userInfo[msg.sender] = UserInfo({... */\n      0x00\n      dup3\n      add\n      mload\n      dup2\n      0x00\n      add\n      swap1\n      dup2\n      tag_102\n      swap2\n      swap1\n      tag_103\n      jump\t// in\n    tag_102:\n      pop\n      0x20\n      dup3\n      add\n      mload\n      dup2\n      0x01\n      add\n      exp(0x0100, 0x00)\n      dup2\n      sload\n      dup2\n      0xffffffffffffffffffffffffffffffffffffffff\n      mul\n      not\n      and\n      swap1\n      dup4\n      0xffffffffffffffffffffffffffffffffffffffff\n      and\n      mul\n      or\n      swap1\n      sstore\n      pop\n      0x40\n      dup3\n      add\n      mload\n      dup2\n      0x02\n      add\n      sstore\n      0x60\n      dup3\n      add\n      mload\n      dup2\n      0x03\n      add\n      exp(0x0100, 0x00)\n      dup2\n      sload\n      dup2\n      0xff\n      mul\n      not\n      and\n      swap1\n      dup4\n      iszero\n      iszero\n      mul\n      or\n      swap1\n      sstore\n      pop\n      0x80\n      dup3\n      add\n      mload\n      dup2\n      0x04\n      add\n      sstore\n      swap1\n      pop\n      pop\n        /* \"distTwitter.sol\":1983:1997  _userAddresses */\n      0x02\n        /* \"distTwitter.sol\":2003:2013  msg.sender */\n      caller\n        /* \"distTwitter.sol\":1983:2014  _userAddresses.push(msg.sender) */\n      swap1\n      dup1\n      0x01\n      dup2\n      sload\n      add\n      dup1\n      dup3\n      sstore\n      dup1\n      swap2\n      pop\n      pop\n      0x01\n      swap1\n      sub\n      swap1\n      0x00\n      mstore\n      keccak256(0x00, 0x20)\n      add\n      0x00\n      swap1\n      swap2\n      swap1\n      swap2\n      swap1\n      swap2\n      0x0100\n      exp\n      dup2\n      sload\n      dup2\n      0xffffffffffffffffffffffffffffffffffffffff\n      mul\n      not\n      and\n      swap1\n      dup4\n      0xffffffffffffffffffffffffffffffffffffffff\n      and\n      mul\n      or\n      swap1\n      sstore\n      pop\n        /* \"distTwitter.sol\":2079:2089  msg.sender */\n      caller\n        /* \"distTwitter.sol\":2064:2156  UserRegistered(msg.sender, username, avatarContract, avatarTokenId, isERC1155, avatarAmount) */\n      0xffffffffffffffffffffffffffffffffffffffff\n      and\n      0x32a1606c3d0be99908151354b21f632c3f084d710d9909fc4875bef23d1b068a\n        /* \"distTwitter.sol\":2091:2099  username */\n      dup8\n      dup8\n        /* \"distTwitter.sol\":2101:2115  avatarContract */\n      dup8\n        /* \"distTwitter.sol\":2117:2130  avatarTokenId */\n      dup8\n        /* \"distTwitter.sol\":2132:2141  isERC1155 */\n      dup8\n        /* \"distTwitter.sol\":2143:2155  avatarAmount */\n      dup8\n        /* \"distTwitter.sol\":2064:2156  UserRegistered(msg.sender, username, avatarContract, avatarTokenId, isERC1155, avatarAmount) */\n      mload(0x40)\n      tag_105\n      swap7\n      swap6\n      swap5\n      swap4\n      swap3\n      swap2\n      swap1\n      tag_106\n      jump\t// in\n    tag_105:\n      mload(0x40)\n      dup1\n      swap2\n      sub\n      swap1\n      log2\n        /* \"distTwitter.sol\":1032:2164  function registerUser(string calldata username, address avatarContract, uint256 avatarTokenId, bool isERC1155, uint256 avatarAmount) external {... */\n      pop\n      pop\n      pop\n      pop\n      pop\n      pop\n      jump\t// out\n        /* \"@openzeppelin/contracts/access/Ownable.sol\":2293:2394  function renounceOwnership() public virtual onlyOwner {... */\n    tag_27:\n        /* \"@openzeppelin/contracts/access/Ownable.sol\":1531:1544  _checkOwner() */\n      tag_108\n        /* \"@openzeppelin/contracts/access/Ownable.sol\":1531:1542  _checkOwner */\n      tag_109\n        /* \"@openzeppelin/contracts/access/Ownable.sol\":1531:1544  _checkOwner() */\n      jump\t// in\n    tag_108:\n        /* \"@openzeppelin/contracts/access/Ownable.sol\":2357:2387  _transferOwnership(address(0)) */\n      tag_111\n        /* \"@openzeppelin/contracts/access/Ownable.sol\":2384:2385  0 */\n      0x00\n        /* \"@openzeppelin/contracts/access/Ownable.sol\":2357:2375  _transferOwnership */\n      tag_112\n        /* \"@openzeppelin/contracts/access/Ownable.sol\":2357:2387  _transferOwnership(address(0)) */\n      jump\t// in\n    tag_111:\n        /* \"@openzeppelin/contracts/access/Ownable.sol\":2293:2394  function renounceOwnership() public virtual onlyOwner {... */\n      jump\t// out\n        /* \"@openzeppelin/contracts/access/Ownable.sol\":1638:1723  function owner() public view virtual returns (address) {... */\n    tag_29:\n        /* \"@openzeppelin/contracts/access/Ownable.sol\":1684:1691  address */\n      0x00\n        /* \"@openzeppelin/contracts/access/Ownable.sol\":1710:1716  _owner */\n      dup1\n      0x00\n      swap1\n      sload\n      swap1\n      0x0100\n      exp\n      swap1\n      div\n      0xffffffffffffffffffffffffffffffffffffffff\n      and\n        /* \"@openzeppelin/contracts/access/Ownable.sol\":1703:1716  return _owner */\n      swap1\n      pop\n        /* \"@openzeppelin/contracts/access/Ownable.sol\":1638:1723  function owner() public view virtual returns (address) {... */\n      swap1\n      jump\t// out\n        /* \"distTwitter.sol\":3191:3295  function getTotalUsers() external view returns (uint256) {... */\n    tag_33:\n        /* \"distTwitter.sol\":3239:3246  uint256 */\n      0x00\n        /* \"distTwitter.sol\":3266:3280  _userAddresses */\n      0x02\n        /* \"distTwitter.sol\":3266:3287  _userAddresses.length */\n      dup1\n      sload\n      swap1\n      pop\n        /* \"distTwitter.sol\":3259:3287  return _userAddresses.length */\n      swap1\n      pop\n        /* \"distTwitter.sol\":3191:3295  function getTotalUsers() external view returns (uint256) {... */\n      swap1\n      jump\t// out\n        /* \"@openzeppelin/contracts/access/Ownable.sol\":2543:2758  function transferOwnership(address newOwner) public virtual onlyOwner {... */\n    tag_38:\n        /* \"@openzeppelin/contracts/access/Ownable.sol\":1531:1544  _checkOwner() */\n      tag_116\n        /* \"@openzeppelin/contracts/access/Ownable.sol\":1531:1542  _checkOwner */\n      tag_109\n        /* \"@openzeppelin/contracts/access/Ownable.sol\":1531:1544  _checkOwner() */\n      jump\t// in\n    tag_116:\n        /* \"@openzeppelin/contracts/access/Ownable.sol\":2647:2648  0 */\n      0x00\n        /* \"@openzeppelin/contracts/access/Ownable.sol\":2627:2649  newOwner == address(0) */\n      0xffffffffffffffffffffffffffffffffffffffff\n      and\n        /* \"@openzeppelin/contracts/access/Ownable.sol\":2627:2635  newOwner */\n      dup2\n        /* \"@openzeppelin/contracts/access/Ownable.sol\":2627:2649  newOwner == address(0) */\n      0xffffffffffffffffffffffffffffffffffffffff\n      and\n      sub\n        /* \"@openzeppelin/contracts/access/Ownable.sol\":2623:2714  if (newOwner == address(0)) {... */\n      tag_118\n      jumpi\n        /* \"@openzeppelin/contracts/access/Ownable.sol\":2700:2701  0 */\n      0x00\n        /* \"@openzeppelin/contracts/access/Ownable.sol\":2672:2703  OwnableInvalidOwner(address(0)) */\n      mload(0x40)\n      0x1e4fbdf700000000000000000000000000000000000000000000000000000000\n      dup2\n      mstore\n      0x04\n      add\n      tag_119\n      swap2\n      swap1\n      tag_31\n      jump\t// in\n    tag_119:\n      mload(0x40)\n      dup1\n      swap2\n      sub\n      swap1\n      revert\n        /* \"@openzeppelin/contracts/access/Ownable.sol\":2623:2714  if (newOwner == address(0)) {... */\n    tag_118:\n        /* \"@openzeppelin/contracts/access/Ownable.sol\":2723:2751  _transferOwnership(newOwner) */\n      tag_120\n        /* \"@openzeppelin/contracts/access/Ownable.sol\":2742:2750  newOwner */\n      dup2\n        /* \"@openzeppelin/contracts/access/Ownable.sol\":2723:2741  _transferOwnership */\n      tag_112\n        /* \"@openzeppelin/contracts/access/Ownable.sol\":2723:2751  _transferOwnership(newOwner) */\n      jump\t// in\n    tag_120:\n        /* \"@openzeppelin/contracts/access/Ownable.sol\":2543:2758  function transferOwnership(address newOwner) public virtual onlyOwner {... */\n      pop\n      jump\t// out\n        /* \"distTwitter.sol\":3303:3493  function getUserByIndex(uint256 index) external view returns (address) {... */\n    tag_42:\n        /* \"distTwitter.sol\":3365:3372  address */\n      0x00\n        /* \"distTwitter.sol\":3401:3415  _userAddresses */\n      0x02\n        /* \"distTwitter.sol\":3401:3422  _userAddresses.length */\n      dup1\n      sload\n      swap1\n      pop\n        /* \"distTwitter.sol\":3393:3398  index */\n      dup3\n        /* \"distTwitter.sol\":3393:3422  index < _userAddresses.length */\n      lt\n        /* \"distTwitter.sol\":3385:3446  require(index < _userAddresses.length, \"Index out of bounds\") */\n      tag_122\n      jumpi\n      mload(0x40)\n      0x08c379a000000000000000000000000000000000000000000000000000000000\n      dup2\n      mstore\n      0x04\n      add\n      tag_123\n      swap1\n      tag_124\n      jump\t// in\n    tag_123:\n      mload(0x40)\n      dup1\n      swap2\n      sub\n      swap1\n      revert\n    tag_122:\n        /* \"distTwitter.sol\":3464:3478  _userAddresses */\n      0x02\n        /* \"distTwitter.sol\":3479:3484  index */\n      dup3\n        /* \"distTwitter.sol\":3464:3485  _userAddresses[index] */\n      dup2\n      sload\n      dup2\n      lt\n      tag_125\n      jumpi\n      tag_126\n      tag_127\n      jump\t// in\n    tag_126:\n    tag_125:\n      swap1\n      0x00\n      mstore\n      keccak256(0x00, 0x20)\n      add\n      0x00\n      swap1\n      sload\n      swap1\n      0x0100\n      exp\n      swap1\n      div\n      0xffffffffffffffffffffffffffffffffffffffff\n      and\n        /* \"distTwitter.sol\":3457:3485  return _userAddresses[index] */\n      swap1\n      pop\n        /* \"distTwitter.sol\":3303:3493  function getUserByIndex(uint256 index) external view returns (address) {... */\n      swap2\n      swap1\n      pop\n      jump\t// out\n        /* \"@openzeppelin/contracts/access/Ownable.sol\":1796:1958  function _checkOwner() internal view virtual {... */\n    tag_109:\n        /* \"@openzeppelin/contracts/access/Ownable.sol\":1866:1878  _msgSender() */\n      tag_130\n        /* \"@openzeppelin/contracts/access/Ownable.sol\":1866:1876  _msgSender */\n      tag_131\n        /* \"@openzeppelin/contracts/access/Ownable.sol\":1866:1878  _msgSender() */\n      jump\t// in\n    tag_130:\n        /* \"@openzeppelin/contracts/access/Ownable.sol\":1855:1878  owner() != _msgSender() */\n      0xffffffffffffffffffffffffffffffffffffffff\n      and\n        /* \"@openzeppelin/contracts/access/Ownable.sol\":1855:1862  owner() */\n      tag_132\n        /* \"@openzeppelin/contracts/access/Ownable.sol\":1855:1860  owner */\n      tag_29\n        /* \"@openzeppelin/contracts/access/Ownable.sol\":1855:1862  owner() */\n      jump\t// in\n    tag_132:\n        /* \"@openzeppelin/contracts/access/Ownable.sol\":1855:1878  owner() != _msgSender() */\n      0xffffffffffffffffffffffffffffffffffffffff\n      and\n      eq\n        /* \"@openzeppelin/contracts/access/Ownable.sol\":1851:1952  if (owner() != _msgSender()) {... */\n      tag_133\n      jumpi\n        /* \"@openzeppelin/contracts/access/Ownable.sol\":1928:1940  _msgSender() */\n      tag_134\n        /* \"@openzeppelin/contracts/access/Ownable.sol\":1928:1938  _msgSender */\n      tag_131\n        /* \"@openzeppelin/contracts/access/Ownable.sol\":1928:1940  _msgSender() */\n      jump\t// in\n    tag_134:\n        /* \"@openzeppelin/contracts/access/Ownable.sol\":1901:1941  OwnableUnauthorizedAccount(_msgSender()) */\n      mload(0x40)\n      0x118cdaa700000000000000000000000000000000000000000000000000000000\n      dup2\n      mstore\n      0x04\n      add\n      tag_135\n      swap2\n      swap1\n      tag_31\n      jump\t// in\n    tag_135:\n      mload(0x40)\n      dup1\n      swap2\n      sub\n      swap1\n      revert\n        /* \"@openzeppelin/contracts/access/Ownable.sol\":1851:1952  if (owner() != _msgSender()) {... */\n    tag_133:\n        /* \"@openzeppelin/contracts/access/Ownable.sol\":1796:1958  function _checkOwner() internal view virtual {... */\n      jump\t// out\n        /* \"@openzeppelin/contracts/access/Ownable.sol\":2912:3099  function _transferOwnership(address newOwner) internal virtual {... */\n    tag_112:\n        /* \"@openzeppelin/contracts/access/Ownable.sol\":2985:3001  address oldOwner */\n      0x00\n        /* \"@openzeppelin/contracts/access/Ownable.sol\":3004:3010  _owner */\n      dup1\n      0x00\n      swap1\n      sload\n      swap1\n      0x0100\n      exp\n      swap1\n      div\n      0xffffffffffffffffffffffffffffffffffffffff\n      and\n        /* \"@openzeppelin/contracts/access/Ownable.sol\":2985:3010  address oldOwner = _owner */\n      swap1\n      pop\n        /* \"@openzeppelin/contracts/access/Ownable.sol\":3029:3037  newOwner */\n      dup2\n        /* \"@openzeppelin/contracts/access/Ownable.sol\":3020:3026  _owner */\n      0x00\n      dup1\n        /* \"@openzeppelin/contracts/access/Ownable.sol\":3020:3037  _owner = newOwner */\n      0x0100\n      exp\n      dup2\n      sload\n      dup2\n      0xffffffffffffffffffffffffffffffffffffffff\n      mul\n      not\n      and\n      swap1\n      dup4\n      0xffffffffffffffffffffffffffffffffffffffff\n      and\n      mul\n      or\n      swap1\n      sstore\n      pop\n        /* \"@openzeppelin/contracts/access/Ownable.sol\":3083:3091  newOwner */\n      dup2\n        /* \"@openzeppelin/contracts/access/Ownable.sol\":3052:3092  OwnershipTransferred(oldOwner, newOwner) */\n      0xffffffffffffffffffffffffffffffffffffffff\n      and\n        /* \"@openzeppelin/contracts/access/Ownable.sol\":3073:3081  oldOwner */\n      dup2\n        /* \"@openzeppelin/contracts/access/Ownable.sol\":3052:3092  OwnershipTransferred(oldOwner, newOwner) */\n      0xffffffffffffffffffffffffffffffffffffffff\n      and\n      0x8be0079c531659141344cd1fd0a4f28419497f9722a3daafe3b4186f6b6457e0\n      mload(0x40)\n      mload(0x40)\n      dup1\n      swap2\n      sub\n      swap1\n      log3\n        /* \"@openzeppelin/contracts/access/Ownable.sol\":2975:3099  {... */\n      pop\n        /* \"@openzeppelin/contracts/access/Ownable.sol\":2912:3099  function _transferOwnership(address newOwner) internal virtual {... */\n      pop\n      jump\t// out\n        /* \"@openzeppelin/contracts/utils/Context.sol\":656:752  function _msgSender() internal view virtual returns (address) {... */\n    tag_131:\n        /* \"@openzeppelin/contracts/utils/Context.sol\":709:716  address */\n      0x00\n        /* \"@openzeppelin/contracts/utils/Context.sol\":735:745  msg.sender */\n      caller\n        /* \"@openzeppelin/contracts/utils/Context.sol\":728:745  return msg.sender */\n      swap1\n      pop\n        /* \"@openzeppelin/contracts/utils/Context.sol\":656:752  function _msgSender() internal view virtual returns (address) {... */\n      swap1\n      jump\t// out\n    tag_72:\n      mload(0x40)\n      dup1\n      0xa0\n      add\n      0x40\n      mstore\n      dup1\n      0x60\n      dup2\n      mstore\n      0x20\n      add\n      and(0xffffffffffffffffffffffffffffffffffffffff, 0x00)\n      dup2\n      mstore\n      0x20\n      add\n      0x00\n      dup2\n      mstore\n      0x20\n      add\n      iszero(iszero(0x00))\n      dup2\n      mstore\n      0x20\n      add\n      0x00\n      dup2\n      mstore\n      pop\n      swap1\n      jump\t// out\n        /* \"#utility.yul\":88:205   */\n    tag_139:\n        /* \"#utility.yul\":197:198   */\n      0x00\n        /* \"#utility.yul\":194:195   */\n      dup1\n        /* \"#utility.yul\":187:199   */\n      revert\n        /* \"#utility.yul\":211:328   */\n    tag_140:\n        /* \"#utility.yul\":320:321   */\n      0x00\n        /* \"#utility.yul\":317:318   */\n      dup1\n        /* \"#utility.yul\":310:322   */\n      revert\n        /* \"#utility.yul\":334:460   */\n    tag_141:\n        /* \"#utility.yul\":371:378   */\n      0x00\n        /* \"#utility.yul\":411:453   */\n      0xffffffffffffffffffffffffffffffffffffffff\n        /* \"#utility.yul\":404:409   */\n      dup3\n        /* \"#utility.yul\":400:454   */\n      and\n        /* \"#utility.yul\":389:454   */\n      swap1\n      pop\n        /* \"#utility.yul\":334:460   */\n      swap2\n      swap1\n      pop\n      jump\t// out\n        /* \"#utility.yul\":466:562   */\n    tag_142:\n        /* \"#utility.yul\":503:510   */\n      0x00\n        /* \"#utility.yul\":532:556   */\n      tag_207\n        /* \"#utility.yul\":550:555   */\n      dup3\n        /* \"#utility.yul\":532:556   */\n      tag_141\n      jump\t// in\n    tag_207:\n        /* \"#utility.yul\":521:556   */\n      swap1\n      pop\n        /* \"#utility.yul\":466:562   */\n      swap2\n      swap1\n      pop\n      jump\t// out\n        /* \"#utility.yul\":568:690   */\n    tag_143:\n        /* \"#utility.yul\":641:665   */\n      tag_209\n        /* \"#utility.yul\":659:664   */\n      dup2\n        /* \"#utility.yul\":641:665   */\n      tag_142\n      jump\t// in\n    tag_209:\n        /* \"#utility.yul\":634:639   */\n      dup2\n        /* \"#utility.yul\":631:666   */\n      eq\n        /* \"#utility.yul\":621:684   */\n      tag_210\n      jumpi\n        /* \"#utility.yul\":680:681   */\n      0x00\n        /* \"#utility.yul\":677:678   */\n      dup1\n        /* \"#utility.yul\":670:682   */\n      revert\n        /* \"#utility.yul\":621:684   */\n    tag_210:\n        /* \"#utility.yul\":568:690   */\n      pop\n      jump\t// out\n        /* \"#utility.yul\":696:835   */\n    tag_144:\n        /* \"#utility.yul\":742:747   */\n      0x00\n        /* \"#utility.yul\":780:786   */\n      dup2\n        /* \"#utility.yul\":767:787   */\n      calldataload\n        /* \"#utility.yul\":758:787   */\n      swap1\n      pop\n        /* \"#utility.yul\":796:829   */\n      tag_212\n        /* \"#utility.yul\":823:828   */\n      dup2\n        /* \"#utility.yul\":796:829   */\n      tag_143\n      jump\t// in\n    tag_212:\n        /* \"#utility.yul\":696:835   */\n      swap3\n      swap2\n      pop\n      pop\n      jump\t// out\n        /* \"#utility.yul\":841:918   */\n    tag_145:\n        /* \"#utility.yul\":878:885   */\n      0x00\n        /* \"#utility.yul\":907:912   */\n      dup2\n        /* \"#utility.yul\":896:912   */\n      swap1\n      pop\n        /* \"#utility.yul\":841:918   */\n      swap2\n      swap1\n      pop\n      jump\t// out\n        /* \"#utility.yul\":924:1046   */\n    tag_146:\n        /* \"#utility.yul\":997:1021   */\n      tag_215\n        /* \"#utility.yul\":1015:1020   */\n      dup2\n        /* \"#utility.yul\":997:1021   */\n      tag_145\n      jump\t// in\n    tag_215:\n        /* \"#utility.yul\":990:995   */\n      dup2\n        /* \"#utility.yul\":987:1022   */\n      eq\n        /* \"#utility.yul\":977:1040   */\n      tag_216\n      jumpi\n        /* \"#utility.yul\":1036:1037   */\n      0x00\n        /* \"#utility.yul\":1033:1034   */\n      dup1\n        /* \"#utility.yul\":1026:1038   */\n      revert\n        /* \"#utility.yul\":977:1040   */\n    tag_216:\n        /* \"#utility.yul\":924:1046   */\n      pop\n      jump\t// out\n        /* \"#utility.yul\":1052:1191   */\n    tag_147:\n        /* \"#utility.yul\":1098:1103   */\n      0x00\n        /* \"#utility.yul\":1136:1142   */\n      dup2\n        /* \"#utility.yul\":1123:1143   */\n      calldataload\n        /* \"#utility.yul\":1114:1143   */\n      swap1\n      pop\n        /* \"#utility.yul\":1152:1185   */\n      tag_218\n        /* \"#utility.yul\":1179:1184   */\n      dup2\n        /* \"#utility.yul\":1152:1185   */\n      tag_146\n      jump\t// in\n    tag_218:\n        /* \"#utility.yul\":1052:1191   */\n      swap3\n      swap2\n      pop\n      pop\n      jump\t// out\n        /* \"#utility.yul\":1197:1287   */\n    tag_148:\n        /* \"#utility.yul\":1231:1238   */\n      0x00\n        /* \"#utility.yul\":1274:1279   */\n      dup2\n        /* \"#utility.yul\":1267:1280   */\n      iszero\n        /* \"#utility.yul\":1260:1281   */\n      iszero\n        /* \"#utility.yul\":1249:1281   */\n      swap1\n      pop\n        /* \"#utility.yul\":1197:1287   */\n      swap2\n      swap1\n      pop\n      jump\t// out\n        /* \"#utility.yul\":1293:1409   */\n    tag_149:\n        /* \"#utility.yul\":1363:1384   */\n      tag_221\n        /* \"#utility.yul\":1378:1383   */\n      dup2\n        /* \"#utility.yul\":1363:1384   */\n      tag_148\n      jump\t// in\n    tag_221:\n        /* \"#utility.yul\":1356:1361   */\n      dup2\n        /* \"#utility.yul\":1353:1385   */\n      eq\n        /* \"#utility.yul\":1343:1403   */\n      tag_222\n      jumpi\n        /* \"#utility.yul\":1399:1400   */\n      0x00\n        /* \"#utility.yul\":1396:1397   */\n      dup1\n        /* \"#utility.yul\":1389:1401   */\n      revert\n        /* \"#utility.yul\":1343:1403   */\n    tag_222:\n        /* \"#utility.yul\":1293:1409   */\n      pop\n      jump\t// out\n        /* \"#utility.yul\":1415:1548   */\n    tag_150:\n        /* \"#utility.yul\":1458:1463   */\n      0x00\n        /* \"#utility.yul\":1496:1502   */\n      dup2\n        /* \"#utility.yul\":1483:1503   */\n      calldataload\n        /* \"#utility.yul\":1474:1503   */\n      swap1\n      pop\n        /* \"#utility.yul\":1512:1542   */\n      tag_224\n        /* \"#utility.yul\":1536:1541   */\n      dup2\n        /* \"#utility.yul\":1512:1542   */\n      tag_149\n      jump\t// in\n    tag_224:\n        /* \"#utility.yul\":1415:1548   */\n      swap3\n      swap2\n      pop\n      pop\n      jump\t// out\n        /* \"#utility.yul\":1554:2313   */\n    tag_14:\n        /* \"#utility.yul\":1637:1643   */\n      0x00\n        /* \"#utility.yul\":1645:1651   */\n      dup1\n        /* \"#utility.yul\":1653:1659   */\n      0x00\n        /* \"#utility.yul\":1661:1667   */\n      dup1\n        /* \"#utility.yul\":1710:1713   */\n      0x80\n        /* \"#utility.yul\":1698:1707   */\n      dup6\n        /* \"#utility.yul\":1689:1696   */\n      dup8\n        /* \"#utility.yul\":1685:1708   */\n      sub\n        /* \"#utility.yul\":1681:1714   */\n      slt\n        /* \"#utility.yul\":1678:1798   */\n      iszero\n      tag_226\n      jumpi\n        /* \"#utility.yul\":1717:1796   */\n      tag_227\n      tag_139\n      jump\t// in\n    tag_227:\n        /* \"#utility.yul\":1678:1798   */\n    tag_226:\n        /* \"#utility.yul\":1837:1838   */\n      0x00\n        /* \"#utility.yul\":1862:1915   */\n      tag_228\n        /* \"#utility.yul\":1907:1914   */\n      dup8\n        /* \"#utility.yul\":1898:1904   */\n      dup3\n        /* \"#utility.yul\":1887:1896   */\n      dup9\n        /* \"#utility.yul\":1883:1905   */\n      add\n        /* \"#utility.yul\":1862:1915   */\n      tag_144\n      jump\t// in\n    tag_228:\n        /* \"#utility.yul\":1852:1915   */\n      swap5\n      pop\n        /* \"#utility.yul\":1808:1925   */\n      pop\n        /* \"#utility.yul\":1964:1966   */\n      0x20\n        /* \"#utility.yul\":1990:2043   */\n      tag_229\n        /* \"#utility.yul\":2035:2042   */\n      dup8\n        /* \"#utility.yul\":2026:2032   */\n      dup3\n        /* \"#utility.yul\":2015:2024   */\n      dup9\n        /* \"#utility.yul\":2011:2033   */\n      add\n        /* \"#utility.yul\":1990:2043   */\n      tag_147\n      jump\t// in\n    tag_229:\n        /* \"#utility.yul\":1980:2043   */\n      swap4\n      pop\n        /* \"#utility.yul\":1935:2053   */\n      pop\n        /* \"#utility.yul\":2092:2094   */\n      0x40\n        /* \"#utility.yul\":2118:2168   */\n      tag_230\n        /* \"#utility.yul\":2160:2167   */\n      dup8\n        /* \"#utility.yul\":2151:2157   */\n      dup3\n        /* \"#utility.yul\":2140:2149   */\n      dup9\n        /* \"#utility.yul\":2136:2158   */\n      add\n        /* \"#utility.yul\":2118:2168   */\n      tag_150\n      jump\t// in\n    tag_230:\n        /* \"#utility.yul\":2108:2168   */\n      swap3\n      pop\n        /* \"#utility.yul\":2063:2178   */\n      pop\n        /* \"#utility.yul\":2217:2219   */\n      0x60\n        /* \"#utility.yul\":2243:2296   */\n      tag_231\n        /* \"#utility.yul\":2288:2295   */\n      dup8\n        /* \"#utility.yul\":2279:2285   */\n      dup3\n        /* \"#utility.yul\":2268:2277   */\n      dup9\n        /* \"#utility.yul\":2264:2286   */\n      add\n        /* \"#utility.yul\":2243:2296   */\n      tag_147\n      jump\t// in\n    tag_231:\n        /* \"#utility.yul\":2233:2296   */\n      swap2\n      pop\n        /* \"#utility.yul\":2188:2306   */\n      pop\n        /* \"#utility.yul\":1554:2313   */\n      swap3\n      swap6\n      swap2\n      swap5\n      pop\n      swap3\n      pop\n      jump\t// out\n        /* \"#utility.yul\":2319:2648   */\n    tag_18:\n        /* \"#utility.yul\":2378:2384   */\n      0x00\n        /* \"#utility.yul\":2427:2429   */\n      0x20\n        /* \"#utility.yul\":2415:2424   */\n      dup3\n        /* \"#utility.yul\":2406:2413   */\n      dup5\n        /* \"#utility.yul\":2402:2425   */\n      sub\n        /* \"#utility.yul\":2398:2430   */\n      slt\n        /* \"#utility.yul\":2395:2514   */\n      iszero\n      tag_233\n      jumpi\n        /* \"#utility.yul\":2433:2512   */\n      tag_234\n      tag_139\n      jump\t// in\n    tag_234:\n        /* \"#utility.yul\":2395:2514   */\n    tag_233:\n        /* \"#utility.yul\":2553:2554   */\n      0x00\n        /* \"#utility.yul\":2578:2631   */\n      tag_235\n        /* \"#utility.yul\":2623:2630   */\n      dup5\n        /* \"#utility.yul\":2614:2620   */\n      dup3\n        /* \"#utility.yul\":2603:2612   */\n      dup6\n        /* \"#utility.yul\":2599:2621   */\n      add\n        /* \"#utility.yul\":2578:2631   */\n      tag_144\n      jump\t// in\n    tag_235:\n        /* \"#utility.yul\":2568:2631   */\n      swap2\n      pop\n        /* \"#utility.yul\":2524:2641   */\n      pop\n        /* \"#utility.yul\":2319:2648   */\n      swap3\n      swap2\n      pop\n      pop\n      jump\t// out\n        /* \"#utility.yul\":2654:2753   */\n    tag_151:\n        /* \"#utility.yul\":2706:2712   */\n      0x00\n        /* \"#utility.yul\":2740:2745   */\n      dup2\n        /* \"#utility.yul\":2734:2746   */\n      mload\n        /* \"#utility.yul\":2724:2746   */\n      swap1\n      pop\n        /* \"#utility.yul\":2654:2753   */\n      swap2\n      swap1\n      pop\n      jump\t// out\n        /* \"#utility.yul\":2759:2918   */\n    tag_152:\n        /* \"#utility.yul\":2833:2844   */\n      0x00\n        /* \"#utility.yul\":2867:2873   */\n      dup3\n        /* \"#utility.yul\":2862:2865   */\n      dup3\n        /* \"#utility.yul\":2855:2874   */\n      mstore\n        /* \"#utility.yul\":2907:2911   */\n      0x20\n        /* \"#utility.yul\":2902:2905   */\n      dup3\n        /* \"#utility.yul\":2898:2912   */\n      add\n        /* \"#utility.yul\":2883:2912   */\n      swap1\n      pop\n        /* \"#utility.yul\":2759:2918   */\n      swap3\n      swap2\n      pop\n      pop\n      jump\t// out\n        /* \"#utility.yul\":2924:3170   */\n    tag_153:\n        /* \"#utility.yul\":3005:3006   */\n      0x00\n        /* \"#utility.yul\":3015:3128   */\n    tag_239:\n        /* \"#utility.yul\":3029:3035   */\n      dup4\n        /* \"#utility.yul\":3026:3027   */\n      dup2\n        /* \"#utility.yul\":3023:3036   */\n      lt\n        /* \"#utility.yul\":3015:3128   */\n      iszero\n      tag_241\n      jumpi\n        /* \"#utility.yul\":3114:3115   */\n      dup1\n        /* \"#utility.yul\":3109:3112   */\n      dup3\n        /* \"#utility.yul\":3105:3116   */\n      add\n        /* \"#utility.yul\":3099:3117   */\n      mload\n        /* \"#utility.yul\":3095:3096   */\n      dup2\n        /* \"#utility.yul\":3090:3093   */\n      dup5\n        /* \"#utility.yul\":3086:3097   */\n      add\n        /* \"#utility.yul\":3079:3118   */\n      mstore\n        /* \"#utility.yul\":3051:3053   */\n      0x20\n        /* \"#utility.yul\":3048:3049   */\n      dup2\n        /* \"#utility.yul\":3044:3054   */\n      add\n        /* \"#utility.yul\":3039:3054   */\n      swap1\n      pop\n        /* \"#utility.yul\":3015:3128   */\n      jump(tag_239)\n    tag_241:\n        /* \"#utility.yul\":3162:3163   */\n      0x00\n        /* \"#utility.yul\":3153:3159   */\n      dup5\n        /* \"#utility.yul\":3148:3151   */\n      dup5\n        /* \"#utility.yul\":3144:3160   */\n      add\n        /* \"#utility.yul\":3137:3164   */\n      mstore\n        /* \"#utility.yul\":2986:3170   */\n      pop\n        /* \"#utility.yul\":2924:3170   */\n      pop\n      pop\n      pop\n      jump\t// out\n        /* \"#utility.yul\":3176:3278   */\n    tag_154:\n        /* \"#utility.yul\":3217:3223   */\n      0x00\n        /* \"#utility.yul\":3268:3270   */\n      0x1f\n        /* \"#utility.yul\":3264:3271   */\n      not\n        /* \"#utility.yul\":3259:3261   */\n      0x1f\n        /* \"#utility.yul\":3252:3257   */\n      dup4\n        /* \"#utility.yul\":3248:3262   */\n      add\n        /* \"#utility.yul\":3244:3272   */\n      and\n        /* \"#utility.yul\":3234:3272   */\n      swap1\n      pop\n        /* \"#utility.yul\":3176:3278   */\n      swap2\n      swap1\n      pop\n      jump\t// out\n        /* \"#utility.yul\":3284:3641   */\n    tag_155:\n        /* \"#utility.yul\":3362:3365   */\n      0x00\n        /* \"#utility.yul\":3390:3429   */\n      tag_244\n        /* \"#utility.yul\":3423:3428   */\n      dup3\n        /* \"#utility.yul\":3390:3429   */\n      tag_151\n      jump\t// in\n    tag_244:\n        /* \"#utility.yul\":3445:3506   */\n      tag_245\n        /* \"#utility.yul\":3499:3505   */\n      dup2\n        /* \"#utility.yul\":3494:3497   */\n      dup6\n        /* \"#utility.yul\":3445:3506   */\n      tag_152\n      jump\t// in\n    tag_245:\n        /* \"#utility.yul\":3438:3506   */\n      swap4\n      pop\n        /* \"#utility.yul\":3515:3580   */\n      tag_246\n        /* \"#utility.yul\":3573:3579   */\n      dup2\n        /* \"#utility.yul\":3568:3571   */\n      dup6\n        /* \"#utility.yul\":3561:3565   */\n      0x20\n        /* \"#utility.yul\":3554:3559   */\n      dup7\n        /* \"#utility.yul\":3550:3566   */\n      add\n        /* \"#utility.yul\":3515:3580   */\n      tag_153\n      jump\t// in\n    tag_246:\n        /* \"#utility.yul\":3605:3634   */\n      tag_247\n        /* \"#utility.yul\":3627:3633   */\n      dup2\n        /* \"#utility.yul\":3605:3634   */\n      tag_154\n      jump\t// in\n    tag_247:\n        /* \"#utility.yul\":3600:3603   */\n      dup5\n        /* \"#utility.yul\":3596:3635   */\n      add\n        /* \"#utility.yul\":3589:3635   */\n      swap2\n      pop\n        /* \"#utility.yul\":3366:3641   */\n      pop\n        /* \"#utility.yul\":3284:3641   */\n      swap3\n      swap2\n      pop\n      pop\n      jump\t// out\n        /* \"#utility.yul\":3647:3755   */\n    tag_156:\n        /* \"#utility.yul\":3724:3748   */\n      tag_249\n        /* \"#utility.yul\":3742:3747   */\n      dup2\n        /* \"#utility.yul\":3724:3748   */\n      tag_142\n      jump\t// in\n    tag_249:\n        /* \"#utility.yul\":3719:3722   */\n      dup3\n        /* \"#utility.yul\":3712:3749   */\n      mstore\n        /* \"#utility.yul\":3647:3755   */\n      pop\n      pop\n      jump\t// out\n        /* \"#utility.yul\":3761:3869   */\n    tag_157:\n        /* \"#utility.yul\":3838:3862   */\n      tag_251\n        /* \"#utility.yul\":3856:3861   */\n      dup2\n        /* \"#utility.yul\":3838:3862   */\n      tag_145\n      jump\t// in\n    tag_251:\n        /* \"#utility.yul\":3833:3836   */\n      dup3\n        /* \"#utility.yul\":3826:3863   */\n      mstore\n        /* \"#utility.yul\":3761:3869   */\n      pop\n      pop\n      jump\t// out\n        /* \"#utility.yul\":3875:3974   */\n    tag_158:\n        /* \"#utility.yul\":3946:3967   */\n      tag_253\n        /* \"#utility.yul\":3961:3966   */\n      dup2\n        /* \"#utility.yul\":3946:3967   */\n      tag_148\n      jump\t// in\n    tag_253:\n        /* \"#utility.yul\":3941:3944   */\n      dup3\n        /* \"#utility.yul\":3934:3968   */\n      mstore\n        /* \"#utility.yul\":3875:3974   */\n      pop\n      pop\n      jump\t// out\n        /* \"#utility.yul\":4052:5210   */\n    tag_159:\n        /* \"#utility.yul\":4171:4174   */\n      0x00\n        /* \"#utility.yul\":4207:4211   */\n      0xa0\n        /* \"#utility.yul\":4202:4205   */\n      dup4\n        /* \"#utility.yul\":4198:4212   */\n      add\n        /* \"#utility.yul\":4298:4302   */\n      0x00\n        /* \"#utility.yul\":4291:4296   */\n      dup4\n        /* \"#utility.yul\":4287:4303   */\n      add\n        /* \"#utility.yul\":4281:4304   */\n      mload\n        /* \"#utility.yul\":4351:4354   */\n      dup5\n        /* \"#utility.yul\":4345:4349   */\n      dup3\n        /* \"#utility.yul\":4341:4355   */\n      sub\n        /* \"#utility.yul\":4334:4338   */\n      0x00\n        /* \"#utility.yul\":4329:4332   */\n      dup7\n        /* \"#utility.yul\":4325:4339   */\n      add\n        /* \"#utility.yul\":4318:4356   */\n      mstore\n        /* \"#utility.yul\":4377:4450   */\n      tag_255\n        /* \"#utility.yul\":4445:4449   */\n      dup3\n        /* \"#utility.yul\":4431:4443   */\n      dup3\n        /* \"#utility.yul\":4377:4450   */\n      tag_155\n      jump\t// in\n    tag_255:\n        /* \"#utility.yul\":4369:4450   */\n      swap2\n      pop\n        /* \"#utility.yul\":4222:4461   */\n      pop\n        /* \"#utility.yul\":4553:4557   */\n      0x20\n        /* \"#utility.yul\":4546:4551   */\n      dup4\n        /* \"#utility.yul\":4542:4558   */\n      add\n        /* \"#utility.yul\":4536:4559   */\n      mload\n        /* \"#utility.yul\":4572:4635   */\n      tag_256\n        /* \"#utility.yul\":4629:4633   */\n      0x20\n        /* \"#utility.yul\":4624:4627   */\n      dup7\n        /* \"#utility.yul\":4620:4634   */\n      add\n        /* \"#utility.yul\":4606:4618   */\n      dup3\n        /* \"#utility.yul\":4572:4635   */\n      tag_156\n      jump\t// in\n    tag_256:\n        /* \"#utility.yul\":4471:4645   */\n      pop\n        /* \"#utility.yul\":4736:4740   */\n      0x40\n        /* \"#utility.yul\":4729:4734   */\n      dup4\n        /* \"#utility.yul\":4725:4741   */\n      add\n        /* \"#utility.yul\":4719:4742   */\n      mload\n        /* \"#utility.yul\":4755:4818   */\n      tag_257\n        /* \"#utility.yul\":4812:4816   */\n      0x40\n        /* \"#utility.yul\":4807:4810   */\n      dup7\n        /* \"#utility.yul\":4803:4817   */\n      add\n        /* \"#utility.yul\":4789:4801   */\n      dup3\n        /* \"#utility.yul\":4755:4818   */\n      tag_157\n      jump\t// in\n    tag_257:\n        /* \"#utility.yul\":4655:4828   */\n      pop\n        /* \"#utility.yul\":4915:4919   */\n      0x60\n        /* \"#utility.yul\":4908:4913   */\n      dup4\n        /* \"#utility.yul\":4904:4920   */\n      add\n        /* \"#utility.yul\":4898:4921   */\n      mload\n        /* \"#utility.yul\":4934:4991   */\n      tag_258\n        /* \"#utility.yul\":4985:4989   */\n      0x60\n        /* \"#utility.yul\":4980:4983   */\n      dup7\n        /* \"#utility.yul\":4976:4990   */\n      add\n        /* \"#utility.yul\":4962:4974   */\n      dup3\n        /* \"#utility.yul\":4934:4991   */\n      tag_158\n      jump\t// in\n    tag_258:\n        /* \"#utility.yul\":4838:5001   */\n      pop\n        /* \"#utility.yul\":5091:5095   */\n      0x80\n        /* \"#utility.yul\":5084:5089   */\n      dup4\n        /* \"#utility.yul\":5080:5096   */\n      add\n        /* \"#utility.yul\":5074:5097   */\n      mload\n        /* \"#utility.yul\":5110:5173   */\n      tag_259\n        /* \"#utility.yul\":5167:5171   */\n      0x80\n        /* \"#utility.yul\":5162:5165   */\n      dup7\n        /* \"#utility.yul\":5158:5172   */\n      add\n        /* \"#utility.yul\":5144:5156   */\n      dup3\n        /* \"#utility.yul\":5110:5173   */\n      tag_157\n      jump\t// in\n    tag_259:\n        /* \"#utility.yul\":5011:5183   */\n      pop\n        /* \"#utility.yul\":5200:5204   */\n      dup1\n        /* \"#utility.yul\":5193:5204   */\n      swap2\n      pop\n        /* \"#utility.yul\":4176:5210   */\n      pop\n        /* \"#utility.yul\":4052:5210   */\n      swap3\n      swap2\n      pop\n      pop\n      jump\t// out\n        /* \"#utility.yul\":5216:5589   */\n    tag_21:\n        /* \"#utility.yul\":5359:5363   */\n      0x00\n        /* \"#utility.yul\":5397:5399   */\n      0x20\n        /* \"#utility.yul\":5386:5395   */\n      dup3\n        /* \"#utility.yul\":5382:5400   */\n      add\n        /* \"#utility.yul\":5374:5400   */\n      swap1\n      pop\n        /* \"#utility.yul\":5446:5455   */\n      dup2\n        /* \"#utility.yul\":5440:5444   */\n      dup2\n        /* \"#utility.yul\":5436:5456   */\n      sub\n        /* \"#utility.yul\":5432:5433   */\n      0x00\n        /* \"#utility.yul\":5421:5430   */\n      dup4\n        /* \"#utility.yul\":5417:5434   */\n      add\n        /* \"#utility.yul\":5410:5457   */\n      mstore\n        /* \"#utility.yul\":5474:5582   */\n      tag_261\n        /* \"#utility.yul\":5577:5581   */\n      dup2\n        /* \"#utility.yul\":5568:5574   */\n      dup5\n        /* \"#utility.yul\":5474:5582   */\n      tag_159\n      jump\t// in\n    tag_261:\n        /* \"#utility.yul\":5466:5582   */\n      swap1\n      pop\n        /* \"#utility.yul\":5216:5589   */\n      swap3\n      swap2\n      pop\n      pop\n      jump\t// out\n        /* \"#utility.yul\":5595:5712   */\n    tag_160:\n        /* \"#utility.yul\":5704:5705   */\n      0x00\n        /* \"#utility.yul\":5701:5702   */\n      dup1\n        /* \"#utility.yul\":5694:5706   */\n      revert\n        /* \"#utility.yul\":5718:5835   */\n    tag_161:\n        /* \"#utility.yul\":5827:5828   */\n      0x00\n        /* \"#utility.yul\":5824:5825   */\n      dup1\n        /* \"#utility.yul\":5817:5829   */\n      revert\n        /* \"#utility.yul\":5841:5958   */\n    tag_162:\n        /* \"#utility.yul\":5950:5951   */\n      0x00\n        /* \"#utility.yul\":5947:5948   */\n      dup1\n        /* \"#utility.yul\":5940:5952   */\n      revert\n        /* \"#utility.yul\":5978:6531   */\n    tag_163:\n        /* \"#utility.yul\":6036:6044   */\n      0x00\n        /* \"#utility.yul\":6046:6052   */\n      dup1\n        /* \"#utility.yul\":6096:6099   */\n      dup4\n        /* \"#utility.yul\":6089:6093   */\n      0x1f\n        /* \"#utility.yul\":6081:6087   */\n      dup5\n        /* \"#utility.yul\":6077:6094   */\n      add\n        /* \"#utility.yul\":6073:6100   */\n      slt\n        /* \"#utility.yul\":6063:6185   */\n      tag_266\n      jumpi\n        /* \"#utility.yul\":6104:6183   */\n      tag_267\n      tag_160\n      jump\t// in\n    tag_267:\n        /* \"#utility.yul\":6063:6185   */\n    tag_266:\n        /* \"#utility.yul\":6217:6223   */\n      dup3\n        /* \"#utility.yul\":6204:6224   */\n      calldataload\n        /* \"#utility.yul\":6194:6224   */\n      swap1\n      pop\n        /* \"#utility.yul\":6247:6265   */\n      0xffffffffffffffff\n        /* \"#utility.yul\":6239:6245   */\n      dup2\n        /* \"#utility.yul\":6236:6266   */\n      gt\n        /* \"#utility.yul\":6233:6350   */\n      iszero\n      tag_268\n      jumpi\n        /* \"#utility.yul\":6269:6348   */\n      tag_269\n      tag_161\n      jump\t// in\n    tag_269:\n        /* \"#utility.yul\":6233:6350   */\n    tag_268:\n        /* \"#utility.yul\":6383:6387   */\n      0x20\n        /* \"#utility.yul\":6375:6381   */\n      dup4\n        /* \"#utility.yul\":6371:6388   */\n      add\n        /* \"#utility.yul\":6359:6388   */\n      swap2\n      pop\n        /* \"#utility.yul\":6437:6440   */\n      dup4\n        /* \"#utility.yul\":6429:6433   */\n      0x01\n        /* \"#utility.yul\":6421:6427   */\n      dup3\n        /* \"#utility.yul\":6417:6434   */\n      mul\n        /* \"#utility.yul\":6407:6415   */\n      dup4\n        /* \"#utility.yul\":6403:6435   */\n      add\n        /* \"#utility.yul\":6400:6441   */\n      gt\n        /* \"#utility.yul\":6397:6525   */\n      iszero\n      tag_270\n      jumpi\n        /* \"#utility.yul\":6444:6523   */\n      tag_271\n      tag_162\n      jump\t// in\n    tag_271:\n        /* \"#utility.yul\":6397:6525   */\n    tag_270:\n        /* \"#utility.yul\":5978:6531   */\n      swap3\n      pop\n      swap3\n      swap1\n      pop\n      jump\t// out\n        /* \"#utility.yul\":6537:7642   */\n    tag_24:\n        /* \"#utility.yul\":6641:6647   */\n      0x00\n        /* \"#utility.yul\":6649:6655   */\n      dup1\n        /* \"#utility.yul\":6657:6663   */\n      0x00\n        /* \"#utility.yul\":6665:6671   */\n      dup1\n        /* \"#utility.yul\":6673:6679   */\n      0x00\n        /* \"#utility.yul\":6681:6687   */\n      dup1\n        /* \"#utility.yul\":6730:6733   */\n      0xa0\n        /* \"#utility.yul\":6718:6727   */\n      dup8\n        /* \"#utility.yul\":6709:6716   */\n      dup10\n        /* \"#utility.yul\":6705:6728   */\n      sub\n        /* \"#utility.yul\":6701:6734   */\n      slt\n        /* \"#utility.yul\":6698:6818   */\n      iszero\n      tag_273\n      jumpi\n        /* \"#utility.yul\":6737:6816   */\n      tag_274\n      tag_139\n      jump\t// in\n    tag_274:\n        /* \"#utility.yul\":6698:6818   */\n    tag_273:\n        /* \"#utility.yul\":6885:6886   */\n      0x00\n        /* \"#utility.yul\":6874:6883   */\n      dup8\n        /* \"#utility.yul\":6870:6887   */\n      add\n        /* \"#utility.yul\":6857:6888   */\n      calldataload\n        /* \"#utility.yul\":6915:6933   */\n      0xffffffffffffffff\n        /* \"#utility.yul\":6907:6913   */\n      dup2\n        /* \"#utility.yul\":6904:6934   */\n      gt\n        /* \"#utility.yul\":6901:7018   */\n      iszero\n      tag_275\n      jumpi\n        /* \"#utility.yul\":6937:7016   */\n      tag_276\n      tag_140\n      jump\t// in\n    tag_276:\n        /* \"#utility.yul\":6901:7018   */\n    tag_275:\n        /* \"#utility.yul\":7050:7115   */\n      tag_277\n        /* \"#utility.yul\":7107:7114   */\n      dup10\n        /* \"#utility.yul\":7098:7104   */\n      dup3\n        /* \"#utility.yul\":7087:7096   */\n      dup11\n        /* \"#utility.yul\":7083:7105   */\n      add\n        /* \"#utility.yul\":7050:7115   */\n      tag_163\n      jump\t// in\n    tag_277:\n        /* \"#utility.yul\":7032:7115   */\n      swap7\n      pop\n      swap7\n      pop\n        /* \"#utility.yul\":6828:7125   */\n      pop\n        /* \"#utility.yul\":7164:7166   */\n      0x20\n        /* \"#utility.yul\":7190:7243   */\n      tag_278\n        /* \"#utility.yul\":7235:7242   */\n      dup10\n        /* \"#utility.yul\":7226:7232   */\n      dup3\n        /* \"#utility.yul\":7215:7224   */\n      dup11\n        /* \"#utility.yul\":7211:7233   */\n      add\n        /* \"#utility.yul\":7190:7243   */\n      tag_144\n      jump\t// in\n    tag_278:\n        /* \"#utility.yul\":7180:7243   */\n      swap5\n      pop\n        /* \"#utility.yul\":7135:7253   */\n      pop\n        /* \"#utility.yul\":7292:7294   */\n      0x40\n        /* \"#utility.yul\":7318:7371   */\n      tag_279\n        /* \"#utility.yul\":7363:7370   */\n      dup10\n        /* \"#utility.yul\":7354:7360   */\n      dup3\n        /* \"#utility.yul\":7343:7352   */\n      dup11\n        /* \"#utility.yul\":7339:7361   */\n      add\n        /* \"#utility.yul\":7318:7371   */\n      tag_147\n      jump\t// in\n    tag_279:\n        /* \"#utility.yul\":7308:7371   */\n      swap4\n      pop\n        /* \"#utility.yul\":7263:7381   */\n      pop\n        /* \"#utility.yul\":7420:7422   */\n      0x60\n        /* \"#utility.yul\":7446:7496   */\n      tag_280\n        /* \"#utility.yul\":7488:7495   */\n      dup10\n        /* \"#utility.yul\":7479:7485   */\n      dup3\n        /* \"#utility.yul\":7468:7477   */\n      dup11\n        /* \"#utility.yul\":7464:7486   */\n      add\n        /* \"#utility.yul\":7446:7496   */\n      tag_150\n      jump\t// in\n    tag_280:\n        /* \"#utility.yul\":7436:7496   */\n      swap3\n      pop\n        /* \"#utility.yul\":7391:7506   */\n      pop\n        /* \"#utility.yul\":7545:7548   */\n      0x80\n        /* \"#utility.yul\":7572:7625   */\n      tag_281\n        /* \"#utility.yul\":7617:7624   */\n      dup10\n        /* \"#utility.yul\":7608:7614   */\n      dup3\n        /* \"#utility.yul\":7597:7606   */\n      dup11\n        /* \"#utility.yul\":7593:7615   */\n      add\n        /* \"#utility.yul\":7572:7625   */\n      tag_147\n      jump\t// in\n    tag_281:\n        /* \"#utility.yul\":7562:7625   */\n      swap2\n      pop\n        /* \"#utility.yul\":7516:7635   */\n      pop\n        /* \"#utility.yul\":6537:7642   */\n      swap3\n      swap6\n      pop\n      swap3\n      swap6\n      pop\n      swap3\n      swap6\n      jump\t// out\n        /* \"#utility.yul\":7648:7766   */\n    tag_164:\n        /* \"#utility.yul\":7735:7759   */\n      tag_283\n        /* \"#utility.yul\":7753:7758   */\n      dup2\n        /* \"#utility.yul\":7735:7759   */\n      tag_142\n      jump\t// in\n    tag_283:\n        /* \"#utility.yul\":7730:7733   */\n      dup3\n        /* \"#utility.yul\":7723:7760   */\n      mstore\n        /* \"#utility.yul\":7648:7766   */\n      pop\n      pop\n      jump\t// out\n        /* \"#utility.yul\":7772:7994   */\n    tag_31:\n        /* \"#utility.yul\":7865:7869   */\n      0x00\n        /* \"#utility.yul\":7903:7905   */\n      0x20\n        /* \"#utility.yul\":7892:7901   */\n      dup3\n        /* \"#utility.yul\":7888:7906   */\n      add\n        /* \"#utility.yul\":7880:7906   */\n      swap1\n      pop\n        /* \"#utility.yul\":7916:7987   */\n      tag_285\n        /* \"#utility.yul\":7984:7985   */\n      0x00\n        /* \"#utility.yul\":7973:7982   */\n      dup4\n        /* \"#utility.yul\":7969:7986   */\n      add\n        /* \"#utility.yul\":7960:7966   */\n      dup5\n        /* \"#utility.yul\":7916:7987   */\n      tag_164\n      jump\t// in\n    tag_285:\n        /* \"#utility.yul\":7772:7994   */\n      swap3\n      swap2\n      pop\n      pop\n      jump\t// out\n        /* \"#utility.yul\":8000:8118   */\n    tag_165:\n        /* \"#utility.yul\":8087:8111   */\n      tag_287\n        /* \"#utility.yul\":8105:8110   */\n      dup2\n        /* \"#utility.yul\":8087:8111   */\n      tag_145\n      jump\t// in\n    tag_287:\n        /* \"#utility.yul\":8082:8085   */\n      dup3\n        /* \"#utility.yul\":8075:8112   */\n      mstore\n        /* \"#utility.yul\":8000:8118   */\n      pop\n      pop\n      jump\t// out\n        /* \"#utility.yul\":8124:8346   */\n    tag_35:\n        /* \"#utility.yul\":8217:8221   */\n      0x00\n        /* \"#utility.yul\":8255:8257   */\n      0x20\n        /* \"#utility.yul\":8244:8253   */\n      dup3\n        /* \"#utility.yul\":8240:8258   */\n      add\n        /* \"#utility.yul\":8232:8258   */\n      swap1\n      pop\n        /* \"#utility.yul\":8268:8339   */\n      tag_289\n        /* \"#utility.yul\":8336:8337   */\n      0x00\n        /* \"#utility.yul\":8325:8334   */\n      dup4\n        /* \"#utility.yul\":8321:8338   */\n      add\n        /* \"#utility.yul\":8312:8318   */\n      dup5\n        /* \"#utility.yul\":8268:8339   */\n      tag_165\n      jump\t// in\n    tag_289:\n        /* \"#utility.yul\":8124:8346   */\n      swap3\n      swap2\n      pop\n      pop\n      jump\t// out\n        /* \"#utility.yul\":8352:8681   */\n    tag_41:\n        /* \"#utility.yul\":8411:8417   */\n      0x00\n        /* \"#utility.yul\":8460:8462   */\n      0x20\n        /* \"#utility.yul\":8448:8457   */\n      dup3\n        /* \"#utility.yul\":8439:8446   */\n      dup5\n        /* \"#utility.yul\":8435:8458   */\n      sub\n        /* \"#utility.yul\":8431:8463   */\n      slt\n        /* \"#utility.yul\":8428:8547   */\n      iszero\n      tag_291\n      jumpi\n        /* \"#utility.yul\":8466:8545   */\n      tag_292\n      tag_139\n      jump\t// in\n    tag_292:\n        /* \"#utility.yul\":8428:8547   */\n    tag_291:\n        /* \"#utility.yul\":8586:8587   */\n      0x00\n        /* \"#utility.yul\":8611:8664   */\n      tag_293\n        /* \"#utility.yul\":8656:8663   */\n      dup5\n        /* \"#utility.yul\":8647:8653   */\n      dup3\n        /* \"#utility.yul\":8636:8645   */\n      dup6\n        /* \"#utility.yul\":8632:8654   */\n      add\n        /* \"#utility.yul\":8611:8664   */\n      tag_147\n      jump\t// in\n    tag_293:\n        /* \"#utility.yul\":8601:8664   */\n      swap2\n      pop\n        /* \"#utility.yul\":8557:8674   */\n      pop\n        /* \"#utility.yul\":8352:8681   */\n      swap3\n      swap2\n      pop\n      pop\n      jump\t// out\n        /* \"#utility.yul\":8687:8867   */\n    tag_166:\n        /* \"#utility.yul\":8735:8812   */\n      0x4e487b7100000000000000000000000000000000000000000000000000000000\n        /* \"#utility.yul\":8732:8733   */\n      0x00\n        /* \"#utility.yul\":8725:8813   */\n      mstore\n        /* \"#utility.yul\":8832:8836   */\n      0x22\n        /* \"#utility.yul\":8829:8830   */\n      0x04\n        /* \"#utility.yul\":8822:8837   */\n      mstore\n        /* \"#utility.yul\":8856:8860   */\n      0x24\n        /* \"#utility.yul\":8853:8854   */\n      0x00\n        /* \"#utility.yul\":8846:8861   */\n      revert\n        /* \"#utility.yul\":8873:9193   */\n    tag_46:\n        /* \"#utility.yul\":8917:8923   */\n      0x00\n        /* \"#utility.yul\":8954:8955   */\n      0x02\n        /* \"#utility.yul\":8948:8952   */\n      dup3\n        /* \"#utility.yul\":8944:8956   */\n      div\n        /* \"#utility.yul\":8934:8956   */\n      swap1\n      pop\n        /* \"#utility.yul\":9001:9002   */\n      0x01\n        /* \"#utility.yul\":8995:8999   */\n      dup3\n        /* \"#utility.yul\":8991:9003   */\n      and\n        /* \"#utility.yul\":9022:9040   */\n      dup1\n        /* \"#utility.yul\":9012:9093   */\n      tag_296\n      jumpi\n        /* \"#utility.yul\":9078:9082   */\n      0x7f\n        /* \"#utility.yul\":9070:9076   */\n      dup3\n        /* \"#utility.yul\":9066:9083   */\n      and\n        /* \"#utility.yul\":9056:9083   */\n      swap2\n      pop\n        /* \"#utility.yul\":9012:9093   */\n    tag_296:\n        /* \"#utility.yul\":9140:9142   */\n      0x20\n        /* \"#utility.yul\":9132:9138   */\n      dup3\n        /* \"#utility.yul\":9129:9143   */\n      lt\n        /* \"#utility.yul\":9109:9127   */\n      dup2\n        /* \"#utility.yul\":9106:9144   */\n      sub\n        /* \"#utility.yul\":9103:9187   */\n      tag_297\n      jumpi\n        /* \"#utility.yul\":9159:9177   */\n      tag_298\n      tag_166\n      jump\t// in\n    tag_298:\n        /* \"#utility.yul\":9103:9187   */\n    tag_297:\n        /* \"#utility.yul\":8924:9193   */\n      pop\n        /* \"#utility.yul\":8873:9193   */\n      swap2\n      swap1\n      pop\n      jump\t// out\n        /* \"#utility.yul\":9199:9368   */\n    tag_167:\n        /* \"#utility.yul\":9283:9294   */\n      0x00\n        /* \"#utility.yul\":9317:9323   */\n      dup3\n        /* \"#utility.yul\":9312:9315   */\n      dup3\n        /* \"#utility.yul\":9305:9324   */\n      mstore\n        /* \"#utility.yul\":9357:9361   */\n      0x20\n        /* \"#utility.yul\":9352:9355   */\n      dup3\n        /* \"#utility.yul\":9348:9362   */\n      add\n        /* \"#utility.yul\":9333:9362   */\n      swap1\n      pop\n        /* \"#utility.yul\":9199:9368   */\n      swap3\n      swap2\n      pop\n      pop\n      jump\t// out\n        /* \"#utility.yul\":9374:9544   */\n    tag_168:\n        /* \"#utility.yul\":9514:9536   */\n      0x55736572206e6f7420726567697374657265642e000000000000000000000000\n        /* \"#utility.yul\":9510:9511   */\n      0x00\n        /* \"#utility.yul\":9502:9508   */\n      dup3\n        /* \"#utility.yul\":9498:9512   */\n      add\n        /* \"#utility.yul\":9491:9537   */\n      mstore\n        /* \"#utility.yul\":9374:9544   */\n      pop\n      jump\t// out\n        /* \"#utility.yul\":9550:9916   */\n    tag_169:\n        /* \"#utility.yul\":9692:9695   */\n      0x00\n        /* \"#utility.yul\":9713:9780   */\n      tag_302\n        /* \"#utility.yul\":9777:9779   */\n      0x14\n        /* \"#utility.yul\":9772:9775   */\n      dup4\n        /* \"#utility.yul\":9713:9780   */\n      tag_167\n      jump\t// in\n    tag_302:\n        /* \"#utility.yul\":9706:9780   */\n      swap2\n      pop\n        /* \"#utility.yul\":9789:9882   */\n      tag_303\n        /* \"#utility.yul\":9878:9881   */\n      dup3\n        /* \"#utility.yul\":9789:9882   */\n      tag_168\n      jump\t// in\n    tag_303:\n        /* \"#utility.yul\":9907:9909   */\n      0x20\n        /* \"#utility.yul\":9902:9905   */\n      dup3\n        /* \"#utility.yul\":9898:9910   */\n      add\n        /* \"#utility.yul\":9891:9910   */\n      swap1\n      pop\n        /* \"#utility.yul\":9550:9916   */\n      swap2\n      swap1\n      pop\n      jump\t// out\n        /* \"#utility.yul\":9922:10341   */\n    tag_49:\n        /* \"#utility.yul\":10088:10092   */\n      0x00\n        /* \"#utility.yul\":10126:10128   */\n      0x20\n        /* \"#utility.yul\":10115:10124   */\n      dup3\n        /* \"#utility.yul\":10111:10129   */\n      add\n        /* \"#utility.yul\":10103:10129   */\n      swap1\n      pop\n        /* \"#utility.yul\":10175:10184   */\n      dup2\n        /* \"#utility.yul\":10169:10173   */\n      dup2\n        /* \"#utility.yul\":10165:10185   */\n      sub\n        /* \"#utility.yul\":10161:10162   */\n      0x00\n        /* \"#utility.yul\":10150:10159   */\n      dup4\n        /* \"#utility.yul\":10146:10163   */\n      add\n        /* \"#utility.yul\":10139:10186   */\n      mstore\n        /* \"#utility.yul\":10203:10334   */\n      tag_305\n        /* \"#utility.yul\":10329:10333   */\n      dup2\n        /* \"#utility.yul\":10203:10334   */\n      tag_169\n      jump\t// in\n    tag_305:\n        /* \"#utility.yul\":10195:10334   */\n      swap1\n      pop\n        /* \"#utility.yul\":9922:10341   */\n      swap2\n      swap1\n      pop\n      jump\t// out\n        /* \"#utility.yul\":10347:10679   */\n    tag_52:\n        /* \"#utility.yul\":10468:10472   */\n      0x00\n        /* \"#utility.yul\":10506:10508   */\n      0x40\n        /* \"#utility.yul\":10495:10504   */\n      dup3\n        /* \"#utility.yul\":10491:10509   */\n      add\n        /* \"#utility.yul\":10483:10509   */\n      swap1\n      pop\n        /* \"#utility.yul\":10519:10590   */\n      tag_307\n        /* \"#utility.yul\":10587:10588   */\n      0x00\n        /* \"#utility.yul\":10576:10585   */\n      dup4\n        /* \"#utility.yul\":10572:10589   */\n      add\n        /* \"#utility.yul\":10563:10569   */\n      dup6\n        /* \"#utility.yul\":10519:10590   */\n      tag_164\n      jump\t// in\n    tag_307:\n        /* \"#utility.yul\":10600:10672   */\n      tag_308\n        /* \"#utility.yul\":10668:10670   */\n      0x20\n        /* \"#utility.yul\":10657:10666   */\n      dup4\n        /* \"#utility.yul\":10653:10671   */\n      add\n        /* \"#utility.yul\":10644:10650   */\n      dup5\n        /* \"#utility.yul\":10600:10672   */\n      tag_165\n      jump\t// in\n    tag_308:\n        /* \"#utility.yul\":10347:10679   */\n      swap4\n      swap3\n      pop\n      pop\n      pop\n      jump\t// out\n        /* \"#utility.yul\":10685:10828   */\n    tag_170:\n        /* \"#utility.yul\":10742:10747   */\n      0x00\n        /* \"#utility.yul\":10773:10779   */\n      dup2\n        /* \"#utility.yul\":10767:10780   */\n      mload\n        /* \"#utility.yul\":10758:10780   */\n      swap1\n      pop\n        /* \"#utility.yul\":10789:10822   */\n      tag_310\n        /* \"#utility.yul\":10816:10821   */\n      dup2\n        /* \"#utility.yul\":10789:10822   */\n      tag_146\n      jump\t// in\n    tag_310:\n        /* \"#utility.yul\":10685:10828   */\n      swap3\n      swap2\n      pop\n      pop\n      jump\t// out\n        /* \"#utility.yul\":10834:11185   */\n    tag_56:\n        /* \"#utility.yul\":10904:10910   */\n      0x00\n        /* \"#utility.yul\":10953:10955   */\n      0x20\n        /* \"#utility.yul\":10941:10950   */\n      dup3\n        /* \"#utility.yul\":10932:10939   */\n      dup5\n        /* \"#utility.yul\":10928:10951   */\n      sub\n        /* \"#utility.yul\":10924:10956   */\n      slt\n        /* \"#utility.yul\":10921:11040   */\n      iszero\n      tag_312\n      jumpi\n        /* \"#utility.yul\":10959:11038   */\n      tag_313\n      tag_139\n      jump\t// in\n    tag_313:\n        /* \"#utility.yul\":10921:11040   */\n    tag_312:\n        /* \"#utility.yul\":11079:11080   */\n      0x00\n        /* \"#utility.yul\":11104:11168   */\n      tag_314\n        /* \"#utility.yul\":11160:11167   */\n      dup5\n        /* \"#utility.yul\":11151:11157   */\n      dup3\n        /* \"#utility.yul\":11140:11149   */\n      dup6\n        /* \"#utility.yul\":11136:11158   */\n      add\n        /* \"#utility.yul\":11104:11168   */\n      tag_170\n      jump\t// in\n    tag_314:\n        /* \"#utility.yul\":11094:11168   */\n      swap2\n      pop\n        /* \"#utility.yul\":11050:11178   */\n      pop\n        /* \"#utility.yul\":10834:11185   */\n      swap3\n      swap2\n      pop\n      pop\n      jump\t// out\n        /* \"#utility.yul\":11191:11416   */\n    tag_171:\n        /* \"#utility.yul\":11331:11365   */\n      0x496e73756666696369656e742062616c616e636520666f722045524331313535\n        /* \"#utility.yul\":11327:11328   */\n      0x00\n        /* \"#utility.yul\":11319:11325   */\n      dup3\n        /* \"#utility.yul\":11315:11329   */\n      add\n        /* \"#utility.yul\":11308:11366   */\n      mstore\n        /* \"#utility.yul\":11400:11408   */\n      0x20746f6b656e0000000000000000000000000000000000000000000000000000\n        /* \"#utility.yul\":11395:11397   */\n      0x20\n        /* \"#utility.yul\":11387:11393   */\n      dup3\n        /* \"#utility.yul\":11383:11398   */\n      add\n        /* \"#utility.yul\":11376:11409   */\n      mstore\n        /* \"#utility.yul\":11191:11416   */\n      pop\n      jump\t// out\n        /* \"#utility.yul\":11422:11788   */\n    tag_172:\n        /* \"#utility.yul\":11564:11567   */\n      0x00\n        /* \"#utility.yul\":11585:11652   */\n      tag_317\n        /* \"#utility.yul\":11649:11651   */\n      0x26\n        /* \"#utility.yul\":11644:11647   */\n      dup4\n        /* \"#utility.yul\":11585:11652   */\n      tag_167\n      jump\t// in\n    tag_317:\n        /* \"#utility.yul\":11578:11652   */\n      swap2\n      pop\n        /* \"#utility.yul\":11661:11754   */\n      tag_318\n        /* \"#utility.yul\":11750:11753   */\n      dup3\n        /* \"#utility.yul\":11661:11754   */\n      tag_171\n      jump\t// in\n    tag_318:\n        /* \"#utility.yul\":11779:11781   */\n      0x40\n        /* \"#utility.yul\":11774:11777   */\n      dup3\n        /* \"#utility.yul\":11770:11782   */\n      add\n        /* \"#utility.yul\":11763:11782   */\n      swap1\n      pop\n        /* \"#utility.yul\":11422:11788   */\n      swap2\n      swap1\n      pop\n      jump\t// out\n        /* \"#utility.yul\":11794:12213   */\n    tag_59:\n        /* \"#utility.yul\":11960:11964   */\n      0x00\n        /* \"#utility.yul\":11998:12000   */\n      0x20\n        /* \"#utility.yul\":11987:11996   */\n      dup3\n        /* \"#utility.yul\":11983:12001   */\n      add\n        /* \"#utility.yul\":11975:12001   */\n      swap1\n      pop\n        /* \"#utility.yul\":12047:12056   */\n      dup2\n        /* \"#utility.yul\":12041:12045   */\n      dup2\n        /* \"#utility.yul\":12037:12057   */\n      sub\n        /* \"#utility.yul\":12033:12034   */\n      0x00\n        /* \"#utility.yul\":12022:12031   */\n      dup4\n        /* \"#utility.yul\":12018:12035   */\n      add\n        /* \"#utility.yul\":12011:12058   */\n      mstore\n        /* \"#utility.yul\":12075:12206   */\n      tag_320\n        /* \"#utility.yul\":12201:12205   */\n      dup2\n        /* \"#utility.yul\":12075:12206   */\n      tag_172\n      jump\t// in\n    tag_320:\n        /* \"#utility.yul\":12067:12206   */\n      swap1\n      pop\n        /* \"#utility.yul\":11794:12213   */\n      swap2\n      swap1\n      pop\n      jump\t// out\n        /* \"#utility.yul\":12219:12362   */\n    tag_173:\n        /* \"#utility.yul\":12276:12281   */\n      0x00\n        /* \"#utility.yul\":12307:12313   */\n      dup2\n        /* \"#utility.yul\":12301:12314   */\n      mload\n        /* \"#utility.yul\":12292:12314   */\n      swap1\n      pop\n        /* \"#utility.yul\":12323:12356   */\n      tag_322\n        /* \"#utility.yul\":12350:12355   */\n      dup2\n        /* \"#utility.yul\":12323:12356   */\n      tag_143\n      jump\t// in\n    tag_322:\n        /* \"#utility.yul\":12219:12362   */\n      swap3\n      swap2\n      pop\n      pop\n      jump\t// out\n        /* \"#utility.yul\":12368:12719   */\n    tag_65:\n        /* \"#utility.yul\":12438:12444   */\n      0x00\n        /* \"#utility.yul\":12487:12489   */\n      0x20\n        /* \"#utility.yul\":12475:12484   */\n      dup3\n        /* \"#utility.yul\":12466:12473   */\n      dup5\n        /* \"#utility.yul\":12462:12485   */\n      sub\n        /* \"#utility.yul\":12458:12490   */\n      slt\n        /* \"#utility.yul\":12455:12574   */\n      iszero\n      tag_324\n      jumpi\n        /* \"#utility.yul\":12493:12572   */\n      tag_325\n      tag_139\n      jump\t// in\n    tag_325:\n        /* \"#utility.yul\":12455:12574   */\n    tag_324:\n        /* \"#utility.yul\":12613:12614   */\n      0x00\n        /* \"#utility.yul\":12638:12702   */\n      tag_326\n        /* \"#utility.yul\":12694:12701   */\n      dup5\n        /* \"#utility.yul\":12685:12691   */\n      dup3\n        /* \"#utility.yul\":12674:12683   */\n      dup6\n        /* \"#utility.yul\":12670:12692   */\n      add\n        /* \"#utility.yul\":12638:12702   */\n      tag_173\n      jump\t// in\n    tag_326:\n        /* \"#utility.yul\":12628:12702   */\n      swap2\n      pop\n        /* \"#utility.yul\":12584:12712   */\n      pop\n        /* \"#utility.yul\":12368:12719   */\n      swap3\n      swap2\n      pop\n      pop\n      jump\t// out\n        /* \"#utility.yul\":12725:12946   */\n    tag_174:\n        /* \"#utility.yul\":12865:12899   */\n      0x4e6f7420746865206f776e6572206f6620746869732045524337323120746f6b\n        /* \"#utility.yul\":12861:12862   */\n      0x00\n        /* \"#utility.yul\":12853:12859   */\n      dup3\n        /* \"#utility.yul\":12849:12863   */\n      add\n        /* \"#utility.yul\":12842:12900   */\n      mstore\n        /* \"#utility.yul\":12934:12938   */\n      0x656e000000000000000000000000000000000000000000000000000000000000\n        /* \"#utility.yul\":12929:12931   */\n      0x20\n        /* \"#utility.yul\":12921:12927   */\n      dup3\n        /* \"#utility.yul\":12917:12932   */\n      add\n        /* \"#utility.yul\":12910:12939   */\n      mstore\n        /* \"#utility.yul\":12725:12946   */\n      pop\n      jump\t// out\n        /* \"#utility.yul\":12952:13318   */\n    tag_175:\n        /* \"#utility.yul\":13094:13097   */\n      0x00\n        /* \"#utility.yul\":13115:13182   */\n      tag_329\n        /* \"#utility.yul\":13179:13181   */\n      0x22\n        /* \"#utility.yul\":13174:13177   */\n      dup4\n        /* \"#utility.yul\":13115:13182   */\n      tag_167\n      jump\t// in\n    tag_329:\n        /* \"#utility.yul\":13108:13182   */\n      swap2\n      pop\n        /* \"#utility.yul\":13191:13284   */\n      tag_330\n        /* \"#utility.yul\":13280:13283   */\n      dup3\n        /* \"#utility.yul\":13191:13284   */\n      tag_174\n      jump\t// in\n    tag_330:\n        /* \"#utility.yul\":13309:13311   */\n      0x40\n        /* \"#utility.yul\":13304:13307   */\n      dup3\n        /* \"#utility.yul\":13300:13312   */\n      add\n        /* \"#utility.yul\":13293:13312   */\n      swap1\n      pop\n        /* \"#utility.yul\":12952:13318   */\n      swap2\n      swap1\n      pop\n      jump\t// out\n        /* \"#utility.yul\":13324:13743   */\n    tag_68:\n        /* \"#utility.yul\":13490:13494   */\n      0x00\n        /* \"#utility.yul\":13528:13530   */\n      0x20\n        /* \"#utility.yul\":13517:13526   */\n      dup3\n        /* \"#utility.yul\":13513:13531   */\n      add\n        /* \"#utility.yul\":13505:13531   */\n      swap1\n      pop\n        /* \"#utility.yul\":13577:13586   */\n      dup2\n        /* \"#utility.yul\":13571:13575   */\n      dup2\n        /* \"#utility.yul\":13567:13587   */\n      sub\n        /* \"#utility.yul\":13563:13564   */\n      0x00\n        /* \"#utility.yul\":13552:13561   */\n      dup4\n        /* \"#utility.yul\":13548:13565   */\n      add\n        /* \"#utility.yul\":13541:13588   */\n      mstore\n        /* \"#utility.yul\":13605:13736   */\n      tag_332\n        /* \"#utility.yul\":13731:13735   */\n      dup2\n        /* \"#utility.yul\":13605:13736   */\n      tag_175\n      jump\t// in\n    tag_332:\n        /* \"#utility.yul\":13597:13736   */\n      swap1\n      pop\n        /* \"#utility.yul\":13324:13743   */\n      swap2\n      swap1\n      pop\n      jump\t// out\n        /* \"#utility.yul\":13749:13858   */\n    tag_176:\n        /* \"#utility.yul\":13830:13851   */\n      tag_334\n        /* \"#utility.yul\":13845:13850   */\n      dup2\n        /* \"#utility.yul\":13830:13851   */\n      tag_148\n      jump\t// in\n    tag_334:\n        /* \"#utility.yul\":13825:13828   */\n      dup3\n        /* \"#utility.yul\":13818:13852   */\n      mstore\n        /* \"#utility.yul\":13749:13858   */\n      pop\n      pop\n      jump\t// out\n        /* \"#utility.yul\":13864:14405   */\n    tag_70:\n        /* \"#utility.yul\":14035:14039   */\n      0x00\n        /* \"#utility.yul\":14073:14076   */\n      0x80\n        /* \"#utility.yul\":14062:14071   */\n      dup3\n        /* \"#utility.yul\":14058:14077   */\n      add\n        /* \"#utility.yul\":14050:14077   */\n      swap1\n      pop\n        /* \"#utility.yul\":14087:14158   */\n      tag_336\n        /* \"#utility.yul\":14155:14156   */\n      0x00\n        /* \"#utility.yul\":14144:14153   */\n      dup4\n        /* \"#utility.yul\":14140:14157   */\n      add\n        /* \"#utility.yul\":14131:14137   */\n      dup8\n        /* \"#utility.yul\":14087:14158   */\n      tag_164\n      jump\t// in\n    tag_336:\n        /* \"#utility.yul\":14168:14240   */\n      tag_337\n        /* \"#utility.yul\":14236:14238   */\n      0x20\n        /* \"#utility.yul\":14225:14234   */\n      dup4\n        /* \"#utility.yul\":14221:14239   */\n      add\n        /* \"#utility.yul\":14212:14218   */\n      dup7\n        /* \"#utility.yul\":14168:14240   */\n      tag_165\n      jump\t// in\n    tag_337:\n        /* \"#utility.yul\":14250:14316   */\n      tag_338\n        /* \"#utility.yul\":14312:14314   */\n      0x40\n        /* \"#utility.yul\":14301:14310   */\n      dup4\n        /* \"#utility.yul\":14297:14315   */\n      add\n        /* \"#utility.yul\":14288:14294   */\n      dup6\n        /* \"#utility.yul\":14250:14316   */\n      tag_176\n      jump\t// in\n    tag_338:\n        /* \"#utility.yul\":14326:14398   */\n      tag_339\n        /* \"#utility.yul\":14394:14396   */\n      0x60\n        /* \"#utility.yul\":14383:14392   */\n      dup4\n        /* \"#utility.yul\":14379:14397   */\n      add\n        /* \"#utility.yul\":14370:14376   */\n      dup5\n        /* \"#utility.yul\":14326:14398   */\n      tag_165\n      jump\t// in\n    tag_339:\n        /* \"#utility.yul\":13864:14405   */\n      swap6\n      swap5\n      pop\n      pop\n      pop\n      pop\n      pop\n      jump\t// out\n        /* \"#utility.yul\":14411:14585   */\n    tag_177:\n        /* \"#utility.yul\":14551:14577   */\n      0x5573657220616c726561647920726567697374657265642e0000000000000000\n        /* \"#utility.yul\":14547:14548   */\n      0x00\n        /* \"#utility.yul\":14539:14545   */\n      dup3\n        /* \"#utility.yul\":14535:14549   */\n      add\n        /* \"#utility.yul\":14528:14578   */\n      mstore\n        /* \"#utility.yul\":14411:14585   */\n      pop\n      jump\t// out\n        /* \"#utility.yul\":14591:14957   */\n    tag_178:\n        /* \"#utility.yul\":14733:14736   */\n      0x00\n        /* \"#utility.yul\":14754:14821   */\n      tag_342\n        /* \"#utility.yul\":14818:14820   */\n      0x18\n        /* \"#utility.yul\":14813:14816   */\n      dup4\n        /* \"#utility.yul\":14754:14821   */\n      tag_167\n      jump\t// in\n    tag_342:\n        /* \"#utility.yul\":14747:14821   */\n      swap2\n      pop\n        /* \"#utility.yul\":14830:14923   */\n      tag_343\n        /* \"#utility.yul\":14919:14922   */\n      dup3\n        /* \"#utility.yul\":14830:14923   */\n      tag_177\n      jump\t// in\n    tag_343:\n        /* \"#utility.yul\":14948:14950   */\n      0x20\n        /* \"#utility.yul\":14943:14946   */\n      dup3\n        /* \"#utility.yul\":14939:14951   */\n      add\n        /* \"#utility.yul\":14932:14951   */\n      swap1\n      pop\n        /* \"#utility.yul\":14591:14957   */\n      swap2\n      swap1\n      pop\n      jump\t// out\n        /* \"#utility.yul\":14963:15382   */\n    tag_83:\n        /* \"#utility.yul\":15129:15133   */\n      0x00\n        /* \"#utility.yul\":15167:15169   */\n      0x20\n        /* \"#utility.yul\":15156:15165   */\n      dup3\n        /* \"#utility.yul\":15152:15170   */\n      add\n        /* \"#utility.yul\":15144:15170   */\n      swap1\n      pop\n        /* \"#utility.yul\":15216:15225   */\n      dup2\n        /* \"#utility.yul\":15210:15214   */\n      dup2\n        /* \"#utility.yul\":15206:15226   */\n      sub\n        /* \"#utility.yul\":15202:15203   */\n      0x00\n        /* \"#utility.yul\":15191:15200   */\n      dup4\n        /* \"#utility.yul\":15187:15204   */\n      add\n        /* \"#utility.yul\":15180:15227   */\n      mstore\n        /* \"#utility.yul\":15244:15375   */\n      tag_345\n        /* \"#utility.yul\":15370:15374   */\n      dup2\n        /* \"#utility.yul\":15244:15375   */\n      tag_178\n      jump\t// in\n    tag_345:\n        /* \"#utility.yul\":15236:15375   */\n      swap1\n      pop\n        /* \"#utility.yul\":14963:15382   */\n      swap2\n      swap1\n      pop\n      jump\t// out\n        /* \"#utility.yul\":15388:15616   */\n    tag_179:\n        /* \"#utility.yul\":15528:15562   */\n      0x557365726e616d65206d757374206265203420746f2031352063686172616374\n        /* \"#utility.yul\":15524:15525   */\n      0x00\n        /* \"#utility.yul\":15516:15522   */\n      dup3\n        /* \"#utility.yul\":15512:15526   */\n      add\n        /* \"#utility.yul\":15505:15563   */\n      mstore\n        /* \"#utility.yul\":15597:15608   */\n      0x657273206c6f6e672e0000000000000000000000000000000000000000000000\n        /* \"#utility.yul\":15592:15594   */\n      0x20\n        /* \"#utility.yul\":15584:15590   */\n      dup3\n        /* \"#utility.yul\":15580:15595   */\n      add\n        /* \"#utility.yul\":15573:15609   */\n      mstore\n        /* \"#utility.yul\":15388:15616   */\n      pop\n      jump\t// out\n        /* \"#utility.yul\":15622:15988   */\n    tag_180:\n        /* \"#utility.yul\":15764:15767   */\n      0x00\n        /* \"#utility.yul\":15785:15852   */\n      tag_348\n        /* \"#utility.yul\":15849:15851   */\n      0x29\n        /* \"#utility.yul\":15844:15847   */\n      dup4\n        /* \"#utility.yul\":15785:15852   */\n      tag_167\n      jump\t// in\n    tag_348:\n        /* \"#utility.yul\":15778:15852   */\n      swap2\n      pop\n        /* \"#utility.yul\":15861:15954   */\n      tag_349\n        /* \"#utility.yul\":15950:15953   */\n      dup3\n        /* \"#utility.yul\":15861:15954   */\n      tag_179\n      jump\t// in\n    tag_349:\n        /* \"#utility.yul\":15979:15981   */\n      0x40\n        /* \"#utility.yul\":15974:15977   */\n      dup3\n        /* \"#utility.yul\":15970:15982   */\n      add\n        /* \"#utility.yul\":15963:15982   */\n      swap1\n      pop\n        /* \"#utility.yul\":15622:15988   */\n      swap2\n      swap1\n      pop\n      jump\t// out\n        /* \"#utility.yul\":15994:16413   */\n    tag_87:\n        /* \"#utility.yul\":16160:16164   */\n      0x00\n        /* \"#utility.yul\":16198:16200   */\n      0x20\n        /* \"#utility.yul\":16187:16196   */\n      dup3\n        /* \"#utility.yul\":16183:16201   */\n      add\n        /* \"#utility.yul\":16175:16201   */\n      swap1\n      pop\n        /* \"#utility.yul\":16247:16256   */\n      dup2\n        /* \"#utility.yul\":16241:16245   */\n      dup2\n        /* \"#utility.yul\":16237:16257   */\n      sub\n        /* \"#utility.yul\":16233:16234   */\n      0x00\n        /* \"#utility.yul\":16222:16231   */\n      dup4\n        /* \"#utility.yul\":16218:16235   */\n      add\n        /* \"#utility.yul\":16211:16258   */\n      mstore\n        /* \"#utility.yul\":16275:16406   */\n      tag_351\n        /* \"#utility.yul\":16401:16405   */\n      dup2\n        /* \"#utility.yul\":16275:16406   */\n      tag_180\n      jump\t// in\n    tag_351:\n        /* \"#utility.yul\":16267:16406   */\n      swap1\n      pop\n        /* \"#utility.yul\":15994:16413   */\n      swap2\n      swap1\n      pop\n      jump\t// out\n        /* \"#utility.yul\":16419:16599   */\n    tag_181:\n        /* \"#utility.yul\":16467:16544   */\n      0x4e487b7100000000000000000000000000000000000000000000000000000000\n        /* \"#utility.yul\":16464:16465   */\n      0x00\n        /* \"#utility.yul\":16457:16545   */\n      mstore\n        /* \"#utility.yul\":16564:16568   */\n      0x41\n        /* \"#utility.yul\":16561:16562   */\n      0x04\n        /* \"#utility.yul\":16554:16569   */\n      mstore\n        /* \"#utility.yul\":16588:16592   */\n      0x24\n        /* \"#utility.yul\":16585:16586   */\n      0x00\n        /* \"#utility.yul\":16578:16593   */\n      revert\n        /* \"#utility.yul\":16605:16746   */\n    tag_182:\n        /* \"#utility.yul\":16654:16658   */\n      0x00\n        /* \"#utility.yul\":16677:16680   */\n      dup2\n        /* \"#utility.yul\":16669:16680   */\n      swap1\n      pop\n        /* \"#utility.yul\":16700:16703   */\n      dup2\n        /* \"#utility.yul\":16697:16698   */\n      0x00\n        /* \"#utility.yul\":16690:16704   */\n      mstore\n        /* \"#utility.yul\":16734:16738   */\n      0x20\n        /* \"#utility.yul\":16731:16732   */\n      0x00\n        /* \"#utility.yul\":16721:16739   */\n      keccak256\n        /* \"#utility.yul\":16713:16739   */\n      swap1\n      pop\n        /* \"#utility.yul\":16605:16746   */\n      swap2\n      swap1\n      pop\n      jump\t// out\n        /* \"#utility.yul\":16752:16845   */\n    tag_183:\n        /* \"#utility.yul\":16789:16795   */\n      0x00\n        /* \"#utility.yul\":16836:16838   */\n      0x20\n        /* \"#utility.yul\":16831:16833   */\n      0x1f\n        /* \"#utility.yul\":16824:16829   */\n      dup4\n        /* \"#utility.yul\":16820:16834   */\n      add\n        /* \"#utility.yul\":16816:16839   */\n      div\n        /* \"#utility.yul\":16806:16839   */\n      swap1\n      pop\n        /* \"#utility.yul\":16752:16845   */\n      swap2\n      swap1\n      pop\n      jump\t// out\n        /* \"#utility.yul\":16851:16958   */\n    tag_184:\n        /* \"#utility.yul\":16895:16903   */\n      0x00\n        /* \"#utility.yul\":16945:16950   */\n      dup3\n        /* \"#utility.yul\":16939:16943   */\n      dup3\n        /* \"#utility.yul\":16935:16951   */\n      shl\n        /* \"#utility.yul\":16914:16951   */\n      swap1\n      pop\n        /* \"#utility.yul\":16851:16958   */\n      swap3\n      swap2\n      pop\n      pop\n      jump\t// out\n        /* \"#utility.yul\":16964:17357   */\n    tag_185:\n        /* \"#utility.yul\":17033:17039   */\n      0x00\n        /* \"#utility.yul\":17083:17084   */\n      0x08\n        /* \"#utility.yul\":17071:17081   */\n      dup4\n        /* \"#utility.yul\":17067:17085   */\n      mul\n        /* \"#utility.yul\":17106:17203   */\n      tag_357\n        /* \"#utility.yul\":17136:17202   */\n      0xffffffffffffffffffffffffffffffffffffffffffffffffffffffffffffffff\n        /* \"#utility.yul\":17125:17134   */\n      dup3\n        /* \"#utility.yul\":17106:17203   */\n      tag_184\n      jump\t// in\n    tag_357:\n        /* \"#utility.yul\":17224:17263   */\n      tag_358\n        /* \"#utility.yul\":17254:17262   */\n      dup7\n        /* \"#utility.yul\":17243:17252   */\n      dup4\n        /* \"#utility.yul\":17224:17263   */\n      tag_184\n      jump\t// in\n    tag_358:\n        /* \"#utility.yul\":17212:17263   */\n      swap6\n      pop\n        /* \"#utility.yul\":17296:17300   */\n      dup1\n        /* \"#utility.yul\":17292:17301   */\n      not\n        /* \"#utility.yul\":17285:17290   */\n      dup5\n        /* \"#utility.yul\":17281:17302   */\n      and\n        /* \"#utility.yul\":17272:17302   */\n      swap4\n      pop\n        /* \"#utility.yul\":17345:17349   */\n      dup1\n        /* \"#utility.yul\":17335:17343   */\n      dup7\n        /* \"#utility.yul\":17331:17350   */\n      and\n        /* \"#utility.yul\":17324:17329   */\n      dup5\n        /* \"#utility.yul\":17321:17351   */\n      or\n        /* \"#utility.yul\":17311:17351   */\n      swap3\n      pop\n        /* \"#utility.yul\":17040:17357   */\n      pop\n      pop\n        /* \"#utility.yul\":16964:17357   */\n      swap4\n      swap3\n      pop\n      pop\n      pop\n      jump\t// out\n        /* \"#utility.yul\":17363:17423   */\n    tag_186:\n        /* \"#utility.yul\":17391:17394   */\n      0x00\n        /* \"#utility.yul\":17412:17417   */\n      dup2\n        /* \"#utility.yul\":17405:17417   */\n      swap1\n      pop\n        /* \"#utility.yul\":17363:17423   */\n      swap2\n      swap1\n      pop\n      jump\t// out\n        /* \"#utility.yul\":17429:17571   */\n    tag_187:\n        /* \"#utility.yul\":17479:17488   */\n      0x00\n        /* \"#utility.yul\":17512:17565   */\n      tag_361\n        /* \"#utility.yul\":17530:17564   */\n      tag_362\n        /* \"#utility.yul\":17539:17563   */\n      tag_363\n        /* \"#utility.yul\":17557:17562   */\n      dup5\n        /* \"#utility.yul\":17539:17563   */\n      tag_145\n      jump\t// in\n    tag_363:\n        /* \"#utility.yul\":17530:17564   */\n      tag_186\n      jump\t// in\n    tag_362:\n        /* \"#utility.yul\":17512:17565   */\n      tag_145\n      jump\t// in\n    tag_361:\n        /* \"#utility.yul\":17499:17565   */\n      swap1\n      pop\n        /* \"#utility.yul\":17429:17571   */\n      swap2\n      swap1\n      pop\n      jump\t// out\n        /* \"#utility.yul\":17577:17652   */\n    tag_188:\n        /* \"#utility.yul\":17620:17623   */\n      0x00\n        /* \"#utility.yul\":17641:17646   */\n      dup2\n        /* \"#utility.yul\":17634:17646   */\n      swap1\n      pop\n        /* \"#utility.yul\":17577:17652   */\n      swap2\n      swap1\n      pop\n      jump\t// out\n        /* \"#utility.yul\":17658:17927   */\n    tag_189:\n        /* \"#utility.yul\":17768:17807   */\n      tag_366\n        /* \"#utility.yul\":17799:17806   */\n      dup4\n        /* \"#utility.yul\":17768:17807   */\n      tag_187\n      jump\t// in\n    tag_366:\n        /* \"#utility.yul\":17829:17920   */\n      tag_367\n        /* \"#utility.yul\":17878:17919   */\n      tag_368\n        /* \"#utility.yul\":17902:17918   */\n      dup3\n        /* \"#utility.yul\":17878:17919   */\n      tag_188\n      jump\t// in\n    tag_368:\n        /* \"#utility.yul\":17870:17876   */\n      dup5\n        /* \"#utility.yul\":17863:17867   */\n      dup5\n        /* \"#utility.yul\":17857:17868   */\n      sload\n        /* \"#utility.yul\":17829:17920   */\n      tag_185\n      jump\t// in\n    tag_367:\n        /* \"#utility.yul\":17823:17827   */\n      dup3\n        /* \"#utility.yul\":17816:17921   */\n      sstore\n        /* \"#utility.yul\":17734:17927   */\n      pop\n        /* \"#utility.yul\":17658:17927   */\n      pop\n      pop\n      pop\n      jump\t// out\n        /* \"#utility.yul\":17933:18006   */\n    tag_190:\n        /* \"#utility.yul\":17978:17981   */\n      0x00\n        /* \"#utility.yul\":17933:18006   */\n      swap1\n      jump\t// out\n        /* \"#utility.yul\":18012:18201   */\n    tag_191:\n        /* \"#utility.yul\":18089:18121   */\n      tag_371\n      tag_190\n      jump\t// in\n    tag_371:\n        /* \"#utility.yul\":18130:18195   */\n      tag_372\n        /* \"#utility.yul\":18188:18194   */\n      dup2\n        /* \"#utility.yul\":18180:18186   */\n      dup5\n        /* \"#utility.yul\":18174:18178   */\n      dup5\n        /* \"#utility.yul\":18130:18195   */\n      tag_189\n      jump\t// in\n    tag_372:\n        /* \"#utility.yul\":18065:18201   */\n      pop\n        /* \"#utility.yul\":18012:18201   */\n      pop\n      pop\n      jump\t// out\n        /* \"#utility.yul\":18207:18393   */\n    tag_192:\n        /* \"#utility.yul\":18267:18387   */\n    tag_374:\n        /* \"#utility.yul\":18284:18287   */\n      dup2\n        /* \"#utility.yul\":18277:18282   */\n      dup2\n        /* \"#utility.yul\":18274:18288   */\n      lt\n        /* \"#utility.yul\":18267:18387   */\n      iszero\n      tag_376\n      jumpi\n        /* \"#utility.yul\":18338:18377   */\n      tag_377\n        /* \"#utility.yul\":18375:18376   */\n      0x00\n        /* \"#utility.yul\":18368:18373   */\n      dup3\n        /* \"#utility.yul\":18338:18377   */\n      tag_191\n      jump\t// in\n    tag_377:\n        /* \"#utility.yul\":18311:18312   */\n      0x01\n        /* \"#utility.yul\":18304:18309   */\n      dup2\n        /* \"#utility.yul\":18300:18313   */\n      add\n        /* \"#utility.yul\":18291:18313   */\n      swap1\n      pop\n        /* \"#utility.yul\":18267:18387   */\n      jump(tag_374)\n    tag_376:\n        /* \"#utility.yul\":18207:18393   */\n      pop\n      pop\n      jump\t// out\n        /* \"#utility.yul\":18399:18942   */\n    tag_193:\n        /* \"#utility.yul\":18500:18502   */\n      0x1f\n        /* \"#utility.yul\":18495:18498   */\n      dup3\n        /* \"#utility.yul\":18492:18503   */\n      gt\n        /* \"#utility.yul\":18489:18935   */\n      iszero\n      tag_379\n      jumpi\n        /* \"#utility.yul\":18534:18572   */\n      tag_380\n        /* \"#utility.yul\":18566:18571   */\n      dup2\n        /* \"#utility.yul\":18534:18572   */\n      tag_182\n      jump\t// in\n    tag_380:\n        /* \"#utility.yul\":18618:18647   */\n      tag_381\n        /* \"#utility.yul\":18636:18646   */\n      dup5\n        /* \"#utility.yul\":18618:18647   */\n      tag_183\n      jump\t// in\n    tag_381:\n        /* \"#utility.yul\":18608:18616   */\n      dup2\n        /* \"#utility.yul\":18604:18648   */\n      add\n        /* \"#utility.yul\":18801:18803   */\n      0x20\n        /* \"#utility.yul\":18789:18799   */\n      dup6\n        /* \"#utility.yul\":18786:18804   */\n      lt\n        /* \"#utility.yul\":18783:18832   */\n      iszero\n      tag_382\n      jumpi\n        /* \"#utility.yul\":18822:18830   */\n      dup2\n        /* \"#utility.yul\":18807:18830   */\n      swap1\n      pop\n        /* \"#utility.yul\":18783:18832   */\n    tag_382:\n        /* \"#utility.yul\":18845:18925   */\n      tag_383\n        /* \"#utility.yul\":18901:18923   */\n      tag_384\n        /* \"#utility.yul\":18919:18922   */\n      dup6\n        /* \"#utility.yul\":18901:18923   */\n      tag_183\n      jump\t// in\n    tag_384:\n        /* \"#utility.yul\":18891:18899   */\n      dup4\n        /* \"#utility.yul\":18887:18924   */\n      add\n        /* \"#utility.yul\":18874:18885   */\n      dup3\n        /* \"#utility.yul\":18845:18925   */\n      tag_192\n      jump\t// in\n    tag_383:\n        /* \"#utility.yul\":18504:18935   */\n      pop\n      pop\n        /* \"#utility.yul\":18489:18935   */\n    tag_379:\n        /* \"#utility.yul\":18399:18942   */\n      pop\n      pop\n      pop\n      jump\t// out\n        /* \"#utility.yul\":18948:19065   */\n    tag_194:\n        /* \"#utility.yul\":19002:19010   */\n      0x00\n        /* \"#utility.yul\":19052:19057   */\n      dup3\n        /* \"#utility.yul\":19046:19050   */\n      dup3\n        /* \"#utility.yul\":19042:19058   */\n      shr\n        /* \"#utility.yul\":19021:19058   */\n      swap1\n      pop\n        /* \"#utility.yul\":18948:19065   */\n      swap3\n      swap2\n      pop\n      pop\n      jump\t// out\n        /* \"#utility.yul\":19071:19240   */\n    tag_195:\n        /* \"#utility.yul\":19115:19121   */\n      0x00\n        /* \"#utility.yul\":19148:19199   */\n      tag_387\n        /* \"#utility.yul\":19196:19197   */\n      0x00\n        /* \"#utility.yul\":19192:19198   */\n      not\n        /* \"#utility.yul\":19184:19189   */\n      dup5\n        /* \"#utility.yul\":19181:19182   */\n      0x08\n        /* \"#utility.yul\":19177:19190   */\n      mul\n        /* \"#utility.yul\":19148:19199   */\n      tag_194\n      jump\t// in\n    tag_387:\n        /* \"#utility.yul\":19144:19200   */\n      not\n        /* \"#utility.yul\":19229:19233   */\n      dup1\n        /* \"#utility.yul\":19223:19227   */\n      dup4\n        /* \"#utility.yul\":19219:19234   */\n      and\n        /* \"#utility.yul\":19209:19234   */\n      swap2\n      pop\n        /* \"#utility.yul\":19122:19240   */\n      pop\n        /* \"#utility.yul\":19071:19240   */\n      swap3\n      swap2\n      pop\n      pop\n      jump\t// out\n        /* \"#utility.yul\":19245:19540   */\n    tag_196:\n        /* \"#utility.yul\":19321:19325   */\n      0x00\n        /* \"#utility.yul\":19467:19496   */\n      tag_389\n        /* \"#utility.yul\":19492:19495   */\n      dup4\n        /* \"#utility.yul\":19486:19490   */\n      dup4\n        /* \"#utility.yul\":19467:19496   */\n      tag_195\n      jump\t// in\n    tag_389:\n        /* \"#utility.yul\":19459:19496   */\n      swap2\n      pop\n        /* \"#utility.yul\":19529:19532   */\n      dup3\n        /* \"#utility.yul\":19526:19527   */\n      0x02\n        /* \"#utility.yul\":19522:19533   */\n      mul\n        /* \"#utility.yul\":19516:19520   */\n      dup3\n        /* \"#utility.yul\":19513:19534   */\n      or\n        /* \"#utility.yul\":19505:19534   */\n      swap1\n      pop\n        /* \"#utility.yul\":19245:19540   */\n      swap3\n      swap2\n      pop\n      pop\n      jump\t// out\n        /* \"#utility.yul\":19545:20940   */\n    tag_103:\n        /* \"#utility.yul\":19662:19699   */\n      tag_391\n        /* \"#utility.yul\":19695:19698   */\n      dup3\n        /* \"#utility.yul\":19662:19699   */\n      tag_151\n      jump\t// in\n    tag_391:\n        /* \"#utility.yul\":19764:19782   */\n      0xffffffffffffffff\n        /* \"#utility.yul\":19756:19762   */\n      dup2\n        /* \"#utility.yul\":19753:19783   */\n      gt\n        /* \"#utility.yul\":19750:19806   */\n      iszero\n      tag_392\n      jumpi\n        /* \"#utility.yul\":19786:19804   */\n      tag_393\n      tag_181\n      jump\t// in\n    tag_393:\n        /* \"#utility.yul\":19750:19806   */\n    tag_392:\n        /* \"#utility.yul\":19830:19868   */\n      tag_394\n        /* \"#utility.yul\":19862:19866   */\n      dup3\n        /* \"#utility.yul\":19856:19867   */\n      sload\n        /* \"#utility.yul\":19830:19868   */\n      tag_46\n      jump\t// in\n    tag_394:\n        /* \"#utility.yul\":19915:19982   */\n      tag_395\n        /* \"#utility.yul\":19975:19981   */\n      dup3\n        /* \"#utility.yul\":19967:19973   */\n      dup3\n        /* \"#utility.yul\":19961:19965   */\n      dup6\n        /* \"#utility.yul\":19915:19982   */\n      tag_193\n      jump\t// in\n    tag_395:\n        /* \"#utility.yul\":20009:20010   */\n      0x00\n        /* \"#utility.yul\":20033:20037   */\n      0x20\n        /* \"#utility.yul\":20020:20037   */\n      swap1\n      pop\n        /* \"#utility.yul\":20065:20067   */\n      0x1f\n        /* \"#utility.yul\":20057:20063   */\n      dup4\n        /* \"#utility.yul\":20054:20068   */\n      gt\n        /* \"#utility.yul\":20082:20083   */\n      0x01\n        /* \"#utility.yul\":20077:20695   */\n      dup2\n      eq\n      tag_397\n      jumpi\n        /* \"#utility.yul\":20739:20740   */\n      0x00\n        /* \"#utility.yul\":20756:20762   */\n      dup5\n        /* \"#utility.yul\":20753:20830   */\n      iszero\n      tag_398\n      jumpi\n        /* \"#utility.yul\":20805:20814   */\n      dup3\n        /* \"#utility.yul\":20800:20803   */\n      dup8\n        /* \"#utility.yul\":20796:20815   */\n      add\n        /* \"#utility.yul\":20790:20816   */\n      mload\n        /* \"#utility.yul\":20781:20816   */\n      swap1\n      pop\n        /* \"#utility.yul\":20753:20830   */\n    tag_398:\n        /* \"#utility.yul\":20856:20923   */\n      tag_399\n        /* \"#utility.yul\":20916:20922   */\n      dup6\n        /* \"#utility.yul\":20909:20914   */\n      dup3\n        /* \"#utility.yul\":20856:20923   */\n      tag_196\n      jump\t// in\n    tag_399:\n        /* \"#utility.yul\":20850:20854   */\n      dup7\n        /* \"#utility.yul\":20843:20924   */\n      sstore\n        /* \"#utility.yul\":20712:20934   */\n      pop\n        /* \"#utility.yul\":20047:20934   */\n      jump(tag_396)\n        /* \"#utility.yul\":20077:20695   */\n    tag_397:\n        /* \"#utility.yul\":20129:20133   */\n      0x1f\n        /* \"#utility.yul\":20125:20134   */\n      not\n        /* \"#utility.yul\":20117:20123   */\n      dup5\n        /* \"#utility.yul\":20113:20135   */\n      and\n        /* \"#utility.yul\":20163:20200   */\n      tag_400\n        /* \"#utility.yul\":20195:20199   */\n      dup7\n        /* \"#utility.yul\":20163:20200   */\n      tag_182\n      jump\t// in\n    tag_400:\n        /* \"#utility.yul\":20222:20223   */\n      0x00\n        /* \"#utility.yul\":20236:20444   */\n    tag_401:\n        /* \"#utility.yul\":20250:20257   */\n      dup3\n        /* \"#utility.yul\":20247:20248   */\n      dup2\n        /* \"#utility.yul\":20244:20258   */\n      lt\n        /* \"#utility.yul\":20236:20444   */\n      iszero\n      tag_403\n      jumpi\n        /* \"#utility.yul\":20329:20338   */\n      dup5\n        /* \"#utility.yul\":20324:20327   */\n      dup10\n        /* \"#utility.yul\":20320:20339   */\n      add\n        /* \"#utility.yul\":20314:20340   */\n      mload\n        /* \"#utility.yul\":20306:20312   */\n      dup3\n        /* \"#utility.yul\":20299:20341   */\n      sstore\n        /* \"#utility.yul\":20380:20381   */\n      0x01\n        /* \"#utility.yul\":20372:20378   */\n      dup3\n        /* \"#utility.yul\":20368:20382   */\n      add\n        /* \"#utility.yul\":20358:20382   */\n      swap2\n      pop\n        /* \"#utility.yul\":20427:20429   */\n      0x20\n        /* \"#utility.yul\":20416:20425   */\n      dup6\n        /* \"#utility.yul\":20412:20430   */\n      add\n        /* \"#utility.yul\":20399:20430   */\n      swap5\n      pop\n        /* \"#utility.yul\":20273:20277   */\n      0x20\n        /* \"#utility.yul\":20270:20271   */\n      dup2\n        /* \"#utility.yul\":20266:20278   */\n      add\n        /* \"#utility.yul\":20261:20278   */\n      swap1\n      pop\n        /* \"#utility.yul\":20236:20444   */\n      jump(tag_401)\n    tag_403:\n        /* \"#utility.yul\":20472:20478   */\n      dup7\n        /* \"#utility.yul\":20463:20470   */\n      dup4\n        /* \"#utility.yul\":20460:20479   */\n      lt\n        /* \"#utility.yul\":20457:20636   */\n      iszero\n      tag_404\n      jumpi\n        /* \"#utility.yul\":20530:20539   */\n      dup5\n        /* \"#utility.yul\":20525:20528   */\n      dup10\n        /* \"#utility.yul\":20521:20540   */\n      add\n        /* \"#utility.yul\":20515:20541   */\n      mload\n        /* \"#utility.yul\":20573:20621   */\n      tag_405\n        /* \"#utility.yul\":20615:20619   */\n      0x1f\n        /* \"#utility.yul\":20607:20613   */\n      dup10\n        /* \"#utility.yul\":20603:20620   */\n      and\n        /* \"#utility.yul\":20592:20601   */\n      dup3\n        /* \"#utility.yul\":20573:20621   */\n      tag_195\n      jump\t// in\n    tag_405:\n        /* \"#utility.yul\":20565:20571   */\n      dup4\n        /* \"#utility.yul\":20558:20622   */\n      sstore\n        /* \"#utility.yul\":20480:20636   */\n      pop\n        /* \"#utility.yul\":20457:20636   */\n    tag_404:\n        /* \"#utility.yul\":20682:20683   */\n      0x01\n        /* \"#utility.yul\":20678:20679   */\n      0x02\n        /* \"#utility.yul\":20670:20676   */\n      dup9\n        /* \"#utility.yul\":20666:20680   */\n      mul\n        /* \"#utility.yul\":20662:20684   */\n      add\n        /* \"#utility.yul\":20656:20660   */\n      dup9\n        /* \"#utility.yul\":20649:20685   */\n      sstore\n        /* \"#utility.yul\":20084:20695   */\n      pop\n      pop\n      pop\n        /* \"#utility.yul\":20047:20934   */\n    tag_396:\n      pop\n        /* \"#utility.yul\":19637:20940   */\n      pop\n      pop\n      pop\n        /* \"#utility.yul\":19545:20940   */\n      pop\n      pop\n      jump\t// out\n        /* \"#utility.yul\":20946:21092   */\n    tag_197:\n        /* \"#utility.yul\":21043:21049   */\n      dup3\n        /* \"#utility.yul\":21038:21041   */\n      dup2\n        /* \"#utility.yul\":21033:21036   */\n      dup4\n        /* \"#utility.yul\":21020:21050   */\n      calldatacopy\n        /* \"#utility.yul\":21084:21085   */\n      0x00\n        /* \"#utility.yul\":21075:21081   */\n      dup4\n        /* \"#utility.yul\":21070:21073   */\n      dup4\n        /* \"#utility.yul\":21066:21082   */\n      add\n        /* \"#utility.yul\":21059:21086   */\n      mstore\n        /* \"#utility.yul\":20946:21092   */\n      pop\n      pop\n      pop\n      jump\t// out\n        /* \"#utility.yul\":21122:21439   */\n    tag_198:\n        /* \"#utility.yul\":21220:21223   */\n      0x00\n        /* \"#utility.yul\":21241:21312   */\n      tag_408\n        /* \"#utility.yul\":21305:21311   */\n      dup4\n        /* \"#utility.yul\":21300:21303   */\n      dup6\n        /* \"#utility.yul\":21241:21312   */\n      tag_167\n      jump\t// in\n    tag_408:\n        /* \"#utility.yul\":21234:21312   */\n      swap4\n      pop\n        /* \"#utility.yul\":21322:21378   */\n      tag_409\n        /* \"#utility.yul\":21371:21377   */\n      dup4\n        /* \"#utility.yul\":21366:21369   */\n      dup6\n        /* \"#utility.yul\":21359:21364   */\n      dup5\n        /* \"#utility.yul\":21322:21378   */\n      tag_197\n      jump\t// in\n    tag_409:\n        /* \"#utility.yul\":21403:21432   */\n      tag_410\n        /* \"#utility.yul\":21425:21431   */\n      dup4\n        /* \"#utility.yul\":21403:21432   */\n      tag_154\n      jump\t// in\n    tag_410:\n        /* \"#utility.yul\":21398:21401   */\n      dup5\n        /* \"#utility.yul\":21394:21433   */\n      add\n        /* \"#utility.yul\":21387:21433   */\n      swap1\n      pop\n        /* \"#utility.yul\":21122:21439   */\n      swap4\n      swap3\n      pop\n      pop\n      pop\n      jump\t// out\n        /* \"#utility.yul\":21445:22208   */\n    tag_106:\n        /* \"#utility.yul\":21674:21678   */\n      0x00\n        /* \"#utility.yul\":21712:21715   */\n      0xa0\n        /* \"#utility.yul\":21701:21710   */\n      dup3\n        /* \"#utility.yul\":21697:21716   */\n      add\n        /* \"#utility.yul\":21689:21716   */\n      swap1\n      pop\n        /* \"#utility.yul\":21762:21771   */\n      dup2\n        /* \"#utility.yul\":21756:21760   */\n      dup2\n        /* \"#utility.yul\":21752:21772   */\n      sub\n        /* \"#utility.yul\":21748:21749   */\n      0x00\n        /* \"#utility.yul\":21737:21746   */\n      dup4\n        /* \"#utility.yul\":21733:21750   */\n      add\n        /* \"#utility.yul\":21726:21773   */\n      mstore\n        /* \"#utility.yul\":21790:21878   */\n      tag_412\n        /* \"#utility.yul\":21873:21877   */\n      dup2\n        /* \"#utility.yul\":21864:21870   */\n      dup9\n        /* \"#utility.yul\":21856:21862   */\n      dup11\n        /* \"#utility.yul\":21790:21878   */\n      tag_198\n      jump\t// in\n    tag_412:\n        /* \"#utility.yul\":21782:21878   */\n      swap1\n      pop\n        /* \"#utility.yul\":21888:21960   */\n      tag_413\n        /* \"#utility.yul\":21956:21958   */\n      0x20\n        /* \"#utility.yul\":21945:21954   */\n      dup4\n        /* \"#utility.yul\":21941:21959   */\n      add\n        /* \"#utility.yul\":21932:21938   */\n      dup8\n        /* \"#utility.yul\":21888:21960   */\n      tag_164\n      jump\t// in\n    tag_413:\n        /* \"#utility.yul\":21970:22042   */\n      tag_414\n        /* \"#utility.yul\":22038:22040   */\n      0x40\n        /* \"#utility.yul\":22027:22036   */\n      dup4\n        /* \"#utility.yul\":22023:22041   */\n      add\n        /* \"#utility.yul\":22014:22020   */\n      dup7\n        /* \"#utility.yul\":21970:22042   */\n      tag_165\n      jump\t// in\n    tag_414:\n        /* \"#utility.yul\":22052:22118   */\n      tag_415\n        /* \"#utility.yul\":22114:22116   */\n      0x60\n        /* \"#utility.yul\":22103:22112   */\n      dup4\n        /* \"#utility.yul\":22099:22117   */\n      add\n        /* \"#utility.yul\":22090:22096   */\n      dup6\n        /* \"#utility.yul\":22052:22118   */\n      tag_176\n      jump\t// in\n    tag_415:\n        /* \"#utility.yul\":22128:22201   */\n      tag_416\n        /* \"#utility.yul\":22196:22199   */\n      0x80\n        /* \"#utility.yul\":22185:22194   */\n      dup4\n        /* \"#utility.yul\":22181:22200   */\n      add\n        /* \"#utility.yul\":22172:22178   */\n      dup5\n        /* \"#utility.yul\":22128:22201   */\n      tag_165\n      jump\t// in\n    tag_416:\n        /* \"#utility.yul\":21445:22208   */\n      swap8\n      swap7\n      pop\n      pop\n      pop\n      pop\n      pop\n      pop\n      pop\n      jump\t// out\n        /* \"#utility.yul\":22214:22383   */\n    tag_199:\n        /* \"#utility.yul\":22354:22375   */\n      0x496e646578206f7574206f6620626f756e647300000000000000000000000000\n        /* \"#utility.yul\":22350:22351   */\n      0x00\n        /* \"#utility.yul\":22342:22348   */\n      dup3\n        /* \"#utility.yul\":22338:22352   */\n      add\n        /* \"#utility.yul\":22331:22376   */\n      mstore\n        /* \"#utility.yul\":22214:22383   */\n      pop\n      jump\t// out\n        /* \"#utility.yul\":22389:22755   */\n    tag_200:\n        /* \"#utility.yul\":22531:22534   */\n      0x00\n        /* \"#utility.yul\":22552:22619   */\n      tag_419\n        /* \"#utility.yul\":22616:22618   */\n      0x13\n        /* \"#utility.yul\":22611:22614   */\n      dup4\n        /* \"#utility.yul\":22552:22619   */\n      tag_167\n      jump\t// in\n    tag_419:\n        /* \"#utility.yul\":22545:22619   */\n      swap2\n      pop\n        /* \"#utility.yul\":22628:22721   */\n      tag_420\n        /* \"#utility.yul\":22717:22720   */\n      dup3\n        /* \"#utility.yul\":22628:22721   */\n      tag_199\n      jump\t// in\n    tag_420:\n        /* \"#utility.yul\":22746:22748   */\n      0x20\n        /* \"#utility.yul\":22741:22744   */\n      dup3\n        /* \"#utility.yul\":22737:22749   */\n      add\n        /* \"#utility.yul\":22730:22749   */\n      swap1\n      pop\n        /* \"#utility.yul\":22389:22755   */\n      swap2\n      swap1\n      pop\n      jump\t// out\n        /* \"#utility.yul\":22761:23180   */\n    tag_124:\n        /* \"#utility.yul\":22927:22931   */\n      0x00\n        /* \"#utility.yul\":22965:22967   */\n      0x20\n        /* \"#utility.yul\":22954:22963   */\n      dup3\n        /* \"#utility.yul\":22950:22968   */\n      add\n        /* \"#utility.yul\":22942:22968   */\n      swap1\n      pop\n        /* \"#utility.yul\":23014:23023   */\n      dup2\n        /* \"#utility.yul\":23008:23012   */\n      dup2\n        /* \"#utility.yul\":23004:23024   */\n      sub\n        /* \"#utility.yul\":23000:23001   */\n      0x00\n        /* \"#utility.yul\":22989:22998   */\n      dup4\n        /* \"#utility.yul\":22985:23002   */\n      add\n        /* \"#utility.yul\":22978:23025   */\n      mstore\n        /* \"#utility.yul\":23042:23173   */\n      tag_422\n        /* \"#utility.yul\":23168:23172   */\n      dup2\n        /* \"#utility.yul\":23042:23173   */\n      tag_200\n      jump\t// in\n    tag_422:\n        /* \"#utility.yul\":23034:23173   */\n      swap1\n      pop\n        /* \"#utility.yul\":22761:23180   */\n      swap2\n      swap1\n      pop\n      jump\t// out\n        /* \"#utility.yul\":23186:23366   */\n    tag_127:\n        /* \"#utility.yul\":23234:23311   */\n      0x4e487b7100000000000000000000000000000000000000000000000000000000\n        /* \"#utility.yul\":23231:23232   */\n      0x00\n        /* \"#utility.yul\":23224:23312   */\n      mstore\n        /* \"#utility.yul\":23331:23335   */\n      0x32\n        /* \"#utility.yul\":23328:23329   */\n      0x04\n        /* \"#utility.yul\":23321:23336   */\n      mstore\n        /* \"#utility.yul\":23355:23359   */\n      0x24\n        /* \"#utility.yul\":23352:23353   */\n      0x00\n        /* \"#utility.yul\":23345:23360   */\n      revert\n\n    auxdata: 0xa26469706673582212208ae79004d11fe827fd881730a4da6a19f091cafce1ccfe1b8f0ea5329af6d56064736f6c63430008180033\n}\n",
				"bytecode": {
					"linkReferences": {},
					"object": "60806040523480156200001157600080fd5b5033600073ffffffffffffffffffffffffffffffffffffffff168173ffffffffffffffffffffffffffffffffffffffff1603620000885760006040517f1e4fbdf70000000000000000000000000000000000000000000000000000000081526004016200007f9190620001a9565b60405180910390fd5b6200009981620000a060201b60201c565b50620001c6565b60008060009054906101000a900473ffffffffffffffffffffffffffffffffffffffff169050816000806101000a81548173ffffffffffffffffffffffffffffffffffffffff021916908373ffffffffffffffffffffffffffffffffffffffff1602179055508173ffffffffffffffffffffffffffffffffffffffff168173ffffffffffffffffffffffffffffffffffffffff167f8be0079c531659141344cd1fd0a4f28419497f9722a3daafe3b4186f6b6457e060405160405180910390a35050565b600073ffffffffffffffffffffffffffffffffffffffff82169050919050565b6000620001918262000164565b9050919050565b620001a38162000184565b82525050565b6000602082019050620001c0600083018462000198565b92915050565b611afa80620001d66000396000f3fe608060405234801561001057600080fd5b50600436106100885760003560e01c80638da5cb5b1161005b5780638da5cb5b146100ff5780639be572f61461011d578063f2fde38b1461013b578063ff5d32fe1461015757610088565b806341d2c8631461008d5780636386c1c7146100a95780636f715ad8146100d9578063715018a6146100f5575b600080fd5b6100a760048036038101906100a29190610f7b565b610187565b005b6100c360048036038101906100be9190610fe2565b61058b565b6040516100d09190611142565b60405180910390f35b6100f360048036038101906100ee91906111c9565b6106fb565b005b6100fd610bac565b005b610107610bc0565b6040516101149190611272565b60405180910390f35b610125610be9565b604051610132919061129c565b60405180910390f35b61015560048036038101906101509190610fe2565b610bf6565b005b610171600480360381019061016c91906112b7565b610c7c565b60405161017e9190611272565b60405180910390f35b6000600160003373ffffffffffffffffffffffffffffffffffffffff1673ffffffffffffffffffffffffffffffffffffffff16815260200190815260200160002060000180546101d690611313565b905011610218576040517f08c379a000000000000000000000000000000000000000000000000000000000815260040161020f906113a1565b60405180910390fd5b81156102e057808473ffffffffffffffffffffffffffffffffffffffff1662fdd58e33866040518363ffffffff1660e01b81526004016102599291906113c1565b602060405180830381865afa158015610276573d6000803e3d6000fd5b505050506040513d601f19601f8201168201806040525081019061029a91906113ff565b10156102db576040517f08c379a00000000000000000000000000000000000000000000000000000000081526004016102d29061149e565b60405180910390fd5b6103c8565b3373ffffffffffffffffffffffffffffffffffffffff168473ffffffffffffffffffffffffffffffffffffffff16636352211e856040518263ffffffff1660e01b8152600401610330919061129c565b602060405180830381865afa15801561034d573d6000803e3d6000fd5b505050506040513d601f19601f8201168201806040525081019061037191906114d3565b73ffffffffffffffffffffffffffffffffffffffff16146103c7576040517f08c379a00000000000000000000000000000000000000000000000000000000081526004016103be90611572565b60405180910390fd5b5b83600160003373ffffffffffffffffffffffffffffffffffffffff1673ffffffffffffffffffffffffffffffffffffffff16815260200190815260200160002060010160006101000a81548173ffffffffffffffffffffffffffffffffffffffff021916908373ffffffffffffffffffffffffffffffffffffffff16021790555082600160003373ffffffffffffffffffffffffffffffffffffffff1673ffffffffffffffffffffffffffffffffffffffff1681526020019081526020016000206002018190555081600160003373ffffffffffffffffffffffffffffffffffffffff1673ffffffffffffffffffffffffffffffffffffffff16815260200190815260200160002060030160006101000a81548160ff02191690831515021790555080600160003373ffffffffffffffffffffffffffffffffffffffff1673ffffffffffffffffffffffffffffffffffffffff168152602001908152602001600020600401819055503373ffffffffffffffffffffffffffffffffffffffff167fc8e957e56727c39ec71c2591491672da075fc47164d0941669c875a15e6ccdd38585858560405161057d94939291906115a1565b60405180910390a250505050565b610593610e5e565b600160008373ffffffffffffffffffffffffffffffffffffffff1673ffffffffffffffffffffffffffffffffffffffff1681526020019081526020016000206040518060a00160405290816000820180546105ed90611313565b80601f016020809104026020016040519081016040528092919081815260200182805461061990611313565b80156106665780601f1061063b57610100808354040283529160200191610666565b820191906000526020600020905b81548152906001019060200180831161064957829003601f168201915b505050505081526020016001820160009054906101000a900473ffffffffffffffffffffffffffffffffffffffff1673ffffffffffffffffffffffffffffffffffffffff1673ffffffffffffffffffffffffffffffffffffffff168152602001600282015481526020016003820160009054906101000a900460ff161515151581526020016004820154815250509050919050565b6000600160003373ffffffffffffffffffffffffffffffffffffffff1673ffffffffffffffffffffffffffffffffffffffff168152602001908152602001600020600001805461074a90611313565b90501461078c576040517f08c379a000000000000000000000000000000000000000000000000000000000815260040161078390611632565b60405180910390fd5b600486869050101580156107a45750600f8686905011155b6107e3576040517f08c379a00000000000000000000000000000000000000000000000000000000081526004016107da906116c4565b60405180910390fd5b81156108ab57808473ffffffffffffffffffffffffffffffffffffffff1662fdd58e33866040518363ffffffff1660e01b81526004016108249291906113c1565b602060405180830381865afa158015610841573d6000803e3d6000fd5b505050506040513d601f19601f8201168201806040525081019061086591906113ff565b10156108a6576040517f08c379a000000000000000000000000000000000000000000000000000000000815260040161089d9061149e565b60405180910390fd5b610993565b3373ffffffffffffffffffffffffffffffffffffffff168473ffffffffffffffffffffffffffffffffffffffff16636352211e856040518263ffffffff1660e01b81526004016108fb919061129c565b602060405180830381865afa158015610918573d6000803e3d6000fd5b505050506040513d601f19601f8201168201806040525081019061093c91906114d3565b73ffffffffffffffffffffffffffffffffffffffff1614610992576040517f08c379a000000000000000000000000000000000000000000000000000000000815260040161098990611572565b60405180910390fd5b5b6040518060a0016040528087878080601f016020809104026020016040519081016040528093929190818152602001838380828437600081840152601f19601f8201169050808301925050505050505081526020018573ffffffffffffffffffffffffffffffffffffffff168152602001848152602001831515815260200182815250600160003373ffffffffffffffffffffffffffffffffffffffff1673ffffffffffffffffffffffffffffffffffffffff1681526020019081526020016000206000820151816000019081610a6a91906118bf565b5060208201518160010160006101000a81548173ffffffffffffffffffffffffffffffffffffffff021916908373ffffffffffffffffffffffffffffffffffffffff1602179055506040820151816002015560608201518160030160006101000a81548160ff021916908315150217905550608082015181600401559050506002339080600181540180825580915050600190039060005260206000200160009091909190916101000a81548173ffffffffffffffffffffffffffffffffffffffff021916908373ffffffffffffffffffffffffffffffffffffffff1602179055503373ffffffffffffffffffffffffffffffffffffffff167f32a1606c3d0be99908151354b21f632c3f084d710d9909fc4875bef23d1b068a878787878787604051610b9c969594939291906119cd565b60405180910390a2505050505050565b610bb4610d0b565b610bbe6000610d92565b565b60008060009054906101000a900473ffffffffffffffffffffffffffffffffffffffff16905090565b6000600280549050905090565b610bfe610d0b565b600073ffffffffffffffffffffffffffffffffffffffff168173ffffffffffffffffffffffffffffffffffffffff1603610c705760006040517f1e4fbdf7000000000000000000000000000000000000000000000000000000008152600401610c679190611272565b60405180910390fd5b610c7981610d92565b50565b60006002805490508210610cc5576040517f08c379a0000000000000000000000000000000000000000000000000000000008152600401610cbc90611a75565b60405180910390fd5b60028281548110610cd957610cd8611a95565b5b9060005260206000200160009054906101000a900473ffffffffffffffffffffffffffffffffffffffff169050919050565b610d13610e56565b73ffffffffffffffffffffffffffffffffffffffff16610d31610bc0565b73ffffffffffffffffffffffffffffffffffffffff1614610d9057610d54610e56565b6040517f118cdaa7000000000000000000000000000000000000000000000000000000008152600401610d879190611272565b60405180910390fd5b565b60008060009054906101000a900473ffffffffffffffffffffffffffffffffffffffff169050816000806101000a81548173ffffffffffffffffffffffffffffffffffffffff021916908373ffffffffffffffffffffffffffffffffffffffff1602179055508173ffffffffffffffffffffffffffffffffffffffff168173ffffffffffffffffffffffffffffffffffffffff167f8be0079c531659141344cd1fd0a4f28419497f9722a3daafe3b4186f6b6457e060405160405180910390a35050565b600033905090565b6040518060a0016040528060608152602001600073ffffffffffffffffffffffffffffffffffffffff16815260200160008152602001600015158152602001600081525090565b600080fd5b600080fd5b600073ffffffffffffffffffffffffffffffffffffffff82169050919050565b6000610eda82610eaf565b9050919050565b610eea81610ecf565b8114610ef557600080fd5b50565b600081359050610f0781610ee1565b92915050565b6000819050919050565b610f2081610f0d565b8114610f2b57600080fd5b50565b600081359050610f3d81610f17565b92915050565b60008115159050919050565b610f5881610f43565b8114610f6357600080fd5b50565b600081359050610f7581610f4f565b92915050565b60008060008060808587031215610f9557610f94610ea5565b5b6000610fa387828801610ef8565b9450506020610fb487828801610f2e565b9350506040610fc587828801610f66565b9250506060610fd687828801610f2e565b91505092959194509250565b600060208284031215610ff857610ff7610ea5565b5b600061100684828501610ef8565b91505092915050565b600081519050919050565b600082825260208201905092915050565b60005b8381101561104957808201518184015260208101905061102e565b60008484015250505050565b6000601f19601f8301169050919050565b60006110718261100f565b61107b818561101a565b935061108b81856020860161102b565b61109481611055565b840191505092915050565b6110a881610ecf565b82525050565b6110b781610f0d565b82525050565b6110c681610f43565b82525050565b600060a08301600083015184820360008601526110e98282611066565b91505060208301516110fe602086018261109f565b50604083015161111160408601826110ae565b50606083015161112460608601826110bd565b50608083015161113760808601826110ae565b508091505092915050565b6000602082019050818103600083015261115c81846110cc565b905092915050565b600080fd5b600080fd5b600080fd5b60008083601f84011261118957611188611164565b5b8235905067ffffffffffffffff8111156111a6576111a5611169565b5b6020830191508360018202830111156111c2576111c161116e565b5b9250929050565b60008060008060008060a087890312156111e6576111e5610ea5565b5b600087013567ffffffffffffffff81111561120457611203610eaa565b5b61121089828a01611173565b9650965050602061122389828a01610ef8565b945050604061123489828a01610f2e565b935050606061124589828a01610f66565b925050608061125689828a01610f2e565b9150509295509295509295565b61126c81610ecf565b82525050565b60006020820190506112876000830184611263565b92915050565b61129681610f0d565b82525050565b60006020820190506112b1600083018461128d565b92915050565b6000602082840312156112cd576112cc610ea5565b5b60006112db84828501610f2e565b91505092915050565b7f4e487b7100000000000000000000000000000000000000000000000000000000600052602260045260246000fd5b6000600282049050600182168061132b57607f821691505b60208210810361133e5761133d6112e4565b5b50919050565b600082825260208201905092915050565b7f55736572206e6f7420726567697374657265642e000000000000000000000000600082015250565b600061138b601483611344565b915061139682611355565b602082019050919050565b600060208201905081810360008301526113ba8161137e565b9050919050565b60006040820190506113d66000830185611263565b6113e3602083018461128d565b9392505050565b6000815190506113f981610f17565b92915050565b60006020828403121561141557611414610ea5565b5b6000611423848285016113ea565b91505092915050565b7f496e73756666696369656e742062616c616e636520666f72204552433131353560008201527f20746f6b656e0000000000000000000000000000000000000000000000000000602082015250565b6000611488602683611344565b91506114938261142c565b604082019050919050565b600060208201905081810360008301526114b78161147b565b9050919050565b6000815190506114cd81610ee1565b92915050565b6000602082840312156114e9576114e8610ea5565b5b60006114f7848285016114be565b91505092915050565b7f4e6f7420746865206f776e6572206f6620746869732045524337323120746f6b60008201527f656e000000000000000000000000000000000000000000000000000000000000602082015250565b600061155c602283611344565b915061156782611500565b604082019050919050565b6000602082019050818103600083015261158b8161154f565b9050919050565b61159b81610f43565b82525050565b60006080820190506115b66000830187611263565b6115c3602083018661128d565b6115d06040830185611592565b6115dd606083018461128d565b95945050505050565b7f5573657220616c726561647920726567697374657265642e0000000000000000600082015250565b600061161c601883611344565b9150611627826115e6565b602082019050919050565b6000602082019050818103600083015261164b8161160f565b9050919050565b7f557365726e616d65206d757374206265203420746f203135206368617261637460008201527f657273206c6f6e672e0000000000000000000000000000000000000000000000602082015250565b60006116ae602983611344565b91506116b982611652565b604082019050919050565b600060208201905081810360008301526116dd816116a1565b9050919050565b7f4e487b7100000000000000000000000000000000000000000000000000000000600052604160045260246000fd5b60008190508160005260206000209050919050565b60006020601f8301049050919050565b600082821b905092915050565b6000600883026117757fffffffffffffffffffffffffffffffffffffffffffffffffffffffffffffffff82611738565b61177f8683611738565b95508019841693508086168417925050509392505050565b6000819050919050565b60006117bc6117b76117b284610f0d565b611797565b610f0d565b9050919050565b6000819050919050565b6117d6836117a1565b6117ea6117e2826117c3565b848454611745565b825550505050565b600090565b6117ff6117f2565b61180a8184846117cd565b505050565b5b8181101561182e576118236000826117f7565b600181019050611810565b5050565b601f8211156118735761184481611713565b61184d84611728565b8101602085101561185c578190505b61187061186885611728565b83018261180f565b50505b505050565b600082821c905092915050565b600061189660001984600802611878565b1980831691505092915050565b60006118af8383611885565b9150826002028217905092915050565b6118c88261100f565b67ffffffffffffffff8111156118e1576118e06116e4565b5b6118eb8254611313565b6118f6828285611832565b600060209050601f8311600181146119295760008415611917578287015190505b61192185826118a3565b865550611989565b601f19841661193786611713565b60005b8281101561195f5784890151825560018201915060208501945060208101905061193a565b8683101561197c5784890151611978601f891682611885565b8355505b6001600288020188555050505b505050505050565b82818337600083830152505050565b60006119ac8385611344565b93506119b9838584611991565b6119c283611055565b840190509392505050565b600060a08201905081810360008301526119e881888a6119a0565b90506119f76020830187611263565b611a04604083018661128d565b611a116060830185611592565b611a1e608083018461128d565b979650505050505050565b7f496e646578206f7574206f6620626f756e647300000000000000000000000000600082015250565b6000611a5f601383611344565b9150611a6a82611a29565b602082019050919050565b60006020820190508181036000830152611a8e81611a52565b9050919050565b7f4e487b7100000000000000000000000000000000000000000000000000000000600052603260045260246000fdfea26469706673582212208ae79004d11fe827fd881730a4da6a19f091cafce1ccfe1b8f0ea5329af6d56064736f6c63430008180033",
					"opcodes": "PUSH1 0x80 PUSH1 0x40 MSTORE CALLVALUE DUP1 ISZERO PUSH3 0x11 JUMPI PUSH1 0x0 DUP1 REVERT JUMPDEST POP CALLER PUSH1 0x0 PUSH20 0xFFFFFFFFFFFFFFFFFFFFFFFFFFFFFFFFFFFFFFFF AND DUP2 PUSH20 0xFFFFFFFFFFFFFFFFFFFFFFFFFFFFFFFFFFFFFFFF AND SUB PUSH3 0x88 JUMPI PUSH1 0x0 PUSH1 0x40 MLOAD PUSH32 0x1E4FBDF700000000000000000000000000000000000000000000000000000000 DUP2 MSTORE PUSH1 0x4 ADD PUSH3 0x7F SWAP2 SWAP1 PUSH3 0x1A9 JUMP JUMPDEST PUSH1 0x40 MLOAD DUP1 SWAP2 SUB SWAP1 REVERT JUMPDEST PUSH3 0x99 DUP2 PUSH3 0xA0 PUSH1 0x20 SHL PUSH1 0x20 SHR JUMP JUMPDEST POP PUSH3 0x1C6 JUMP JUMPDEST PUSH1 0x0 DUP1 PUSH1 0x0 SWAP1 SLOAD SWAP1 PUSH2 0x100 EXP SWAP1 DIV PUSH20 0xFFFFFFFFFFFFFFFFFFFFFFFFFFFFFFFFFFFFFFFF AND SWAP1 POP DUP2 PUSH1 0x0 DUP1 PUSH2 0x100 EXP DUP2 SLOAD DUP2 PUSH20 0xFFFFFFFFFFFFFFFFFFFFFFFFFFFFFFFFFFFFFFFF MUL NOT AND SWAP1 DUP4 PUSH20 0xFFFFFFFFFFFFFFFFFFFFFFFFFFFFFFFFFFFFFFFF AND MUL OR SWAP1 SSTORE POP DUP2 PUSH20 0xFFFFFFFFFFFFFFFFFFFFFFFFFFFFFFFFFFFFFFFF AND DUP2 PUSH20 0xFFFFFFFFFFFFFFFFFFFFFFFFFFFFFFFFFFFFFFFF AND PUSH32 0x8BE0079C531659141344CD1FD0A4F28419497F9722A3DAAFE3B4186F6B6457E0 PUSH1 0x40 MLOAD PUSH1 0x40 MLOAD DUP1 SWAP2 SUB SWAP1 LOG3 POP POP JUMP JUMPDEST PUSH1 0x0 PUSH20 0xFFFFFFFFFFFFFFFFFFFFFFFFFFFFFFFFFFFFFFFF DUP3 AND SWAP1 POP SWAP2 SWAP1 POP JUMP JUMPDEST PUSH1 0x0 PUSH3 0x191 DUP3 PUSH3 0x164 JUMP JUMPDEST SWAP1 POP SWAP2 SWAP1 POP JUMP JUMPDEST PUSH3 0x1A3 DUP2 PUSH3 0x184 JUMP JUMPDEST DUP3 MSTORE POP POP JUMP JUMPDEST PUSH1 0x0 PUSH1 0x20 DUP3 ADD SWAP1 POP PUSH3 0x1C0 PUSH1 0x0 DUP4 ADD DUP5 PUSH3 0x198 JUMP JUMPDEST SWAP3 SWAP2 POP POP JUMP JUMPDEST PUSH2 0x1AFA DUP1 PUSH3 0x1D6 PUSH1 0x0 CODECOPY PUSH1 0x0 RETURN INVALID PUSH1 0x80 PUSH1 0x40 MSTORE CALLVALUE DUP1 ISZERO PUSH2 0x10 JUMPI PUSH1 0x0 DUP1 REVERT JUMPDEST POP PUSH1 0x4 CALLDATASIZE LT PUSH2 0x88 JUMPI PUSH1 0x0 CALLDATALOAD PUSH1 0xE0 SHR DUP1 PUSH4 0x8DA5CB5B GT PUSH2 0x5B JUMPI DUP1 PUSH4 0x8DA5CB5B EQ PUSH2 0xFF JUMPI DUP1 PUSH4 0x9BE572F6 EQ PUSH2 0x11D JUMPI DUP1 PUSH4 0xF2FDE38B EQ PUSH2 0x13B JUMPI DUP1 PUSH4 0xFF5D32FE EQ PUSH2 0x157 JUMPI PUSH2 0x88 JUMP JUMPDEST DUP1 PUSH4 0x41D2C863 EQ PUSH2 0x8D JUMPI DUP1 PUSH4 0x6386C1C7 EQ PUSH2 0xA9 JUMPI DUP1 PUSH4 0x6F715AD8 EQ PUSH2 0xD9 JUMPI DUP1 PUSH4 0x715018A6 EQ PUSH2 0xF5 JUMPI JUMPDEST PUSH1 0x0 DUP1 REVERT JUMPDEST PUSH2 0xA7 PUSH1 0x4 DUP1 CALLDATASIZE SUB DUP2 ADD SWAP1 PUSH2 0xA2 SWAP2 SWAP1 PUSH2 0xF7B JUMP JUMPDEST PUSH2 0x187 JUMP JUMPDEST STOP JUMPDEST PUSH2 0xC3 PUSH1 0x4 DUP1 CALLDATASIZE SUB DUP2 ADD SWAP1 PUSH2 0xBE SWAP2 SWAP1 PUSH2 0xFE2 JUMP JUMPDEST PUSH2 0x58B JUMP JUMPDEST PUSH1 0x40 MLOAD PUSH2 0xD0 SWAP2 SWAP1 PUSH2 0x1142 JUMP JUMPDEST PUSH1 0x40 MLOAD DUP1 SWAP2 SUB SWAP1 RETURN JUMPDEST PUSH2 0xF3 PUSH1 0x4 DUP1 CALLDATASIZE SUB DUP2 ADD SWAP1 PUSH2 0xEE SWAP2 SWAP1 PUSH2 0x11C9 JUMP JUMPDEST PUSH2 0x6FB JUMP JUMPDEST STOP JUMPDEST PUSH2 0xFD PUSH2 0xBAC JUMP JUMPDEST STOP JUMPDEST PUSH2 0x107 PUSH2 0xBC0 JUMP JUMPDEST PUSH1 0x40 MLOAD PUSH2 0x114 SWAP2 SWAP1 PUSH2 0x1272 JUMP JUMPDEST PUSH1 0x40 MLOAD DUP1 SWAP2 SUB SWAP1 RETURN JUMPDEST PUSH2 0x125 PUSH2 0xBE9 JUMP JUMPDEST PUSH1 0x40 MLOAD PUSH2 0x132 SWAP2 SWAP1 PUSH2 0x129C JUMP JUMPDEST PUSH1 0x40 MLOAD DUP1 SWAP2 SUB SWAP1 RETURN JUMPDEST PUSH2 0x155 PUSH1 0x4 DUP1 CALLDATASIZE SUB DUP2 ADD SWAP1 PUSH2 0x150 SWAP2 SWAP1 PUSH2 0xFE2 JUMP JUMPDEST PUSH2 0xBF6 JUMP JUMPDEST STOP JUMPDEST PUSH2 0x171 PUSH1 0x4 DUP1 CALLDATASIZE SUB DUP2 ADD SWAP1 PUSH2 0x16C SWAP2 SWAP1 PUSH2 0x12B7 JUMP JUMPDEST PUSH2 0xC7C JUMP JUMPDEST PUSH1 0x40 MLOAD PUSH2 0x17E SWAP2 SWAP1 PUSH2 0x1272 JUMP JUMPDEST PUSH1 0x40 MLOAD DUP1 SWAP2 SUB SWAP1 RETURN JUMPDEST PUSH1 0x0 PUSH1 0x1 PUSH1 0x0 CALLER PUSH20 0xFFFFFFFFFFFFFFFFFFFFFFFFFFFFFFFFFFFFFFFF AND PUSH20 0xFFFFFFFFFFFFFFFFFFFFFFFFFFFFFFFFFFFFFFFF AND DUP2 MSTORE PUSH1 0x20 ADD SWAP1 DUP2 MSTORE PUSH1 0x20 ADD PUSH1 0x0 KECCAK256 PUSH1 0x0 ADD DUP1 SLOAD PUSH2 0x1D6 SWAP1 PUSH2 0x1313 JUMP JUMPDEST SWAP1 POP GT PUSH2 0x218 JUMPI PUSH1 0x40 MLOAD PUSH32 0x8C379A000000000000000000000000000000000000000000000000000000000 DUP2 MSTORE PUSH1 0x4 ADD PUSH2 0x20F SWAP1 PUSH2 0x13A1 JUMP JUMPDEST PUSH1 0x40 MLOAD DUP1 SWAP2 SUB SWAP1 REVERT JUMPDEST DUP2 ISZERO PUSH2 0x2E0 JUMPI DUP1 DUP5 PUSH20 0xFFFFFFFFFFFFFFFFFFFFFFFFFFFFFFFFFFFFFFFF AND PUSH3 0xFDD58E CALLER DUP7 PUSH1 0x40 MLOAD DUP4 PUSH4 0xFFFFFFFF AND PUSH1 0xE0 SHL DUP2 MSTORE PUSH1 0x4 ADD PUSH2 0x259 SWAP3 SWAP2 SWAP1 PUSH2 0x13C1 JUMP JUMPDEST PUSH1 0x20 PUSH1 0x40 MLOAD DUP1 DUP4 SUB DUP2 DUP7 GAS STATICCALL ISZERO DUP1 ISZERO PUSH2 0x276 JUMPI RETURNDATASIZE PUSH1 0x0 DUP1 RETURNDATACOPY RETURNDATASIZE PUSH1 0x0 REVERT JUMPDEST POP POP POP POP PUSH1 0x40 MLOAD RETURNDATASIZE PUSH1 0x1F NOT PUSH1 0x1F DUP3 ADD AND DUP3 ADD DUP1 PUSH1 0x40 MSTORE POP DUP2 ADD SWAP1 PUSH2 0x29A SWAP2 SWAP1 PUSH2 0x13FF JUMP JUMPDEST LT ISZERO PUSH2 0x2DB JUMPI PUSH1 0x40 MLOAD PUSH32 0x8C379A000000000000000000000000000000000000000000000000000000000 DUP2 MSTORE PUSH1 0x4 ADD PUSH2 0x2D2 SWAP1 PUSH2 0x149E JUMP JUMPDEST PUSH1 0x40 MLOAD DUP1 SWAP2 SUB SWAP1 REVERT JUMPDEST PUSH2 0x3C8 JUMP JUMPDEST CALLER PUSH20 0xFFFFFFFFFFFFFFFFFFFFFFFFFFFFFFFFFFFFFFFF AND DUP5 PUSH20 0xFFFFFFFFFFFFFFFFFFFFFFFFFFFFFFFFFFFFFFFF AND PUSH4 0x6352211E DUP6 PUSH1 0x40 MLOAD DUP3 PUSH4 0xFFFFFFFF AND PUSH1 0xE0 SHL DUP2 MSTORE PUSH1 0x4 ADD PUSH2 0x330 SWAP2 SWAP1 PUSH2 0x129C JUMP JUMPDEST PUSH1 0x20 PUSH1 0x40 MLOAD DUP1 DUP4 SUB DUP2 DUP7 GAS STATICCALL ISZERO DUP1 ISZERO PUSH2 0x34D JUMPI RETURNDATASIZE PUSH1 0x0 DUP1 RETURNDATACOPY RETURNDATASIZE PUSH1 0x0 REVERT JUMPDEST POP POP POP POP PUSH1 0x40 MLOAD RETURNDATASIZE PUSH1 0x1F NOT PUSH1 0x1F DUP3 ADD AND DUP3 ADD DUP1 PUSH1 0x40 MSTORE POP DUP2 ADD SWAP1 PUSH2 0x371 SWAP2 SWAP1 PUSH2 0x14D3 JUMP JUMPDEST PUSH20 0xFFFFFFFFFFFFFFFFFFFFFFFFFFFFFFFFFFFFFFFF AND EQ PUSH2 0x3C7 JUMPI PUSH1 0x40 MLOAD PUSH32 0x8C379A000000000000000000000000000000000000000000000000000000000 DUP2 MSTORE PUSH1 0x4 ADD PUSH2 0x3BE SWAP1 PUSH2 0x1572 JUMP JUMPDEST PUSH1 0x40 MLOAD DUP1 SWAP2 SUB SWAP1 REVERT JUMPDEST JUMPDEST DUP4 PUSH1 0x1 PUSH1 0x0 CALLER PUSH20 0xFFFFFFFFFFFFFFFFFFFFFFFFFFFFFFFFFFFFFFFF AND PUSH20 0xFFFFFFFFFFFFFFFFFFFFFFFFFFFFFFFFFFFFFFFF AND DUP2 MSTORE PUSH1 0x20 ADD SWAP1 DUP2 MSTORE PUSH1 0x20 ADD PUSH1 0x0 KECCAK256 PUSH1 0x1 ADD PUSH1 0x0 PUSH2 0x100 EXP DUP2 SLOAD DUP2 PUSH20 0xFFFFFFFFFFFFFFFFFFFFFFFFFFFFFFFFFFFFFFFF MUL NOT AND SWAP1 DUP4 PUSH20 0xFFFFFFFFFFFFFFFFFFFFFFFFFFFFFFFFFFFFFFFF AND MUL OR SWAP1 SSTORE POP DUP3 PUSH1 0x1 PUSH1 0x0 CALLER PUSH20 0xFFFFFFFFFFFFFFFFFFFFFFFFFFFFFFFFFFFFFFFF AND PUSH20 0xFFFFFFFFFFFFFFFFFFFFFFFFFFFFFFFFFFFFFFFF AND DUP2 MSTORE PUSH1 0x20 ADD SWAP1 DUP2 MSTORE PUSH1 0x20 ADD PUSH1 0x0 KECCAK256 PUSH1 0x2 ADD DUP2 SWAP1 SSTORE POP DUP2 PUSH1 0x1 PUSH1 0x0 CALLER PUSH20 0xFFFFFFFFFFFFFFFFFFFFFFFFFFFFFFFFFFFFFFFF AND PUSH20 0xFFFFFFFFFFFFFFFFFFFFFFFFFFFFFFFFFFFFFFFF AND DUP2 MSTORE PUSH1 0x20 ADD SWAP1 DUP2 MSTORE PUSH1 0x20 ADD PUSH1 0x0 KECCAK256 PUSH1 0x3 ADD PUSH1 0x0 PUSH2 0x100 EXP DUP2 SLOAD DUP2 PUSH1 0xFF MUL NOT AND SWAP1 DUP4 ISZERO ISZERO MUL OR SWAP1 SSTORE POP DUP1 PUSH1 0x1 PUSH1 0x0 CALLER PUSH20 0xFFFFFFFFFFFFFFFFFFFFFFFFFFFFFFFFFFFFFFFF AND PUSH20 0xFFFFFFFFFFFFFFFFFFFFFFFFFFFFFFFFFFFFFFFF AND DUP2 MSTORE PUSH1 0x20 ADD SWAP1 DUP2 MSTORE PUSH1 0x20 ADD PUSH1 0x0 KECCAK256 PUSH1 0x4 ADD DUP2 SWAP1 SSTORE POP CALLER PUSH20 0xFFFFFFFFFFFFFFFFFFFFFFFFFFFFFFFFFFFFFFFF AND PUSH32 0xC8E957E56727C39EC71C2591491672DA075FC47164D0941669C875A15E6CCDD3 DUP6 DUP6 DUP6 DUP6 PUSH1 0x40 MLOAD PUSH2 0x57D SWAP5 SWAP4 SWAP3 SWAP2 SWAP1 PUSH2 0x15A1 JUMP JUMPDEST PUSH1 0x40 MLOAD DUP1 SWAP2 SUB SWAP1 LOG2 POP POP POP POP JUMP JUMPDEST PUSH2 0x593 PUSH2 0xE5E JUMP JUMPDEST PUSH1 0x1 PUSH1 0x0 DUP4 PUSH20 0xFFFFFFFFFFFFFFFFFFFFFFFFFFFFFFFFFFFFFFFF AND PUSH20 0xFFFFFFFFFFFFFFFFFFFFFFFFFFFFFFFFFFFFFFFF AND DUP2 MSTORE PUSH1 0x20 ADD SWAP1 DUP2 MSTORE PUSH1 0x20 ADD PUSH1 0x0 KECCAK256 PUSH1 0x40 MLOAD DUP1 PUSH1 0xA0 ADD PUSH1 0x40 MSTORE SWAP1 DUP2 PUSH1 0x0 DUP3 ADD DUP1 SLOAD PUSH2 0x5ED SWAP1 PUSH2 0x1313 JUMP JUMPDEST DUP1 PUSH1 0x1F ADD PUSH1 0x20 DUP1 SWAP2 DIV MUL PUSH1 0x20 ADD PUSH1 0x40 MLOAD SWAP1 DUP2 ADD PUSH1 0x40 MSTORE DUP1 SWAP3 SWAP2 SWAP1 DUP2 DUP2 MSTORE PUSH1 0x20 ADD DUP3 DUP1 SLOAD PUSH2 0x619 SWAP1 PUSH2 0x1313 JUMP JUMPDEST DUP1 ISZERO PUSH2 0x666 JUMPI DUP1 PUSH1 0x1F LT PUSH2 0x63B JUMPI PUSH2 0x100 DUP1 DUP4 SLOAD DIV MUL DUP4 MSTORE SWAP2 PUSH1 0x20 ADD SWAP2 PUSH2 0x666 JUMP JUMPDEST DUP3 ADD SWAP2 SWAP1 PUSH1 0x0 MSTORE PUSH1 0x20 PUSH1 0x0 KECCAK256 SWAP1 JUMPDEST DUP2 SLOAD DUP2 MSTORE SWAP1 PUSH1 0x1 ADD SWAP1 PUSH1 0x20 ADD DUP1 DUP4 GT PUSH2 0x649 JUMPI DUP3 SWAP1 SUB PUSH1 0x1F AND DUP3 ADD SWAP2 JUMPDEST POP POP POP POP POP DUP2 MSTORE PUSH1 0x20 ADD PUSH1 0x1 DUP3 ADD PUSH1 0x0 SWAP1 SLOAD SWAP1 PUSH2 0x100 EXP SWAP1 DIV PUSH20 0xFFFFFFFFFFFFFFFFFFFFFFFFFFFFFFFFFFFFFFFF AND PUSH20 0xFFFFFFFFFFFFFFFFFFFFFFFFFFFFFFFFFFFFFFFF AND PUSH20 0xFFFFFFFFFFFFFFFFFFFFFFFFFFFFFFFFFFFFFFFF AND DUP2 MSTORE PUSH1 0x20 ADD PUSH1 0x2 DUP3 ADD SLOAD DUP2 MSTORE PUSH1 0x20 ADD PUSH1 0x3 DUP3 ADD PUSH1 0x0 SWAP1 SLOAD SWAP1 PUSH2 0x100 EXP SWAP1 DIV PUSH1 0xFF AND ISZERO ISZERO ISZERO ISZERO DUP2 MSTORE PUSH1 0x20 ADD PUSH1 0x4 DUP3 ADD SLOAD DUP2 MSTORE POP POP SWAP1 POP SWAP2 SWAP1 POP JUMP JUMPDEST PUSH1 0x0 PUSH1 0x1 PUSH1 0x0 CALLER PUSH20 0xFFFFFFFFFFFFFFFFFFFFFFFFFFFFFFFFFFFFFFFF AND PUSH20 0xFFFFFFFFFFFFFFFFFFFFFFFFFFFFFFFFFFFFFFFF AND DUP2 MSTORE PUSH1 0x20 ADD SWAP1 DUP2 MSTORE PUSH1 0x20 ADD PUSH1 0x0 KECCAK256 PUSH1 0x0 ADD DUP1 SLOAD PUSH2 0x74A SWAP1 PUSH2 0x1313 JUMP JUMPDEST SWAP1 POP EQ PUSH2 0x78C JUMPI PUSH1 0x40 MLOAD PUSH32 0x8C379A000000000000000000000000000000000000000000000000000000000 DUP2 MSTORE PUSH1 0x4 ADD PUSH2 0x783 SWAP1 PUSH2 0x1632 JUMP JUMPDEST PUSH1 0x40 MLOAD DUP1 SWAP2 SUB SWAP1 REVERT JUMPDEST PUSH1 0x4 DUP7 DUP7 SWAP1 POP LT ISZERO DUP1 ISZERO PUSH2 0x7A4 JUMPI POP PUSH1 0xF DUP7 DUP7 SWAP1 POP GT ISZERO JUMPDEST PUSH2 0x7E3 JUMPI PUSH1 0x40 MLOAD PUSH32 0x8C379A000000000000000000000000000000000000000000000000000000000 DUP2 MSTORE PUSH1 0x4 ADD PUSH2 0x7DA SWAP1 PUSH2 0x16C4 JUMP JUMPDEST PUSH1 0x40 MLOAD DUP1 SWAP2 SUB SWAP1 REVERT JUMPDEST DUP2 ISZERO PUSH2 0x8AB JUMPI DUP1 DUP5 PUSH20 0xFFFFFFFFFFFFFFFFFFFFFFFFFFFFFFFFFFFFFFFF AND PUSH3 0xFDD58E CALLER DUP7 PUSH1 0x40 MLOAD DUP4 PUSH4 0xFFFFFFFF AND PUSH1 0xE0 SHL DUP2 MSTORE PUSH1 0x4 ADD PUSH2 0x824 SWAP3 SWAP2 SWAP1 PUSH2 0x13C1 JUMP JUMPDEST PUSH1 0x20 PUSH1 0x40 MLOAD DUP1 DUP4 SUB DUP2 DUP7 GAS STATICCALL ISZERO DUP1 ISZERO PUSH2 0x841 JUMPI RETURNDATASIZE PUSH1 0x0 DUP1 RETURNDATACOPY RETURNDATASIZE PUSH1 0x0 REVERT JUMPDEST POP POP POP POP PUSH1 0x40 MLOAD RETURNDATASIZE PUSH1 0x1F NOT PUSH1 0x1F DUP3 ADD AND DUP3 ADD DUP1 PUSH1 0x40 MSTORE POP DUP2 ADD SWAP1 PUSH2 0x865 SWAP2 SWAP1 PUSH2 0x13FF JUMP JUMPDEST LT ISZERO PUSH2 0x8A6 JUMPI PUSH1 0x40 MLOAD PUSH32 0x8C379A000000000000000000000000000000000000000000000000000000000 DUP2 MSTORE PUSH1 0x4 ADD PUSH2 0x89D SWAP1 PUSH2 0x149E JUMP JUMPDEST PUSH1 0x40 MLOAD DUP1 SWAP2 SUB SWAP1 REVERT JUMPDEST PUSH2 0x993 JUMP JUMPDEST CALLER PUSH20 0xFFFFFFFFFFFFFFFFFFFFFFFFFFFFFFFFFFFFFFFF AND DUP5 PUSH20 0xFFFFFFFFFFFFFFFFFFFFFFFFFFFFFFFFFFFFFFFF AND PUSH4 0x6352211E DUP6 PUSH1 0x40 MLOAD DUP3 PUSH4 0xFFFFFFFF AND PUSH1 0xE0 SHL DUP2 MSTORE PUSH1 0x4 ADD PUSH2 0x8FB SWAP2 SWAP1 PUSH2 0x129C JUMP JUMPDEST PUSH1 0x20 PUSH1 0x40 MLOAD DUP1 DUP4 SUB DUP2 DUP7 GAS STATICCALL ISZERO DUP1 ISZERO PUSH2 0x918 JUMPI RETURNDATASIZE PUSH1 0x0 DUP1 RETURNDATACOPY RETURNDATASIZE PUSH1 0x0 REVERT JUMPDEST POP POP POP POP PUSH1 0x40 MLOAD RETURNDATASIZE PUSH1 0x1F NOT PUSH1 0x1F DUP3 ADD AND DUP3 ADD DUP1 PUSH1 0x40 MSTORE POP DUP2 ADD SWAP1 PUSH2 0x93C SWAP2 SWAP1 PUSH2 0x14D3 JUMP JUMPDEST PUSH20 0xFFFFFFFFFFFFFFFFFFFFFFFFFFFFFFFFFFFFFFFF AND EQ PUSH2 0x992 JUMPI PUSH1 0x40 MLOAD PUSH32 0x8C379A000000000000000000000000000000000000000000000000000000000 DUP2 MSTORE PUSH1 0x4 ADD PUSH2 0x989 SWAP1 PUSH2 0x1572 JUMP JUMPDEST PUSH1 0x40 MLOAD DUP1 SWAP2 SUB SWAP1 REVERT JUMPDEST JUMPDEST PUSH1 0x40 MLOAD DUP1 PUSH1 0xA0 ADD PUSH1 0x40 MSTORE DUP1 DUP8 DUP8 DUP1 DUP1 PUSH1 0x1F ADD PUSH1 0x20 DUP1 SWAP2 DIV MUL PUSH1 0x20 ADD PUSH1 0x40 MLOAD SWAP1 DUP2 ADD PUSH1 0x40 MSTORE DUP1 SWAP4 SWAP3 SWAP2 SWAP1 DUP2 DUP2 MSTORE PUSH1 0x20 ADD DUP4 DUP4 DUP1 DUP3 DUP5 CALLDATACOPY PUSH1 0x0 DUP2 DUP5 ADD MSTORE PUSH1 0x1F NOT PUSH1 0x1F DUP3 ADD AND SWAP1 POP DUP1 DUP4 ADD SWAP3 POP POP POP POP POP POP POP DUP2 MSTORE PUSH1 0x20 ADD DUP6 PUSH20 0xFFFFFFFFFFFFFFFFFFFFFFFFFFFFFFFFFFFFFFFF AND DUP2 MSTORE PUSH1 0x20 ADD DUP5 DUP2 MSTORE PUSH1 0x20 ADD DUP4 ISZERO ISZERO DUP2 MSTORE PUSH1 0x20 ADD DUP3 DUP2 MSTORE POP PUSH1 0x1 PUSH1 0x0 CALLER PUSH20 0xFFFFFFFFFFFFFFFFFFFFFFFFFFFFFFFFFFFFFFFF AND PUSH20 0xFFFFFFFFFFFFFFFFFFFFFFFFFFFFFFFFFFFFFFFF AND DUP2 MSTORE PUSH1 0x20 ADD SWAP1 DUP2 MSTORE PUSH1 0x20 ADD PUSH1 0x0 KECCAK256 PUSH1 0x0 DUP3 ADD MLOAD DUP2 PUSH1 0x0 ADD SWAP1 DUP2 PUSH2 0xA6A SWAP2 SWAP1 PUSH2 0x18BF JUMP JUMPDEST POP PUSH1 0x20 DUP3 ADD MLOAD DUP2 PUSH1 0x1 ADD PUSH1 0x0 PUSH2 0x100 EXP DUP2 SLOAD DUP2 PUSH20 0xFFFFFFFFFFFFFFFFFFFFFFFFFFFFFFFFFFFFFFFF MUL NOT AND SWAP1 DUP4 PUSH20 0xFFFFFFFFFFFFFFFFFFFFFFFFFFFFFFFFFFFFFFFF AND MUL OR SWAP1 SSTORE POP PUSH1 0x40 DUP3 ADD MLOAD DUP2 PUSH1 0x2 ADD SSTORE PUSH1 0x60 DUP3 ADD MLOAD DUP2 PUSH1 0x3 ADD PUSH1 0x0 PUSH2 0x100 EXP DUP2 SLOAD DUP2 PUSH1 0xFF MUL NOT AND SWAP1 DUP4 ISZERO ISZERO MUL OR SWAP1 SSTORE POP PUSH1 0x80 DUP3 ADD MLOAD DUP2 PUSH1 0x4 ADD SSTORE SWAP1 POP POP PUSH1 0x2 CALLER SWAP1 DUP1 PUSH1 0x1 DUP2 SLOAD ADD DUP1 DUP3 SSTORE DUP1 SWAP2 POP POP PUSH1 0x1 SWAP1 SUB SWAP1 PUSH1 0x0 MSTORE PUSH1 0x20 PUSH1 0x0 KECCAK256 ADD PUSH1 0x0 SWAP1 SWAP2 SWAP1 SWAP2 SWAP1 SWAP2 PUSH2 0x100 EXP DUP2 SLOAD DUP2 PUSH20 0xFFFFFFFFFFFFFFFFFFFFFFFFFFFFFFFFFFFFFFFF MUL NOT AND SWAP1 DUP4 PUSH20 0xFFFFFFFFFFFFFFFFFFFFFFFFFFFFFFFFFFFFFFFF AND MUL OR SWAP1 SSTORE POP CALLER PUSH20 0xFFFFFFFFFFFFFFFFFFFFFFFFFFFFFFFFFFFFFFFF AND PUSH32 0x32A1606C3D0BE99908151354B21F632C3F084D710D9909FC4875BEF23D1B068A DUP8 DUP8 DUP8 DUP8 DUP8 DUP8 PUSH1 0x40 MLOAD PUSH2 0xB9C SWAP7 SWAP6 SWAP5 SWAP4 SWAP3 SWAP2 SWAP1 PUSH2 0x19CD JUMP JUMPDEST PUSH1 0x40 MLOAD DUP1 SWAP2 SUB SWAP1 LOG2 POP POP POP POP POP POP JUMP JUMPDEST PUSH2 0xBB4 PUSH2 0xD0B JUMP JUMPDEST PUSH2 0xBBE PUSH1 0x0 PUSH2 0xD92 JUMP JUMPDEST JUMP JUMPDEST PUSH1 0x0 DUP1 PUSH1 0x0 SWAP1 SLOAD SWAP1 PUSH2 0x100 EXP SWAP1 DIV PUSH20 0xFFFFFFFFFFFFFFFFFFFFFFFFFFFFFFFFFFFFFFFF AND SWAP1 POP SWAP1 JUMP JUMPDEST PUSH1 0x0 PUSH1 0x2 DUP1 SLOAD SWAP1 POP SWAP1 POP SWAP1 JUMP JUMPDEST PUSH2 0xBFE PUSH2 0xD0B JUMP JUMPDEST PUSH1 0x0 PUSH20 0xFFFFFFFFFFFFFFFFFFFFFFFFFFFFFFFFFFFFFFFF AND DUP2 PUSH20 0xFFFFFFFFFFFFFFFFFFFFFFFFFFFFFFFFFFFFFFFF AND SUB PUSH2 0xC70 JUMPI PUSH1 0x0 PUSH1 0x40 MLOAD PUSH32 0x1E4FBDF700000000000000000000000000000000000000000000000000000000 DUP2 MSTORE PUSH1 0x4 ADD PUSH2 0xC67 SWAP2 SWAP1 PUSH2 0x1272 JUMP JUMPDEST PUSH1 0x40 MLOAD DUP1 SWAP2 SUB SWAP1 REVERT JUMPDEST PUSH2 0xC79 DUP2 PUSH2 0xD92 JUMP JUMPDEST POP JUMP JUMPDEST PUSH1 0x0 PUSH1 0x2 DUP1 SLOAD SWAP1 POP DUP3 LT PUSH2 0xCC5 JUMPI PUSH1 0x40 MLOAD PUSH32 0x8C379A000000000000000000000000000000000000000000000000000000000 DUP2 MSTORE PUSH1 0x4 ADD PUSH2 0xCBC SWAP1 PUSH2 0x1A75 JUMP JUMPDEST PUSH1 0x40 MLOAD DUP1 SWAP2 SUB SWAP1 REVERT JUMPDEST PUSH1 0x2 DUP3 DUP2 SLOAD DUP2 LT PUSH2 0xCD9 JUMPI PUSH2 0xCD8 PUSH2 0x1A95 JUMP JUMPDEST JUMPDEST SWAP1 PUSH1 0x0 MSTORE PUSH1 0x20 PUSH1 0x0 KECCAK256 ADD PUSH1 0x0 SWAP1 SLOAD SWAP1 PUSH2 0x100 EXP SWAP1 DIV PUSH20 0xFFFFFFFFFFFFFFFFFFFFFFFFFFFFFFFFFFFFFFFF AND SWAP1 POP SWAP2 SWAP1 POP JUMP JUMPDEST PUSH2 0xD13 PUSH2 0xE56 JUMP JUMPDEST PUSH20 0xFFFFFFFFFFFFFFFFFFFFFFFFFFFFFFFFFFFFFFFF AND PUSH2 0xD31 PUSH2 0xBC0 JUMP JUMPDEST PUSH20 0xFFFFFFFFFFFFFFFFFFFFFFFFFFFFFFFFFFFFFFFF AND EQ PUSH2 0xD90 JUMPI PUSH2 0xD54 PUSH2 0xE56 JUMP JUMPDEST PUSH1 0x40 MLOAD PUSH32 0x118CDAA700000000000000000000000000000000000000000000000000000000 DUP2 MSTORE PUSH1 0x4 ADD PUSH2 0xD87 SWAP2 SWAP1 PUSH2 0x1272 JUMP JUMPDEST PUSH1 0x40 MLOAD DUP1 SWAP2 SUB SWAP1 REVERT JUMPDEST JUMP JUMPDEST PUSH1 0x0 DUP1 PUSH1 0x0 SWAP1 SLOAD SWAP1 PUSH2 0x100 EXP SWAP1 DIV PUSH20 0xFFFFFFFFFFFFFFFFFFFFFFFFFFFFFFFFFFFFFFFF AND SWAP1 POP DUP2 PUSH1 0x0 DUP1 PUSH2 0x100 EXP DUP2 SLOAD DUP2 PUSH20 0xFFFFFFFFFFFFFFFFFFFFFFFFFFFFFFFFFFFFFFFF MUL NOT AND SWAP1 DUP4 PUSH20 0xFFFFFFFFFFFFFFFFFFFFFFFFFFFFFFFFFFFFFFFF AND MUL OR SWAP1 SSTORE POP DUP2 PUSH20 0xFFFFFFFFFFFFFFFFFFFFFFFFFFFFFFFFFFFFFFFF AND DUP2 PUSH20 0xFFFFFFFFFFFFFFFFFFFFFFFFFFFFFFFFFFFFFFFF AND PUSH32 0x8BE0079C531659141344CD1FD0A4F28419497F9722A3DAAFE3B4186F6B6457E0 PUSH1 0x40 MLOAD PUSH1 0x40 MLOAD DUP1 SWAP2 SUB SWAP1 LOG3 POP POP JUMP JUMPDEST PUSH1 0x0 CALLER SWAP1 POP SWAP1 JUMP JUMPDEST PUSH1 0x40 MLOAD DUP1 PUSH1 0xA0 ADD PUSH1 0x40 MSTORE DUP1 PUSH1 0x60 DUP2 MSTORE PUSH1 0x20 ADD PUSH1 0x0 PUSH20 0xFFFFFFFFFFFFFFFFFFFFFFFFFFFFFFFFFFFFFFFF AND DUP2 MSTORE PUSH1 0x20 ADD PUSH1 0x0 DUP2 MSTORE PUSH1 0x20 ADD PUSH1 0x0 ISZERO ISZERO DUP2 MSTORE PUSH1 0x20 ADD PUSH1 0x0 DUP2 MSTORE POP SWAP1 JUMP JUMPDEST PUSH1 0x0 DUP1 REVERT JUMPDEST PUSH1 0x0 DUP1 REVERT JUMPDEST PUSH1 0x0 PUSH20 0xFFFFFFFFFFFFFFFFFFFFFFFFFFFFFFFFFFFFFFFF DUP3 AND SWAP1 POP SWAP2 SWAP1 POP JUMP JUMPDEST PUSH1 0x0 PUSH2 0xEDA DUP3 PUSH2 0xEAF JUMP JUMPDEST SWAP1 POP SWAP2 SWAP1 POP JUMP JUMPDEST PUSH2 0xEEA DUP2 PUSH2 0xECF JUMP JUMPDEST DUP2 EQ PUSH2 0xEF5 JUMPI PUSH1 0x0 DUP1 REVERT JUMPDEST POP JUMP JUMPDEST PUSH1 0x0 DUP2 CALLDATALOAD SWAP1 POP PUSH2 0xF07 DUP2 PUSH2 0xEE1 JUMP JUMPDEST SWAP3 SWAP2 POP POP JUMP JUMPDEST PUSH1 0x0 DUP2 SWAP1 POP SWAP2 SWAP1 POP JUMP JUMPDEST PUSH2 0xF20 DUP2 PUSH2 0xF0D JUMP JUMPDEST DUP2 EQ PUSH2 0xF2B JUMPI PUSH1 0x0 DUP1 REVERT JUMPDEST POP JUMP JUMPDEST PUSH1 0x0 DUP2 CALLDATALOAD SWAP1 POP PUSH2 0xF3D DUP2 PUSH2 0xF17 JUMP JUMPDEST SWAP3 SWAP2 POP POP JUMP JUMPDEST PUSH1 0x0 DUP2 ISZERO ISZERO SWAP1 POP SWAP2 SWAP1 POP JUMP JUMPDEST PUSH2 0xF58 DUP2 PUSH2 0xF43 JUMP JUMPDEST DUP2 EQ PUSH2 0xF63 JUMPI PUSH1 0x0 DUP1 REVERT JUMPDEST POP JUMP JUMPDEST PUSH1 0x0 DUP2 CALLDATALOAD SWAP1 POP PUSH2 0xF75 DUP2 PUSH2 0xF4F JUMP JUMPDEST SWAP3 SWAP2 POP POP JUMP JUMPDEST PUSH1 0x0 DUP1 PUSH1 0x0 DUP1 PUSH1 0x80 DUP6 DUP8 SUB SLT ISZERO PUSH2 0xF95 JUMPI PUSH2 0xF94 PUSH2 0xEA5 JUMP JUMPDEST JUMPDEST PUSH1 0x0 PUSH2 0xFA3 DUP8 DUP3 DUP9 ADD PUSH2 0xEF8 JUMP JUMPDEST SWAP5 POP POP PUSH1 0x20 PUSH2 0xFB4 DUP8 DUP3 DUP9 ADD PUSH2 0xF2E JUMP JUMPDEST SWAP4 POP POP PUSH1 0x40 PUSH2 0xFC5 DUP8 DUP3 DUP9 ADD PUSH2 0xF66 JUMP JUMPDEST SWAP3 POP POP PUSH1 0x60 PUSH2 0xFD6 DUP8 DUP3 DUP9 ADD PUSH2 0xF2E JUMP JUMPDEST SWAP2 POP POP SWAP3 SWAP6 SWAP2 SWAP5 POP SWAP3 POP JUMP JUMPDEST PUSH1 0x0 PUSH1 0x20 DUP3 DUP5 SUB SLT ISZERO PUSH2 0xFF8 JUMPI PUSH2 0xFF7 PUSH2 0xEA5 JUMP JUMPDEST JUMPDEST PUSH1 0x0 PUSH2 0x1006 DUP5 DUP3 DUP6 ADD PUSH2 0xEF8 JUMP JUMPDEST SWAP2 POP POP SWAP3 SWAP2 POP POP JUMP JUMPDEST PUSH1 0x0 DUP2 MLOAD SWAP1 POP SWAP2 SWAP1 POP JUMP JUMPDEST PUSH1 0x0 DUP3 DUP3 MSTORE PUSH1 0x20 DUP3 ADD SWAP1 POP SWAP3 SWAP2 POP POP JUMP JUMPDEST PUSH1 0x0 JUMPDEST DUP4 DUP2 LT ISZERO PUSH2 0x1049 JUMPI DUP1 DUP3 ADD MLOAD DUP2 DUP5 ADD MSTORE PUSH1 0x20 DUP2 ADD SWAP1 POP PUSH2 0x102E JUMP JUMPDEST PUSH1 0x0 DUP5 DUP5 ADD MSTORE POP POP POP POP JUMP JUMPDEST PUSH1 0x0 PUSH1 0x1F NOT PUSH1 0x1F DUP4 ADD AND SWAP1 POP SWAP2 SWAP1 POP JUMP JUMPDEST PUSH1 0x0 PUSH2 0x1071 DUP3 PUSH2 0x100F JUMP JUMPDEST PUSH2 0x107B DUP2 DUP6 PUSH2 0x101A JUMP JUMPDEST SWAP4 POP PUSH2 0x108B DUP2 DUP6 PUSH1 0x20 DUP7 ADD PUSH2 0x102B JUMP JUMPDEST PUSH2 0x1094 DUP2 PUSH2 0x1055 JUMP JUMPDEST DUP5 ADD SWAP2 POP POP SWAP3 SWAP2 POP POP JUMP JUMPDEST PUSH2 0x10A8 DUP2 PUSH2 0xECF JUMP JUMPDEST DUP3 MSTORE POP POP JUMP JUMPDEST PUSH2 0x10B7 DUP2 PUSH2 0xF0D JUMP JUMPDEST DUP3 MSTORE POP POP JUMP JUMPDEST PUSH2 0x10C6 DUP2 PUSH2 0xF43 JUMP JUMPDEST DUP3 MSTORE POP POP JUMP JUMPDEST PUSH1 0x0 PUSH1 0xA0 DUP4 ADD PUSH1 0x0 DUP4 ADD MLOAD DUP5 DUP3 SUB PUSH1 0x0 DUP7 ADD MSTORE PUSH2 0x10E9 DUP3 DUP3 PUSH2 0x1066 JUMP JUMPDEST SWAP2 POP POP PUSH1 0x20 DUP4 ADD MLOAD PUSH2 0x10FE PUSH1 0x20 DUP7 ADD DUP3 PUSH2 0x109F JUMP JUMPDEST POP PUSH1 0x40 DUP4 ADD MLOAD PUSH2 0x1111 PUSH1 0x40 DUP7 ADD DUP3 PUSH2 0x10AE JUMP JUMPDEST POP PUSH1 0x60 DUP4 ADD MLOAD PUSH2 0x1124 PUSH1 0x60 DUP7 ADD DUP3 PUSH2 0x10BD JUMP JUMPDEST POP PUSH1 0x80 DUP4 ADD MLOAD PUSH2 0x1137 PUSH1 0x80 DUP7 ADD DUP3 PUSH2 0x10AE JUMP JUMPDEST POP DUP1 SWAP2 POP POP SWAP3 SWAP2 POP POP JUMP JUMPDEST PUSH1 0x0 PUSH1 0x20 DUP3 ADD SWAP1 POP DUP2 DUP2 SUB PUSH1 0x0 DUP4 ADD MSTORE PUSH2 0x115C DUP2 DUP5 PUSH2 0x10CC JUMP JUMPDEST SWAP1 POP SWAP3 SWAP2 POP POP JUMP JUMPDEST PUSH1 0x0 DUP1 REVERT JUMPDEST PUSH1 0x0 DUP1 REVERT JUMPDEST PUSH1 0x0 DUP1 REVERT JUMPDEST PUSH1 0x0 DUP1 DUP4 PUSH1 0x1F DUP5 ADD SLT PUSH2 0x1189 JUMPI PUSH2 0x1188 PUSH2 0x1164 JUMP JUMPDEST JUMPDEST DUP3 CALLDATALOAD SWAP1 POP PUSH8 0xFFFFFFFFFFFFFFFF DUP2 GT ISZERO PUSH2 0x11A6 JUMPI PUSH2 0x11A5 PUSH2 0x1169 JUMP JUMPDEST JUMPDEST PUSH1 0x20 DUP4 ADD SWAP2 POP DUP4 PUSH1 0x1 DUP3 MUL DUP4 ADD GT ISZERO PUSH2 0x11C2 JUMPI PUSH2 0x11C1 PUSH2 0x116E JUMP JUMPDEST JUMPDEST SWAP3 POP SWAP3 SWAP1 POP JUMP JUMPDEST PUSH1 0x0 DUP1 PUSH1 0x0 DUP1 PUSH1 0x0 DUP1 PUSH1 0xA0 DUP8 DUP10 SUB SLT ISZERO PUSH2 0x11E6 JUMPI PUSH2 0x11E5 PUSH2 0xEA5 JUMP JUMPDEST JUMPDEST PUSH1 0x0 DUP8 ADD CALLDATALOAD PUSH8 0xFFFFFFFFFFFFFFFF DUP2 GT ISZERO PUSH2 0x1204 JUMPI PUSH2 0x1203 PUSH2 0xEAA JUMP JUMPDEST JUMPDEST PUSH2 0x1210 DUP10 DUP3 DUP11 ADD PUSH2 0x1173 JUMP JUMPDEST SWAP7 POP SWAP7 POP POP PUSH1 0x20 PUSH2 0x1223 DUP10 DUP3 DUP11 ADD PUSH2 0xEF8 JUMP JUMPDEST SWAP5 POP POP PUSH1 0x40 PUSH2 0x1234 DUP10 DUP3 DUP11 ADD PUSH2 0xF2E JUMP JUMPDEST SWAP4 POP POP PUSH1 0x60 PUSH2 0x1245 DUP10 DUP3 DUP11 ADD PUSH2 0xF66 JUMP JUMPDEST SWAP3 POP POP PUSH1 0x80 PUSH2 0x1256 DUP10 DUP3 DUP11 ADD PUSH2 0xF2E JUMP JUMPDEST SWAP2 POP POP SWAP3 SWAP6 POP SWAP3 SWAP6 POP SWAP3 SWAP6 JUMP JUMPDEST PUSH2 0x126C DUP2 PUSH2 0xECF JUMP JUMPDEST DUP3 MSTORE POP POP JUMP JUMPDEST PUSH1 0x0 PUSH1 0x20 DUP3 ADD SWAP1 POP PUSH2 0x1287 PUSH1 0x0 DUP4 ADD DUP5 PUSH2 0x1263 JUMP JUMPDEST SWAP3 SWAP2 POP POP JUMP JUMPDEST PUSH2 0x1296 DUP2 PUSH2 0xF0D JUMP JUMPDEST DUP3 MSTORE POP POP JUMP JUMPDEST PUSH1 0x0 PUSH1 0x20 DUP3 ADD SWAP1 POP PUSH2 0x12B1 PUSH1 0x0 DUP4 ADD DUP5 PUSH2 0x128D JUMP JUMPDEST SWAP3 SWAP2 POP POP JUMP JUMPDEST PUSH1 0x0 PUSH1 0x20 DUP3 DUP5 SUB SLT ISZERO PUSH2 0x12CD JUMPI PUSH2 0x12CC PUSH2 0xEA5 JUMP JUMPDEST JUMPDEST PUSH1 0x0 PUSH2 0x12DB DUP5 DUP3 DUP6 ADD PUSH2 0xF2E JUMP JUMPDEST SWAP2 POP POP SWAP3 SWAP2 POP POP JUMP JUMPDEST PUSH32 0x4E487B7100000000000000000000000000000000000000000000000000000000 PUSH1 0x0 MSTORE PUSH1 0x22 PUSH1 0x4 MSTORE PUSH1 0x24 PUSH1 0x0 REVERT JUMPDEST PUSH1 0x0 PUSH1 0x2 DUP3 DIV SWAP1 POP PUSH1 0x1 DUP3 AND DUP1 PUSH2 0x132B JUMPI PUSH1 0x7F DUP3 AND SWAP2 POP JUMPDEST PUSH1 0x20 DUP3 LT DUP2 SUB PUSH2 0x133E JUMPI PUSH2 0x133D PUSH2 0x12E4 JUMP JUMPDEST JUMPDEST POP SWAP2 SWAP1 POP JUMP JUMPDEST PUSH1 0x0 DUP3 DUP3 MSTORE PUSH1 0x20 DUP3 ADD SWAP1 POP SWAP3 SWAP2 POP POP JUMP JUMPDEST PUSH32 0x55736572206E6F7420726567697374657265642E000000000000000000000000 PUSH1 0x0 DUP3 ADD MSTORE POP JUMP JUMPDEST PUSH1 0x0 PUSH2 0x138B PUSH1 0x14 DUP4 PUSH2 0x1344 JUMP JUMPDEST SWAP2 POP PUSH2 0x1396 DUP3 PUSH2 0x1355 JUMP JUMPDEST PUSH1 0x20 DUP3 ADD SWAP1 POP SWAP2 SWAP1 POP JUMP JUMPDEST PUSH1 0x0 PUSH1 0x20 DUP3 ADD SWAP1 POP DUP2 DUP2 SUB PUSH1 0x0 DUP4 ADD MSTORE PUSH2 0x13BA DUP2 PUSH2 0x137E JUMP JUMPDEST SWAP1 POP SWAP2 SWAP1 POP JUMP JUMPDEST PUSH1 0x0 PUSH1 0x40 DUP3 ADD SWAP1 POP PUSH2 0x13D6 PUSH1 0x0 DUP4 ADD DUP6 PUSH2 0x1263 JUMP JUMPDEST PUSH2 0x13E3 PUSH1 0x20 DUP4 ADD DUP5 PUSH2 0x128D JUMP JUMPDEST SWAP4 SWAP3 POP POP POP JUMP JUMPDEST PUSH1 0x0 DUP2 MLOAD SWAP1 POP PUSH2 0x13F9 DUP2 PUSH2 0xF17 JUMP JUMPDEST SWAP3 SWAP2 POP POP JUMP JUMPDEST PUSH1 0x0 PUSH1 0x20 DUP3 DUP5 SUB SLT ISZERO PUSH2 0x1415 JUMPI PUSH2 0x1414 PUSH2 0xEA5 JUMP JUMPDEST JUMPDEST PUSH1 0x0 PUSH2 0x1423 DUP5 DUP3 DUP6 ADD PUSH2 0x13EA JUMP JUMPDEST SWAP2 POP POP SWAP3 SWAP2 POP POP JUMP JUMPDEST PUSH32 0x496E73756666696369656E742062616C616E636520666F722045524331313535 PUSH1 0x0 DUP3 ADD MSTORE PUSH32 0x20746F6B656E0000000000000000000000000000000000000000000000000000 PUSH1 0x20 DUP3 ADD MSTORE POP JUMP JUMPDEST PUSH1 0x0 PUSH2 0x1488 PUSH1 0x26 DUP4 PUSH2 0x1344 JUMP JUMPDEST SWAP2 POP PUSH2 0x1493 DUP3 PUSH2 0x142C JUMP JUMPDEST PUSH1 0x40 DUP3 ADD SWAP1 POP SWAP2 SWAP1 POP JUMP JUMPDEST PUSH1 0x0 PUSH1 0x20 DUP3 ADD SWAP1 POP DUP2 DUP2 SUB PUSH1 0x0 DUP4 ADD MSTORE PUSH2 0x14B7 DUP2 PUSH2 0x147B JUMP JUMPDEST SWAP1 POP SWAP2 SWAP1 POP JUMP JUMPDEST PUSH1 0x0 DUP2 MLOAD SWAP1 POP PUSH2 0x14CD DUP2 PUSH2 0xEE1 JUMP JUMPDEST SWAP3 SWAP2 POP POP JUMP JUMPDEST PUSH1 0x0 PUSH1 0x20 DUP3 DUP5 SUB SLT ISZERO PUSH2 0x14E9 JUMPI PUSH2 0x14E8 PUSH2 0xEA5 JUMP JUMPDEST JUMPDEST PUSH1 0x0 PUSH2 0x14F7 DUP5 DUP3 DUP6 ADD PUSH2 0x14BE JUMP JUMPDEST SWAP2 POP POP SWAP3 SWAP2 POP POP JUMP JUMPDEST PUSH32 0x4E6F7420746865206F776E6572206F6620746869732045524337323120746F6B PUSH1 0x0 DUP3 ADD MSTORE PUSH32 0x656E000000000000000000000000000000000000000000000000000000000000 PUSH1 0x20 DUP3 ADD MSTORE POP JUMP JUMPDEST PUSH1 0x0 PUSH2 0x155C PUSH1 0x22 DUP4 PUSH2 0x1344 JUMP JUMPDEST SWAP2 POP PUSH2 0x1567 DUP3 PUSH2 0x1500 JUMP JUMPDEST PUSH1 0x40 DUP3 ADD SWAP1 POP SWAP2 SWAP1 POP JUMP JUMPDEST PUSH1 0x0 PUSH1 0x20 DUP3 ADD SWAP1 POP DUP2 DUP2 SUB PUSH1 0x0 DUP4 ADD MSTORE PUSH2 0x158B DUP2 PUSH2 0x154F JUMP JUMPDEST SWAP1 POP SWAP2 SWAP1 POP JUMP JUMPDEST PUSH2 0x159B DUP2 PUSH2 0xF43 JUMP JUMPDEST DUP3 MSTORE POP POP JUMP JUMPDEST PUSH1 0x0 PUSH1 0x80 DUP3 ADD SWAP1 POP PUSH2 0x15B6 PUSH1 0x0 DUP4 ADD DUP8 PUSH2 0x1263 JUMP JUMPDEST PUSH2 0x15C3 PUSH1 0x20 DUP4 ADD DUP7 PUSH2 0x128D JUMP JUMPDEST PUSH2 0x15D0 PUSH1 0x40 DUP4 ADD DUP6 PUSH2 0x1592 JUMP JUMPDEST PUSH2 0x15DD PUSH1 0x60 DUP4 ADD DUP5 PUSH2 0x128D JUMP JUMPDEST SWAP6 SWAP5 POP POP POP POP POP JUMP JUMPDEST PUSH32 0x5573657220616C726561647920726567697374657265642E0000000000000000 PUSH1 0x0 DUP3 ADD MSTORE POP JUMP JUMPDEST PUSH1 0x0 PUSH2 0x161C PUSH1 0x18 DUP4 PUSH2 0x1344 JUMP JUMPDEST SWAP2 POP PUSH2 0x1627 DUP3 PUSH2 0x15E6 JUMP JUMPDEST PUSH1 0x20 DUP3 ADD SWAP1 POP SWAP2 SWAP1 POP JUMP JUMPDEST PUSH1 0x0 PUSH1 0x20 DUP3 ADD SWAP1 POP DUP2 DUP2 SUB PUSH1 0x0 DUP4 ADD MSTORE PUSH2 0x164B DUP2 PUSH2 0x160F JUMP JUMPDEST SWAP1 POP SWAP2 SWAP1 POP JUMP JUMPDEST PUSH32 0x557365726E616D65206D757374206265203420746F2031352063686172616374 PUSH1 0x0 DUP3 ADD MSTORE PUSH32 0x657273206C6F6E672E0000000000000000000000000000000000000000000000 PUSH1 0x20 DUP3 ADD MSTORE POP JUMP JUMPDEST PUSH1 0x0 PUSH2 0x16AE PUSH1 0x29 DUP4 PUSH2 0x1344 JUMP JUMPDEST SWAP2 POP PUSH2 0x16B9 DUP3 PUSH2 0x1652 JUMP JUMPDEST PUSH1 0x40 DUP3 ADD SWAP1 POP SWAP2 SWAP1 POP JUMP JUMPDEST PUSH1 0x0 PUSH1 0x20 DUP3 ADD SWAP1 POP DUP2 DUP2 SUB PUSH1 0x0 DUP4 ADD MSTORE PUSH2 0x16DD DUP2 PUSH2 0x16A1 JUMP JUMPDEST SWAP1 POP SWAP2 SWAP1 POP JUMP JUMPDEST PUSH32 0x4E487B7100000000000000000000000000000000000000000000000000000000 PUSH1 0x0 MSTORE PUSH1 0x41 PUSH1 0x4 MSTORE PUSH1 0x24 PUSH1 0x0 REVERT JUMPDEST PUSH1 0x0 DUP2 SWAP1 POP DUP2 PUSH1 0x0 MSTORE PUSH1 0x20 PUSH1 0x0 KECCAK256 SWAP1 POP SWAP2 SWAP1 POP JUMP JUMPDEST PUSH1 0x0 PUSH1 0x20 PUSH1 0x1F DUP4 ADD DIV SWAP1 POP SWAP2 SWAP1 POP JUMP JUMPDEST PUSH1 0x0 DUP3 DUP3 SHL SWAP1 POP SWAP3 SWAP2 POP POP JUMP JUMPDEST PUSH1 0x0 PUSH1 0x8 DUP4 MUL PUSH2 0x1775 PUSH32 0xFFFFFFFFFFFFFFFFFFFFFFFFFFFFFFFFFFFFFFFFFFFFFFFFFFFFFFFFFFFFFFFF DUP3 PUSH2 0x1738 JUMP JUMPDEST PUSH2 0x177F DUP7 DUP4 PUSH2 0x1738 JUMP JUMPDEST SWAP6 POP DUP1 NOT DUP5 AND SWAP4 POP DUP1 DUP7 AND DUP5 OR SWAP3 POP POP POP SWAP4 SWAP3 POP POP POP JUMP JUMPDEST PUSH1 0x0 DUP2 SWAP1 POP SWAP2 SWAP1 POP JUMP JUMPDEST PUSH1 0x0 PUSH2 0x17BC PUSH2 0x17B7 PUSH2 0x17B2 DUP5 PUSH2 0xF0D JUMP JUMPDEST PUSH2 0x1797 JUMP JUMPDEST PUSH2 0xF0D JUMP JUMPDEST SWAP1 POP SWAP2 SWAP1 POP JUMP JUMPDEST PUSH1 0x0 DUP2 SWAP1 POP SWAP2 SWAP1 POP JUMP JUMPDEST PUSH2 0x17D6 DUP4 PUSH2 0x17A1 JUMP JUMPDEST PUSH2 0x17EA PUSH2 0x17E2 DUP3 PUSH2 0x17C3 JUMP JUMPDEST DUP5 DUP5 SLOAD PUSH2 0x1745 JUMP JUMPDEST DUP3 SSTORE POP POP POP POP JUMP JUMPDEST PUSH1 0x0 SWAP1 JUMP JUMPDEST PUSH2 0x17FF PUSH2 0x17F2 JUMP JUMPDEST PUSH2 0x180A DUP2 DUP5 DUP5 PUSH2 0x17CD JUMP JUMPDEST POP POP POP JUMP JUMPDEST JUMPDEST DUP2 DUP2 LT ISZERO PUSH2 0x182E JUMPI PUSH2 0x1823 PUSH1 0x0 DUP3 PUSH2 0x17F7 JUMP JUMPDEST PUSH1 0x1 DUP2 ADD SWAP1 POP PUSH2 0x1810 JUMP JUMPDEST POP POP JUMP JUMPDEST PUSH1 0x1F DUP3 GT ISZERO PUSH2 0x1873 JUMPI PUSH2 0x1844 DUP2 PUSH2 0x1713 JUMP JUMPDEST PUSH2 0x184D DUP5 PUSH2 0x1728 JUMP JUMPDEST DUP2 ADD PUSH1 0x20 DUP6 LT ISZERO PUSH2 0x185C JUMPI DUP2 SWAP1 POP JUMPDEST PUSH2 0x1870 PUSH2 0x1868 DUP6 PUSH2 0x1728 JUMP JUMPDEST DUP4 ADD DUP3 PUSH2 0x180F JUMP JUMPDEST POP POP JUMPDEST POP POP POP JUMP JUMPDEST PUSH1 0x0 DUP3 DUP3 SHR SWAP1 POP SWAP3 SWAP2 POP POP JUMP JUMPDEST PUSH1 0x0 PUSH2 0x1896 PUSH1 0x0 NOT DUP5 PUSH1 0x8 MUL PUSH2 0x1878 JUMP JUMPDEST NOT DUP1 DUP4 AND SWAP2 POP POP SWAP3 SWAP2 POP POP JUMP JUMPDEST PUSH1 0x0 PUSH2 0x18AF DUP4 DUP4 PUSH2 0x1885 JUMP JUMPDEST SWAP2 POP DUP3 PUSH1 0x2 MUL DUP3 OR SWAP1 POP SWAP3 SWAP2 POP POP JUMP JUMPDEST PUSH2 0x18C8 DUP3 PUSH2 0x100F JUMP JUMPDEST PUSH8 0xFFFFFFFFFFFFFFFF DUP2 GT ISZERO PUSH2 0x18E1 JUMPI PUSH2 0x18E0 PUSH2 0x16E4 JUMP JUMPDEST JUMPDEST PUSH2 0x18EB DUP3 SLOAD PUSH2 0x1313 JUMP JUMPDEST PUSH2 0x18F6 DUP3 DUP3 DUP6 PUSH2 0x1832 JUMP JUMPDEST PUSH1 0x0 PUSH1 0x20 SWAP1 POP PUSH1 0x1F DUP4 GT PUSH1 0x1 DUP2 EQ PUSH2 0x1929 JUMPI PUSH1 0x0 DUP5 ISZERO PUSH2 0x1917 JUMPI DUP3 DUP8 ADD MLOAD SWAP1 POP JUMPDEST PUSH2 0x1921 DUP6 DUP3 PUSH2 0x18A3 JUMP JUMPDEST DUP7 SSTORE POP PUSH2 0x1989 JUMP JUMPDEST PUSH1 0x1F NOT DUP5 AND PUSH2 0x1937 DUP7 PUSH2 0x1713 JUMP JUMPDEST PUSH1 0x0 JUMPDEST DUP3 DUP2 LT ISZERO PUSH2 0x195F JUMPI DUP5 DUP10 ADD MLOAD DUP3 SSTORE PUSH1 0x1 DUP3 ADD SWAP2 POP PUSH1 0x20 DUP6 ADD SWAP5 POP PUSH1 0x20 DUP2 ADD SWAP1 POP PUSH2 0x193A JUMP JUMPDEST DUP7 DUP4 LT ISZERO PUSH2 0x197C JUMPI DUP5 DUP10 ADD MLOAD PUSH2 0x1978 PUSH1 0x1F DUP10 AND DUP3 PUSH2 0x1885 JUMP JUMPDEST DUP4 SSTORE POP JUMPDEST PUSH1 0x1 PUSH1 0x2 DUP9 MUL ADD DUP9 SSTORE POP POP POP JUMPDEST POP POP POP POP POP POP JUMP JUMPDEST DUP3 DUP2 DUP4 CALLDATACOPY PUSH1 0x0 DUP4 DUP4 ADD MSTORE POP POP POP JUMP JUMPDEST PUSH1 0x0 PUSH2 0x19AC DUP4 DUP6 PUSH2 0x1344 JUMP JUMPDEST SWAP4 POP PUSH2 0x19B9 DUP4 DUP6 DUP5 PUSH2 0x1991 JUMP JUMPDEST PUSH2 0x19C2 DUP4 PUSH2 0x1055 JUMP JUMPDEST DUP5 ADD SWAP1 POP SWAP4 SWAP3 POP POP POP JUMP JUMPDEST PUSH1 0x0 PUSH1 0xA0 DUP3 ADD SWAP1 POP DUP2 DUP2 SUB PUSH1 0x0 DUP4 ADD MSTORE PUSH2 0x19E8 DUP2 DUP9 DUP11 PUSH2 0x19A0 JUMP JUMPDEST SWAP1 POP PUSH2 0x19F7 PUSH1 0x20 DUP4 ADD DUP8 PUSH2 0x1263 JUMP JUMPDEST PUSH2 0x1A04 PUSH1 0x40 DUP4 ADD DUP7 PUSH2 0x128D JUMP JUMPDEST PUSH2 0x1A11 PUSH1 0x60 DUP4 ADD DUP6 PUSH2 0x1592 JUMP JUMPDEST PUSH2 0x1A1E PUSH1 0x80 DUP4 ADD DUP5 PUSH2 0x128D JUMP JUMPDEST SWAP8 SWAP7 POP POP POP POP POP POP POP JUMP JUMPDEST PUSH32 0x496E646578206F7574206F6620626F756E647300000000000000000000000000 PUSH1 0x0 DUP3 ADD MSTORE POP JUMP JUMPDEST PUSH1 0x0 PUSH2 0x1A5F PUSH1 0x13 DUP4 PUSH2 0x1344 JUMP JUMPDEST SWAP2 POP PUSH2 0x1A6A DUP3 PUSH2 0x1A29 JUMP JUMPDEST PUSH1 0x20 DUP3 ADD SWAP1 POP SWAP2 SWAP1 POP JUMP JUMPDEST PUSH1 0x0 PUSH1 0x20 DUP3 ADD SWAP1 POP DUP2 DUP2 SUB PUSH1 0x0 DUP4 ADD MSTORE PUSH2 0x1A8E DUP2 PUSH2 0x1A52 JUMP JUMPDEST SWAP1 POP SWAP2 SWAP1 POP JUMP JUMPDEST PUSH32 0x4E487B7100000000000000000000000000000000000000000000000000000000 PUSH1 0x0 MSTORE PUSH1 0x32 PUSH1 0x4 MSTORE PUSH1 0x24 PUSH1 0x0 REVERT INVALID LOG2 PUSH5 0x6970667358 0x22 SLT KECCAK256 DUP11 0xE7 SWAP1 DIV 0xD1 0x1F 0xE8 0x27 REVERT DUP9 OR ADDRESS LOG4 0xDA PUSH11 0x19F091CAFCE1CCFE1B8F0E 0xA5 ORIGIN SWAP11 0xF6 0xD5 PUSH1 0x64 PUSH20 0x6F6C634300081800330000000000000000000000 "
				},
				"gasEstimates": {
					"creation": {
						"codeDepositCost": "1381200",
						"executionCost": "infinite",
						"totalCost": "infinite"
					},
					"external": {
						"getTotalUsers()": "2467",
						"getUserByIndex(uint256)": "7164",
						"getUserInfo(address)": "infinite",
						"owner()": "2522",
						"registerUser(string,address,uint256,bool,uint256)": "infinite",
						"renounceOwnership()": "infinite",
						"transferOwnership(address)": "infinite",
						"updateAvatar(address,uint256,bool,uint256)": "infinite"
					}
				},
				"methodIdentifiers": {
					"getTotalUsers()": "9be572f6",
					"getUserByIndex(uint256)": "ff5d32fe",
					"getUserInfo(address)": "6386c1c7",
					"owner()": "8da5cb5b",
					"registerUser(string,address,uint256,bool,uint256)": "6f715ad8",
					"renounceOwnership()": "715018a6",
					"transferOwnership(address)": "f2fde38b",
					"updateAvatar(address,uint256,bool,uint256)": "41d2c863"
				}
			},
			"storageLayout": {
				"storage": [
					{
						"astId": 8,
						"contract": "distTwitter.sol:UserManagement",
						"label": "_owner",
						"offset": 0,
						"slot": "0",
						"type": "t_address"
					},
					{
						"astId": 453,
						"contract": "distTwitter.sol:UserManagement",
						"label": "_userInfo",
						"offset": 0,
						"slot": "1",
						"type": "t_mapping(t_address,t_struct(UserInfo)448_storage)"
					},
					{
						"astId": 456,
						"contract": "distTwitter.sol:UserManagement",
						"label": "_userAddresses",
						"offset": 0,
						"slot": "2",
						"type": "t_array(t_address)dyn_storage"
					}
				],
				"types": {
					"t_address": {
						"encoding": "inplace",
						"label": "address",
						"numberOfBytes": "20"
					},
					"t_array(t_address)dyn_storage": {
						"base": "t_address",
						"encoding": "dynamic_array",
						"label": "address[]",
						"numberOfBytes": "32"
					},
					"t_bool": {
						"encoding": "inplace",
						"label": "bool",
						"numberOfBytes": "1"
					},
					"t_mapping(t_address,t_struct(UserInfo)448_storage)": {
						"encoding": "mapping",
						"key": "t_address",
						"label": "mapping(address => struct UserManagement.UserInfo)",
						"numberOfBytes": "32",
						"value": "t_struct(UserInfo)448_storage"
					},
					"t_string_storage": {
						"encoding": "bytes",
						"label": "string",
						"numberOfBytes": "32"
					},
					"t_struct(UserInfo)448_storage": {
						"encoding": "inplace",
						"label": "struct UserManagement.UserInfo",
						"members": [
							{
								"astId": 439,
								"contract": "distTwitter.sol:UserManagement",
								"label": "username",
								"offset": 0,
								"slot": "0",
								"type": "t_string_storage"
							},
							{
								"astId": 441,
								"contract": "distTwitter.sol:UserManagement",
								"label": "avatarContract",
								"offset": 0,
								"slot": "1",
								"type": "t_address"
							},
							{
								"astId": 443,
								"contract": "distTwitter.sol:UserManagement",
								"label": "avatarTokenId",
								"offset": 0,
								"slot": "2",
								"type": "t_uint256"
							},
							{
								"astId": 445,
								"contract": "distTwitter.sol:UserManagement",
								"label": "isERC1155",
								"offset": 0,
								"slot": "3",
								"type": "t_bool"
							},
							{
								"astId": 447,
								"contract": "distTwitter.sol:UserManagement",
								"label": "avatarAmount",
								"offset": 0,
								"slot": "4",
								"type": "t_uint256"
							}
						],
						"numberOfBytes": "160"
					},
					"t_uint256": {
						"encoding": "inplace",
						"label": "uint256",
						"numberOfBytes": "32"
					}
				}
			},
			"userdoc": {
				"kind": "user",
				"methods": {},
				"version": 1
			}
		}
	}
}