{
	"reactLiquidityPool.sol": {
		"ReactLiquidityPool": {
			"abi": [
				{
					"inputs": [
						{
							"internalType": "address",
							"name": "_reactToken",
							"type": "address"
						},
						{
							"internalType": "address",
							"name": "_nftContract",
							"type": "address"
						}
					],
					"stateMutability": "nonpayable",
					"type": "constructor"
				},
				{
					"inputs": [
						{
							"internalType": "address",
							"name": "owner",
							"type": "address"
						}
					],
					"name": "OwnableInvalidOwner",
					"type": "error"
				},
				{
					"inputs": [
						{
							"internalType": "address",
							"name": "account",
							"type": "address"
						}
					],
					"name": "OwnableUnauthorizedAccount",
					"type": "error"
				},
				{
					"anonymous": false,
					"inputs": [
						{
							"indexed": true,
							"internalType": "address",
							"name": "previousOwner",
							"type": "address"
						},
						{
							"indexed": true,
							"internalType": "address",
							"name": "newOwner",
							"type": "address"
						}
					],
					"name": "OwnershipTransferred",
					"type": "event"
				},
				{
					"inputs": [
						{
							"internalType": "uint256",
							"name": "nftId",
							"type": "uint256"
						},
						{
							"internalType": "uint256",
							"name": "reactSubId",
							"type": "uint256"
						},
						{
							"internalType": "uint256",
							"name": "amount",
							"type": "uint256"
						}
					],
					"name": "calculateShares",
					"outputs": [
						{
							"internalType": "uint256",
							"name": "",
							"type": "uint256"
						}
					],
					"stateMutability": "view",
					"type": "function"
				},
				{
					"inputs": [],
					"name": "contractOwnerFeePercent",
					"outputs": [
						{
							"internalType": "uint256",
							"name": "",
							"type": "uint256"
						}
					],
					"stateMutability": "view",
					"type": "function"
				},
				{
					"inputs": [
						{
							"internalType": "uint256",
							"name": "nftId",
							"type": "uint256"
						},
						{
							"internalType": "uint256",
							"name": "reactSubId",
							"type": "uint256"
						},
						{
							"internalType": "uint256",
							"name": "amount",
							"type": "uint256"
						}
					],
					"name": "deposit",
					"outputs": [],
					"stateMutability": "nonpayable",
					"type": "function"
				},
				{
					"inputs": [
						{
							"internalType": "uint256",
							"name": "nftId",
							"type": "uint256"
						},
						{
							"internalType": "uint256",
							"name": "reactSubId",
							"type": "uint256"
						}
					],
					"name": "getPoolInfo",
					"outputs": [
						{
							"internalType": "uint256",
							"name": "",
							"type": "uint256"
						},
						{
							"internalType": "uint256",
							"name": "",
							"type": "uint256"
						}
					],
					"stateMutability": "view",
					"type": "function"
				},
				{
					"inputs": [
						{
							"internalType": "uint256",
							"name": "nftId",
							"type": "uint256"
						},
						{
							"internalType": "uint256",
							"name": "reactSubId",
							"type": "uint256"
						},
						{
							"internalType": "address",
							"name": "user",
							"type": "address"
						}
					],
					"name": "getUserShares",
					"outputs": [
						{
							"internalType": "uint256",
							"name": "",
							"type": "uint256"
						}
					],
					"stateMutability": "view",
					"type": "function"
				},
				{
					"inputs": [],
					"name": "nftContract",
					"outputs": [
						{
							"internalType": "contract IERC721",
							"name": "",
							"type": "address"
						}
					],
					"stateMutability": "view",
					"type": "function"
				},
				{
					"inputs": [],
					"name": "owner",
					"outputs": [
						{
							"internalType": "address",
							"name": "",
							"type": "address"
						}
					],
					"stateMutability": "view",
					"type": "function"
				},
				{
					"inputs": [],
					"name": "postNFTOwnerFeePercent",
					"outputs": [
						{
							"internalType": "uint256",
							"name": "",
							"type": "uint256"
						}
					],
					"stateMutability": "view",
					"type": "function"
				},
				{
					"inputs": [],
					"name": "reactToken",
					"outputs": [
						{
							"internalType": "contract IERC20",
							"name": "",
							"type": "address"
						}
					],
					"stateMutability": "view",
					"type": "function"
				},
				{
					"inputs": [],
					"name": "renounceOwnership",
					"outputs": [],
					"stateMutability": "nonpayable",
					"type": "function"
				},
				{
					"inputs": [
						{
							"internalType": "address",
							"name": "newOwner",
							"type": "address"
						}
					],
					"name": "transferOwnership",
					"outputs": [],
					"stateMutability": "nonpayable",
					"type": "function"
				},
				{
					"inputs": [
						{
							"internalType": "uint256",
							"name": "nftId",
							"type": "uint256"
						},
						{
							"internalType": "uint256",
							"name": "reactSubId",
							"type": "uint256"
						}
					],
					"name": "withdraw",
					"outputs": [],
					"stateMutability": "nonpayable",
					"type": "function"
				}
			],
			"devdoc": {
				"errors": {
					"OwnableInvalidOwner(address)": [
						{
							"details": "The owner is not a valid owner account. (eg. `address(0)`)"
						}
					],
					"OwnableUnauthorizedAccount(address)": [
						{
							"details": "The caller account is not authorized to perform an operation."
						}
					]
				},
				"kind": "dev",
				"methods": {
					"owner()": {
						"details": "Returns the address of the current owner."
					},
					"renounceOwnership()": {
						"details": "Leaves the contract without owner. It will not be possible to call `onlyOwner` functions. Can only be called by the current owner. NOTE: Renouncing ownership will leave the contract without an owner, thereby disabling any functionality that is only available to the owner."
					},
					"transferOwnership(address)": {
						"details": "Transfers ownership of the contract to a new account (`newOwner`). Can only be called by the current owner."
					}
				},
				"version": 1
			},
			"evm": {
				"assembly": "    /* \"reactLiquidityPool.sol\":234:4756  contract ReactLiquidityPool is Ownable(msg.sender) {... */\n  mstore(0x40, 0x80)\n    /* \"reactLiquidityPool.sol\":398:399  3 */\n  0x03\n    /* \"reactLiquidityPool.sol\":358:399  uint256 public postNFTOwnerFeePercent = 3 */\n  dup1\n  sstore\n    /* \"reactLiquidityPool.sol\":447:448  2 */\n  0x02\n    /* \"reactLiquidityPool.sol\":406:448  uint256 public contractOwnerFeePercent = 2 */\n  0x04\n  sstore\n    /* \"reactLiquidityPool.sol\":875:1027  constructor(address _reactToken, address _nftContract) {... */\n  callvalue\n  dup1\n  iszero\n  tag_1\n  jumpi\n  0x00\n  dup1\n  revert\ntag_1:\n  pop\n  mload(0x40)\n  sub(codesize, bytecodeSize)\n  dup1\n  bytecodeSize\n  dup4\n  codecopy\n  dup2\n  dup2\n  add\n  0x40\n  mstore\n  dup2\n  add\n  swap1\n  tag_2\n  swap2\n  swap1\n  tag_3\n  jump\t// in\ntag_2:\n    /* \"reactLiquidityPool.sol\":273:283  msg.sender */\n  caller\n    /* \"@openzeppelin/contracts/access/Ownable.sol\":1297:1298  0 */\n  0x00\n    /* \"@openzeppelin/contracts/access/Ownable.sol\":1273:1299  initialOwner == address(0) */\n  0xffffffffffffffffffffffffffffffffffffffff\n  and\n    /* \"@openzeppelin/contracts/access/Ownable.sol\":1273:1285  initialOwner */\n  dup2\n    /* \"@openzeppelin/contracts/access/Ownable.sol\":1273:1299  initialOwner == address(0) */\n  0xffffffffffffffffffffffffffffffffffffffff\n  and\n  sub\n    /* \"@openzeppelin/contracts/access/Ownable.sol\":1269:1364  if (initialOwner == address(0)) {... */\n  tag_7\n  jumpi\n    /* \"@openzeppelin/contracts/access/Ownable.sol\":1350:1351  0 */\n  0x00\n    /* \"@openzeppelin/contracts/access/Ownable.sol\":1322:1353  OwnableInvalidOwner(address(0)) */\n  mload(0x40)\n  0x1e4fbdf700000000000000000000000000000000000000000000000000000000\n  dup2\n  mstore\n  0x04\n  add\n  tag_8\n  swap2\n  swap1\n  tag_9\n  jump\t// in\ntag_8:\n  mload(0x40)\n  dup1\n  swap2\n  sub\n  swap1\n  revert\n    /* \"@openzeppelin/contracts/access/Ownable.sol\":1269:1364  if (initialOwner == address(0)) {... */\ntag_7:\n    /* \"@openzeppelin/contracts/access/Ownable.sol\":1373:1405  _transferOwnership(initialOwner) */\n  tag_10\n    /* \"@openzeppelin/contracts/access/Ownable.sol\":1392:1404  initialOwner */\n  dup2\n    /* \"@openzeppelin/contracts/access/Ownable.sol\":1373:1391  _transferOwnership */\n  shl(0x20, tag_11)\n    /* \"@openzeppelin/contracts/access/Ownable.sol\":1373:1405  _transferOwnership(initialOwner) */\n  0x20\n  shr\n  jump\t// in\ntag_10:\n    /* \"@openzeppelin/contracts/access/Ownable.sol\":1225:1412  constructor(address initialOwner) {... */\n  pop\n    /* \"reactLiquidityPool.sol\":961:972  _reactToken */\n  dup2\n    /* \"reactLiquidityPool.sol\":941:951  reactToken */\n  0x01\n  0x00\n    /* \"reactLiquidityPool.sol\":941:973  reactToken = IERC20(_reactToken) */\n  0x0100\n  exp\n  dup2\n  sload\n  dup2\n  0xffffffffffffffffffffffffffffffffffffffff\n  mul\n  not\n  and\n  swap1\n  dup4\n  0xffffffffffffffffffffffffffffffffffffffff\n  and\n  mul\n  or\n  swap1\n  sstore\n  pop\n    /* \"reactLiquidityPool.sol\":1006:1018  _nftContract */\n  dup1\n    /* \"reactLiquidityPool.sol\":984:995  nftContract */\n  0x02\n  0x00\n    /* \"reactLiquidityPool.sol\":984:1019  nftContract = IERC721(_nftContract) */\n  0x0100\n  exp\n  dup2\n  sload\n  dup2\n  0xffffffffffffffffffffffffffffffffffffffff\n  mul\n  not\n  and\n  swap1\n  dup4\n  0xffffffffffffffffffffffffffffffffffffffff\n  and\n  mul\n  or\n  swap1\n  sstore\n  pop\n    /* \"reactLiquidityPool.sol\":875:1027  constructor(address _reactToken, address _nftContract) {... */\n  pop\n  pop\n    /* \"reactLiquidityPool.sol\":234:4756  contract ReactLiquidityPool is Ownable(msg.sender) {... */\n  jump(tag_13)\n    /* \"@openzeppelin/contracts/access/Ownable.sol\":2912:3099  function _transferOwnership(address newOwner) internal virtual {... */\ntag_11:\n    /* \"@openzeppelin/contracts/access/Ownable.sol\":2985:3001  address oldOwner */\n  0x00\n    /* \"@openzeppelin/contracts/access/Ownable.sol\":3004:3010  _owner */\n  dup1\n  0x00\n  swap1\n  sload\n  swap1\n  0x0100\n  exp\n  swap1\n  div\n  0xffffffffffffffffffffffffffffffffffffffff\n  and\n    /* \"@openzeppelin/contracts/access/Ownable.sol\":2985:3010  address oldOwner = _owner */\n  swap1\n  pop\n    /* \"@openzeppelin/contracts/access/Ownable.sol\":3029:3037  newOwner */\n  dup2\n    /* \"@openzeppelin/contracts/access/Ownable.sol\":3020:3026  _owner */\n  0x00\n  dup1\n    /* \"@openzeppelin/contracts/access/Ownable.sol\":3020:3037  _owner = newOwner */\n  0x0100\n  exp\n  dup2\n  sload\n  dup2\n  0xffffffffffffffffffffffffffffffffffffffff\n  mul\n  not\n  and\n  swap1\n  dup4\n  0xffffffffffffffffffffffffffffffffffffffff\n  and\n  mul\n  or\n  swap1\n  sstore\n  pop\n    /* \"@openzeppelin/contracts/access/Ownable.sol\":3083:3091  newOwner */\n  dup2\n    /* \"@openzeppelin/contracts/access/Ownable.sol\":3052:3092  OwnershipTransferred(oldOwner, newOwner) */\n  0xffffffffffffffffffffffffffffffffffffffff\n  and\n    /* \"@openzeppelin/contracts/access/Ownable.sol\":3073:3081  oldOwner */\n  dup2\n    /* \"@openzeppelin/contracts/access/Ownable.sol\":3052:3092  OwnershipTransferred(oldOwner, newOwner) */\n  0xffffffffffffffffffffffffffffffffffffffff\n  and\n  0x8be0079c531659141344cd1fd0a4f28419497f9722a3daafe3b4186f6b6457e0\n  mload(0x40)\n  mload(0x40)\n  dup1\n  swap2\n  sub\n  swap1\n  log3\n    /* \"@openzeppelin/contracts/access/Ownable.sol\":2975:3099  {... */\n  pop\n    /* \"@openzeppelin/contracts/access/Ownable.sol\":2912:3099  function _transferOwnership(address newOwner) internal virtual {... */\n  pop\n  jump\t// out\n    /* \"#utility.yul\":88:205   */\ntag_16:\n    /* \"#utility.yul\":197:198   */\n  0x00\n    /* \"#utility.yul\":194:195   */\n  dup1\n    /* \"#utility.yul\":187:199   */\n  revert\n    /* \"#utility.yul\":334:460   */\ntag_18:\n    /* \"#utility.yul\":371:378   */\n  0x00\n    /* \"#utility.yul\":411:453   */\n  0xffffffffffffffffffffffffffffffffffffffff\n    /* \"#utility.yul\":404:409   */\n  dup3\n    /* \"#utility.yul\":400:454   */\n  and\n    /* \"#utility.yul\":389:454   */\n  swap1\n  pop\n    /* \"#utility.yul\":334:460   */\n  swap2\n  swap1\n  pop\n  jump\t// out\n    /* \"#utility.yul\":466:562   */\ntag_19:\n    /* \"#utility.yul\":503:510   */\n  0x00\n    /* \"#utility.yul\":532:556   */\n  tag_29\n    /* \"#utility.yul\":550:555   */\n  dup3\n    /* \"#utility.yul\":532:556   */\n  tag_18\n  jump\t// in\ntag_29:\n    /* \"#utility.yul\":521:556   */\n  swap1\n  pop\n    /* \"#utility.yul\":466:562   */\n  swap2\n  swap1\n  pop\n  jump\t// out\n    /* \"#utility.yul\":568:690   */\ntag_20:\n    /* \"#utility.yul\":641:665   */\n  tag_31\n    /* \"#utility.yul\":659:664   */\n  dup2\n    /* \"#utility.yul\":641:665   */\n  tag_19\n  jump\t// in\ntag_31:\n    /* \"#utility.yul\":634:639   */\n  dup2\n    /* \"#utility.yul\":631:666   */\n  eq\n    /* \"#utility.yul\":621:684   */\n  tag_32\n  jumpi\n    /* \"#utility.yul\":680:681   */\n  0x00\n    /* \"#utility.yul\":677:678   */\n  dup1\n    /* \"#utility.yul\":670:682   */\n  revert\n    /* \"#utility.yul\":621:684   */\ntag_32:\n    /* \"#utility.yul\":568:690   */\n  pop\n  jump\t// out\n    /* \"#utility.yul\":696:839   */\ntag_21:\n    /* \"#utility.yul\":753:758   */\n  0x00\n    /* \"#utility.yul\":784:790   */\n  dup2\n    /* \"#utility.yul\":778:791   */\n  mload\n    /* \"#utility.yul\":769:791   */\n  swap1\n  pop\n    /* \"#utility.yul\":800:833   */\n  tag_34\n    /* \"#utility.yul\":827:832   */\n  dup2\n    /* \"#utility.yul\":800:833   */\n  tag_20\n  jump\t// in\ntag_34:\n    /* \"#utility.yul\":696:839   */\n  swap3\n  swap2\n  pop\n  pop\n  jump\t// out\n    /* \"#utility.yul\":845:1352   */\ntag_3:\n    /* \"#utility.yul\":924:930   */\n  0x00\n    /* \"#utility.yul\":932:938   */\n  dup1\n    /* \"#utility.yul\":981:983   */\n  0x40\n    /* \"#utility.yul\":969:978   */\n  dup4\n    /* \"#utility.yul\":960:967   */\n  dup6\n    /* \"#utility.yul\":956:979   */\n  sub\n    /* \"#utility.yul\":952:984   */\n  slt\n    /* \"#utility.yul\":949:1068   */\n  iszero\n  tag_36\n  jumpi\n    /* \"#utility.yul\":987:1066   */\n  tag_37\n  tag_16\n  jump\t// in\ntag_37:\n    /* \"#utility.yul\":949:1068   */\ntag_36:\n    /* \"#utility.yul\":1107:1108   */\n  0x00\n    /* \"#utility.yul\":1132:1196   */\n  tag_38\n    /* \"#utility.yul\":1188:1195   */\n  dup6\n    /* \"#utility.yul\":1179:1185   */\n  dup3\n    /* \"#utility.yul\":1168:1177   */\n  dup7\n    /* \"#utility.yul\":1164:1186   */\n  add\n    /* \"#utility.yul\":1132:1196   */\n  tag_21\n  jump\t// in\ntag_38:\n    /* \"#utility.yul\":1122:1196   */\n  swap3\n  pop\n    /* \"#utility.yul\":1078:1206   */\n  pop\n    /* \"#utility.yul\":1245:1247   */\n  0x20\n    /* \"#utility.yul\":1271:1335   */\n  tag_39\n    /* \"#utility.yul\":1327:1334   */\n  dup6\n    /* \"#utility.yul\":1318:1324   */\n  dup3\n    /* \"#utility.yul\":1307:1316   */\n  dup7\n    /* \"#utility.yul\":1303:1325   */\n  add\n    /* \"#utility.yul\":1271:1335   */\n  tag_21\n  jump\t// in\ntag_39:\n    /* \"#utility.yul\":1261:1335   */\n  swap2\n  pop\n    /* \"#utility.yul\":1216:1345   */\n  pop\n    /* \"#utility.yul\":845:1352   */\n  swap3\n  pop\n  swap3\n  swap1\n  pop\n  jump\t// out\n    /* \"#utility.yul\":1358:1476   */\ntag_22:\n    /* \"#utility.yul\":1445:1469   */\n  tag_41\n    /* \"#utility.yul\":1463:1468   */\n  dup2\n    /* \"#utility.yul\":1445:1469   */\n  tag_19\n  jump\t// in\ntag_41:\n    /* \"#utility.yul\":1440:1443   */\n  dup3\n    /* \"#utility.yul\":1433:1470   */\n  mstore\n    /* \"#utility.yul\":1358:1476   */\n  pop\n  pop\n  jump\t// out\n    /* \"#utility.yul\":1482:1704   */\ntag_9:\n    /* \"#utility.yul\":1575:1579   */\n  0x00\n    /* \"#utility.yul\":1613:1615   */\n  0x20\n    /* \"#utility.yul\":1602:1611   */\n  dup3\n    /* \"#utility.yul\":1598:1616   */\n  add\n    /* \"#utility.yul\":1590:1616   */\n  swap1\n  pop\n    /* \"#utility.yul\":1626:1697   */\n  tag_43\n    /* \"#utility.yul\":1694:1695   */\n  0x00\n    /* \"#utility.yul\":1683:1692   */\n  dup4\n    /* \"#utility.yul\":1679:1696   */\n  add\n    /* \"#utility.yul\":1670:1676   */\n  dup5\n    /* \"#utility.yul\":1626:1697   */\n  tag_22\n  jump\t// in\ntag_43:\n    /* \"#utility.yul\":1482:1704   */\n  swap3\n  swap2\n  pop\n  pop\n  jump\t// out\n    /* \"reactLiquidityPool.sol\":234:4756  contract ReactLiquidityPool is Ownable(msg.sender) {... */\ntag_13:\n  dataSize(sub_0)\n  dup1\n  dataOffset(sub_0)\n  0x00\n  codecopy\n  0x00\n  return\nstop\n\nsub_0: assembly {\n        /* \"reactLiquidityPool.sol\":234:4756  contract ReactLiquidityPool is Ownable(msg.sender) {... */\n      mstore(0x40, 0x80)\n      callvalue\n      dup1\n      iszero\n      tag_1\n      jumpi\n      0x00\n      dup1\n      revert\n    tag_1:\n      pop\n      jumpi(tag_2, lt(calldatasize, 0x04))\n      shr(0xe0, calldataload(0x00))\n      dup1\n      0xa466f542\n      gt\n      tag_15\n      jumpi\n      dup1\n      0xa466f542\n      eq\n      tag_9\n      jumpi\n      dup1\n      0xc8c85bad\n      eq\n      tag_10\n      jumpi\n      dup1\n      0xd56d229d\n      eq\n      tag_11\n      jumpi\n      dup1\n      0xeea04d09\n      eq\n      tag_12\n      jumpi\n      dup1\n      0xf2bc2a62\n      eq\n      tag_13\n      jumpi\n      dup1\n      0xf2fde38b\n      eq\n      tag_14\n      jumpi\n      jump(tag_2)\n    tag_15:\n      dup1\n      0xaeef8a\n      eq\n      tag_3\n      jumpi\n      dup1\n      0x127e2b15\n      eq\n      tag_4\n      jumpi\n      dup1\n      0x21bfa2fa\n      eq\n      tag_5\n      jumpi\n      dup1\n      0x441a3e70\n      eq\n      tag_6\n      jumpi\n      dup1\n      0x715018a6\n      eq\n      tag_7\n      jumpi\n      dup1\n      0x8da5cb5b\n      eq\n      tag_8\n      jumpi\n    tag_2:\n      0x00\n      dup1\n      revert\n        /* \"reactLiquidityPool.sol\":1035:2016  function deposit(uint256 nftId, uint256 reactSubId, uint256 amount) external {... */\n    tag_3:\n      tag_16\n      0x04\n      dup1\n      calldatasize\n      sub\n      dup2\n      add\n      swap1\n      tag_17\n      swap2\n      swap1\n      tag_18\n      jump\t// in\n    tag_17:\n      tag_19\n      jump\t// in\n    tag_16:\n      stop\n        /* \"reactLiquidityPool.sol\":292:316  IERC20 public reactToken */\n    tag_4:\n      tag_20\n      tag_21\n      jump\t// in\n    tag_20:\n      mload(0x40)\n      tag_22\n      swap2\n      swap1\n      tag_23\n      jump\t// in\n    tag_22:\n      mload(0x40)\n      dup1\n      swap2\n      sub\n      swap1\n      return\n        /* \"reactLiquidityPool.sol\":406:448  uint256 public contractOwnerFeePercent = 2 */\n    tag_5:\n      tag_24\n      tag_25\n      jump\t// in\n    tag_24:\n      mload(0x40)\n      tag_26\n      swap2\n      swap1\n      tag_27\n      jump\t// in\n    tag_26:\n      mload(0x40)\n      dup1\n      swap2\n      sub\n      swap1\n      return\n        /* \"reactLiquidityPool.sol\":3102:4206  function withdraw(uint256 nftId, uint256 reactSubId) external {... */\n    tag_6:\n      tag_28\n      0x04\n      dup1\n      calldatasize\n      sub\n      dup2\n      add\n      swap1\n      tag_29\n      swap2\n      swap1\n      tag_30\n      jump\t// in\n    tag_29:\n      tag_31\n      jump\t// in\n    tag_28:\n      stop\n        /* \"@openzeppelin/contracts/access/Ownable.sol\":2293:2394  function renounceOwnership() public virtual onlyOwner {... */\n    tag_7:\n      tag_32\n      tag_33\n      jump\t// in\n    tag_32:\n      stop\n        /* \"@openzeppelin/contracts/access/Ownable.sol\":1638:1723  function owner() public view virtual returns (address) {... */\n    tag_8:\n      tag_34\n      tag_35\n      jump\t// in\n    tag_34:\n      mload(0x40)\n      tag_36\n      swap2\n      swap1\n      tag_37\n      jump\t// in\n    tag_36:\n      mload(0x40)\n      dup1\n      swap2\n      sub\n      swap1\n      return\n        /* \"reactLiquidityPool.sol\":4493:4753  function getUserShares(uint256 nftId, uint256 reactSubId, address user) external view returns (uint256) {... */\n    tag_9:\n      tag_38\n      0x04\n      dup1\n      calldatasize\n      sub\n      dup2\n      add\n      swap1\n      tag_39\n      swap2\n      swap1\n      tag_40\n      jump\t// in\n    tag_39:\n      tag_41\n      jump\t// in\n    tag_38:\n      mload(0x40)\n      tag_42\n      swap2\n      swap1\n      tag_27\n      jump\t// in\n    tag_42:\n      mload(0x40)\n      dup1\n      swap2\n      sub\n      swap1\n      return\n        /* \"reactLiquidityPool.sol\":4214:4485  function getPoolInfo(uint256 nftId, uint256 reactSubId) external view returns (uint256, uint256) {... */\n    tag_10:\n      tag_43\n      0x04\n      dup1\n      calldatasize\n      sub\n      dup2\n      add\n      swap1\n      tag_44\n      swap2\n      swap1\n      tag_30\n      jump\t// in\n    tag_44:\n      tag_45\n      jump\t// in\n    tag_43:\n      mload(0x40)\n      tag_46\n      swap3\n      swap2\n      swap1\n      tag_47\n      jump\t// in\n    tag_46:\n      mload(0x40)\n      dup1\n      swap2\n      sub\n      swap1\n      return\n        /* \"reactLiquidityPool.sol\":323:349  IERC721 public nftContract */\n    tag_11:\n      tag_48\n      tag_49\n      jump\t// in\n    tag_48:\n      mload(0x40)\n      tag_50\n      swap2\n      swap1\n      tag_51\n      jump\t// in\n    tag_50:\n      mload(0x40)\n      dup1\n      swap2\n      sub\n      swap1\n      return\n        /* \"reactLiquidityPool.sol\":2024:3090  function calculateShares(uint256 nftId, uint256 reactSubId, uint256 amount) public view returns (uint256) {... */\n    tag_12:\n      tag_52\n      0x04\n      dup1\n      calldatasize\n      sub\n      dup2\n      add\n      swap1\n      tag_53\n      swap2\n      swap1\n      tag_18\n      jump\t// in\n    tag_53:\n      tag_54\n      jump\t// in\n    tag_52:\n      mload(0x40)\n      tag_55\n      swap2\n      swap1\n      tag_27\n      jump\t// in\n    tag_55:\n      mload(0x40)\n      dup1\n      swap2\n      sub\n      swap1\n      return\n        /* \"reactLiquidityPool.sol\":358:399  uint256 public postNFTOwnerFeePercent = 3 */\n    tag_13:\n      tag_56\n      tag_57\n      jump\t// in\n    tag_56:\n      mload(0x40)\n      tag_58\n      swap2\n      swap1\n      tag_27\n      jump\t// in\n    tag_58:\n      mload(0x40)\n      dup1\n      swap2\n      sub\n      swap1\n      return\n        /* \"@openzeppelin/contracts/access/Ownable.sol\":2543:2758  function transferOwnership(address newOwner) public virtual onlyOwner {... */\n    tag_14:\n      tag_59\n      0x04\n      dup1\n      calldatasize\n      sub\n      dup2\n      add\n      swap1\n      tag_60\n      swap2\n      swap1\n      tag_61\n      jump\t// in\n    tag_60:\n      tag_62\n      jump\t// in\n    tag_59:\n      stop\n        /* \"reactLiquidityPool.sol\":1035:2016  function deposit(uint256 nftId, uint256 reactSubId, uint256 amount) external {... */\n    tag_19:\n        /* \"reactLiquidityPool.sol\":1140:1141  0 */\n      0x00\n        /* \"reactLiquidityPool.sol\":1131:1137  amount */\n      dup2\n        /* \"reactLiquidityPool.sol\":1131:1141  amount > 0 */\n      gt\n        /* \"reactLiquidityPool.sol\":1123:1169  require(amount > 0, \"Amount must be positive\") */\n      tag_64\n      jumpi\n      mload(0x40)\n      0x08c379a000000000000000000000000000000000000000000000000000000000\n      dup2\n      mstore\n      0x04\n      add\n      tag_65\n      swap1\n      tag_66\n      jump\t// in\n    tag_65:\n      mload(0x40)\n      dup1\n      swap2\n      sub\n      swap1\n      revert\n    tag_64:\n        /* \"reactLiquidityPool.sol\":1180:1203  NFTPool storage nftPool */\n      0x00\n        /* \"reactLiquidityPool.sol\":1206:1214  nftPools */\n      0x05\n        /* \"reactLiquidityPool.sol\":1206:1221  nftPools[nftId] */\n      0x00\n        /* \"reactLiquidityPool.sol\":1215:1220  nftId */\n      dup6\n        /* \"reactLiquidityPool.sol\":1206:1221  nftPools[nftId] */\n      dup2\n      mstore\n      0x20\n      add\n      swap1\n      dup2\n      mstore\n      0x20\n      add\n      0x00\n      keccak256\n        /* \"reactLiquidityPool.sol\":1180:1221  NFTPool storage nftPool = nftPools[nftId] */\n      swap1\n      pop\n        /* \"reactLiquidityPool.sol\":1232:1249  Pool storage pool */\n      0x00\n        /* \"reactLiquidityPool.sol\":1252:1259  nftPool */\n      dup2\n        /* \"reactLiquidityPool.sol\":1252:1266  nftPool.reacts */\n      0x00\n      add\n        /* \"reactLiquidityPool.sol\":1252:1278  nftPool.reacts[reactSubId] */\n      0x00\n        /* \"reactLiquidityPool.sol\":1267:1277  reactSubId */\n      dup6\n        /* \"reactLiquidityPool.sol\":1252:1278  nftPool.reacts[reactSubId] */\n      dup2\n      mstore\n      0x20\n      add\n      swap1\n      dup2\n      mstore\n      0x20\n      add\n      0x00\n      keccak256\n        /* \"reactLiquidityPool.sol\":1232:1278  Pool storage pool = nftPool.reacts[reactSubId] */\n      swap1\n      pop\n        /* \"reactLiquidityPool.sol\":1361:1362  0 */\n      0x00\n        /* \"reactLiquidityPool.sol\":1343:1347  pool */\n      dup2\n        /* \"reactLiquidityPool.sol\":1343:1358  pool.startBlock */\n      0x02\n      add\n      sload\n        /* \"reactLiquidityPool.sol\":1343:1362  pool.startBlock > 0 */\n      gt\n        /* \"reactLiquidityPool.sol\":1343:1390  pool.startBlock > 0 || pool.totalDeposited == 0 */\n      dup1\n      tag_67\n      jumpi\n      pop\n        /* \"reactLiquidityPool.sol\":1389:1390  0 */\n      0x00\n        /* \"reactLiquidityPool.sol\":1366:1370  pool */\n      dup2\n        /* \"reactLiquidityPool.sol\":1366:1385  pool.totalDeposited */\n      0x01\n      add\n      sload\n        /* \"reactLiquidityPool.sol\":1366:1390  pool.totalDeposited == 0 */\n      eq\n        /* \"reactLiquidityPool.sol\":1343:1390  pool.startBlock > 0 || pool.totalDeposited == 0 */\n    tag_67:\n        /* \"reactLiquidityPool.sol\":1335:1415  require(pool.startBlock > 0 || pool.totalDeposited == 0, \"Pool does not exist.\") */\n      tag_68\n      jumpi\n      mload(0x40)\n      0x08c379a000000000000000000000000000000000000000000000000000000000\n      dup2\n      mstore\n      0x04\n      add\n      tag_69\n      swap1\n      tag_70\n      jump\t// in\n    tag_69:\n      mload(0x40)\n      dup1\n      swap2\n      sub\n      swap1\n      revert\n    tag_68:\n        /* \"reactLiquidityPool.sol\":1525:1526  0 */\n      0x00\n        /* \"reactLiquidityPool.sol\":1502:1506  pool */\n      dup2\n        /* \"reactLiquidityPool.sol\":1502:1521  pool.totalDeposited */\n      0x01\n      add\n      sload\n        /* \"reactLiquidityPool.sol\":1502:1526  pool.totalDeposited == 0 */\n      sub\n        /* \"reactLiquidityPool.sol\":1498:1585  if (pool.totalDeposited == 0) {... */\n      tag_71\n      jumpi\n        /* \"reactLiquidityPool.sol\":1561:1573  block.number */\n      number\n        /* \"reactLiquidityPool.sol\":1543:1547  pool */\n      dup2\n        /* \"reactLiquidityPool.sol\":1543:1558  pool.startBlock */\n      0x02\n      add\n        /* \"reactLiquidityPool.sol\":1543:1573  pool.startBlock = block.number */\n      dup2\n      swap1\n      sstore\n      pop\n        /* \"reactLiquidityPool.sol\":1498:1585  if (pool.totalDeposited == 0) {... */\n    tag_71:\n        /* \"reactLiquidityPool.sol\":1597:1611  uint256 shares */\n      0x00\n        /* \"reactLiquidityPool.sol\":1614:1656  calculateShares(nftId, reactSubId, amount) */\n      tag_72\n        /* \"reactLiquidityPool.sol\":1630:1635  nftId */\n      dup7\n        /* \"reactLiquidityPool.sol\":1637:1647  reactSubId */\n      dup7\n        /* \"reactLiquidityPool.sol\":1649:1655  amount */\n      dup7\n        /* \"reactLiquidityPool.sol\":1614:1629  calculateShares */\n      tag_54\n        /* \"reactLiquidityPool.sol\":1614:1656  calculateShares(nftId, reactSubId, amount) */\n      jump\t// in\n    tag_72:\n        /* \"reactLiquidityPool.sol\":1597:1656  uint256 shares = calculateShares(nftId, reactSubId, amount) */\n      swap1\n      pop\n        /* \"reactLiquidityPool.sol\":1684:1685  0 */\n      0x00\n        /* \"reactLiquidityPool.sol\":1675:1681  shares */\n      dup2\n        /* \"reactLiquidityPool.sol\":1675:1685  shares > 0 */\n      gt\n        /* \"reactLiquidityPool.sol\":1667:1715  require(shares > 0, \"Shares calculation error.\") */\n      tag_73\n      jumpi\n      mload(0x40)\n      0x08c379a000000000000000000000000000000000000000000000000000000000\n      dup2\n      mstore\n      0x04\n      add\n      tag_74\n      swap1\n      tag_75\n      jump\t// in\n    tag_74:\n      mload(0x40)\n      dup1\n      swap2\n      sub\n      swap1\n      revert\n    tag_73:\n        /* \"reactLiquidityPool.sol\":1728:1748  bool transferSuccess */\n      0x00\n        /* \"reactLiquidityPool.sol\":1751:1761  reactToken */\n      0x01\n      0x00\n      swap1\n      sload\n      swap1\n      0x0100\n      exp\n      swap1\n      div\n      0xffffffffffffffffffffffffffffffffffffffff\n      and\n        /* \"reactLiquidityPool.sol\":1751:1774  reactToken.transferFrom */\n      0xffffffffffffffffffffffffffffffffffffffff\n      and\n      0x23b872dd\n        /* \"reactLiquidityPool.sol\":1775:1785  msg.sender */\n      caller\n        /* \"reactLiquidityPool.sol\":1795:1799  this */\n      address\n        /* \"reactLiquidityPool.sol\":1802:1808  amount */\n      dup9\n        /* \"reactLiquidityPool.sol\":1751:1809  reactToken.transferFrom(msg.sender, address(this), amount) */\n      mload(0x40)\n      dup5\n      0xffffffff\n      and\n      0xe0\n      shl\n      dup2\n      mstore\n      0x04\n      add\n      tag_76\n      swap4\n      swap3\n      swap2\n      swap1\n      tag_77\n      jump\t// in\n    tag_76:\n      0x20\n      mload(0x40)\n      dup1\n      dup4\n      sub\n      dup2\n      0x00\n      dup8\n      gas\n      call\n      iszero\n      dup1\n      iszero\n      tag_79\n      jumpi\n      returndatasize\n      0x00\n      dup1\n      returndatacopy\n      revert(0x00, returndatasize)\n    tag_79:\n      pop\n      pop\n      pop\n      pop\n      mload(0x40)\n      returndatasize\n      not(0x1f)\n      0x1f\n      dup3\n      add\n      and\n      dup3\n      add\n      dup1\n      0x40\n      mstore\n      pop\n      dup2\n      add\n      swap1\n      tag_80\n      swap2\n      swap1\n      tag_81\n      jump\t// in\n    tag_80:\n        /* \"reactLiquidityPool.sol\":1728:1809  bool transferSuccess = reactToken.transferFrom(msg.sender, address(this), amount) */\n      swap1\n      pop\n        /* \"reactLiquidityPool.sol\":1828:1843  transferSuccess */\n      dup1\n        /* \"reactLiquidityPool.sol\":1820:1881  require(transferSuccess, \"Transfer failed. Check allowance.\") */\n      tag_82\n      jumpi\n      mload(0x40)\n      0x08c379a000000000000000000000000000000000000000000000000000000000\n      dup2\n      mstore\n      0x04\n      add\n      tag_83\n      swap1\n      tag_84\n      jump\t// in\n    tag_83:\n      mload(0x40)\n      dup1\n      swap2\n      sub\n      swap1\n      revert\n    tag_82:\n        /* \"reactLiquidityPool.sol\":1917:1923  amount */\n      dup5\n        /* \"reactLiquidityPool.sol\":1894:1898  pool */\n      dup4\n        /* \"reactLiquidityPool.sol\":1894:1913  pool.totalDeposited */\n      0x01\n      add\n      0x00\n        /* \"reactLiquidityPool.sol\":1894:1923  pool.totalDeposited += amount */\n      dup3\n      dup3\n      sload\n      tag_85\n      swap2\n      swap1\n      tag_86\n      jump\t// in\n    tag_85:\n      swap3\n      pop\n      pop\n      dup2\n      swap1\n      sstore\n      pop\n        /* \"reactLiquidityPool.sol\":1965:1971  shares */\n      dup2\n        /* \"reactLiquidityPool.sol\":1934:1938  pool */\n      dup4\n        /* \"reactLiquidityPool.sol\":1934:1949  pool.userShares */\n      0x03\n      add\n        /* \"reactLiquidityPool.sol\":1934:1961  pool.userShares[msg.sender] */\n      0x00\n        /* \"reactLiquidityPool.sol\":1950:1960  msg.sender */\n      caller\n        /* \"reactLiquidityPool.sol\":1934:1961  pool.userShares[msg.sender] */\n      0xffffffffffffffffffffffffffffffffffffffff\n      and\n      0xffffffffffffffffffffffffffffffffffffffff\n      and\n      dup2\n      mstore\n      0x20\n      add\n      swap1\n      dup2\n      mstore\n      0x20\n      add\n      0x00\n      keccak256\n      0x00\n        /* \"reactLiquidityPool.sol\":1934:1971  pool.userShares[msg.sender] += shares */\n      dup3\n      dup3\n      sload\n      tag_87\n      swap2\n      swap1\n      tag_86\n      jump\t// in\n    tag_87:\n      swap3\n      pop\n      pop\n      dup2\n      swap1\n      sstore\n      pop\n        /* \"reactLiquidityPool.sol\":2002:2008  shares */\n      dup2\n        /* \"reactLiquidityPool.sol\":1982:1986  pool */\n      dup4\n        /* \"reactLiquidityPool.sol\":1982:1998  pool.totalShares */\n      0x00\n      add\n      0x00\n        /* \"reactLiquidityPool.sol\":1982:2008  pool.totalShares += shares */\n      dup3\n      dup3\n      sload\n      tag_88\n      swap2\n      swap1\n      tag_86\n      jump\t// in\n    tag_88:\n      swap3\n      pop\n      pop\n      dup2\n      swap1\n      sstore\n      pop\n        /* \"reactLiquidityPool.sol\":1112:2016  {... */\n      pop\n      pop\n      pop\n      pop\n        /* \"reactLiquidityPool.sol\":1035:2016  function deposit(uint256 nftId, uint256 reactSubId, uint256 amount) external {... */\n      pop\n      pop\n      pop\n      jump\t// out\n        /* \"reactLiquidityPool.sol\":292:316  IERC20 public reactToken */\n    tag_21:\n      0x01\n      0x00\n      swap1\n      sload\n      swap1\n      0x0100\n      exp\n      swap1\n      div\n      0xffffffffffffffffffffffffffffffffffffffff\n      and\n      dup2\n      jump\t// out\n        /* \"reactLiquidityPool.sol\":406:448  uint256 public contractOwnerFeePercent = 2 */\n    tag_25:\n      sload(0x04)\n      dup2\n      jump\t// out\n        /* \"reactLiquidityPool.sol\":3102:4206  function withdraw(uint256 nftId, uint256 reactSubId) external {... */\n    tag_31:\n        /* \"reactLiquidityPool.sol\":3175:3198  NFTPool storage nftPool */\n      0x00\n        /* \"reactLiquidityPool.sol\":3201:3209  nftPools */\n      0x05\n        /* \"reactLiquidityPool.sol\":3201:3216  nftPools[nftId] */\n      0x00\n        /* \"reactLiquidityPool.sol\":3210:3215  nftId */\n      dup5\n        /* \"reactLiquidityPool.sol\":3201:3216  nftPools[nftId] */\n      dup2\n      mstore\n      0x20\n      add\n      swap1\n      dup2\n      mstore\n      0x20\n      add\n      0x00\n      keccak256\n        /* \"reactLiquidityPool.sol\":3175:3216  NFTPool storage nftPool = nftPools[nftId] */\n      swap1\n      pop\n        /* \"reactLiquidityPool.sol\":3227:3244  Pool storage pool */\n      0x00\n        /* \"reactLiquidityPool.sol\":3247:3254  nftPool */\n      dup2\n        /* \"reactLiquidityPool.sol\":3247:3261  nftPool.reacts */\n      0x00\n      add\n        /* \"reactLiquidityPool.sol\":3247:3273  nftPool.reacts[reactSubId] */\n      0x00\n        /* \"reactLiquidityPool.sol\":3262:3272  reactSubId */\n      dup5\n        /* \"reactLiquidityPool.sol\":3247:3273  nftPool.reacts[reactSubId] */\n      dup2\n      mstore\n      0x20\n      add\n      swap1\n      dup2\n      mstore\n      0x20\n      add\n      0x00\n      keccak256\n        /* \"reactLiquidityPool.sol\":3227:3273  Pool storage pool = nftPool.reacts[reactSubId] */\n      swap1\n      pop\n        /* \"reactLiquidityPool.sol\":3284:3302  uint256 userShares */\n      0x00\n        /* \"reactLiquidityPool.sol\":3305:3309  pool */\n      dup2\n        /* \"reactLiquidityPool.sol\":3305:3320  pool.userShares */\n      0x03\n      add\n        /* \"reactLiquidityPool.sol\":3305:3332  pool.userShares[msg.sender] */\n      0x00\n        /* \"reactLiquidityPool.sol\":3321:3331  msg.sender */\n      caller\n        /* \"reactLiquidityPool.sol\":3305:3332  pool.userShares[msg.sender] */\n      0xffffffffffffffffffffffffffffffffffffffff\n      and\n      0xffffffffffffffffffffffffffffffffffffffff\n      and\n      dup2\n      mstore\n      0x20\n      add\n      swap1\n      dup2\n      mstore\n      0x20\n      add\n      0x00\n      keccak256\n      sload\n        /* \"reactLiquidityPool.sol\":3284:3332  uint256 userShares = pool.userShares[msg.sender] */\n      swap1\n      pop\n        /* \"reactLiquidityPool.sol\":3364:3365  0 */\n      0x00\n        /* \"reactLiquidityPool.sol\":3351:3361  userShares */\n      dup2\n        /* \"reactLiquidityPool.sol\":3351:3365  userShares > 0 */\n      gt\n        /* \"reactLiquidityPool.sol\":3343:3391  require(userShares > 0, \"No shares to withdraw\") */\n      tag_90\n      jumpi\n      mload(0x40)\n      0x08c379a000000000000000000000000000000000000000000000000000000000\n      dup2\n      mstore\n      0x04\n      add\n      tag_91\n      swap1\n      tag_92\n      jump\t// in\n    tag_91:\n      mload(0x40)\n      dup1\n      swap2\n      sub\n      swap1\n      revert\n    tag_90:\n        /* \"reactLiquidityPool.sol\":3404:3426  uint256 withdrawAmount */\n      0x00\n        /* \"reactLiquidityPool.sol\":3466:3470  pool */\n      dup3\n        /* \"reactLiquidityPool.sol\":3466:3482  pool.totalShares */\n      0x00\n      add\n      sload\n        /* \"reactLiquidityPool.sol\":3452:3462  userShares */\n      dup3\n        /* \"reactLiquidityPool.sol\":3430:3434  pool */\n      dup5\n        /* \"reactLiquidityPool.sol\":3430:3449  pool.totalDeposited */\n      0x01\n      add\n      sload\n        /* \"reactLiquidityPool.sol\":3430:3462  pool.totalDeposited * userShares */\n      tag_93\n      swap2\n      swap1\n      tag_94\n      jump\t// in\n    tag_93:\n        /* \"reactLiquidityPool.sol\":3429:3482  (pool.totalDeposited * userShares) / pool.totalShares */\n      tag_95\n      swap2\n      swap1\n      tag_96\n      jump\t// in\n    tag_95:\n        /* \"reactLiquidityPool.sol\":3404:3482  uint256 withdrawAmount = (pool.totalDeposited * userShares) / pool.totalShares */\n      swap1\n      pop\n        /* \"reactLiquidityPool.sol\":3493:3516  uint256 postNFTOwnerFee */\n      0x00\n        /* \"reactLiquidityPool.sol\":3563:3566  100 */\n      0x64\n        /* \"reactLiquidityPool.sol\":3537:3559  postNFTOwnerFeePercent */\n      sload(0x03)\n        /* \"reactLiquidityPool.sol\":3520:3534  withdrawAmount */\n      dup4\n        /* \"reactLiquidityPool.sol\":3520:3559  withdrawAmount * postNFTOwnerFeePercent */\n      tag_97\n      swap2\n      swap1\n      tag_94\n      jump\t// in\n    tag_97:\n        /* \"reactLiquidityPool.sol\":3519:3566  (withdrawAmount * postNFTOwnerFeePercent) / 100 */\n      tag_98\n      swap2\n      swap1\n      tag_96\n      jump\t// in\n    tag_98:\n        /* \"reactLiquidityPool.sol\":3493:3566  uint256 postNFTOwnerFee = (withdrawAmount * postNFTOwnerFeePercent) / 100 */\n      swap1\n      pop\n        /* \"reactLiquidityPool.sol\":3577:3601  uint256 contractOwnerFee */\n      0x00\n        /* \"reactLiquidityPool.sol\":3649:3652  100 */\n      0x64\n        /* \"reactLiquidityPool.sol\":3622:3645  contractOwnerFeePercent */\n      sload(0x04)\n        /* \"reactLiquidityPool.sol\":3605:3619  withdrawAmount */\n      dup5\n        /* \"reactLiquidityPool.sol\":3605:3645  withdrawAmount * contractOwnerFeePercent */\n      tag_99\n      swap2\n      swap1\n      tag_94\n      jump\t// in\n    tag_99:\n        /* \"reactLiquidityPool.sol\":3604:3652  (withdrawAmount * contractOwnerFeePercent) / 100 */\n      tag_100\n      swap2\n      swap1\n      tag_96\n      jump\t// in\n    tag_100:\n        /* \"reactLiquidityPool.sol\":3577:3652  uint256 contractOwnerFee = (withdrawAmount * contractOwnerFeePercent) / 100 */\n      swap1\n      pop\n        /* \"reactLiquidityPool.sol\":3663:3690  uint256 finalWithdrawAmount */\n      0x00\n        /* \"reactLiquidityPool.sol\":3728:3744  contractOwnerFee */\n      dup2\n        /* \"reactLiquidityPool.sol\":3710:3725  postNFTOwnerFee */\n      dup4\n        /* \"reactLiquidityPool.sol\":3693:3707  withdrawAmount */\n      dup6\n        /* \"reactLiquidityPool.sol\":3693:3725  withdrawAmount - postNFTOwnerFee */\n      tag_101\n      swap2\n      swap1\n      tag_102\n      jump\t// in\n    tag_101:\n        /* \"reactLiquidityPool.sol\":3693:3744  withdrawAmount - postNFTOwnerFee - contractOwnerFee */\n      tag_103\n      swap2\n      swap1\n      tag_102\n      jump\t// in\n    tag_103:\n        /* \"reactLiquidityPool.sol\":3663:3744  uint256 finalWithdrawAmount = withdrawAmount - postNFTOwnerFee - contractOwnerFee */\n      swap1\n      pop\n        /* \"reactLiquidityPool.sol\":3780:3794  withdrawAmount */\n      dup4\n        /* \"reactLiquidityPool.sol\":3757:3761  pool */\n      dup7\n        /* \"reactLiquidityPool.sol\":3757:3776  pool.totalDeposited */\n      0x01\n      add\n      0x00\n        /* \"reactLiquidityPool.sol\":3757:3794  pool.totalDeposited -= withdrawAmount */\n      dup3\n      dup3\n      sload\n      tag_104\n      swap2\n      swap1\n      tag_102\n      jump\t// in\n    tag_104:\n      swap3\n      pop\n      pop\n      dup2\n      swap1\n      sstore\n      pop\n        /* \"reactLiquidityPool.sol\":3825:3835  userShares */\n      dup5\n        /* \"reactLiquidityPool.sol\":3805:3809  pool */\n      dup7\n        /* \"reactLiquidityPool.sol\":3805:3821  pool.totalShares */\n      0x00\n      add\n      0x00\n        /* \"reactLiquidityPool.sol\":3805:3835  pool.totalShares -= userShares */\n      dup3\n      dup3\n      sload\n      tag_105\n      swap2\n      swap1\n      tag_102\n      jump\t// in\n    tag_105:\n      swap3\n      pop\n      pop\n      dup2\n      swap1\n      sstore\n      pop\n        /* \"reactLiquidityPool.sol\":3853:3857  pool */\n      dup6\n        /* \"reactLiquidityPool.sol\":3853:3868  pool.userShares */\n      0x03\n      add\n        /* \"reactLiquidityPool.sol\":3853:3880  pool.userShares[msg.sender] */\n      0x00\n        /* \"reactLiquidityPool.sol\":3869:3879  msg.sender */\n      caller\n        /* \"reactLiquidityPool.sol\":3853:3880  pool.userShares[msg.sender] */\n      0xffffffffffffffffffffffffffffffffffffffff\n      and\n      0xffffffffffffffffffffffffffffffffffffffff\n      and\n      dup2\n      mstore\n      0x20\n      add\n      swap1\n      dup2\n      mstore\n      0x20\n      add\n      0x00\n      keccak256\n        /* \"reactLiquidityPool.sol\":3846:3880  delete pool.userShares[msg.sender] */\n      0x00\n      swap1\n      sstore\n        /* \"reactLiquidityPool.sol\":3901:3911  reactToken */\n      0x01\n      0x00\n      swap1\n      sload\n      swap1\n      0x0100\n      exp\n      swap1\n      div\n      0xffffffffffffffffffffffffffffffffffffffff\n      and\n        /* \"reactLiquidityPool.sol\":3901:3920  reactToken.transfer */\n      0xffffffffffffffffffffffffffffffffffffffff\n      and\n      0xa9059cbb\n        /* \"reactLiquidityPool.sol\":3921:3932  nftContract */\n      0x02\n      0x00\n      swap1\n      sload\n      swap1\n      0x0100\n      exp\n      swap1\n      div\n      0xffffffffffffffffffffffffffffffffffffffff\n      and\n        /* \"reactLiquidityPool.sol\":3921:3940  nftContract.ownerOf */\n      0xffffffffffffffffffffffffffffffffffffffff\n      and\n      0x6352211e\n        /* \"reactLiquidityPool.sol\":3941:3946  nftId */\n      dup13\n        /* \"reactLiquidityPool.sol\":3921:3947  nftContract.ownerOf(nftId) */\n      mload(0x40)\n      dup3\n      0xffffffff\n      and\n      0xe0\n      shl\n      dup2\n      mstore\n      0x04\n      add\n      tag_106\n      swap2\n      swap1\n      tag_27\n      jump\t// in\n    tag_106:\n      0x20\n      mload(0x40)\n      dup1\n      dup4\n      sub\n      dup2\n      dup7\n      gas\n      staticcall\n      iszero\n      dup1\n      iszero\n      tag_108\n      jumpi\n      returndatasize\n      0x00\n      dup1\n      returndatacopy\n      revert(0x00, returndatasize)\n    tag_108:\n      pop\n      pop\n      pop\n      pop\n      mload(0x40)\n      returndatasize\n      not(0x1f)\n      0x1f\n      dup3\n      add\n      and\n      dup3\n      add\n      dup1\n      0x40\n      mstore\n      pop\n      dup2\n      add\n      swap1\n      tag_109\n      swap2\n      swap1\n      tag_110\n      jump\t// in\n    tag_109:\n        /* \"reactLiquidityPool.sol\":3949:3964  postNFTOwnerFee */\n      dup6\n        /* \"reactLiquidityPool.sol\":3901:3965  reactToken.transfer(nftContract.ownerOf(nftId), postNFTOwnerFee) */\n      mload(0x40)\n      dup4\n      0xffffffff\n      and\n      0xe0\n      shl\n      dup2\n      mstore\n      0x04\n      add\n      tag_111\n      swap3\n      swap2\n      swap1\n      tag_112\n      jump\t// in\n    tag_111:\n      0x20\n      mload(0x40)\n      dup1\n      dup4\n      sub\n      dup2\n      0x00\n      dup8\n      gas\n      call\n      iszero\n      dup1\n      iszero\n      tag_114\n      jumpi\n      returndatasize\n      0x00\n      dup1\n      returndatacopy\n      revert(0x00, returndatasize)\n    tag_114:\n      pop\n      pop\n      pop\n      pop\n      mload(0x40)\n      returndatasize\n      not(0x1f)\n      0x1f\n      dup3\n      add\n      and\n      dup3\n      add\n      dup1\n      0x40\n      mstore\n      pop\n      dup2\n      add\n      swap1\n      tag_115\n      swap2\n      swap1\n      tag_81\n      jump\t// in\n    tag_115:\n        /* \"reactLiquidityPool.sol\":3893:4003  require(reactToken.transfer(nftContract.ownerOf(nftId), postNFTOwnerFee), \"PostNFT Owner fee transfer failed\") */\n      tag_116\n      jumpi\n      mload(0x40)\n      0x08c379a000000000000000000000000000000000000000000000000000000000\n      dup2\n      mstore\n      0x04\n      add\n      tag_117\n      swap1\n      tag_118\n      jump\t// in\n    tag_117:\n      mload(0x40)\n      dup1\n      swap2\n      sub\n      swap1\n      revert\n    tag_116:\n        /* \"reactLiquidityPool.sol\":4022:4032  reactToken */\n      0x01\n      0x00\n      swap1\n      sload\n      swap1\n      0x0100\n      exp\n      swap1\n      div\n      0xffffffffffffffffffffffffffffffffffffffff\n      and\n        /* \"reactLiquidityPool.sol\":4022:4041  reactToken.transfer */\n      0xffffffffffffffffffffffffffffffffffffffff\n      and\n      0xa9059cbb\n        /* \"reactLiquidityPool.sol\":4042:4049  owner() */\n      tag_119\n        /* \"reactLiquidityPool.sol\":4042:4047  owner */\n      tag_35\n        /* \"reactLiquidityPool.sol\":4042:4049  owner() */\n      jump\t// in\n    tag_119:\n        /* \"reactLiquidityPool.sol\":4051:4067  contractOwnerFee */\n      dup5\n        /* \"reactLiquidityPool.sol\":4022:4068  reactToken.transfer(owner(), contractOwnerFee) */\n      mload(0x40)\n      dup4\n      0xffffffff\n      and\n      0xe0\n      shl\n      dup2\n      mstore\n      0x04\n      add\n      tag_120\n      swap3\n      swap2\n      swap1\n      tag_112\n      jump\t// in\n    tag_120:\n      0x20\n      mload(0x40)\n      dup1\n      dup4\n      sub\n      dup2\n      0x00\n      dup8\n      gas\n      call\n      iszero\n      dup1\n      iszero\n      tag_122\n      jumpi\n      returndatasize\n      0x00\n      dup1\n      returndatacopy\n      revert(0x00, returndatasize)\n    tag_122:\n      pop\n      pop\n      pop\n      pop\n      mload(0x40)\n      returndatasize\n      not(0x1f)\n      0x1f\n      dup3\n      add\n      and\n      dup3\n      add\n      dup1\n      0x40\n      mstore\n      pop\n      dup2\n      add\n      swap1\n      tag_123\n      swap2\n      swap1\n      tag_81\n      jump\t// in\n    tag_123:\n        /* \"reactLiquidityPool.sol\":4014:4107  require(reactToken.transfer(owner(), contractOwnerFee), \"Contract Owner fee transfer failed\") */\n      tag_124\n      jumpi\n      mload(0x40)\n      0x08c379a000000000000000000000000000000000000000000000000000000000\n      dup2\n      mstore\n      0x04\n      add\n      tag_125\n      swap1\n      tag_126\n      jump\t// in\n    tag_125:\n      mload(0x40)\n      dup1\n      swap2\n      sub\n      swap1\n      revert\n    tag_124:\n        /* \"reactLiquidityPool.sol\":4126:4136  reactToken */\n      0x01\n      0x00\n      swap1\n      sload\n      swap1\n      0x0100\n      exp\n      swap1\n      div\n      0xffffffffffffffffffffffffffffffffffffffff\n      and\n        /* \"reactLiquidityPool.sol\":4126:4145  reactToken.transfer */\n      0xffffffffffffffffffffffffffffffffffffffff\n      and\n      0xa9059cbb\n        /* \"reactLiquidityPool.sol\":4146:4156  msg.sender */\n      caller\n        /* \"reactLiquidityPool.sol\":4158:4177  finalWithdrawAmount */\n      dup4\n        /* \"reactLiquidityPool.sol\":4126:4178  reactToken.transfer(msg.sender, finalWithdrawAmount) */\n      mload(0x40)\n      dup4\n      0xffffffff\n      and\n      0xe0\n      shl\n      dup2\n      mstore\n      0x04\n      add\n      tag_127\n      swap3\n      swap2\n      swap1\n      tag_112\n      jump\t// in\n    tag_127:\n      0x20\n      mload(0x40)\n      dup1\n      dup4\n      sub\n      dup2\n      0x00\n      dup8\n      gas\n      call\n      iszero\n      dup1\n      iszero\n      tag_129\n      jumpi\n      returndatasize\n      0x00\n      dup1\n      returndatacopy\n      revert(0x00, returndatasize)\n    tag_129:\n      pop\n      pop\n      pop\n      pop\n      mload(0x40)\n      returndatasize\n      not(0x1f)\n      0x1f\n      dup3\n      add\n      and\n      dup3\n      add\n      dup1\n      0x40\n      mstore\n      pop\n      dup2\n      add\n      swap1\n      tag_130\n      swap2\n      swap1\n      tag_81\n      jump\t// in\n    tag_130:\n        /* \"reactLiquidityPool.sol\":4118:4198  require(reactToken.transfer(msg.sender, finalWithdrawAmount), \"Transfer failed\") */\n      tag_131\n      jumpi\n      mload(0x40)\n      0x08c379a000000000000000000000000000000000000000000000000000000000\n      dup2\n      mstore\n      0x04\n      add\n      tag_132\n      swap1\n      tag_133\n      jump\t// in\n    tag_132:\n      mload(0x40)\n      dup1\n      swap2\n      sub\n      swap1\n      revert\n    tag_131:\n        /* \"reactLiquidityPool.sol\":3164:4206  {... */\n      pop\n      pop\n      pop\n      pop\n      pop\n      pop\n      pop\n        /* \"reactLiquidityPool.sol\":3102:4206  function withdraw(uint256 nftId, uint256 reactSubId) external {... */\n      pop\n      pop\n      jump\t// out\n        /* \"@openzeppelin/contracts/access/Ownable.sol\":2293:2394  function renounceOwnership() public virtual onlyOwner {... */\n    tag_33:\n        /* \"@openzeppelin/contracts/access/Ownable.sol\":1531:1544  _checkOwner() */\n      tag_135\n        /* \"@openzeppelin/contracts/access/Ownable.sol\":1531:1542  _checkOwner */\n      tag_136\n        /* \"@openzeppelin/contracts/access/Ownable.sol\":1531:1544  _checkOwner() */\n      jump\t// in\n    tag_135:\n        /* \"@openzeppelin/contracts/access/Ownable.sol\":2357:2387  _transferOwnership(address(0)) */\n      tag_138\n        /* \"@openzeppelin/contracts/access/Ownable.sol\":2384:2385  0 */\n      0x00\n        /* \"@openzeppelin/contracts/access/Ownable.sol\":2357:2375  _transferOwnership */\n      tag_139\n        /* \"@openzeppelin/contracts/access/Ownable.sol\":2357:2387  _transferOwnership(address(0)) */\n      jump\t// in\n    tag_138:\n        /* \"@openzeppelin/contracts/access/Ownable.sol\":2293:2394  function renounceOwnership() public virtual onlyOwner {... */\n      jump\t// out\n        /* \"@openzeppelin/contracts/access/Ownable.sol\":1638:1723  function owner() public view virtual returns (address) {... */\n    tag_35:\n        /* \"@openzeppelin/contracts/access/Ownable.sol\":1684:1691  address */\n      0x00\n        /* \"@openzeppelin/contracts/access/Ownable.sol\":1710:1716  _owner */\n      dup1\n      0x00\n      swap1\n      sload\n      swap1\n      0x0100\n      exp\n      swap1\n      div\n      0xffffffffffffffffffffffffffffffffffffffff\n      and\n        /* \"@openzeppelin/contracts/access/Ownable.sol\":1703:1716  return _owner */\n      swap1\n      pop\n        /* \"@openzeppelin/contracts/access/Ownable.sol\":1638:1723  function owner() public view virtual returns (address) {... */\n      swap1\n      jump\t// out\n        /* \"reactLiquidityPool.sol\":4493:4753  function getUserShares(uint256 nftId, uint256 reactSubId, address user) external view returns (uint256) {... */\n    tag_41:\n        /* \"reactLiquidityPool.sol\":4588:4595  uint256 */\n      0x00\n        /* \"reactLiquidityPool.sol\":4608:4631  NFTPool storage nftPool */\n      dup1\n        /* \"reactLiquidityPool.sol\":4634:4642  nftPools */\n      0x05\n        /* \"reactLiquidityPool.sol\":4634:4649  nftPools[nftId] */\n      0x00\n        /* \"reactLiquidityPool.sol\":4643:4648  nftId */\n      dup7\n        /* \"reactLiquidityPool.sol\":4634:4649  nftPools[nftId] */\n      dup2\n      mstore\n      0x20\n      add\n      swap1\n      dup2\n      mstore\n      0x20\n      add\n      0x00\n      keccak256\n        /* \"reactLiquidityPool.sol\":4608:4649  NFTPool storage nftPool = nftPools[nftId] */\n      swap1\n      pop\n        /* \"reactLiquidityPool.sol\":4660:4677  Pool storage pool */\n      0x00\n        /* \"reactLiquidityPool.sol\":4680:4687  nftPool */\n      dup2\n        /* \"reactLiquidityPool.sol\":4680:4694  nftPool.reacts */\n      0x00\n      add\n        /* \"reactLiquidityPool.sol\":4680:4706  nftPool.reacts[reactSubId] */\n      0x00\n        /* \"reactLiquidityPool.sol\":4695:4705  reactSubId */\n      dup7\n        /* \"reactLiquidityPool.sol\":4680:4706  nftPool.reacts[reactSubId] */\n      dup2\n      mstore\n      0x20\n      add\n      swap1\n      dup2\n      mstore\n      0x20\n      add\n      0x00\n      keccak256\n        /* \"reactLiquidityPool.sol\":4660:4706  Pool storage pool = nftPool.reacts[reactSubId] */\n      swap1\n      pop\n        /* \"reactLiquidityPool.sol\":4724:4728  pool */\n      dup1\n        /* \"reactLiquidityPool.sol\":4724:4739  pool.userShares */\n      0x03\n      add\n        /* \"reactLiquidityPool.sol\":4724:4745  pool.userShares[user] */\n      0x00\n        /* \"reactLiquidityPool.sol\":4740:4744  user */\n      dup6\n        /* \"reactLiquidityPool.sol\":4724:4745  pool.userShares[user] */\n      0xffffffffffffffffffffffffffffffffffffffff\n      and\n      0xffffffffffffffffffffffffffffffffffffffff\n      and\n      dup2\n      mstore\n      0x20\n      add\n      swap1\n      dup2\n      mstore\n      0x20\n      add\n      0x00\n      keccak256\n      sload\n        /* \"reactLiquidityPool.sol\":4717:4745  return pool.userShares[user] */\n      swap3\n      pop\n      pop\n      pop\n        /* \"reactLiquidityPool.sol\":4493:4753  function getUserShares(uint256 nftId, uint256 reactSubId, address user) external view returns (uint256) {... */\n      swap4\n      swap3\n      pop\n      pop\n      pop\n      jump\t// out\n        /* \"reactLiquidityPool.sol\":4214:4485  function getPoolInfo(uint256 nftId, uint256 reactSubId) external view returns (uint256, uint256) {... */\n    tag_45:\n        /* \"reactLiquidityPool.sol\":4293:4300  uint256 */\n      0x00\n        /* \"reactLiquidityPool.sol\":4302:4309  uint256 */\n      dup1\n        /* \"reactLiquidityPool.sol\":4322:4345  NFTPool storage nftPool */\n      0x00\n        /* \"reactLiquidityPool.sol\":4348:4356  nftPools */\n      0x05\n        /* \"reactLiquidityPool.sol\":4348:4363  nftPools[nftId] */\n      0x00\n        /* \"reactLiquidityPool.sol\":4357:4362  nftId */\n      dup7\n        /* \"reactLiquidityPool.sol\":4348:4363  nftPools[nftId] */\n      dup2\n      mstore\n      0x20\n      add\n      swap1\n      dup2\n      mstore\n      0x20\n      add\n      0x00\n      keccak256\n        /* \"reactLiquidityPool.sol\":4322:4363  NFTPool storage nftPool = nftPools[nftId] */\n      swap1\n      pop\n        /* \"reactLiquidityPool.sol\":4374:4391  Pool storage pool */\n      0x00\n        /* \"reactLiquidityPool.sol\":4394:4401  nftPool */\n      dup2\n        /* \"reactLiquidityPool.sol\":4394:4408  nftPool.reacts */\n      0x00\n      add\n        /* \"reactLiquidityPool.sol\":4394:4420  nftPool.reacts[reactSubId] */\n      0x00\n        /* \"reactLiquidityPool.sol\":4409:4419  reactSubId */\n      dup7\n        /* \"reactLiquidityPool.sol\":4394:4420  nftPool.reacts[reactSubId] */\n      dup2\n      mstore\n      0x20\n      add\n      swap1\n      dup2\n      mstore\n      0x20\n      add\n      0x00\n      keccak256\n        /* \"reactLiquidityPool.sol\":4374:4420  Pool storage pool = nftPool.reacts[reactSubId] */\n      swap1\n      pop\n        /* \"reactLiquidityPool.sol\":4439:4443  pool */\n      dup1\n        /* \"reactLiquidityPool.sol\":4439:4455  pool.totalShares */\n      0x00\n      add\n      sload\n        /* \"reactLiquidityPool.sol\":4457:4461  pool */\n      dup2\n        /* \"reactLiquidityPool.sol\":4457:4476  pool.totalDeposited */\n      0x01\n      add\n      sload\n        /* \"reactLiquidityPool.sol\":4431:4477  return (pool.totalShares, pool.totalDeposited) */\n      swap4\n      pop\n      swap4\n      pop\n      pop\n      pop\n        /* \"reactLiquidityPool.sol\":4214:4485  function getPoolInfo(uint256 nftId, uint256 reactSubId) external view returns (uint256, uint256) {... */\n      swap3\n      pop\n      swap3\n      swap1\n      pop\n      jump\t// out\n        /* \"reactLiquidityPool.sol\":323:349  IERC721 public nftContract */\n    tag_49:\n      0x02\n      0x00\n      swap1\n      sload\n      swap1\n      0x0100\n      exp\n      swap1\n      div\n      0xffffffffffffffffffffffffffffffffffffffff\n      and\n      dup2\n      jump\t// out\n        /* \"reactLiquidityPool.sol\":2024:3090  function calculateShares(uint256 nftId, uint256 reactSubId, uint256 amount) public view returns (uint256) {... */\n    tag_54:\n        /* \"reactLiquidityPool.sol\":2121:2128  uint256 */\n      0x00\n        /* \"reactLiquidityPool.sol\":2141:2164  NFTPool storage nftPool */\n      dup1\n        /* \"reactLiquidityPool.sol\":2167:2175  nftPools */\n      0x05\n        /* \"reactLiquidityPool.sol\":2167:2182  nftPools[nftId] */\n      0x00\n        /* \"reactLiquidityPool.sol\":2176:2181  nftId */\n      dup7\n        /* \"reactLiquidityPool.sol\":2167:2182  nftPools[nftId] */\n      dup2\n      mstore\n      0x20\n      add\n      swap1\n      dup2\n      mstore\n      0x20\n      add\n      0x00\n      keccak256\n        /* \"reactLiquidityPool.sol\":2141:2182  NFTPool storage nftPool = nftPools[nftId] */\n      swap1\n      pop\n        /* \"reactLiquidityPool.sol\":2193:2210  Pool storage pool */\n      0x00\n        /* \"reactLiquidityPool.sol\":2213:2220  nftPool */\n      dup2\n        /* \"reactLiquidityPool.sol\":2213:2227  nftPool.reacts */\n      0x00\n      add\n        /* \"reactLiquidityPool.sol\":2213:2239  nftPool.reacts[reactSubId] */\n      0x00\n        /* \"reactLiquidityPool.sol\":2228:2238  reactSubId */\n      dup7\n        /* \"reactLiquidityPool.sol\":2213:2239  nftPool.reacts[reactSubId] */\n      dup2\n      mstore\n      0x20\n      add\n      swap1\n      dup2\n      mstore\n      0x20\n      add\n      0x00\n      keccak256\n        /* \"reactLiquidityPool.sol\":2193:2239  Pool storage pool = nftPool.reacts[reactSubId] */\n      swap1\n      pop\n        /* \"reactLiquidityPool.sol\":2286:2287  0 */\n      0x00\n        /* \"reactLiquidityPool.sol\":2268:2272  pool */\n      dup2\n        /* \"reactLiquidityPool.sol\":2268:2283  pool.startBlock */\n      0x02\n      add\n      sload\n        /* \"reactLiquidityPool.sol\":2268:2287  pool.startBlock > 0 */\n      gt\n        /* \"reactLiquidityPool.sol\":2268:2315  pool.startBlock > 0 || pool.totalDeposited == 0 */\n      dup1\n      tag_144\n      jumpi\n      pop\n        /* \"reactLiquidityPool.sol\":2314:2315  0 */\n      0x00\n        /* \"reactLiquidityPool.sol\":2291:2295  pool */\n      dup2\n        /* \"reactLiquidityPool.sol\":2291:2310  pool.totalDeposited */\n      0x01\n      add\n      sload\n        /* \"reactLiquidityPool.sol\":2291:2315  pool.totalDeposited == 0 */\n      eq\n        /* \"reactLiquidityPool.sol\":2268:2315  pool.startBlock > 0 || pool.totalDeposited == 0 */\n    tag_144:\n        /* \"reactLiquidityPool.sol\":2260:2350  require(pool.startBlock > 0 || pool.totalDeposited == 0, \"Pool has not been initialized.\") */\n      tag_145\n      jumpi\n      mload(0x40)\n      0x08c379a000000000000000000000000000000000000000000000000000000000\n      dup2\n      mstore\n      0x04\n      add\n      tag_146\n      swap1\n      tag_147\n      jump\t// in\n    tag_146:\n      mload(0x40)\n      dup1\n      swap2\n      sub\n      swap1\n      revert\n    tag_145:\n        /* \"reactLiquidityPool.sol\":2363:2387  uint256 blocksSinceStart */\n      0x00\n        /* \"reactLiquidityPool.sol\":2405:2409  pool */\n      dup2\n        /* \"reactLiquidityPool.sol\":2405:2420  pool.startBlock */\n      0x02\n      add\n      sload\n        /* \"reactLiquidityPool.sol\":2390:2402  block.number */\n      number\n        /* \"reactLiquidityPool.sol\":2390:2420  block.number - pool.startBlock */\n      tag_148\n      swap2\n      swap1\n      tag_102\n      jump\t// in\n    tag_148:\n        /* \"reactLiquidityPool.sol\":2363:2420  uint256 blocksSinceStart = block.number - pool.startBlock */\n      swap1\n      pop\n        /* \"reactLiquidityPool.sol\":2431:2454  uint256 BLOCKS_PER_HOUR */\n      0x00\n        /* \"reactLiquidityPool.sol\":2457:2466  3600 / 60 */\n      0x3c\n        /* \"reactLiquidityPool.sol\":2431:2466  uint256 BLOCKS_PER_HOUR = 3600 / 60 */\n      swap1\n      pop\n        /* \"reactLiquidityPool.sol\":2517:2540  uint256 hoursSinceStart */\n      0x00\n        /* \"reactLiquidityPool.sol\":2562:2577  BLOCKS_PER_HOUR */\n      dup2\n        /* \"reactLiquidityPool.sol\":2543:2559  blocksSinceStart */\n      dup4\n        /* \"reactLiquidityPool.sol\":2543:2577  blocksSinceStart / BLOCKS_PER_HOUR */\n      tag_149\n      swap2\n      swap1\n      tag_96\n      jump\t// in\n    tag_149:\n        /* \"reactLiquidityPool.sol\":2517:2577  uint256 hoursSinceStart = blocksSinceStart / BLOCKS_PER_HOUR */\n      swap1\n      pop\n        /* \"reactLiquidityPool.sol\":2590:2611  uint256 initialShares */\n      0x00\n        /* \"reactLiquidityPool.sol\":2623:2627  1000 */\n      0x03e8\n        /* \"reactLiquidityPool.sol\":2614:2620  amount */\n      dup9\n        /* \"reactLiquidityPool.sol\":2614:2627  amount * 1000 */\n      tag_150\n      swap2\n      swap1\n      tag_94\n      jump\t// in\n    tag_150:\n        /* \"reactLiquidityPool.sol\":2590:2627  uint256 initialShares = amount * 1000 */\n      swap1\n      pop\n        /* \"reactLiquidityPool.sol\":2663:2691  uint256 MIN_SHARES_THRESHOLD */\n      0x00\n        /* \"reactLiquidityPool.sol\":2694:2695  1 */\n      0x01\n        /* \"reactLiquidityPool.sol\":2663:2695  uint256 MIN_SHARES_THRESHOLD = 1 */\n      swap1\n      pop\n        /* \"reactLiquidityPool.sol\":2711:2720  uint256 i */\n      0x00\n        /* \"reactLiquidityPool.sol\":2706:2988  for (uint256 i = 0; i < hoursSinceStart; i++) {... */\n    tag_151:\n        /* \"reactLiquidityPool.sol\":2730:2745  hoursSinceStart */\n      dup4\n        /* \"reactLiquidityPool.sol\":2726:2727  i */\n      dup2\n        /* \"reactLiquidityPool.sol\":2726:2745  i < hoursSinceStart */\n      lt\n        /* \"reactLiquidityPool.sol\":2706:2988  for (uint256 i = 0; i < hoursSinceStart; i++) {... */\n      iszero\n      tag_152\n      jumpi\n        /* \"reactLiquidityPool.sol\":2767:2788  uint256 reducedShares */\n      0x00\n        /* \"reactLiquidityPool.sol\":2813:2815  10 */\n      0x0a\n        /* \"reactLiquidityPool.sol\":2808:2809  9 */\n      0x09\n        /* \"reactLiquidityPool.sol\":2792:2805  initialShares */\n      dup6\n        /* \"reactLiquidityPool.sol\":2792:2809  initialShares * 9 */\n      tag_154\n      swap2\n      swap1\n      tag_94\n      jump\t// in\n    tag_154:\n        /* \"reactLiquidityPool.sol\":2791:2815  (initialShares * 9) / 10 */\n      tag_155\n      swap2\n      swap1\n      tag_96\n      jump\t// in\n    tag_155:\n        /* \"reactLiquidityPool.sol\":2767:2815  uint256 reducedShares = (initialShares * 9) / 10 */\n      swap1\n      pop\n        /* \"reactLiquidityPool.sol\":2849:2869  MIN_SHARES_THRESHOLD */\n      dup3\n        /* \"reactLiquidityPool.sol\":2833:2846  reducedShares */\n      dup2\n        /* \"reactLiquidityPool.sol\":2833:2869  reducedShares < MIN_SHARES_THRESHOLD */\n      lt\n        /* \"reactLiquidityPool.sol\":2830:2933  if(reducedShares < MIN_SHARES_THRESHOLD) {... */\n      iszero\n      tag_156\n      jumpi\n        /* \"reactLiquidityPool.sol\":2897:2917  MIN_SHARES_THRESHOLD */\n      dup3\n        /* \"reactLiquidityPool.sol\":2890:2917  return MIN_SHARES_THRESHOLD */\n      swap10\n      pop\n      pop\n      pop\n      pop\n      pop\n      pop\n      pop\n      pop\n      pop\n      pop\n      jump(tag_143)\n        /* \"reactLiquidityPool.sol\":2830:2933  if(reducedShares < MIN_SHARES_THRESHOLD) {... */\n    tag_156:\n        /* \"reactLiquidityPool.sol\":2963:2976  reducedShares */\n      dup1\n        /* \"reactLiquidityPool.sol\":2947:2976  initialShares = reducedShares */\n      swap4\n      pop\n        /* \"reactLiquidityPool.sol\":2752:2988  {... */\n      pop\n        /* \"reactLiquidityPool.sol\":2747:2750  i++ */\n      dup1\n      dup1\n      0x01\n      add\n      swap2\n      pop\n      pop\n        /* \"reactLiquidityPool.sol\":2706:2988  for (uint256 i = 0; i < hoursSinceStart; i++) {... */\n      jump(tag_151)\n    tag_152:\n      pop\n        /* \"reactLiquidityPool.sol\":3023:3043  MIN_SHARES_THRESHOLD */\n      dup1\n        /* \"reactLiquidityPool.sol\":3007:3020  initialShares */\n      dup3\n        /* \"reactLiquidityPool.sol\":3007:3043  initialShares > MIN_SHARES_THRESHOLD */\n      gt\n        /* \"reactLiquidityPool.sol\":3007:3082  initialShares > MIN_SHARES_THRESHOLD ? initialShares : MIN_SHARES_THRESHOLD */\n      tag_157\n      jumpi\n        /* \"reactLiquidityPool.sol\":3062:3082  MIN_SHARES_THRESHOLD */\n      dup1\n        /* \"reactLiquidityPool.sol\":3007:3082  initialShares > MIN_SHARES_THRESHOLD ? initialShares : MIN_SHARES_THRESHOLD */\n      jump(tag_158)\n    tag_157:\n        /* \"reactLiquidityPool.sol\":3046:3059  initialShares */\n      dup2\n        /* \"reactLiquidityPool.sol\":3007:3082  initialShares > MIN_SHARES_THRESHOLD ? initialShares : MIN_SHARES_THRESHOLD */\n    tag_158:\n        /* \"reactLiquidityPool.sol\":3000:3082  return initialShares > MIN_SHARES_THRESHOLD ? initialShares : MIN_SHARES_THRESHOLD */\n      swap8\n      pop\n      pop\n      pop\n      pop\n      pop\n      pop\n      pop\n      pop\n        /* \"reactLiquidityPool.sol\":2024:3090  function calculateShares(uint256 nftId, uint256 reactSubId, uint256 amount) public view returns (uint256) {... */\n    tag_143:\n      swap4\n      swap3\n      pop\n      pop\n      pop\n      jump\t// out\n        /* \"reactLiquidityPool.sol\":358:399  uint256 public postNFTOwnerFeePercent = 3 */\n    tag_57:\n      sload(0x03)\n      dup2\n      jump\t// out\n        /* \"@openzeppelin/contracts/access/Ownable.sol\":2543:2758  function transferOwnership(address newOwner) public virtual onlyOwner {... */\n    tag_62:\n        /* \"@openzeppelin/contracts/access/Ownable.sol\":1531:1544  _checkOwner() */\n      tag_160\n        /* \"@openzeppelin/contracts/access/Ownable.sol\":1531:1542  _checkOwner */\n      tag_136\n        /* \"@openzeppelin/contracts/access/Ownable.sol\":1531:1544  _checkOwner() */\n      jump\t// in\n    tag_160:\n        /* \"@openzeppelin/contracts/access/Ownable.sol\":2647:2648  0 */\n      0x00\n        /* \"@openzeppelin/contracts/access/Ownable.sol\":2627:2649  newOwner == address(0) */\n      0xffffffffffffffffffffffffffffffffffffffff\n      and\n        /* \"@openzeppelin/contracts/access/Ownable.sol\":2627:2635  newOwner */\n      dup2\n        /* \"@openzeppelin/contracts/access/Ownable.sol\":2627:2649  newOwner == address(0) */\n      0xffffffffffffffffffffffffffffffffffffffff\n      and\n      sub\n        /* \"@openzeppelin/contracts/access/Ownable.sol\":2623:2714  if (newOwner == address(0)) {... */\n      tag_162\n      jumpi\n        /* \"@openzeppelin/contracts/access/Ownable.sol\":2700:2701  0 */\n      0x00\n        /* \"@openzeppelin/contracts/access/Ownable.sol\":2672:2703  OwnableInvalidOwner(address(0)) */\n      mload(0x40)\n      0x1e4fbdf700000000000000000000000000000000000000000000000000000000\n      dup2\n      mstore\n      0x04\n      add\n      tag_163\n      swap2\n      swap1\n      tag_37\n      jump\t// in\n    tag_163:\n      mload(0x40)\n      dup1\n      swap2\n      sub\n      swap1\n      revert\n        /* \"@openzeppelin/contracts/access/Ownable.sol\":2623:2714  if (newOwner == address(0)) {... */\n    tag_162:\n        /* \"@openzeppelin/contracts/access/Ownable.sol\":2723:2751  _transferOwnership(newOwner) */\n      tag_164\n        /* \"@openzeppelin/contracts/access/Ownable.sol\":2742:2750  newOwner */\n      dup2\n        /* \"@openzeppelin/contracts/access/Ownable.sol\":2723:2741  _transferOwnership */\n      tag_139\n        /* \"@openzeppelin/contracts/access/Ownable.sol\":2723:2751  _transferOwnership(newOwner) */\n      jump\t// in\n    tag_164:\n        /* \"@openzeppelin/contracts/access/Ownable.sol\":2543:2758  function transferOwnership(address newOwner) public virtual onlyOwner {... */\n      pop\n      jump\t// out\n        /* \"@openzeppelin/contracts/access/Ownable.sol\":1796:1958  function _checkOwner() internal view virtual {... */\n    tag_136:\n        /* \"@openzeppelin/contracts/access/Ownable.sol\":1866:1878  _msgSender() */\n      tag_166\n        /* \"@openzeppelin/contracts/access/Ownable.sol\":1866:1876  _msgSender */\n      tag_167\n        /* \"@openzeppelin/contracts/access/Ownable.sol\":1866:1878  _msgSender() */\n      jump\t// in\n    tag_166:\n        /* \"@openzeppelin/contracts/access/Ownable.sol\":1855:1878  owner() != _msgSender() */\n      0xffffffffffffffffffffffffffffffffffffffff\n      and\n        /* \"@openzeppelin/contracts/access/Ownable.sol\":1855:1862  owner() */\n      tag_168\n        /* \"@openzeppelin/contracts/access/Ownable.sol\":1855:1860  owner */\n      tag_35\n        /* \"@openzeppelin/contracts/access/Ownable.sol\":1855:1862  owner() */\n      jump\t// in\n    tag_168:\n        /* \"@openzeppelin/contracts/access/Ownable.sol\":1855:1878  owner() != _msgSender() */\n      0xffffffffffffffffffffffffffffffffffffffff\n      and\n      eq\n        /* \"@openzeppelin/contracts/access/Ownable.sol\":1851:1952  if (owner() != _msgSender()) {... */\n      tag_169\n      jumpi\n        /* \"@openzeppelin/contracts/access/Ownable.sol\":1928:1940  _msgSender() */\n      tag_170\n        /* \"@openzeppelin/contracts/access/Ownable.sol\":1928:1938  _msgSender */\n      tag_167\n        /* \"@openzeppelin/contracts/access/Ownable.sol\":1928:1940  _msgSender() */\n      jump\t// in\n    tag_170:\n        /* \"@openzeppelin/contracts/access/Ownable.sol\":1901:1941  OwnableUnauthorizedAccount(_msgSender()) */\n      mload(0x40)\n      0x118cdaa700000000000000000000000000000000000000000000000000000000\n      dup2\n      mstore\n      0x04\n      add\n      tag_171\n      swap2\n      swap1\n      tag_37\n      jump\t// in\n    tag_171:\n      mload(0x40)\n      dup1\n      swap2\n      sub\n      swap1\n      revert\n        /* \"@openzeppelin/contracts/access/Ownable.sol\":1851:1952  if (owner() != _msgSender()) {... */\n    tag_169:\n        /* \"@openzeppelin/contracts/access/Ownable.sol\":1796:1958  function _checkOwner() internal view virtual {... */\n      jump\t// out\n        /* \"@openzeppelin/contracts/access/Ownable.sol\":2912:3099  function _transferOwnership(address newOwner) internal virtual {... */\n    tag_139:\n        /* \"@openzeppelin/contracts/access/Ownable.sol\":2985:3001  address oldOwner */\n      0x00\n        /* \"@openzeppelin/contracts/access/Ownable.sol\":3004:3010  _owner */\n      dup1\n      0x00\n      swap1\n      sload\n      swap1\n      0x0100\n      exp\n      swap1\n      div\n      0xffffffffffffffffffffffffffffffffffffffff\n      and\n        /* \"@openzeppelin/contracts/access/Ownable.sol\":2985:3010  address oldOwner = _owner */\n      swap1\n      pop\n        /* \"@openzeppelin/contracts/access/Ownable.sol\":3029:3037  newOwner */\n      dup2\n        /* \"@openzeppelin/contracts/access/Ownable.sol\":3020:3026  _owner */\n      0x00\n      dup1\n        /* \"@openzeppelin/contracts/access/Ownable.sol\":3020:3037  _owner = newOwner */\n      0x0100\n      exp\n      dup2\n      sload\n      dup2\n      0xffffffffffffffffffffffffffffffffffffffff\n      mul\n      not\n      and\n      swap1\n      dup4\n      0xffffffffffffffffffffffffffffffffffffffff\n      and\n      mul\n      or\n      swap1\n      sstore\n      pop\n        /* \"@openzeppelin/contracts/access/Ownable.sol\":3083:3091  newOwner */\n      dup2\n        /* \"@openzeppelin/contracts/access/Ownable.sol\":3052:3092  OwnershipTransferred(oldOwner, newOwner) */\n      0xffffffffffffffffffffffffffffffffffffffff\n      and\n        /* \"@openzeppelin/contracts/access/Ownable.sol\":3073:3081  oldOwner */\n      dup2\n        /* \"@openzeppelin/contracts/access/Ownable.sol\":3052:3092  OwnershipTransferred(oldOwner, newOwner) */\n      0xffffffffffffffffffffffffffffffffffffffff\n      and\n      0x8be0079c531659141344cd1fd0a4f28419497f9722a3daafe3b4186f6b6457e0\n      mload(0x40)\n      mload(0x40)\n      dup1\n      swap2\n      sub\n      swap1\n      log3\n        /* \"@openzeppelin/contracts/access/Ownable.sol\":2975:3099  {... */\n      pop\n        /* \"@openzeppelin/contracts/access/Ownable.sol\":2912:3099  function _transferOwnership(address newOwner) internal virtual {... */\n      pop\n      jump\t// out\n        /* \"@openzeppelin/contracts/utils/Context.sol\":656:752  function _msgSender() internal view virtual returns (address) {... */\n    tag_167:\n        /* \"@openzeppelin/contracts/utils/Context.sol\":709:716  address */\n      0x00\n        /* \"@openzeppelin/contracts/utils/Context.sol\":735:745  msg.sender */\n      caller\n        /* \"@openzeppelin/contracts/utils/Context.sol\":728:745  return msg.sender */\n      swap1\n      pop\n        /* \"@openzeppelin/contracts/utils/Context.sol\":656:752  function _msgSender() internal view virtual returns (address) {... */\n      swap1\n      jump\t// out\n        /* \"#utility.yul\":88:205   */\n    tag_175:\n        /* \"#utility.yul\":197:198   */\n      0x00\n        /* \"#utility.yul\":194:195   */\n      dup1\n        /* \"#utility.yul\":187:199   */\n      revert\n        /* \"#utility.yul\":334:411   */\n    tag_177:\n        /* \"#utility.yul\":371:378   */\n      0x00\n        /* \"#utility.yul\":400:405   */\n      dup2\n        /* \"#utility.yul\":389:405   */\n      swap1\n      pop\n        /* \"#utility.yul\":334:411   */\n      swap2\n      swap1\n      pop\n      jump\t// out\n        /* \"#utility.yul\":417:539   */\n    tag_178:\n        /* \"#utility.yul\":490:514   */\n      tag_224\n        /* \"#utility.yul\":508:513   */\n      dup2\n        /* \"#utility.yul\":490:514   */\n      tag_177\n      jump\t// in\n    tag_224:\n        /* \"#utility.yul\":483:488   */\n      dup2\n        /* \"#utility.yul\":480:515   */\n      eq\n        /* \"#utility.yul\":470:533   */\n      tag_225\n      jumpi\n        /* \"#utility.yul\":529:530   */\n      0x00\n        /* \"#utility.yul\":526:527   */\n      dup1\n        /* \"#utility.yul\":519:531   */\n      revert\n        /* \"#utility.yul\":470:533   */\n    tag_225:\n        /* \"#utility.yul\":417:539   */\n      pop\n      jump\t// out\n        /* \"#utility.yul\":545:684   */\n    tag_179:\n        /* \"#utility.yul\":591:596   */\n      0x00\n        /* \"#utility.yul\":629:635   */\n      dup2\n        /* \"#utility.yul\":616:636   */\n      calldataload\n        /* \"#utility.yul\":607:636   */\n      swap1\n      pop\n        /* \"#utility.yul\":645:678   */\n      tag_227\n        /* \"#utility.yul\":672:677   */\n      dup2\n        /* \"#utility.yul\":645:678   */\n      tag_178\n      jump\t// in\n    tag_227:\n        /* \"#utility.yul\":545:684   */\n      swap3\n      swap2\n      pop\n      pop\n      jump\t// out\n        /* \"#utility.yul\":690:1309   */\n    tag_18:\n        /* \"#utility.yul\":767:773   */\n      0x00\n        /* \"#utility.yul\":775:781   */\n      dup1\n        /* \"#utility.yul\":783:789   */\n      0x00\n        /* \"#utility.yul\":832:834   */\n      0x60\n        /* \"#utility.yul\":820:829   */\n      dup5\n        /* \"#utility.yul\":811:818   */\n      dup7\n        /* \"#utility.yul\":807:830   */\n      sub\n        /* \"#utility.yul\":803:835   */\n      slt\n        /* \"#utility.yul\":800:919   */\n      iszero\n      tag_229\n      jumpi\n        /* \"#utility.yul\":838:917   */\n      tag_230\n      tag_175\n      jump\t// in\n    tag_230:\n        /* \"#utility.yul\":800:919   */\n    tag_229:\n        /* \"#utility.yul\":958:959   */\n      0x00\n        /* \"#utility.yul\":983:1036   */\n      tag_231\n        /* \"#utility.yul\":1028:1035   */\n      dup7\n        /* \"#utility.yul\":1019:1025   */\n      dup3\n        /* \"#utility.yul\":1008:1017   */\n      dup8\n        /* \"#utility.yul\":1004:1026   */\n      add\n        /* \"#utility.yul\":983:1036   */\n      tag_179\n      jump\t// in\n    tag_231:\n        /* \"#utility.yul\":973:1036   */\n      swap4\n      pop\n        /* \"#utility.yul\":929:1046   */\n      pop\n        /* \"#utility.yul\":1085:1087   */\n      0x20\n        /* \"#utility.yul\":1111:1164   */\n      tag_232\n        /* \"#utility.yul\":1156:1163   */\n      dup7\n        /* \"#utility.yul\":1147:1153   */\n      dup3\n        /* \"#utility.yul\":1136:1145   */\n      dup8\n        /* \"#utility.yul\":1132:1154   */\n      add\n        /* \"#utility.yul\":1111:1164   */\n      tag_179\n      jump\t// in\n    tag_232:\n        /* \"#utility.yul\":1101:1164   */\n      swap3\n      pop\n        /* \"#utility.yul\":1056:1174   */\n      pop\n        /* \"#utility.yul\":1213:1215   */\n      0x40\n        /* \"#utility.yul\":1239:1292   */\n      tag_233\n        /* \"#utility.yul\":1284:1291   */\n      dup7\n        /* \"#utility.yul\":1275:1281   */\n      dup3\n        /* \"#utility.yul\":1264:1273   */\n      dup8\n        /* \"#utility.yul\":1260:1282   */\n      add\n        /* \"#utility.yul\":1239:1292   */\n      tag_179\n      jump\t// in\n    tag_233:\n        /* \"#utility.yul\":1229:1292   */\n      swap2\n      pop\n        /* \"#utility.yul\":1184:1302   */\n      pop\n        /* \"#utility.yul\":690:1309   */\n      swap3\n      pop\n      swap3\n      pop\n      swap3\n      jump\t// out\n        /* \"#utility.yul\":1315:1441   */\n    tag_180:\n        /* \"#utility.yul\":1352:1359   */\n      0x00\n        /* \"#utility.yul\":1392:1434   */\n      0xffffffffffffffffffffffffffffffffffffffff\n        /* \"#utility.yul\":1385:1390   */\n      dup3\n        /* \"#utility.yul\":1381:1435   */\n      and\n        /* \"#utility.yul\":1370:1435   */\n      swap1\n      pop\n        /* \"#utility.yul\":1315:1441   */\n      swap2\n      swap1\n      pop\n      jump\t// out\n        /* \"#utility.yul\":1447:1507   */\n    tag_181:\n        /* \"#utility.yul\":1475:1478   */\n      0x00\n        /* \"#utility.yul\":1496:1501   */\n      dup2\n        /* \"#utility.yul\":1489:1501   */\n      swap1\n      pop\n        /* \"#utility.yul\":1447:1507   */\n      swap2\n      swap1\n      pop\n      jump\t// out\n        /* \"#utility.yul\":1513:1655   */\n    tag_182:\n        /* \"#utility.yul\":1563:1572   */\n      0x00\n        /* \"#utility.yul\":1596:1649   */\n      tag_237\n        /* \"#utility.yul\":1614:1648   */\n      tag_238\n        /* \"#utility.yul\":1623:1647   */\n      tag_239\n        /* \"#utility.yul\":1641:1646   */\n      dup5\n        /* \"#utility.yul\":1623:1647   */\n      tag_180\n      jump\t// in\n    tag_239:\n        /* \"#utility.yul\":1614:1648   */\n      tag_181\n      jump\t// in\n    tag_238:\n        /* \"#utility.yul\":1596:1649   */\n      tag_180\n      jump\t// in\n    tag_237:\n        /* \"#utility.yul\":1583:1649   */\n      swap1\n      pop\n        /* \"#utility.yul\":1513:1655   */\n      swap2\n      swap1\n      pop\n      jump\t// out\n        /* \"#utility.yul\":1661:1787   */\n    tag_183:\n        /* \"#utility.yul\":1711:1720   */\n      0x00\n        /* \"#utility.yul\":1744:1781   */\n      tag_241\n        /* \"#utility.yul\":1775:1780   */\n      dup3\n        /* \"#utility.yul\":1744:1781   */\n      tag_182\n      jump\t// in\n    tag_241:\n        /* \"#utility.yul\":1731:1781   */\n      swap1\n      pop\n        /* \"#utility.yul\":1661:1787   */\n      swap2\n      swap1\n      pop\n      jump\t// out\n        /* \"#utility.yul\":1793:1933   */\n    tag_184:\n        /* \"#utility.yul\":1857:1866   */\n      0x00\n        /* \"#utility.yul\":1890:1927   */\n      tag_243\n        /* \"#utility.yul\":1921:1926   */\n      dup3\n        /* \"#utility.yul\":1890:1927   */\n      tag_183\n      jump\t// in\n    tag_243:\n        /* \"#utility.yul\":1877:1927   */\n      swap1\n      pop\n        /* \"#utility.yul\":1793:1933   */\n      swap2\n      swap1\n      pop\n      jump\t// out\n        /* \"#utility.yul\":1939:2098   */\n    tag_185:\n        /* \"#utility.yul\":2040:2091   */\n      tag_245\n        /* \"#utility.yul\":2085:2090   */\n      dup2\n        /* \"#utility.yul\":2040:2091   */\n      tag_184\n      jump\t// in\n    tag_245:\n        /* \"#utility.yul\":2035:2038   */\n      dup3\n        /* \"#utility.yul\":2028:2092   */\n      mstore\n        /* \"#utility.yul\":1939:2098   */\n      pop\n      pop\n      jump\t// out\n        /* \"#utility.yul\":2104:2354   */\n    tag_23:\n        /* \"#utility.yul\":2211:2215   */\n      0x00\n        /* \"#utility.yul\":2249:2251   */\n      0x20\n        /* \"#utility.yul\":2238:2247   */\n      dup3\n        /* \"#utility.yul\":2234:2252   */\n      add\n        /* \"#utility.yul\":2226:2252   */\n      swap1\n      pop\n        /* \"#utility.yul\":2262:2347   */\n      tag_247\n        /* \"#utility.yul\":2344:2345   */\n      0x00\n        /* \"#utility.yul\":2333:2342   */\n      dup4\n        /* \"#utility.yul\":2329:2346   */\n      add\n        /* \"#utility.yul\":2320:2326   */\n      dup5\n        /* \"#utility.yul\":2262:2347   */\n      tag_185\n      jump\t// in\n    tag_247:\n        /* \"#utility.yul\":2104:2354   */\n      swap3\n      swap2\n      pop\n      pop\n      jump\t// out\n        /* \"#utility.yul\":2360:2478   */\n    tag_186:\n        /* \"#utility.yul\":2447:2471   */\n      tag_249\n        /* \"#utility.yul\":2465:2470   */\n      dup2\n        /* \"#utility.yul\":2447:2471   */\n      tag_177\n      jump\t// in\n    tag_249:\n        /* \"#utility.yul\":2442:2445   */\n      dup3\n        /* \"#utility.yul\":2435:2472   */\n      mstore\n        /* \"#utility.yul\":2360:2478   */\n      pop\n      pop\n      jump\t// out\n        /* \"#utility.yul\":2484:2706   */\n    tag_27:\n        /* \"#utility.yul\":2577:2581   */\n      0x00\n        /* \"#utility.yul\":2615:2617   */\n      0x20\n        /* \"#utility.yul\":2604:2613   */\n      dup3\n        /* \"#utility.yul\":2600:2618   */\n      add\n        /* \"#utility.yul\":2592:2618   */\n      swap1\n      pop\n        /* \"#utility.yul\":2628:2699   */\n      tag_251\n        /* \"#utility.yul\":2696:2697   */\n      0x00\n        /* \"#utility.yul\":2685:2694   */\n      dup4\n        /* \"#utility.yul\":2681:2698   */\n      add\n        /* \"#utility.yul\":2672:2678   */\n      dup5\n        /* \"#utility.yul\":2628:2699   */\n      tag_186\n      jump\t// in\n    tag_251:\n        /* \"#utility.yul\":2484:2706   */\n      swap3\n      swap2\n      pop\n      pop\n      jump\t// out\n        /* \"#utility.yul\":2712:3186   */\n    tag_30:\n        /* \"#utility.yul\":2780:2786   */\n      0x00\n        /* \"#utility.yul\":2788:2794   */\n      dup1\n        /* \"#utility.yul\":2837:2839   */\n      0x40\n        /* \"#utility.yul\":2825:2834   */\n      dup4\n        /* \"#utility.yul\":2816:2823   */\n      dup6\n        /* \"#utility.yul\":2812:2835   */\n      sub\n        /* \"#utility.yul\":2808:2840   */\n      slt\n        /* \"#utility.yul\":2805:2924   */\n      iszero\n      tag_253\n      jumpi\n        /* \"#utility.yul\":2843:2922   */\n      tag_254\n      tag_175\n      jump\t// in\n    tag_254:\n        /* \"#utility.yul\":2805:2924   */\n    tag_253:\n        /* \"#utility.yul\":2963:2964   */\n      0x00\n        /* \"#utility.yul\":2988:3041   */\n      tag_255\n        /* \"#utility.yul\":3033:3040   */\n      dup6\n        /* \"#utility.yul\":3024:3030   */\n      dup3\n        /* \"#utility.yul\":3013:3022   */\n      dup7\n        /* \"#utility.yul\":3009:3031   */\n      add\n        /* \"#utility.yul\":2988:3041   */\n      tag_179\n      jump\t// in\n    tag_255:\n        /* \"#utility.yul\":2978:3041   */\n      swap3\n      pop\n        /* \"#utility.yul\":2934:3051   */\n      pop\n        /* \"#utility.yul\":3090:3092   */\n      0x20\n        /* \"#utility.yul\":3116:3169   */\n      tag_256\n        /* \"#utility.yul\":3161:3168   */\n      dup6\n        /* \"#utility.yul\":3152:3158   */\n      dup3\n        /* \"#utility.yul\":3141:3150   */\n      dup7\n        /* \"#utility.yul\":3137:3159   */\n      add\n        /* \"#utility.yul\":3116:3169   */\n      tag_179\n      jump\t// in\n    tag_256:\n        /* \"#utility.yul\":3106:3169   */\n      swap2\n      pop\n        /* \"#utility.yul\":3061:3179   */\n      pop\n        /* \"#utility.yul\":2712:3186   */\n      swap3\n      pop\n      swap3\n      swap1\n      pop\n      jump\t// out\n        /* \"#utility.yul\":3192:3288   */\n    tag_187:\n        /* \"#utility.yul\":3229:3236   */\n      0x00\n        /* \"#utility.yul\":3258:3282   */\n      tag_258\n        /* \"#utility.yul\":3276:3281   */\n      dup3\n        /* \"#utility.yul\":3258:3282   */\n      tag_180\n      jump\t// in\n    tag_258:\n        /* \"#utility.yul\":3247:3282   */\n      swap1\n      pop\n        /* \"#utility.yul\":3192:3288   */\n      swap2\n      swap1\n      pop\n      jump\t// out\n        /* \"#utility.yul\":3294:3412   */\n    tag_188:\n        /* \"#utility.yul\":3381:3405   */\n      tag_260\n        /* \"#utility.yul\":3399:3404   */\n      dup2\n        /* \"#utility.yul\":3381:3405   */\n      tag_187\n      jump\t// in\n    tag_260:\n        /* \"#utility.yul\":3376:3379   */\n      dup3\n        /* \"#utility.yul\":3369:3406   */\n      mstore\n        /* \"#utility.yul\":3294:3412   */\n      pop\n      pop\n      jump\t// out\n        /* \"#utility.yul\":3418:3640   */\n    tag_37:\n        /* \"#utility.yul\":3511:3515   */\n      0x00\n        /* \"#utility.yul\":3549:3551   */\n      0x20\n        /* \"#utility.yul\":3538:3547   */\n      dup3\n        /* \"#utility.yul\":3534:3552   */\n      add\n        /* \"#utility.yul\":3526:3552   */\n      swap1\n      pop\n        /* \"#utility.yul\":3562:3633   */\n      tag_262\n        /* \"#utility.yul\":3630:3631   */\n      0x00\n        /* \"#utility.yul\":3619:3628   */\n      dup4\n        /* \"#utility.yul\":3615:3632   */\n      add\n        /* \"#utility.yul\":3606:3612   */\n      dup5\n        /* \"#utility.yul\":3562:3633   */\n      tag_188\n      jump\t// in\n    tag_262:\n        /* \"#utility.yul\":3418:3640   */\n      swap3\n      swap2\n      pop\n      pop\n      jump\t// out\n        /* \"#utility.yul\":3646:3768   */\n    tag_189:\n        /* \"#utility.yul\":3719:3743   */\n      tag_264\n        /* \"#utility.yul\":3737:3742   */\n      dup2\n        /* \"#utility.yul\":3719:3743   */\n      tag_187\n      jump\t// in\n    tag_264:\n        /* \"#utility.yul\":3712:3717   */\n      dup2\n        /* \"#utility.yul\":3709:3744   */\n      eq\n        /* \"#utility.yul\":3699:3762   */\n      tag_265\n      jumpi\n        /* \"#utility.yul\":3758:3759   */\n      0x00\n        /* \"#utility.yul\":3755:3756   */\n      dup1\n        /* \"#utility.yul\":3748:3760   */\n      revert\n        /* \"#utility.yul\":3699:3762   */\n    tag_265:\n        /* \"#utility.yul\":3646:3768   */\n      pop\n      jump\t// out\n        /* \"#utility.yul\":3774:3913   */\n    tag_190:\n        /* \"#utility.yul\":3820:3825   */\n      0x00\n        /* \"#utility.yul\":3858:3864   */\n      dup2\n        /* \"#utility.yul\":3845:3865   */\n      calldataload\n        /* \"#utility.yul\":3836:3865   */\n      swap1\n      pop\n        /* \"#utility.yul\":3874:3907   */\n      tag_267\n        /* \"#utility.yul\":3901:3906   */\n      dup2\n        /* \"#utility.yul\":3874:3907   */\n      tag_189\n      jump\t// in\n    tag_267:\n        /* \"#utility.yul\":3774:3913   */\n      swap3\n      swap2\n      pop\n      pop\n      jump\t// out\n        /* \"#utility.yul\":3919:4538   */\n    tag_40:\n        /* \"#utility.yul\":3996:4002   */\n      0x00\n        /* \"#utility.yul\":4004:4010   */\n      dup1\n        /* \"#utility.yul\":4012:4018   */\n      0x00\n        /* \"#utility.yul\":4061:4063   */\n      0x60\n        /* \"#utility.yul\":4049:4058   */\n      dup5\n        /* \"#utility.yul\":4040:4047   */\n      dup7\n        /* \"#utility.yul\":4036:4059   */\n      sub\n        /* \"#utility.yul\":4032:4064   */\n      slt\n        /* \"#utility.yul\":4029:4148   */\n      iszero\n      tag_269\n      jumpi\n        /* \"#utility.yul\":4067:4146   */\n      tag_270\n      tag_175\n      jump\t// in\n    tag_270:\n        /* \"#utility.yul\":4029:4148   */\n    tag_269:\n        /* \"#utility.yul\":4187:4188   */\n      0x00\n        /* \"#utility.yul\":4212:4265   */\n      tag_271\n        /* \"#utility.yul\":4257:4264   */\n      dup7\n        /* \"#utility.yul\":4248:4254   */\n      dup3\n        /* \"#utility.yul\":4237:4246   */\n      dup8\n        /* \"#utility.yul\":4233:4255   */\n      add\n        /* \"#utility.yul\":4212:4265   */\n      tag_179\n      jump\t// in\n    tag_271:\n        /* \"#utility.yul\":4202:4265   */\n      swap4\n      pop\n        /* \"#utility.yul\":4158:4275   */\n      pop\n        /* \"#utility.yul\":4314:4316   */\n      0x20\n        /* \"#utility.yul\":4340:4393   */\n      tag_272\n        /* \"#utility.yul\":4385:4392   */\n      dup7\n        /* \"#utility.yul\":4376:4382   */\n      dup3\n        /* \"#utility.yul\":4365:4374   */\n      dup8\n        /* \"#utility.yul\":4361:4383   */\n      add\n        /* \"#utility.yul\":4340:4393   */\n      tag_179\n      jump\t// in\n    tag_272:\n        /* \"#utility.yul\":4330:4393   */\n      swap3\n      pop\n        /* \"#utility.yul\":4285:4403   */\n      pop\n        /* \"#utility.yul\":4442:4444   */\n      0x40\n        /* \"#utility.yul\":4468:4521   */\n      tag_273\n        /* \"#utility.yul\":4513:4520   */\n      dup7\n        /* \"#utility.yul\":4504:4510   */\n      dup3\n        /* \"#utility.yul\":4493:4502   */\n      dup8\n        /* \"#utility.yul\":4489:4511   */\n      add\n        /* \"#utility.yul\":4468:4521   */\n      tag_190\n      jump\t// in\n    tag_273:\n        /* \"#utility.yul\":4458:4521   */\n      swap2\n      pop\n        /* \"#utility.yul\":4413:4531   */\n      pop\n        /* \"#utility.yul\":3919:4538   */\n      swap3\n      pop\n      swap3\n      pop\n      swap3\n      jump\t// out\n        /* \"#utility.yul\":4544:4876   */\n    tag_47:\n        /* \"#utility.yul\":4665:4669   */\n      0x00\n        /* \"#utility.yul\":4703:4705   */\n      0x40\n        /* \"#utility.yul\":4692:4701   */\n      dup3\n        /* \"#utility.yul\":4688:4706   */\n      add\n        /* \"#utility.yul\":4680:4706   */\n      swap1\n      pop\n        /* \"#utility.yul\":4716:4787   */\n      tag_275\n        /* \"#utility.yul\":4784:4785   */\n      0x00\n        /* \"#utility.yul\":4773:4782   */\n      dup4\n        /* \"#utility.yul\":4769:4786   */\n      add\n        /* \"#utility.yul\":4760:4766   */\n      dup6\n        /* \"#utility.yul\":4716:4787   */\n      tag_186\n      jump\t// in\n    tag_275:\n        /* \"#utility.yul\":4797:4869   */\n      tag_276\n        /* \"#utility.yul\":4865:4867   */\n      0x20\n        /* \"#utility.yul\":4854:4863   */\n      dup4\n        /* \"#utility.yul\":4850:4868   */\n      add\n        /* \"#utility.yul\":4841:4847   */\n      dup5\n        /* \"#utility.yul\":4797:4869   */\n      tag_186\n      jump\t// in\n    tag_276:\n        /* \"#utility.yul\":4544:4876   */\n      swap4\n      swap3\n      pop\n      pop\n      pop\n      jump\t// out\n        /* \"#utility.yul\":4882:5023   */\n    tag_191:\n        /* \"#utility.yul\":4947:4956   */\n      0x00\n        /* \"#utility.yul\":4980:5017   */\n      tag_278\n        /* \"#utility.yul\":5011:5016   */\n      dup3\n        /* \"#utility.yul\":4980:5017   */\n      tag_183\n      jump\t// in\n    tag_278:\n        /* \"#utility.yul\":4967:5017   */\n      swap1\n      pop\n        /* \"#utility.yul\":4882:5023   */\n      swap2\n      swap1\n      pop\n      jump\t// out\n        /* \"#utility.yul\":5029:5190   */\n    tag_192:\n        /* \"#utility.yul\":5131:5183   */\n      tag_280\n        /* \"#utility.yul\":5177:5182   */\n      dup2\n        /* \"#utility.yul\":5131:5183   */\n      tag_191\n      jump\t// in\n    tag_280:\n        /* \"#utility.yul\":5126:5129   */\n      dup3\n        /* \"#utility.yul\":5119:5184   */\n      mstore\n        /* \"#utility.yul\":5029:5190   */\n      pop\n      pop\n      jump\t// out\n        /* \"#utility.yul\":5196:5448   */\n    tag_51:\n        /* \"#utility.yul\":5304:5308   */\n      0x00\n        /* \"#utility.yul\":5342:5344   */\n      0x20\n        /* \"#utility.yul\":5331:5340   */\n      dup3\n        /* \"#utility.yul\":5327:5345   */\n      add\n        /* \"#utility.yul\":5319:5345   */\n      swap1\n      pop\n        /* \"#utility.yul\":5355:5441   */\n      tag_282\n        /* \"#utility.yul\":5438:5439   */\n      0x00\n        /* \"#utility.yul\":5427:5436   */\n      dup4\n        /* \"#utility.yul\":5423:5440   */\n      add\n        /* \"#utility.yul\":5414:5420   */\n      dup5\n        /* \"#utility.yul\":5355:5441   */\n      tag_192\n      jump\t// in\n    tag_282:\n        /* \"#utility.yul\":5196:5448   */\n      swap3\n      swap2\n      pop\n      pop\n      jump\t// out\n        /* \"#utility.yul\":5454:5783   */\n    tag_61:\n        /* \"#utility.yul\":5513:5519   */\n      0x00\n        /* \"#utility.yul\":5562:5564   */\n      0x20\n        /* \"#utility.yul\":5550:5559   */\n      dup3\n        /* \"#utility.yul\":5541:5548   */\n      dup5\n        /* \"#utility.yul\":5537:5560   */\n      sub\n        /* \"#utility.yul\":5533:5565   */\n      slt\n        /* \"#utility.yul\":5530:5649   */\n      iszero\n      tag_284\n      jumpi\n        /* \"#utility.yul\":5568:5647   */\n      tag_285\n      tag_175\n      jump\t// in\n    tag_285:\n        /* \"#utility.yul\":5530:5649   */\n    tag_284:\n        /* \"#utility.yul\":5688:5689   */\n      0x00\n        /* \"#utility.yul\":5713:5766   */\n      tag_286\n        /* \"#utility.yul\":5758:5765   */\n      dup5\n        /* \"#utility.yul\":5749:5755   */\n      dup3\n        /* \"#utility.yul\":5738:5747   */\n      dup6\n        /* \"#utility.yul\":5734:5756   */\n      add\n        /* \"#utility.yul\":5713:5766   */\n      tag_190\n      jump\t// in\n    tag_286:\n        /* \"#utility.yul\":5703:5766   */\n      swap2\n      pop\n        /* \"#utility.yul\":5659:5776   */\n      pop\n        /* \"#utility.yul\":5454:5783   */\n      swap3\n      swap2\n      pop\n      pop\n      jump\t// out\n        /* \"#utility.yul\":5789:5958   */\n    tag_193:\n        /* \"#utility.yul\":5873:5884   */\n      0x00\n        /* \"#utility.yul\":5907:5913   */\n      dup3\n        /* \"#utility.yul\":5902:5905   */\n      dup3\n        /* \"#utility.yul\":5895:5914   */\n      mstore\n        /* \"#utility.yul\":5947:5951   */\n      0x20\n        /* \"#utility.yul\":5942:5945   */\n      dup3\n        /* \"#utility.yul\":5938:5952   */\n      add\n        /* \"#utility.yul\":5923:5952   */\n      swap1\n      pop\n        /* \"#utility.yul\":5789:5958   */\n      swap3\n      swap2\n      pop\n      pop\n      jump\t// out\n        /* \"#utility.yul\":5964:6137   */\n    tag_194:\n        /* \"#utility.yul\":6104:6129   */\n      0x416d6f756e74206d75737420626520706f736974697665000000000000000000\n        /* \"#utility.yul\":6100:6101   */\n      0x00\n        /* \"#utility.yul\":6092:6098   */\n      dup3\n        /* \"#utility.yul\":6088:6102   */\n      add\n        /* \"#utility.yul\":6081:6130   */\n      mstore\n        /* \"#utility.yul\":5964:6137   */\n      pop\n      jump\t// out\n        /* \"#utility.yul\":6143:6509   */\n    tag_195:\n        /* \"#utility.yul\":6285:6288   */\n      0x00\n        /* \"#utility.yul\":6306:6373   */\n      tag_290\n        /* \"#utility.yul\":6370:6372   */\n      0x17\n        /* \"#utility.yul\":6365:6368   */\n      dup4\n        /* \"#utility.yul\":6306:6373   */\n      tag_193\n      jump\t// in\n    tag_290:\n        /* \"#utility.yul\":6299:6373   */\n      swap2\n      pop\n        /* \"#utility.yul\":6382:6475   */\n      tag_291\n        /* \"#utility.yul\":6471:6474   */\n      dup3\n        /* \"#utility.yul\":6382:6475   */\n      tag_194\n      jump\t// in\n    tag_291:\n        /* \"#utility.yul\":6500:6502   */\n      0x20\n        /* \"#utility.yul\":6495:6498   */\n      dup3\n        /* \"#utility.yul\":6491:6503   */\n      add\n        /* \"#utility.yul\":6484:6503   */\n      swap1\n      pop\n        /* \"#utility.yul\":6143:6509   */\n      swap2\n      swap1\n      pop\n      jump\t// out\n        /* \"#utility.yul\":6515:6934   */\n    tag_66:\n        /* \"#utility.yul\":6681:6685   */\n      0x00\n        /* \"#utility.yul\":6719:6721   */\n      0x20\n        /* \"#utility.yul\":6708:6717   */\n      dup3\n        /* \"#utility.yul\":6704:6722   */\n      add\n        /* \"#utility.yul\":6696:6722   */\n      swap1\n      pop\n        /* \"#utility.yul\":6768:6777   */\n      dup2\n        /* \"#utility.yul\":6762:6766   */\n      dup2\n        /* \"#utility.yul\":6758:6778   */\n      sub\n        /* \"#utility.yul\":6754:6755   */\n      0x00\n        /* \"#utility.yul\":6743:6752   */\n      dup4\n        /* \"#utility.yul\":6739:6756   */\n      add\n        /* \"#utility.yul\":6732:6779   */\n      mstore\n        /* \"#utility.yul\":6796:6927   */\n      tag_293\n        /* \"#utility.yul\":6922:6926   */\n      dup2\n        /* \"#utility.yul\":6796:6927   */\n      tag_195\n      jump\t// in\n    tag_293:\n        /* \"#utility.yul\":6788:6927   */\n      swap1\n      pop\n        /* \"#utility.yul\":6515:6934   */\n      swap2\n      swap1\n      pop\n      jump\t// out\n        /* \"#utility.yul\":6940:7110   */\n    tag_196:\n        /* \"#utility.yul\":7080:7102   */\n      0x506f6f6c20646f6573206e6f742065786973742e000000000000000000000000\n        /* \"#utility.yul\":7076:7077   */\n      0x00\n        /* \"#utility.yul\":7068:7074   */\n      dup3\n        /* \"#utility.yul\":7064:7078   */\n      add\n        /* \"#utility.yul\":7057:7103   */\n      mstore\n        /* \"#utility.yul\":6940:7110   */\n      pop\n      jump\t// out\n        /* \"#utility.yul\":7116:7482   */\n    tag_197:\n        /* \"#utility.yul\":7258:7261   */\n      0x00\n        /* \"#utility.yul\":7279:7346   */\n      tag_296\n        /* \"#utility.yul\":7343:7345   */\n      0x14\n        /* \"#utility.yul\":7338:7341   */\n      dup4\n        /* \"#utility.yul\":7279:7346   */\n      tag_193\n      jump\t// in\n    tag_296:\n        /* \"#utility.yul\":7272:7346   */\n      swap2\n      pop\n        /* \"#utility.yul\":7355:7448   */\n      tag_297\n        /* \"#utility.yul\":7444:7447   */\n      dup3\n        /* \"#utility.yul\":7355:7448   */\n      tag_196\n      jump\t// in\n    tag_297:\n        /* \"#utility.yul\":7473:7475   */\n      0x20\n        /* \"#utility.yul\":7468:7471   */\n      dup3\n        /* \"#utility.yul\":7464:7476   */\n      add\n        /* \"#utility.yul\":7457:7476   */\n      swap1\n      pop\n        /* \"#utility.yul\":7116:7482   */\n      swap2\n      swap1\n      pop\n      jump\t// out\n        /* \"#utility.yul\":7488:7907   */\n    tag_70:\n        /* \"#utility.yul\":7654:7658   */\n      0x00\n        /* \"#utility.yul\":7692:7694   */\n      0x20\n        /* \"#utility.yul\":7681:7690   */\n      dup3\n        /* \"#utility.yul\":7677:7695   */\n      add\n        /* \"#utility.yul\":7669:7695   */\n      swap1\n      pop\n        /* \"#utility.yul\":7741:7750   */\n      dup2\n        /* \"#utility.yul\":7735:7739   */\n      dup2\n        /* \"#utility.yul\":7731:7751   */\n      sub\n        /* \"#utility.yul\":7727:7728   */\n      0x00\n        /* \"#utility.yul\":7716:7725   */\n      dup4\n        /* \"#utility.yul\":7712:7729   */\n      add\n        /* \"#utility.yul\":7705:7752   */\n      mstore\n        /* \"#utility.yul\":7769:7900   */\n      tag_299\n        /* \"#utility.yul\":7895:7899   */\n      dup2\n        /* \"#utility.yul\":7769:7900   */\n      tag_197\n      jump\t// in\n    tag_299:\n        /* \"#utility.yul\":7761:7900   */\n      swap1\n      pop\n        /* \"#utility.yul\":7488:7907   */\n      swap2\n      swap1\n      pop\n      jump\t// out\n        /* \"#utility.yul\":7913:8088   */\n    tag_198:\n        /* \"#utility.yul\":8053:8080   */\n      0x5368617265732063616c63756c6174696f6e206572726f722e00000000000000\n        /* \"#utility.yul\":8049:8050   */\n      0x00\n        /* \"#utility.yul\":8041:8047   */\n      dup3\n        /* \"#utility.yul\":8037:8051   */\n      add\n        /* \"#utility.yul\":8030:8081   */\n      mstore\n        /* \"#utility.yul\":7913:8088   */\n      pop\n      jump\t// out\n        /* \"#utility.yul\":8094:8460   */\n    tag_199:\n        /* \"#utility.yul\":8236:8239   */\n      0x00\n        /* \"#utility.yul\":8257:8324   */\n      tag_302\n        /* \"#utility.yul\":8321:8323   */\n      0x19\n        /* \"#utility.yul\":8316:8319   */\n      dup4\n        /* \"#utility.yul\":8257:8324   */\n      tag_193\n      jump\t// in\n    tag_302:\n        /* \"#utility.yul\":8250:8324   */\n      swap2\n      pop\n        /* \"#utility.yul\":8333:8426   */\n      tag_303\n        /* \"#utility.yul\":8422:8425   */\n      dup3\n        /* \"#utility.yul\":8333:8426   */\n      tag_198\n      jump\t// in\n    tag_303:\n        /* \"#utility.yul\":8451:8453   */\n      0x20\n        /* \"#utility.yul\":8446:8449   */\n      dup3\n        /* \"#utility.yul\":8442:8454   */\n      add\n        /* \"#utility.yul\":8435:8454   */\n      swap1\n      pop\n        /* \"#utility.yul\":8094:8460   */\n      swap2\n      swap1\n      pop\n      jump\t// out\n        /* \"#utility.yul\":8466:8885   */\n    tag_75:\n        /* \"#utility.yul\":8632:8636   */\n      0x00\n        /* \"#utility.yul\":8670:8672   */\n      0x20\n        /* \"#utility.yul\":8659:8668   */\n      dup3\n        /* \"#utility.yul\":8655:8673   */\n      add\n        /* \"#utility.yul\":8647:8673   */\n      swap1\n      pop\n        /* \"#utility.yul\":8719:8728   */\n      dup2\n        /* \"#utility.yul\":8713:8717   */\n      dup2\n        /* \"#utility.yul\":8709:8729   */\n      sub\n        /* \"#utility.yul\":8705:8706   */\n      0x00\n        /* \"#utility.yul\":8694:8703   */\n      dup4\n        /* \"#utility.yul\":8690:8707   */\n      add\n        /* \"#utility.yul\":8683:8730   */\n      mstore\n        /* \"#utility.yul\":8747:8878   */\n      tag_305\n        /* \"#utility.yul\":8873:8877   */\n      dup2\n        /* \"#utility.yul\":8747:8878   */\n      tag_199\n      jump\t// in\n    tag_305:\n        /* \"#utility.yul\":8739:8878   */\n      swap1\n      pop\n        /* \"#utility.yul\":8466:8885   */\n      swap2\n      swap1\n      pop\n      jump\t// out\n        /* \"#utility.yul\":8891:9333   */\n    tag_77:\n        /* \"#utility.yul\":9040:9044   */\n      0x00\n        /* \"#utility.yul\":9078:9080   */\n      0x60\n        /* \"#utility.yul\":9067:9076   */\n      dup3\n        /* \"#utility.yul\":9063:9081   */\n      add\n        /* \"#utility.yul\":9055:9081   */\n      swap1\n      pop\n        /* \"#utility.yul\":9091:9162   */\n      tag_307\n        /* \"#utility.yul\":9159:9160   */\n      0x00\n        /* \"#utility.yul\":9148:9157   */\n      dup4\n        /* \"#utility.yul\":9144:9161   */\n      add\n        /* \"#utility.yul\":9135:9141   */\n      dup7\n        /* \"#utility.yul\":9091:9162   */\n      tag_188\n      jump\t// in\n    tag_307:\n        /* \"#utility.yul\":9172:9244   */\n      tag_308\n        /* \"#utility.yul\":9240:9242   */\n      0x20\n        /* \"#utility.yul\":9229:9238   */\n      dup4\n        /* \"#utility.yul\":9225:9243   */\n      add\n        /* \"#utility.yul\":9216:9222   */\n      dup6\n        /* \"#utility.yul\":9172:9244   */\n      tag_188\n      jump\t// in\n    tag_308:\n        /* \"#utility.yul\":9254:9326   */\n      tag_309\n        /* \"#utility.yul\":9322:9324   */\n      0x40\n        /* \"#utility.yul\":9311:9320   */\n      dup4\n        /* \"#utility.yul\":9307:9325   */\n      add\n        /* \"#utility.yul\":9298:9304   */\n      dup5\n        /* \"#utility.yul\":9254:9326   */\n      tag_186\n      jump\t// in\n    tag_309:\n        /* \"#utility.yul\":8891:9333   */\n      swap5\n      swap4\n      pop\n      pop\n      pop\n      pop\n      jump\t// out\n        /* \"#utility.yul\":9339:9429   */\n    tag_200:\n        /* \"#utility.yul\":9373:9380   */\n      0x00\n        /* \"#utility.yul\":9416:9421   */\n      dup2\n        /* \"#utility.yul\":9409:9422   */\n      iszero\n        /* \"#utility.yul\":9402:9423   */\n      iszero\n        /* \"#utility.yul\":9391:9423   */\n      swap1\n      pop\n        /* \"#utility.yul\":9339:9429   */\n      swap2\n      swap1\n      pop\n      jump\t// out\n        /* \"#utility.yul\":9435:9551   */\n    tag_201:\n        /* \"#utility.yul\":9505:9526   */\n      tag_312\n        /* \"#utility.yul\":9520:9525   */\n      dup2\n        /* \"#utility.yul\":9505:9526   */\n      tag_200\n      jump\t// in\n    tag_312:\n        /* \"#utility.yul\":9498:9503   */\n      dup2\n        /* \"#utility.yul\":9495:9527   */\n      eq\n        /* \"#utility.yul\":9485:9545   */\n      tag_313\n      jumpi\n        /* \"#utility.yul\":9541:9542   */\n      0x00\n        /* \"#utility.yul\":9538:9539   */\n      dup1\n        /* \"#utility.yul\":9531:9543   */\n      revert\n        /* \"#utility.yul\":9485:9545   */\n    tag_313:\n        /* \"#utility.yul\":9435:9551   */\n      pop\n      jump\t// out\n        /* \"#utility.yul\":9557:9694   */\n    tag_202:\n        /* \"#utility.yul\":9611:9616   */\n      0x00\n        /* \"#utility.yul\":9642:9648   */\n      dup2\n        /* \"#utility.yul\":9636:9649   */\n      mload\n        /* \"#utility.yul\":9627:9649   */\n      swap1\n      pop\n        /* \"#utility.yul\":9658:9688   */\n      tag_315\n        /* \"#utility.yul\":9682:9687   */\n      dup2\n        /* \"#utility.yul\":9658:9688   */\n      tag_201\n      jump\t// in\n    tag_315:\n        /* \"#utility.yul\":9557:9694   */\n      swap3\n      swap2\n      pop\n      pop\n      jump\t// out\n        /* \"#utility.yul\":9700:10045   */\n    tag_81:\n        /* \"#utility.yul\":9767:9773   */\n      0x00\n        /* \"#utility.yul\":9816:9818   */\n      0x20\n        /* \"#utility.yul\":9804:9813   */\n      dup3\n        /* \"#utility.yul\":9795:9802   */\n      dup5\n        /* \"#utility.yul\":9791:9814   */\n      sub\n        /* \"#utility.yul\":9787:9819   */\n      slt\n        /* \"#utility.yul\":9784:9903   */\n      iszero\n      tag_317\n      jumpi\n        /* \"#utility.yul\":9822:9901   */\n      tag_318\n      tag_175\n      jump\t// in\n    tag_318:\n        /* \"#utility.yul\":9784:9903   */\n    tag_317:\n        /* \"#utility.yul\":9942:9943   */\n      0x00\n        /* \"#utility.yul\":9967:10028   */\n      tag_319\n        /* \"#utility.yul\":10020:10027   */\n      dup5\n        /* \"#utility.yul\":10011:10017   */\n      dup3\n        /* \"#utility.yul\":10000:10009   */\n      dup6\n        /* \"#utility.yul\":9996:10018   */\n      add\n        /* \"#utility.yul\":9967:10028   */\n      tag_202\n      jump\t// in\n    tag_319:\n        /* \"#utility.yul\":9957:10028   */\n      swap2\n      pop\n        /* \"#utility.yul\":9913:10038   */\n      pop\n        /* \"#utility.yul\":9700:10045   */\n      swap3\n      swap2\n      pop\n      pop\n      jump\t// out\n        /* \"#utility.yul\":10051:10271   */\n    tag_203:\n        /* \"#utility.yul\":10191:10225   */\n      0x5472616e73666572206661696c65642e20436865636b20616c6c6f77616e6365\n        /* \"#utility.yul\":10187:10188   */\n      0x00\n        /* \"#utility.yul\":10179:10185   */\n      dup3\n        /* \"#utility.yul\":10175:10189   */\n      add\n        /* \"#utility.yul\":10168:10226   */\n      mstore\n        /* \"#utility.yul\":10260:10263   */\n      0x2e00000000000000000000000000000000000000000000000000000000000000\n        /* \"#utility.yul\":10255:10257   */\n      0x20\n        /* \"#utility.yul\":10247:10253   */\n      dup3\n        /* \"#utility.yul\":10243:10258   */\n      add\n        /* \"#utility.yul\":10236:10264   */\n      mstore\n        /* \"#utility.yul\":10051:10271   */\n      pop\n      jump\t// out\n        /* \"#utility.yul\":10277:10643   */\n    tag_204:\n        /* \"#utility.yul\":10419:10422   */\n      0x00\n        /* \"#utility.yul\":10440:10507   */\n      tag_322\n        /* \"#utility.yul\":10504:10506   */\n      0x21\n        /* \"#utility.yul\":10499:10502   */\n      dup4\n        /* \"#utility.yul\":10440:10507   */\n      tag_193\n      jump\t// in\n    tag_322:\n        /* \"#utility.yul\":10433:10507   */\n      swap2\n      pop\n        /* \"#utility.yul\":10516:10609   */\n      tag_323\n        /* \"#utility.yul\":10605:10608   */\n      dup3\n        /* \"#utility.yul\":10516:10609   */\n      tag_203\n      jump\t// in\n    tag_323:\n        /* \"#utility.yul\":10634:10636   */\n      0x40\n        /* \"#utility.yul\":10629:10632   */\n      dup3\n        /* \"#utility.yul\":10625:10637   */\n      add\n        /* \"#utility.yul\":10618:10637   */\n      swap1\n      pop\n        /* \"#utility.yul\":10277:10643   */\n      swap2\n      swap1\n      pop\n      jump\t// out\n        /* \"#utility.yul\":10649:11068   */\n    tag_84:\n        /* \"#utility.yul\":10815:10819   */\n      0x00\n        /* \"#utility.yul\":10853:10855   */\n      0x20\n        /* \"#utility.yul\":10842:10851   */\n      dup3\n        /* \"#utility.yul\":10838:10856   */\n      add\n        /* \"#utility.yul\":10830:10856   */\n      swap1\n      pop\n        /* \"#utility.yul\":10902:10911   */\n      dup2\n        /* \"#utility.yul\":10896:10900   */\n      dup2\n        /* \"#utility.yul\":10892:10912   */\n      sub\n        /* \"#utility.yul\":10888:10889   */\n      0x00\n        /* \"#utility.yul\":10877:10886   */\n      dup4\n        /* \"#utility.yul\":10873:10890   */\n      add\n        /* \"#utility.yul\":10866:10913   */\n      mstore\n        /* \"#utility.yul\":10930:11061   */\n      tag_325\n        /* \"#utility.yul\":11056:11060   */\n      dup2\n        /* \"#utility.yul\":10930:11061   */\n      tag_204\n      jump\t// in\n    tag_325:\n        /* \"#utility.yul\":10922:11061   */\n      swap1\n      pop\n        /* \"#utility.yul\":10649:11068   */\n      swap2\n      swap1\n      pop\n      jump\t// out\n        /* \"#utility.yul\":11074:11254   */\n    tag_205:\n        /* \"#utility.yul\":11122:11199   */\n      0x4e487b7100000000000000000000000000000000000000000000000000000000\n        /* \"#utility.yul\":11119:11120   */\n      0x00\n        /* \"#utility.yul\":11112:11200   */\n      mstore\n        /* \"#utility.yul\":11219:11223   */\n      0x11\n        /* \"#utility.yul\":11216:11217   */\n      0x04\n        /* \"#utility.yul\":11209:11224   */\n      mstore\n        /* \"#utility.yul\":11243:11247   */\n      0x24\n        /* \"#utility.yul\":11240:11241   */\n      0x00\n        /* \"#utility.yul\":11233:11248   */\n      revert\n        /* \"#utility.yul\":11260:11451   */\n    tag_86:\n        /* \"#utility.yul\":11300:11303   */\n      0x00\n        /* \"#utility.yul\":11319:11339   */\n      tag_328\n        /* \"#utility.yul\":11337:11338   */\n      dup3\n        /* \"#utility.yul\":11319:11339   */\n      tag_177\n      jump\t// in\n    tag_328:\n        /* \"#utility.yul\":11314:11339   */\n      swap2\n      pop\n        /* \"#utility.yul\":11353:11373   */\n      tag_329\n        /* \"#utility.yul\":11371:11372   */\n      dup4\n        /* \"#utility.yul\":11353:11373   */\n      tag_177\n      jump\t// in\n    tag_329:\n        /* \"#utility.yul\":11348:11373   */\n      swap3\n      pop\n        /* \"#utility.yul\":11396:11397   */\n      dup3\n        /* \"#utility.yul\":11393:11394   */\n      dup3\n        /* \"#utility.yul\":11389:11398   */\n      add\n        /* \"#utility.yul\":11382:11398   */\n      swap1\n      pop\n        /* \"#utility.yul\":11417:11420   */\n      dup1\n        /* \"#utility.yul\":11414:11415   */\n      dup3\n        /* \"#utility.yul\":11411:11421   */\n      gt\n        /* \"#utility.yul\":11408:11444   */\n      iszero\n      tag_330\n      jumpi\n        /* \"#utility.yul\":11424:11442   */\n      tag_331\n      tag_205\n      jump\t// in\n    tag_331:\n        /* \"#utility.yul\":11408:11444   */\n    tag_330:\n        /* \"#utility.yul\":11260:11451   */\n      swap3\n      swap2\n      pop\n      pop\n      jump\t// out\n        /* \"#utility.yul\":11457:11628   */\n    tag_206:\n        /* \"#utility.yul\":11597:11620   */\n      0x4e6f2073686172657320746f2077697468647261770000000000000000000000\n        /* \"#utility.yul\":11593:11594   */\n      0x00\n        /* \"#utility.yul\":11585:11591   */\n      dup3\n        /* \"#utility.yul\":11581:11595   */\n      add\n        /* \"#utility.yul\":11574:11621   */\n      mstore\n        /* \"#utility.yul\":11457:11628   */\n      pop\n      jump\t// out\n        /* \"#utility.yul\":11634:12000   */\n    tag_207:\n        /* \"#utility.yul\":11776:11779   */\n      0x00\n        /* \"#utility.yul\":11797:11864   */\n      tag_334\n        /* \"#utility.yul\":11861:11863   */\n      0x15\n        /* \"#utility.yul\":11856:11859   */\n      dup4\n        /* \"#utility.yul\":11797:11864   */\n      tag_193\n      jump\t// in\n    tag_334:\n        /* \"#utility.yul\":11790:11864   */\n      swap2\n      pop\n        /* \"#utility.yul\":11873:11966   */\n      tag_335\n        /* \"#utility.yul\":11962:11965   */\n      dup3\n        /* \"#utility.yul\":11873:11966   */\n      tag_206\n      jump\t// in\n    tag_335:\n        /* \"#utility.yul\":11991:11993   */\n      0x20\n        /* \"#utility.yul\":11986:11989   */\n      dup3\n        /* \"#utility.yul\":11982:11994   */\n      add\n        /* \"#utility.yul\":11975:11994   */\n      swap1\n      pop\n        /* \"#utility.yul\":11634:12000   */\n      swap2\n      swap1\n      pop\n      jump\t// out\n        /* \"#utility.yul\":12006:12425   */\n    tag_92:\n        /* \"#utility.yul\":12172:12176   */\n      0x00\n        /* \"#utility.yul\":12210:12212   */\n      0x20\n        /* \"#utility.yul\":12199:12208   */\n      dup3\n        /* \"#utility.yul\":12195:12213   */\n      add\n        /* \"#utility.yul\":12187:12213   */\n      swap1\n      pop\n        /* \"#utility.yul\":12259:12268   */\n      dup2\n        /* \"#utility.yul\":12253:12257   */\n      dup2\n        /* \"#utility.yul\":12249:12269   */\n      sub\n        /* \"#utility.yul\":12245:12246   */\n      0x00\n        /* \"#utility.yul\":12234:12243   */\n      dup4\n        /* \"#utility.yul\":12230:12247   */\n      add\n        /* \"#utility.yul\":12223:12270   */\n      mstore\n        /* \"#utility.yul\":12287:12418   */\n      tag_337\n        /* \"#utility.yul\":12413:12417   */\n      dup2\n        /* \"#utility.yul\":12287:12418   */\n      tag_207\n      jump\t// in\n    tag_337:\n        /* \"#utility.yul\":12279:12418   */\n      swap1\n      pop\n        /* \"#utility.yul\":12006:12425   */\n      swap2\n      swap1\n      pop\n      jump\t// out\n        /* \"#utility.yul\":12431:12841   */\n    tag_94:\n        /* \"#utility.yul\":12471:12478   */\n      0x00\n        /* \"#utility.yul\":12494:12514   */\n      tag_339\n        /* \"#utility.yul\":12512:12513   */\n      dup3\n        /* \"#utility.yul\":12494:12514   */\n      tag_177\n      jump\t// in\n    tag_339:\n        /* \"#utility.yul\":12489:12514   */\n      swap2\n      pop\n        /* \"#utility.yul\":12528:12548   */\n      tag_340\n        /* \"#utility.yul\":12546:12547   */\n      dup4\n        /* \"#utility.yul\":12528:12548   */\n      tag_177\n      jump\t// in\n    tag_340:\n        /* \"#utility.yul\":12523:12548   */\n      swap3\n      pop\n        /* \"#utility.yul\":12583:12584   */\n      dup3\n        /* \"#utility.yul\":12580:12581   */\n      dup3\n        /* \"#utility.yul\":12576:12585   */\n      mul\n        /* \"#utility.yul\":12605:12635   */\n      tag_341\n        /* \"#utility.yul\":12623:12634   */\n      dup2\n        /* \"#utility.yul\":12605:12635   */\n      tag_177\n      jump\t// in\n    tag_341:\n        /* \"#utility.yul\":12594:12635   */\n      swap2\n      pop\n        /* \"#utility.yul\":12784:12785   */\n      dup3\n        /* \"#utility.yul\":12775:12782   */\n      dup3\n        /* \"#utility.yul\":12771:12786   */\n      div\n        /* \"#utility.yul\":12768:12769   */\n      dup5\n        /* \"#utility.yul\":12765:12787   */\n      eq\n        /* \"#utility.yul\":12745:12746   */\n      dup4\n        /* \"#utility.yul\":12738:12747   */\n      iszero\n        /* \"#utility.yul\":12718:12801   */\n      or\n        /* \"#utility.yul\":12695:12834   */\n      tag_342\n      jumpi\n        /* \"#utility.yul\":12814:12832   */\n      tag_343\n      tag_205\n      jump\t// in\n    tag_343:\n        /* \"#utility.yul\":12695:12834   */\n    tag_342:\n        /* \"#utility.yul\":12479:12841   */\n      pop\n        /* \"#utility.yul\":12431:12841   */\n      swap3\n      swap2\n      pop\n      pop\n      jump\t// out\n        /* \"#utility.yul\":12847:13027   */\n    tag_208:\n        /* \"#utility.yul\":12895:12972   */\n      0x4e487b7100000000000000000000000000000000000000000000000000000000\n        /* \"#utility.yul\":12892:12893   */\n      0x00\n        /* \"#utility.yul\":12885:12973   */\n      mstore\n        /* \"#utility.yul\":12992:12996   */\n      0x12\n        /* \"#utility.yul\":12989:12990   */\n      0x04\n        /* \"#utility.yul\":12982:12997   */\n      mstore\n        /* \"#utility.yul\":13016:13020   */\n      0x24\n        /* \"#utility.yul\":13013:13014   */\n      0x00\n        /* \"#utility.yul\":13006:13021   */\n      revert\n        /* \"#utility.yul\":13033:13218   */\n    tag_96:\n        /* \"#utility.yul\":13073:13074   */\n      0x00\n        /* \"#utility.yul\":13090:13110   */\n      tag_346\n        /* \"#utility.yul\":13108:13109   */\n      dup3\n        /* \"#utility.yul\":13090:13110   */\n      tag_177\n      jump\t// in\n    tag_346:\n        /* \"#utility.yul\":13085:13110   */\n      swap2\n      pop\n        /* \"#utility.yul\":13124:13144   */\n      tag_347\n        /* \"#utility.yul\":13142:13143   */\n      dup4\n        /* \"#utility.yul\":13124:13144   */\n      tag_177\n      jump\t// in\n    tag_347:\n        /* \"#utility.yul\":13119:13144   */\n      swap3\n      pop\n        /* \"#utility.yul\":13163:13164   */\n      dup3\n        /* \"#utility.yul\":13153:13188   */\n      tag_348\n      jumpi\n        /* \"#utility.yul\":13168:13186   */\n      tag_349\n      tag_208\n      jump\t// in\n    tag_349:\n        /* \"#utility.yul\":13153:13188   */\n    tag_348:\n        /* \"#utility.yul\":13210:13211   */\n      dup3\n        /* \"#utility.yul\":13207:13208   */\n      dup3\n        /* \"#utility.yul\":13203:13212   */\n      div\n        /* \"#utility.yul\":13198:13212   */\n      swap1\n      pop\n        /* \"#utility.yul\":13033:13218   */\n      swap3\n      swap2\n      pop\n      pop\n      jump\t// out\n        /* \"#utility.yul\":13224:13418   */\n    tag_102:\n        /* \"#utility.yul\":13264:13268   */\n      0x00\n        /* \"#utility.yul\":13284:13304   */\n      tag_351\n        /* \"#utility.yul\":13302:13303   */\n      dup3\n        /* \"#utility.yul\":13284:13304   */\n      tag_177\n      jump\t// in\n    tag_351:\n        /* \"#utility.yul\":13279:13304   */\n      swap2\n      pop\n        /* \"#utility.yul\":13318:13338   */\n      tag_352\n        /* \"#utility.yul\":13336:13337   */\n      dup4\n        /* \"#utility.yul\":13318:13338   */\n      tag_177\n      jump\t// in\n    tag_352:\n        /* \"#utility.yul\":13313:13338   */\n      swap3\n      pop\n        /* \"#utility.yul\":13362:13363   */\n      dup3\n        /* \"#utility.yul\":13359:13360   */\n      dup3\n        /* \"#utility.yul\":13355:13364   */\n      sub\n        /* \"#utility.yul\":13347:13364   */\n      swap1\n      pop\n        /* \"#utility.yul\":13386:13387   */\n      dup2\n        /* \"#utility.yul\":13380:13384   */\n      dup2\n        /* \"#utility.yul\":13377:13388   */\n      gt\n        /* \"#utility.yul\":13374:13411   */\n      iszero\n      tag_353\n      jumpi\n        /* \"#utility.yul\":13391:13409   */\n      tag_354\n      tag_205\n      jump\t// in\n    tag_354:\n        /* \"#utility.yul\":13374:13411   */\n    tag_353:\n        /* \"#utility.yul\":13224:13418   */\n      swap3\n      swap2\n      pop\n      pop\n      jump\t// out\n        /* \"#utility.yul\":13424:13567   */\n    tag_209:\n        /* \"#utility.yul\":13481:13486   */\n      0x00\n        /* \"#utility.yul\":13512:13518   */\n      dup2\n        /* \"#utility.yul\":13506:13519   */\n      mload\n        /* \"#utility.yul\":13497:13519   */\n      swap1\n      pop\n        /* \"#utility.yul\":13528:13561   */\n      tag_356\n        /* \"#utility.yul\":13555:13560   */\n      dup2\n        /* \"#utility.yul\":13528:13561   */\n      tag_189\n      jump\t// in\n    tag_356:\n        /* \"#utility.yul\":13424:13567   */\n      swap3\n      swap2\n      pop\n      pop\n      jump\t// out\n        /* \"#utility.yul\":13573:13924   */\n    tag_110:\n        /* \"#utility.yul\":13643:13649   */\n      0x00\n        /* \"#utility.yul\":13692:13694   */\n      0x20\n        /* \"#utility.yul\":13680:13689   */\n      dup3\n        /* \"#utility.yul\":13671:13678   */\n      dup5\n        /* \"#utility.yul\":13667:13690   */\n      sub\n        /* \"#utility.yul\":13663:13695   */\n      slt\n        /* \"#utility.yul\":13660:13779   */\n      iszero\n      tag_358\n      jumpi\n        /* \"#utility.yul\":13698:13777   */\n      tag_359\n      tag_175\n      jump\t// in\n    tag_359:\n        /* \"#utility.yul\":13660:13779   */\n    tag_358:\n        /* \"#utility.yul\":13818:13819   */\n      0x00\n        /* \"#utility.yul\":13843:13907   */\n      tag_360\n        /* \"#utility.yul\":13899:13906   */\n      dup5\n        /* \"#utility.yul\":13890:13896   */\n      dup3\n        /* \"#utility.yul\":13879:13888   */\n      dup6\n        /* \"#utility.yul\":13875:13897   */\n      add\n        /* \"#utility.yul\":13843:13907   */\n      tag_209\n      jump\t// in\n    tag_360:\n        /* \"#utility.yul\":13833:13907   */\n      swap2\n      pop\n        /* \"#utility.yul\":13789:13917   */\n      pop\n        /* \"#utility.yul\":13573:13924   */\n      swap3\n      swap2\n      pop\n      pop\n      jump\t// out\n        /* \"#utility.yul\":13930:14262   */\n    tag_112:\n        /* \"#utility.yul\":14051:14055   */\n      0x00\n        /* \"#utility.yul\":14089:14091   */\n      0x40\n        /* \"#utility.yul\":14078:14087   */\n      dup3\n        /* \"#utility.yul\":14074:14092   */\n      add\n        /* \"#utility.yul\":14066:14092   */\n      swap1\n      pop\n        /* \"#utility.yul\":14102:14173   */\n      tag_362\n        /* \"#utility.yul\":14170:14171   */\n      0x00\n        /* \"#utility.yul\":14159:14168   */\n      dup4\n        /* \"#utility.yul\":14155:14172   */\n      add\n        /* \"#utility.yul\":14146:14152   */\n      dup6\n        /* \"#utility.yul\":14102:14173   */\n      tag_188\n      jump\t// in\n    tag_362:\n        /* \"#utility.yul\":14183:14255   */\n      tag_363\n        /* \"#utility.yul\":14251:14253   */\n      0x20\n        /* \"#utility.yul\":14240:14249   */\n      dup4\n        /* \"#utility.yul\":14236:14254   */\n      add\n        /* \"#utility.yul\":14227:14233   */\n      dup5\n        /* \"#utility.yul\":14183:14255   */\n      tag_186\n      jump\t// in\n    tag_363:\n        /* \"#utility.yul\":13930:14262   */\n      swap4\n      swap3\n      pop\n      pop\n      pop\n      jump\t// out\n        /* \"#utility.yul\":14268:14488   */\n    tag_210:\n        /* \"#utility.yul\":14408:14442   */\n      0x506f73744e4654204f776e657220666565207472616e73666572206661696c65\n        /* \"#utility.yul\":14404:14405   */\n      0x00\n        /* \"#utility.yul\":14396:14402   */\n      dup3\n        /* \"#utility.yul\":14392:14406   */\n      add\n        /* \"#utility.yul\":14385:14443   */\n      mstore\n        /* \"#utility.yul\":14477:14480   */\n      0x6400000000000000000000000000000000000000000000000000000000000000\n        /* \"#utility.yul\":14472:14474   */\n      0x20\n        /* \"#utility.yul\":14464:14470   */\n      dup3\n        /* \"#utility.yul\":14460:14475   */\n      add\n        /* \"#utility.yul\":14453:14481   */\n      mstore\n        /* \"#utility.yul\":14268:14488   */\n      pop\n      jump\t// out\n        /* \"#utility.yul\":14494:14860   */\n    tag_211:\n        /* \"#utility.yul\":14636:14639   */\n      0x00\n        /* \"#utility.yul\":14657:14724   */\n      tag_366\n        /* \"#utility.yul\":14721:14723   */\n      0x21\n        /* \"#utility.yul\":14716:14719   */\n      dup4\n        /* \"#utility.yul\":14657:14724   */\n      tag_193\n      jump\t// in\n    tag_366:\n        /* \"#utility.yul\":14650:14724   */\n      swap2\n      pop\n        /* \"#utility.yul\":14733:14826   */\n      tag_367\n        /* \"#utility.yul\":14822:14825   */\n      dup3\n        /* \"#utility.yul\":14733:14826   */\n      tag_210\n      jump\t// in\n    tag_367:\n        /* \"#utility.yul\":14851:14853   */\n      0x40\n        /* \"#utility.yul\":14846:14849   */\n      dup3\n        /* \"#utility.yul\":14842:14854   */\n      add\n        /* \"#utility.yul\":14835:14854   */\n      swap1\n      pop\n        /* \"#utility.yul\":14494:14860   */\n      swap2\n      swap1\n      pop\n      jump\t// out\n        /* \"#utility.yul\":14866:15285   */\n    tag_118:\n        /* \"#utility.yul\":15032:15036   */\n      0x00\n        /* \"#utility.yul\":15070:15072   */\n      0x20\n        /* \"#utility.yul\":15059:15068   */\n      dup3\n        /* \"#utility.yul\":15055:15073   */\n      add\n        /* \"#utility.yul\":15047:15073   */\n      swap1\n      pop\n        /* \"#utility.yul\":15119:15128   */\n      dup2\n        /* \"#utility.yul\":15113:15117   */\n      dup2\n        /* \"#utility.yul\":15109:15129   */\n      sub\n        /* \"#utility.yul\":15105:15106   */\n      0x00\n        /* \"#utility.yul\":15094:15103   */\n      dup4\n        /* \"#utility.yul\":15090:15107   */\n      add\n        /* \"#utility.yul\":15083:15130   */\n      mstore\n        /* \"#utility.yul\":15147:15278   */\n      tag_369\n        /* \"#utility.yul\":15273:15277   */\n      dup2\n        /* \"#utility.yul\":15147:15278   */\n      tag_211\n      jump\t// in\n    tag_369:\n        /* \"#utility.yul\":15139:15278   */\n      swap1\n      pop\n        /* \"#utility.yul\":14866:15285   */\n      swap2\n      swap1\n      pop\n      jump\t// out\n        /* \"#utility.yul\":15291:15512   */\n    tag_212:\n        /* \"#utility.yul\":15431:15465   */\n      0x436f6e7472616374204f776e657220666565207472616e73666572206661696c\n        /* \"#utility.yul\":15427:15428   */\n      0x00\n        /* \"#utility.yul\":15419:15425   */\n      dup3\n        /* \"#utility.yul\":15415:15429   */\n      add\n        /* \"#utility.yul\":15408:15466   */\n      mstore\n        /* \"#utility.yul\":15500:15504   */\n      0x6564000000000000000000000000000000000000000000000000000000000000\n        /* \"#utility.yul\":15495:15497   */\n      0x20\n        /* \"#utility.yul\":15487:15493   */\n      dup3\n        /* \"#utility.yul\":15483:15498   */\n      add\n        /* \"#utility.yul\":15476:15505   */\n      mstore\n        /* \"#utility.yul\":15291:15512   */\n      pop\n      jump\t// out\n        /* \"#utility.yul\":15518:15884   */\n    tag_213:\n        /* \"#utility.yul\":15660:15663   */\n      0x00\n        /* \"#utility.yul\":15681:15748   */\n      tag_372\n        /* \"#utility.yul\":15745:15747   */\n      0x22\n        /* \"#utility.yul\":15740:15743   */\n      dup4\n        /* \"#utility.yul\":15681:15748   */\n      tag_193\n      jump\t// in\n    tag_372:\n        /* \"#utility.yul\":15674:15748   */\n      swap2\n      pop\n        /* \"#utility.yul\":15757:15850   */\n      tag_373\n        /* \"#utility.yul\":15846:15849   */\n      dup3\n        /* \"#utility.yul\":15757:15850   */\n      tag_212\n      jump\t// in\n    tag_373:\n        /* \"#utility.yul\":15875:15877   */\n      0x40\n        /* \"#utility.yul\":15870:15873   */\n      dup3\n        /* \"#utility.yul\":15866:15878   */\n      add\n        /* \"#utility.yul\":15859:15878   */\n      swap1\n      pop\n        /* \"#utility.yul\":15518:15884   */\n      swap2\n      swap1\n      pop\n      jump\t// out\n        /* \"#utility.yul\":15890:16309   */\n    tag_126:\n        /* \"#utility.yul\":16056:16060   */\n      0x00\n        /* \"#utility.yul\":16094:16096   */\n      0x20\n        /* \"#utility.yul\":16083:16092   */\n      dup3\n        /* \"#utility.yul\":16079:16097   */\n      add\n        /* \"#utility.yul\":16071:16097   */\n      swap1\n      pop\n        /* \"#utility.yul\":16143:16152   */\n      dup2\n        /* \"#utility.yul\":16137:16141   */\n      dup2\n        /* \"#utility.yul\":16133:16153   */\n      sub\n        /* \"#utility.yul\":16129:16130   */\n      0x00\n        /* \"#utility.yul\":16118:16127   */\n      dup4\n        /* \"#utility.yul\":16114:16131   */\n      add\n        /* \"#utility.yul\":16107:16154   */\n      mstore\n        /* \"#utility.yul\":16171:16302   */\n      tag_375\n        /* \"#utility.yul\":16297:16301   */\n      dup2\n        /* \"#utility.yul\":16171:16302   */\n      tag_213\n      jump\t// in\n    tag_375:\n        /* \"#utility.yul\":16163:16302   */\n      swap1\n      pop\n        /* \"#utility.yul\":15890:16309   */\n      swap2\n      swap1\n      pop\n      jump\t// out\n        /* \"#utility.yul\":16315:16480   */\n    tag_214:\n        /* \"#utility.yul\":16455:16472   */\n      0x5472616e73666572206661696c65640000000000000000000000000000000000\n        /* \"#utility.yul\":16451:16452   */\n      0x00\n        /* \"#utility.yul\":16443:16449   */\n      dup3\n        /* \"#utility.yul\":16439:16453   */\n      add\n        /* \"#utility.yul\":16432:16473   */\n      mstore\n        /* \"#utility.yul\":16315:16480   */\n      pop\n      jump\t// out\n        /* \"#utility.yul\":16486:16852   */\n    tag_215:\n        /* \"#utility.yul\":16628:16631   */\n      0x00\n        /* \"#utility.yul\":16649:16716   */\n      tag_378\n        /* \"#utility.yul\":16713:16715   */\n      0x0f\n        /* \"#utility.yul\":16708:16711   */\n      dup4\n        /* \"#utility.yul\":16649:16716   */\n      tag_193\n      jump\t// in\n    tag_378:\n        /* \"#utility.yul\":16642:16716   */\n      swap2\n      pop\n        /* \"#utility.yul\":16725:16818   */\n      tag_379\n        /* \"#utility.yul\":16814:16817   */\n      dup3\n        /* \"#utility.yul\":16725:16818   */\n      tag_214\n      jump\t// in\n    tag_379:\n        /* \"#utility.yul\":16843:16845   */\n      0x20\n        /* \"#utility.yul\":16838:16841   */\n      dup3\n        /* \"#utility.yul\":16834:16846   */\n      add\n        /* \"#utility.yul\":16827:16846   */\n      swap1\n      pop\n        /* \"#utility.yul\":16486:16852   */\n      swap2\n      swap1\n      pop\n      jump\t// out\n        /* \"#utility.yul\":16858:17277   */\n    tag_133:\n        /* \"#utility.yul\":17024:17028   */\n      0x00\n        /* \"#utility.yul\":17062:17064   */\n      0x20\n        /* \"#utility.yul\":17051:17060   */\n      dup3\n        /* \"#utility.yul\":17047:17065   */\n      add\n        /* \"#utility.yul\":17039:17065   */\n      swap1\n      pop\n        /* \"#utility.yul\":17111:17120   */\n      dup2\n        /* \"#utility.yul\":17105:17109   */\n      dup2\n        /* \"#utility.yul\":17101:17121   */\n      sub\n        /* \"#utility.yul\":17097:17098   */\n      0x00\n        /* \"#utility.yul\":17086:17095   */\n      dup4\n        /* \"#utility.yul\":17082:17099   */\n      add\n        /* \"#utility.yul\":17075:17122   */\n      mstore\n        /* \"#utility.yul\":17139:17270   */\n      tag_381\n        /* \"#utility.yul\":17265:17269   */\n      dup2\n        /* \"#utility.yul\":17139:17270   */\n      tag_215\n      jump\t// in\n    tag_381:\n        /* \"#utility.yul\":17131:17270   */\n      swap1\n      pop\n        /* \"#utility.yul\":16858:17277   */\n      swap2\n      swap1\n      pop\n      jump\t// out\n        /* \"#utility.yul\":17283:17463   */\n    tag_216:\n        /* \"#utility.yul\":17423:17455   */\n      0x506f6f6c20686173206e6f74206265656e20696e697469616c697a65642e0000\n        /* \"#utility.yul\":17419:17420   */\n      0x00\n        /* \"#utility.yul\":17411:17417   */\n      dup3\n        /* \"#utility.yul\":17407:17421   */\n      add\n        /* \"#utility.yul\":17400:17456   */\n      mstore\n        /* \"#utility.yul\":17283:17463   */\n      pop\n      jump\t// out\n        /* \"#utility.yul\":17469:17835   */\n    tag_217:\n        /* \"#utility.yul\":17611:17614   */\n      0x00\n        /* \"#utility.yul\":17632:17699   */\n      tag_384\n        /* \"#utility.yul\":17696:17698   */\n      0x1e\n        /* \"#utility.yul\":17691:17694   */\n      dup4\n        /* \"#utility.yul\":17632:17699   */\n      tag_193\n      jump\t// in\n    tag_384:\n        /* \"#utility.yul\":17625:17699   */\n      swap2\n      pop\n        /* \"#utility.yul\":17708:17801   */\n      tag_385\n        /* \"#utility.yul\":17797:17800   */\n      dup3\n        /* \"#utility.yul\":17708:17801   */\n      tag_216\n      jump\t// in\n    tag_385:\n        /* \"#utility.yul\":17826:17828   */\n      0x20\n        /* \"#utility.yul\":17821:17824   */\n      dup3\n        /* \"#utility.yul\":17817:17829   */\n      add\n        /* \"#utility.yul\":17810:17829   */\n      swap1\n      pop\n        /* \"#utility.yul\":17469:17835   */\n      swap2\n      swap1\n      pop\n      jump\t// out\n        /* \"#utility.yul\":17841:18260   */\n    tag_147:\n        /* \"#utility.yul\":18007:18011   */\n      0x00\n        /* \"#utility.yul\":18045:18047   */\n      0x20\n        /* \"#utility.yul\":18034:18043   */\n      dup3\n        /* \"#utility.yul\":18030:18048   */\n      add\n        /* \"#utility.yul\":18022:18048   */\n      swap1\n      pop\n        /* \"#utility.yul\":18094:18103   */\n      dup2\n        /* \"#utility.yul\":18088:18092   */\n      dup2\n        /* \"#utility.yul\":18084:18104   */\n      sub\n        /* \"#utility.yul\":18080:18081   */\n      0x00\n        /* \"#utility.yul\":18069:18078   */\n      dup4\n        /* \"#utility.yul\":18065:18082   */\n      add\n        /* \"#utility.yul\":18058:18105   */\n      mstore\n        /* \"#utility.yul\":18122:18253   */\n      tag_387\n        /* \"#utility.yul\":18248:18252   */\n      dup2\n        /* \"#utility.yul\":18122:18253   */\n      tag_217\n      jump\t// in\n    tag_387:\n        /* \"#utility.yul\":18114:18253   */\n      swap1\n      pop\n        /* \"#utility.yul\":17841:18260   */\n      swap2\n      swap1\n      pop\n      jump\t// out\n\n    auxdata: 0xa2646970667358221220506fc3512e9f07b609ca3db963b6ada141a050c6356efe3bb2f15c0a178f82a364736f6c63430008180033\n}\n",
				"bytecode": {
					"linkReferences": {},
					"object": "60806040526003805560026004553480156200001a57600080fd5b5060405162001afe38038062001afe833981810160405281019062000040919062000280565b33600073ffffffffffffffffffffffffffffffffffffffff168173ffffffffffffffffffffffffffffffffffffffff1603620000b65760006040517f1e4fbdf7000000000000000000000000000000000000000000000000000000008152600401620000ad9190620002d8565b60405180910390fd5b620000c7816200015260201b60201c565b5081600160006101000a81548173ffffffffffffffffffffffffffffffffffffffff021916908373ffffffffffffffffffffffffffffffffffffffff16021790555080600260006101000a81548173ffffffffffffffffffffffffffffffffffffffff021916908373ffffffffffffffffffffffffffffffffffffffff1602179055505050620002f5565b60008060009054906101000a900473ffffffffffffffffffffffffffffffffffffffff169050816000806101000a81548173ffffffffffffffffffffffffffffffffffffffff021916908373ffffffffffffffffffffffffffffffffffffffff1602179055508173ffffffffffffffffffffffffffffffffffffffff168173ffffffffffffffffffffffffffffffffffffffff167f8be0079c531659141344cd1fd0a4f28419497f9722a3daafe3b4186f6b6457e060405160405180910390a35050565b600080fd5b600073ffffffffffffffffffffffffffffffffffffffff82169050919050565b600062000248826200021b565b9050919050565b6200025a816200023b565b81146200026657600080fd5b50565b6000815190506200027a816200024f565b92915050565b600080604083850312156200029a576200029962000216565b5b6000620002aa8582860162000269565b9250506020620002bd8582860162000269565b9150509250929050565b620002d2816200023b565b82525050565b6000602082019050620002ef6000830184620002c7565b92915050565b6117f980620003056000396000f3fe608060405234801561001057600080fd5b50600436106100b35760003560e01c8063a466f54211610071578063a466f54214610154578063c8c85bad14610184578063d56d229d146101b5578063eea04d09146101d3578063f2bc2a6214610203578063f2fde38b14610221576100b3565b8062aeef8a146100b8578063127e2b15146100d457806321bfa2fa146100f2578063441a3e7014610110578063715018a61461012c5780638da5cb5b14610136575b600080fd5b6100d260048036038101906100cd9190610e90565b61023d565b005b6100dc6104eb565b6040516100e99190610f62565b60405180910390f35b6100fa610511565b6040516101079190610f8c565b60405180910390f35b61012a60048036038101906101259190610fa7565b610517565b005b610134610a0f565b005b61013e610a23565b60405161014b9190611008565b60405180910390f35b61016e6004803603810190610169919061104f565b610a4c565b60405161017b9190610f8c565b60405180910390f35b61019e60048036038101906101999190610fa7565b610aca565b6040516101ac9291906110a2565b60405180910390f35b6101bd610b14565b6040516101ca91906110ec565b60405180910390f35b6101ed60048036038101906101e89190610e90565b610b3a565b6040516101fa9190610f8c565b60405180910390f35b61020b610c76565b6040516102189190610f8c565b60405180910390f35b61023b60048036038101906102369190611107565b610c7c565b005b60008111610280576040517f08c379a000000000000000000000000000000000000000000000000000000000815260040161027790611191565b60405180910390fd5b6000600560008581526020019081526020016000209050600081600001600085815260200190815260200160002090506000816002015411806102c7575060008160010154145b610306576040517f08c379a00000000000000000000000000000000000000000000000000000000081526004016102fd906111fd565b60405180910390fd5b600081600101540361031c574381600201819055505b6000610329868686610b3a565b90506000811161036e576040517f08c379a000000000000000000000000000000000000000000000000000000000815260040161036590611269565b60405180910390fd5b6000600160009054906101000a900473ffffffffffffffffffffffffffffffffffffffff1673ffffffffffffffffffffffffffffffffffffffff166323b872dd3330886040518463ffffffff1660e01b81526004016103cf93929190611289565b6020604051808303816000875af11580156103ee573d6000803e3d6000fd5b505050506040513d601f19601f8201168201806040525081019061041291906112f8565b905080610454576040517f08c379a000000000000000000000000000000000000000000000000000000000815260040161044b90611397565b60405180910390fd5b8483600101600082825461046891906113e6565b92505081905550818360030160003373ffffffffffffffffffffffffffffffffffffffff1673ffffffffffffffffffffffffffffffffffffffff16815260200190815260200160002060008282546104c091906113e6565b92505081905550818360000160008282546104db91906113e6565b9250508190555050505050505050565b600160009054906101000a900473ffffffffffffffffffffffffffffffffffffffff1681565b60045481565b60006005600084815260200190815260200160002090506000816000016000848152602001908152602001600020905060008160030160003373ffffffffffffffffffffffffffffffffffffffff1673ffffffffffffffffffffffffffffffffffffffff168152602001908152602001600020549050600081116105d0576040517f08c379a00000000000000000000000000000000000000000000000000000000081526004016105c790611466565b60405180910390fd5b600082600001548284600101546105e79190611486565b6105f191906114f7565b905060006064600354836106059190611486565b61060f91906114f7565b905060006064600454846106239190611486565b61062d91906114f7565b9050600081838561063e9190611528565b6106489190611528565b90508386600101600082825461065e9190611528565b92505081905550848660000160008282546106799190611528565b925050819055508560030160003373ffffffffffffffffffffffffffffffffffffffff1673ffffffffffffffffffffffffffffffffffffffff16815260200190815260200160002060009055600160009054906101000a900473ffffffffffffffffffffffffffffffffffffffff1673ffffffffffffffffffffffffffffffffffffffff1663a9059cbb600260009054906101000a900473ffffffffffffffffffffffffffffffffffffffff1673ffffffffffffffffffffffffffffffffffffffff16636352211e8c6040518263ffffffff1660e01b815260040161075e9190610f8c565b602060405180830381865afa15801561077b573d6000803e3d6000fd5b505050506040513d601f19601f8201168201806040525081019061079f9190611571565b856040518363ffffffff1660e01b81526004016107bd92919061159e565b6020604051808303816000875af11580156107dc573d6000803e3d6000fd5b505050506040513d601f19601f8201168201806040525081019061080091906112f8565b61083f576040517f08c379a000000000000000000000000000000000000000000000000000000000815260040161083690611639565b60405180910390fd5b600160009054906101000a900473ffffffffffffffffffffffffffffffffffffffff1673ffffffffffffffffffffffffffffffffffffffff1663a9059cbb610885610a23565b846040518363ffffffff1660e01b81526004016108a392919061159e565b6020604051808303816000875af11580156108c2573d6000803e3d6000fd5b505050506040513d601f19601f820116820180604052508101906108e691906112f8565b610925576040517f08c379a000000000000000000000000000000000000000000000000000000000815260040161091c906116cb565b60405180910390fd5b600160009054906101000a900473ffffffffffffffffffffffffffffffffffffffff1673ffffffffffffffffffffffffffffffffffffffff1663a9059cbb33836040518363ffffffff1660e01b815260040161098292919061159e565b6020604051808303816000875af11580156109a1573d6000803e3d6000fd5b505050506040513d601f19601f820116820180604052508101906109c591906112f8565b610a04576040517f08c379a00000000000000000000000000000000000000000000000000000000081526004016109fb90611737565b60405180910390fd5b505050505050505050565b610a17610d02565b610a216000610d89565b565b60008060009054906101000a900473ffffffffffffffffffffffffffffffffffffffff16905090565b600080600560008681526020019081526020016000209050600081600001600086815260200190815260200160002090508060030160008573ffffffffffffffffffffffffffffffffffffffff1673ffffffffffffffffffffffffffffffffffffffff16815260200190815260200160002054925050509392505050565b600080600060056000868152602001908152602001600020905060008160000160008681526020019081526020016000209050806000015481600101549350935050509250929050565b600260009054906101000a900473ffffffffffffffffffffffffffffffffffffffff1681565b60008060056000868152602001908152602001600020905060008160000160008681526020019081526020016000209050600081600201541180610b82575060008160010154145b610bc1576040517f08c379a0000000000000000000000000000000000000000000000000000000008152600401610bb8906117a3565b60405180910390fd5b6000816002015443610bd39190611528565b90506000603c905060008183610be991906114f7565b905060006103e888610bfb9190611486565b905060006001905060005b83811015610c55576000600a600985610c1f9190611486565b610c2991906114f7565b905082811015610c4457829950505050505050505050610c6f565b809350508080600101915050610c06565b50808211610c635780610c65565b815b9750505050505050505b9392505050565b60035481565b610c84610d02565b600073ffffffffffffffffffffffffffffffffffffffff168173ffffffffffffffffffffffffffffffffffffffff1603610cf65760006040517f1e4fbdf7000000000000000000000000000000000000000000000000000000008152600401610ced9190611008565b60405180910390fd5b610cff81610d89565b50565b610d0a610e4d565b73ffffffffffffffffffffffffffffffffffffffff16610d28610a23565b73ffffffffffffffffffffffffffffffffffffffff1614610d8757610d4b610e4d565b6040517f118cdaa7000000000000000000000000000000000000000000000000000000008152600401610d7e9190611008565b60405180910390fd5b565b60008060009054906101000a900473ffffffffffffffffffffffffffffffffffffffff169050816000806101000a81548173ffffffffffffffffffffffffffffffffffffffff021916908373ffffffffffffffffffffffffffffffffffffffff1602179055508173ffffffffffffffffffffffffffffffffffffffff168173ffffffffffffffffffffffffffffffffffffffff167f8be0079c531659141344cd1fd0a4f28419497f9722a3daafe3b4186f6b6457e060405160405180910390a35050565b600033905090565b600080fd5b6000819050919050565b610e6d81610e5a565b8114610e7857600080fd5b50565b600081359050610e8a81610e64565b92915050565b600080600060608486031215610ea957610ea8610e55565b5b6000610eb786828701610e7b565b9350506020610ec886828701610e7b565b9250506040610ed986828701610e7b565b9150509250925092565b600073ffffffffffffffffffffffffffffffffffffffff82169050919050565b6000819050919050565b6000610f28610f23610f1e84610ee3565b610f03565b610ee3565b9050919050565b6000610f3a82610f0d565b9050919050565b6000610f4c82610f2f565b9050919050565b610f5c81610f41565b82525050565b6000602082019050610f776000830184610f53565b92915050565b610f8681610e5a565b82525050565b6000602082019050610fa16000830184610f7d565b92915050565b60008060408385031215610fbe57610fbd610e55565b5b6000610fcc85828601610e7b565b9250506020610fdd85828601610e7b565b9150509250929050565b6000610ff282610ee3565b9050919050565b61100281610fe7565b82525050565b600060208201905061101d6000830184610ff9565b92915050565b61102c81610fe7565b811461103757600080fd5b50565b60008135905061104981611023565b92915050565b60008060006060848603121561106857611067610e55565b5b600061107686828701610e7b565b935050602061108786828701610e7b565b92505060406110988682870161103a565b9150509250925092565b60006040820190506110b76000830185610f7d565b6110c46020830184610f7d565b9392505050565b60006110d682610f2f565b9050919050565b6110e6816110cb565b82525050565b600060208201905061110160008301846110dd565b92915050565b60006020828403121561111d5761111c610e55565b5b600061112b8482850161103a565b91505092915050565b600082825260208201905092915050565b7f416d6f756e74206d75737420626520706f736974697665000000000000000000600082015250565b600061117b601783611134565b915061118682611145565b602082019050919050565b600060208201905081810360008301526111aa8161116e565b9050919050565b7f506f6f6c20646f6573206e6f742065786973742e000000000000000000000000600082015250565b60006111e7601483611134565b91506111f2826111b1565b602082019050919050565b60006020820190508181036000830152611216816111da565b9050919050565b7f5368617265732063616c63756c6174696f6e206572726f722e00000000000000600082015250565b6000611253601983611134565b915061125e8261121d565b602082019050919050565b6000602082019050818103600083015261128281611246565b9050919050565b600060608201905061129e6000830186610ff9565b6112ab6020830185610ff9565b6112b86040830184610f7d565b949350505050565b60008115159050919050565b6112d5816112c0565b81146112e057600080fd5b50565b6000815190506112f2816112cc565b92915050565b60006020828403121561130e5761130d610e55565b5b600061131c848285016112e3565b91505092915050565b7f5472616e73666572206661696c65642e20436865636b20616c6c6f77616e636560008201527f2e00000000000000000000000000000000000000000000000000000000000000602082015250565b6000611381602183611134565b915061138c82611325565b604082019050919050565b600060208201905081810360008301526113b081611374565b9050919050565b7f4e487b7100000000000000000000000000000000000000000000000000000000600052601160045260246000fd5b60006113f182610e5a565b91506113fc83610e5a565b9250828201905080821115611414576114136113b7565b5b92915050565b7f4e6f2073686172657320746f2077697468647261770000000000000000000000600082015250565b6000611450601583611134565b915061145b8261141a565b602082019050919050565b6000602082019050818103600083015261147f81611443565b9050919050565b600061149182610e5a565b915061149c83610e5a565b92508282026114aa81610e5a565b915082820484148315176114c1576114c06113b7565b5b5092915050565b7f4e487b7100000000000000000000000000000000000000000000000000000000600052601260045260246000fd5b600061150282610e5a565b915061150d83610e5a565b92508261151d5761151c6114c8565b5b828204905092915050565b600061153382610e5a565b915061153e83610e5a565b9250828203905081811115611556576115556113b7565b5b92915050565b60008151905061156b81611023565b92915050565b60006020828403121561158757611586610e55565b5b60006115958482850161155c565b91505092915050565b60006040820190506115b36000830185610ff9565b6115c06020830184610f7d565b9392505050565b7f506f73744e4654204f776e657220666565207472616e73666572206661696c6560008201527f6400000000000000000000000000000000000000000000000000000000000000602082015250565b6000611623602183611134565b915061162e826115c7565b604082019050919050565b6000602082019050818103600083015261165281611616565b9050919050565b7f436f6e7472616374204f776e657220666565207472616e73666572206661696c60008201527f6564000000000000000000000000000000000000000000000000000000000000602082015250565b60006116b5602283611134565b91506116c082611659565b604082019050919050565b600060208201905081810360008301526116e4816116a8565b9050919050565b7f5472616e73666572206661696c65640000000000000000000000000000000000600082015250565b6000611721600f83611134565b915061172c826116eb565b602082019050919050565b6000602082019050818103600083015261175081611714565b9050919050565b7f506f6f6c20686173206e6f74206265656e20696e697469616c697a65642e0000600082015250565b600061178d601e83611134565b915061179882611757565b602082019050919050565b600060208201905081810360008301526117bc81611780565b905091905056fea2646970667358221220506fc3512e9f07b609ca3db963b6ada141a050c6356efe3bb2f15c0a178f82a364736f6c63430008180033",
					"opcodes": "PUSH1 0x80 PUSH1 0x40 MSTORE PUSH1 0x3 DUP1 SSTORE PUSH1 0x2 PUSH1 0x4 SSTORE CALLVALUE DUP1 ISZERO PUSH3 0x1A JUMPI PUSH1 0x0 DUP1 REVERT JUMPDEST POP PUSH1 0x40 MLOAD PUSH3 0x1AFE CODESIZE SUB DUP1 PUSH3 0x1AFE DUP4 CODECOPY DUP2 DUP2 ADD PUSH1 0x40 MSTORE DUP2 ADD SWAP1 PUSH3 0x40 SWAP2 SWAP1 PUSH3 0x280 JUMP JUMPDEST CALLER PUSH1 0x0 PUSH20 0xFFFFFFFFFFFFFFFFFFFFFFFFFFFFFFFFFFFFFFFF AND DUP2 PUSH20 0xFFFFFFFFFFFFFFFFFFFFFFFFFFFFFFFFFFFFFFFF AND SUB PUSH3 0xB6 JUMPI PUSH1 0x0 PUSH1 0x40 MLOAD PUSH32 0x1E4FBDF700000000000000000000000000000000000000000000000000000000 DUP2 MSTORE PUSH1 0x4 ADD PUSH3 0xAD SWAP2 SWAP1 PUSH3 0x2D8 JUMP JUMPDEST PUSH1 0x40 MLOAD DUP1 SWAP2 SUB SWAP1 REVERT JUMPDEST PUSH3 0xC7 DUP2 PUSH3 0x152 PUSH1 0x20 SHL PUSH1 0x20 SHR JUMP JUMPDEST POP DUP2 PUSH1 0x1 PUSH1 0x0 PUSH2 0x100 EXP DUP2 SLOAD DUP2 PUSH20 0xFFFFFFFFFFFFFFFFFFFFFFFFFFFFFFFFFFFFFFFF MUL NOT AND SWAP1 DUP4 PUSH20 0xFFFFFFFFFFFFFFFFFFFFFFFFFFFFFFFFFFFFFFFF AND MUL OR SWAP1 SSTORE POP DUP1 PUSH1 0x2 PUSH1 0x0 PUSH2 0x100 EXP DUP2 SLOAD DUP2 PUSH20 0xFFFFFFFFFFFFFFFFFFFFFFFFFFFFFFFFFFFFFFFF MUL NOT AND SWAP1 DUP4 PUSH20 0xFFFFFFFFFFFFFFFFFFFFFFFFFFFFFFFFFFFFFFFF AND MUL OR SWAP1 SSTORE POP POP POP PUSH3 0x2F5 JUMP JUMPDEST PUSH1 0x0 DUP1 PUSH1 0x0 SWAP1 SLOAD SWAP1 PUSH2 0x100 EXP SWAP1 DIV PUSH20 0xFFFFFFFFFFFFFFFFFFFFFFFFFFFFFFFFFFFFFFFF AND SWAP1 POP DUP2 PUSH1 0x0 DUP1 PUSH2 0x100 EXP DUP2 SLOAD DUP2 PUSH20 0xFFFFFFFFFFFFFFFFFFFFFFFFFFFFFFFFFFFFFFFF MUL NOT AND SWAP1 DUP4 PUSH20 0xFFFFFFFFFFFFFFFFFFFFFFFFFFFFFFFFFFFFFFFF AND MUL OR SWAP1 SSTORE POP DUP2 PUSH20 0xFFFFFFFFFFFFFFFFFFFFFFFFFFFFFFFFFFFFFFFF AND DUP2 PUSH20 0xFFFFFFFFFFFFFFFFFFFFFFFFFFFFFFFFFFFFFFFF AND PUSH32 0x8BE0079C531659141344CD1FD0A4F28419497F9722A3DAAFE3B4186F6B6457E0 PUSH1 0x40 MLOAD PUSH1 0x40 MLOAD DUP1 SWAP2 SUB SWAP1 LOG3 POP POP JUMP JUMPDEST PUSH1 0x0 DUP1 REVERT JUMPDEST PUSH1 0x0 PUSH20 0xFFFFFFFFFFFFFFFFFFFFFFFFFFFFFFFFFFFFFFFF DUP3 AND SWAP1 POP SWAP2 SWAP1 POP JUMP JUMPDEST PUSH1 0x0 PUSH3 0x248 DUP3 PUSH3 0x21B JUMP JUMPDEST SWAP1 POP SWAP2 SWAP1 POP JUMP JUMPDEST PUSH3 0x25A DUP2 PUSH3 0x23B JUMP JUMPDEST DUP2 EQ PUSH3 0x266 JUMPI PUSH1 0x0 DUP1 REVERT JUMPDEST POP JUMP JUMPDEST PUSH1 0x0 DUP2 MLOAD SWAP1 POP PUSH3 0x27A DUP2 PUSH3 0x24F JUMP JUMPDEST SWAP3 SWAP2 POP POP JUMP JUMPDEST PUSH1 0x0 DUP1 PUSH1 0x40 DUP4 DUP6 SUB SLT ISZERO PUSH3 0x29A JUMPI PUSH3 0x299 PUSH3 0x216 JUMP JUMPDEST JUMPDEST PUSH1 0x0 PUSH3 0x2AA DUP6 DUP3 DUP7 ADD PUSH3 0x269 JUMP JUMPDEST SWAP3 POP POP PUSH1 0x20 PUSH3 0x2BD DUP6 DUP3 DUP7 ADD PUSH3 0x269 JUMP JUMPDEST SWAP2 POP POP SWAP3 POP SWAP3 SWAP1 POP JUMP JUMPDEST PUSH3 0x2D2 DUP2 PUSH3 0x23B JUMP JUMPDEST DUP3 MSTORE POP POP JUMP JUMPDEST PUSH1 0x0 PUSH1 0x20 DUP3 ADD SWAP1 POP PUSH3 0x2EF PUSH1 0x0 DUP4 ADD DUP5 PUSH3 0x2C7 JUMP JUMPDEST SWAP3 SWAP2 POP POP JUMP JUMPDEST PUSH2 0x17F9 DUP1 PUSH3 0x305 PUSH1 0x0 CODECOPY PUSH1 0x0 RETURN INVALID PUSH1 0x80 PUSH1 0x40 MSTORE CALLVALUE DUP1 ISZERO PUSH2 0x10 JUMPI PUSH1 0x0 DUP1 REVERT JUMPDEST POP PUSH1 0x4 CALLDATASIZE LT PUSH2 0xB3 JUMPI PUSH1 0x0 CALLDATALOAD PUSH1 0xE0 SHR DUP1 PUSH4 0xA466F542 GT PUSH2 0x71 JUMPI DUP1 PUSH4 0xA466F542 EQ PUSH2 0x154 JUMPI DUP1 PUSH4 0xC8C85BAD EQ PUSH2 0x184 JUMPI DUP1 PUSH4 0xD56D229D EQ PUSH2 0x1B5 JUMPI DUP1 PUSH4 0xEEA04D09 EQ PUSH2 0x1D3 JUMPI DUP1 PUSH4 0xF2BC2A62 EQ PUSH2 0x203 JUMPI DUP1 PUSH4 0xF2FDE38B EQ PUSH2 0x221 JUMPI PUSH2 0xB3 JUMP JUMPDEST DUP1 PUSH3 0xAEEF8A EQ PUSH2 0xB8 JUMPI DUP1 PUSH4 0x127E2B15 EQ PUSH2 0xD4 JUMPI DUP1 PUSH4 0x21BFA2FA EQ PUSH2 0xF2 JUMPI DUP1 PUSH4 0x441A3E70 EQ PUSH2 0x110 JUMPI DUP1 PUSH4 0x715018A6 EQ PUSH2 0x12C JUMPI DUP1 PUSH4 0x8DA5CB5B EQ PUSH2 0x136 JUMPI JUMPDEST PUSH1 0x0 DUP1 REVERT JUMPDEST PUSH2 0xD2 PUSH1 0x4 DUP1 CALLDATASIZE SUB DUP2 ADD SWAP1 PUSH2 0xCD SWAP2 SWAP1 PUSH2 0xE90 JUMP JUMPDEST PUSH2 0x23D JUMP JUMPDEST STOP JUMPDEST PUSH2 0xDC PUSH2 0x4EB JUMP JUMPDEST PUSH1 0x40 MLOAD PUSH2 0xE9 SWAP2 SWAP1 PUSH2 0xF62 JUMP JUMPDEST PUSH1 0x40 MLOAD DUP1 SWAP2 SUB SWAP1 RETURN JUMPDEST PUSH2 0xFA PUSH2 0x511 JUMP JUMPDEST PUSH1 0x40 MLOAD PUSH2 0x107 SWAP2 SWAP1 PUSH2 0xF8C JUMP JUMPDEST PUSH1 0x40 MLOAD DUP1 SWAP2 SUB SWAP1 RETURN JUMPDEST PUSH2 0x12A PUSH1 0x4 DUP1 CALLDATASIZE SUB DUP2 ADD SWAP1 PUSH2 0x125 SWAP2 SWAP1 PUSH2 0xFA7 JUMP JUMPDEST PUSH2 0x517 JUMP JUMPDEST STOP JUMPDEST PUSH2 0x134 PUSH2 0xA0F JUMP JUMPDEST STOP JUMPDEST PUSH2 0x13E PUSH2 0xA23 JUMP JUMPDEST PUSH1 0x40 MLOAD PUSH2 0x14B SWAP2 SWAP1 PUSH2 0x1008 JUMP JUMPDEST PUSH1 0x40 MLOAD DUP1 SWAP2 SUB SWAP1 RETURN JUMPDEST PUSH2 0x16E PUSH1 0x4 DUP1 CALLDATASIZE SUB DUP2 ADD SWAP1 PUSH2 0x169 SWAP2 SWAP1 PUSH2 0x104F JUMP JUMPDEST PUSH2 0xA4C JUMP JUMPDEST PUSH1 0x40 MLOAD PUSH2 0x17B SWAP2 SWAP1 PUSH2 0xF8C JUMP JUMPDEST PUSH1 0x40 MLOAD DUP1 SWAP2 SUB SWAP1 RETURN JUMPDEST PUSH2 0x19E PUSH1 0x4 DUP1 CALLDATASIZE SUB DUP2 ADD SWAP1 PUSH2 0x199 SWAP2 SWAP1 PUSH2 0xFA7 JUMP JUMPDEST PUSH2 0xACA JUMP JUMPDEST PUSH1 0x40 MLOAD PUSH2 0x1AC SWAP3 SWAP2 SWAP1 PUSH2 0x10A2 JUMP JUMPDEST PUSH1 0x40 MLOAD DUP1 SWAP2 SUB SWAP1 RETURN JUMPDEST PUSH2 0x1BD PUSH2 0xB14 JUMP JUMPDEST PUSH1 0x40 MLOAD PUSH2 0x1CA SWAP2 SWAP1 PUSH2 0x10EC JUMP JUMPDEST PUSH1 0x40 MLOAD DUP1 SWAP2 SUB SWAP1 RETURN JUMPDEST PUSH2 0x1ED PUSH1 0x4 DUP1 CALLDATASIZE SUB DUP2 ADD SWAP1 PUSH2 0x1E8 SWAP2 SWAP1 PUSH2 0xE90 JUMP JUMPDEST PUSH2 0xB3A JUMP JUMPDEST PUSH1 0x40 MLOAD PUSH2 0x1FA SWAP2 SWAP1 PUSH2 0xF8C JUMP JUMPDEST PUSH1 0x40 MLOAD DUP1 SWAP2 SUB SWAP1 RETURN JUMPDEST PUSH2 0x20B PUSH2 0xC76 JUMP JUMPDEST PUSH1 0x40 MLOAD PUSH2 0x218 SWAP2 SWAP1 PUSH2 0xF8C JUMP JUMPDEST PUSH1 0x40 MLOAD DUP1 SWAP2 SUB SWAP1 RETURN JUMPDEST PUSH2 0x23B PUSH1 0x4 DUP1 CALLDATASIZE SUB DUP2 ADD SWAP1 PUSH2 0x236 SWAP2 SWAP1 PUSH2 0x1107 JUMP JUMPDEST PUSH2 0xC7C JUMP JUMPDEST STOP JUMPDEST PUSH1 0x0 DUP2 GT PUSH2 0x280 JUMPI PUSH1 0x40 MLOAD PUSH32 0x8C379A000000000000000000000000000000000000000000000000000000000 DUP2 MSTORE PUSH1 0x4 ADD PUSH2 0x277 SWAP1 PUSH2 0x1191 JUMP JUMPDEST PUSH1 0x40 MLOAD DUP1 SWAP2 SUB SWAP1 REVERT JUMPDEST PUSH1 0x0 PUSH1 0x5 PUSH1 0x0 DUP6 DUP2 MSTORE PUSH1 0x20 ADD SWAP1 DUP2 MSTORE PUSH1 0x20 ADD PUSH1 0x0 KECCAK256 SWAP1 POP PUSH1 0x0 DUP2 PUSH1 0x0 ADD PUSH1 0x0 DUP6 DUP2 MSTORE PUSH1 0x20 ADD SWAP1 DUP2 MSTORE PUSH1 0x20 ADD PUSH1 0x0 KECCAK256 SWAP1 POP PUSH1 0x0 DUP2 PUSH1 0x2 ADD SLOAD GT DUP1 PUSH2 0x2C7 JUMPI POP PUSH1 0x0 DUP2 PUSH1 0x1 ADD SLOAD EQ JUMPDEST PUSH2 0x306 JUMPI PUSH1 0x40 MLOAD PUSH32 0x8C379A000000000000000000000000000000000000000000000000000000000 DUP2 MSTORE PUSH1 0x4 ADD PUSH2 0x2FD SWAP1 PUSH2 0x11FD JUMP JUMPDEST PUSH1 0x40 MLOAD DUP1 SWAP2 SUB SWAP1 REVERT JUMPDEST PUSH1 0x0 DUP2 PUSH1 0x1 ADD SLOAD SUB PUSH2 0x31C JUMPI NUMBER DUP2 PUSH1 0x2 ADD DUP2 SWAP1 SSTORE POP JUMPDEST PUSH1 0x0 PUSH2 0x329 DUP7 DUP7 DUP7 PUSH2 0xB3A JUMP JUMPDEST SWAP1 POP PUSH1 0x0 DUP2 GT PUSH2 0x36E JUMPI PUSH1 0x40 MLOAD PUSH32 0x8C379A000000000000000000000000000000000000000000000000000000000 DUP2 MSTORE PUSH1 0x4 ADD PUSH2 0x365 SWAP1 PUSH2 0x1269 JUMP JUMPDEST PUSH1 0x40 MLOAD DUP1 SWAP2 SUB SWAP1 REVERT JUMPDEST PUSH1 0x0 PUSH1 0x1 PUSH1 0x0 SWAP1 SLOAD SWAP1 PUSH2 0x100 EXP SWAP1 DIV PUSH20 0xFFFFFFFFFFFFFFFFFFFFFFFFFFFFFFFFFFFFFFFF AND PUSH20 0xFFFFFFFFFFFFFFFFFFFFFFFFFFFFFFFFFFFFFFFF AND PUSH4 0x23B872DD CALLER ADDRESS DUP9 PUSH1 0x40 MLOAD DUP5 PUSH4 0xFFFFFFFF AND PUSH1 0xE0 SHL DUP2 MSTORE PUSH1 0x4 ADD PUSH2 0x3CF SWAP4 SWAP3 SWAP2 SWAP1 PUSH2 0x1289 JUMP JUMPDEST PUSH1 0x20 PUSH1 0x40 MLOAD DUP1 DUP4 SUB DUP2 PUSH1 0x0 DUP8 GAS CALL ISZERO DUP1 ISZERO PUSH2 0x3EE JUMPI RETURNDATASIZE PUSH1 0x0 DUP1 RETURNDATACOPY RETURNDATASIZE PUSH1 0x0 REVERT JUMPDEST POP POP POP POP PUSH1 0x40 MLOAD RETURNDATASIZE PUSH1 0x1F NOT PUSH1 0x1F DUP3 ADD AND DUP3 ADD DUP1 PUSH1 0x40 MSTORE POP DUP2 ADD SWAP1 PUSH2 0x412 SWAP2 SWAP1 PUSH2 0x12F8 JUMP JUMPDEST SWAP1 POP DUP1 PUSH2 0x454 JUMPI PUSH1 0x40 MLOAD PUSH32 0x8C379A000000000000000000000000000000000000000000000000000000000 DUP2 MSTORE PUSH1 0x4 ADD PUSH2 0x44B SWAP1 PUSH2 0x1397 JUMP JUMPDEST PUSH1 0x40 MLOAD DUP1 SWAP2 SUB SWAP1 REVERT JUMPDEST DUP5 DUP4 PUSH1 0x1 ADD PUSH1 0x0 DUP3 DUP3 SLOAD PUSH2 0x468 SWAP2 SWAP1 PUSH2 0x13E6 JUMP JUMPDEST SWAP3 POP POP DUP2 SWAP1 SSTORE POP DUP2 DUP4 PUSH1 0x3 ADD PUSH1 0x0 CALLER PUSH20 0xFFFFFFFFFFFFFFFFFFFFFFFFFFFFFFFFFFFFFFFF AND PUSH20 0xFFFFFFFFFFFFFFFFFFFFFFFFFFFFFFFFFFFFFFFF AND DUP2 MSTORE PUSH1 0x20 ADD SWAP1 DUP2 MSTORE PUSH1 0x20 ADD PUSH1 0x0 KECCAK256 PUSH1 0x0 DUP3 DUP3 SLOAD PUSH2 0x4C0 SWAP2 SWAP1 PUSH2 0x13E6 JUMP JUMPDEST SWAP3 POP POP DUP2 SWAP1 SSTORE POP DUP2 DUP4 PUSH1 0x0 ADD PUSH1 0x0 DUP3 DUP3 SLOAD PUSH2 0x4DB SWAP2 SWAP1 PUSH2 0x13E6 JUMP JUMPDEST SWAP3 POP POP DUP2 SWAP1 SSTORE POP POP POP POP POP POP POP POP JUMP JUMPDEST PUSH1 0x1 PUSH1 0x0 SWAP1 SLOAD SWAP1 PUSH2 0x100 EXP SWAP1 DIV PUSH20 0xFFFFFFFFFFFFFFFFFFFFFFFFFFFFFFFFFFFFFFFF AND DUP2 JUMP JUMPDEST PUSH1 0x4 SLOAD DUP2 JUMP JUMPDEST PUSH1 0x0 PUSH1 0x5 PUSH1 0x0 DUP5 DUP2 MSTORE PUSH1 0x20 ADD SWAP1 DUP2 MSTORE PUSH1 0x20 ADD PUSH1 0x0 KECCAK256 SWAP1 POP PUSH1 0x0 DUP2 PUSH1 0x0 ADD PUSH1 0x0 DUP5 DUP2 MSTORE PUSH1 0x20 ADD SWAP1 DUP2 MSTORE PUSH1 0x20 ADD PUSH1 0x0 KECCAK256 SWAP1 POP PUSH1 0x0 DUP2 PUSH1 0x3 ADD PUSH1 0x0 CALLER PUSH20 0xFFFFFFFFFFFFFFFFFFFFFFFFFFFFFFFFFFFFFFFF AND PUSH20 0xFFFFFFFFFFFFFFFFFFFFFFFFFFFFFFFFFFFFFFFF AND DUP2 MSTORE PUSH1 0x20 ADD SWAP1 DUP2 MSTORE PUSH1 0x20 ADD PUSH1 0x0 KECCAK256 SLOAD SWAP1 POP PUSH1 0x0 DUP2 GT PUSH2 0x5D0 JUMPI PUSH1 0x40 MLOAD PUSH32 0x8C379A000000000000000000000000000000000000000000000000000000000 DUP2 MSTORE PUSH1 0x4 ADD PUSH2 0x5C7 SWAP1 PUSH2 0x1466 JUMP JUMPDEST PUSH1 0x40 MLOAD DUP1 SWAP2 SUB SWAP1 REVERT JUMPDEST PUSH1 0x0 DUP3 PUSH1 0x0 ADD SLOAD DUP3 DUP5 PUSH1 0x1 ADD SLOAD PUSH2 0x5E7 SWAP2 SWAP1 PUSH2 0x1486 JUMP JUMPDEST PUSH2 0x5F1 SWAP2 SWAP1 PUSH2 0x14F7 JUMP JUMPDEST SWAP1 POP PUSH1 0x0 PUSH1 0x64 PUSH1 0x3 SLOAD DUP4 PUSH2 0x605 SWAP2 SWAP1 PUSH2 0x1486 JUMP JUMPDEST PUSH2 0x60F SWAP2 SWAP1 PUSH2 0x14F7 JUMP JUMPDEST SWAP1 POP PUSH1 0x0 PUSH1 0x64 PUSH1 0x4 SLOAD DUP5 PUSH2 0x623 SWAP2 SWAP1 PUSH2 0x1486 JUMP JUMPDEST PUSH2 0x62D SWAP2 SWAP1 PUSH2 0x14F7 JUMP JUMPDEST SWAP1 POP PUSH1 0x0 DUP2 DUP4 DUP6 PUSH2 0x63E SWAP2 SWAP1 PUSH2 0x1528 JUMP JUMPDEST PUSH2 0x648 SWAP2 SWAP1 PUSH2 0x1528 JUMP JUMPDEST SWAP1 POP DUP4 DUP7 PUSH1 0x1 ADD PUSH1 0x0 DUP3 DUP3 SLOAD PUSH2 0x65E SWAP2 SWAP1 PUSH2 0x1528 JUMP JUMPDEST SWAP3 POP POP DUP2 SWAP1 SSTORE POP DUP5 DUP7 PUSH1 0x0 ADD PUSH1 0x0 DUP3 DUP3 SLOAD PUSH2 0x679 SWAP2 SWAP1 PUSH2 0x1528 JUMP JUMPDEST SWAP3 POP POP DUP2 SWAP1 SSTORE POP DUP6 PUSH1 0x3 ADD PUSH1 0x0 CALLER PUSH20 0xFFFFFFFFFFFFFFFFFFFFFFFFFFFFFFFFFFFFFFFF AND PUSH20 0xFFFFFFFFFFFFFFFFFFFFFFFFFFFFFFFFFFFFFFFF AND DUP2 MSTORE PUSH1 0x20 ADD SWAP1 DUP2 MSTORE PUSH1 0x20 ADD PUSH1 0x0 KECCAK256 PUSH1 0x0 SWAP1 SSTORE PUSH1 0x1 PUSH1 0x0 SWAP1 SLOAD SWAP1 PUSH2 0x100 EXP SWAP1 DIV PUSH20 0xFFFFFFFFFFFFFFFFFFFFFFFFFFFFFFFFFFFFFFFF AND PUSH20 0xFFFFFFFFFFFFFFFFFFFFFFFFFFFFFFFFFFFFFFFF AND PUSH4 0xA9059CBB PUSH1 0x2 PUSH1 0x0 SWAP1 SLOAD SWAP1 PUSH2 0x100 EXP SWAP1 DIV PUSH20 0xFFFFFFFFFFFFFFFFFFFFFFFFFFFFFFFFFFFFFFFF AND PUSH20 0xFFFFFFFFFFFFFFFFFFFFFFFFFFFFFFFFFFFFFFFF AND PUSH4 0x6352211E DUP13 PUSH1 0x40 MLOAD DUP3 PUSH4 0xFFFFFFFF AND PUSH1 0xE0 SHL DUP2 MSTORE PUSH1 0x4 ADD PUSH2 0x75E SWAP2 SWAP1 PUSH2 0xF8C JUMP JUMPDEST PUSH1 0x20 PUSH1 0x40 MLOAD DUP1 DUP4 SUB DUP2 DUP7 GAS STATICCALL ISZERO DUP1 ISZERO PUSH2 0x77B JUMPI RETURNDATASIZE PUSH1 0x0 DUP1 RETURNDATACOPY RETURNDATASIZE PUSH1 0x0 REVERT JUMPDEST POP POP POP POP PUSH1 0x40 MLOAD RETURNDATASIZE PUSH1 0x1F NOT PUSH1 0x1F DUP3 ADD AND DUP3 ADD DUP1 PUSH1 0x40 MSTORE POP DUP2 ADD SWAP1 PUSH2 0x79F SWAP2 SWAP1 PUSH2 0x1571 JUMP JUMPDEST DUP6 PUSH1 0x40 MLOAD DUP4 PUSH4 0xFFFFFFFF AND PUSH1 0xE0 SHL DUP2 MSTORE PUSH1 0x4 ADD PUSH2 0x7BD SWAP3 SWAP2 SWAP1 PUSH2 0x159E JUMP JUMPDEST PUSH1 0x20 PUSH1 0x40 MLOAD DUP1 DUP4 SUB DUP2 PUSH1 0x0 DUP8 GAS CALL ISZERO DUP1 ISZERO PUSH2 0x7DC JUMPI RETURNDATASIZE PUSH1 0x0 DUP1 RETURNDATACOPY RETURNDATASIZE PUSH1 0x0 REVERT JUMPDEST POP POP POP POP PUSH1 0x40 MLOAD RETURNDATASIZE PUSH1 0x1F NOT PUSH1 0x1F DUP3 ADD AND DUP3 ADD DUP1 PUSH1 0x40 MSTORE POP DUP2 ADD SWAP1 PUSH2 0x800 SWAP2 SWAP1 PUSH2 0x12F8 JUMP JUMPDEST PUSH2 0x83F JUMPI PUSH1 0x40 MLOAD PUSH32 0x8C379A000000000000000000000000000000000000000000000000000000000 DUP2 MSTORE PUSH1 0x4 ADD PUSH2 0x836 SWAP1 PUSH2 0x1639 JUMP JUMPDEST PUSH1 0x40 MLOAD DUP1 SWAP2 SUB SWAP1 REVERT JUMPDEST PUSH1 0x1 PUSH1 0x0 SWAP1 SLOAD SWAP1 PUSH2 0x100 EXP SWAP1 DIV PUSH20 0xFFFFFFFFFFFFFFFFFFFFFFFFFFFFFFFFFFFFFFFF AND PUSH20 0xFFFFFFFFFFFFFFFFFFFFFFFFFFFFFFFFFFFFFFFF AND PUSH4 0xA9059CBB PUSH2 0x885 PUSH2 0xA23 JUMP JUMPDEST DUP5 PUSH1 0x40 MLOAD DUP4 PUSH4 0xFFFFFFFF AND PUSH1 0xE0 SHL DUP2 MSTORE PUSH1 0x4 ADD PUSH2 0x8A3 SWAP3 SWAP2 SWAP1 PUSH2 0x159E JUMP JUMPDEST PUSH1 0x20 PUSH1 0x40 MLOAD DUP1 DUP4 SUB DUP2 PUSH1 0x0 DUP8 GAS CALL ISZERO DUP1 ISZERO PUSH2 0x8C2 JUMPI RETURNDATASIZE PUSH1 0x0 DUP1 RETURNDATACOPY RETURNDATASIZE PUSH1 0x0 REVERT JUMPDEST POP POP POP POP PUSH1 0x40 MLOAD RETURNDATASIZE PUSH1 0x1F NOT PUSH1 0x1F DUP3 ADD AND DUP3 ADD DUP1 PUSH1 0x40 MSTORE POP DUP2 ADD SWAP1 PUSH2 0x8E6 SWAP2 SWAP1 PUSH2 0x12F8 JUMP JUMPDEST PUSH2 0x925 JUMPI PUSH1 0x40 MLOAD PUSH32 0x8C379A000000000000000000000000000000000000000000000000000000000 DUP2 MSTORE PUSH1 0x4 ADD PUSH2 0x91C SWAP1 PUSH2 0x16CB JUMP JUMPDEST PUSH1 0x40 MLOAD DUP1 SWAP2 SUB SWAP1 REVERT JUMPDEST PUSH1 0x1 PUSH1 0x0 SWAP1 SLOAD SWAP1 PUSH2 0x100 EXP SWAP1 DIV PUSH20 0xFFFFFFFFFFFFFFFFFFFFFFFFFFFFFFFFFFFFFFFF AND PUSH20 0xFFFFFFFFFFFFFFFFFFFFFFFFFFFFFFFFFFFFFFFF AND PUSH4 0xA9059CBB CALLER DUP4 PUSH1 0x40 MLOAD DUP4 PUSH4 0xFFFFFFFF AND PUSH1 0xE0 SHL DUP2 MSTORE PUSH1 0x4 ADD PUSH2 0x982 SWAP3 SWAP2 SWAP1 PUSH2 0x159E JUMP JUMPDEST PUSH1 0x20 PUSH1 0x40 MLOAD DUP1 DUP4 SUB DUP2 PUSH1 0x0 DUP8 GAS CALL ISZERO DUP1 ISZERO PUSH2 0x9A1 JUMPI RETURNDATASIZE PUSH1 0x0 DUP1 RETURNDATACOPY RETURNDATASIZE PUSH1 0x0 REVERT JUMPDEST POP POP POP POP PUSH1 0x40 MLOAD RETURNDATASIZE PUSH1 0x1F NOT PUSH1 0x1F DUP3 ADD AND DUP3 ADD DUP1 PUSH1 0x40 MSTORE POP DUP2 ADD SWAP1 PUSH2 0x9C5 SWAP2 SWAP1 PUSH2 0x12F8 JUMP JUMPDEST PUSH2 0xA04 JUMPI PUSH1 0x40 MLOAD PUSH32 0x8C379A000000000000000000000000000000000000000000000000000000000 DUP2 MSTORE PUSH1 0x4 ADD PUSH2 0x9FB SWAP1 PUSH2 0x1737 JUMP JUMPDEST PUSH1 0x40 MLOAD DUP1 SWAP2 SUB SWAP1 REVERT JUMPDEST POP POP POP POP POP POP POP POP POP JUMP JUMPDEST PUSH2 0xA17 PUSH2 0xD02 JUMP JUMPDEST PUSH2 0xA21 PUSH1 0x0 PUSH2 0xD89 JUMP JUMPDEST JUMP JUMPDEST PUSH1 0x0 DUP1 PUSH1 0x0 SWAP1 SLOAD SWAP1 PUSH2 0x100 EXP SWAP1 DIV PUSH20 0xFFFFFFFFFFFFFFFFFFFFFFFFFFFFFFFFFFFFFFFF AND SWAP1 POP SWAP1 JUMP JUMPDEST PUSH1 0x0 DUP1 PUSH1 0x5 PUSH1 0x0 DUP7 DUP2 MSTORE PUSH1 0x20 ADD SWAP1 DUP2 MSTORE PUSH1 0x20 ADD PUSH1 0x0 KECCAK256 SWAP1 POP PUSH1 0x0 DUP2 PUSH1 0x0 ADD PUSH1 0x0 DUP7 DUP2 MSTORE PUSH1 0x20 ADD SWAP1 DUP2 MSTORE PUSH1 0x20 ADD PUSH1 0x0 KECCAK256 SWAP1 POP DUP1 PUSH1 0x3 ADD PUSH1 0x0 DUP6 PUSH20 0xFFFFFFFFFFFFFFFFFFFFFFFFFFFFFFFFFFFFFFFF AND PUSH20 0xFFFFFFFFFFFFFFFFFFFFFFFFFFFFFFFFFFFFFFFF AND DUP2 MSTORE PUSH1 0x20 ADD SWAP1 DUP2 MSTORE PUSH1 0x20 ADD PUSH1 0x0 KECCAK256 SLOAD SWAP3 POP POP POP SWAP4 SWAP3 POP POP POP JUMP JUMPDEST PUSH1 0x0 DUP1 PUSH1 0x0 PUSH1 0x5 PUSH1 0x0 DUP7 DUP2 MSTORE PUSH1 0x20 ADD SWAP1 DUP2 MSTORE PUSH1 0x20 ADD PUSH1 0x0 KECCAK256 SWAP1 POP PUSH1 0x0 DUP2 PUSH1 0x0 ADD PUSH1 0x0 DUP7 DUP2 MSTORE PUSH1 0x20 ADD SWAP1 DUP2 MSTORE PUSH1 0x20 ADD PUSH1 0x0 KECCAK256 SWAP1 POP DUP1 PUSH1 0x0 ADD SLOAD DUP2 PUSH1 0x1 ADD SLOAD SWAP4 POP SWAP4 POP POP POP SWAP3 POP SWAP3 SWAP1 POP JUMP JUMPDEST PUSH1 0x2 PUSH1 0x0 SWAP1 SLOAD SWAP1 PUSH2 0x100 EXP SWAP1 DIV PUSH20 0xFFFFFFFFFFFFFFFFFFFFFFFFFFFFFFFFFFFFFFFF AND DUP2 JUMP JUMPDEST PUSH1 0x0 DUP1 PUSH1 0x5 PUSH1 0x0 DUP7 DUP2 MSTORE PUSH1 0x20 ADD SWAP1 DUP2 MSTORE PUSH1 0x20 ADD PUSH1 0x0 KECCAK256 SWAP1 POP PUSH1 0x0 DUP2 PUSH1 0x0 ADD PUSH1 0x0 DUP7 DUP2 MSTORE PUSH1 0x20 ADD SWAP1 DUP2 MSTORE PUSH1 0x20 ADD PUSH1 0x0 KECCAK256 SWAP1 POP PUSH1 0x0 DUP2 PUSH1 0x2 ADD SLOAD GT DUP1 PUSH2 0xB82 JUMPI POP PUSH1 0x0 DUP2 PUSH1 0x1 ADD SLOAD EQ JUMPDEST PUSH2 0xBC1 JUMPI PUSH1 0x40 MLOAD PUSH32 0x8C379A000000000000000000000000000000000000000000000000000000000 DUP2 MSTORE PUSH1 0x4 ADD PUSH2 0xBB8 SWAP1 PUSH2 0x17A3 JUMP JUMPDEST PUSH1 0x40 MLOAD DUP1 SWAP2 SUB SWAP1 REVERT JUMPDEST PUSH1 0x0 DUP2 PUSH1 0x2 ADD SLOAD NUMBER PUSH2 0xBD3 SWAP2 SWAP1 PUSH2 0x1528 JUMP JUMPDEST SWAP1 POP PUSH1 0x0 PUSH1 0x3C SWAP1 POP PUSH1 0x0 DUP2 DUP4 PUSH2 0xBE9 SWAP2 SWAP1 PUSH2 0x14F7 JUMP JUMPDEST SWAP1 POP PUSH1 0x0 PUSH2 0x3E8 DUP9 PUSH2 0xBFB SWAP2 SWAP1 PUSH2 0x1486 JUMP JUMPDEST SWAP1 POP PUSH1 0x0 PUSH1 0x1 SWAP1 POP PUSH1 0x0 JUMPDEST DUP4 DUP2 LT ISZERO PUSH2 0xC55 JUMPI PUSH1 0x0 PUSH1 0xA PUSH1 0x9 DUP6 PUSH2 0xC1F SWAP2 SWAP1 PUSH2 0x1486 JUMP JUMPDEST PUSH2 0xC29 SWAP2 SWAP1 PUSH2 0x14F7 JUMP JUMPDEST SWAP1 POP DUP3 DUP2 LT ISZERO PUSH2 0xC44 JUMPI DUP3 SWAP10 POP POP POP POP POP POP POP POP POP POP PUSH2 0xC6F JUMP JUMPDEST DUP1 SWAP4 POP POP DUP1 DUP1 PUSH1 0x1 ADD SWAP2 POP POP PUSH2 0xC06 JUMP JUMPDEST POP DUP1 DUP3 GT PUSH2 0xC63 JUMPI DUP1 PUSH2 0xC65 JUMP JUMPDEST DUP2 JUMPDEST SWAP8 POP POP POP POP POP POP POP POP JUMPDEST SWAP4 SWAP3 POP POP POP JUMP JUMPDEST PUSH1 0x3 SLOAD DUP2 JUMP JUMPDEST PUSH2 0xC84 PUSH2 0xD02 JUMP JUMPDEST PUSH1 0x0 PUSH20 0xFFFFFFFFFFFFFFFFFFFFFFFFFFFFFFFFFFFFFFFF AND DUP2 PUSH20 0xFFFFFFFFFFFFFFFFFFFFFFFFFFFFFFFFFFFFFFFF AND SUB PUSH2 0xCF6 JUMPI PUSH1 0x0 PUSH1 0x40 MLOAD PUSH32 0x1E4FBDF700000000000000000000000000000000000000000000000000000000 DUP2 MSTORE PUSH1 0x4 ADD PUSH2 0xCED SWAP2 SWAP1 PUSH2 0x1008 JUMP JUMPDEST PUSH1 0x40 MLOAD DUP1 SWAP2 SUB SWAP1 REVERT JUMPDEST PUSH2 0xCFF DUP2 PUSH2 0xD89 JUMP JUMPDEST POP JUMP JUMPDEST PUSH2 0xD0A PUSH2 0xE4D JUMP JUMPDEST PUSH20 0xFFFFFFFFFFFFFFFFFFFFFFFFFFFFFFFFFFFFFFFF AND PUSH2 0xD28 PUSH2 0xA23 JUMP JUMPDEST PUSH20 0xFFFFFFFFFFFFFFFFFFFFFFFFFFFFFFFFFFFFFFFF AND EQ PUSH2 0xD87 JUMPI PUSH2 0xD4B PUSH2 0xE4D JUMP JUMPDEST PUSH1 0x40 MLOAD PUSH32 0x118CDAA700000000000000000000000000000000000000000000000000000000 DUP2 MSTORE PUSH1 0x4 ADD PUSH2 0xD7E SWAP2 SWAP1 PUSH2 0x1008 JUMP JUMPDEST PUSH1 0x40 MLOAD DUP1 SWAP2 SUB SWAP1 REVERT JUMPDEST JUMP JUMPDEST PUSH1 0x0 DUP1 PUSH1 0x0 SWAP1 SLOAD SWAP1 PUSH2 0x100 EXP SWAP1 DIV PUSH20 0xFFFFFFFFFFFFFFFFFFFFFFFFFFFFFFFFFFFFFFFF AND SWAP1 POP DUP2 PUSH1 0x0 DUP1 PUSH2 0x100 EXP DUP2 SLOAD DUP2 PUSH20 0xFFFFFFFFFFFFFFFFFFFFFFFFFFFFFFFFFFFFFFFF MUL NOT AND SWAP1 DUP4 PUSH20 0xFFFFFFFFFFFFFFFFFFFFFFFFFFFFFFFFFFFFFFFF AND MUL OR SWAP1 SSTORE POP DUP2 PUSH20 0xFFFFFFFFFFFFFFFFFFFFFFFFFFFFFFFFFFFFFFFF AND DUP2 PUSH20 0xFFFFFFFFFFFFFFFFFFFFFFFFFFFFFFFFFFFFFFFF AND PUSH32 0x8BE0079C531659141344CD1FD0A4F28419497F9722A3DAAFE3B4186F6B6457E0 PUSH1 0x40 MLOAD PUSH1 0x40 MLOAD DUP1 SWAP2 SUB SWAP1 LOG3 POP POP JUMP JUMPDEST PUSH1 0x0 CALLER SWAP1 POP SWAP1 JUMP JUMPDEST PUSH1 0x0 DUP1 REVERT JUMPDEST PUSH1 0x0 DUP2 SWAP1 POP SWAP2 SWAP1 POP JUMP JUMPDEST PUSH2 0xE6D DUP2 PUSH2 0xE5A JUMP JUMPDEST DUP2 EQ PUSH2 0xE78 JUMPI PUSH1 0x0 DUP1 REVERT JUMPDEST POP JUMP JUMPDEST PUSH1 0x0 DUP2 CALLDATALOAD SWAP1 POP PUSH2 0xE8A DUP2 PUSH2 0xE64 JUMP JUMPDEST SWAP3 SWAP2 POP POP JUMP JUMPDEST PUSH1 0x0 DUP1 PUSH1 0x0 PUSH1 0x60 DUP5 DUP7 SUB SLT ISZERO PUSH2 0xEA9 JUMPI PUSH2 0xEA8 PUSH2 0xE55 JUMP JUMPDEST JUMPDEST PUSH1 0x0 PUSH2 0xEB7 DUP7 DUP3 DUP8 ADD PUSH2 0xE7B JUMP JUMPDEST SWAP4 POP POP PUSH1 0x20 PUSH2 0xEC8 DUP7 DUP3 DUP8 ADD PUSH2 0xE7B JUMP JUMPDEST SWAP3 POP POP PUSH1 0x40 PUSH2 0xED9 DUP7 DUP3 DUP8 ADD PUSH2 0xE7B JUMP JUMPDEST SWAP2 POP POP SWAP3 POP SWAP3 POP SWAP3 JUMP JUMPDEST PUSH1 0x0 PUSH20 0xFFFFFFFFFFFFFFFFFFFFFFFFFFFFFFFFFFFFFFFF DUP3 AND SWAP1 POP SWAP2 SWAP1 POP JUMP JUMPDEST PUSH1 0x0 DUP2 SWAP1 POP SWAP2 SWAP1 POP JUMP JUMPDEST PUSH1 0x0 PUSH2 0xF28 PUSH2 0xF23 PUSH2 0xF1E DUP5 PUSH2 0xEE3 JUMP JUMPDEST PUSH2 0xF03 JUMP JUMPDEST PUSH2 0xEE3 JUMP JUMPDEST SWAP1 POP SWAP2 SWAP1 POP JUMP JUMPDEST PUSH1 0x0 PUSH2 0xF3A DUP3 PUSH2 0xF0D JUMP JUMPDEST SWAP1 POP SWAP2 SWAP1 POP JUMP JUMPDEST PUSH1 0x0 PUSH2 0xF4C DUP3 PUSH2 0xF2F JUMP JUMPDEST SWAP1 POP SWAP2 SWAP1 POP JUMP JUMPDEST PUSH2 0xF5C DUP2 PUSH2 0xF41 JUMP JUMPDEST DUP3 MSTORE POP POP JUMP JUMPDEST PUSH1 0x0 PUSH1 0x20 DUP3 ADD SWAP1 POP PUSH2 0xF77 PUSH1 0x0 DUP4 ADD DUP5 PUSH2 0xF53 JUMP JUMPDEST SWAP3 SWAP2 POP POP JUMP JUMPDEST PUSH2 0xF86 DUP2 PUSH2 0xE5A JUMP JUMPDEST DUP3 MSTORE POP POP JUMP JUMPDEST PUSH1 0x0 PUSH1 0x20 DUP3 ADD SWAP1 POP PUSH2 0xFA1 PUSH1 0x0 DUP4 ADD DUP5 PUSH2 0xF7D JUMP JUMPDEST SWAP3 SWAP2 POP POP JUMP JUMPDEST PUSH1 0x0 DUP1 PUSH1 0x40 DUP4 DUP6 SUB SLT ISZERO PUSH2 0xFBE JUMPI PUSH2 0xFBD PUSH2 0xE55 JUMP JUMPDEST JUMPDEST PUSH1 0x0 PUSH2 0xFCC DUP6 DUP3 DUP7 ADD PUSH2 0xE7B JUMP JUMPDEST SWAP3 POP POP PUSH1 0x20 PUSH2 0xFDD DUP6 DUP3 DUP7 ADD PUSH2 0xE7B JUMP JUMPDEST SWAP2 POP POP SWAP3 POP SWAP3 SWAP1 POP JUMP JUMPDEST PUSH1 0x0 PUSH2 0xFF2 DUP3 PUSH2 0xEE3 JUMP JUMPDEST SWAP1 POP SWAP2 SWAP1 POP JUMP JUMPDEST PUSH2 0x1002 DUP2 PUSH2 0xFE7 JUMP JUMPDEST DUP3 MSTORE POP POP JUMP JUMPDEST PUSH1 0x0 PUSH1 0x20 DUP3 ADD SWAP1 POP PUSH2 0x101D PUSH1 0x0 DUP4 ADD DUP5 PUSH2 0xFF9 JUMP JUMPDEST SWAP3 SWAP2 POP POP JUMP JUMPDEST PUSH2 0x102C DUP2 PUSH2 0xFE7 JUMP JUMPDEST DUP2 EQ PUSH2 0x1037 JUMPI PUSH1 0x0 DUP1 REVERT JUMPDEST POP JUMP JUMPDEST PUSH1 0x0 DUP2 CALLDATALOAD SWAP1 POP PUSH2 0x1049 DUP2 PUSH2 0x1023 JUMP JUMPDEST SWAP3 SWAP2 POP POP JUMP JUMPDEST PUSH1 0x0 DUP1 PUSH1 0x0 PUSH1 0x60 DUP5 DUP7 SUB SLT ISZERO PUSH2 0x1068 JUMPI PUSH2 0x1067 PUSH2 0xE55 JUMP JUMPDEST JUMPDEST PUSH1 0x0 PUSH2 0x1076 DUP7 DUP3 DUP8 ADD PUSH2 0xE7B JUMP JUMPDEST SWAP4 POP POP PUSH1 0x20 PUSH2 0x1087 DUP7 DUP3 DUP8 ADD PUSH2 0xE7B JUMP JUMPDEST SWAP3 POP POP PUSH1 0x40 PUSH2 0x1098 DUP7 DUP3 DUP8 ADD PUSH2 0x103A JUMP JUMPDEST SWAP2 POP POP SWAP3 POP SWAP3 POP SWAP3 JUMP JUMPDEST PUSH1 0x0 PUSH1 0x40 DUP3 ADD SWAP1 POP PUSH2 0x10B7 PUSH1 0x0 DUP4 ADD DUP6 PUSH2 0xF7D JUMP JUMPDEST PUSH2 0x10C4 PUSH1 0x20 DUP4 ADD DUP5 PUSH2 0xF7D JUMP JUMPDEST SWAP4 SWAP3 POP POP POP JUMP JUMPDEST PUSH1 0x0 PUSH2 0x10D6 DUP3 PUSH2 0xF2F JUMP JUMPDEST SWAP1 POP SWAP2 SWAP1 POP JUMP JUMPDEST PUSH2 0x10E6 DUP2 PUSH2 0x10CB JUMP JUMPDEST DUP3 MSTORE POP POP JUMP JUMPDEST PUSH1 0x0 PUSH1 0x20 DUP3 ADD SWAP1 POP PUSH2 0x1101 PUSH1 0x0 DUP4 ADD DUP5 PUSH2 0x10DD JUMP JUMPDEST SWAP3 SWAP2 POP POP JUMP JUMPDEST PUSH1 0x0 PUSH1 0x20 DUP3 DUP5 SUB SLT ISZERO PUSH2 0x111D JUMPI PUSH2 0x111C PUSH2 0xE55 JUMP JUMPDEST JUMPDEST PUSH1 0x0 PUSH2 0x112B DUP5 DUP3 DUP6 ADD PUSH2 0x103A JUMP JUMPDEST SWAP2 POP POP SWAP3 SWAP2 POP POP JUMP JUMPDEST PUSH1 0x0 DUP3 DUP3 MSTORE PUSH1 0x20 DUP3 ADD SWAP1 POP SWAP3 SWAP2 POP POP JUMP JUMPDEST PUSH32 0x416D6F756E74206D75737420626520706F736974697665000000000000000000 PUSH1 0x0 DUP3 ADD MSTORE POP JUMP JUMPDEST PUSH1 0x0 PUSH2 0x117B PUSH1 0x17 DUP4 PUSH2 0x1134 JUMP JUMPDEST SWAP2 POP PUSH2 0x1186 DUP3 PUSH2 0x1145 JUMP JUMPDEST PUSH1 0x20 DUP3 ADD SWAP1 POP SWAP2 SWAP1 POP JUMP JUMPDEST PUSH1 0x0 PUSH1 0x20 DUP3 ADD SWAP1 POP DUP2 DUP2 SUB PUSH1 0x0 DUP4 ADD MSTORE PUSH2 0x11AA DUP2 PUSH2 0x116E JUMP JUMPDEST SWAP1 POP SWAP2 SWAP1 POP JUMP JUMPDEST PUSH32 0x506F6F6C20646F6573206E6F742065786973742E000000000000000000000000 PUSH1 0x0 DUP3 ADD MSTORE POP JUMP JUMPDEST PUSH1 0x0 PUSH2 0x11E7 PUSH1 0x14 DUP4 PUSH2 0x1134 JUMP JUMPDEST SWAP2 POP PUSH2 0x11F2 DUP3 PUSH2 0x11B1 JUMP JUMPDEST PUSH1 0x20 DUP3 ADD SWAP1 POP SWAP2 SWAP1 POP JUMP JUMPDEST PUSH1 0x0 PUSH1 0x20 DUP3 ADD SWAP1 POP DUP2 DUP2 SUB PUSH1 0x0 DUP4 ADD MSTORE PUSH2 0x1216 DUP2 PUSH2 0x11DA JUMP JUMPDEST SWAP1 POP SWAP2 SWAP1 POP JUMP JUMPDEST PUSH32 0x5368617265732063616C63756C6174696F6E206572726F722E00000000000000 PUSH1 0x0 DUP3 ADD MSTORE POP JUMP JUMPDEST PUSH1 0x0 PUSH2 0x1253 PUSH1 0x19 DUP4 PUSH2 0x1134 JUMP JUMPDEST SWAP2 POP PUSH2 0x125E DUP3 PUSH2 0x121D JUMP JUMPDEST PUSH1 0x20 DUP3 ADD SWAP1 POP SWAP2 SWAP1 POP JUMP JUMPDEST PUSH1 0x0 PUSH1 0x20 DUP3 ADD SWAP1 POP DUP2 DUP2 SUB PUSH1 0x0 DUP4 ADD MSTORE PUSH2 0x1282 DUP2 PUSH2 0x1246 JUMP JUMPDEST SWAP1 POP SWAP2 SWAP1 POP JUMP JUMPDEST PUSH1 0x0 PUSH1 0x60 DUP3 ADD SWAP1 POP PUSH2 0x129E PUSH1 0x0 DUP4 ADD DUP7 PUSH2 0xFF9 JUMP JUMPDEST PUSH2 0x12AB PUSH1 0x20 DUP4 ADD DUP6 PUSH2 0xFF9 JUMP JUMPDEST PUSH2 0x12B8 PUSH1 0x40 DUP4 ADD DUP5 PUSH2 0xF7D JUMP JUMPDEST SWAP5 SWAP4 POP POP POP POP JUMP JUMPDEST PUSH1 0x0 DUP2 ISZERO ISZERO SWAP1 POP SWAP2 SWAP1 POP JUMP JUMPDEST PUSH2 0x12D5 DUP2 PUSH2 0x12C0 JUMP JUMPDEST DUP2 EQ PUSH2 0x12E0 JUMPI PUSH1 0x0 DUP1 REVERT JUMPDEST POP JUMP JUMPDEST PUSH1 0x0 DUP2 MLOAD SWAP1 POP PUSH2 0x12F2 DUP2 PUSH2 0x12CC JUMP JUMPDEST SWAP3 SWAP2 POP POP JUMP JUMPDEST PUSH1 0x0 PUSH1 0x20 DUP3 DUP5 SUB SLT ISZERO PUSH2 0x130E JUMPI PUSH2 0x130D PUSH2 0xE55 JUMP JUMPDEST JUMPDEST PUSH1 0x0 PUSH2 0x131C DUP5 DUP3 DUP6 ADD PUSH2 0x12E3 JUMP JUMPDEST SWAP2 POP POP SWAP3 SWAP2 POP POP JUMP JUMPDEST PUSH32 0x5472616E73666572206661696C65642E20436865636B20616C6C6F77616E6365 PUSH1 0x0 DUP3 ADD MSTORE PUSH32 0x2E00000000000000000000000000000000000000000000000000000000000000 PUSH1 0x20 DUP3 ADD MSTORE POP JUMP JUMPDEST PUSH1 0x0 PUSH2 0x1381 PUSH1 0x21 DUP4 PUSH2 0x1134 JUMP JUMPDEST SWAP2 POP PUSH2 0x138C DUP3 PUSH2 0x1325 JUMP JUMPDEST PUSH1 0x40 DUP3 ADD SWAP1 POP SWAP2 SWAP1 POP JUMP JUMPDEST PUSH1 0x0 PUSH1 0x20 DUP3 ADD SWAP1 POP DUP2 DUP2 SUB PUSH1 0x0 DUP4 ADD MSTORE PUSH2 0x13B0 DUP2 PUSH2 0x1374 JUMP JUMPDEST SWAP1 POP SWAP2 SWAP1 POP JUMP JUMPDEST PUSH32 0x4E487B7100000000000000000000000000000000000000000000000000000000 PUSH1 0x0 MSTORE PUSH1 0x11 PUSH1 0x4 MSTORE PUSH1 0x24 PUSH1 0x0 REVERT JUMPDEST PUSH1 0x0 PUSH2 0x13F1 DUP3 PUSH2 0xE5A JUMP JUMPDEST SWAP2 POP PUSH2 0x13FC DUP4 PUSH2 0xE5A JUMP JUMPDEST SWAP3 POP DUP3 DUP3 ADD SWAP1 POP DUP1 DUP3 GT ISZERO PUSH2 0x1414 JUMPI PUSH2 0x1413 PUSH2 0x13B7 JUMP JUMPDEST JUMPDEST SWAP3 SWAP2 POP POP JUMP JUMPDEST PUSH32 0x4E6F2073686172657320746F2077697468647261770000000000000000000000 PUSH1 0x0 DUP3 ADD MSTORE POP JUMP JUMPDEST PUSH1 0x0 PUSH2 0x1450 PUSH1 0x15 DUP4 PUSH2 0x1134 JUMP JUMPDEST SWAP2 POP PUSH2 0x145B DUP3 PUSH2 0x141A JUMP JUMPDEST PUSH1 0x20 DUP3 ADD SWAP1 POP SWAP2 SWAP1 POP JUMP JUMPDEST PUSH1 0x0 PUSH1 0x20 DUP3 ADD SWAP1 POP DUP2 DUP2 SUB PUSH1 0x0 DUP4 ADD MSTORE PUSH2 0x147F DUP2 PUSH2 0x1443 JUMP JUMPDEST SWAP1 POP SWAP2 SWAP1 POP JUMP JUMPDEST PUSH1 0x0 PUSH2 0x1491 DUP3 PUSH2 0xE5A JUMP JUMPDEST SWAP2 POP PUSH2 0x149C DUP4 PUSH2 0xE5A JUMP JUMPDEST SWAP3 POP DUP3 DUP3 MUL PUSH2 0x14AA DUP2 PUSH2 0xE5A JUMP JUMPDEST SWAP2 POP DUP3 DUP3 DIV DUP5 EQ DUP4 ISZERO OR PUSH2 0x14C1 JUMPI PUSH2 0x14C0 PUSH2 0x13B7 JUMP JUMPDEST JUMPDEST POP SWAP3 SWAP2 POP POP JUMP JUMPDEST PUSH32 0x4E487B7100000000000000000000000000000000000000000000000000000000 PUSH1 0x0 MSTORE PUSH1 0x12 PUSH1 0x4 MSTORE PUSH1 0x24 PUSH1 0x0 REVERT JUMPDEST PUSH1 0x0 PUSH2 0x1502 DUP3 PUSH2 0xE5A JUMP JUMPDEST SWAP2 POP PUSH2 0x150D DUP4 PUSH2 0xE5A JUMP JUMPDEST SWAP3 POP DUP3 PUSH2 0x151D JUMPI PUSH2 0x151C PUSH2 0x14C8 JUMP JUMPDEST JUMPDEST DUP3 DUP3 DIV SWAP1 POP SWAP3 SWAP2 POP POP JUMP JUMPDEST PUSH1 0x0 PUSH2 0x1533 DUP3 PUSH2 0xE5A JUMP JUMPDEST SWAP2 POP PUSH2 0x153E DUP4 PUSH2 0xE5A JUMP JUMPDEST SWAP3 POP DUP3 DUP3 SUB SWAP1 POP DUP2 DUP2 GT ISZERO PUSH2 0x1556 JUMPI PUSH2 0x1555 PUSH2 0x13B7 JUMP JUMPDEST JUMPDEST SWAP3 SWAP2 POP POP JUMP JUMPDEST PUSH1 0x0 DUP2 MLOAD SWAP1 POP PUSH2 0x156B DUP2 PUSH2 0x1023 JUMP JUMPDEST SWAP3 SWAP2 POP POP JUMP JUMPDEST PUSH1 0x0 PUSH1 0x20 DUP3 DUP5 SUB SLT ISZERO PUSH2 0x1587 JUMPI PUSH2 0x1586 PUSH2 0xE55 JUMP JUMPDEST JUMPDEST PUSH1 0x0 PUSH2 0x1595 DUP5 DUP3 DUP6 ADD PUSH2 0x155C JUMP JUMPDEST SWAP2 POP POP SWAP3 SWAP2 POP POP JUMP JUMPDEST PUSH1 0x0 PUSH1 0x40 DUP3 ADD SWAP1 POP PUSH2 0x15B3 PUSH1 0x0 DUP4 ADD DUP6 PUSH2 0xFF9 JUMP JUMPDEST PUSH2 0x15C0 PUSH1 0x20 DUP4 ADD DUP5 PUSH2 0xF7D JUMP JUMPDEST SWAP4 SWAP3 POP POP POP JUMP JUMPDEST PUSH32 0x506F73744E4654204F776E657220666565207472616E73666572206661696C65 PUSH1 0x0 DUP3 ADD MSTORE PUSH32 0x6400000000000000000000000000000000000000000000000000000000000000 PUSH1 0x20 DUP3 ADD MSTORE POP JUMP JUMPDEST PUSH1 0x0 PUSH2 0x1623 PUSH1 0x21 DUP4 PUSH2 0x1134 JUMP JUMPDEST SWAP2 POP PUSH2 0x162E DUP3 PUSH2 0x15C7 JUMP JUMPDEST PUSH1 0x40 DUP3 ADD SWAP1 POP SWAP2 SWAP1 POP JUMP JUMPDEST PUSH1 0x0 PUSH1 0x20 DUP3 ADD SWAP1 POP DUP2 DUP2 SUB PUSH1 0x0 DUP4 ADD MSTORE PUSH2 0x1652 DUP2 PUSH2 0x1616 JUMP JUMPDEST SWAP1 POP SWAP2 SWAP1 POP JUMP JUMPDEST PUSH32 0x436F6E7472616374204F776E657220666565207472616E73666572206661696C PUSH1 0x0 DUP3 ADD MSTORE PUSH32 0x6564000000000000000000000000000000000000000000000000000000000000 PUSH1 0x20 DUP3 ADD MSTORE POP JUMP JUMPDEST PUSH1 0x0 PUSH2 0x16B5 PUSH1 0x22 DUP4 PUSH2 0x1134 JUMP JUMPDEST SWAP2 POP PUSH2 0x16C0 DUP3 PUSH2 0x1659 JUMP JUMPDEST PUSH1 0x40 DUP3 ADD SWAP1 POP SWAP2 SWAP1 POP JUMP JUMPDEST PUSH1 0x0 PUSH1 0x20 DUP3 ADD SWAP1 POP DUP2 DUP2 SUB PUSH1 0x0 DUP4 ADD MSTORE PUSH2 0x16E4 DUP2 PUSH2 0x16A8 JUMP JUMPDEST SWAP1 POP SWAP2 SWAP1 POP JUMP JUMPDEST PUSH32 0x5472616E73666572206661696C65640000000000000000000000000000000000 PUSH1 0x0 DUP3 ADD MSTORE POP JUMP JUMPDEST PUSH1 0x0 PUSH2 0x1721 PUSH1 0xF DUP4 PUSH2 0x1134 JUMP JUMPDEST SWAP2 POP PUSH2 0x172C DUP3 PUSH2 0x16EB JUMP JUMPDEST PUSH1 0x20 DUP3 ADD SWAP1 POP SWAP2 SWAP1 POP JUMP JUMPDEST PUSH1 0x0 PUSH1 0x20 DUP3 ADD SWAP1 POP DUP2 DUP2 SUB PUSH1 0x0 DUP4 ADD MSTORE PUSH2 0x1750 DUP2 PUSH2 0x1714 JUMP JUMPDEST SWAP1 POP SWAP2 SWAP1 POP JUMP JUMPDEST PUSH32 0x506F6F6C20686173206E6F74206265656E20696E697469616C697A65642E0000 PUSH1 0x0 DUP3 ADD MSTORE POP JUMP JUMPDEST PUSH1 0x0 PUSH2 0x178D PUSH1 0x1E DUP4 PUSH2 0x1134 JUMP JUMPDEST SWAP2 POP PUSH2 0x1798 DUP3 PUSH2 0x1757 JUMP JUMPDEST PUSH1 0x20 DUP3 ADD SWAP1 POP SWAP2 SWAP1 POP JUMP JUMPDEST PUSH1 0x0 PUSH1 0x20 DUP3 ADD SWAP1 POP DUP2 DUP2 SUB PUSH1 0x0 DUP4 ADD MSTORE PUSH2 0x17BC DUP2 PUSH2 0x1780 JUMP JUMPDEST SWAP1 POP SWAP2 SWAP1 POP JUMP INVALID LOG2 PUSH5 0x6970667358 0x22 SLT KECCAK256 POP PUSH16 0xC3512E9F07B609CA3DB963B6ADA141A0 POP 0xC6 CALLDATALOAD PUSH15 0xFE3BB2F15C0A178F82A364736F6C63 NUMBER STOP ADDMOD XOR STOP CALLER "
				},
				"gasEstimates": {
					"creation": {
						"codeDepositCost": "1227400",
						"executionCost": "infinite",
						"totalCost": "infinite"
					},
					"external": {
						"calculateShares(uint256,uint256,uint256)": "infinite",
						"contractOwnerFeePercent()": "2474",
						"deposit(uint256,uint256,uint256)": "infinite",
						"getPoolInfo(uint256,uint256)": "infinite",
						"getUserShares(uint256,uint256,address)": "infinite",
						"nftContract()": "infinite",
						"owner()": "2633",
						"postNFTOwnerFeePercent()": "2517",
						"reactToken()": "infinite",
						"renounceOwnership()": "infinite",
						"transferOwnership(address)": "infinite",
						"withdraw(uint256,uint256)": "infinite"
					}
				},
				"methodIdentifiers": {
					"calculateShares(uint256,uint256,uint256)": "eea04d09",
					"contractOwnerFeePercent()": "21bfa2fa",
					"deposit(uint256,uint256,uint256)": "00aeef8a",
					"getPoolInfo(uint256,uint256)": "c8c85bad",
					"getUserShares(uint256,uint256,address)": "a466f542",
					"nftContract()": "d56d229d",
					"owner()": "8da5cb5b",
					"postNFTOwnerFeePercent()": "f2bc2a62",
					"reactToken()": "127e2b15",
					"renounceOwnership()": "715018a6",
					"transferOwnership(address)": "f2fde38b",
					"withdraw(uint256,uint256)": "441a3e70"
				}
			},
			"storageLayout": {
				"storage": [
					{
						"astId": 8,
						"contract": "reactLiquidityPool.sol:ReactLiquidityPool",
						"label": "_owner",
						"offset": 0,
						"slot": "0",
						"type": "t_address"
					},
					{
						"astId": 396,
						"contract": "reactLiquidityPool.sol:ReactLiquidityPool",
						"label": "reactToken",
						"offset": 0,
						"slot": "1",
						"type": "t_contract(IERC20)225"
					},
					{
						"astId": 399,
						"contract": "reactLiquidityPool.sol:ReactLiquidityPool",
						"label": "nftContract",
						"offset": 0,
						"slot": "2",
						"type": "t_contract(IERC721)342"
					},
					{
						"astId": 402,
						"contract": "reactLiquidityPool.sol:ReactLiquidityPool",
						"label": "postNFTOwnerFeePercent",
						"offset": 0,
						"slot": "3",
						"type": "t_uint256"
					},
					{
						"astId": 405,
						"contract": "reactLiquidityPool.sol:ReactLiquidityPool",
						"label": "contractOwnerFeePercent",
						"offset": 0,
						"slot": "4",
						"type": "t_uint256"
					},
					{
						"astId": 430,
						"contract": "reactLiquidityPool.sol:ReactLiquidityPool",
						"label": "nftPools",
						"offset": 0,
						"slot": "5",
						"type": "t_mapping(t_uint256,t_struct(NFTPool)425_storage)"
					}
				],
				"types": {
					"t_address": {
						"encoding": "inplace",
						"label": "address",
						"numberOfBytes": "20"
					},
					"t_contract(IERC20)225": {
						"encoding": "inplace",
						"label": "contract IERC20",
						"numberOfBytes": "20"
					},
					"t_contract(IERC721)342": {
						"encoding": "inplace",
						"label": "contract IERC721",
						"numberOfBytes": "20"
					},
					"t_mapping(t_address,t_uint256)": {
						"encoding": "mapping",
						"key": "t_address",
						"label": "mapping(address => uint256)",
						"numberOfBytes": "32",
						"value": "t_uint256"
					},
					"t_mapping(t_uint256,t_struct(NFTPool)425_storage)": {
						"encoding": "mapping",
						"key": "t_uint256",
						"label": "mapping(uint256 => struct ReactLiquidityPool.NFTPool)",
						"numberOfBytes": "32",
						"value": "t_struct(NFTPool)425_storage"
					},
					"t_mapping(t_uint256,t_struct(Pool)419_storage)": {
						"encoding": "mapping",
						"key": "t_uint256",
						"label": "mapping(uint256 => struct ReactLiquidityPool.Pool)",
						"numberOfBytes": "32",
						"value": "t_struct(Pool)419_storage"
					},
					"t_struct(NFTPool)425_storage": {
						"encoding": "inplace",
						"label": "struct ReactLiquidityPool.NFTPool",
						"members": [
							{
								"astId": 424,
								"contract": "reactLiquidityPool.sol:ReactLiquidityPool",
								"label": "reacts",
								"offset": 0,
								"slot": "0",
								"type": "t_mapping(t_uint256,t_struct(Pool)419_storage)"
							}
						],
						"numberOfBytes": "32"
					},
					"t_struct(Pool)419_storage": {
						"encoding": "inplace",
						"label": "struct ReactLiquidityPool.Pool",
						"members": [
							{
								"astId": 410,
								"contract": "reactLiquidityPool.sol:ReactLiquidityPool",
								"label": "totalShares",
								"offset": 0,
								"slot": "0",
								"type": "t_uint256"
							},
							{
								"astId": 412,
								"contract": "reactLiquidityPool.sol:ReactLiquidityPool",
								"label": "totalDeposited",
								"offset": 0,
								"slot": "1",
								"type": "t_uint256"
							},
							{
								"astId": 414,
								"contract": "reactLiquidityPool.sol:ReactLiquidityPool",
								"label": "startBlock",
								"offset": 0,
								"slot": "2",
								"type": "t_uint256"
							},
							{
								"astId": 418,
								"contract": "reactLiquidityPool.sol:ReactLiquidityPool",
								"label": "userShares",
								"offset": 0,
								"slot": "3",
								"type": "t_mapping(t_address,t_uint256)"
							}
						],
						"numberOfBytes": "128"
					},
					"t_uint256": {
						"encoding": "inplace",
						"label": "uint256",
						"numberOfBytes": "32"
					}
				}
			},
			"userdoc": {
				"kind": "user",
				"methods": {},
				"version": 1
			}
		}
	}
}