{
	"reactsPool.sol": {
		"ReactLiquidityPool": {
			"abi": [
				{
					"inputs": [
						{
							"internalType": "address",
							"name": "_reactToken",
							"type": "address"
						}
					],
					"stateMutability": "nonpayable",
					"type": "constructor"
				},
				{
					"inputs": [
						{
							"internalType": "address",
							"name": "owner",
							"type": "address"
						}
					],
					"name": "OwnableInvalidOwner",
					"type": "error"
				},
				{
					"inputs": [
						{
							"internalType": "address",
							"name": "account",
							"type": "address"
						}
					],
					"name": "OwnableUnauthorizedAccount",
					"type": "error"
				},
				{
					"anonymous": false,
					"inputs": [
						{
							"indexed": true,
							"internalType": "address",
							"name": "previousOwner",
							"type": "address"
						},
						{
							"indexed": true,
							"internalType": "address",
							"name": "newOwner",
							"type": "address"
						}
					],
					"name": "OwnershipTransferred",
					"type": "event"
				},
				{
					"inputs": [
						{
							"internalType": "uint256",
							"name": "nftId",
							"type": "uint256"
						},
						{
							"internalType": "uint256",
							"name": "reactSubId",
							"type": "uint256"
						},
						{
							"internalType": "uint256",
							"name": "amount",
							"type": "uint256"
						}
					],
					"name": "calculateShares",
					"outputs": [
						{
							"internalType": "uint256",
							"name": "",
							"type": "uint256"
						}
					],
					"stateMutability": "view",
					"type": "function"
				},
				{
					"inputs": [
						{
							"internalType": "uint256",
							"name": "nftId",
							"type": "uint256"
						},
						{
							"internalType": "uint256",
							"name": "reactSubId",
							"type": "uint256"
						},
						{
							"internalType": "uint256",
							"name": "amount",
							"type": "uint256"
						}
					],
					"name": "deposit",
					"outputs": [],
					"stateMutability": "nonpayable",
					"type": "function"
				},
				{
					"inputs": [
						{
							"internalType": "uint256",
							"name": "nftId",
							"type": "uint256"
						},
						{
							"internalType": "uint256",
							"name": "reactSubId",
							"type": "uint256"
						}
					],
					"name": "getPoolInfo",
					"outputs": [
						{
							"internalType": "uint256",
							"name": "totalShares",
							"type": "uint256"
						},
						{
							"internalType": "uint256",
							"name": "totalDeposited",
							"type": "uint256"
						}
					],
					"stateMutability": "view",
					"type": "function"
				},
				{
					"inputs": [
						{
							"internalType": "uint256",
							"name": "nftId",
							"type": "uint256"
						},
						{
							"internalType": "uint256",
							"name": "reactSubId",
							"type": "uint256"
						},
						{
							"internalType": "address",
							"name": "user",
							"type": "address"
						}
					],
					"name": "getUserShares",
					"outputs": [
						{
							"internalType": "uint256",
							"name": "",
							"type": "uint256"
						}
					],
					"stateMutability": "view",
					"type": "function"
				},
				{
					"inputs": [],
					"name": "owner",
					"outputs": [
						{
							"internalType": "address",
							"name": "",
							"type": "address"
						}
					],
					"stateMutability": "view",
					"type": "function"
				},
				{
					"inputs": [],
					"name": "reactToken",
					"outputs": [
						{
							"internalType": "contract IERC20",
							"name": "",
							"type": "address"
						}
					],
					"stateMutability": "view",
					"type": "function"
				},
				{
					"inputs": [],
					"name": "renounceOwnership",
					"outputs": [],
					"stateMutability": "nonpayable",
					"type": "function"
				},
				{
					"inputs": [
						{
							"internalType": "address",
							"name": "newOwner",
							"type": "address"
						}
					],
					"name": "transferOwnership",
					"outputs": [],
					"stateMutability": "nonpayable",
					"type": "function"
				},
				{
					"inputs": [
						{
							"internalType": "uint256",
							"name": "nftId",
							"type": "uint256"
						},
						{
							"internalType": "uint256",
							"name": "reactSubId",
							"type": "uint256"
						}
					],
					"name": "withdraw",
					"outputs": [],
					"stateMutability": "nonpayable",
					"type": "function"
				}
			],
			"devdoc": {
				"errors": {
					"OwnableInvalidOwner(address)": [
						{
							"details": "The owner is not a valid owner account. (eg. `address(0)`)"
						}
					],
					"OwnableUnauthorizedAccount(address)": [
						{
							"details": "The caller account is not authorized to perform an operation."
						}
					]
				},
				"kind": "dev",
				"methods": {
					"owner()": {
						"details": "Returns the address of the current owner."
					},
					"renounceOwnership()": {
						"details": "Leaves the contract without owner. It will not be possible to call `onlyOwner` functions. Can only be called by the current owner. NOTE: Renouncing ownership will leave the contract without an owner, thereby disabling any functionality that is only available to the owner."
					},
					"transferOwnership(address)": {
						"details": "Transfers ownership of the contract to a new account (`newOwner`). Can only be called by the current owner."
					}
				},
				"version": 1
			},
			"evm": {
				"assembly": "    /* \"reactsPool.sol\":174:3966  contract ReactLiquidityPool is Ownable {... */\n  mstore(0x40, 0x80)\n    /* \"reactsPool.sol\":653:757  constructor(address _reactToken) Ownable(msg.sender) {... */\n  callvalue\n  dup1\n  iszero\n  tag_1\n  jumpi\n  0x00\n  dup1\n  revert\ntag_1:\n  pop\n  mload(0x40)\n  sub(codesize, bytecodeSize)\n  dup1\n  bytecodeSize\n  dup4\n  codecopy\n  dup2\n  dup2\n  add\n  0x40\n  mstore\n  dup2\n  add\n  swap1\n  tag_2\n  swap2\n  swap1\n  tag_3\n  jump\t// in\ntag_2:\n    /* \"reactsPool.sol\":694:704  msg.sender */\n  caller\n    /* \"@openzeppelin/contracts/access/Ownable.sol\":1297:1298  0 */\n  0x00\n    /* \"@openzeppelin/contracts/access/Ownable.sol\":1273:1299  initialOwner == address(0) */\n  0xffffffffffffffffffffffffffffffffffffffff\n  and\n    /* \"@openzeppelin/contracts/access/Ownable.sol\":1273:1285  initialOwner */\n  dup2\n    /* \"@openzeppelin/contracts/access/Ownable.sol\":1273:1299  initialOwner == address(0) */\n  0xffffffffffffffffffffffffffffffffffffffff\n  and\n  sub\n    /* \"@openzeppelin/contracts/access/Ownable.sol\":1269:1364  if (initialOwner == address(0)) {... */\n  tag_7\n  jumpi\n    /* \"@openzeppelin/contracts/access/Ownable.sol\":1350:1351  0 */\n  0x00\n    /* \"@openzeppelin/contracts/access/Ownable.sol\":1322:1353  OwnableInvalidOwner(address(0)) */\n  mload(0x40)\n  0x1e4fbdf700000000000000000000000000000000000000000000000000000000\n  dup2\n  mstore\n  0x04\n  add\n  tag_8\n  swap2\n  swap1\n  tag_9\n  jump\t// in\ntag_8:\n  mload(0x40)\n  dup1\n  swap2\n  sub\n  swap1\n  revert\n    /* \"@openzeppelin/contracts/access/Ownable.sol\":1269:1364  if (initialOwner == address(0)) {... */\ntag_7:\n    /* \"@openzeppelin/contracts/access/Ownable.sol\":1373:1405  _transferOwnership(initialOwner) */\n  tag_10\n    /* \"@openzeppelin/contracts/access/Ownable.sol\":1392:1404  initialOwner */\n  dup2\n    /* \"@openzeppelin/contracts/access/Ownable.sol\":1373:1391  _transferOwnership */\n  shl(0x20, tag_11)\n    /* \"@openzeppelin/contracts/access/Ownable.sol\":1373:1405  _transferOwnership(initialOwner) */\n  0x20\n  shr\n  jump\t// in\ntag_10:\n    /* \"@openzeppelin/contracts/access/Ownable.sol\":1225:1412  constructor(address initialOwner) {... */\n  pop\n    /* \"reactsPool.sol\":737:748  _reactToken */\n  dup1\n    /* \"reactsPool.sol\":717:727  reactToken */\n  0x01\n  0x00\n    /* \"reactsPool.sol\":717:749  reactToken = IERC20(_reactToken) */\n  0x0100\n  exp\n  dup2\n  sload\n  dup2\n  0xffffffffffffffffffffffffffffffffffffffff\n  mul\n  not\n  and\n  swap1\n  dup4\n  0xffffffffffffffffffffffffffffffffffffffff\n  and\n  mul\n  or\n  swap1\n  sstore\n  pop\n    /* \"reactsPool.sol\":653:757  constructor(address _reactToken) Ownable(msg.sender) {... */\n  pop\n    /* \"reactsPool.sol\":174:3966  contract ReactLiquidityPool is Ownable {... */\n  jump(tag_13)\n    /* \"@openzeppelin/contracts/access/Ownable.sol\":2912:3099  function _transferOwnership(address newOwner) internal virtual {... */\ntag_11:\n    /* \"@openzeppelin/contracts/access/Ownable.sol\":2985:3001  address oldOwner */\n  0x00\n    /* \"@openzeppelin/contracts/access/Ownable.sol\":3004:3010  _owner */\n  dup1\n  0x00\n  swap1\n  sload\n  swap1\n  0x0100\n  exp\n  swap1\n  div\n  0xffffffffffffffffffffffffffffffffffffffff\n  and\n    /* \"@openzeppelin/contracts/access/Ownable.sol\":2985:3010  address oldOwner = _owner */\n  swap1\n  pop\n    /* \"@openzeppelin/contracts/access/Ownable.sol\":3029:3037  newOwner */\n  dup2\n    /* \"@openzeppelin/contracts/access/Ownable.sol\":3020:3026  _owner */\n  0x00\n  dup1\n    /* \"@openzeppelin/contracts/access/Ownable.sol\":3020:3037  _owner = newOwner */\n  0x0100\n  exp\n  dup2\n  sload\n  dup2\n  0xffffffffffffffffffffffffffffffffffffffff\n  mul\n  not\n  and\n  swap1\n  dup4\n  0xffffffffffffffffffffffffffffffffffffffff\n  and\n  mul\n  or\n  swap1\n  sstore\n  pop\n    /* \"@openzeppelin/contracts/access/Ownable.sol\":3083:3091  newOwner */\n  dup2\n    /* \"@openzeppelin/contracts/access/Ownable.sol\":3052:3092  OwnershipTransferred(oldOwner, newOwner) */\n  0xffffffffffffffffffffffffffffffffffffffff\n  and\n    /* \"@openzeppelin/contracts/access/Ownable.sol\":3073:3081  oldOwner */\n  dup2\n    /* \"@openzeppelin/contracts/access/Ownable.sol\":3052:3092  OwnershipTransferred(oldOwner, newOwner) */\n  0xffffffffffffffffffffffffffffffffffffffff\n  and\n  0x8be0079c531659141344cd1fd0a4f28419497f9722a3daafe3b4186f6b6457e0\n  mload(0x40)\n  mload(0x40)\n  dup1\n  swap2\n  sub\n  swap1\n  log3\n    /* \"@openzeppelin/contracts/access/Ownable.sol\":2975:3099  {... */\n  pop\n    /* \"@openzeppelin/contracts/access/Ownable.sol\":2912:3099  function _transferOwnership(address newOwner) internal virtual {... */\n  pop\n  jump\t// out\n    /* \"#utility.yul\":88:205   */\ntag_16:\n    /* \"#utility.yul\":197:198   */\n  0x00\n    /* \"#utility.yul\":194:195   */\n  dup1\n    /* \"#utility.yul\":187:199   */\n  revert\n    /* \"#utility.yul\":334:460   */\ntag_18:\n    /* \"#utility.yul\":371:378   */\n  0x00\n    /* \"#utility.yul\":411:453   */\n  0xffffffffffffffffffffffffffffffffffffffff\n    /* \"#utility.yul\":404:409   */\n  dup3\n    /* \"#utility.yul\":400:454   */\n  and\n    /* \"#utility.yul\":389:454   */\n  swap1\n  pop\n    /* \"#utility.yul\":334:460   */\n  swap2\n  swap1\n  pop\n  jump\t// out\n    /* \"#utility.yul\":466:562   */\ntag_19:\n    /* \"#utility.yul\":503:510   */\n  0x00\n    /* \"#utility.yul\":532:556   */\n  tag_29\n    /* \"#utility.yul\":550:555   */\n  dup3\n    /* \"#utility.yul\":532:556   */\n  tag_18\n  jump\t// in\ntag_29:\n    /* \"#utility.yul\":521:556   */\n  swap1\n  pop\n    /* \"#utility.yul\":466:562   */\n  swap2\n  swap1\n  pop\n  jump\t// out\n    /* \"#utility.yul\":568:690   */\ntag_20:\n    /* \"#utility.yul\":641:665   */\n  tag_31\n    /* \"#utility.yul\":659:664   */\n  dup2\n    /* \"#utility.yul\":641:665   */\n  tag_19\n  jump\t// in\ntag_31:\n    /* \"#utility.yul\":634:639   */\n  dup2\n    /* \"#utility.yul\":631:666   */\n  eq\n    /* \"#utility.yul\":621:684   */\n  tag_32\n  jumpi\n    /* \"#utility.yul\":680:681   */\n  0x00\n    /* \"#utility.yul\":677:678   */\n  dup1\n    /* \"#utility.yul\":670:682   */\n  revert\n    /* \"#utility.yul\":621:684   */\ntag_32:\n    /* \"#utility.yul\":568:690   */\n  pop\n  jump\t// out\n    /* \"#utility.yul\":696:839   */\ntag_21:\n    /* \"#utility.yul\":753:758   */\n  0x00\n    /* \"#utility.yul\":784:790   */\n  dup2\n    /* \"#utility.yul\":778:791   */\n  mload\n    /* \"#utility.yul\":769:791   */\n  swap1\n  pop\n    /* \"#utility.yul\":800:833   */\n  tag_34\n    /* \"#utility.yul\":827:832   */\n  dup2\n    /* \"#utility.yul\":800:833   */\n  tag_20\n  jump\t// in\ntag_34:\n    /* \"#utility.yul\":696:839   */\n  swap3\n  swap2\n  pop\n  pop\n  jump\t// out\n    /* \"#utility.yul\":845:1196   */\ntag_3:\n    /* \"#utility.yul\":915:921   */\n  0x00\n    /* \"#utility.yul\":964:966   */\n  0x20\n    /* \"#utility.yul\":952:961   */\n  dup3\n    /* \"#utility.yul\":943:950   */\n  dup5\n    /* \"#utility.yul\":939:962   */\n  sub\n    /* \"#utility.yul\":935:967   */\n  slt\n    /* \"#utility.yul\":932:1051   */\n  iszero\n  tag_36\n  jumpi\n    /* \"#utility.yul\":970:1049   */\n  tag_37\n  tag_16\n  jump\t// in\ntag_37:\n    /* \"#utility.yul\":932:1051   */\ntag_36:\n    /* \"#utility.yul\":1090:1091   */\n  0x00\n    /* \"#utility.yul\":1115:1179   */\n  tag_38\n    /* \"#utility.yul\":1171:1178   */\n  dup5\n    /* \"#utility.yul\":1162:1168   */\n  dup3\n    /* \"#utility.yul\":1151:1160   */\n  dup6\n    /* \"#utility.yul\":1147:1169   */\n  add\n    /* \"#utility.yul\":1115:1179   */\n  tag_21\n  jump\t// in\ntag_38:\n    /* \"#utility.yul\":1105:1179   */\n  swap2\n  pop\n    /* \"#utility.yul\":1061:1189   */\n  pop\n    /* \"#utility.yul\":845:1196   */\n  swap3\n  swap2\n  pop\n  pop\n  jump\t// out\n    /* \"#utility.yul\":1202:1320   */\ntag_22:\n    /* \"#utility.yul\":1289:1313   */\n  tag_40\n    /* \"#utility.yul\":1307:1312   */\n  dup2\n    /* \"#utility.yul\":1289:1313   */\n  tag_19\n  jump\t// in\ntag_40:\n    /* \"#utility.yul\":1284:1287   */\n  dup3\n    /* \"#utility.yul\":1277:1314   */\n  mstore\n    /* \"#utility.yul\":1202:1320   */\n  pop\n  pop\n  jump\t// out\n    /* \"#utility.yul\":1326:1548   */\ntag_9:\n    /* \"#utility.yul\":1419:1423   */\n  0x00\n    /* \"#utility.yul\":1457:1459   */\n  0x20\n    /* \"#utility.yul\":1446:1455   */\n  dup3\n    /* \"#utility.yul\":1442:1460   */\n  add\n    /* \"#utility.yul\":1434:1460   */\n  swap1\n  pop\n    /* \"#utility.yul\":1470:1541   */\n  tag_42\n    /* \"#utility.yul\":1538:1539   */\n  0x00\n    /* \"#utility.yul\":1527:1536   */\n  dup4\n    /* \"#utility.yul\":1523:1540   */\n  add\n    /* \"#utility.yul\":1514:1520   */\n  dup5\n    /* \"#utility.yul\":1470:1541   */\n  tag_22\n  jump\t// in\ntag_42:\n    /* \"#utility.yul\":1326:1548   */\n  swap3\n  swap2\n  pop\n  pop\n  jump\t// out\n    /* \"reactsPool.sol\":174:3966  contract ReactLiquidityPool is Ownable {... */\ntag_13:\n  dataSize(sub_0)\n  dup1\n  dataOffset(sub_0)\n  0x00\n  codecopy\n  0x00\n  return\nstop\n\nsub_0: assembly {\n        /* \"reactsPool.sol\":174:3966  contract ReactLiquidityPool is Ownable {... */\n      mstore(0x40, 0x80)\n      callvalue\n      dup1\n      iszero\n      tag_1\n      jumpi\n      0x00\n      dup1\n      revert\n    tag_1:\n      pop\n      jumpi(tag_2, lt(calldatasize, 0x04))\n      shr(0xe0, calldataload(0x00))\n      dup1\n      0x8da5cb5b\n      gt\n      tag_12\n      jumpi\n      dup1\n      0x8da5cb5b\n      eq\n      tag_7\n      jumpi\n      dup1\n      0xa466f542\n      eq\n      tag_8\n      jumpi\n      dup1\n      0xc8c85bad\n      eq\n      tag_9\n      jumpi\n      dup1\n      0xeea04d09\n      eq\n      tag_10\n      jumpi\n      dup1\n      0xf2fde38b\n      eq\n      tag_11\n      jumpi\n      jump(tag_2)\n    tag_12:\n      dup1\n      0xaeef8a\n      eq\n      tag_3\n      jumpi\n      dup1\n      0x127e2b15\n      eq\n      tag_4\n      jumpi\n      dup1\n      0x441a3e70\n      eq\n      tag_5\n      jumpi\n      dup1\n      0x715018a6\n      eq\n      tag_6\n      jumpi\n    tag_2:\n      0x00\n      dup1\n      revert\n        /* \"reactsPool.sol\":850:1580  function deposit(uint256 nftId, uint256 reactSubId, uint256 amount) external {... */\n    tag_3:\n      tag_13\n      0x04\n      dup1\n      calldatasize\n      sub\n      dup2\n      add\n      swap1\n      tag_14\n      swap2\n      swap1\n      tag_15\n      jump\t// in\n    tag_14:\n      tag_16\n      jump\t// in\n    tag_13:\n      stop\n        /* \"reactsPool.sol\":220:244  IERC20 public reactToken */\n    tag_4:\n      tag_17\n      tag_18\n      jump\t// in\n    tag_17:\n      mload(0x40)\n      tag_19\n      swap2\n      swap1\n      tag_20\n      jump\t// in\n    tag_19:\n      mload(0x40)\n      dup1\n      swap2\n      sub\n      swap1\n      return\n        /* \"reactsPool.sol\":2639:3333  function withdraw(uint256 nftId, uint256 reactSubId) external {... */\n    tag_5:\n      tag_21\n      0x04\n      dup1\n      calldatasize\n      sub\n      dup2\n      add\n      swap1\n      tag_22\n      swap2\n      swap1\n      tag_23\n      jump\t// in\n    tag_22:\n      tag_24\n      jump\t// in\n    tag_21:\n      stop\n        /* \"@openzeppelin/contracts/access/Ownable.sol\":2293:2394  function renounceOwnership() public virtual onlyOwner {... */\n    tag_6:\n      tag_25\n      tag_26\n      jump\t// in\n    tag_25:\n      stop\n        /* \"@openzeppelin/contracts/access/Ownable.sol\":1638:1723  function owner() public view virtual returns (address) {... */\n    tag_7:\n      tag_27\n      tag_28\n      jump\t// in\n    tag_27:\n      mload(0x40)\n      tag_29\n      swap2\n      swap1\n      tag_30\n      jump\t// in\n    tag_29:\n      mload(0x40)\n      dup1\n      swap2\n      sub\n      swap1\n      return\n        /* \"reactsPool.sol\":3703:3963  function getUserShares(uint256 nftId, uint256 reactSubId, address user) external view returns (uint256) {... */\n    tag_8:\n      tag_31\n      0x04\n      dup1\n      calldatasize\n      sub\n      dup2\n      add\n      swap1\n      tag_32\n      swap2\n      swap1\n      tag_33\n      jump\t// in\n    tag_32:\n      tag_34\n      jump\t// in\n    tag_31:\n      mload(0x40)\n      tag_35\n      swap2\n      swap1\n      tag_36\n      jump\t// in\n    tag_35:\n      mload(0x40)\n      dup1\n      swap2\n      sub\n      swap1\n      return\n        /* \"reactsPool.sol\":3397:3695  function getPoolInfo(uint256 nftId, uint256 reactSubId) external view returns (uint256 totalShares, uint256 totalDeposited) {... */\n    tag_9:\n      tag_37\n      0x04\n      dup1\n      calldatasize\n      sub\n      dup2\n      add\n      swap1\n      tag_38\n      swap2\n      swap1\n      tag_23\n      jump\t// in\n    tag_38:\n      tag_39\n      jump\t// in\n    tag_37:\n      mload(0x40)\n      tag_40\n      swap3\n      swap2\n      swap1\n      tag_41\n      jump\t// in\n    tag_40:\n      mload(0x40)\n      dup1\n      swap2\n      sub\n      swap1\n      return\n        /* \"reactsPool.sol\":1642:2542  function calculateShares(uint256 nftId, uint256 reactSubId, uint256 amount) public view returns (uint256) {... */\n    tag_10:\n      tag_42\n      0x04\n      dup1\n      calldatasize\n      sub\n      dup2\n      add\n      swap1\n      tag_43\n      swap2\n      swap1\n      tag_15\n      jump\t// in\n    tag_43:\n      tag_44\n      jump\t// in\n    tag_42:\n      mload(0x40)\n      tag_45\n      swap2\n      swap1\n      tag_36\n      jump\t// in\n    tag_45:\n      mload(0x40)\n      dup1\n      swap2\n      sub\n      swap1\n      return\n        /* \"@openzeppelin/contracts/access/Ownable.sol\":2543:2758  function transferOwnership(address newOwner) public virtual onlyOwner {... */\n    tag_11:\n      tag_46\n      0x04\n      dup1\n      calldatasize\n      sub\n      dup2\n      add\n      swap1\n      tag_47\n      swap2\n      swap1\n      tag_48\n      jump\t// in\n    tag_47:\n      tag_49\n      jump\t// in\n    tag_46:\n      stop\n        /* \"reactsPool.sol\":850:1580  function deposit(uint256 nftId, uint256 reactSubId, uint256 amount) external {... */\n    tag_16:\n        /* \"reactsPool.sol\":955:956  0 */\n      0x00\n        /* \"reactsPool.sol\":946:952  amount */\n      dup2\n        /* \"reactsPool.sol\":946:956  amount > 0 */\n      gt\n        /* \"reactsPool.sol\":938:984  require(amount > 0, \"Amount must be positive\") */\n      tag_51\n      jumpi\n      mload(0x40)\n      0x08c379a000000000000000000000000000000000000000000000000000000000\n      dup2\n      mstore\n      0x04\n      add\n      tag_52\n      swap1\n      tag_53\n      jump\t// in\n    tag_52:\n      mload(0x40)\n      dup1\n      swap2\n      sub\n      swap1\n      revert\n    tag_51:\n        /* \"reactsPool.sol\":995:1018  NFTPool storage nftPool */\n      0x00\n        /* \"reactsPool.sol\":1021:1029  nftPools */\n      0x02\n        /* \"reactsPool.sol\":1021:1036  nftPools[nftId] */\n      0x00\n        /* \"reactsPool.sol\":1030:1035  nftId */\n      dup6\n        /* \"reactsPool.sol\":1021:1036  nftPools[nftId] */\n      dup2\n      mstore\n      0x20\n      add\n      swap1\n      dup2\n      mstore\n      0x20\n      add\n      0x00\n      keccak256\n        /* \"reactsPool.sol\":995:1036  NFTPool storage nftPool = nftPools[nftId] */\n      swap1\n      pop\n        /* \"reactsPool.sol\":1047:1064  Pool storage pool */\n      0x00\n        /* \"reactsPool.sol\":1067:1074  nftPool */\n      dup2\n        /* \"reactsPool.sol\":1067:1081  nftPool.reacts */\n      0x00\n      add\n        /* \"reactsPool.sol\":1067:1093  nftPool.reacts[reactSubId] */\n      0x00\n        /* \"reactsPool.sol\":1082:1092  reactSubId */\n      dup6\n        /* \"reactsPool.sol\":1067:1093  nftPool.reacts[reactSubId] */\n      dup2\n      mstore\n      0x20\n      add\n      swap1\n      dup2\n      mstore\n      0x20\n      add\n      0x00\n      keccak256\n        /* \"reactsPool.sol\":1047:1093  Pool storage pool = nftPool.reacts[reactSubId] */\n      swap1\n      pop\n        /* \"reactsPool.sol\":1171:1185  uint256 shares */\n      0x00\n        /* \"reactsPool.sol\":1188:1230  calculateShares(nftId, reactSubId, amount) */\n      tag_54\n        /* \"reactsPool.sol\":1204:1209  nftId */\n      dup7\n        /* \"reactsPool.sol\":1211:1221  reactSubId */\n      dup7\n        /* \"reactsPool.sol\":1223:1229  amount */\n      dup7\n        /* \"reactsPool.sol\":1188:1203  calculateShares */\n      tag_44\n        /* \"reactsPool.sol\":1188:1230  calculateShares(nftId, reactSubId, amount) */\n      jump\t// in\n    tag_54:\n        /* \"reactsPool.sol\":1171:1230  uint256 shares = calculateShares(nftId, reactSubId, amount) */\n      swap1\n      pop\n        /* \"reactsPool.sol\":1314:1324  reactToken */\n      0x01\n      0x00\n      swap1\n      sload\n      swap1\n      0x0100\n      exp\n      swap1\n      div\n      0xffffffffffffffffffffffffffffffffffffffff\n      and\n        /* \"reactsPool.sol\":1314:1337  reactToken.transferFrom */\n      0xffffffffffffffffffffffffffffffffffffffff\n      and\n      0x23b872dd\n        /* \"reactsPool.sol\":1338:1348  msg.sender */\n      caller\n        /* \"reactsPool.sol\":1358:1362  this */\n      address\n        /* \"reactsPool.sol\":1365:1371  amount */\n      dup8\n        /* \"reactsPool.sol\":1314:1372  reactToken.transferFrom(msg.sender, address(this), amount) */\n      mload(0x40)\n      dup5\n      0xffffffff\n      and\n      0xe0\n      shl\n      dup2\n      mstore\n      0x04\n      add\n      tag_55\n      swap4\n      swap3\n      swap2\n      swap1\n      tag_56\n      jump\t// in\n    tag_55:\n      0x20\n      mload(0x40)\n      dup1\n      dup4\n      sub\n      dup2\n      0x00\n      dup8\n      gas\n      call\n      iszero\n      dup1\n      iszero\n      tag_58\n      jumpi\n      returndatasize\n      0x00\n      dup1\n      returndatacopy\n      revert(0x00, returndatasize)\n    tag_58:\n      pop\n      pop\n      pop\n      pop\n      mload(0x40)\n      returndatasize\n      not(0x1f)\n      0x1f\n      dup3\n      add\n      and\n      dup3\n      add\n      dup1\n      0x40\n      mstore\n      pop\n      dup2\n      add\n      swap1\n      tag_59\n      swap2\n      swap1\n      tag_60\n      jump\t// in\n    tag_59:\n        /* \"reactsPool.sol\":1306:1392  require(reactToken.transferFrom(msg.sender, address(this), amount), \"Transfer failed\") */\n      tag_61\n      jumpi\n      mload(0x40)\n      0x08c379a000000000000000000000000000000000000000000000000000000000\n      dup2\n      mstore\n      0x04\n      add\n      tag_62\n      swap1\n      tag_63\n      jump\t// in\n    tag_62:\n      mload(0x40)\n      dup1\n      swap2\n      sub\n      swap1\n      revert\n    tag_61:\n        /* \"reactsPool.sol\":1481:1487  amount */\n      dup4\n        /* \"reactsPool.sol\":1458:1462  pool */\n      dup3\n        /* \"reactsPool.sol\":1458:1477  pool.totalDeposited */\n      0x01\n      add\n      0x00\n        /* \"reactsPool.sol\":1458:1487  pool.totalDeposited += amount */\n      dup3\n      dup3\n      sload\n      tag_64\n      swap2\n      swap1\n      tag_65\n      jump\t// in\n    tag_64:\n      swap3\n      pop\n      pop\n      dup2\n      swap1\n      sstore\n      pop\n        /* \"reactsPool.sol\":1529:1535  shares */\n      dup1\n        /* \"reactsPool.sol\":1498:1502  pool */\n      dup3\n        /* \"reactsPool.sol\":1498:1513  pool.userShares */\n      0x02\n      add\n        /* \"reactsPool.sol\":1498:1525  pool.userShares[msg.sender] */\n      0x00\n        /* \"reactsPool.sol\":1514:1524  msg.sender */\n      caller\n        /* \"reactsPool.sol\":1498:1525  pool.userShares[msg.sender] */\n      0xffffffffffffffffffffffffffffffffffffffff\n      and\n      0xffffffffffffffffffffffffffffffffffffffff\n      and\n      dup2\n      mstore\n      0x20\n      add\n      swap1\n      dup2\n      mstore\n      0x20\n      add\n      0x00\n      keccak256\n      0x00\n        /* \"reactsPool.sol\":1498:1535  pool.userShares[msg.sender] += shares */\n      dup3\n      dup3\n      sload\n      tag_66\n      swap2\n      swap1\n      tag_65\n      jump\t// in\n    tag_66:\n      swap3\n      pop\n      pop\n      dup2\n      swap1\n      sstore\n      pop\n        /* \"reactsPool.sol\":1566:1572  shares */\n      dup1\n        /* \"reactsPool.sol\":1546:1550  pool */\n      dup3\n        /* \"reactsPool.sol\":1546:1562  pool.totalShares */\n      0x00\n      add\n      0x00\n        /* \"reactsPool.sol\":1546:1572  pool.totalShares += shares */\n      dup3\n      dup3\n      sload\n      tag_67\n      swap2\n      swap1\n      tag_65\n      jump\t// in\n    tag_67:\n      swap3\n      pop\n      pop\n      dup2\n      swap1\n      sstore\n      pop\n        /* \"reactsPool.sol\":927:1580  {... */\n      pop\n      pop\n      pop\n        /* \"reactsPool.sol\":850:1580  function deposit(uint256 nftId, uint256 reactSubId, uint256 amount) external {... */\n      pop\n      pop\n      pop\n      jump\t// out\n        /* \"reactsPool.sol\":220:244  IERC20 public reactToken */\n    tag_18:\n      0x01\n      0x00\n      swap1\n      sload\n      swap1\n      0x0100\n      exp\n      swap1\n      div\n      0xffffffffffffffffffffffffffffffffffffffff\n      and\n      dup2\n      jump\t// out\n        /* \"reactsPool.sol\":2639:3333  function withdraw(uint256 nftId, uint256 reactSubId) external {... */\n    tag_24:\n        /* \"reactsPool.sol\":2712:2735  NFTPool storage nftPool */\n      0x00\n        /* \"reactsPool.sol\":2738:2746  nftPools */\n      0x02\n        /* \"reactsPool.sol\":2738:2753  nftPools[nftId] */\n      0x00\n        /* \"reactsPool.sol\":2747:2752  nftId */\n      dup5\n        /* \"reactsPool.sol\":2738:2753  nftPools[nftId] */\n      dup2\n      mstore\n      0x20\n      add\n      swap1\n      dup2\n      mstore\n      0x20\n      add\n      0x00\n      keccak256\n        /* \"reactsPool.sol\":2712:2753  NFTPool storage nftPool = nftPools[nftId] */\n      swap1\n      pop\n        /* \"reactsPool.sol\":2764:2781  Pool storage pool */\n      0x00\n        /* \"reactsPool.sol\":2784:2791  nftPool */\n      dup2\n        /* \"reactsPool.sol\":2784:2798  nftPool.reacts */\n      0x00\n      add\n        /* \"reactsPool.sol\":2784:2810  nftPool.reacts[reactSubId] */\n      0x00\n        /* \"reactsPool.sol\":2799:2809  reactSubId */\n      dup5\n        /* \"reactsPool.sol\":2784:2810  nftPool.reacts[reactSubId] */\n      dup2\n      mstore\n      0x20\n      add\n      swap1\n      dup2\n      mstore\n      0x20\n      add\n      0x00\n      keccak256\n        /* \"reactsPool.sol\":2764:2810  Pool storage pool = nftPool.reacts[reactSubId] */\n      swap1\n      pop\n        /* \"reactsPool.sol\":2821:2839  uint256 userShares */\n      0x00\n        /* \"reactsPool.sol\":2842:2846  pool */\n      dup2\n        /* \"reactsPool.sol\":2842:2857  pool.userShares */\n      0x02\n      add\n        /* \"reactsPool.sol\":2842:2869  pool.userShares[msg.sender] */\n      0x00\n        /* \"reactsPool.sol\":2858:2868  msg.sender */\n      caller\n        /* \"reactsPool.sol\":2842:2869  pool.userShares[msg.sender] */\n      0xffffffffffffffffffffffffffffffffffffffff\n      and\n      0xffffffffffffffffffffffffffffffffffffffff\n      and\n      dup2\n      mstore\n      0x20\n      add\n      swap1\n      dup2\n      mstore\n      0x20\n      add\n      0x00\n      keccak256\n      sload\n        /* \"reactsPool.sol\":2821:2869  uint256 userShares = pool.userShares[msg.sender] */\n      swap1\n      pop\n        /* \"reactsPool.sol\":2901:2902  0 */\n      0x00\n        /* \"reactsPool.sol\":2888:2898  userShares */\n      dup2\n        /* \"reactsPool.sol\":2888:2902  userShares > 0 */\n      gt\n        /* \"reactsPool.sol\":2880:2928  require(userShares > 0, \"No shares to withdraw\") */\n      tag_69\n      jumpi\n      mload(0x40)\n      0x08c379a000000000000000000000000000000000000000000000000000000000\n      dup2\n      mstore\n      0x04\n      add\n      tag_70\n      swap1\n      tag_71\n      jump\t// in\n    tag_70:\n      mload(0x40)\n      dup1\n      swap2\n      sub\n      swap1\n      revert\n    tag_69:\n        /* \"reactsPool.sol\":2941:2963  uint256 withdrawAmount */\n      0x00\n        /* \"reactsPool.sol\":3003:3007  pool */\n      dup3\n        /* \"reactsPool.sol\":3003:3019  pool.totalShares */\n      0x00\n      add\n      sload\n        /* \"reactsPool.sol\":2989:2999  userShares */\n      dup3\n        /* \"reactsPool.sol\":2967:2971  pool */\n      dup5\n        /* \"reactsPool.sol\":2967:2986  pool.totalDeposited */\n      0x01\n      add\n      sload\n        /* \"reactsPool.sol\":2967:2999  pool.totalDeposited * userShares */\n      tag_72\n      swap2\n      swap1\n      tag_73\n      jump\t// in\n    tag_72:\n        /* \"reactsPool.sol\":2966:3019  (pool.totalDeposited * userShares) / pool.totalShares */\n      tag_74\n      swap2\n      swap1\n      tag_75\n      jump\t// in\n    tag_74:\n        /* \"reactsPool.sol\":2941:3019  uint256 withdrawAmount = (pool.totalDeposited * userShares) / pool.totalShares */\n      swap1\n      pop\n        /* \"reactsPool.sol\":3091:3105  withdrawAmount */\n      dup1\n        /* \"reactsPool.sol\":3068:3072  pool */\n      dup4\n        /* \"reactsPool.sol\":3068:3087  pool.totalDeposited */\n      0x01\n      add\n      0x00\n        /* \"reactsPool.sol\":3068:3105  pool.totalDeposited -= withdrawAmount */\n      dup3\n      dup3\n      sload\n      tag_76\n      swap2\n      swap1\n      tag_77\n      jump\t// in\n    tag_76:\n      swap3\n      pop\n      pop\n      dup2\n      swap1\n      sstore\n      pop\n        /* \"reactsPool.sol\":3136:3146  userShares */\n      dup2\n        /* \"reactsPool.sol\":3116:3120  pool */\n      dup4\n        /* \"reactsPool.sol\":3116:3132  pool.totalShares */\n      0x00\n      add\n      0x00\n        /* \"reactsPool.sol\":3116:3146  pool.totalShares -= userShares */\n      dup3\n      dup3\n      sload\n      tag_78\n      swap2\n      swap1\n      tag_77\n      jump\t// in\n    tag_78:\n      swap3\n      pop\n      pop\n      dup2\n      swap1\n      sstore\n      pop\n        /* \"reactsPool.sol\":3164:3168  pool */\n      dup3\n        /* \"reactsPool.sol\":3164:3179  pool.userShares */\n      0x02\n      add\n        /* \"reactsPool.sol\":3164:3191  pool.userShares[msg.sender] */\n      0x00\n        /* \"reactsPool.sol\":3180:3190  msg.sender */\n      caller\n        /* \"reactsPool.sol\":3164:3191  pool.userShares[msg.sender] */\n      0xffffffffffffffffffffffffffffffffffffffff\n      and\n      0xffffffffffffffffffffffffffffffffffffffff\n      and\n      dup2\n      mstore\n      0x20\n      add\n      swap1\n      dup2\n      mstore\n      0x20\n      add\n      0x00\n      keccak256\n        /* \"reactsPool.sol\":3157:3191  delete pool.userShares[msg.sender] */\n      0x00\n      swap1\n      sstore\n        /* \"reactsPool.sol\":3258:3268  reactToken */\n      0x01\n      0x00\n      swap1\n      sload\n      swap1\n      0x0100\n      exp\n      swap1\n      div\n      0xffffffffffffffffffffffffffffffffffffffff\n      and\n        /* \"reactsPool.sol\":3258:3277  reactToken.transfer */\n      0xffffffffffffffffffffffffffffffffffffffff\n      and\n      0xa9059cbb\n        /* \"reactsPool.sol\":3278:3288  msg.sender */\n      caller\n        /* \"reactsPool.sol\":3290:3304  withdrawAmount */\n      dup4\n        /* \"reactsPool.sol\":3258:3305  reactToken.transfer(msg.sender, withdrawAmount) */\n      mload(0x40)\n      dup4\n      0xffffffff\n      and\n      0xe0\n      shl\n      dup2\n      mstore\n      0x04\n      add\n      tag_79\n      swap3\n      swap2\n      swap1\n      tag_80\n      jump\t// in\n    tag_79:\n      0x20\n      mload(0x40)\n      dup1\n      dup4\n      sub\n      dup2\n      0x00\n      dup8\n      gas\n      call\n      iszero\n      dup1\n      iszero\n      tag_82\n      jumpi\n      returndatasize\n      0x00\n      dup1\n      returndatacopy\n      revert(0x00, returndatasize)\n    tag_82:\n      pop\n      pop\n      pop\n      pop\n      mload(0x40)\n      returndatasize\n      not(0x1f)\n      0x1f\n      dup3\n      add\n      and\n      dup3\n      add\n      dup1\n      0x40\n      mstore\n      pop\n      dup2\n      add\n      swap1\n      tag_83\n      swap2\n      swap1\n      tag_60\n      jump\t// in\n    tag_83:\n        /* \"reactsPool.sol\":3250:3325  require(reactToken.transfer(msg.sender, withdrawAmount), \"Transfer failed\") */\n      tag_84\n      jumpi\n      mload(0x40)\n      0x08c379a000000000000000000000000000000000000000000000000000000000\n      dup2\n      mstore\n      0x04\n      add\n      tag_85\n      swap1\n      tag_63\n      jump\t// in\n    tag_85:\n      mload(0x40)\n      dup1\n      swap2\n      sub\n      swap1\n      revert\n    tag_84:\n        /* \"reactsPool.sol\":2701:3333  {... */\n      pop\n      pop\n      pop\n      pop\n        /* \"reactsPool.sol\":2639:3333  function withdraw(uint256 nftId, uint256 reactSubId) external {... */\n      pop\n      pop\n      jump\t// out\n        /* \"@openzeppelin/contracts/access/Ownable.sol\":2293:2394  function renounceOwnership() public virtual onlyOwner {... */\n    tag_26:\n        /* \"@openzeppelin/contracts/access/Ownable.sol\":1531:1544  _checkOwner() */\n      tag_87\n        /* \"@openzeppelin/contracts/access/Ownable.sol\":1531:1542  _checkOwner */\n      tag_88\n        /* \"@openzeppelin/contracts/access/Ownable.sol\":1531:1544  _checkOwner() */\n      jump\t// in\n    tag_87:\n        /* \"@openzeppelin/contracts/access/Ownable.sol\":2357:2387  _transferOwnership(address(0)) */\n      tag_90\n        /* \"@openzeppelin/contracts/access/Ownable.sol\":2384:2385  0 */\n      0x00\n        /* \"@openzeppelin/contracts/access/Ownable.sol\":2357:2375  _transferOwnership */\n      tag_91\n        /* \"@openzeppelin/contracts/access/Ownable.sol\":2357:2387  _transferOwnership(address(0)) */\n      jump\t// in\n    tag_90:\n        /* \"@openzeppelin/contracts/access/Ownable.sol\":2293:2394  function renounceOwnership() public virtual onlyOwner {... */\n      jump\t// out\n        /* \"@openzeppelin/contracts/access/Ownable.sol\":1638:1723  function owner() public view virtual returns (address) {... */\n    tag_28:\n        /* \"@openzeppelin/contracts/access/Ownable.sol\":1684:1691  address */\n      0x00\n        /* \"@openzeppelin/contracts/access/Ownable.sol\":1710:1716  _owner */\n      dup1\n      0x00\n      swap1\n      sload\n      swap1\n      0x0100\n      exp\n      swap1\n      div\n      0xffffffffffffffffffffffffffffffffffffffff\n      and\n        /* \"@openzeppelin/contracts/access/Ownable.sol\":1703:1716  return _owner */\n      swap1\n      pop\n        /* \"@openzeppelin/contracts/access/Ownable.sol\":1638:1723  function owner() public view virtual returns (address) {... */\n      swap1\n      jump\t// out\n        /* \"reactsPool.sol\":3703:3963  function getUserShares(uint256 nftId, uint256 reactSubId, address user) external view returns (uint256) {... */\n    tag_34:\n        /* \"reactsPool.sol\":3798:3805  uint256 */\n      0x00\n        /* \"reactsPool.sol\":3818:3841  NFTPool storage nftPool */\n      dup1\n        /* \"reactsPool.sol\":3844:3852  nftPools */\n      0x02\n        /* \"reactsPool.sol\":3844:3859  nftPools[nftId] */\n      0x00\n        /* \"reactsPool.sol\":3853:3858  nftId */\n      dup7\n        /* \"reactsPool.sol\":3844:3859  nftPools[nftId] */\n      dup2\n      mstore\n      0x20\n      add\n      swap1\n      dup2\n      mstore\n      0x20\n      add\n      0x00\n      keccak256\n        /* \"reactsPool.sol\":3818:3859  NFTPool storage nftPool = nftPools[nftId] */\n      swap1\n      pop\n        /* \"reactsPool.sol\":3870:3887  Pool storage pool */\n      0x00\n        /* \"reactsPool.sol\":3890:3897  nftPool */\n      dup2\n        /* \"reactsPool.sol\":3890:3904  nftPool.reacts */\n      0x00\n      add\n        /* \"reactsPool.sol\":3890:3916  nftPool.reacts[reactSubId] */\n      0x00\n        /* \"reactsPool.sol\":3905:3915  reactSubId */\n      dup7\n        /* \"reactsPool.sol\":3890:3916  nftPool.reacts[reactSubId] */\n      dup2\n      mstore\n      0x20\n      add\n      swap1\n      dup2\n      mstore\n      0x20\n      add\n      0x00\n      keccak256\n        /* \"reactsPool.sol\":3870:3916  Pool storage pool = nftPool.reacts[reactSubId] */\n      swap1\n      pop\n        /* \"reactsPool.sol\":3934:3938  pool */\n      dup1\n        /* \"reactsPool.sol\":3934:3949  pool.userShares */\n      0x02\n      add\n        /* \"reactsPool.sol\":3934:3955  pool.userShares[user] */\n      0x00\n        /* \"reactsPool.sol\":3950:3954  user */\n      dup6\n        /* \"reactsPool.sol\":3934:3955  pool.userShares[user] */\n      0xffffffffffffffffffffffffffffffffffffffff\n      and\n      0xffffffffffffffffffffffffffffffffffffffff\n      and\n      dup2\n      mstore\n      0x20\n      add\n      swap1\n      dup2\n      mstore\n      0x20\n      add\n      0x00\n      keccak256\n      sload\n        /* \"reactsPool.sol\":3927:3955  return pool.userShares[user] */\n      swap3\n      pop\n      pop\n      pop\n        /* \"reactsPool.sol\":3703:3963  function getUserShares(uint256 nftId, uint256 reactSubId, address user) external view returns (uint256) {... */\n      swap4\n      swap3\n      pop\n      pop\n      pop\n      jump\t// out\n        /* \"reactsPool.sol\":3397:3695  function getPoolInfo(uint256 nftId, uint256 reactSubId) external view returns (uint256 totalShares, uint256 totalDeposited) {... */\n    tag_39:\n        /* \"reactsPool.sol\":3476:3495  uint256 totalShares */\n      0x00\n        /* \"reactsPool.sol\":3497:3519  uint256 totalDeposited */\n      dup1\n        /* \"reactsPool.sol\":3532:3555  NFTPool storage nftPool */\n      0x00\n        /* \"reactsPool.sol\":3558:3566  nftPools */\n      0x02\n        /* \"reactsPool.sol\":3558:3573  nftPools[nftId] */\n      0x00\n        /* \"reactsPool.sol\":3567:3572  nftId */\n      dup7\n        /* \"reactsPool.sol\":3558:3573  nftPools[nftId] */\n      dup2\n      mstore\n      0x20\n      add\n      swap1\n      dup2\n      mstore\n      0x20\n      add\n      0x00\n      keccak256\n        /* \"reactsPool.sol\":3532:3573  NFTPool storage nftPool = nftPools[nftId] */\n      swap1\n      pop\n        /* \"reactsPool.sol\":3584:3601  Pool storage pool */\n      0x00\n        /* \"reactsPool.sol\":3604:3611  nftPool */\n      dup2\n        /* \"reactsPool.sol\":3604:3618  nftPool.reacts */\n      0x00\n      add\n        /* \"reactsPool.sol\":3604:3630  nftPool.reacts[reactSubId] */\n      0x00\n        /* \"reactsPool.sol\":3619:3629  reactSubId */\n      dup7\n        /* \"reactsPool.sol\":3604:3630  nftPool.reacts[reactSubId] */\n      dup2\n      mstore\n      0x20\n      add\n      swap1\n      dup2\n      mstore\n      0x20\n      add\n      0x00\n      keccak256\n        /* \"reactsPool.sol\":3584:3630  Pool storage pool = nftPool.reacts[reactSubId] */\n      swap1\n      pop\n        /* \"reactsPool.sol\":3649:3653  pool */\n      dup1\n        /* \"reactsPool.sol\":3649:3665  pool.totalShares */\n      0x00\n      add\n      sload\n        /* \"reactsPool.sol\":3667:3671  pool */\n      dup2\n        /* \"reactsPool.sol\":3667:3686  pool.totalDeposited */\n      0x01\n      add\n      sload\n        /* \"reactsPool.sol\":3641:3687  return (pool.totalShares, pool.totalDeposited) */\n      swap4\n      pop\n      swap4\n      pop\n      pop\n      pop\n        /* \"reactsPool.sol\":3397:3695  function getPoolInfo(uint256 nftId, uint256 reactSubId) external view returns (uint256 totalShares, uint256 totalDeposited) {... */\n      swap3\n      pop\n      swap3\n      swap1\n      pop\n      jump\t// out\n        /* \"reactsPool.sol\":1642:2542  function calculateShares(uint256 nftId, uint256 reactSubId, uint256 amount) public view returns (uint256) {... */\n    tag_44:\n        /* \"reactsPool.sol\":1739:1746  uint256 */\n      0x00\n        /* \"reactsPool.sol\":1755:1778  NFTPool storage nftPool */\n      dup1\n        /* \"reactsPool.sol\":1781:1789  nftPools */\n      0x02\n        /* \"reactsPool.sol\":1781:1796  nftPools[nftId] */\n      0x00\n        /* \"reactsPool.sol\":1790:1795  nftId */\n      dup7\n        /* \"reactsPool.sol\":1781:1796  nftPools[nftId] */\n      dup2\n      mstore\n      0x20\n      add\n      swap1\n      dup2\n      mstore\n      0x20\n      add\n      0x00\n      keccak256\n        /* \"reactsPool.sol\":1755:1796  NFTPool storage nftPool = nftPools[nftId] */\n      swap1\n      pop\n        /* \"reactsPool.sol\":1803:1820  Pool storage pool */\n      0x00\n        /* \"reactsPool.sol\":1823:1830  nftPool */\n      dup2\n        /* \"reactsPool.sol\":1823:1837  nftPool.reacts */\n      0x00\n      add\n        /* \"reactsPool.sol\":1823:1849  nftPool.reacts[reactSubId] */\n      0x00\n        /* \"reactsPool.sol\":1838:1848  reactSubId */\n      dup7\n        /* \"reactsPool.sol\":1823:1849  nftPool.reacts[reactSubId] */\n      dup2\n      mstore\n      0x20\n      add\n      swap1\n      dup2\n      mstore\n      0x20\n      add\n      0x00\n      keccak256\n        /* \"reactsPool.sol\":1803:1849  Pool storage pool = nftPool.reacts[reactSubId] */\n      swap1\n      pop\n        /* \"reactsPool.sol\":1856:1881  uint256 diminishingFactor */\n      0x00\n        /* \"reactsPool.sol\":1884:1889  10000 */\n      0x2710\n        /* \"reactsPool.sol\":1856:1889  uint256 diminishingFactor = 10000 */\n      swap1\n      pop\n        /* \"reactsPool.sol\":1990:1991  0 */\n      0x00\n        /* \"reactsPool.sol\":1967:1971  pool */\n      dup3\n        /* \"reactsPool.sol\":1967:1986  pool.totalDeposited */\n      0x01\n      add\n      sload\n        /* \"reactsPool.sol\":1967:1991  pool.totalDeposited == 0 */\n      sub\n        /* \"reactsPool.sol\":1963:2078  if (pool.totalDeposited == 0) {... */\n      tag_96\n      jumpi\n        /* \"reactsPool.sol\":2020:2021  2 */\n      0x02\n        /* \"reactsPool.sol\":2011:2017  amount */\n      dup6\n        /* \"reactsPool.sol\":2011:2021  amount * 2 */\n      tag_97\n      swap2\n      swap1\n      tag_73\n      jump\t// in\n    tag_97:\n        /* \"reactsPool.sol\":2004:2021  return amount * 2 */\n      swap4\n      pop\n      pop\n      pop\n      pop\n      jump(tag_95)\n        /* \"reactsPool.sol\":1963:2078  if (pool.totalDeposited == 0) {... */\n    tag_96:\n        /* \"reactsPool.sol\":2086:2098  uint256 rate */\n      0x00\n        /* \"reactsPool.sol\":2144:2161  diminishingFactor */\n      dup2\n        /* \"reactsPool.sol\":2122:2126  pool */\n      dup4\n        /* \"reactsPool.sol\":2122:2141  pool.totalDeposited */\n      0x01\n      add\n      sload\n        /* \"reactsPool.sol\":2122:2161  pool.totalDeposited / diminishingFactor */\n      tag_98\n      swap2\n      swap1\n      tag_75\n      jump\t// in\n    tag_98:\n        /* \"reactsPool.sol\":2101:2118  diminishingFactor */\n      dup3\n        /* \"reactsPool.sol\":2101:2162  diminishingFactor - (pool.totalDeposited / diminishingFactor) */\n      tag_99\n      swap2\n      swap1\n      tag_77\n      jump\t// in\n    tag_99:\n        /* \"reactsPool.sol\":2086:2162  uint256 rate = diminishingFactor - (pool.totalDeposited / diminishingFactor) */\n      swap1\n      pop\n        /* \"reactsPool.sol\":2203:2204  2 */\n      0x02\n        /* \"reactsPool.sol\":2183:2200  diminishingFactor */\n      dup3\n        /* \"reactsPool.sol\":2183:2204  diminishingFactor / 2 */\n      tag_100\n      swap2\n      swap1\n      tag_75\n      jump\t// in\n    tag_100:\n        /* \"reactsPool.sol\":2176:2180  rate */\n      dup2\n        /* \"reactsPool.sol\":2176:2204  rate < diminishingFactor / 2 */\n      lt\n        /* \"reactsPool.sol\":2176:2235  rate < diminishingFactor / 2 ? diminishingFactor / 2 : rate */\n      tag_101\n      jumpi\n        /* \"reactsPool.sol\":2231:2235  rate */\n      dup1\n        /* \"reactsPool.sol\":2176:2235  rate < diminishingFactor / 2 ? diminishingFactor / 2 : rate */\n      jump(tag_102)\n    tag_101:\n        /* \"reactsPool.sol\":2227:2228  2 */\n      0x02\n        /* \"reactsPool.sol\":2207:2224  diminishingFactor */\n      dup3\n        /* \"reactsPool.sol\":2207:2228  diminishingFactor / 2 */\n      tag_103\n      swap2\n      swap1\n      tag_75\n      jump\t// in\n    tag_103:\n        /* \"reactsPool.sol\":2176:2235  rate < diminishingFactor / 2 ? diminishingFactor / 2 : rate */\n    tag_102:\n        /* \"reactsPool.sol\":2169:2235  rate = rate < diminishingFactor / 2 ? diminishingFactor / 2 : rate */\n      swap1\n      pop\n        /* \"reactsPool.sol\":2520:2537  diminishingFactor */\n      dup2\n        /* \"reactsPool.sol\":2498:2502  pool */\n      dup4\n        /* \"reactsPool.sol\":2498:2517  pool.totalDeposited */\n      0x01\n      add\n      sload\n        /* \"reactsPool.sol\":2498:2537  pool.totalDeposited * diminishingFactor */\n      tag_104\n      swap2\n      swap1\n      tag_73\n      jump\t// in\n    tag_104:\n        /* \"reactsPool.sol\":2489:2493  rate */\n      dup2\n        /* \"reactsPool.sol\":2470:2474  pool */\n      dup5\n        /* \"reactsPool.sol\":2470:2486  pool.totalShares */\n      0x00\n      add\n      sload\n        /* \"reactsPool.sol\":2461:2467  amount */\n      dup9\n        /* \"reactsPool.sol\":2461:2486  amount * pool.totalShares */\n      tag_105\n      swap2\n      swap1\n      tag_73\n      jump\t// in\n    tag_105:\n        /* \"reactsPool.sol\":2461:2493  amount * pool.totalShares * rate */\n      tag_106\n      swap2\n      swap1\n      tag_73\n      jump\t// in\n    tag_106:\n        /* \"reactsPool.sol\":2460:2538  (amount * pool.totalShares * rate) / (pool.totalDeposited * diminishingFactor) */\n      tag_107\n      swap2\n      swap1\n      tag_75\n      jump\t// in\n    tag_107:\n        /* \"reactsPool.sol\":2453:2538  return (amount * pool.totalShares * rate) / (pool.totalDeposited * diminishingFactor) */\n      swap5\n      pop\n      pop\n      pop\n      pop\n      pop\n        /* \"reactsPool.sol\":1642:2542  function calculateShares(uint256 nftId, uint256 reactSubId, uint256 amount) public view returns (uint256) {... */\n    tag_95:\n      swap4\n      swap3\n      pop\n      pop\n      pop\n      jump\t// out\n        /* \"@openzeppelin/contracts/access/Ownable.sol\":2543:2758  function transferOwnership(address newOwner) public virtual onlyOwner {... */\n    tag_49:\n        /* \"@openzeppelin/contracts/access/Ownable.sol\":1531:1544  _checkOwner() */\n      tag_109\n        /* \"@openzeppelin/contracts/access/Ownable.sol\":1531:1542  _checkOwner */\n      tag_88\n        /* \"@openzeppelin/contracts/access/Ownable.sol\":1531:1544  _checkOwner() */\n      jump\t// in\n    tag_109:\n        /* \"@openzeppelin/contracts/access/Ownable.sol\":2647:2648  0 */\n      0x00\n        /* \"@openzeppelin/contracts/access/Ownable.sol\":2627:2649  newOwner == address(0) */\n      0xffffffffffffffffffffffffffffffffffffffff\n      and\n        /* \"@openzeppelin/contracts/access/Ownable.sol\":2627:2635  newOwner */\n      dup2\n        /* \"@openzeppelin/contracts/access/Ownable.sol\":2627:2649  newOwner == address(0) */\n      0xffffffffffffffffffffffffffffffffffffffff\n      and\n      sub\n        /* \"@openzeppelin/contracts/access/Ownable.sol\":2623:2714  if (newOwner == address(0)) {... */\n      tag_111\n      jumpi\n        /* \"@openzeppelin/contracts/access/Ownable.sol\":2700:2701  0 */\n      0x00\n        /* \"@openzeppelin/contracts/access/Ownable.sol\":2672:2703  OwnableInvalidOwner(address(0)) */\n      mload(0x40)\n      0x1e4fbdf700000000000000000000000000000000000000000000000000000000\n      dup2\n      mstore\n      0x04\n      add\n      tag_112\n      swap2\n      swap1\n      tag_30\n      jump\t// in\n    tag_112:\n      mload(0x40)\n      dup1\n      swap2\n      sub\n      swap1\n      revert\n        /* \"@openzeppelin/contracts/access/Ownable.sol\":2623:2714  if (newOwner == address(0)) {... */\n    tag_111:\n        /* \"@openzeppelin/contracts/access/Ownable.sol\":2723:2751  _transferOwnership(newOwner) */\n      tag_113\n        /* \"@openzeppelin/contracts/access/Ownable.sol\":2742:2750  newOwner */\n      dup2\n        /* \"@openzeppelin/contracts/access/Ownable.sol\":2723:2741  _transferOwnership */\n      tag_91\n        /* \"@openzeppelin/contracts/access/Ownable.sol\":2723:2751  _transferOwnership(newOwner) */\n      jump\t// in\n    tag_113:\n        /* \"@openzeppelin/contracts/access/Ownable.sol\":2543:2758  function transferOwnership(address newOwner) public virtual onlyOwner {... */\n      pop\n      jump\t// out\n        /* \"@openzeppelin/contracts/access/Ownable.sol\":1796:1958  function _checkOwner() internal view virtual {... */\n    tag_88:\n        /* \"@openzeppelin/contracts/access/Ownable.sol\":1866:1878  _msgSender() */\n      tag_115\n        /* \"@openzeppelin/contracts/access/Ownable.sol\":1866:1876  _msgSender */\n      tag_116\n        /* \"@openzeppelin/contracts/access/Ownable.sol\":1866:1878  _msgSender() */\n      jump\t// in\n    tag_115:\n        /* \"@openzeppelin/contracts/access/Ownable.sol\":1855:1878  owner() != _msgSender() */\n      0xffffffffffffffffffffffffffffffffffffffff\n      and\n        /* \"@openzeppelin/contracts/access/Ownable.sol\":1855:1862  owner() */\n      tag_117\n        /* \"@openzeppelin/contracts/access/Ownable.sol\":1855:1860  owner */\n      tag_28\n        /* \"@openzeppelin/contracts/access/Ownable.sol\":1855:1862  owner() */\n      jump\t// in\n    tag_117:\n        /* \"@openzeppelin/contracts/access/Ownable.sol\":1855:1878  owner() != _msgSender() */\n      0xffffffffffffffffffffffffffffffffffffffff\n      and\n      eq\n        /* \"@openzeppelin/contracts/access/Ownable.sol\":1851:1952  if (owner() != _msgSender()) {... */\n      tag_118\n      jumpi\n        /* \"@openzeppelin/contracts/access/Ownable.sol\":1928:1940  _msgSender() */\n      tag_119\n        /* \"@openzeppelin/contracts/access/Ownable.sol\":1928:1938  _msgSender */\n      tag_116\n        /* \"@openzeppelin/contracts/access/Ownable.sol\":1928:1940  _msgSender() */\n      jump\t// in\n    tag_119:\n        /* \"@openzeppelin/contracts/access/Ownable.sol\":1901:1941  OwnableUnauthorizedAccount(_msgSender()) */\n      mload(0x40)\n      0x118cdaa700000000000000000000000000000000000000000000000000000000\n      dup2\n      mstore\n      0x04\n      add\n      tag_120\n      swap2\n      swap1\n      tag_30\n      jump\t// in\n    tag_120:\n      mload(0x40)\n      dup1\n      swap2\n      sub\n      swap1\n      revert\n        /* \"@openzeppelin/contracts/access/Ownable.sol\":1851:1952  if (owner() != _msgSender()) {... */\n    tag_118:\n        /* \"@openzeppelin/contracts/access/Ownable.sol\":1796:1958  function _checkOwner() internal view virtual {... */\n      jump\t// out\n        /* \"@openzeppelin/contracts/access/Ownable.sol\":2912:3099  function _transferOwnership(address newOwner) internal virtual {... */\n    tag_91:\n        /* \"@openzeppelin/contracts/access/Ownable.sol\":2985:3001  address oldOwner */\n      0x00\n        /* \"@openzeppelin/contracts/access/Ownable.sol\":3004:3010  _owner */\n      dup1\n      0x00\n      swap1\n      sload\n      swap1\n      0x0100\n      exp\n      swap1\n      div\n      0xffffffffffffffffffffffffffffffffffffffff\n      and\n        /* \"@openzeppelin/contracts/access/Ownable.sol\":2985:3010  address oldOwner = _owner */\n      swap1\n      pop\n        /* \"@openzeppelin/contracts/access/Ownable.sol\":3029:3037  newOwner */\n      dup2\n        /* \"@openzeppelin/contracts/access/Ownable.sol\":3020:3026  _owner */\n      0x00\n      dup1\n        /* \"@openzeppelin/contracts/access/Ownable.sol\":3020:3037  _owner = newOwner */\n      0x0100\n      exp\n      dup2\n      sload\n      dup2\n      0xffffffffffffffffffffffffffffffffffffffff\n      mul\n      not\n      and\n      swap1\n      dup4\n      0xffffffffffffffffffffffffffffffffffffffff\n      and\n      mul\n      or\n      swap1\n      sstore\n      pop\n        /* \"@openzeppelin/contracts/access/Ownable.sol\":3083:3091  newOwner */\n      dup2\n        /* \"@openzeppelin/contracts/access/Ownable.sol\":3052:3092  OwnershipTransferred(oldOwner, newOwner) */\n      0xffffffffffffffffffffffffffffffffffffffff\n      and\n        /* \"@openzeppelin/contracts/access/Ownable.sol\":3073:3081  oldOwner */\n      dup2\n        /* \"@openzeppelin/contracts/access/Ownable.sol\":3052:3092  OwnershipTransferred(oldOwner, newOwner) */\n      0xffffffffffffffffffffffffffffffffffffffff\n      and\n      0x8be0079c531659141344cd1fd0a4f28419497f9722a3daafe3b4186f6b6457e0\n      mload(0x40)\n      mload(0x40)\n      dup1\n      swap2\n      sub\n      swap1\n      log3\n        /* \"@openzeppelin/contracts/access/Ownable.sol\":2975:3099  {... */\n      pop\n        /* \"@openzeppelin/contracts/access/Ownable.sol\":2912:3099  function _transferOwnership(address newOwner) internal virtual {... */\n      pop\n      jump\t// out\n        /* \"@openzeppelin/contracts/utils/Context.sol\":656:752  function _msgSender() internal view virtual returns (address) {... */\n    tag_116:\n        /* \"@openzeppelin/contracts/utils/Context.sol\":709:716  address */\n      0x00\n        /* \"@openzeppelin/contracts/utils/Context.sol\":735:745  msg.sender */\n      caller\n        /* \"@openzeppelin/contracts/utils/Context.sol\":728:745  return msg.sender */\n      swap1\n      pop\n        /* \"@openzeppelin/contracts/utils/Context.sol\":656:752  function _msgSender() internal view virtual returns (address) {... */\n      swap1\n      jump\t// out\n        /* \"#utility.yul\":88:205   */\n    tag_124:\n        /* \"#utility.yul\":197:198   */\n      0x00\n        /* \"#utility.yul\":194:195   */\n      dup1\n        /* \"#utility.yul\":187:199   */\n      revert\n        /* \"#utility.yul\":334:411   */\n    tag_126:\n        /* \"#utility.yul\":371:378   */\n      0x00\n        /* \"#utility.yul\":400:405   */\n      dup2\n        /* \"#utility.yul\":389:405   */\n      swap1\n      pop\n        /* \"#utility.yul\":334:411   */\n      swap2\n      swap1\n      pop\n      jump\t// out\n        /* \"#utility.yul\":417:539   */\n    tag_127:\n        /* \"#utility.yul\":490:514   */\n      tag_158\n        /* \"#utility.yul\":508:513   */\n      dup2\n        /* \"#utility.yul\":490:514   */\n      tag_126\n      jump\t// in\n    tag_158:\n        /* \"#utility.yul\":483:488   */\n      dup2\n        /* \"#utility.yul\":480:515   */\n      eq\n        /* \"#utility.yul\":470:533   */\n      tag_159\n      jumpi\n        /* \"#utility.yul\":529:530   */\n      0x00\n        /* \"#utility.yul\":526:527   */\n      dup1\n        /* \"#utility.yul\":519:531   */\n      revert\n        /* \"#utility.yul\":470:533   */\n    tag_159:\n        /* \"#utility.yul\":417:539   */\n      pop\n      jump\t// out\n        /* \"#utility.yul\":545:684   */\n    tag_128:\n        /* \"#utility.yul\":591:596   */\n      0x00\n        /* \"#utility.yul\":629:635   */\n      dup2\n        /* \"#utility.yul\":616:636   */\n      calldataload\n        /* \"#utility.yul\":607:636   */\n      swap1\n      pop\n        /* \"#utility.yul\":645:678   */\n      tag_161\n        /* \"#utility.yul\":672:677   */\n      dup2\n        /* \"#utility.yul\":645:678   */\n      tag_127\n      jump\t// in\n    tag_161:\n        /* \"#utility.yul\":545:684   */\n      swap3\n      swap2\n      pop\n      pop\n      jump\t// out\n        /* \"#utility.yul\":690:1309   */\n    tag_15:\n        /* \"#utility.yul\":767:773   */\n      0x00\n        /* \"#utility.yul\":775:781   */\n      dup1\n        /* \"#utility.yul\":783:789   */\n      0x00\n        /* \"#utility.yul\":832:834   */\n      0x60\n        /* \"#utility.yul\":820:829   */\n      dup5\n        /* \"#utility.yul\":811:818   */\n      dup7\n        /* \"#utility.yul\":807:830   */\n      sub\n        /* \"#utility.yul\":803:835   */\n      slt\n        /* \"#utility.yul\":800:919   */\n      iszero\n      tag_163\n      jumpi\n        /* \"#utility.yul\":838:917   */\n      tag_164\n      tag_124\n      jump\t// in\n    tag_164:\n        /* \"#utility.yul\":800:919   */\n    tag_163:\n        /* \"#utility.yul\":958:959   */\n      0x00\n        /* \"#utility.yul\":983:1036   */\n      tag_165\n        /* \"#utility.yul\":1028:1035   */\n      dup7\n        /* \"#utility.yul\":1019:1025   */\n      dup3\n        /* \"#utility.yul\":1008:1017   */\n      dup8\n        /* \"#utility.yul\":1004:1026   */\n      add\n        /* \"#utility.yul\":983:1036   */\n      tag_128\n      jump\t// in\n    tag_165:\n        /* \"#utility.yul\":973:1036   */\n      swap4\n      pop\n        /* \"#utility.yul\":929:1046   */\n      pop\n        /* \"#utility.yul\":1085:1087   */\n      0x20\n        /* \"#utility.yul\":1111:1164   */\n      tag_166\n        /* \"#utility.yul\":1156:1163   */\n      dup7\n        /* \"#utility.yul\":1147:1153   */\n      dup3\n        /* \"#utility.yul\":1136:1145   */\n      dup8\n        /* \"#utility.yul\":1132:1154   */\n      add\n        /* \"#utility.yul\":1111:1164   */\n      tag_128\n      jump\t// in\n    tag_166:\n        /* \"#utility.yul\":1101:1164   */\n      swap3\n      pop\n        /* \"#utility.yul\":1056:1174   */\n      pop\n        /* \"#utility.yul\":1213:1215   */\n      0x40\n        /* \"#utility.yul\":1239:1292   */\n      tag_167\n        /* \"#utility.yul\":1284:1291   */\n      dup7\n        /* \"#utility.yul\":1275:1281   */\n      dup3\n        /* \"#utility.yul\":1264:1273   */\n      dup8\n        /* \"#utility.yul\":1260:1282   */\n      add\n        /* \"#utility.yul\":1239:1292   */\n      tag_128\n      jump\t// in\n    tag_167:\n        /* \"#utility.yul\":1229:1292   */\n      swap2\n      pop\n        /* \"#utility.yul\":1184:1302   */\n      pop\n        /* \"#utility.yul\":690:1309   */\n      swap3\n      pop\n      swap3\n      pop\n      swap3\n      jump\t// out\n        /* \"#utility.yul\":1315:1441   */\n    tag_129:\n        /* \"#utility.yul\":1352:1359   */\n      0x00\n        /* \"#utility.yul\":1392:1434   */\n      0xffffffffffffffffffffffffffffffffffffffff\n        /* \"#utility.yul\":1385:1390   */\n      dup3\n        /* \"#utility.yul\":1381:1435   */\n      and\n        /* \"#utility.yul\":1370:1435   */\n      swap1\n      pop\n        /* \"#utility.yul\":1315:1441   */\n      swap2\n      swap1\n      pop\n      jump\t// out\n        /* \"#utility.yul\":1447:1507   */\n    tag_130:\n        /* \"#utility.yul\":1475:1478   */\n      0x00\n        /* \"#utility.yul\":1496:1501   */\n      dup2\n        /* \"#utility.yul\":1489:1501   */\n      swap1\n      pop\n        /* \"#utility.yul\":1447:1507   */\n      swap2\n      swap1\n      pop\n      jump\t// out\n        /* \"#utility.yul\":1513:1655   */\n    tag_131:\n        /* \"#utility.yul\":1563:1572   */\n      0x00\n        /* \"#utility.yul\":1596:1649   */\n      tag_171\n        /* \"#utility.yul\":1614:1648   */\n      tag_172\n        /* \"#utility.yul\":1623:1647   */\n      tag_173\n        /* \"#utility.yul\":1641:1646   */\n      dup5\n        /* \"#utility.yul\":1623:1647   */\n      tag_129\n      jump\t// in\n    tag_173:\n        /* \"#utility.yul\":1614:1648   */\n      tag_130\n      jump\t// in\n    tag_172:\n        /* \"#utility.yul\":1596:1649   */\n      tag_129\n      jump\t// in\n    tag_171:\n        /* \"#utility.yul\":1583:1649   */\n      swap1\n      pop\n        /* \"#utility.yul\":1513:1655   */\n      swap2\n      swap1\n      pop\n      jump\t// out\n        /* \"#utility.yul\":1661:1787   */\n    tag_132:\n        /* \"#utility.yul\":1711:1720   */\n      0x00\n        /* \"#utility.yul\":1744:1781   */\n      tag_175\n        /* \"#utility.yul\":1775:1780   */\n      dup3\n        /* \"#utility.yul\":1744:1781   */\n      tag_131\n      jump\t// in\n    tag_175:\n        /* \"#utility.yul\":1731:1781   */\n      swap1\n      pop\n        /* \"#utility.yul\":1661:1787   */\n      swap2\n      swap1\n      pop\n      jump\t// out\n        /* \"#utility.yul\":1793:1933   */\n    tag_133:\n        /* \"#utility.yul\":1857:1866   */\n      0x00\n        /* \"#utility.yul\":1890:1927   */\n      tag_177\n        /* \"#utility.yul\":1921:1926   */\n      dup3\n        /* \"#utility.yul\":1890:1927   */\n      tag_132\n      jump\t// in\n    tag_177:\n        /* \"#utility.yul\":1877:1927   */\n      swap1\n      pop\n        /* \"#utility.yul\":1793:1933   */\n      swap2\n      swap1\n      pop\n      jump\t// out\n        /* \"#utility.yul\":1939:2098   */\n    tag_134:\n        /* \"#utility.yul\":2040:2091   */\n      tag_179\n        /* \"#utility.yul\":2085:2090   */\n      dup2\n        /* \"#utility.yul\":2040:2091   */\n      tag_133\n      jump\t// in\n    tag_179:\n        /* \"#utility.yul\":2035:2038   */\n      dup3\n        /* \"#utility.yul\":2028:2092   */\n      mstore\n        /* \"#utility.yul\":1939:2098   */\n      pop\n      pop\n      jump\t// out\n        /* \"#utility.yul\":2104:2354   */\n    tag_20:\n        /* \"#utility.yul\":2211:2215   */\n      0x00\n        /* \"#utility.yul\":2249:2251   */\n      0x20\n        /* \"#utility.yul\":2238:2247   */\n      dup3\n        /* \"#utility.yul\":2234:2252   */\n      add\n        /* \"#utility.yul\":2226:2252   */\n      swap1\n      pop\n        /* \"#utility.yul\":2262:2347   */\n      tag_181\n        /* \"#utility.yul\":2344:2345   */\n      0x00\n        /* \"#utility.yul\":2333:2342   */\n      dup4\n        /* \"#utility.yul\":2329:2346   */\n      add\n        /* \"#utility.yul\":2320:2326   */\n      dup5\n        /* \"#utility.yul\":2262:2347   */\n      tag_134\n      jump\t// in\n    tag_181:\n        /* \"#utility.yul\":2104:2354   */\n      swap3\n      swap2\n      pop\n      pop\n      jump\t// out\n        /* \"#utility.yul\":2360:2834   */\n    tag_23:\n        /* \"#utility.yul\":2428:2434   */\n      0x00\n        /* \"#utility.yul\":2436:2442   */\n      dup1\n        /* \"#utility.yul\":2485:2487   */\n      0x40\n        /* \"#utility.yul\":2473:2482   */\n      dup4\n        /* \"#utility.yul\":2464:2471   */\n      dup6\n        /* \"#utility.yul\":2460:2483   */\n      sub\n        /* \"#utility.yul\":2456:2488   */\n      slt\n        /* \"#utility.yul\":2453:2572   */\n      iszero\n      tag_183\n      jumpi\n        /* \"#utility.yul\":2491:2570   */\n      tag_184\n      tag_124\n      jump\t// in\n    tag_184:\n        /* \"#utility.yul\":2453:2572   */\n    tag_183:\n        /* \"#utility.yul\":2611:2612   */\n      0x00\n        /* \"#utility.yul\":2636:2689   */\n      tag_185\n        /* \"#utility.yul\":2681:2688   */\n      dup6\n        /* \"#utility.yul\":2672:2678   */\n      dup3\n        /* \"#utility.yul\":2661:2670   */\n      dup7\n        /* \"#utility.yul\":2657:2679   */\n      add\n        /* \"#utility.yul\":2636:2689   */\n      tag_128\n      jump\t// in\n    tag_185:\n        /* \"#utility.yul\":2626:2689   */\n      swap3\n      pop\n        /* \"#utility.yul\":2582:2699   */\n      pop\n        /* \"#utility.yul\":2738:2740   */\n      0x20\n        /* \"#utility.yul\":2764:2817   */\n      tag_186\n        /* \"#utility.yul\":2809:2816   */\n      dup6\n        /* \"#utility.yul\":2800:2806   */\n      dup3\n        /* \"#utility.yul\":2789:2798   */\n      dup7\n        /* \"#utility.yul\":2785:2807   */\n      add\n        /* \"#utility.yul\":2764:2817   */\n      tag_128\n      jump\t// in\n    tag_186:\n        /* \"#utility.yul\":2754:2817   */\n      swap2\n      pop\n        /* \"#utility.yul\":2709:2827   */\n      pop\n        /* \"#utility.yul\":2360:2834   */\n      swap3\n      pop\n      swap3\n      swap1\n      pop\n      jump\t// out\n        /* \"#utility.yul\":2840:2936   */\n    tag_135:\n        /* \"#utility.yul\":2877:2884   */\n      0x00\n        /* \"#utility.yul\":2906:2930   */\n      tag_188\n        /* \"#utility.yul\":2924:2929   */\n      dup3\n        /* \"#utility.yul\":2906:2930   */\n      tag_129\n      jump\t// in\n    tag_188:\n        /* \"#utility.yul\":2895:2930   */\n      swap1\n      pop\n        /* \"#utility.yul\":2840:2936   */\n      swap2\n      swap1\n      pop\n      jump\t// out\n        /* \"#utility.yul\":2942:3060   */\n    tag_136:\n        /* \"#utility.yul\":3029:3053   */\n      tag_190\n        /* \"#utility.yul\":3047:3052   */\n      dup2\n        /* \"#utility.yul\":3029:3053   */\n      tag_135\n      jump\t// in\n    tag_190:\n        /* \"#utility.yul\":3024:3027   */\n      dup3\n        /* \"#utility.yul\":3017:3054   */\n      mstore\n        /* \"#utility.yul\":2942:3060   */\n      pop\n      pop\n      jump\t// out\n        /* \"#utility.yul\":3066:3288   */\n    tag_30:\n        /* \"#utility.yul\":3159:3163   */\n      0x00\n        /* \"#utility.yul\":3197:3199   */\n      0x20\n        /* \"#utility.yul\":3186:3195   */\n      dup3\n        /* \"#utility.yul\":3182:3200   */\n      add\n        /* \"#utility.yul\":3174:3200   */\n      swap1\n      pop\n        /* \"#utility.yul\":3210:3281   */\n      tag_192\n        /* \"#utility.yul\":3278:3279   */\n      0x00\n        /* \"#utility.yul\":3267:3276   */\n      dup4\n        /* \"#utility.yul\":3263:3280   */\n      add\n        /* \"#utility.yul\":3254:3260   */\n      dup5\n        /* \"#utility.yul\":3210:3281   */\n      tag_136\n      jump\t// in\n    tag_192:\n        /* \"#utility.yul\":3066:3288   */\n      swap3\n      swap2\n      pop\n      pop\n      jump\t// out\n        /* \"#utility.yul\":3294:3416   */\n    tag_137:\n        /* \"#utility.yul\":3367:3391   */\n      tag_194\n        /* \"#utility.yul\":3385:3390   */\n      dup2\n        /* \"#utility.yul\":3367:3391   */\n      tag_135\n      jump\t// in\n    tag_194:\n        /* \"#utility.yul\":3360:3365   */\n      dup2\n        /* \"#utility.yul\":3357:3392   */\n      eq\n        /* \"#utility.yul\":3347:3410   */\n      tag_195\n      jumpi\n        /* \"#utility.yul\":3406:3407   */\n      0x00\n        /* \"#utility.yul\":3403:3404   */\n      dup1\n        /* \"#utility.yul\":3396:3408   */\n      revert\n        /* \"#utility.yul\":3347:3410   */\n    tag_195:\n        /* \"#utility.yul\":3294:3416   */\n      pop\n      jump\t// out\n        /* \"#utility.yul\":3422:3561   */\n    tag_138:\n        /* \"#utility.yul\":3468:3473   */\n      0x00\n        /* \"#utility.yul\":3506:3512   */\n      dup2\n        /* \"#utility.yul\":3493:3513   */\n      calldataload\n        /* \"#utility.yul\":3484:3513   */\n      swap1\n      pop\n        /* \"#utility.yul\":3522:3555   */\n      tag_197\n        /* \"#utility.yul\":3549:3554   */\n      dup2\n        /* \"#utility.yul\":3522:3555   */\n      tag_137\n      jump\t// in\n    tag_197:\n        /* \"#utility.yul\":3422:3561   */\n      swap3\n      swap2\n      pop\n      pop\n      jump\t// out\n        /* \"#utility.yul\":3567:4186   */\n    tag_33:\n        /* \"#utility.yul\":3644:3650   */\n      0x00\n        /* \"#utility.yul\":3652:3658   */\n      dup1\n        /* \"#utility.yul\":3660:3666   */\n      0x00\n        /* \"#utility.yul\":3709:3711   */\n      0x60\n        /* \"#utility.yul\":3697:3706   */\n      dup5\n        /* \"#utility.yul\":3688:3695   */\n      dup7\n        /* \"#utility.yul\":3684:3707   */\n      sub\n        /* \"#utility.yul\":3680:3712   */\n      slt\n        /* \"#utility.yul\":3677:3796   */\n      iszero\n      tag_199\n      jumpi\n        /* \"#utility.yul\":3715:3794   */\n      tag_200\n      tag_124\n      jump\t// in\n    tag_200:\n        /* \"#utility.yul\":3677:3796   */\n    tag_199:\n        /* \"#utility.yul\":3835:3836   */\n      0x00\n        /* \"#utility.yul\":3860:3913   */\n      tag_201\n        /* \"#utility.yul\":3905:3912   */\n      dup7\n        /* \"#utility.yul\":3896:3902   */\n      dup3\n        /* \"#utility.yul\":3885:3894   */\n      dup8\n        /* \"#utility.yul\":3881:3903   */\n      add\n        /* \"#utility.yul\":3860:3913   */\n      tag_128\n      jump\t// in\n    tag_201:\n        /* \"#utility.yul\":3850:3913   */\n      swap4\n      pop\n        /* \"#utility.yul\":3806:3923   */\n      pop\n        /* \"#utility.yul\":3962:3964   */\n      0x20\n        /* \"#utility.yul\":3988:4041   */\n      tag_202\n        /* \"#utility.yul\":4033:4040   */\n      dup7\n        /* \"#utility.yul\":4024:4030   */\n      dup3\n        /* \"#utility.yul\":4013:4022   */\n      dup8\n        /* \"#utility.yul\":4009:4031   */\n      add\n        /* \"#utility.yul\":3988:4041   */\n      tag_128\n      jump\t// in\n    tag_202:\n        /* \"#utility.yul\":3978:4041   */\n      swap3\n      pop\n        /* \"#utility.yul\":3933:4051   */\n      pop\n        /* \"#utility.yul\":4090:4092   */\n      0x40\n        /* \"#utility.yul\":4116:4169   */\n      tag_203\n        /* \"#utility.yul\":4161:4168   */\n      dup7\n        /* \"#utility.yul\":4152:4158   */\n      dup3\n        /* \"#utility.yul\":4141:4150   */\n      dup8\n        /* \"#utility.yul\":4137:4159   */\n      add\n        /* \"#utility.yul\":4116:4169   */\n      tag_138\n      jump\t// in\n    tag_203:\n        /* \"#utility.yul\":4106:4169   */\n      swap2\n      pop\n        /* \"#utility.yul\":4061:4179   */\n      pop\n        /* \"#utility.yul\":3567:4186   */\n      swap3\n      pop\n      swap3\n      pop\n      swap3\n      jump\t// out\n        /* \"#utility.yul\":4192:4310   */\n    tag_139:\n        /* \"#utility.yul\":4279:4303   */\n      tag_205\n        /* \"#utility.yul\":4297:4302   */\n      dup2\n        /* \"#utility.yul\":4279:4303   */\n      tag_126\n      jump\t// in\n    tag_205:\n        /* \"#utility.yul\":4274:4277   */\n      dup3\n        /* \"#utility.yul\":4267:4304   */\n      mstore\n        /* \"#utility.yul\":4192:4310   */\n      pop\n      pop\n      jump\t// out\n        /* \"#utility.yul\":4316:4538   */\n    tag_36:\n        /* \"#utility.yul\":4409:4413   */\n      0x00\n        /* \"#utility.yul\":4447:4449   */\n      0x20\n        /* \"#utility.yul\":4436:4445   */\n      dup3\n        /* \"#utility.yul\":4432:4450   */\n      add\n        /* \"#utility.yul\":4424:4450   */\n      swap1\n      pop\n        /* \"#utility.yul\":4460:4531   */\n      tag_207\n        /* \"#utility.yul\":4528:4529   */\n      0x00\n        /* \"#utility.yul\":4517:4526   */\n      dup4\n        /* \"#utility.yul\":4513:4530   */\n      add\n        /* \"#utility.yul\":4504:4510   */\n      dup5\n        /* \"#utility.yul\":4460:4531   */\n      tag_139\n      jump\t// in\n    tag_207:\n        /* \"#utility.yul\":4316:4538   */\n      swap3\n      swap2\n      pop\n      pop\n      jump\t// out\n        /* \"#utility.yul\":4544:4876   */\n    tag_41:\n        /* \"#utility.yul\":4665:4669   */\n      0x00\n        /* \"#utility.yul\":4703:4705   */\n      0x40\n        /* \"#utility.yul\":4692:4701   */\n      dup3\n        /* \"#utility.yul\":4688:4706   */\n      add\n        /* \"#utility.yul\":4680:4706   */\n      swap1\n      pop\n        /* \"#utility.yul\":4716:4787   */\n      tag_209\n        /* \"#utility.yul\":4784:4785   */\n      0x00\n        /* \"#utility.yul\":4773:4782   */\n      dup4\n        /* \"#utility.yul\":4769:4786   */\n      add\n        /* \"#utility.yul\":4760:4766   */\n      dup6\n        /* \"#utility.yul\":4716:4787   */\n      tag_139\n      jump\t// in\n    tag_209:\n        /* \"#utility.yul\":4797:4869   */\n      tag_210\n        /* \"#utility.yul\":4865:4867   */\n      0x20\n        /* \"#utility.yul\":4854:4863   */\n      dup4\n        /* \"#utility.yul\":4850:4868   */\n      add\n        /* \"#utility.yul\":4841:4847   */\n      dup5\n        /* \"#utility.yul\":4797:4869   */\n      tag_139\n      jump\t// in\n    tag_210:\n        /* \"#utility.yul\":4544:4876   */\n      swap4\n      swap3\n      pop\n      pop\n      pop\n      jump\t// out\n        /* \"#utility.yul\":4882:5211   */\n    tag_48:\n        /* \"#utility.yul\":4941:4947   */\n      0x00\n        /* \"#utility.yul\":4990:4992   */\n      0x20\n        /* \"#utility.yul\":4978:4987   */\n      dup3\n        /* \"#utility.yul\":4969:4976   */\n      dup5\n        /* \"#utility.yul\":4965:4988   */\n      sub\n        /* \"#utility.yul\":4961:4993   */\n      slt\n        /* \"#utility.yul\":4958:5077   */\n      iszero\n      tag_212\n      jumpi\n        /* \"#utility.yul\":4996:5075   */\n      tag_213\n      tag_124\n      jump\t// in\n    tag_213:\n        /* \"#utility.yul\":4958:5077   */\n    tag_212:\n        /* \"#utility.yul\":5116:5117   */\n      0x00\n        /* \"#utility.yul\":5141:5194   */\n      tag_214\n        /* \"#utility.yul\":5186:5193   */\n      dup5\n        /* \"#utility.yul\":5177:5183   */\n      dup3\n        /* \"#utility.yul\":5166:5175   */\n      dup6\n        /* \"#utility.yul\":5162:5184   */\n      add\n        /* \"#utility.yul\":5141:5194   */\n      tag_138\n      jump\t// in\n    tag_214:\n        /* \"#utility.yul\":5131:5194   */\n      swap2\n      pop\n        /* \"#utility.yul\":5087:5204   */\n      pop\n        /* \"#utility.yul\":4882:5211   */\n      swap3\n      swap2\n      pop\n      pop\n      jump\t// out\n        /* \"#utility.yul\":5217:5386   */\n    tag_140:\n        /* \"#utility.yul\":5301:5312   */\n      0x00\n        /* \"#utility.yul\":5335:5341   */\n      dup3\n        /* \"#utility.yul\":5330:5333   */\n      dup3\n        /* \"#utility.yul\":5323:5342   */\n      mstore\n        /* \"#utility.yul\":5375:5379   */\n      0x20\n        /* \"#utility.yul\":5370:5373   */\n      dup3\n        /* \"#utility.yul\":5366:5380   */\n      add\n        /* \"#utility.yul\":5351:5380   */\n      swap1\n      pop\n        /* \"#utility.yul\":5217:5386   */\n      swap3\n      swap2\n      pop\n      pop\n      jump\t// out\n        /* \"#utility.yul\":5392:5565   */\n    tag_141:\n        /* \"#utility.yul\":5532:5557   */\n      0x416d6f756e74206d75737420626520706f736974697665000000000000000000\n        /* \"#utility.yul\":5528:5529   */\n      0x00\n        /* \"#utility.yul\":5520:5526   */\n      dup3\n        /* \"#utility.yul\":5516:5530   */\n      add\n        /* \"#utility.yul\":5509:5558   */\n      mstore\n        /* \"#utility.yul\":5392:5565   */\n      pop\n      jump\t// out\n        /* \"#utility.yul\":5571:5937   */\n    tag_142:\n        /* \"#utility.yul\":5713:5716   */\n      0x00\n        /* \"#utility.yul\":5734:5801   */\n      tag_218\n        /* \"#utility.yul\":5798:5800   */\n      0x17\n        /* \"#utility.yul\":5793:5796   */\n      dup4\n        /* \"#utility.yul\":5734:5801   */\n      tag_140\n      jump\t// in\n    tag_218:\n        /* \"#utility.yul\":5727:5801   */\n      swap2\n      pop\n        /* \"#utility.yul\":5810:5903   */\n      tag_219\n        /* \"#utility.yul\":5899:5902   */\n      dup3\n        /* \"#utility.yul\":5810:5903   */\n      tag_141\n      jump\t// in\n    tag_219:\n        /* \"#utility.yul\":5928:5930   */\n      0x20\n        /* \"#utility.yul\":5923:5926   */\n      dup3\n        /* \"#utility.yul\":5919:5931   */\n      add\n        /* \"#utility.yul\":5912:5931   */\n      swap1\n      pop\n        /* \"#utility.yul\":5571:5937   */\n      swap2\n      swap1\n      pop\n      jump\t// out\n        /* \"#utility.yul\":5943:6362   */\n    tag_53:\n        /* \"#utility.yul\":6109:6113   */\n      0x00\n        /* \"#utility.yul\":6147:6149   */\n      0x20\n        /* \"#utility.yul\":6136:6145   */\n      dup3\n        /* \"#utility.yul\":6132:6150   */\n      add\n        /* \"#utility.yul\":6124:6150   */\n      swap1\n      pop\n        /* \"#utility.yul\":6196:6205   */\n      dup2\n        /* \"#utility.yul\":6190:6194   */\n      dup2\n        /* \"#utility.yul\":6186:6206   */\n      sub\n        /* \"#utility.yul\":6182:6183   */\n      0x00\n        /* \"#utility.yul\":6171:6180   */\n      dup4\n        /* \"#utility.yul\":6167:6184   */\n      add\n        /* \"#utility.yul\":6160:6207   */\n      mstore\n        /* \"#utility.yul\":6224:6355   */\n      tag_221\n        /* \"#utility.yul\":6350:6354   */\n      dup2\n        /* \"#utility.yul\":6224:6355   */\n      tag_142\n      jump\t// in\n    tag_221:\n        /* \"#utility.yul\":6216:6355   */\n      swap1\n      pop\n        /* \"#utility.yul\":5943:6362   */\n      swap2\n      swap1\n      pop\n      jump\t// out\n        /* \"#utility.yul\":6368:6810   */\n    tag_56:\n        /* \"#utility.yul\":6517:6521   */\n      0x00\n        /* \"#utility.yul\":6555:6557   */\n      0x60\n        /* \"#utility.yul\":6544:6553   */\n      dup3\n        /* \"#utility.yul\":6540:6558   */\n      add\n        /* \"#utility.yul\":6532:6558   */\n      swap1\n      pop\n        /* \"#utility.yul\":6568:6639   */\n      tag_223\n        /* \"#utility.yul\":6636:6637   */\n      0x00\n        /* \"#utility.yul\":6625:6634   */\n      dup4\n        /* \"#utility.yul\":6621:6638   */\n      add\n        /* \"#utility.yul\":6612:6618   */\n      dup7\n        /* \"#utility.yul\":6568:6639   */\n      tag_136\n      jump\t// in\n    tag_223:\n        /* \"#utility.yul\":6649:6721   */\n      tag_224\n        /* \"#utility.yul\":6717:6719   */\n      0x20\n        /* \"#utility.yul\":6706:6715   */\n      dup4\n        /* \"#utility.yul\":6702:6720   */\n      add\n        /* \"#utility.yul\":6693:6699   */\n      dup6\n        /* \"#utility.yul\":6649:6721   */\n      tag_136\n      jump\t// in\n    tag_224:\n        /* \"#utility.yul\":6731:6803   */\n      tag_225\n        /* \"#utility.yul\":6799:6801   */\n      0x40\n        /* \"#utility.yul\":6788:6797   */\n      dup4\n        /* \"#utility.yul\":6784:6802   */\n      add\n        /* \"#utility.yul\":6775:6781   */\n      dup5\n        /* \"#utility.yul\":6731:6803   */\n      tag_139\n      jump\t// in\n    tag_225:\n        /* \"#utility.yul\":6368:6810   */\n      swap5\n      swap4\n      pop\n      pop\n      pop\n      pop\n      jump\t// out\n        /* \"#utility.yul\":6816:6906   */\n    tag_143:\n        /* \"#utility.yul\":6850:6857   */\n      0x00\n        /* \"#utility.yul\":6893:6898   */\n      dup2\n        /* \"#utility.yul\":6886:6899   */\n      iszero\n        /* \"#utility.yul\":6879:6900   */\n      iszero\n        /* \"#utility.yul\":6868:6900   */\n      swap1\n      pop\n        /* \"#utility.yul\":6816:6906   */\n      swap2\n      swap1\n      pop\n      jump\t// out\n        /* \"#utility.yul\":6912:7028   */\n    tag_144:\n        /* \"#utility.yul\":6982:7003   */\n      tag_228\n        /* \"#utility.yul\":6997:7002   */\n      dup2\n        /* \"#utility.yul\":6982:7003   */\n      tag_143\n      jump\t// in\n    tag_228:\n        /* \"#utility.yul\":6975:6980   */\n      dup2\n        /* \"#utility.yul\":6972:7004   */\n      eq\n        /* \"#utility.yul\":6962:7022   */\n      tag_229\n      jumpi\n        /* \"#utility.yul\":7018:7019   */\n      0x00\n        /* \"#utility.yul\":7015:7016   */\n      dup1\n        /* \"#utility.yul\":7008:7020   */\n      revert\n        /* \"#utility.yul\":6962:7022   */\n    tag_229:\n        /* \"#utility.yul\":6912:7028   */\n      pop\n      jump\t// out\n        /* \"#utility.yul\":7034:7171   */\n    tag_145:\n        /* \"#utility.yul\":7088:7093   */\n      0x00\n        /* \"#utility.yul\":7119:7125   */\n      dup2\n        /* \"#utility.yul\":7113:7126   */\n      mload\n        /* \"#utility.yul\":7104:7126   */\n      swap1\n      pop\n        /* \"#utility.yul\":7135:7165   */\n      tag_231\n        /* \"#utility.yul\":7159:7164   */\n      dup2\n        /* \"#utility.yul\":7135:7165   */\n      tag_144\n      jump\t// in\n    tag_231:\n        /* \"#utility.yul\":7034:7171   */\n      swap3\n      swap2\n      pop\n      pop\n      jump\t// out\n        /* \"#utility.yul\":7177:7522   */\n    tag_60:\n        /* \"#utility.yul\":7244:7250   */\n      0x00\n        /* \"#utility.yul\":7293:7295   */\n      0x20\n        /* \"#utility.yul\":7281:7290   */\n      dup3\n        /* \"#utility.yul\":7272:7279   */\n      dup5\n        /* \"#utility.yul\":7268:7291   */\n      sub\n        /* \"#utility.yul\":7264:7296   */\n      slt\n        /* \"#utility.yul\":7261:7380   */\n      iszero\n      tag_233\n      jumpi\n        /* \"#utility.yul\":7299:7378   */\n      tag_234\n      tag_124\n      jump\t// in\n    tag_234:\n        /* \"#utility.yul\":7261:7380   */\n    tag_233:\n        /* \"#utility.yul\":7419:7420   */\n      0x00\n        /* \"#utility.yul\":7444:7505   */\n      tag_235\n        /* \"#utility.yul\":7497:7504   */\n      dup5\n        /* \"#utility.yul\":7488:7494   */\n      dup3\n        /* \"#utility.yul\":7477:7486   */\n      dup6\n        /* \"#utility.yul\":7473:7495   */\n      add\n        /* \"#utility.yul\":7444:7505   */\n      tag_145\n      jump\t// in\n    tag_235:\n        /* \"#utility.yul\":7434:7505   */\n      swap2\n      pop\n        /* \"#utility.yul\":7390:7515   */\n      pop\n        /* \"#utility.yul\":7177:7522   */\n      swap3\n      swap2\n      pop\n      pop\n      jump\t// out\n        /* \"#utility.yul\":7528:7693   */\n    tag_146:\n        /* \"#utility.yul\":7668:7685   */\n      0x5472616e73666572206661696c65640000000000000000000000000000000000\n        /* \"#utility.yul\":7664:7665   */\n      0x00\n        /* \"#utility.yul\":7656:7662   */\n      dup3\n        /* \"#utility.yul\":7652:7666   */\n      add\n        /* \"#utility.yul\":7645:7686   */\n      mstore\n        /* \"#utility.yul\":7528:7693   */\n      pop\n      jump\t// out\n        /* \"#utility.yul\":7699:8065   */\n    tag_147:\n        /* \"#utility.yul\":7841:7844   */\n      0x00\n        /* \"#utility.yul\":7862:7929   */\n      tag_238\n        /* \"#utility.yul\":7926:7928   */\n      0x0f\n        /* \"#utility.yul\":7921:7924   */\n      dup4\n        /* \"#utility.yul\":7862:7929   */\n      tag_140\n      jump\t// in\n    tag_238:\n        /* \"#utility.yul\":7855:7929   */\n      swap2\n      pop\n        /* \"#utility.yul\":7938:8031   */\n      tag_239\n        /* \"#utility.yul\":8027:8030   */\n      dup3\n        /* \"#utility.yul\":7938:8031   */\n      tag_146\n      jump\t// in\n    tag_239:\n        /* \"#utility.yul\":8056:8058   */\n      0x20\n        /* \"#utility.yul\":8051:8054   */\n      dup3\n        /* \"#utility.yul\":8047:8059   */\n      add\n        /* \"#utility.yul\":8040:8059   */\n      swap1\n      pop\n        /* \"#utility.yul\":7699:8065   */\n      swap2\n      swap1\n      pop\n      jump\t// out\n        /* \"#utility.yul\":8071:8490   */\n    tag_63:\n        /* \"#utility.yul\":8237:8241   */\n      0x00\n        /* \"#utility.yul\":8275:8277   */\n      0x20\n        /* \"#utility.yul\":8264:8273   */\n      dup3\n        /* \"#utility.yul\":8260:8278   */\n      add\n        /* \"#utility.yul\":8252:8278   */\n      swap1\n      pop\n        /* \"#utility.yul\":8324:8333   */\n      dup2\n        /* \"#utility.yul\":8318:8322   */\n      dup2\n        /* \"#utility.yul\":8314:8334   */\n      sub\n        /* \"#utility.yul\":8310:8311   */\n      0x00\n        /* \"#utility.yul\":8299:8308   */\n      dup4\n        /* \"#utility.yul\":8295:8312   */\n      add\n        /* \"#utility.yul\":8288:8335   */\n      mstore\n        /* \"#utility.yul\":8352:8483   */\n      tag_241\n        /* \"#utility.yul\":8478:8482   */\n      dup2\n        /* \"#utility.yul\":8352:8483   */\n      tag_147\n      jump\t// in\n    tag_241:\n        /* \"#utility.yul\":8344:8483   */\n      swap1\n      pop\n        /* \"#utility.yul\":8071:8490   */\n      swap2\n      swap1\n      pop\n      jump\t// out\n        /* \"#utility.yul\":8496:8676   */\n    tag_148:\n        /* \"#utility.yul\":8544:8621   */\n      0x4e487b7100000000000000000000000000000000000000000000000000000000\n        /* \"#utility.yul\":8541:8542   */\n      0x00\n        /* \"#utility.yul\":8534:8622   */\n      mstore\n        /* \"#utility.yul\":8641:8645   */\n      0x11\n        /* \"#utility.yul\":8638:8639   */\n      0x04\n        /* \"#utility.yul\":8631:8646   */\n      mstore\n        /* \"#utility.yul\":8665:8669   */\n      0x24\n        /* \"#utility.yul\":8662:8663   */\n      0x00\n        /* \"#utility.yul\":8655:8670   */\n      revert\n        /* \"#utility.yul\":8682:8873   */\n    tag_65:\n        /* \"#utility.yul\":8722:8725   */\n      0x00\n        /* \"#utility.yul\":8741:8761   */\n      tag_244\n        /* \"#utility.yul\":8759:8760   */\n      dup3\n        /* \"#utility.yul\":8741:8761   */\n      tag_126\n      jump\t// in\n    tag_244:\n        /* \"#utility.yul\":8736:8761   */\n      swap2\n      pop\n        /* \"#utility.yul\":8775:8795   */\n      tag_245\n        /* \"#utility.yul\":8793:8794   */\n      dup4\n        /* \"#utility.yul\":8775:8795   */\n      tag_126\n      jump\t// in\n    tag_245:\n        /* \"#utility.yul\":8770:8795   */\n      swap3\n      pop\n        /* \"#utility.yul\":8818:8819   */\n      dup3\n        /* \"#utility.yul\":8815:8816   */\n      dup3\n        /* \"#utility.yul\":8811:8820   */\n      add\n        /* \"#utility.yul\":8804:8820   */\n      swap1\n      pop\n        /* \"#utility.yul\":8839:8842   */\n      dup1\n        /* \"#utility.yul\":8836:8837   */\n      dup3\n        /* \"#utility.yul\":8833:8843   */\n      gt\n        /* \"#utility.yul\":8830:8866   */\n      iszero\n      tag_246\n      jumpi\n        /* \"#utility.yul\":8846:8864   */\n      tag_247\n      tag_148\n      jump\t// in\n    tag_247:\n        /* \"#utility.yul\":8830:8866   */\n    tag_246:\n        /* \"#utility.yul\":8682:8873   */\n      swap3\n      swap2\n      pop\n      pop\n      jump\t// out\n        /* \"#utility.yul\":8879:9050   */\n    tag_149:\n        /* \"#utility.yul\":9019:9042   */\n      0x4e6f2073686172657320746f2077697468647261770000000000000000000000\n        /* \"#utility.yul\":9015:9016   */\n      0x00\n        /* \"#utility.yul\":9007:9013   */\n      dup3\n        /* \"#utility.yul\":9003:9017   */\n      add\n        /* \"#utility.yul\":8996:9043   */\n      mstore\n        /* \"#utility.yul\":8879:9050   */\n      pop\n      jump\t// out\n        /* \"#utility.yul\":9056:9422   */\n    tag_150:\n        /* \"#utility.yul\":9198:9201   */\n      0x00\n        /* \"#utility.yul\":9219:9286   */\n      tag_250\n        /* \"#utility.yul\":9283:9285   */\n      0x15\n        /* \"#utility.yul\":9278:9281   */\n      dup4\n        /* \"#utility.yul\":9219:9286   */\n      tag_140\n      jump\t// in\n    tag_250:\n        /* \"#utility.yul\":9212:9286   */\n      swap2\n      pop\n        /* \"#utility.yul\":9295:9388   */\n      tag_251\n        /* \"#utility.yul\":9384:9387   */\n      dup3\n        /* \"#utility.yul\":9295:9388   */\n      tag_149\n      jump\t// in\n    tag_251:\n        /* \"#utility.yul\":9413:9415   */\n      0x20\n        /* \"#utility.yul\":9408:9411   */\n      dup3\n        /* \"#utility.yul\":9404:9416   */\n      add\n        /* \"#utility.yul\":9397:9416   */\n      swap1\n      pop\n        /* \"#utility.yul\":9056:9422   */\n      swap2\n      swap1\n      pop\n      jump\t// out\n        /* \"#utility.yul\":9428:9847   */\n    tag_71:\n        /* \"#utility.yul\":9594:9598   */\n      0x00\n        /* \"#utility.yul\":9632:9634   */\n      0x20\n        /* \"#utility.yul\":9621:9630   */\n      dup3\n        /* \"#utility.yul\":9617:9635   */\n      add\n        /* \"#utility.yul\":9609:9635   */\n      swap1\n      pop\n        /* \"#utility.yul\":9681:9690   */\n      dup2\n        /* \"#utility.yul\":9675:9679   */\n      dup2\n        /* \"#utility.yul\":9671:9691   */\n      sub\n        /* \"#utility.yul\":9667:9668   */\n      0x00\n        /* \"#utility.yul\":9656:9665   */\n      dup4\n        /* \"#utility.yul\":9652:9669   */\n      add\n        /* \"#utility.yul\":9645:9692   */\n      mstore\n        /* \"#utility.yul\":9709:9840   */\n      tag_253\n        /* \"#utility.yul\":9835:9839   */\n      dup2\n        /* \"#utility.yul\":9709:9840   */\n      tag_150\n      jump\t// in\n    tag_253:\n        /* \"#utility.yul\":9701:9840   */\n      swap1\n      pop\n        /* \"#utility.yul\":9428:9847   */\n      swap2\n      swap1\n      pop\n      jump\t// out\n        /* \"#utility.yul\":9853:10263   */\n    tag_73:\n        /* \"#utility.yul\":9893:9900   */\n      0x00\n        /* \"#utility.yul\":9916:9936   */\n      tag_255\n        /* \"#utility.yul\":9934:9935   */\n      dup3\n        /* \"#utility.yul\":9916:9936   */\n      tag_126\n      jump\t// in\n    tag_255:\n        /* \"#utility.yul\":9911:9936   */\n      swap2\n      pop\n        /* \"#utility.yul\":9950:9970   */\n      tag_256\n        /* \"#utility.yul\":9968:9969   */\n      dup4\n        /* \"#utility.yul\":9950:9970   */\n      tag_126\n      jump\t// in\n    tag_256:\n        /* \"#utility.yul\":9945:9970   */\n      swap3\n      pop\n        /* \"#utility.yul\":10005:10006   */\n      dup3\n        /* \"#utility.yul\":10002:10003   */\n      dup3\n        /* \"#utility.yul\":9998:10007   */\n      mul\n        /* \"#utility.yul\":10027:10057   */\n      tag_257\n        /* \"#utility.yul\":10045:10056   */\n      dup2\n        /* \"#utility.yul\":10027:10057   */\n      tag_126\n      jump\t// in\n    tag_257:\n        /* \"#utility.yul\":10016:10057   */\n      swap2\n      pop\n        /* \"#utility.yul\":10206:10207   */\n      dup3\n        /* \"#utility.yul\":10197:10204   */\n      dup3\n        /* \"#utility.yul\":10193:10208   */\n      div\n        /* \"#utility.yul\":10190:10191   */\n      dup5\n        /* \"#utility.yul\":10187:10209   */\n      eq\n        /* \"#utility.yul\":10167:10168   */\n      dup4\n        /* \"#utility.yul\":10160:10169   */\n      iszero\n        /* \"#utility.yul\":10140:10223   */\n      or\n        /* \"#utility.yul\":10117:10256   */\n      tag_258\n      jumpi\n        /* \"#utility.yul\":10236:10254   */\n      tag_259\n      tag_148\n      jump\t// in\n    tag_259:\n        /* \"#utility.yul\":10117:10256   */\n    tag_258:\n        /* \"#utility.yul\":9901:10263   */\n      pop\n        /* \"#utility.yul\":9853:10263   */\n      swap3\n      swap2\n      pop\n      pop\n      jump\t// out\n        /* \"#utility.yul\":10269:10449   */\n    tag_151:\n        /* \"#utility.yul\":10317:10394   */\n      0x4e487b7100000000000000000000000000000000000000000000000000000000\n        /* \"#utility.yul\":10314:10315   */\n      0x00\n        /* \"#utility.yul\":10307:10395   */\n      mstore\n        /* \"#utility.yul\":10414:10418   */\n      0x12\n        /* \"#utility.yul\":10411:10412   */\n      0x04\n        /* \"#utility.yul\":10404:10419   */\n      mstore\n        /* \"#utility.yul\":10438:10442   */\n      0x24\n        /* \"#utility.yul\":10435:10436   */\n      0x00\n        /* \"#utility.yul\":10428:10443   */\n      revert\n        /* \"#utility.yul\":10455:10640   */\n    tag_75:\n        /* \"#utility.yul\":10495:10496   */\n      0x00\n        /* \"#utility.yul\":10512:10532   */\n      tag_262\n        /* \"#utility.yul\":10530:10531   */\n      dup3\n        /* \"#utility.yul\":10512:10532   */\n      tag_126\n      jump\t// in\n    tag_262:\n        /* \"#utility.yul\":10507:10532   */\n      swap2\n      pop\n        /* \"#utility.yul\":10546:10566   */\n      tag_263\n        /* \"#utility.yul\":10564:10565   */\n      dup4\n        /* \"#utility.yul\":10546:10566   */\n      tag_126\n      jump\t// in\n    tag_263:\n        /* \"#utility.yul\":10541:10566   */\n      swap3\n      pop\n        /* \"#utility.yul\":10585:10586   */\n      dup3\n        /* \"#utility.yul\":10575:10610   */\n      tag_264\n      jumpi\n        /* \"#utility.yul\":10590:10608   */\n      tag_265\n      tag_151\n      jump\t// in\n    tag_265:\n        /* \"#utility.yul\":10575:10610   */\n    tag_264:\n        /* \"#utility.yul\":10632:10633   */\n      dup3\n        /* \"#utility.yul\":10629:10630   */\n      dup3\n        /* \"#utility.yul\":10625:10634   */\n      div\n        /* \"#utility.yul\":10620:10634   */\n      swap1\n      pop\n        /* \"#utility.yul\":10455:10640   */\n      swap3\n      swap2\n      pop\n      pop\n      jump\t// out\n        /* \"#utility.yul\":10646:10840   */\n    tag_77:\n        /* \"#utility.yul\":10686:10690   */\n      0x00\n        /* \"#utility.yul\":10706:10726   */\n      tag_267\n        /* \"#utility.yul\":10724:10725   */\n      dup3\n        /* \"#utility.yul\":10706:10726   */\n      tag_126\n      jump\t// in\n    tag_267:\n        /* \"#utility.yul\":10701:10726   */\n      swap2\n      pop\n        /* \"#utility.yul\":10740:10760   */\n      tag_268\n        /* \"#utility.yul\":10758:10759   */\n      dup4\n        /* \"#utility.yul\":10740:10760   */\n      tag_126\n      jump\t// in\n    tag_268:\n        /* \"#utility.yul\":10735:10760   */\n      swap3\n      pop\n        /* \"#utility.yul\":10784:10785   */\n      dup3\n        /* \"#utility.yul\":10781:10782   */\n      dup3\n        /* \"#utility.yul\":10777:10786   */\n      sub\n        /* \"#utility.yul\":10769:10786   */\n      swap1\n      pop\n        /* \"#utility.yul\":10808:10809   */\n      dup2\n        /* \"#utility.yul\":10802:10806   */\n      dup2\n        /* \"#utility.yul\":10799:10810   */\n      gt\n        /* \"#utility.yul\":10796:10833   */\n      iszero\n      tag_269\n      jumpi\n        /* \"#utility.yul\":10813:10831   */\n      tag_270\n      tag_148\n      jump\t// in\n    tag_270:\n        /* \"#utility.yul\":10796:10833   */\n    tag_269:\n        /* \"#utility.yul\":10646:10840   */\n      swap3\n      swap2\n      pop\n      pop\n      jump\t// out\n        /* \"#utility.yul\":10846:11178   */\n    tag_80:\n        /* \"#utility.yul\":10967:10971   */\n      0x00\n        /* \"#utility.yul\":11005:11007   */\n      0x40\n        /* \"#utility.yul\":10994:11003   */\n      dup3\n        /* \"#utility.yul\":10990:11008   */\n      add\n        /* \"#utility.yul\":10982:11008   */\n      swap1\n      pop\n        /* \"#utility.yul\":11018:11089   */\n      tag_272\n        /* \"#utility.yul\":11086:11087   */\n      0x00\n        /* \"#utility.yul\":11075:11084   */\n      dup4\n        /* \"#utility.yul\":11071:11088   */\n      add\n        /* \"#utility.yul\":11062:11068   */\n      dup6\n        /* \"#utility.yul\":11018:11089   */\n      tag_136\n      jump\t// in\n    tag_272:\n        /* \"#utility.yul\":11099:11171   */\n      tag_273\n        /* \"#utility.yul\":11167:11169   */\n      0x20\n        /* \"#utility.yul\":11156:11165   */\n      dup4\n        /* \"#utility.yul\":11152:11170   */\n      add\n        /* \"#utility.yul\":11143:11149   */\n      dup5\n        /* \"#utility.yul\":11099:11171   */\n      tag_139\n      jump\t// in\n    tag_273:\n        /* \"#utility.yul\":10846:11178   */\n      swap4\n      swap3\n      pop\n      pop\n      pop\n      jump\t// out\n\n    auxdata: 0xa264697066735822122024dd28e3f5d0230880aaa50f3b3d02d56a3f2a84a28eae46870e6165468a813664736f6c63430008180033\n}\n",
				"bytecode": {
					"linkReferences": {},
					"object": "60806040523480156200001157600080fd5b50604051620012b4380380620012b4833981810160405281019062000037919062000235565b33600073ffffffffffffffffffffffffffffffffffffffff168173ffffffffffffffffffffffffffffffffffffffff1603620000ad5760006040517f1e4fbdf7000000000000000000000000000000000000000000000000000000008152600401620000a4919062000278565b60405180910390fd5b620000be816200010760201b60201c565b5080600160006101000a81548173ffffffffffffffffffffffffffffffffffffffff021916908373ffffffffffffffffffffffffffffffffffffffff1602179055505062000295565b60008060009054906101000a900473ffffffffffffffffffffffffffffffffffffffff169050816000806101000a81548173ffffffffffffffffffffffffffffffffffffffff021916908373ffffffffffffffffffffffffffffffffffffffff1602179055508173ffffffffffffffffffffffffffffffffffffffff168173ffffffffffffffffffffffffffffffffffffffff167f8be0079c531659141344cd1fd0a4f28419497f9722a3daafe3b4186f6b6457e060405160405180910390a35050565b600080fd5b600073ffffffffffffffffffffffffffffffffffffffff82169050919050565b6000620001fd82620001d0565b9050919050565b6200020f81620001f0565b81146200021b57600080fd5b50565b6000815190506200022f8162000204565b92915050565b6000602082840312156200024e576200024d620001cb565b5b60006200025e848285016200021e565b91505092915050565b6200027281620001f0565b82525050565b60006020820190506200028f600083018462000267565b92915050565b61100f80620002a56000396000f3fe608060405234801561001057600080fd5b50600436106100925760003560e01c80638da5cb5b116100665780638da5cb5b146100f7578063a466f54214610115578063c8c85bad14610145578063eea04d0914610176578063f2fde38b146101a657610092565b8062aeef8a14610097578063127e2b15146100b3578063441a3e70146100d1578063715018a6146100ed575b600080fd5b6100b160048036038101906100ac9190610a1e565b6101c2565b005b6100bb6103bb565b6040516100c89190610af0565b60405180910390f35b6100eb60048036038101906100e69190610b0b565b6103e1565b005b6100f561061f565b005b6100ff610633565b60405161010c9190610b6c565b60405180910390f35b61012f600480360381019061012a9190610bb3565b61065c565b60405161013c9190610c15565b60405180910390f35b61015f600480360381019061015a9190610b0b565b6106da565b60405161016d929190610c30565b60405180910390f35b610190600480360381019061018b9190610a1e565b610724565b60405161019d9190610c15565b60405180910390f35b6101c060048036038101906101bb9190610c59565b61080a565b005b60008111610205576040517f08c379a00000000000000000000000000000000000000000000000000000000081526004016101fc90610ce3565b60405180910390fd5b6000600260008581526020019081526020016000209050600081600001600085815260200190815260200160002090506000610242868686610724565b9050600160009054906101000a900473ffffffffffffffffffffffffffffffffffffffff1673ffffffffffffffffffffffffffffffffffffffff166323b872dd3330876040518463ffffffff1660e01b81526004016102a393929190610d03565b6020604051808303816000875af11580156102c2573d6000803e3d6000fd5b505050506040513d601f19601f820116820180604052508101906102e69190610d72565b610325576040517f08c379a000000000000000000000000000000000000000000000000000000000815260040161031c90610deb565b60405180910390fd5b838260010160008282546103399190610e3a565b92505081905550808260020160003373ffffffffffffffffffffffffffffffffffffffff1673ffffffffffffffffffffffffffffffffffffffff16815260200190815260200160002060008282546103919190610e3a565b92505081905550808260000160008282546103ac9190610e3a565b92505081905550505050505050565b600160009054906101000a900473ffffffffffffffffffffffffffffffffffffffff1681565b60006002600084815260200190815260200160002090506000816000016000848152602001908152602001600020905060008160020160003373ffffffffffffffffffffffffffffffffffffffff1673ffffffffffffffffffffffffffffffffffffffff1681526020019081526020016000205490506000811161049a576040517f08c379a000000000000000000000000000000000000000000000000000000000815260040161049190610eba565b60405180910390fd5b600082600001548284600101546104b19190610eda565b6104bb9190610f4b565b9050808360010160008282546104d19190610f7c565b92505081905550818360000160008282546104ec9190610f7c565b925050819055508260020160003373ffffffffffffffffffffffffffffffffffffffff1673ffffffffffffffffffffffffffffffffffffffff16815260200190815260200160002060009055600160009054906101000a900473ffffffffffffffffffffffffffffffffffffffff1673ffffffffffffffffffffffffffffffffffffffff1663a9059cbb33836040518363ffffffff1660e01b8152600401610595929190610fb0565b6020604051808303816000875af11580156105b4573d6000803e3d6000fd5b505050506040513d601f19601f820116820180604052508101906105d89190610d72565b610617576040517f08c379a000000000000000000000000000000000000000000000000000000000815260040161060e90610deb565b60405180910390fd5b505050505050565b610627610890565b6106316000610917565b565b60008060009054906101000a900473ffffffffffffffffffffffffffffffffffffffff16905090565b600080600260008681526020019081526020016000209050600081600001600086815260200190815260200160002090508060020160008573ffffffffffffffffffffffffffffffffffffffff1673ffffffffffffffffffffffffffffffffffffffff16815260200190815260200160002054925050509392505050565b600080600060026000868152602001908152602001600020905060008160000160008681526020019081526020016000209050806000015481600101549350935050509250929050565b6000806002600086815260200190815260200160002090506000816000016000868152602001908152602001600020905060006127109050600082600101540361077f576002856107759190610eda565b9350505050610803565b60008183600101546107919190610f4b565b8261079c9190610f7c565b90506002826107ab9190610f4b565b81106107b757806107c5565b6002826107c49190610f4b565b5b90508183600101546107d79190610eda565b818460000154886107e89190610eda565b6107f29190610eda565b6107fc9190610f4b565b9450505050505b9392505050565b610812610890565b600073ffffffffffffffffffffffffffffffffffffffff168173ffffffffffffffffffffffffffffffffffffffff16036108845760006040517f1e4fbdf700000000000000000000000000000000000000000000000000000000815260040161087b9190610b6c565b60405180910390fd5b61088d81610917565b50565b6108986109db565b73ffffffffffffffffffffffffffffffffffffffff166108b6610633565b73ffffffffffffffffffffffffffffffffffffffff1614610915576108d96109db565b6040517f118cdaa700000000000000000000000000000000000000000000000000000000815260040161090c9190610b6c565b60405180910390fd5b565b60008060009054906101000a900473ffffffffffffffffffffffffffffffffffffffff169050816000806101000a81548173ffffffffffffffffffffffffffffffffffffffff021916908373ffffffffffffffffffffffffffffffffffffffff1602179055508173ffffffffffffffffffffffffffffffffffffffff168173ffffffffffffffffffffffffffffffffffffffff167f8be0079c531659141344cd1fd0a4f28419497f9722a3daafe3b4186f6b6457e060405160405180910390a35050565b600033905090565b600080fd5b6000819050919050565b6109fb816109e8565b8114610a0657600080fd5b50565b600081359050610a18816109f2565b92915050565b600080600060608486031215610a3757610a366109e3565b5b6000610a4586828701610a09565b9350506020610a5686828701610a09565b9250506040610a6786828701610a09565b9150509250925092565b600073ffffffffffffffffffffffffffffffffffffffff82169050919050565b6000819050919050565b6000610ab6610ab1610aac84610a71565b610a91565b610a71565b9050919050565b6000610ac882610a9b565b9050919050565b6000610ada82610abd565b9050919050565b610aea81610acf565b82525050565b6000602082019050610b056000830184610ae1565b92915050565b60008060408385031215610b2257610b216109e3565b5b6000610b3085828601610a09565b9250506020610b4185828601610a09565b9150509250929050565b6000610b5682610a71565b9050919050565b610b6681610b4b565b82525050565b6000602082019050610b816000830184610b5d565b92915050565b610b9081610b4b565b8114610b9b57600080fd5b50565b600081359050610bad81610b87565b92915050565b600080600060608486031215610bcc57610bcb6109e3565b5b6000610bda86828701610a09565b9350506020610beb86828701610a09565b9250506040610bfc86828701610b9e565b9150509250925092565b610c0f816109e8565b82525050565b6000602082019050610c2a6000830184610c06565b92915050565b6000604082019050610c456000830185610c06565b610c526020830184610c06565b9392505050565b600060208284031215610c6f57610c6e6109e3565b5b6000610c7d84828501610b9e565b91505092915050565b600082825260208201905092915050565b7f416d6f756e74206d75737420626520706f736974697665000000000000000000600082015250565b6000610ccd601783610c86565b9150610cd882610c97565b602082019050919050565b60006020820190508181036000830152610cfc81610cc0565b9050919050565b6000606082019050610d186000830186610b5d565b610d256020830185610b5d565b610d326040830184610c06565b949350505050565b60008115159050919050565b610d4f81610d3a565b8114610d5a57600080fd5b50565b600081519050610d6c81610d46565b92915050565b600060208284031215610d8857610d876109e3565b5b6000610d9684828501610d5d565b91505092915050565b7f5472616e73666572206661696c65640000000000000000000000000000000000600082015250565b6000610dd5600f83610c86565b9150610de082610d9f565b602082019050919050565b60006020820190508181036000830152610e0481610dc8565b9050919050565b7f4e487b7100000000000000000000000000000000000000000000000000000000600052601160045260246000fd5b6000610e45826109e8565b9150610e50836109e8565b9250828201905080821115610e6857610e67610e0b565b5b92915050565b7f4e6f2073686172657320746f2077697468647261770000000000000000000000600082015250565b6000610ea4601583610c86565b9150610eaf82610e6e565b602082019050919050565b60006020820190508181036000830152610ed381610e97565b9050919050565b6000610ee5826109e8565b9150610ef0836109e8565b9250828202610efe816109e8565b91508282048414831517610f1557610f14610e0b565b5b5092915050565b7f4e487b7100000000000000000000000000000000000000000000000000000000600052601260045260246000fd5b6000610f56826109e8565b9150610f61836109e8565b925082610f7157610f70610f1c565b5b828204905092915050565b6000610f87826109e8565b9150610f92836109e8565b9250828203905081811115610faa57610fa9610e0b565b5b92915050565b6000604082019050610fc56000830185610b5d565b610fd26020830184610c06565b939250505056fea264697066735822122024dd28e3f5d0230880aaa50f3b3d02d56a3f2a84a28eae46870e6165468a813664736f6c63430008180033",
					"opcodes": "PUSH1 0x80 PUSH1 0x40 MSTORE CALLVALUE DUP1 ISZERO PUSH3 0x11 JUMPI PUSH1 0x0 DUP1 REVERT JUMPDEST POP PUSH1 0x40 MLOAD PUSH3 0x12B4 CODESIZE SUB DUP1 PUSH3 0x12B4 DUP4 CODECOPY DUP2 DUP2 ADD PUSH1 0x40 MSTORE DUP2 ADD SWAP1 PUSH3 0x37 SWAP2 SWAP1 PUSH3 0x235 JUMP JUMPDEST CALLER PUSH1 0x0 PUSH20 0xFFFFFFFFFFFFFFFFFFFFFFFFFFFFFFFFFFFFFFFF AND DUP2 PUSH20 0xFFFFFFFFFFFFFFFFFFFFFFFFFFFFFFFFFFFFFFFF AND SUB PUSH3 0xAD JUMPI PUSH1 0x0 PUSH1 0x40 MLOAD PUSH32 0x1E4FBDF700000000000000000000000000000000000000000000000000000000 DUP2 MSTORE PUSH1 0x4 ADD PUSH3 0xA4 SWAP2 SWAP1 PUSH3 0x278 JUMP JUMPDEST PUSH1 0x40 MLOAD DUP1 SWAP2 SUB SWAP1 REVERT JUMPDEST PUSH3 0xBE DUP2 PUSH3 0x107 PUSH1 0x20 SHL PUSH1 0x20 SHR JUMP JUMPDEST POP DUP1 PUSH1 0x1 PUSH1 0x0 PUSH2 0x100 EXP DUP2 SLOAD DUP2 PUSH20 0xFFFFFFFFFFFFFFFFFFFFFFFFFFFFFFFFFFFFFFFF MUL NOT AND SWAP1 DUP4 PUSH20 0xFFFFFFFFFFFFFFFFFFFFFFFFFFFFFFFFFFFFFFFF AND MUL OR SWAP1 SSTORE POP POP PUSH3 0x295 JUMP JUMPDEST PUSH1 0x0 DUP1 PUSH1 0x0 SWAP1 SLOAD SWAP1 PUSH2 0x100 EXP SWAP1 DIV PUSH20 0xFFFFFFFFFFFFFFFFFFFFFFFFFFFFFFFFFFFFFFFF AND SWAP1 POP DUP2 PUSH1 0x0 DUP1 PUSH2 0x100 EXP DUP2 SLOAD DUP2 PUSH20 0xFFFFFFFFFFFFFFFFFFFFFFFFFFFFFFFFFFFFFFFF MUL NOT AND SWAP1 DUP4 PUSH20 0xFFFFFFFFFFFFFFFFFFFFFFFFFFFFFFFFFFFFFFFF AND MUL OR SWAP1 SSTORE POP DUP2 PUSH20 0xFFFFFFFFFFFFFFFFFFFFFFFFFFFFFFFFFFFFFFFF AND DUP2 PUSH20 0xFFFFFFFFFFFFFFFFFFFFFFFFFFFFFFFFFFFFFFFF AND PUSH32 0x8BE0079C531659141344CD1FD0A4F28419497F9722A3DAAFE3B4186F6B6457E0 PUSH1 0x40 MLOAD PUSH1 0x40 MLOAD DUP1 SWAP2 SUB SWAP1 LOG3 POP POP JUMP JUMPDEST PUSH1 0x0 DUP1 REVERT JUMPDEST PUSH1 0x0 PUSH20 0xFFFFFFFFFFFFFFFFFFFFFFFFFFFFFFFFFFFFFFFF DUP3 AND SWAP1 POP SWAP2 SWAP1 POP JUMP JUMPDEST PUSH1 0x0 PUSH3 0x1FD DUP3 PUSH3 0x1D0 JUMP JUMPDEST SWAP1 POP SWAP2 SWAP1 POP JUMP JUMPDEST PUSH3 0x20F DUP2 PUSH3 0x1F0 JUMP JUMPDEST DUP2 EQ PUSH3 0x21B JUMPI PUSH1 0x0 DUP1 REVERT JUMPDEST POP JUMP JUMPDEST PUSH1 0x0 DUP2 MLOAD SWAP1 POP PUSH3 0x22F DUP2 PUSH3 0x204 JUMP JUMPDEST SWAP3 SWAP2 POP POP JUMP JUMPDEST PUSH1 0x0 PUSH1 0x20 DUP3 DUP5 SUB SLT ISZERO PUSH3 0x24E JUMPI PUSH3 0x24D PUSH3 0x1CB JUMP JUMPDEST JUMPDEST PUSH1 0x0 PUSH3 0x25E DUP5 DUP3 DUP6 ADD PUSH3 0x21E JUMP JUMPDEST SWAP2 POP POP SWAP3 SWAP2 POP POP JUMP JUMPDEST PUSH3 0x272 DUP2 PUSH3 0x1F0 JUMP JUMPDEST DUP3 MSTORE POP POP JUMP JUMPDEST PUSH1 0x0 PUSH1 0x20 DUP3 ADD SWAP1 POP PUSH3 0x28F PUSH1 0x0 DUP4 ADD DUP5 PUSH3 0x267 JUMP JUMPDEST SWAP3 SWAP2 POP POP JUMP JUMPDEST PUSH2 0x100F DUP1 PUSH3 0x2A5 PUSH1 0x0 CODECOPY PUSH1 0x0 RETURN INVALID PUSH1 0x80 PUSH1 0x40 MSTORE CALLVALUE DUP1 ISZERO PUSH2 0x10 JUMPI PUSH1 0x0 DUP1 REVERT JUMPDEST POP PUSH1 0x4 CALLDATASIZE LT PUSH2 0x92 JUMPI PUSH1 0x0 CALLDATALOAD PUSH1 0xE0 SHR DUP1 PUSH4 0x8DA5CB5B GT PUSH2 0x66 JUMPI DUP1 PUSH4 0x8DA5CB5B EQ PUSH2 0xF7 JUMPI DUP1 PUSH4 0xA466F542 EQ PUSH2 0x115 JUMPI DUP1 PUSH4 0xC8C85BAD EQ PUSH2 0x145 JUMPI DUP1 PUSH4 0xEEA04D09 EQ PUSH2 0x176 JUMPI DUP1 PUSH4 0xF2FDE38B EQ PUSH2 0x1A6 JUMPI PUSH2 0x92 JUMP JUMPDEST DUP1 PUSH3 0xAEEF8A EQ PUSH2 0x97 JUMPI DUP1 PUSH4 0x127E2B15 EQ PUSH2 0xB3 JUMPI DUP1 PUSH4 0x441A3E70 EQ PUSH2 0xD1 JUMPI DUP1 PUSH4 0x715018A6 EQ PUSH2 0xED JUMPI JUMPDEST PUSH1 0x0 DUP1 REVERT JUMPDEST PUSH2 0xB1 PUSH1 0x4 DUP1 CALLDATASIZE SUB DUP2 ADD SWAP1 PUSH2 0xAC SWAP2 SWAP1 PUSH2 0xA1E JUMP JUMPDEST PUSH2 0x1C2 JUMP JUMPDEST STOP JUMPDEST PUSH2 0xBB PUSH2 0x3BB JUMP JUMPDEST PUSH1 0x40 MLOAD PUSH2 0xC8 SWAP2 SWAP1 PUSH2 0xAF0 JUMP JUMPDEST PUSH1 0x40 MLOAD DUP1 SWAP2 SUB SWAP1 RETURN JUMPDEST PUSH2 0xEB PUSH1 0x4 DUP1 CALLDATASIZE SUB DUP2 ADD SWAP1 PUSH2 0xE6 SWAP2 SWAP1 PUSH2 0xB0B JUMP JUMPDEST PUSH2 0x3E1 JUMP JUMPDEST STOP JUMPDEST PUSH2 0xF5 PUSH2 0x61F JUMP JUMPDEST STOP JUMPDEST PUSH2 0xFF PUSH2 0x633 JUMP JUMPDEST PUSH1 0x40 MLOAD PUSH2 0x10C SWAP2 SWAP1 PUSH2 0xB6C JUMP JUMPDEST PUSH1 0x40 MLOAD DUP1 SWAP2 SUB SWAP1 RETURN JUMPDEST PUSH2 0x12F PUSH1 0x4 DUP1 CALLDATASIZE SUB DUP2 ADD SWAP1 PUSH2 0x12A SWAP2 SWAP1 PUSH2 0xBB3 JUMP JUMPDEST PUSH2 0x65C JUMP JUMPDEST PUSH1 0x40 MLOAD PUSH2 0x13C SWAP2 SWAP1 PUSH2 0xC15 JUMP JUMPDEST PUSH1 0x40 MLOAD DUP1 SWAP2 SUB SWAP1 RETURN JUMPDEST PUSH2 0x15F PUSH1 0x4 DUP1 CALLDATASIZE SUB DUP2 ADD SWAP1 PUSH2 0x15A SWAP2 SWAP1 PUSH2 0xB0B JUMP JUMPDEST PUSH2 0x6DA JUMP JUMPDEST PUSH1 0x40 MLOAD PUSH2 0x16D SWAP3 SWAP2 SWAP1 PUSH2 0xC30 JUMP JUMPDEST PUSH1 0x40 MLOAD DUP1 SWAP2 SUB SWAP1 RETURN JUMPDEST PUSH2 0x190 PUSH1 0x4 DUP1 CALLDATASIZE SUB DUP2 ADD SWAP1 PUSH2 0x18B SWAP2 SWAP1 PUSH2 0xA1E JUMP JUMPDEST PUSH2 0x724 JUMP JUMPDEST PUSH1 0x40 MLOAD PUSH2 0x19D SWAP2 SWAP1 PUSH2 0xC15 JUMP JUMPDEST PUSH1 0x40 MLOAD DUP1 SWAP2 SUB SWAP1 RETURN JUMPDEST PUSH2 0x1C0 PUSH1 0x4 DUP1 CALLDATASIZE SUB DUP2 ADD SWAP1 PUSH2 0x1BB SWAP2 SWAP1 PUSH2 0xC59 JUMP JUMPDEST PUSH2 0x80A JUMP JUMPDEST STOP JUMPDEST PUSH1 0x0 DUP2 GT PUSH2 0x205 JUMPI PUSH1 0x40 MLOAD PUSH32 0x8C379A000000000000000000000000000000000000000000000000000000000 DUP2 MSTORE PUSH1 0x4 ADD PUSH2 0x1FC SWAP1 PUSH2 0xCE3 JUMP JUMPDEST PUSH1 0x40 MLOAD DUP1 SWAP2 SUB SWAP1 REVERT JUMPDEST PUSH1 0x0 PUSH1 0x2 PUSH1 0x0 DUP6 DUP2 MSTORE PUSH1 0x20 ADD SWAP1 DUP2 MSTORE PUSH1 0x20 ADD PUSH1 0x0 KECCAK256 SWAP1 POP PUSH1 0x0 DUP2 PUSH1 0x0 ADD PUSH1 0x0 DUP6 DUP2 MSTORE PUSH1 0x20 ADD SWAP1 DUP2 MSTORE PUSH1 0x20 ADD PUSH1 0x0 KECCAK256 SWAP1 POP PUSH1 0x0 PUSH2 0x242 DUP7 DUP7 DUP7 PUSH2 0x724 JUMP JUMPDEST SWAP1 POP PUSH1 0x1 PUSH1 0x0 SWAP1 SLOAD SWAP1 PUSH2 0x100 EXP SWAP1 DIV PUSH20 0xFFFFFFFFFFFFFFFFFFFFFFFFFFFFFFFFFFFFFFFF AND PUSH20 0xFFFFFFFFFFFFFFFFFFFFFFFFFFFFFFFFFFFFFFFF AND PUSH4 0x23B872DD CALLER ADDRESS DUP8 PUSH1 0x40 MLOAD DUP5 PUSH4 0xFFFFFFFF AND PUSH1 0xE0 SHL DUP2 MSTORE PUSH1 0x4 ADD PUSH2 0x2A3 SWAP4 SWAP3 SWAP2 SWAP1 PUSH2 0xD03 JUMP JUMPDEST PUSH1 0x20 PUSH1 0x40 MLOAD DUP1 DUP4 SUB DUP2 PUSH1 0x0 DUP8 GAS CALL ISZERO DUP1 ISZERO PUSH2 0x2C2 JUMPI RETURNDATASIZE PUSH1 0x0 DUP1 RETURNDATACOPY RETURNDATASIZE PUSH1 0x0 REVERT JUMPDEST POP POP POP POP PUSH1 0x40 MLOAD RETURNDATASIZE PUSH1 0x1F NOT PUSH1 0x1F DUP3 ADD AND DUP3 ADD DUP1 PUSH1 0x40 MSTORE POP DUP2 ADD SWAP1 PUSH2 0x2E6 SWAP2 SWAP1 PUSH2 0xD72 JUMP JUMPDEST PUSH2 0x325 JUMPI PUSH1 0x40 MLOAD PUSH32 0x8C379A000000000000000000000000000000000000000000000000000000000 DUP2 MSTORE PUSH1 0x4 ADD PUSH2 0x31C SWAP1 PUSH2 0xDEB JUMP JUMPDEST PUSH1 0x40 MLOAD DUP1 SWAP2 SUB SWAP1 REVERT JUMPDEST DUP4 DUP3 PUSH1 0x1 ADD PUSH1 0x0 DUP3 DUP3 SLOAD PUSH2 0x339 SWAP2 SWAP1 PUSH2 0xE3A JUMP JUMPDEST SWAP3 POP POP DUP2 SWAP1 SSTORE POP DUP1 DUP3 PUSH1 0x2 ADD PUSH1 0x0 CALLER PUSH20 0xFFFFFFFFFFFFFFFFFFFFFFFFFFFFFFFFFFFFFFFF AND PUSH20 0xFFFFFFFFFFFFFFFFFFFFFFFFFFFFFFFFFFFFFFFF AND DUP2 MSTORE PUSH1 0x20 ADD SWAP1 DUP2 MSTORE PUSH1 0x20 ADD PUSH1 0x0 KECCAK256 PUSH1 0x0 DUP3 DUP3 SLOAD PUSH2 0x391 SWAP2 SWAP1 PUSH2 0xE3A JUMP JUMPDEST SWAP3 POP POP DUP2 SWAP1 SSTORE POP DUP1 DUP3 PUSH1 0x0 ADD PUSH1 0x0 DUP3 DUP3 SLOAD PUSH2 0x3AC SWAP2 SWAP1 PUSH2 0xE3A JUMP JUMPDEST SWAP3 POP POP DUP2 SWAP1 SSTORE POP POP POP POP POP POP POP JUMP JUMPDEST PUSH1 0x1 PUSH1 0x0 SWAP1 SLOAD SWAP1 PUSH2 0x100 EXP SWAP1 DIV PUSH20 0xFFFFFFFFFFFFFFFFFFFFFFFFFFFFFFFFFFFFFFFF AND DUP2 JUMP JUMPDEST PUSH1 0x0 PUSH1 0x2 PUSH1 0x0 DUP5 DUP2 MSTORE PUSH1 0x20 ADD SWAP1 DUP2 MSTORE PUSH1 0x20 ADD PUSH1 0x0 KECCAK256 SWAP1 POP PUSH1 0x0 DUP2 PUSH1 0x0 ADD PUSH1 0x0 DUP5 DUP2 MSTORE PUSH1 0x20 ADD SWAP1 DUP2 MSTORE PUSH1 0x20 ADD PUSH1 0x0 KECCAK256 SWAP1 POP PUSH1 0x0 DUP2 PUSH1 0x2 ADD PUSH1 0x0 CALLER PUSH20 0xFFFFFFFFFFFFFFFFFFFFFFFFFFFFFFFFFFFFFFFF AND PUSH20 0xFFFFFFFFFFFFFFFFFFFFFFFFFFFFFFFFFFFFFFFF AND DUP2 MSTORE PUSH1 0x20 ADD SWAP1 DUP2 MSTORE PUSH1 0x20 ADD PUSH1 0x0 KECCAK256 SLOAD SWAP1 POP PUSH1 0x0 DUP2 GT PUSH2 0x49A JUMPI PUSH1 0x40 MLOAD PUSH32 0x8C379A000000000000000000000000000000000000000000000000000000000 DUP2 MSTORE PUSH1 0x4 ADD PUSH2 0x491 SWAP1 PUSH2 0xEBA JUMP JUMPDEST PUSH1 0x40 MLOAD DUP1 SWAP2 SUB SWAP1 REVERT JUMPDEST PUSH1 0x0 DUP3 PUSH1 0x0 ADD SLOAD DUP3 DUP5 PUSH1 0x1 ADD SLOAD PUSH2 0x4B1 SWAP2 SWAP1 PUSH2 0xEDA JUMP JUMPDEST PUSH2 0x4BB SWAP2 SWAP1 PUSH2 0xF4B JUMP JUMPDEST SWAP1 POP DUP1 DUP4 PUSH1 0x1 ADD PUSH1 0x0 DUP3 DUP3 SLOAD PUSH2 0x4D1 SWAP2 SWAP1 PUSH2 0xF7C JUMP JUMPDEST SWAP3 POP POP DUP2 SWAP1 SSTORE POP DUP2 DUP4 PUSH1 0x0 ADD PUSH1 0x0 DUP3 DUP3 SLOAD PUSH2 0x4EC SWAP2 SWAP1 PUSH2 0xF7C JUMP JUMPDEST SWAP3 POP POP DUP2 SWAP1 SSTORE POP DUP3 PUSH1 0x2 ADD PUSH1 0x0 CALLER PUSH20 0xFFFFFFFFFFFFFFFFFFFFFFFFFFFFFFFFFFFFFFFF AND PUSH20 0xFFFFFFFFFFFFFFFFFFFFFFFFFFFFFFFFFFFFFFFF AND DUP2 MSTORE PUSH1 0x20 ADD SWAP1 DUP2 MSTORE PUSH1 0x20 ADD PUSH1 0x0 KECCAK256 PUSH1 0x0 SWAP1 SSTORE PUSH1 0x1 PUSH1 0x0 SWAP1 SLOAD SWAP1 PUSH2 0x100 EXP SWAP1 DIV PUSH20 0xFFFFFFFFFFFFFFFFFFFFFFFFFFFFFFFFFFFFFFFF AND PUSH20 0xFFFFFFFFFFFFFFFFFFFFFFFFFFFFFFFFFFFFFFFF AND PUSH4 0xA9059CBB CALLER DUP4 PUSH1 0x40 MLOAD DUP4 PUSH4 0xFFFFFFFF AND PUSH1 0xE0 SHL DUP2 MSTORE PUSH1 0x4 ADD PUSH2 0x595 SWAP3 SWAP2 SWAP1 PUSH2 0xFB0 JUMP JUMPDEST PUSH1 0x20 PUSH1 0x40 MLOAD DUP1 DUP4 SUB DUP2 PUSH1 0x0 DUP8 GAS CALL ISZERO DUP1 ISZERO PUSH2 0x5B4 JUMPI RETURNDATASIZE PUSH1 0x0 DUP1 RETURNDATACOPY RETURNDATASIZE PUSH1 0x0 REVERT JUMPDEST POP POP POP POP PUSH1 0x40 MLOAD RETURNDATASIZE PUSH1 0x1F NOT PUSH1 0x1F DUP3 ADD AND DUP3 ADD DUP1 PUSH1 0x40 MSTORE POP DUP2 ADD SWAP1 PUSH2 0x5D8 SWAP2 SWAP1 PUSH2 0xD72 JUMP JUMPDEST PUSH2 0x617 JUMPI PUSH1 0x40 MLOAD PUSH32 0x8C379A000000000000000000000000000000000000000000000000000000000 DUP2 MSTORE PUSH1 0x4 ADD PUSH2 0x60E SWAP1 PUSH2 0xDEB JUMP JUMPDEST PUSH1 0x40 MLOAD DUP1 SWAP2 SUB SWAP1 REVERT JUMPDEST POP POP POP POP POP POP JUMP JUMPDEST PUSH2 0x627 PUSH2 0x890 JUMP JUMPDEST PUSH2 0x631 PUSH1 0x0 PUSH2 0x917 JUMP JUMPDEST JUMP JUMPDEST PUSH1 0x0 DUP1 PUSH1 0x0 SWAP1 SLOAD SWAP1 PUSH2 0x100 EXP SWAP1 DIV PUSH20 0xFFFFFFFFFFFFFFFFFFFFFFFFFFFFFFFFFFFFFFFF AND SWAP1 POP SWAP1 JUMP JUMPDEST PUSH1 0x0 DUP1 PUSH1 0x2 PUSH1 0x0 DUP7 DUP2 MSTORE PUSH1 0x20 ADD SWAP1 DUP2 MSTORE PUSH1 0x20 ADD PUSH1 0x0 KECCAK256 SWAP1 POP PUSH1 0x0 DUP2 PUSH1 0x0 ADD PUSH1 0x0 DUP7 DUP2 MSTORE PUSH1 0x20 ADD SWAP1 DUP2 MSTORE PUSH1 0x20 ADD PUSH1 0x0 KECCAK256 SWAP1 POP DUP1 PUSH1 0x2 ADD PUSH1 0x0 DUP6 PUSH20 0xFFFFFFFFFFFFFFFFFFFFFFFFFFFFFFFFFFFFFFFF AND PUSH20 0xFFFFFFFFFFFFFFFFFFFFFFFFFFFFFFFFFFFFFFFF AND DUP2 MSTORE PUSH1 0x20 ADD SWAP1 DUP2 MSTORE PUSH1 0x20 ADD PUSH1 0x0 KECCAK256 SLOAD SWAP3 POP POP POP SWAP4 SWAP3 POP POP POP JUMP JUMPDEST PUSH1 0x0 DUP1 PUSH1 0x0 PUSH1 0x2 PUSH1 0x0 DUP7 DUP2 MSTORE PUSH1 0x20 ADD SWAP1 DUP2 MSTORE PUSH1 0x20 ADD PUSH1 0x0 KECCAK256 SWAP1 POP PUSH1 0x0 DUP2 PUSH1 0x0 ADD PUSH1 0x0 DUP7 DUP2 MSTORE PUSH1 0x20 ADD SWAP1 DUP2 MSTORE PUSH1 0x20 ADD PUSH1 0x0 KECCAK256 SWAP1 POP DUP1 PUSH1 0x0 ADD SLOAD DUP2 PUSH1 0x1 ADD SLOAD SWAP4 POP SWAP4 POP POP POP SWAP3 POP SWAP3 SWAP1 POP JUMP JUMPDEST PUSH1 0x0 DUP1 PUSH1 0x2 PUSH1 0x0 DUP7 DUP2 MSTORE PUSH1 0x20 ADD SWAP1 DUP2 MSTORE PUSH1 0x20 ADD PUSH1 0x0 KECCAK256 SWAP1 POP PUSH1 0x0 DUP2 PUSH1 0x0 ADD PUSH1 0x0 DUP7 DUP2 MSTORE PUSH1 0x20 ADD SWAP1 DUP2 MSTORE PUSH1 0x20 ADD PUSH1 0x0 KECCAK256 SWAP1 POP PUSH1 0x0 PUSH2 0x2710 SWAP1 POP PUSH1 0x0 DUP3 PUSH1 0x1 ADD SLOAD SUB PUSH2 0x77F JUMPI PUSH1 0x2 DUP6 PUSH2 0x775 SWAP2 SWAP1 PUSH2 0xEDA JUMP JUMPDEST SWAP4 POP POP POP POP PUSH2 0x803 JUMP JUMPDEST PUSH1 0x0 DUP2 DUP4 PUSH1 0x1 ADD SLOAD PUSH2 0x791 SWAP2 SWAP1 PUSH2 0xF4B JUMP JUMPDEST DUP3 PUSH2 0x79C SWAP2 SWAP1 PUSH2 0xF7C JUMP JUMPDEST SWAP1 POP PUSH1 0x2 DUP3 PUSH2 0x7AB SWAP2 SWAP1 PUSH2 0xF4B JUMP JUMPDEST DUP2 LT PUSH2 0x7B7 JUMPI DUP1 PUSH2 0x7C5 JUMP JUMPDEST PUSH1 0x2 DUP3 PUSH2 0x7C4 SWAP2 SWAP1 PUSH2 0xF4B JUMP JUMPDEST JUMPDEST SWAP1 POP DUP2 DUP4 PUSH1 0x1 ADD SLOAD PUSH2 0x7D7 SWAP2 SWAP1 PUSH2 0xEDA JUMP JUMPDEST DUP2 DUP5 PUSH1 0x0 ADD SLOAD DUP9 PUSH2 0x7E8 SWAP2 SWAP1 PUSH2 0xEDA JUMP JUMPDEST PUSH2 0x7F2 SWAP2 SWAP1 PUSH2 0xEDA JUMP JUMPDEST PUSH2 0x7FC SWAP2 SWAP1 PUSH2 0xF4B JUMP JUMPDEST SWAP5 POP POP POP POP POP JUMPDEST SWAP4 SWAP3 POP POP POP JUMP JUMPDEST PUSH2 0x812 PUSH2 0x890 JUMP JUMPDEST PUSH1 0x0 PUSH20 0xFFFFFFFFFFFFFFFFFFFFFFFFFFFFFFFFFFFFFFFF AND DUP2 PUSH20 0xFFFFFFFFFFFFFFFFFFFFFFFFFFFFFFFFFFFFFFFF AND SUB PUSH2 0x884 JUMPI PUSH1 0x0 PUSH1 0x40 MLOAD PUSH32 0x1E4FBDF700000000000000000000000000000000000000000000000000000000 DUP2 MSTORE PUSH1 0x4 ADD PUSH2 0x87B SWAP2 SWAP1 PUSH2 0xB6C JUMP JUMPDEST PUSH1 0x40 MLOAD DUP1 SWAP2 SUB SWAP1 REVERT JUMPDEST PUSH2 0x88D DUP2 PUSH2 0x917 JUMP JUMPDEST POP JUMP JUMPDEST PUSH2 0x898 PUSH2 0x9DB JUMP JUMPDEST PUSH20 0xFFFFFFFFFFFFFFFFFFFFFFFFFFFFFFFFFFFFFFFF AND PUSH2 0x8B6 PUSH2 0x633 JUMP JUMPDEST PUSH20 0xFFFFFFFFFFFFFFFFFFFFFFFFFFFFFFFFFFFFFFFF AND EQ PUSH2 0x915 JUMPI PUSH2 0x8D9 PUSH2 0x9DB JUMP JUMPDEST PUSH1 0x40 MLOAD PUSH32 0x118CDAA700000000000000000000000000000000000000000000000000000000 DUP2 MSTORE PUSH1 0x4 ADD PUSH2 0x90C SWAP2 SWAP1 PUSH2 0xB6C JUMP JUMPDEST PUSH1 0x40 MLOAD DUP1 SWAP2 SUB SWAP1 REVERT JUMPDEST JUMP JUMPDEST PUSH1 0x0 DUP1 PUSH1 0x0 SWAP1 SLOAD SWAP1 PUSH2 0x100 EXP SWAP1 DIV PUSH20 0xFFFFFFFFFFFFFFFFFFFFFFFFFFFFFFFFFFFFFFFF AND SWAP1 POP DUP2 PUSH1 0x0 DUP1 PUSH2 0x100 EXP DUP2 SLOAD DUP2 PUSH20 0xFFFFFFFFFFFFFFFFFFFFFFFFFFFFFFFFFFFFFFFF MUL NOT AND SWAP1 DUP4 PUSH20 0xFFFFFFFFFFFFFFFFFFFFFFFFFFFFFFFFFFFFFFFF AND MUL OR SWAP1 SSTORE POP DUP2 PUSH20 0xFFFFFFFFFFFFFFFFFFFFFFFFFFFFFFFFFFFFFFFF AND DUP2 PUSH20 0xFFFFFFFFFFFFFFFFFFFFFFFFFFFFFFFFFFFFFFFF AND PUSH32 0x8BE0079C531659141344CD1FD0A4F28419497F9722A3DAAFE3B4186F6B6457E0 PUSH1 0x40 MLOAD PUSH1 0x40 MLOAD DUP1 SWAP2 SUB SWAP1 LOG3 POP POP JUMP JUMPDEST PUSH1 0x0 CALLER SWAP1 POP SWAP1 JUMP JUMPDEST PUSH1 0x0 DUP1 REVERT JUMPDEST PUSH1 0x0 DUP2 SWAP1 POP SWAP2 SWAP1 POP JUMP JUMPDEST PUSH2 0x9FB DUP2 PUSH2 0x9E8 JUMP JUMPDEST DUP2 EQ PUSH2 0xA06 JUMPI PUSH1 0x0 DUP1 REVERT JUMPDEST POP JUMP JUMPDEST PUSH1 0x0 DUP2 CALLDATALOAD SWAP1 POP PUSH2 0xA18 DUP2 PUSH2 0x9F2 JUMP JUMPDEST SWAP3 SWAP2 POP POP JUMP JUMPDEST PUSH1 0x0 DUP1 PUSH1 0x0 PUSH1 0x60 DUP5 DUP7 SUB SLT ISZERO PUSH2 0xA37 JUMPI PUSH2 0xA36 PUSH2 0x9E3 JUMP JUMPDEST JUMPDEST PUSH1 0x0 PUSH2 0xA45 DUP7 DUP3 DUP8 ADD PUSH2 0xA09 JUMP JUMPDEST SWAP4 POP POP PUSH1 0x20 PUSH2 0xA56 DUP7 DUP3 DUP8 ADD PUSH2 0xA09 JUMP JUMPDEST SWAP3 POP POP PUSH1 0x40 PUSH2 0xA67 DUP7 DUP3 DUP8 ADD PUSH2 0xA09 JUMP JUMPDEST SWAP2 POP POP SWAP3 POP SWAP3 POP SWAP3 JUMP JUMPDEST PUSH1 0x0 PUSH20 0xFFFFFFFFFFFFFFFFFFFFFFFFFFFFFFFFFFFFFFFF DUP3 AND SWAP1 POP SWAP2 SWAP1 POP JUMP JUMPDEST PUSH1 0x0 DUP2 SWAP1 POP SWAP2 SWAP1 POP JUMP JUMPDEST PUSH1 0x0 PUSH2 0xAB6 PUSH2 0xAB1 PUSH2 0xAAC DUP5 PUSH2 0xA71 JUMP JUMPDEST PUSH2 0xA91 JUMP JUMPDEST PUSH2 0xA71 JUMP JUMPDEST SWAP1 POP SWAP2 SWAP1 POP JUMP JUMPDEST PUSH1 0x0 PUSH2 0xAC8 DUP3 PUSH2 0xA9B JUMP JUMPDEST SWAP1 POP SWAP2 SWAP1 POP JUMP JUMPDEST PUSH1 0x0 PUSH2 0xADA DUP3 PUSH2 0xABD JUMP JUMPDEST SWAP1 POP SWAP2 SWAP1 POP JUMP JUMPDEST PUSH2 0xAEA DUP2 PUSH2 0xACF JUMP JUMPDEST DUP3 MSTORE POP POP JUMP JUMPDEST PUSH1 0x0 PUSH1 0x20 DUP3 ADD SWAP1 POP PUSH2 0xB05 PUSH1 0x0 DUP4 ADD DUP5 PUSH2 0xAE1 JUMP JUMPDEST SWAP3 SWAP2 POP POP JUMP JUMPDEST PUSH1 0x0 DUP1 PUSH1 0x40 DUP4 DUP6 SUB SLT ISZERO PUSH2 0xB22 JUMPI PUSH2 0xB21 PUSH2 0x9E3 JUMP JUMPDEST JUMPDEST PUSH1 0x0 PUSH2 0xB30 DUP6 DUP3 DUP7 ADD PUSH2 0xA09 JUMP JUMPDEST SWAP3 POP POP PUSH1 0x20 PUSH2 0xB41 DUP6 DUP3 DUP7 ADD PUSH2 0xA09 JUMP JUMPDEST SWAP2 POP POP SWAP3 POP SWAP3 SWAP1 POP JUMP JUMPDEST PUSH1 0x0 PUSH2 0xB56 DUP3 PUSH2 0xA71 JUMP JUMPDEST SWAP1 POP SWAP2 SWAP1 POP JUMP JUMPDEST PUSH2 0xB66 DUP2 PUSH2 0xB4B JUMP JUMPDEST DUP3 MSTORE POP POP JUMP JUMPDEST PUSH1 0x0 PUSH1 0x20 DUP3 ADD SWAP1 POP PUSH2 0xB81 PUSH1 0x0 DUP4 ADD DUP5 PUSH2 0xB5D JUMP JUMPDEST SWAP3 SWAP2 POP POP JUMP JUMPDEST PUSH2 0xB90 DUP2 PUSH2 0xB4B JUMP JUMPDEST DUP2 EQ PUSH2 0xB9B JUMPI PUSH1 0x0 DUP1 REVERT JUMPDEST POP JUMP JUMPDEST PUSH1 0x0 DUP2 CALLDATALOAD SWAP1 POP PUSH2 0xBAD DUP2 PUSH2 0xB87 JUMP JUMPDEST SWAP3 SWAP2 POP POP JUMP JUMPDEST PUSH1 0x0 DUP1 PUSH1 0x0 PUSH1 0x60 DUP5 DUP7 SUB SLT ISZERO PUSH2 0xBCC JUMPI PUSH2 0xBCB PUSH2 0x9E3 JUMP JUMPDEST JUMPDEST PUSH1 0x0 PUSH2 0xBDA DUP7 DUP3 DUP8 ADD PUSH2 0xA09 JUMP JUMPDEST SWAP4 POP POP PUSH1 0x20 PUSH2 0xBEB DUP7 DUP3 DUP8 ADD PUSH2 0xA09 JUMP JUMPDEST SWAP3 POP POP PUSH1 0x40 PUSH2 0xBFC DUP7 DUP3 DUP8 ADD PUSH2 0xB9E JUMP JUMPDEST SWAP2 POP POP SWAP3 POP SWAP3 POP SWAP3 JUMP JUMPDEST PUSH2 0xC0F DUP2 PUSH2 0x9E8 JUMP JUMPDEST DUP3 MSTORE POP POP JUMP JUMPDEST PUSH1 0x0 PUSH1 0x20 DUP3 ADD SWAP1 POP PUSH2 0xC2A PUSH1 0x0 DUP4 ADD DUP5 PUSH2 0xC06 JUMP JUMPDEST SWAP3 SWAP2 POP POP JUMP JUMPDEST PUSH1 0x0 PUSH1 0x40 DUP3 ADD SWAP1 POP PUSH2 0xC45 PUSH1 0x0 DUP4 ADD DUP6 PUSH2 0xC06 JUMP JUMPDEST PUSH2 0xC52 PUSH1 0x20 DUP4 ADD DUP5 PUSH2 0xC06 JUMP JUMPDEST SWAP4 SWAP3 POP POP POP JUMP JUMPDEST PUSH1 0x0 PUSH1 0x20 DUP3 DUP5 SUB SLT ISZERO PUSH2 0xC6F JUMPI PUSH2 0xC6E PUSH2 0x9E3 JUMP JUMPDEST JUMPDEST PUSH1 0x0 PUSH2 0xC7D DUP5 DUP3 DUP6 ADD PUSH2 0xB9E JUMP JUMPDEST SWAP2 POP POP SWAP3 SWAP2 POP POP JUMP JUMPDEST PUSH1 0x0 DUP3 DUP3 MSTORE PUSH1 0x20 DUP3 ADD SWAP1 POP SWAP3 SWAP2 POP POP JUMP JUMPDEST PUSH32 0x416D6F756E74206D75737420626520706F736974697665000000000000000000 PUSH1 0x0 DUP3 ADD MSTORE POP JUMP JUMPDEST PUSH1 0x0 PUSH2 0xCCD PUSH1 0x17 DUP4 PUSH2 0xC86 JUMP JUMPDEST SWAP2 POP PUSH2 0xCD8 DUP3 PUSH2 0xC97 JUMP JUMPDEST PUSH1 0x20 DUP3 ADD SWAP1 POP SWAP2 SWAP1 POP JUMP JUMPDEST PUSH1 0x0 PUSH1 0x20 DUP3 ADD SWAP1 POP DUP2 DUP2 SUB PUSH1 0x0 DUP4 ADD MSTORE PUSH2 0xCFC DUP2 PUSH2 0xCC0 JUMP JUMPDEST SWAP1 POP SWAP2 SWAP1 POP JUMP JUMPDEST PUSH1 0x0 PUSH1 0x60 DUP3 ADD SWAP1 POP PUSH2 0xD18 PUSH1 0x0 DUP4 ADD DUP7 PUSH2 0xB5D JUMP JUMPDEST PUSH2 0xD25 PUSH1 0x20 DUP4 ADD DUP6 PUSH2 0xB5D JUMP JUMPDEST PUSH2 0xD32 PUSH1 0x40 DUP4 ADD DUP5 PUSH2 0xC06 JUMP JUMPDEST SWAP5 SWAP4 POP POP POP POP JUMP JUMPDEST PUSH1 0x0 DUP2 ISZERO ISZERO SWAP1 POP SWAP2 SWAP1 POP JUMP JUMPDEST PUSH2 0xD4F DUP2 PUSH2 0xD3A JUMP JUMPDEST DUP2 EQ PUSH2 0xD5A JUMPI PUSH1 0x0 DUP1 REVERT JUMPDEST POP JUMP JUMPDEST PUSH1 0x0 DUP2 MLOAD SWAP1 POP PUSH2 0xD6C DUP2 PUSH2 0xD46 JUMP JUMPDEST SWAP3 SWAP2 POP POP JUMP JUMPDEST PUSH1 0x0 PUSH1 0x20 DUP3 DUP5 SUB SLT ISZERO PUSH2 0xD88 JUMPI PUSH2 0xD87 PUSH2 0x9E3 JUMP JUMPDEST JUMPDEST PUSH1 0x0 PUSH2 0xD96 DUP5 DUP3 DUP6 ADD PUSH2 0xD5D JUMP JUMPDEST SWAP2 POP POP SWAP3 SWAP2 POP POP JUMP JUMPDEST PUSH32 0x5472616E73666572206661696C65640000000000000000000000000000000000 PUSH1 0x0 DUP3 ADD MSTORE POP JUMP JUMPDEST PUSH1 0x0 PUSH2 0xDD5 PUSH1 0xF DUP4 PUSH2 0xC86 JUMP JUMPDEST SWAP2 POP PUSH2 0xDE0 DUP3 PUSH2 0xD9F JUMP JUMPDEST PUSH1 0x20 DUP3 ADD SWAP1 POP SWAP2 SWAP1 POP JUMP JUMPDEST PUSH1 0x0 PUSH1 0x20 DUP3 ADD SWAP1 POP DUP2 DUP2 SUB PUSH1 0x0 DUP4 ADD MSTORE PUSH2 0xE04 DUP2 PUSH2 0xDC8 JUMP JUMPDEST SWAP1 POP SWAP2 SWAP1 POP JUMP JUMPDEST PUSH32 0x4E487B7100000000000000000000000000000000000000000000000000000000 PUSH1 0x0 MSTORE PUSH1 0x11 PUSH1 0x4 MSTORE PUSH1 0x24 PUSH1 0x0 REVERT JUMPDEST PUSH1 0x0 PUSH2 0xE45 DUP3 PUSH2 0x9E8 JUMP JUMPDEST SWAP2 POP PUSH2 0xE50 DUP4 PUSH2 0x9E8 JUMP JUMPDEST SWAP3 POP DUP3 DUP3 ADD SWAP1 POP DUP1 DUP3 GT ISZERO PUSH2 0xE68 JUMPI PUSH2 0xE67 PUSH2 0xE0B JUMP JUMPDEST JUMPDEST SWAP3 SWAP2 POP POP JUMP JUMPDEST PUSH32 0x4E6F2073686172657320746F2077697468647261770000000000000000000000 PUSH1 0x0 DUP3 ADD MSTORE POP JUMP JUMPDEST PUSH1 0x0 PUSH2 0xEA4 PUSH1 0x15 DUP4 PUSH2 0xC86 JUMP JUMPDEST SWAP2 POP PUSH2 0xEAF DUP3 PUSH2 0xE6E JUMP JUMPDEST PUSH1 0x20 DUP3 ADD SWAP1 POP SWAP2 SWAP1 POP JUMP JUMPDEST PUSH1 0x0 PUSH1 0x20 DUP3 ADD SWAP1 POP DUP2 DUP2 SUB PUSH1 0x0 DUP4 ADD MSTORE PUSH2 0xED3 DUP2 PUSH2 0xE97 JUMP JUMPDEST SWAP1 POP SWAP2 SWAP1 POP JUMP JUMPDEST PUSH1 0x0 PUSH2 0xEE5 DUP3 PUSH2 0x9E8 JUMP JUMPDEST SWAP2 POP PUSH2 0xEF0 DUP4 PUSH2 0x9E8 JUMP JUMPDEST SWAP3 POP DUP3 DUP3 MUL PUSH2 0xEFE DUP2 PUSH2 0x9E8 JUMP JUMPDEST SWAP2 POP DUP3 DUP3 DIV DUP5 EQ DUP4 ISZERO OR PUSH2 0xF15 JUMPI PUSH2 0xF14 PUSH2 0xE0B JUMP JUMPDEST JUMPDEST POP SWAP3 SWAP2 POP POP JUMP JUMPDEST PUSH32 0x4E487B7100000000000000000000000000000000000000000000000000000000 PUSH1 0x0 MSTORE PUSH1 0x12 PUSH1 0x4 MSTORE PUSH1 0x24 PUSH1 0x0 REVERT JUMPDEST PUSH1 0x0 PUSH2 0xF56 DUP3 PUSH2 0x9E8 JUMP JUMPDEST SWAP2 POP PUSH2 0xF61 DUP4 PUSH2 0x9E8 JUMP JUMPDEST SWAP3 POP DUP3 PUSH2 0xF71 JUMPI PUSH2 0xF70 PUSH2 0xF1C JUMP JUMPDEST JUMPDEST DUP3 DUP3 DIV SWAP1 POP SWAP3 SWAP2 POP POP JUMP JUMPDEST PUSH1 0x0 PUSH2 0xF87 DUP3 PUSH2 0x9E8 JUMP JUMPDEST SWAP2 POP PUSH2 0xF92 DUP4 PUSH2 0x9E8 JUMP JUMPDEST SWAP3 POP DUP3 DUP3 SUB SWAP1 POP DUP2 DUP2 GT ISZERO PUSH2 0xFAA JUMPI PUSH2 0xFA9 PUSH2 0xE0B JUMP JUMPDEST JUMPDEST SWAP3 SWAP2 POP POP JUMP JUMPDEST PUSH1 0x0 PUSH1 0x40 DUP3 ADD SWAP1 POP PUSH2 0xFC5 PUSH1 0x0 DUP4 ADD DUP6 PUSH2 0xB5D JUMP JUMPDEST PUSH2 0xFD2 PUSH1 0x20 DUP4 ADD DUP5 PUSH2 0xC06 JUMP JUMPDEST SWAP4 SWAP3 POP POP POP JUMP INVALID LOG2 PUSH5 0x6970667358 0x22 SLT KECCAK256 0x24 0xDD 0x28 0xE3 CREATE2 0xD0 0x23 ADDMOD DUP1 0xAA 0xA5 0xF EXTCODESIZE RETURNDATASIZE MUL 0xD5 PUSH11 0x3F2A84A28EAE46870E6165 CHAINID DUP11 DUP2 CALLDATASIZE PUSH5 0x736F6C6343 STOP ADDMOD XOR STOP CALLER "
				},
				"gasEstimates": {
					"creation": {
						"codeDepositCost": "822200",
						"executionCost": "infinite",
						"totalCost": "infinite"
					},
					"external": {
						"calculateShares(uint256,uint256,uint256)": "infinite",
						"deposit(uint256,uint256,uint256)": "infinite",
						"getPoolInfo(uint256,uint256)": "infinite",
						"getUserShares(uint256,uint256,address)": "infinite",
						"owner()": "2522",
						"reactToken()": "infinite",
						"renounceOwnership()": "infinite",
						"transferOwnership(address)": "infinite",
						"withdraw(uint256,uint256)": "infinite"
					}
				},
				"methodIdentifiers": {
					"calculateShares(uint256,uint256,uint256)": "eea04d09",
					"deposit(uint256,uint256,uint256)": "00aeef8a",
					"getPoolInfo(uint256,uint256)": "c8c85bad",
					"getUserShares(uint256,uint256,address)": "a466f542",
					"owner()": "8da5cb5b",
					"reactToken()": "127e2b15",
					"renounceOwnership()": "715018a6",
					"transferOwnership(address)": "f2fde38b",
					"withdraw(uint256,uint256)": "441a3e70"
				}
			},
			"storageLayout": {
				"storage": [
					{
						"astId": 8,
						"contract": "reactsPool.sol:ReactLiquidityPool",
						"label": "_owner",
						"offset": 0,
						"slot": "0",
						"type": "t_address"
					},
					{
						"astId": 264,
						"contract": "reactsPool.sol:ReactLiquidityPool",
						"label": "reactToken",
						"offset": 0,
						"slot": "1",
						"type": "t_contract(IERC20)225"
					},
					{
						"astId": 284,
						"contract": "reactsPool.sol:ReactLiquidityPool",
						"label": "nftPools",
						"offset": 0,
						"slot": "2",
						"type": "t_mapping(t_uint256,t_struct(NFTPool)279_storage)"
					}
				],
				"types": {
					"t_address": {
						"encoding": "inplace",
						"label": "address",
						"numberOfBytes": "20"
					},
					"t_contract(IERC20)225": {
						"encoding": "inplace",
						"label": "contract IERC20",
						"numberOfBytes": "20"
					},
					"t_mapping(t_address,t_uint256)": {
						"encoding": "mapping",
						"key": "t_address",
						"label": "mapping(address => uint256)",
						"numberOfBytes": "32",
						"value": "t_uint256"
					},
					"t_mapping(t_uint256,t_struct(NFTPool)279_storage)": {
						"encoding": "mapping",
						"key": "t_uint256",
						"label": "mapping(uint256 => struct ReactLiquidityPool.NFTPool)",
						"numberOfBytes": "32",
						"value": "t_struct(NFTPool)279_storage"
					},
					"t_mapping(t_uint256,t_struct(Pool)273_storage)": {
						"encoding": "mapping",
						"key": "t_uint256",
						"label": "mapping(uint256 => struct ReactLiquidityPool.Pool)",
						"numberOfBytes": "32",
						"value": "t_struct(Pool)273_storage"
					},
					"t_struct(NFTPool)279_storage": {
						"encoding": "inplace",
						"label": "struct ReactLiquidityPool.NFTPool",
						"members": [
							{
								"astId": 278,
								"contract": "reactsPool.sol:ReactLiquidityPool",
								"label": "reacts",
								"offset": 0,
								"slot": "0",
								"type": "t_mapping(t_uint256,t_struct(Pool)273_storage)"
							}
						],
						"numberOfBytes": "32"
					},
					"t_struct(Pool)273_storage": {
						"encoding": "inplace",
						"label": "struct ReactLiquidityPool.Pool",
						"members": [
							{
								"astId": 266,
								"contract": "reactsPool.sol:ReactLiquidityPool",
								"label": "totalShares",
								"offset": 0,
								"slot": "0",
								"type": "t_uint256"
							},
							{
								"astId": 268,
								"contract": "reactsPool.sol:ReactLiquidityPool",
								"label": "totalDeposited",
								"offset": 0,
								"slot": "1",
								"type": "t_uint256"
							},
							{
								"astId": 272,
								"contract": "reactsPool.sol:ReactLiquidityPool",
								"label": "userShares",
								"offset": 0,
								"slot": "2",
								"type": "t_mapping(t_address,t_uint256)"
							}
						],
						"numberOfBytes": "96"
					},
					"t_uint256": {
						"encoding": "inplace",
						"label": "uint256",
						"numberOfBytes": "32"
					}
				}
			},
			"userdoc": {
				"kind": "user",
				"methods": {},
				"version": 1
			}
		}
	}
}